:0300000002D3BE6A
:0CD3BE00787FE4F6D8FD75817002D4057C
:10D3CA00025291E493A3F8E493A34003F68001F296
:10D3DA0008DFF48029E493A3F85407240CC8C33364
:10D3EA00C4540F4420C8834004F456800146F6DF33
:10D3FA00E4800B010204081020408090DEB9E47E2C
:10D40A00019360BCA3FF543F30E509541FFEE49327
:10D41A00A360010ECF54C025E060A840B8E493A3EE
:10D42A00FAE493A3F8E493A3C8C582C8CAC583CA19
:10D43A00F0A3C8C582C8CAC583CADFE9DEE780BED1
:01DEB9000068
:0EF26600F0EF25E02425F582E43406F583223E
:03002B0002E78960
:10E78900C0E0C0F0C083C082C0D075D01890062305
:10E79900E475F001123AB375CBF075CA60C2CFC304
:10E7A900900624E0947D900623E094004009E4F06B
:10E7B900A3F0D22012F023D0D0D082D083D0F0D0D1
:02E7C900E0323C
:10F02300D3900626E09400900625E0948040077470
:07F03300FFF5F0123AB322D1
:0300730002F09602
:10F0960053E67F53917F53C77F43C78053C77F4350
:06F0A600C78053C77F3252
:10EB7400E4900623F0A3F0FF12F267E4F0A312F28C
:10EB840066E0547FF00FEFB401EEE4F5C8538E0F46
:0FEB940075CBF0F5CA74FFF5CDF5CCD2ADD2CA72
:01EBA300224F
:10F19F00538EF8438E04758902758CEA758AEAD20C
:02F1AF008C22B0
:10F16600E4F59175959E75945875939E75925853CE
:03F176008EBF2227
:10F10200E4F591F595F59475937F7592FF538E3FD3
:04F1120043910422FF
:10F1B10012F267E0FEA3E07003EE64807002D322D6
:02F1C100C32267
:10F17900ED4C600E12F267ECF0A3ED12F266E0447A
:03F1890080F022F1
:10CC5500436C6F636B206D756C7469706C6965727C
:10CC650020616C7265616479206C6F636B65642CFF
:10CC750020736B697070696E67207265696E69747F
:10CC8500004F534349434E207C3D20307830333BA1
:10CC95002000434C4B4D554C20203D203078303002
:10CCA5003B2000434C4B4D554C207C3D2030783883
:10CCB500303B200044656C617920666F7220636C9F
:10CCC5006F636B206D756C7469706C696572207427
:10CCD5006F20626567696E200057616974696E67C8
:10CCE50020666F72206D756C7469706C6965722051
:09CCF500746F206C6F636B20006A
:1000030075B28353A9F8E4F586758DCC438E082227
:10F116007586BCE58630E6FBE5A954F84404F5A9F6
:04F1260053B27F223F
:10C6B400E5B930E518901C4CE49320E00302C75917
:10C6C4007ECC7F55A21292387D0902BA0A901C4C86
:10C6D400E49330E0077ECC7F8612C75A43B20390BE
:10C6E4001C4CE49330E0077ECC7F9712C75AE4F5E4
:10C6F400B9901C4C9330E0077ECC7FA812C76443EA
:10C70400B980901C4CE49330E0077ECC7FB912C70B
:10C7140064E4FFFE0FBF00010EBE01F8BFF4F54351
:10C72400B9C0E4FEFF0FBF00010EBE01F8BFF4F56F
:10C73400E5B920E517901C4CE49330E0F37ECC7F00
:10C74400DEA21292387D0912BA0A80E475A9037533
:05C754008D30438E084A
:10C7590022A21292387D0912BA0A22A21292387DB7
:05C769000912BA0A22CA
:0D002E000070007000DFF9EE6002DEF422C9
:100FA10043757272656E742054696D653A20005301
:100FB100657474696E67733A00475053206F6E0011
:100FC100475053206F66660044544147206F6E00BE
:100FD10044544147206F6666005072696E74696EB1
:100FE10067204750532073656E74656E63657300A7
:100FF1004E6F74205072696E74696E67204750534A
:101001002073656E74656E636573005374617274E9
:101011007570205461736B7320446F6E6500447367
:10102100702056657273696F6E3A20004E6F2064AE
:1010310061746120666F7220746865206C617374DD
:101041003A0009004461797309486F757273094D5B
:10105100696E75746573004D616B696E6720737598
:10106100726520496E746572727570747320656E55
:1010710061626C656420616E6420736D6242757398
:101081004F70656E0047505320554152542064699A
:101091007361626C65642000475053206973206E50
:1010A1006F7420706F77657265640044656C617957
:1010B1006564204750532066697820736176652006
:1010C10064756520746F20534D427573207265639A
:1010D100657074696F6E004C617267652046696C5A
:1010E100652053697A65004E65772046696C6520F5
:1010F100506172746974696F6E200046696C652075
:1011010073697A653A00537461727420726F7574F1
:10111100696E6520746F204750532073796E6300A8
:1011210061626F7274204750532073796E6320732C
:10113100696E636520475053206973206F666600AE
:101141004E65772054696D653A200054696D655389
:1011510074616D706564204453502F475053205380
:10116100796E6300202020204C6173742047505316
:1011710020617474656D7074207761732073756379
:101181006365737366756C2E2000202020204C61EE
:1011910073742047505320617474656D70742066B8
:1011A10061696C6564212000202020204750532074
:1011B10069732064697361626C65642E2000426109
:1011C100747465727920766F6C74616765206973D8
:1011D1003A2000486F75726C7920446574656374B8
:1011E100696F6E20436F756E742073696E6365203D
:1011F100506F776572204F4E3A2000546F74616CC6
:1012010020446574656374696F6E20436F756E74F5
:101211002073696E636520506F776572204F4E3A77
:101221002000202020506F6F72205369676E616C1F
:1012310000204E45454453205345525649434521CC
:10124100212100210020000D0A0D0A2D2D2D202A1B
:101251002A2A2054524944454E54205348454C4C67
:101261002053544152544544202A2A2A0D0A2D2D37
:101271002D000D0A2D2D2D20487964726F70686F35
:101281006E6520636F6D6D756E69636174696F6EF4
:1012910020737461727465642E00566F6C7461679B
:1012A100652076616C75653A20004D6E54616B6501
:1012B1004D6561737572656D656E747320526561FC
:1012C100642054656D706572617475726520005497
:1012D100656D70657261747572652076616C756596
:1012E1003A20004D6E54616B654D65617375726591
:1012F1006D656E74732047657474696E67207469D7
:101301006C740057616974696E6720706572696FEA
:10131100642076616C75653A200054696C7420769E
:10132100616C75653A20006164634765745072654C
:101331007373757265526573756C74005072657361
:10134100737572652076616C75653A20004E6F2069
:1013510056616C6964204473702056657273696FBD
:101361006E20696E20746865205254432D20546F9D
:1013710067676C65206120736F66747761726520A1
:101381007265736574206F662074686520445350DC
:1013910020746F20726574726965766520697400C6
:1013A10057616974696E6720666F722044535020DB
:1013B100746F2073656E642076657273696F6E2E2B
:1013C1002E2E005355434345535321212100496E8D
:1013D10076616C69642073657269616C206E756DEC
:1013E100626572005374617274206F66204D656D81
:1013F1006F7279204361726420496E7365727469FA
:101401006F6E004C6F6767696E6720746F2053447D
:10141100206D656D6F7279206361726420686173FC
:10142100206265656E20696E697469617465642EF8
:101431000057616974202E2E2E20004C6F672052B8
:101441006573756D65642061743A20005461674C61
:101451006F674F70656E00536D624F70656E00551A
:101461006E6C6F6164696E67206F75722064617460
:1014710061005461674C6F674F70656E656400531E
:1014810044206D656D6F72792063617264206861BB
:1014910073206265656E2072656D6F7665642E00DE
:1014A100456E64206F66204D656D6F7279206361B2
:1014B100726420696E73657274696F6E200054697D
:1014C1006C742043686970204944206E6F742072E7
:1014D1006563656976656400664E657753796E6309
:1014E10020526F6C6C6F766572204C6F6769630078
:1014F100756C43756D546F745F4453503A20007599
:101501006C43756D546F743A2000526F6C6C6F763A
:101511006572204164642056616C3A2000756C4309
:10152100756D546F74203D20756C43756D546F74E7
:101531005F4453500000664E657753796E632052C5
:1015410054432074696D652061646A7573746564C0
:10155100004D697373696E67206D656D6F727920D7
:10156100636172642E005374617274207570202D52
:1015710020446574656374696F6E73207A65726F58
:1015810065642E0055534220434D442052656365E6
:10159100697665643A2000354D47505353796E633F
:1015A100206973206E6F77207475726E6564206F89
:1015B1006E00354D47505353796E63206973206E29
:1015C1006F77207475726E6564206F66660053656F
:1015D1006E736F7220726174652069733A20004ED8
:1015E1006F20757064617465204E65656465640083
:1015F10043616E2774207365742053656E736F7237
:101601005261746520696E636F72726563742066DE
:101611006F726D617400536C656570205261746501
:101621002069733A200043616E277420736574202A
:10163100736C656570207261746520696E636F7289
:101641007265637420666F726D6174004E756D62B0
:101651006572206F662061736B732069733A200095
:1016610043616E2774207365742061736B2072610E
:10167100746520696E636F727265637420666F7240
:101681006D617400445441473A206F6E00445441E7
:10169100473A206F6666004750533A206F6E004705
:1016A10050533A206F66660035204D696E7574653A
:1016B1002053796E6320656E61626C65640035202C
:1016C1004D696E7574652053796E63206469736129
:1016D100626C6564004750532073656E74656E6378
:1016E10065207072696E74696E672069733A206F44
:1016F1006E004750532073656E74656E636520708C
:1017010072696E74696E672069733A206F6666004C
:1017110054696D6553796E63206C6F6767696E6795
:101721002069733A206F6E0054696D6553796E6359
:10173100206C6F6767696E672069733A206F666610
:1017410000486F75726C792046696C657320697306
:101751003A206F6E00486F75726C792046696C652E
:10176100732069733A206F6666004461696C792061
:1017710046696C65732069733A206F6E0044616934
:101781006C792046696C65732069733A206F6666CF
:101791000046696C65732064756D70733A206F6ED5
:1017A1000046696C65732064756D70733A206F66CD
:1017B100660054656D70657261747572653A206F6B
:1017C1006E0054656D70657261747572653A206F53
:1017D10066660050726573737572653A206F6E00AC
:1017E10050726573737572653A206F66660054694D
:1017F1006C743A206F6E0054696C743A206F66669F
:101801000053656E736F7220726174653A200073C4
:1018110000475053207361766520696E7465727656
:10182100616C3A20004E6F206368616E67652069C4
:101831006E206F6666736574004261642056616C48
:101841007565730042616420466F726D6174004377
:10185100757272656E742054696D655374616D7033
:101861003A200054696D657A6F6E65205365740086
:1018710054696D657A6F6E65206E6F74207365743F
:10188100206265636175736520696E76616C696458
:101891002074696D657A6F6E650054696D657A6F44
:1018A1006E65206E6F742073657420626563617567
:1018B100736520696E636F727265637420666F72FF
:1018C1006D61740054696D652077617320756E6177
:1018D100626C6520746F206265207365742063619A
:1018E10075736520696E636F727265637420666FCC
:1018F100726D6174005072696E74696E6720475031
:101901005320737472696E6773004E4F5420707266
:10191100696E74696E672047505320737472696EE3
:10192100677300496E636F727265637420466F72EC
:101931006D6174206F7220696E76616C69642076C6
:10194100616C75650047505320656E61626C65641A
:10195100004750532064697361626C6564004750AD
:1019610053206D6F64656D20276F6E2700475053BC
:10197100206D6F64656D206F666600475053206F60
:1019810075747075742072656365697665204F6E34
:1019910000475053206F75747075742072656365CC
:1019A100697665204F666600475053205072696E14
:1019B10074205541525400475053205072696E743F
:1019C1002055415254204F4646004F75747075742E
:1019D10074696E6720646574656374696F6E2064F1
:1019E1006174610053746F70206F757470757474D5
:1019F100696E6720646574656374696F6E206461E4
:101A01007461005570646174696E67205365726911
:101A1100616C204E756D6265720046696E6973680E
:101A210065640D0A4E65772053657269616C204EBD
:101A3100756D6265723A200043616E27742073658B
:101A41007420534E20696E636F72726563742066F1
:101A51006F726D6174005570646174696E672053B3
:101A61006974654E616D650046696E697368656488
:101A71000D0A4E657720536974654E616D653A2094
:101A8100004154532D48323020436F6E66696775AB
:101A9100726174696F6E205265717565737420721D
:101AA100656365697665640052656365697665722B
:101AB100205254432074696D653A20005072657359
:101AC10073757265204F66667365743A20005465BC
:101AD1006D7065726174757265204F6666736574A9
:101AE1003A200054696C742063616C69622E207322
:101AF1006C656570206F66667365743A2000546981
:101B01006C742063616C69622E2061736B206F6657
:101B1100667365743A200054797065283129004E46
:101B21006F20534420636172642070726573656E27
:101B3100740067657443757272656E7446696C658D
:101B41000073656E6443757272656E7446696C6587
:101B51000046696C654E616D653A200055736220DF
:101B61004461746120556E7265736F6C76656400B3
:101B71007563526573657442617474657279466CFC
:101B81006970466C6F7050335F32007563526573D4
:101B9100657442617474657279466C6970466C6FE4
:101BA100703A200044535020763A005369746520FE
:101BB1004E616D653A200046696C65204E616D6528
:101BC1003A200053657269616C204E756D626572D1
:101BD1003A200046696C6520466F726D617420562B
:101BE100657273696F6E3A20332E31202000466989
:101BF1006C652053746172743A200046696C6520EB
:101C0100456E643A200041545320547269746F6EDA
:101C110020526563656976657220465665727369FF
:101C21006F6E3A2031312E3232000D0A0000000F62
:101C3100FF03020030302E303000303930303000B8
:101C41004832302C49532C4D4E0008000000000052
:101C5100000000000000000010C4EA6136034100EA
:101C61006400760061006E0063006500640020007E
:101C7100540065006C0065006D0065007400720021
:101C810079002000530079007300740065006D0035
:101C910073001E0353006F006E0069006300200093
:101CA10052006500630065006900760065007200FE
:051CB1000F800100702E
:10DEBA004C029F0C0330003900300030003000C1A2
:10DECA0086C10CC121C116C1874101CE0042023B65
:10DEDA00000042018100004101CD004101EA0141F7
:10DEEA00029E0041028200410281094101F600417D
:10DEFA00029B0441029C0041023E0041023D004156
:07DF0A000002004102AB0020
:102966009004292430FFE52A75F080023E78900411
:10297600262430FFE52A75F080023E78C4540F24E1
:1029860030FFE52A75F080023E78540F2430FFE5CB
:102996002A75F080023E78FF75F00A84E5F024304F
:1029A600FEE52A75F080023E78C4540F2430FEEF0F
:1029B60075F080023E7890042F2430FFE52A75F0EA
:1029C60080023E78540F2430FEEF75F080023E7888
:1029D600C4540F2430FEEF75F080023E78540F2465
:1029E60030FFE52A75F080023E78FF75F00A84E52F
:1029F600F02430FEE52A75F080023E78C4540F2498
:102A060030FEEF75F080023E78F075F080E52A9092
:102A16000444123E787445F0E52A90044575F0802A
:102A2600023E78540F2430FEEF75F080023E785453
:102A36000F2430FFE52A75F080023E7875F080EEAF
:102A4600123E787420F075F080EE90047D123E7888
:102A5600742CF0EE90047E75F080023E78E52A90A4
:102A6600044275F080023E78540F2430FEEF75F074
:102A760080023E78EFF075F080E52A90042C123E35
:102A8600787432F0E52A90042D75F080023E78EFD6
:102A960075F08090045B023E78900467EF75F080D5
:102AA600023E78F075F080EE900478123E78742C31
:102AB600F0900479EE75F080023E78F0E52A75F024
:102AC60080900443023E78EF75F080900465023EE4
:102AD60078EF75F080900464023E7875F080EE120F
:102AE6003E787420F0EE75F080900475023E78EF23
:102AF60075F080900463023E78EF75F00A84243006
:102B0600FF75F080E52A023E7875F08090042A026F
:102B16003E7875F080900444023E7875F08090040B
:102B260027023E7875F08090042E023E7875F0807C
:102B360090042F023E7890045F75F080EF023E7895
:102B4600F090047F75F080EF023E7875F080900477
:102B560035023E7875F080900438023E7890045E27
:102B660075F080EF023E787420F0EE75F0809004E8
:102B76003D023E78EF75F080900450023E78F0EE0C
:102B860075F080900476023E78F0EF75F080900440
:102B96004E023E7890045C75F080EF023E78F0EECF
:102BA60075F080900477023E7875F0809004660296
:102BB6003E7875F080900440023E7875F08090046F
:102BC60026023E78EF75F08090044F023E7875F04D
:102BD6008090045D023E7875F080900425023E7870
:102BE60075F080900446023E787420F090046D756E
:102BF600F080EE023E7875F080900447023E78EB56
:102C0600F09002F5E0FC900303E0900004FE75F0FE
:102C160042123E78E5822CF582E43583F583E0FFA7
:102C260022900111E0FEEF75F00EA42411F582E466
:102C36003401F583EEF0900112E0FEEF75F00EA47C
:102C46002412F582E43401F583EEF0900113E0FEE0
:102C5600EF75F00EA42413F582E43401F583EEF04B
:102C6600900114E0FEEF75F00EA42414F582E4340E
:102C760001F583EEF0900115E0FEEF75F00EA42449
:102C860015F582E43401F583EEF0900116E0FEEFCF
:102C960075F00EA42416F582E43401F583EEF09067
:102CA6000117E0FEEF75F00EA42417F582E4340157
:102CB600F583EEF0900118E0FEEF75F00EA42418EF
:102CC600F582E43401F583EEF0900119E0FEEF752C
:102CD600F00EA42419F582E43401F583EEF0900198
:102CE6001AE0FEEF75F00EA4241AF582E43401F51D
:102CF60083EEF090011BE0FEEF75F00EA4241BF5A9
:102D060082E43401F583EEF090011CE0FEEF75F0ED
:102D16000EA4241CF582E43401F583EEF090011D27
:102D2600E0FEEF75F00EA4241DF582E43401F58370
:102D3600EEF090011EE0FEEF75F00EA42275F08015
:102D4600900448023E7875F080900449023E7875FA
:102D5600F080900431023E7875F08090044A023E7D
:102D66007875F080900434023E7875F080900441C6
:102D7600023E7875F080900432023E7875F08090BD
:102D8600043B123E787420F075F080227E127F4656
:102D9600A21292387D092290018EE024D0FFE434FD
:102DA600FFFE7C007D0A123A16A3E024D0FDEC3427
:102DB600FFCD2FFFED3EFE7D3C123A16AA06AB076D
:102DC60090018CE024D0FFE434FFFE7D0A123A160F
:102DD600A3E024D0FDEC34FFCD2FFFED3EFE7C0EAC
:102DE6007D10123A16EF2BFBEE3AFA900190E02492
:102DF600D0FFE434FFFE7C007D0A123A16A3E024DD
:102E0600D0FDEC34FFCD2F22E50875F00EA4241179
:102E1600F582E43401F583E09001F7F0E50875F0FA
:102E26000EA42412F582E43401F583E09001F8F053
:102E3600E4A3F07A0179F77B01A21292377D092289
:102E460035F0FA7B0175F00FE52B123E78E0229003
:102E5600080875F00FE52B123E78E02275F0809099
:102E66000437023E7875F080900401023E7875F0D2
:102E760080900402023E7875F080900404023E7849
:102E860075F08090040C023E7875F08090040E0276
:102E96003E7890080275F00FE52B123E78E0227519
:102EA600F080900412023E7875F080EF023E78FEC4
:102EB60075F080EF023E7875F080EE023E78E4937E
:102EC600FFE4FCFDFE9003757402F022EFF090081B
:102ED6000675F00FE52B123E78E022F583E09001AF
:102EE600F8F0A3742EF0E50875F00EA422FE75F036
:102EF60080EF023E7875F080EF023E7875F08090A4
:102F0600043A023E78EFF09002F5E0FC900303E00D
:102F1600FE75F04222900191E024D0FF900002E07D
:102F260075F00A84E5F022EFF090080975F00FE5D8
:102F36002B123E78E02275F080EF023E787E1C7FF1
:102F46004B7A02792C7B019003B4E4F0A32275F04E
:102F560080EE023E78FDC4540F2430F0ED540F2469
:102F660030A3F0229002B3EFF0E0FD242FF582E4C7
:102F76003402F583E024D090022CF074302DF582D3
:102F8600E43402F583E090022DF09002B3E02431A0
:102F9600F582E43402F583E024D090022EF0227507
:102FA600F080EF023E7875F080ED123E78EFF07516
:102FB600F042EE223EF583E538F09002F9E475F032
:102FC60001023AB39002F7123D85EC4D4E4F22783E
:102FD6000B7C017D017B007A00790D7E007F061255
:102FE600392178EE7C017D017E007F06023921EFD2
:102FF600F090080075F00FE52B123E78E02275F090
:1030060042900003123E78E5822FF582E43583F57F
:103016008322A21292387D0322E47B3CFAF9F890CF
:1030260002E7123D85023C37901C31E493FF33954D
:10303600E0FEFDFC2275F080EE123E787420F02250
:10304600EEF0ED75F00EA4229002F9E0FEA3E0FF8B
:103056009002F0E02FFF9002EFE03EFE22E09002A9
:103066002CF0900230E090022DF0900231E09002B8
:103076002EF0900232E090022FF0900233E09002A0
:1030860030F0227E0F7FA1A2129238E4FD22A80121
:10309600123D0BEF540FFFEF2430F538D39439224D
:1030A6009002EFE0FEA3E0FF2412F58274043EF5E1
:1030B6008322C3E4950CFFE4950BFE740F950AFD7D
:1030C600E49509FC2275F080EF023E7890022EE02E
:1030D600642022900190E024D075F00AA422900288
:1030E600B0E02414FFE433FEC3E5449FEE6480F8A9
:1030F60074809822900190E0FF7430D39F227B0168
:103106007A027967A21292377D0922123D85A804B8
:10311600A905AA06AB0722FFE4FCFDFE90030B748B
:1031260003F022EFF090080A75F00FE52B123E78B7
:10313600E02275F00EA42412F582E43401F5832210
:10314600E4939001CEF0E49002B3F090022CE0FFFD
:10315600E4D39F2290004475F042023E782413F592
:1031660082E43401F583E0222415F582E43401F586
:1031760083E022A21292387D012275F080EE023E93
:1031860078ED75F042123E78E0FFEE22E0FE242C48
:10319600F582E43402F583227F837EEC7D027C4057
:1031A6009001E4123DA1D3023CFA90022CE075F0A6
:1031B6000AA4FF90022EE02F9002B3F090022FE0B7
:1031C60022A3E0FFC3943022241EF582E43401F5E5
:1031D60083229002F9E0FEA3E0FFC322A3E0900160
:1031E600F724D0F0900230E024D022F0E52A75F0E2
:1031F60080A422E490023DF0A3F090029CF0227598
:10320600F010123947AFF0EF243090020CF0A3749F
:103216007A2274072538F53822EFF09002F5E0227D
:10322600D2B4E4F50CF50BF50AF509222414F5825F
:10323600E43401F583E0222416F582E43401F583B3
:10324600E0223EF5837420F0E49002F9F0A3F02228
:1032560075F080EF023E78E0FF9002B3E02FF02297
:10326600E49375F00AA4FFA3E4932FFFEC35F0FE78
:10327600229001F8540F2430F0A322FDE43CFC9088
:1032860002B3E0FED322900191E024D0FF90000229
:10329600E022D39002AEE094059002ADE064809403
:1032A6008022901C30E493FD3395E0FC123A7DEDCC
:1032B6004C22742DF0EF3395E0FE7CFF7DFF023A41
:1032C600169002EFE0FEA3E0222411F582E4340119
:1032D600F5832212359F9002B8123DFE9002BC2261
:1032E60075F00AE0A49002B3F022C2B37DB47C2D3F
:1032F6007F0F2275F03CEF84FFA3E02FF022744588
:10330600F075F080E52A22EF24D0FF9001CEE0751B
:10331600F00AA42FF0229002EFE0FCA3E0FD22AF1A
:1033260033AE32AD31AC3022F09002B3E004F0227D
:10333600900190E024D0FFEE75F00A8422A3742059
:10334600F0A3F0901C34E493FF2275F01012394775
:10335600243090020BF022E52B900803123E78E50C
:1033660082252E229002E3123DFE9002E322900275
:10337600B3E0FFC322EE123E78742CF022742CF0D8
:1033860075F080EE22E4FAF9F8023C37123D857BAF
:10339600D57AFF797F7839229002EFE075F08022A6
:1033A600EF123E787449F0227B407A42790F78001A
:1033B6009002E322AB0CAA0BA90AA809023CFAEE7A
:1033C600F0EF75F00A84229002B3E0C394012290D4
:1033D60001CEE0FFFD3395E0FCED229002B3123DF5
:1033E600BDEC4D4E4F22FFE4FCFD9003757407F0D3
:1033F600222417F582E43401F583E0222419F582AC
:10340600E43401F583E022241AF582E43401F583DD
:10341600E022241CF582E43401F583E022E493FDE6
:10342600FB3395E0FAEF6B22A3E493648094B02219
:10343600EFF0900303E0FD22C295C2A4C290229051
:103446001C4BE493FF22900269F0901C3CE493220B
:1034560090026AF0901C3DE4932290026BF0901C5F
:103466003EE4932290026CF0901C3FE493223CF5DC
:1034760083E538F022E0FF75F00A842430FE2290BE
:1034860002BC123DFE9002B822A21292377D0322A0
:10349600F09001F7E0FFE4D39F229001CEE0FFC356
:0134A6002203
:10529100E49002ADF0A3F0C233A3F0A3F0A3740530
:1052A100F0E49001CDF0C208C2299001EA04F09027
:1052B100029B7404F0D20153D9BF75C990E4F5FF84
:1052C10012000312E1DD12D5E212D44A1230891222
:1052D100BA0A12CAFC53C77F12F2D012B426123492
:1052E1003EC23512EF1B901C4BE49330E3057F085F
:1052F10012C0CAC232C2017E0F7FB0122D9612BAFD
:105301000A901C4BE49330E70B12ADA4D2257E0F1B
:105311007FBA800BE4F5E3C296C2257E0F7FC112EE
:105321002D9612BA0A901C4BE49330E6067E0F7F4D
:10533100C980047E0F7FD1122D9612BA0A901C4BA0
:10534100E49330E40E7E0F7FDA122D9612BA0AD260
:1053510013800C7E0F7FF1122D9612BA0AC2137EB2
:10536100107F0C122D9612BA0AE49001E9F0123165
:10537100FA12EBD378C67C017D017B007A00790DAE
:10538100122FEE901C31E4939001D0F0901C32E486
:10539100939001CCF0E49002ABF0D20690022BE5A1
:1053A10010F09002ACE511F0900264E512F012EBFE
:1053B100D31200033031167E107F1F12308D12BAC6
:1053C1000A7E1C7F35122D9612BA0AC231201C03A7
:1053D100309306301C19309316309603E4F5E3122E
:1053E100B42630250512ADA48005E4F5E3C296E5A7
:1053F10044700302548C300705209302D29012307E
:10540100E4503790029DE0C39404502E125B117555
:10541100F01E84E5F07010AF0D12F1D5C007125ADD
:10542100BED007EEB50713302261AF0D12F1D5C022
:1054310007125ABED007EE6F60511230E440089057
:1054410002AFE004F08007E49002AFF0A3F0900215
:10545100AFE0D39403400BA3E02404F09002AFE04B
:1054610014F09002AFE0B4C8037404F09002B0E00D
:105471002414FFE433FEC3EF9464EE64809480400F
:1054810003744CF0D234124981C22C30070C2093A2
:1054910009E5447005309002C290AF0E12F1D5C0FB
:1054A10007125AF5D007EE6F7003025555AF0D1272
:1054B100F1D5C007125AC9D007EE6F7003025555D6
:1054C100302C0302555590029CE004F0E0B43C0BF3
:1054D10090023EE004F0E490029CF090023EE0B4C1
:1054E100180990023DE004F0E4A3F090029CE03042
:1054F100E00C90023EE0700690023DE0604A7E10B2
:105501007F2D122D9612BA0A90023DE0122EC6127C
:10551100844FA21292377D07125B0090023EE01287
:105521002EC612844FA21292377D06125B009002A2
:105531009CE0122EC612844F122E3F12BCB87E1070
:105541007F45122D9612BA0A90023EE0D394214073
:10555100031231F930AF05E5E620E024AF0D12F179
:10556100D5C007125AC9D007EE6F600A7E107F5866
:10557100122D9612BA0AD2AF202105C23512EF1BA5
:1055810043870185878730980312BAF6E4FF12EE4C
:1055910087301379AF0D12F1D5C007125AD4D00755
:1055A100EE6F6024309614E5E330E00F7A017985DF
:1055B100122E3D12BCB812CAFC800D20960A7E1034
:1055C1007F99122D9612BA0A12328CFE122F26B52D
:1055D1000716123336B50710AF0D12F1D5C00712F9
:1055E1005AD4D007EEB507171230FA5012EF94399A
:1055F100500DA3E0FF74309F5005EF9439400E9099
:1056010002AD122FC31232984003125B3FE558D30B
:10561100940F500302583D20250302583D303D03AD
:1056210002583D900196E064416009A3E064416045
:1056310003025780900186E064476003025780129D
:105641002D9DFFED3ECF2BCF3AFE0C7D2C123A283B
:10565100ED4C7019122F1E6F6013901C4BE49330A8
:10566100E50B9002ABE0C3940A4002C206901C4EC7
:10567100E493FF901C4DE4934FFF901C4FE4934F34
:10568100FFA3E4934FFFA3E4934FFFA3E493F94FE8
:105691007003025780200365122D9DFFED3ECF2B35
:1056A100FBEF3AFAC002C003901C4F1232667D3CF8
:1056B100123A16AA06AB07901C4D1232667C0E7D7B
:1056C10010123A16EF2BFDEE3AFC901C51E4937543
:1056D100F00AA4FFE97A002FFFEA35F0CF2DFDEFA4
:1056E1003CFCD003D002AF03AE02123A28ED4C606D
:1056F10003025780122F1B6F700302578030030A79
:105701007E107FAC122D9612BA0A7B017A0179853F
:10571100122E3F12BCB8301C6653E6FEE541600410
:04572100640F70564B
:10572500E49002B2F09002B2E0FF2485F582E43401
:1057350001F583E0FE90029DE05403123004EEF083
:0A5745009002B2E004F0E0B441DB92
:10574F009002ABE0FF90029DE0540312315AEFF04C
:10575F0090029DE004F07F0412C0CAC2031230D938
:10576F00FFA3E024D02F900002F08002D20343E683
:10577F00019002ABE0D394F04003740AF012328C24
:10578F00FE122F266F70241233366F701EAF0D125C
:10579F00F1D5C007125ADFD007EE6F600E9002AD41
:1057AF00122FC31232984003125B3F900190E0FF1B
:1057BF00C39430403FEFD3943950391231C740343E
:1057CF00EFD39439502EEF123290F9122F266F60CB
:1057DF0023122DF1FBED3EFAE92401FFE433FE7DA8
:1057EF003C123A7DEDB5030CECB502089002ABE02C
:1057FF0004F0800B122F1B6F6005E49002ABF012C8
:10580F0030FA502AEF94395025A3E0FF74309F509F
:10581F001DEF94395018EF122F1F6F60111230D9EE
:10582F00900002F0E02FF0E49002ADF0A3F020061C
:10583F0016901C4BE49330E50E9002ABE0C3940A34
:10584F00400512AA2AD206125B1175F00F84E5F0FB
:10585F007013AF0D12F1D5C007125ADFD007EE6FDC
:10586F00600312D6E3AF0D12F1D5901C33E493FD14
:10587F003395E0FCEF2DFFE43CFE1232A87020AF11
:10588F000D12F1D5C007125AEAD007EE6F601090D3
:10589F001C4CE49330E4081232F012EBA4D2B3AFF5
:1058AF000D12F1D57E001232A87015AF0D12F1D581
:1058BF00C007125AEAD007EE6F6005C235128A3858
:1058CF00309313125B2120E00512343E8052D295A3
:1058DF00D2A4D290804AAF0D12F1D5C007125B341B
:1058EF00D007EE6F603A30070A125B2120E004B256
:1058FF00A48002C2A4300715AF0D12F1D5EF75F0D9
:10590F000384E5F07007300D04B2958002C2952034
:10591F00070E30900BAF0D12F1D5EF20E002C290C1
:10592F00AF0D12F1D5C007125B34D007EE6F7003C5
:10593F000259EE9001C6E50DF053AEFEE5C720E02B
:10594F00069002B17402F0202505C296E4F5E390AB
:10595F0001F6E0D394054005200D02D20D9002B15F
:10596F00E0D394004002D207301C7412319E406F76
:10597F007E107FD8122D9612BA0AC2341249819026
:10598F0001EAE0C39421503012319E402B125B2864
:10599F007E107FE8A21292387D0712BA0A9001EAB0
:1059AF00E0FFE4FCFDFE900375F012844F122E3FD2
:1059BF0012BCB812622280C77E107FFCA2129238EE
:1059CF007D0612BA0A9001E4123D85900375740B9F
:1059DF00F012844F122E3F12BCB8C23512EF1BAF1C
:1059EF000E12F1D5C007125AF5D007EE6F6019905D
:1059FF0001C7E50EF09002B1E0FF7006EFD39400FF
:105A0F0040069002B1E014F0AF0F12F1D5C00712AB
:105A1F005B18AE07D007EE6F70030253AF125B181F
:105A2F00C007AF0F12F1D5AE07D007C3EE9F6401C9
:105A3F00601A9001C8E0FF12F1D5C007AF0F12F145
:105A4F00D5AE07D007C3EE9F64E9705A12344530C4
:105A5F00E002D202EF30E214209311D234124981C6
:105A6F00D204C23412EFF2126222802720933190B7
:105A7F001C4BE49330E1299001C8E0FF12F1D5EF00
:105A8F006417701CAF0F12F1D5EF7014D234124996
:105A9F0081D200125B28126222C23512EF1B8006E0
:0F5AAF00C204C200C2029001C8E50FF00253AF5B
:105ABE009001C6E0FF12F1D5AE07229001C6E0FFBD
:105ACE0012F1D5AE07229001C6E0FF12F1D5AE0756
:105ADE00229001C6E0FF12F1D5AE07229001C6E07A
:105AEE00FF12F1D5AE07229001C7E0FF12F1D5AE3D
:105AFE00072212BCB87E107F43A21292387D071285
:105B0E00BA0A22AF0D12F1D5EF229001C8E0FF12B2
:105B1E00F1D522AF0D12F1D5EF22D23412EFF29061
:105B2E0001EAE004F0229001C6E0FF12F1D5AE07C3
:0B5B3E0022E4F0A3F07F0112E9142222
:10D5E200C23412498112F2D0C2AF12F03A1232F2B0
:10D5F20012EBA42094FD3094FD2094FDC2B430942B
:10D60200FD12322612EBD3122FD590010BE0FF123E
:10D61200F23990010B12D65190010C12D6519001A1
:10D622000D12D65A90010E12D65A90010FEFF0A3A6
:10D63200E0FF12F239900110EFF0C23512EF1B90A9
:10D642001C4BE49330E3057F0812C0CAD2AF22EF2D
:10D65200F0A3E0FF12F23922EFF0A3E0FF12F23959
:01D6620022A5
:0D004600C2871232F212EBA4D28702D5E27B
:10AA2A009002B3123E23000000017E117F07122D0F
:10AA3A009612BA0A20960A7E117F21122D9602BA20
:10AA4A000AC23412498112F2D0C2AF20A5051233CC
:10AA5A00E170F89002B3122FCD7002801A9002B3FF
:10AA6A00123E230000000130A5051233E170F89070
:10AA7A0002B3122FCD7007D2AFC23502EF1B90027C
:10AA8A00B3123E230000000130A5FDC2B420A5FD8B
:10AA9A00123226C23512EF1B7F0512C0CA90018CF2
:10AAAA001230DC12AB4A8F0F90018E1230DC12ABDF
:10AABA004A8F0E900190E075F00AA4FFA3E02F24BC
:10AACA00F2FF12F2198F0D90022BE0F5109002ACF2
:10AADA00E0F511900264E0F512122FD590010BE017
:10AAEA00FF12F23990010B12AB3890010C12AB38FD
:10AAFA0090010D12AB4190010E12AB4190010FEF84
:10AB0A00F0A3E0FF12F239900110EFF07F0612C0B5
:10AB1A00CA12E84F7E117F4112308D12BA0A12CA48
:0DAB2A00FC7E117F4C122D9612BA0AD2AF9C
:10AB370022EFF0A3E0FF12F23922EFF0A3E0FF12B9
:0EAB4700F23922FFA3E024D02FFF12F21922D0
:10D8D900E5119004271229CAEEF0E51190042612E9
:10D8E90029AFEEF0E51090042A1229CAEEF0E510EE
:10D8F9009004291229D6EEF0E51290042F122A2954
:10D90900EEF0E51290042E1229AFEEF0E50F900427
:10D9190032122A29EEF0E50F9004311229D6EEF0E1
:10D92900E50E900435122A6EEEF0E50E90043412DD
:10D939002A02EEF0E50D900438122A6EEEF0E50D9C
:09D94900900437122A02EEF022CC
:10E13300ED14601414603014603C240370469004A2
:10E1430000122AA2745B8018900400122B3F745BA8
:10E15300F0900401122B4A745BF0EF122A5A745D9B
:10E16300122B46745DF022900400122B6674201269
:10E173002B467420F022900400122B9D740A122B5C
:05E1830046740DF022BE
:05D9C8009002EFEFF0FA
:10D9CD00A3F09002F0E0FFC39404505B7D0312E1DD
:10D9DD00339002F0E090043912296E742EF0E4F5C4
:10D9ED0038F53974672539F58274023538F583E0D9
:10D9FD00FF9002F0E090040112297CE5822539F5B3
:10DA0D0082E5833538F583EFF00539E53970020588
:10DA1D00386419453870CC9002F0E0FF129BE2900B
:0DDA2D0002F0E004F0809B9002EFE0F513A2
:01DA3A0022C9
:10E2D500900424122EAE742CF0EF122BDD122D8B30
:10E2E500EF900428123E78742FF090042B122EFB29
:10E2F500742FF075F080EF900430122D88EF9004A4
:10E3050033123E78743AF0900436122EFB743AF0CC
:10E3150090042C122F3C7432F0EF122A8C7430F0DA
:01E3250022D5
:029BE200AE07CC
:109BE40090041A122ABA742CF0E4F53AF53B744145
:109BF400253BF582741C353AF583E493FF90041BEE
:109C0400122BF5E582253BF582E583353AF583EFA2
:109C1400F0053BE53B7002053A6409453A70CFAF65
:109C24000612E2D5EE122BB8742CF0EE122D7074DD
:109C340020F0EE122A657447F0EE122AC47437F04D
:109C4400EE122B187432F090044B122EBD742CF0CB
:109C540090044C122F547420F0900472122AE17470
:109C64002F122B847433122BA47431122AA9122BB1
:109C7400EF742CF090046E122A42122D8BEE900495
:109C84004D122D8890045112337B900452122F549C
:109C94007420F0901C4CE493FF20E415EE122B7B0F
:109CA4007441F0EE122BCB742FF0EE122B91744E04
:109CB400F0900455123180742EF0900458123180C3
:109CC400123383900459122D88EE90045A12303FB7
:109CD400EE122A96E0D39439500D75F080EE122AD4
:109CE40099E0C394305009EE122BD47441F0800AE9
:109CF40075F080EE122BD7742EF075F0809004600E
:109D040012337B90046112303BEF75F08030E3092D
:109D1400EE122BB2742EF08023EE90046712303FC3
:109D2400EE122BAF7420F0EE122ACE7441F0EE1234
:109D34002AD8742FF0EE122AF6744EF075F080EEE5
:109D4400900462122D88EE90046812337C900469AA
:039D540012303B8F
:019D570022E9
:10EF380012EBD39001F0E50FF0A3E510F0A3E51173
:0CEF4800F0A3E512F09001EFE50EF022BE
:10EDE20012CAFC30250F3010067E117F65800A7E24
:10EDF200117F8B80047E117FA9122D9612BA0A020E
:02EE0200C53E0B
:10CAFC00303E0302CBA8E511C4540F2430FD900145
:10CB0C00F7B430057420F08002EDF0E511123277A5
:10CB1C00742FF0E510C4122F63E510122F63A37469
:10CB2C002FF0E512C4122F63E512122F63A37420A9
:10CB3C00F0E50FC4540F2430FDB43006A37420F07C
:10CB4C008005900200EDF0E50F90020112327A742C
:10CB5C003AF0E50EC4122F63E50E122F63A3743A5C
:10CB6C00F0E50DC4122F63E50D122F63123343FD54
:10CB7C00C36480948090020A50071232B8AD0780CB
:10CB8C0003742BF0ED123350ED123205122E3512C8
:0CCB9C00BCB87D179001F7E4F0A3DDFCAD
:01CBA800226A
:10C48300303E0302C53D9001F2E0FFC4540F243057
:10C49300FE9001F7B430057420F08002EEF0EF1245
:10C4A3003277742FF09001F1E09001FA122F5BA321
:10C4B300742FF09001F3E09001FD122F5BA3742021
:10C4C300F09001F0E0FFC4540F2430FE900200B45A
:10C4D30030057420F08002EEF0EF540F2430900208
:10C4E30001F0A3743AF09001EFE0FDC4540F24303F
:10C4F300900203122F61A3743AF09001EEE0FDC4A1
:10C50300540F2430900206122F61123343FEC3648A
:10C5130080948090020A50071232B8AE07800374E9
:10C523002BF0EE123350EE123205122E3512BCB838
:0AC533007E179001F7E4F0A3DEFC90
:01C53D0022DB
:10C53E007E117FBF12308D12BA0A122EEC123163A9
:10C54E00FF12ED27122EEC123232FF12ED277F2E44
:10C55E0012ED27122EEC12316EFF12ED27122EEC79
:10C56E0012323DFF12ED277E117FD4A21292387D3A
:10C57E000812BA0A786DE6FE08E61233EC12844F02
:10C58E0012310A12BCB87E117FFC12317912BA0A2E
:10C59E0090062E123D85900375740CF012844F1286
:10C5AE002E3F12BCB8301A3DD3786EE6940018E6D2
:10C5BE00940040319001F6E004F07E127F23123198
:10C5CE007912BA0A9001F6E0D39406400E7E127FDD
:10C5DE003212317912BA0AD20D800A7E127F4412BB
:0BC5EE00317912BA0A122D9202BA0A2B
:10E1DD0075F1BF75F2FF75F3FF75F47E75F5FF757B
:10E1ED00A41D75A5E775A61975A77A75AE8075D4AA
:10E1FD00C875D5FF75D61975DFFF75E10775E24056
:10E20D0075E301C22AD2A075C70312EDBE7E127F3F
:10E21D004812308D12BA0A7E127F73122D9612BAE1
:04E22D000AC2B4224B
:108A3800E4F529F52A12C24B901C4CE49330E63831
:108A4800203E357E127F9B12301812BA0A122EEC85
:108A58001231639001F7122EEB2414F582E43401ED
:108A6800122EE112316E9001FA122EEB12323D9065
:108A780001FB122E3512BCB8122EEC123232FFB4A2
:108A8800340B122EEC12316ED394354006EFD3948A
:108A980033500D122EEC123163B43004C207800239
:108AA800D207E4F508C21F901C4C9330E25512A47B
:108AB80017901C4CE49330E00A7E127FAB122D967F
:108AC80012BA0A901C4CE49330E638203E357E12E8
:108AD8007FD012301812BA0A122EEC1233F7900116
:108AE800F7122EEB2418F582E43401122EE1123429
:108AF800029001FA122EEB12340D9001FB122E3562
:108B080012BCB8901C4CE493FF30E47A30E00A7E43
:108B1800127FE4122D9612BA0A752900752A01905F
:108B280001CCE0FFC3E52A9FE5299400503DC237F8
:108B380012A8FC901C4CE49330E0259001CCE0C3D3
:108B4800952AFFE49529FEC3EF9405EE9400501092
:108B58007E137F0412301812BA0A122E0E12BCB8F5
:108B6800052AE52A70020529028B27901C4CE493FC
:108B780030E613203E107E137F1B12301812BA0AFB
:108B8800122E0E12BCB8901C4CE49330E30E123235
:108B9800F012EBA43025057F0112E914901C4CE477
:108BA8009330E35D12B31F901C4CE49330E00A7ECF
:108BB800137F28122D9612BA0A901C4CE49330E6C3
:108BC80040203E3D7E137F3D12301812BA0A122E05
:108BD800EC1234189001F7122EEB241DF582E434C0
:108BE80001122EE11231CEE09001FA122EEB241F71
:108BF800F582E43401F583E09001FB122E3512BCB6
:108C0800B8D2B312F18C7F01122C271231CEEEF0BC
:098C18000FEF640870F275080703
:018C21002230
:10E4F800900304123EB6803A90030BE0D394004098
:10E5080039E014F0E47B0AFAF9F89003071230288E
:10E51800EB2430FF900304123E9690030BE0F58243
:10E52800758300EF1239F4900307123D857B0A12B8
:0BE53800338B900307123DFE80BE22D3
:108FDB00D234E49002B4F0A3F09002B41231DB94DB
:108FEB0034EE9400501474F72FF58274013EF58320
:108FFB00E4F09002B4122FC480DF900241742FF082
:10900B00900244F09002497420F090024C743AF0B4
:10901B0090024FF012C76E90023BE0FEA3E0FF4EB2
:10902B00601A901C2E1234237002EE6A600EED70E3
:10903B000B7E1C7F2E7A02793B12919D900181E071
:10904B00FEA3E0FF4E601A901C2F1234237002EE29
:10905B006A600EED700B7E1C7F2F7A017981129165
:10906B009D901C35E493C3648094B0401212342E4F
:10907B00400D901C3812342F400512342E503FC235
:10908B00117E137F4E122D9612BA0AD2B4C2877D6F
:10909B00407C067F0112EBA4D287C2B4D2B4C23596
:1090AB0012EF1B20110C7E137FA1122D9612BA0A00
:1090BB0080F17E137FC4122D9612BA0A8002D21150
:1090CB009002B3E0C394055051E4A3F0A3F09002D7
:1090DB00B41231DB9405EE94005026743B2FF582CD
:1090EB00741C3EF583E493FFD3648094B95008C39A
:1090FB00EF648094B05002C2349002B4122FC3803C
:10910B00CD901C44E493642C6002C2349002B3E013
:10911B0004F03034AB740AF080A620340C7E137F3D
:10912B00CF12308D12BA0A801AC213C222C2251274
:10913B00344530E402D213EF30E602D222EF30E7AF
:10914B0002D22512C0089002677453F0A314F0905A
:10915B001C3BE49312344C12345612346012346AB2
:10916B0090026DF012344530E20890026E7448F0B4
:10917B00800FEF90026E30E1057444F08003745F52
:10918B00F09002667404F0D235128A3812F31B0287
:02919B00C0080A
:0D919D007B019003B4F0A304F012EA372226
:10B42600E49002B3F0C295D2A4C29012EBD3901C62
:10B436004CE49330E0107E137FE5122D9612B5246E
:10B44600122D9212BA0A30930302B4F3301C03028F
:10B45600B5059001EBE0600302B505C20F7E147FCF
:10B4660004122D9612BA0A12C53E7E147F32122D90
:10B476009612BA0A9001E8E060527E147F3C1230C0
:10B486008D12B524126222901C4CE49330E00A7EA1
:10B49600147F4D122D9612BA0AC23512EF1B901C5C
:10B4A6004CE49330E0067E147F588018E544D3942C
:10B4B600004019C234124981901C4CE49330E0ECF0
:10B4C6007E147F60122D9612BA0A80E09001E8E0A1
:10B4D6007014901C4C9330E00A7E147F73122D96E4
:10B4E60012BA0A126222C23512EF1B8012301C0FEA
:10B4F6007E147F80122D9612BA0AD23412EFF29081
:10B506001C4CE49330E01612EBD37E147FA1122D6F
:0DB516009612BA0A12CAFC122D9212BA0A3D
:08B523002212BA0A12CAFC222E
:10EE8700E5C930E60E201208D212EF701012CDA796
:0EEE9700021CB6301202C212E4F5A9F5B9222F
:088652009002EFEEF0A3EFF03F
:10865A00900183E0F539A3E0F53A12324E1231D88F
:07866A009404EE9400504758
:10867100C374039FFFE49EFEEF7802C333CE33CE73
:10868100D8F9FF9002FBEEF0A3EFF0AE39E53AA87E
:1086910007088005CEC313CE13D8F9540F12309EAC
:1086A100400674272538F53812304E74012FF582B3
:0286B10074044F
:1086B300122FBA80AF1232C72405F5827404123226
:0186C300486E
:1086C4001231D874059FFFE49EFEEF7802C333CEC7
:1086D40033CED8F9FF9002FBEEF0FAA3EFF0FB9053
:1086E40002F5123D85A90312309440031232181288
:0986F400304E74062FF582740467
:1086FD00122FBA9002F9E07004A3E0640670B8126C
:10870D00331C240CF58274043CF5837420F0786FCF
:10871D00E6FAEAC4540F2430F538740D2DF5827441
:10872D0004123474D394394003123218EA540F12E0
:10873D00309E400312321812331C240EF58274043D
:10874D00123474786FE6FA08E6FBEAC4F854F0C800
:10875D00EBC4540F48540F12309E4003123218745C
:10876D000F2DF5827404123474EB540F12309E40A9
:10877D00031232181232C7FF2410F58274043EF52D
:10878D0083E538F0302610B4300D74102FF5827457
:10879D00043EF5837448F074112FF582740412327F
:1087AD00481231D89408EE94005026C374079F25C3
:1087BD00E025E0F99002F1123D851230944003124C
:1087CD00321812304E74122FF5827404122FBA80A3
:1087DD00D020250B1232C71230AE7444F0801E30FB
:1087ED00060B1232C71230AE744CF080101230A648
:1087FD00E0B4300974122F1230B07445F0300C1300
:10880D001230A6744CF074132FF58274043EF58368
:10881D007442F090029C12347B12331C2413F582A7
:10882D0074043CF583EEF0EF122F262430FF741400
:0A883D002DF58274043CF583EFF082
:01884700220E
:0BEBA4009002E3EFF0A3ECF0A3EDF013
:10EBAF00E4A3F09002E3E0FF9002E6E0C39F50136E
:10EBBF009002E4E0FEA3E0FF12002E9002E6E004D4
:03EBCF00F080E0F3
:01EBD2002220
:10A8FC0030372AE5087005752C078005E50814F536
:10A90C002CE52C123138E0FF122EEC12313CEFF01A
:10A91C00E52C75F00EA41232CFE002AA1612AA2072
:10A92C00D23812BF448E2D8F2EC23812BF448E2FB8
:10A93C008F3012AA20AC2DAD2EEC1236AA9002B894
:10A94C00123DFEAC2FAD30EC1236AA123485123308
:10A95C00921232D912339212359F12348512311160
:10A96C001232D912311112359F9002BC1232DF1201
:10A97C003D859002B8123DA11234AE12CBAD12E956
:10A98C00507BE67A2E7965784212359FE4FBFAF912
:10A99C00783F1234AE1236E39002B6EEF0A3EFF02D
:10A9AC009002B7E0F52BE53264517004E531643F59
:10A9BC006024752B639001CDE0C39414500A7E146F
:10A9CC007FBF122D9612BA0A9001CDE0C394195094
:10A9DC0014E004F0800FE532B4510AE531B43F05C0
:10A9EC00E49001CDF0E52BB4FF03752B5AE52B1247
:10A9FC002F262430FF122EEC12313CEFF0E52B7594
:10AA0C00F00A84F52B122F262430FF122EEC123272
:03AA1C00CFEFF089
:0BAA1F00227F4A12D6638E318F322254
:10CDA70090029F740CF0A37403F0E49002A2F09039
:10CDB70002A4F09002A6F09002A8F0901C3B93907A
:10CDC70002A1F0901C3CE4939002A3F0901C3DE478
:10CDD700939002A5F0901C3EE4939002A7F0901C5C
:10CDE7003FE4939002A9F0E4A3F012E6FE901C59E9
:10CDF700E493FE740193FF901C5BE493FC7401932E
:10CE0700FD7BFF7A1C79939002BA123EB67B017ABA
:10CE170002799F9002BD123EB6901CB1E493900236
:10CE2700C0F0901CB2E4939002C1F0901CB3E4935D
:10CE3700FB7401939002C2CBF0A3EBF07BFF7A1C4B
:08CE4700795D12A69502EFC00F
:085B49009002EFEFF0A3EDF074
:105B5100C235C23612339EA4FF9002F1E5F0F0A3E4
:105B6100EFF0E4A3F0A3F09002FB123E230000004B
:105B7100009002FF123E2300000000900265E054F5
:105B810003900303F07E1190000312315DE5822E34
:105B9100123010E0B42C04C2358002D235E49002F8
:105BA100F5F0A3F09002F5E0FFC394404003025EDC
:105BB100E4900303E0FA123004E0FBB42C119002EC
:105BC100F6E004F0A3123E2300000000025EDB9029
:105BD10002F6E024FD7003025C6D147003025CFAAE
:105BE100147003025D10147003025DC924FD70037B
:105BF100025E0224086003025EDB122FCA60030208
:105C01005EDB9002EFE0FD90043112298A122C052F
:105C1100ED122D79122FB3900005122C179002EF7F
:105C2100E0FD90043412299712321FFC900303E027
:105C3100900006122C13ED122B51122FB390000776
:105C4100122C179002EFE0FD9004371229A91232AD
:105C51001FFF75F042EA900008123E78E5822F128C
:105C61002C1D75F080ED900438025DC2122FCA60C0
:105C710003025EDB9002EFE0FD9004011229B612EF
:105C81002C05ED122E74122FB3900005122C1790D3
:105C910002EFE0FD9004031229C4122F0B900006BD
:105CA100122C17ED122E7D122FB3900007122C1714
:105CB1009002EFE0FD9004051229D0122F0B900005
:105CC10008122C17900406122FAC900009122C1701
:105CD1009002EFE0FD9004071229DD122F0B9000D6
:105CE1000A122C17900408122FAC90000B122C17DB
:105CF10012339E900409025DC2122FCA6003025E34
:105D0100DB9002EFE090040A1229EAEB025EC11275
:105D11002FCA6003025EDB9002EFE0FD90040B12DC
:105D210029FC122C05ED122E86122FB390000512BC
:105D31002C179002EFE0FD90040D122A09122F0B8F
:105D4100900006122C17ED122E8F122FB390000720
:105D5100122C179002EFE0FD90040F122A23122F4C
:105D61000B900008122C1775F080ED900410122F83
:105D7100B0900009122C179002EFE0FD900411126F
:105D81002A2F122F0B90000A122C17ED122EA5129A
:105D91002FB390000B122C179002EFE0FD9004132B
:105DA100122A3C12321FFF900303E075F04290006B
:105DB1000C123E78E5822F122C1D75F080ED9004B7
:105DC10014123E78EF025EC1122FCA6003025EDB3D
:105DD1009002EFE0FE900415122A5DEBF075F08061
:105DE100EE900416122D88EE900417122D88EE9075
:105DF1000418122D88EE900419123E787420025E68
:105E0100C1122FCA6003025EDB9002EFE0FD900435
:105E110029122A68122C05ED122B0F122FB39000B4
:105E210005122C179002EFE0FD900426122A74123D
:105E31002F0B900006122C17ED122B21122FB3906D
:105E41000007122C179002EFE0FD90042E122A8F0A
:105E510012321FFC900303E075F042900008122CEF
:105E610017ED122B33EFF074862CF582E43401F533
:105E710083E024D0FFEB1230DD2FFF12F2199002E4
:105E81002B12321FFE2487F582E43401F583123090
:105E9100DCFF74882EF582E434011262179002ACA3
:105EA10012321FFE2489F582E43401F5831230DCBD
:105EB100FF748A2EF582E43401126217900264EFB6
:105EC100F09002F7123D85EF2401FFE43EFEE43D30
:105ED100FDE43CFC9002F7123DFE9002F5E004F077
:105EE100025BA59002EFE0FF122A657447F075F09E
:105EF10080EF122AC77450F0EF122B187453F0EF91
:105F0100122A207420F0EF122BE67446F0EF122BC8
:105F1100FC7469F0EF122D437478F0EF122D4C747C
:105F210020F0EF122D5E742012343775F04290008C
:105F31000B123E78E0FF9002EFE0FE900432122A4D
:105F4100A3EFF090000A123187122D5512343690CA
:105F5100000D123188122B51EFF090000C12318795
:105F6100122D6712343675F04290000F12318B12E8
:105F71002B5AEFF075F042ED90000E12318B122E7C
:105F810062EFF0EE122F027430F0EE122D82EE90DD
:105F9100043C123E78122B6D122B6D122D8BEE905C
:105FA100043E122D88EE90043F122D88EE122BBB79
:105FB10012338390046A122D88EE90046B122D889F
:105FC100EE90046C123E78122BEF12338390046E24
:105FD100122D88EE90046F122D88EE900470122D10
:105FE10088EE900471122D88EE900472122D88EEC5
:105FF10090047312303F900474122AE17420122B22
:10600100847420122BA47420122AA9122D8BEE90D5
:10601100047A122D88EE90047B12303F90047C129A
:106021002A42122D8BEE900429123E781230FD4047
:10603100030260BB900429122EBDE0D39439507A3B
:1060410075F080EE122B121230FD506E75F080EE5D
:10605100122B12E0D394395061EE122BC11230FD94
:10606100505875F080EE122BC4E0D39439504B7523
:10607100F080EE122B241230FD503F75F080EE12AD
:106081002B24E0D394395032EE122B2A1230FD50DA
:106091002975F080EE122B2DE0D39439501C75F048
:1060A10080EE122B361230FD501075F080EE122B5F
:1060B10036E0D3943950030261F19002EFE0FF9092
:1060C1000429122ABB7437F0EF122B0F7437F0EF4B
:1060D100122BC17437F0EF122B217437F0EF122B12
:1060E1002A7437F0EF122B337437F0EF122D5574F9
:1060F10030F0EF122D797430F0EF122D677430F01B
:1061010075F080EF122B547430F0EF122E62743060
:10611100F0EF122B5A7430F0EF122E6B7444F0EF43
:10612100122E747441F0900403122F3C7454F0EF5A
:10613100122E7D7445F075F080EF900405122D88C4
:106141009004061233A6900407122FA57453F0751C
:10615100F080EF900408122D889004091233A69064
:10616100040A122FA5744EF090040B1230CB745612
:10617100F0EF122E867441F090040D1230CB744C66
:10618100F0EF122E8F7449F090040F1232567444BE
:10619100F075F080EF900410122D88EF9004111229
:1061A1003E78744FF0EF122EA57452F075F080EF27
:1061B100900413122D88EF900414123E787446F067
:1061C1009004151232567449F075F080EF90041660
:1061D100123E787458F075F080EF900417122D88F4
:1061E100EF9004181233A7900419122EAE7453F0D5
:1061F10012339EA4246AF9740435F0FA7B019003EA
:1062010003E012315AE012311D12E4F8900265E008
:0562110004F0E4F55863
:0C62160022F583E024D02FFF12F21922A1
:10AB5500901C4CE493FE30E41EED123138E0FC12FB
:10AB65002B7AEC1230471232CFE0FC122BCAEC12D2
:10AB75002B8F7420F08011122B7A7441F0122BCA9E
:10AB8500742F122B8F744EF0EE30E235ED75F00E0A
:10AB9500A412340DFE122B3C123046123402FE1262
:10ABA5002B631230462418F582E43401F583E0FE68
:10ABB500122B9A1230461233F7FE122A95EEF080C8
:10ABC5001F122B3C7420F0122B637420F0EF122B14
:10ABD500D47441F0122B9A742FF0122A95744EF00A
:10ABE500ED75F00EA412323D900457122EB51230B9
:10ABF5004612316E900456122EB51230461232327C
:10AC0500900454122EF312304612316390045312FD
:10AC15002EF3EEF0901C4CE49330E33CED75F00E12
:10AC2500A41231CEE0FE122A9F123046241DF58271
:10AC3500E43401F583E0FE122ACD123046123418B1
:10AC4500FE122AD7123046241BF582E43401F5831F
:10AC5500E0FE122AF5EEF022122A9F7420F0EF1280
:10AC65002BAF7420F0122ACD7441F0122AD7742F1D
:08AC7500F0122AF5744EF022E2
:10498100E4F533F532F531F530F537F536F535F532
:10499100349002E7123E2300000000E49002EBF0A5
:1049A100A3F0E5447003025286301C0330930920C2
:1049B100120620340302526B12F2D0E4F5E38513A0
:1049C1002A301C0920930612F00B12F327E4F52B71
:1049D100E52BC39544400302525CAF1312D9C8E5DD
:1049E1002AC394044003025220122E55FF6404602E
:1049F10013EF6405600EEF64066009EF640760045D
:104A0100EFB40804D20B8002C20B900800122E589A
:104A1100FEA3E0786FA60608F690080D122E9B54AF
:104A21000FF52C300B03024BE6E4F52E752F0375C1
:104A31002F03E52F75F00F20E00F12335D123010B8
:104A4100E0540FF52D052E800C12335D123010E06D
:104A5100C4540FF52D7430252DF52DD3943940060E
:104A61007407252DF52D122A63E582252F123010AA
:104A7100E52DF0052FE52FB409B8122E98C41313B4
:104A81005403F52E14600F14601114601324037085
:104A910012752FEE800D752FEF8008752FF08003B2
:104AA100752FF11231F2246FF9740435F0FA7B019C
:104AB100AF2F12311E12E4F8122E98543FF52D1229
:104AC1002F26900474122969EFF0E52D75F00A8400
:104AD100F52D122F26900473122977EF1231F1244C
:104AE1006AF97404900808122E4612311D12E4F876
:104AF1001231F2247AF9740490080C122E46123104
:104B01001D12E4F890080C122ED7D39464400BC206
:104B11001AE49001F6F0C20D800B301A069001F6EE
:104B2100E004F0D21A122F2FFFE4FCFDFEFBFA790C
:104B310001F8123BAC12336A123D85C006C00790E2
:104B4100080A122F327B00FAE4F9F8D007D00612D6
:104B51003B9112336A123DA190080B122FFAFFE428
:104B6100FCFDFE123B919002E3123DFE122ED4FE9B
:104B7100A3E0FF900183EEF0A3EFF0E48F338E32D8
:104B8100F531F530AD31AC307B0FFAF9F8123BACB1
:104B91008F338E328D318C301233AE123028E533A3
:104BA1002FFFE5323EFEE5313DFDE5303C8F338E92
:104BB100328D31F5301231F2243AF9740435F0FABC
:104BC1007B01C003C002C0011233AE123028AC0019
:104BD100AD01AE02AF0390030B7406F0D001D00219
:104BE100D00312E4F8AD2CAF2A12AB55300B0302FF
:104BF1004F71123325D31233BA5003024D1A7E146A
:104C01007FD912308D12BA0A7E147FF112317912D6
:104C1100BA0AAF0CAE0BAD0AAC09125287122E3F85
:104C210012BCB87E157F0012317912BA0A123325EF
:104C3100125287122E3F12BCB87E157F0B123179AA
:104C410012BA0A1230B8900375740CF012844F1224
:104C51002E3F12BCB81230B8E47B587A02F9F8D36F
:104C6100123CFA507090029CE02402FFE433FE33C0
:104C710095E0FDFCE47B3CFAF8123BACC004C005B6
:104C8100C006C00790023EE0FF7E007C0E7D101240
:104C91003F4F123114D007D006D005D004123B91FA
:104CA100C004C005C006C00790023DE0FFE4FCFD62
:104CB100FE7B807A517901F8123BAC123114D00796
:104CC100D006D005D004123B911231141230B8D362
:104CD100123CFA40247F017E007D0F7C00C3123319
:104CE100BA5016C3E4950CFEE4950B9002EBF0A3C9
:104CF100CEF0D20E1232288016850C33850B328508
:104D01000A318509307E157F1E12317912BA0A7E69
:104D1100157F36122D9612BA0AC3E533950CFFE5BD
:104D210032950BFEE531950AFDE5309509FC9002BF
:104D3100E7123DFE9002E7123D85EF250CFFEE35AF
:104D41000BFEED350AFDEC35098F0C8E0B8D0AF546
:104D5100099002E7123DA19002EBE0FEA3E0FFE41F
:104D6100FCFD123B919002E7123DFE9002EBE070D8
:104D710002A3E06007E49002EBF0A3F0E4FFFEFD84
:104D8100FC9002E71231A95003024E8E12301F909F
:104D9100010BE02BF012301F7B3C12338B90010C86
:104DA100E02BF0E47B107A0E123023E47B181233EF
:104DB1008C90010DE02BF07B807A51790178001203
:104DC100302590010EE02FF090010BE0FFC3943CE1
:104DD100400E1232F990010BE075F03C84E5F0F0E1
:104DE10090010CE0FFC3943C400E1232F990010C8B
:104DF100E075F03C84E5F0F090010DE0FFC39418FC
:104E0100401175F0181232FC90010DE075F0188414
:034E1100E5F0F0D9
:104E140090010FE024FC602B24FE602724FD602316
:104E240024FE601F24097026900110E054037005CD
:104E3400FE7F1D80047E007F1C9002EDEEF0A3EF48
:104E4400F080149002EDE4F0A3741EF08009900247
:104E5400EDE4F0A3741FF090010EE0FFFD9002ED6D
:104E6400E0FAA3E0FBC39D7480F8EA648098501ACA
:104E7400C3EF9B90010EF0A3E004F0E0D3940C4048
:084E84008F7401F0A3E004F0BB
:104E8C00808690010DE090043212299D1233C5905A
:104E9C0004311229BFEFF090010CE0900435122977
:104EAC00F0EEF0900434122AFFEFF090010BE0903A
:104EBC0004381229F0EEF0900437122AFFEFF0902C
:104ECC00010EE0FF122F262430FE75F080E52A1229
:104EDC002B121233C5122966EFF090010FE09004EB
:104EEC002712299D1233C5122974122A7A7430F0B4
:104EFC0090011012347B75F080E52A122B2DEEF008
:104F0C00EF122F261229BCEF123306900439123EF1
:104F1C0078742EF0300E4B7E157F37122D9612BA08
:104F2C000A90010FE0FF12F2198F1190010EE0FFB1
:104F3C0012F2198F10900110E0FF12F2198F1290DB
:104F4C00010DE0FF12F2198F0F90010CE0FF12F22D
:104F5C00198F0E90010BE0FF12F2198F0D12E84F12
:104F6C00C20E1231F9E52A122BDD74201231F1FF39
:104F7C00AEF0C006C0071233259002F112336D1249
:104F8C003D859002F5123DFED007D00612865230B8
:104F9C002229E4FDAF2A12E133AF2A129BE212312F
:104FAC00F22400F9740435F0FA7B01A21292377DD9
:104FBC000A12BCB87D03AF2A12E133122E55FF64DE
:104FCC00056012EF6406600DEF64076008EF64087B
:104FDC006003025073200B03025073122E9890043E
:104FEC0031122982EFF0122E98900432122990126D
:104FFC002FF5C49004341229E3122FF590043512C6
:10500C0029E3122ED2C4900437122A35122ED25410
:10501C000F2430FF75F080E52A122B5D122F2DC462
:10502C00540F122966122F2D90042A122990123136
:10503C0029C4540F122974123129900427122A35CD
:10504C00122A7A7430F090080C12312E90042E1221
:10505C002982EFF075F00FE52B90080C123E78E0EA
:10506C00540F1229BCEFF0AF2A129BE2122E55FD01
:10507C00B40405AF2A125B49122E55FF6405601269
:10508C00EF6406600DEF64076008EF6408600302CC
:10509C00520A200B0302520AEF64057012122A63A3
:1050AC007450122AC17452122A0F745602511412DF
:1050BC002E55FF64067017122A63744E122AC11201
:1050CC003304122B1B7457122A1D7420803AEF6480
:1050DC000775F0807016E52A900442123E787455DC
:1050EC00122AC17453122A0F7454801CE52A90049E
:1050FC0042123E787453122AC17459123306122B81
:10510C001B744E122A1D7443F0E52A122BE67420F0
:10511C00F0E52A122BFC7454F0E52A122D43744945
:10512C00F0E52A122D4C744DF0E52A122D5E123347
:10513C000490046F122D88E52A900470122D88E5D6
:10514C002A900471122D88E52A900473122D88E59B
:10515C002A90047412303FE52A122AEC7420F0E5F0
:0F516C002A122B867420F0E52A122BA67420F04D
:10517B00E49002EDF09002EDE0FFC394195013E5BB
:10518B002A122E6B12300D7420F09002EDE004F019
:02519B0080E3AF
:10519D00E52A122F027430F0E52A122D82E52A90AD
:1051AD00043C12303FE52A122B71122D8BE52A900B
:1051BD00043E122D88E52A90043F12303FE52A1255
:1051CD002BB8742CF0E52A122D70122D8BE52A9038
:1051DD00046A122D88E52A90046B122D88E52A9019
:1051ED00046C122D88E52A90047A122D88E52A90F8
:1051FD00047B122D88E52A90047C12303F852A13FA
:10520D00052A052BE52B654460030249E0752A0448
:10521D000249E0301C33209330AF130513EFC394D4
:10522D0003400E7D017F007E0212DCD1E4F5138078
:10523D0018E5132401FFE433FEEF7807C333CE33B3
:10524D00CED8F9FFE4FD12DCD1E4F52A0249D130C4
:10525D001C0C20930912F00B12F32712C309202105
:10526D0007C23512EF1B800312EFD975E301C22B74
:09527D00E490029DF0900265F03E
:0B52860022900375740CF012844F227C
:10D44A00D205D295D209D2A4D20AD290D21AC20D4A
:10D45A00E49001F6F09001EBF012F2D012EFD9123B
:10D46A00F102C217C21CC21912EB74E4900282F0D4
:10D47A00C2A3D283D2B5C21212F30EC2A3D283D2EE
:10D48A00B5D2AF30930A7E157F52122D9612BA0A80
:10D49A00E4F508128FDB7F01122C271231CEEEF051
:10D4AA000FEF640870F275080790062E123E2300EB
:10D4BA00000000E4786DF608F67E157F67122D9657
:0AD4CA0012BA0AD2A0C21212343EB8
:01D4D4002235
:0D00760075F1F875F3EF43E28075F5FF2298
:101CB600E49002B3F012E6FE90022CE0645B60034F
:101CC6000228B67E157F851228D67B017A02792CEA
:101CD600122E3F12BCB8E490022CF0A3E0123ECBC9
:101CE600289E411F8942289E4321994421A14521CE
:101CF600A94621B74721C848289E4923214A23EEF1
:101D06004B1DA24C243C4D24734E289E4F25D55086
:101D16002711512731521DAB53289E54277C552835
:101D26009E561E2E571EC45827AA591D865A1F8313
:101D36006120FB62289E63219D6421A56521AD6615
:101D460021BC6721D86822886923576A24246B241A
:101D5600376C24616D24986E25396F26DC70272137
:101D660071276572276973276D74278175278776B2
:101D760027917727977827E67928907A0000289484
:101D86001228E06420F030E5067E157F9880047EF8
:101D9600157FB3122D9612BA0A0223541228E06454
:101DA60008F002241D1230D27077A3E090022C12A4
:101DB60031E790022D123150400302289EEF94061F
:101DC600400302289EA3E0FFE49F400302289EEF03
:101DD6009409400302289E90022C1232E690022DAE
:101DE60012325DE0D3943C4003743CF01233CD5084
:101DF600037401F09002B3E0FF901C30E4936F602F
:101E06001D7E1C7F307A0279B3122F4B04F012EA42
:101E1600377E157FCF1228B712348F0227A4021EF1
:101E2600B67E157FF102245E1230D26003021EBD1B
:101E36001231E29001F8123496400302289EEF9484
:101E460006400302289EA3E0FFE49F400302289E6B
:101E5600EF9409400302289E9001F71232E69001A2
:101E6600F812325DE0D3947F4003747FF01233CDD5
:101E760050037401F09002B3E025E0F0E0FF901CFF
:101E860031E4936F602A7E1C7F317B017A0279B33D
:101E9600122F4D12295C9001D0F07E167F17122862
:101EA600D612302E122ECB12844F122E3F0227A4AA
:101EB6007E157FE002245E7E167F2702245E1230A6
:101EC600D26003021F7C1231E29001F8F0900231D9
:101ED600E024D09001F9123496400302289EEF9434
:101EE60002400302289EA3E0FFE49F400302289ECF
:101EF600EF9409400302289EA3E0FFE49F400302FB
:101F0600289EEF9409400302289E9001F775F0641D
:101F16001232E99001F8E075F00AA412325E9001DF
:101F2600F912325DE0D394FE400374FAF01233CD19
:101F360050037401F09002B3E0FF901C32E4936FFB
:101F4600602D7E1C7F327B017A0279B3122F4D12EF
:101F5600295C9001CCF07E167F4D1228FD901C3234
:101F6600123031122ECB12844F122E3F0227A47E3E
:101F7600157FE002245E7E167F6102245E129D5864
:101F860002289E7E0F7FB0122D9612BA0A901C4B25
:101F9600E49330E6067E167F8580047E167F8E12D9
:101FA6002D9612BA0A901C4BE49330E7067E167FF4
:101FB6009880047E167FA0122D9612BA0A901C4BAA
:101FC600E49330E5067E167FA980047E167FBF1255
:101FD6002D9612BA0A901C4BE49330E4067E167FC7
:101FE600D680047E167FF3122D9612BA0A901C4BE9
:101FF600E49330E3067E177F1180047E177F291253
:102006002D9612BA0A901C4BE49330E2067E177F97
:102016004280047E177F56122D9612BA0A901C4BE8
:10202600E49330E1067E177F6B80047E177F7E1275
:102036002D9612BA0A901C4BE49330E0067E177F69
:102046009280047E177FA2122D9612BA0A901C4C1B
:10205600E49330E2067E177FB380047E177FC312B7
:102066002D9612BA0A901C4CE49330E3067E177F35
:10207600D480047E177FE1122D9612BA0A901C4C6A
:10208600E49330E4067E177FEF80047E177FF81214
:102096002D9612BA0A7E187F021228B712348F12B2
:1020A600BCB87E187F10122D9612BA0A7E187F12BF
:1020B6001228FD901C4D122EC4122925901C4E127A
:1020C6002EC4122925901C4F122EC412294F901C83
:1020D60050122EC412294F901C51122EC412844F36
:1020E60012348F12BCB8901C52122EC412844F1296
:1020F6002E3F0227A41230D260030225CEA3E0B4FD
:102106002D047F0180027F00122F6A901C2F12314E
:10211600464003022884EFC394094003022884A39F
:10212600E0642E6003022884A3E0FFE49F400302DC
:102136002884EF940940030228841231B0B42D207C
:102146001233D524501232819DEC1230F3400890A0
:1021560001CE74B0F08021C3EF9E9001CEF08018BE
:102166001234A074509FFF1232859F9001CE400515
:102176007450F08003E02EF0901C2FE493FF900142
:10218600CEE06F60077E1C7F2F02286E7E187F26AA
:1021960002245E7F0180127F02800E7F03800A7F09
:1021A6000480067F0680027F057E0012D95202282F
:1021B6009E7F0602278312308912BA0A12CAFC02CF
:1021C600289E7E187F5012308D12BA0A12C48302DE
:1021D600289E1230D26003022281A3E0FD642D7096
:1021E60033A3E0FEC39430400DEED394395007EE8E
:1021F60024D09001CEF0900231E0FFC39430400924
:10220600EFD39439500312330D9001CEE075F0FFF1
:10221600A4F0802AEDC39430401190022FE0FFD342
:1022260094395007EF24D09001CEF0900230E0FFB1
:10223600C394304009EFD39439500312330D12344E
:10224600A064809474402DD3EF6480948E502590C2
:10225600022CEFF0E4A3F0901C34936F7003022875
:102266009E7E1C7F34122F4704F012EA377E187FB9
:102276006402245E7E187F7102245E7E187F9B02B4
:1022860025CB1230D26003022311A3E09001F9F0AE
:10229600900230E09001FAF0900231E09001FBF0FC
:1022A600900232E09001FCF0900233E09001FDF0E4
:1022B600900234E09001FEF0900235E09001FFF0CC
:1022C600900236E0900200F0900237E0900201F0B2
:1022D600900238E0900202F0900239E0900203F09A
:1022E60090023AE0900204F0901C4BE49330E30530
:1022F6007F0712C0CA12E02B12D5E27E117F41126F
:10230600290712CAFC7E157F3680047E187FC51207
:102316002D9612BA0A122E390227A4B2137C1C7DFE
:102326004B9002EAE4F0A304F0FB7A02792C12E463
:102336006090022CE03013094410F07E187FF6807E
:102346000754EFF07E197F0B122D9612BA0A02245B
:102356001D1230D260030223E71231C75003022355
:10236600E7EFD39432507A1231C74075EFD39434E5
:10237600506F1231C7406AEFD3943650641231C79A
:10238600405FEFD3943950591231C74054EFD3947C
:1023960036504E1231C74049EFD394395043E4903A
:1023A60002B3F01233749406501BE0FE242FF5821C
:1023B600E43402F583E024D0FD742C2E123196ED20
:1023C60012332E80DE742C2F123196E4F07E1C7FA1
:1023D6004D7B017A02792C9003B4F0A3740602288F
:1023E600787E197F240225CBB22512293230251595
:1023F6004480F07E197F46122D9612BA0A75E301C3
:1024060012ADA48012547FF07E197F52122D9612BF
:10241600BA0AC296E4F5E3122F430402287863E36E
:1024260001E5E320E00302289E7F0112E914022859
:102436009EB29602289E3096067E197F5F80047EA5
:10244600197F6E122D9612BA0AE5E330E0067E1960
:102456007F7C80047E197F920225CBB20830080665
:102466007E197FA980047E197FB80225CBB222127D
:1024760029323022094440F07E197FCB800754BFB1
:10248600F07E197FE5122D9612BA0A122F43040226
:1024960028781230D26003022532A3123063E4900A
:1024A60002B3F012337494055018123192E0FDEE27
:1024B600901C3B936D60069002B3740CF012332FA0
:1024C60080E1EF640D705E7E1A7F04122D9612BABB
:1024D6000A7E1C7F3B122F477405F012EA377E1ADC
:1024E6007F1B1229077E1C7F3B122D9612BA0A907B
:1024F6001C3BE493FF12344CFE123456FD1234603A
:10250600FC12346AFB90026DF09002A1EFF090028B
:10251600A3EEF09002A5EDF09002A7ECF09002A9D0
:10252600EBF002289E7E157FE00228987E1A7F39FE
:102536000228981230D260030225CE900232E0645F
:102546002C60030225CE900235E0642C707A90024E
:102556002F123063900234E0900231F0900235E0A1
:10256600900232F0900236E0900233F0900237E0AB
:10257600900234F0E49002B3F012337494095018C8
:10258600123192E0FDEE901C41936D60069002B30D
:10259600740CF012332F80E1EF640D70247E1A7FE5
:1025A60057122D9612BA0A7E1C7F41122F477409C4
:1025B600F012EA377E1A7F691229117E1C7F41804C
:1025C600047E157FE00228987E187F450228987EB3
:1025D6001A7F82122D9612BA0A7E1A7FA912291123
:1025E60012CAFC7E1B7FC412291B7E1C7F3B122D48
:1025F6009612BA0A7E1C7F07122D9612BA0A7E1B05
:102606007FA512291B7E1C7F35122D9612BA0A7ED3
:102616001B7FAC12301812BA0A7E1C7F41122D960F
:1026260012BA0A7E1B7FB812301812BA0A12310487
:1026360012BCB87E1A7FBD12301812BA0A901C2E30
:10264600E493FFC364809480500BEF123034900300
:1026560075740E800B901C2E123031900375740F1A
:10266600F012844F122E3F12BCB87E1A7FCF123062
:102676001812BA0A901C2FE493FFC364809480500A
:102686000BEF123034900375740E800B901C2F12D2
:102696003031900375740FF012844F122E3F12BC26
:1026A600B87E1A7FE412301812BA0A12302E122E91
:1026B600CB12844F122E3F12BCB87E1A7FFF123007
:1026C6001812BA0A901C32123031122ECB12844FD5
:1026D600122E3F0227A420932B9001F9E06420706C
:1026E6001EA3E064537018A3E0B452137E1B7F1838
:1026F600122D9612BA0A7B017A0179FA0227D1C203
:10270600340227D97E1B7F2002289820930612F3D5
:102716002D02289E7E1B7F2002289820930612F306
:102726003002289E7E1B7F2002289820932A900143
:10273600F9E0B4201CA3E0B45317A3E0B452127B13
:10274600017A0179FA90063B123EB612DDFA0228AA
:102756009E7E187F450228987E1B7F200228987F40
:1027660002801A7F0380167F047E0012E0DCE4906C
:1027760001CDF002289EE4FFFE800A7F017E0080E4
:10278600047F057E0012E0DC02289E43EF1002283B
:102796009E7E1B7F33122D9612BA0A12310412BC8A
:1027A600B802289E7E1B7F42122D9612BA0A2093EB
:1027B600287E1B7F5212301812BA0A12310412BC3C
:1027C600B87E027F677A0279677B0190063B123EEC
:1027D600B6D23412D32F02289E7E1B7F2002289861
:1027E6001230D2600302288AA3E0B42D047F018050
:1027F600027F00122F6A901C2E12314640030228D7
:1028060084EFC394095077A3E0642E7071A3E0FFB0
:10281600E49F506AEF940950651231B0B42D20122E
:1028260033D524321232819DEC1230F340089001E8
:10283600CE74CEF08021C3EF9E9001CEF0801812A8
:1028460034A074329FFF1232859F9001CE400574EA
:1028560032F08003E02EF0901C2EE493FF9001CE20
:10286600E06F60147E1C7F2E7B017A0179CE122FD9
:102876004D04F012EA3780207E187F2680147E18D9
:102886007F3A800E7E187F458008D223800A7E1B01
:102896007F5D122D9612BA0AE49002B3F0123374D9
:1028A600940F500C742C2F123196E412332E80EDB7
:1028B60022A21292387D0312BA0A901C30E493FFCA
:1028C6003395E0FEFDFC9003757402F012844F22EE
:1028D600A21292387D0312BA0A22E490022DF07CED
:1028E6001C7D4B9002EAF0A304F0FB7A02792C12CD
:1028F600E46090022CE022A21292387D0312BA0AFA
:1029060022A21292387D0312BA0A22A21292387DAE
:102916000312BA0A22A21292387D0312BA0A2212AE
:10292600844FA21292377D0312BCB822E490022D86
:10293600F07C1C7D4B9002EAF0A304F0FB7A02794E
:102946002C12E46090022CE02212844FA2129237DD
:102956007D0312BCB82204F012EA379002B3E022DB
:0300530002EEA515
:10EEA500C0E0C0D0E5BBB41E0875BB0475BCFC80D2
:0EEEB5000675BB1E75BCF8C2EDD0D0D0E032A1
:03008B0002DAAEE8
:10DAAE00C0E0C0F0C083C082C0D075D000C000C03E
:0DDABE0001C002C003C004C005C006C007BF
:10DACB0012F248EF30E2337B013023257A0179F7EC
:10DADB007D3112A7CC9001F7E090022CF09001F869
:10DAEB00E090022DF09001F9E090022EF0C223801D
:0ADAFB00097A02792C7D0F12A7CCE6
:10DB0500D007D006D005D004D003D002D001D00074
:0BDB1500D0D0D082D083D0F0D0E0321E
:0FF23900EFC4540F75F00AA4FEEF540F2EFF22FE
:10F21900EF75F00A84C454F0FEEF122F264EFF2238
:10D6E30075F43E20B278901C4CE49330E01A7E1B14
:10D6F3007F7112301812BA0A90029BE0122EC612E2
:10D70300844F122E3F12BCB890029BE0FF14F0EF3F
:10D71300C394025049901C4CE49330E00A7E1B7F73
:10D723008C12301812BA0A9001F4122FC3D2B1909E
:10D733001C4CE49330E0139001F4E0FEA3E01233B9
:10D74300EC12844F12310A12BCB812EC0290029B05
:0FD753007404F07D407C067F0112EBA4C2B1226A
:10ED7400FDFC123D1EE53E4FFFE53D4EFEE53C4DDC
:10ED8400FDE53B4C8F3E8E3D8D3CF53B2290036A66
:05ED9400123D85E422A0
:06E7CB0090036A123DFEFE
:10E7D100E4F53EF53DF53CF53B12ED91FFFEFDEC18
:10E7E1007818123D0B12ED7912ED91FFFEE4FC78E1
:10E7F10008123D0B12ED7912ED91FFE4780812ED4C
:0BE801007412ED91FE781812ED74FC0B
:01E80C0022E9
:02F2A600AD07B2
:08F2A800EEFBEDFAEBAE02FFF4
:01F2B000223B
:09F2E400C2AF75FF8075EF022234
:10EC8B00A2AF923B12F2E48E3F8F4075B7A575B7DA
:10EC9B00F1438F0112F2E6854082853F83EDF053FD
:06ECAB008FFEA23B92AFB8
:01ECB1002240
:10F0AC00A2AF923BC2AF8E3F8F408F828E83E49390
:05F0BC00FFA23B92AF32
:01F0C100222C
:10ECB200A2AF923B12F2E48E3F8F4075B7A575B7B3
:10ECC200F1438F0312F2E6854082853F83E4F053DD
:06ECD2008FFCA23B92AF93
:01ECD8002219
:10DBFE00E0FEA3E0FF9003C2EEF0A3EFF0A374F8F3
:10DC0E00F0A3E4F09003C0E0229003B6E0FEA3E0A0
:10DC1E00FFC39003BDE09FFF9003BCE09E225FFF19
:10DC2E00EEF0A3EFF02400FFEE3402CF24FFCF344A
:10DC3E00FF22E0FEA3E0FFA3E0FCA3E0FD22E475DB
:10DC4E00F001023AB39003B8FEE0FCA3E0FD22EE31
:0BDC5E00F0A3EFF0A3ECF0A3EDF02228
:0691AA009003B612DC5D2B
:1091B0009003C07402F0A3E4F024FFFB740234FFB8
:1091C000FAEBF4FFEAF4FE9003B6E05EFEA3E09053
:1091D00003BA12DC2CA3F0A3EFF0EBF4FFEAF412D5
:1091E000DC539003B7E02DFD9003B6E03C5EFEED4E
:1091F0009003BE12DC2CFE9003BCE06E7003A3E073
:109200006F7073FF1293249003B6E0FAA3E0FB247F
:1092100000FFEA34F89003BA12DC56C3EF9DFFEE6C
:109220009C12DC532FFFEC3E9003C2F0A3EFF0EB57
:109230002DFFEA3CA3F0FCA3EFF0FD12DC17FE903B
:1092400003B8E0FAA3E0FBC3EF9BFFEE9ACF240143
:10925000CF34009003C6F0A3EFF09003C2E0FEA36A
:10926000E0FF9003C6E0FAA3E0FB12E3C412936BA5
:109270009003BA02930B7F0012932412936B900316
:10928000BA12DBFEFDA3E09003C6CDF0A3EDF09093
:1092900003C6E0FAA3E0FB7D007CF812E3C47F0084
:1092A0007EF812ECB212DC17CF2401CF3400FEC3DB
:1092B0009003B9E09FFF9003B8E09EAB07FAE42B60
:1092C000FEEA34F89003C2F0A3CEF09003BFE02B87
:1092D000FE9003BEE03A9003C4F0A3CEF0AE02C30A
:1092E0009003C1E09FFF9003C0E09E9003C6F0FA98
:1092F000A3EFF0FB9003C212DC4012E3C49003BE64
:10930000E0FEA3E0FF12ECB29003BE12DBFEFCA372
:10931000E0FD9003C6ECF0FAA3EDF0FB7D007CF8D5
:0393200012E3C491
:10932300227EF812ECB29003C274F8F0A3E4F0903A
:1093330003BAE0FEA3E0FF9003C4EEF0A3EFF0C393
:109343009003B7E09FFF9003B6E09E9003C6F0A39F
:10935300EFF09003C4E0FCA3E0FDA3E0FAA3E0FB7D
:109363007F007EF812E3C4229003BAE0FEA3E0FF7D
:0493730012ECB22224
:10EA37009003B1123EB69003AFEEF0A3EFF0900350
:10EA4700B4E0FCA3E0FD1291AA9003AFE0FEA3E0BF
:10EA5700FFA3123E969003B4E0FDA3E09003BBCD65
:07EA6700F0A3EDF002E23123
:0EE231009003B8123EB69003B6EEF0A3EFF0E5
:10E23F009003BDEEF0A3EFF09003BBE0FEA3E0FF71
:10E24F009003B7E02FFD9003B6E03EFC9003BDE0D6
:10E25F00FEA3E0FFC39DEE9C50199003B8E475F048
:10E26F0001123E9F123969FD12EC8B9003BD12DC37
:03E27F004C80C50B
:01E282002279
:0EE460009002E5123EB69002E8ECF0A3EDF05B
:10E46E00E49002ECF0A3F09002EA12DC40C39FECC1
:10E47E009E50259002E9E02DFF9002E8E03CFE124E
:10E48E00F0AC9002E5E475F001123E9FEF1239E216
:0EE49E009002EC12DC4C80CF9002E5023E961C
:0CE3C4009003C812DC5DA3EAF0A3EBF0AC
:10E3D000E4A3F0A3F09003CC12DC40C39FEC9E506A
:10E3E000309003CBE02DFF9003CAE03CFE12F0AC6E
:10E3F000AD079003CEE0FEA3E0FF9003C9E02FFF3E
:10E400009003C8E03EFE12EC8B9003CE12DC4C80F1
:01E41000C447
:01E4110022E8
:08E5430090061AEEF0A3EFF0C0
:10E54B00E4900621F0A3F0900621E0FEA3E0FFE4A7
:10E55B00FCFD90061C123DA1D3123CFA4024900600
:10E56B0021E0FEA3E0FF90061BE02FFF90061AE0D0
:10E57B003EFE900620E0FD12EC8B90062112DC4C47
:02E58B0080C549
:01E58D00226B
:10C18B001201100100000040C41000020000010069
:10C19B00030109022000010100800F0904000002C5
:10C1AB000806500007058102400000070502024007
:10C1BB000000040309042A03530069006C006900A2
:10C1CB0063006F006E0020004C00610062006F0086
:10C1DB007200610074006F007200690065007300EB
:10C1EB00380343003800300035003100460078003A
