:0300000002D7B371
:0CD7B300787FE4F6D8FD75817002D7FA8B
:10D7BF000256B1E493A3F8E493A34003F68001F279
:10D7CF0008DFF48029E493A3F85407240CC8C3336B
:10D7DF00C4540F4420C8834004F456800146F6DF3A
:10D7EF00E4800B010204081020408090E2B0E47E38
:10D7FF00019360BCA3FF543F30E509541FFEE4932F
:10D80F00A360010ECF54C025E060A840B8E493A3F5
:10D81F00FAE493A3F8E493A3C8C582C8CAC583CA20
:10D82F00F0A3C8C582C8CAC583CADFE9DEE780BED8
:01E2B000006D
:0EF65F00F0EF25E02425F582E43406F5832241
:03002B0002EB8263
:10EB8200C0E0C0F0C083C082C0D075D01890062308
:10EB9200E475F00112342175CBF075CA60C2CFC39F
:10EBA200900624E0947D900623E094004009E4F06E
:10EBB200A3F0D22012F41CD0D0D082D083D0F0D0D7
:02EBC200E0323F
:10F41C00D3900626E09400900625E0948040077473
:07F42C00FFF5F0123421226C
:0300730002F48F05
:10F48F0053E67F53917F53C77F43C78053C77F4353
:06F49F00C78053C77F3255
:10EF6D00E4900623F0A3F0FF12F660E4F0A312F68E
:10EF7D005FE0547FF00FEFB401EEE4F5C8538E0F50
:0FEF8D0075CBF0F5CA74FFF5CDF5CCD2ADD2CA75
:01EF9C002252
:10F59800538EF8438E04758902758CEA758AEAD20F
:02F5A8008C22B3
:10F55F00E4F59175959E75945875939E75925853D1
:03F56F008EBF222A
:10F4FB00E4F591F595F59475937F7592FF538E3FD7
:04F50B004391042202
:10F5AA0012F660E0FEA3E07003EE64807002D322DC
:02F5BA00C3226A
:10F57200ED4C600E12F660ECF0A3ED12F65FE04483
:03F5820080F022F4
:10D04A00436C6F636B206D756C7469706C69657283
:10D05A0020616C7265616479206C6F636B65642C06
:10D06A0020736B697070696E67207265696E697486
:10D07A00004F534349434E207C3D20307830333BA8
:10D08A002000434C4B4D554C20203D203078303009
:10D09A003B2000434C4B4D554C207C3D203078388A
:10D0AA00303B200044656C617920666F7220636CA6
:10D0BA006F636B206D756C7469706C69657220742E
:10D0CA006F20626567696E200057616974696E67CF
:10D0DA0020666F72206D756C7469706C6965722058
:09D0EA00746F206C6F636B200071
:1000030075B28353A9F8E4F586758DCC438E082227
:10F50F007586BCE58630E6FBE5A954F84404F5A9F9
:04F51F0053B27F2242
:10CAA900E5B930E518901F74E49320E00302CB4EFA
:10CAB9007ED07F4AA21292387D0902BDFF901F7471
:10CAC900E49330E0077ED07F7B12CB4F43B20390D3
:10CAD9001F74E49330E0077ED07F8C12CB4FE4F5CE
:10CAE900B9901F749330E0077ED07F9D12CB5943D4
:10CAF900B980901F74E49330E0077ED07FAE12CBEB
:10CB090059E4FFFE0FBF00010EBE01F8BFF4F54363
:10CB1900B9C0E4FEFF0FBF00010EBE01F8BFF4F576
:10CB2900E5B920E517901F74E49330E0F37ED07FD8
:10CB3900D3A21292387D0912BDFF80E475A903754D
:05CB49008D30438E0851
:10CB4E0022A21292387D0912BDFF22A21292387DC6
:05CB5E000912BDFF22D9
:0D002E000070007000DFF9EE6002DEF422C9
:1010400043757272656E742054696D653A20005361
:10105000657474696E67733A00475053206F6E0071
:10106000475053206F66660044544147206F6E001E
:1010700044544147206F6666005072696E74696E11
:1010800067204750532073656E74656E6365730007
:101090004E6F74205072696E74696E6720475053AA
:1010A0002073656E74656E6365730053746172744A
:1010B0007570205461736B7320446F6E65004473C8
:1010C000702056657273696F6E3A20004E6F20640F
:1010D00061746120666F7220746865206C6173743E
:1010E0003A0009004461797309486F757273094DBC
:1010F000696E75746573004D616B696E67207375F9
:10110000726520496E746572727570747320656EB5
:1011100061626C656420616E6420736D62427573F8
:101120004F70656E004750532055415254206469FA
:101130007361626C65642000475053206973206EB0
:101140006F7420706F77657265640044656C6179B7
:101150006564204750532066697820736176652066
:1011600064756520746F20534D42757320726563FA
:10117000657074696F6E004C617267652046696CBA
:10118000652053697A65004E65772046696C652055
:10119000506172746974696F6E200046696C6520D5
:1011A00073697A653A00537461727420726F757452
:1011B000696E6520746F204750532073796E630009
:1011C00061626F7274204750532073796E6320738D
:1011D000696E636520475053206973206F6666000F
:1011E0004E65772054696D653A200054696D6553EA
:1011F00074616D706564204453502F4750532053E1
:10120000796E6300202020204C6173742047505376
:1012100020617474656D70742077617320737563D9
:101220006365737366756C2E2000202020204C614E
:1012300073742047505320617474656D7074206618
:1012400061696C65642120002020202047505320D4
:1012500069732064697361626C65642E2000426169
:10126000747465727920766F6C7461676520697338
:101270003A2000486F75726C792044657465637418
:10128000696F6E20436F756E742073696E6365209D
:10129000506F776572204F4E3A2000546F74616C26
:1012A00020446574656374696F6E20436F756E7456
:1012B0002073696E636520506F776572204F4E3AD8
:1012C0002000202020506F6F72205369676E616C80
:1012D00000204E454544532053455256494345212D
:1012E000212100210020000D0A0D0A2D2D2D202A7C
:1012F0002A2A2054524944454E54205348454C4CC8
:101300002053544152544544202A2A2A0D0A2D2D97
:101310002D000D0A2D2D2D20487964726F70686F95
:101320006E6520636F6D6D756E69636174696F6E54
:1013300020737461727465642E00566F6C746167FB
:10134000652076616C75653A20004D6E54616B6561
:101350004D6561737572656D656E7473205265615C
:10136000642054656D7065726174757265200054F7
:10137000656D70657261747572652076616C7565F6
:101380003A20004D6E54616B654D656173757265F1
:101390006D656E74732047657474696E6720746937
:1013A0006C740057616974696E6720706572696F4B
:1013B000642076616C75653A200054696C742076FF
:1013C000616C75653A2000616463476574507265AD
:1013D0007373757265526573756C740050726573C2
:1013E000737572652076616C75653A20004E6F20CA
:1013F00056616C6964204473702056657273696F1E
:101400006E20696E20746865205254432D20546FFD
:1014100067676C65206120736F6674776172652001
:101420007265736574206F6620746865204453503C
:1014300020746F2072657472696576652069740026
:1014400057616974696E6720666F7220445350203B
:10145000746F2073656E642076657273696F6E2E8B
:101460002E2E005355434345535321212100496EED
:1014700076616C69642073657269616C206E756D4C
:10148000626572005374617274206F66204D656DE1
:101490006F7279204361726420496E73657274695A
:1014A0006F6E004C6F6767696E6720746F205344DE
:1014B000206D656D6F72792063617264206861735D
:1014C000206265656E20696E697469617465642E59
:1014D0000057616974202E2E2E20004C6F67205219
:1014E0006573756D65642061743A20005461674CC2
:1014F0006F674F70656E00536D624F70656E00557B
:101500006E6C6F6164696E67206F757220646174C0
:1015100061005461674C6F674F70656E656400537E
:1015200044206D656D6F727920636172642068611B
:1015300073206265656E2072656D6F7665642E003E
:10154000456E64206F66204D656D6F727920636112
:10155000726420696E73657274696F6E20005469DD
:101560006C742043686970204944206E6F74207247
:101570006563656976656400664E657753796E6369
:1015800020526F6C6C6F766572204C6F67696300D8
:10159000756C43756D546F745F4453503A200075F9
:1015A0006C43756D546F743A2000526F6C6C6F769B
:1015B0006572204164642056616C3A2000756C436A
:1015C000756D546F74203D20756C43756D546F7448
:1015D0005F4453500000664E657753796E63205226
:1015E00054432074696D652061646A757374656421
:1015F000004D697373696E67206D656D6F72792038
:10160000636172642E005374617274207570202DB2
:1016100020446574656374696F6E73207A65726FB8
:1016200065642E0055534220434D44205265636546
:1016300069766564003C735F5A5F61636B00354D8A
:1016400047505353796E63206973206E6F7720740F
:1016500075726E6564206F6E00354D475053537937
:101660006E63206973206E6F77207475726E656487
:10167000206F666600655F5A5F61636B3E0053656D
:101680006E736F7220726174652069733A20004E28
:101690006F20757064617465204E656564656400D3
:1016A00043616E2774207365742053656E736F7287
:1016B0005261746520696E636F727265637420662F
:1016C0006F726D617400536C656570205261746552
:1016D0002069733A200043616E277420736574207B
:1016E000736C656570207261746520696E636F72DA
:1016F0007265637420666F726D617400655F61630B
:101700006B3E004E756D626572206F662061736B73
:10171000732069733A200043616E277420736574E7
:101720002061736B207261746520696E636F7272E1
:1017300065637420666F726D6174003C735F615FF6
:1017400061636B00655F615F61636B3E003C735F6B
:10175000425F61636B00445441473A206F6E00441E
:101760005441473A206F6666004750533A206F6EE7
:10177000004750533A206F66660035204D696E75FC
:1017800074652053796E6320656E61626C656400D8
:1017900035204D696E7574652053796E63206469D8
:1017A0007361626C6564004750532073656E7465A5
:1017B0006E6365207072696E74696E672069733A32
:1017C000206F6E004750532073656E74656E6365BD
:1017D000207072696E74696E672069733A206F6653
:1017E0006600486F75726C792046696C6573206974
:1017F000733A206F6E00486F75726C792046696C81
:1018000065732069733A206F6666004461696C797C
:101810002046696C65732069733A206F6E004461DD
:10182000696C792046696C65732069733A206F662C
:10183000660046696C65732064756D70733A206F3D
:101840006E0046696C65732064756D70733A206F25
:1018500066660054656D70657261747572653A20D4
:101860006F6E0054656D70657261747572653A20B3
:101870006F66660050726573737572653A206F6E9D
:101880000050726573737572653A206F6666005416
:10189000696C743A206F6E0054696C743A206F66FC
:1018A000660053656E736F7220726174653A200032
:1018B0007300475053207361766520696E746572BA
:1018C00076616C3A2000655F425F61636B3E003C6D
:1018D000735F625F61636B004E6F206368616E6768
:1018E0006520696E206F66667365740042616420CE
:1018F00056616C7565730042616420466F726D615C
:101900007400655F625F61636B3E003C735F445FC0
:1019100061636B00655F445F61636B3E003C735FB6
:10192000645F61636B00655F645F61636B3E003C95
:10193000735F455F61636B00655F455F61636B3E2D
:10194000003C735F655F61636B00655F655F61634A
:101950006B3E003C735F465F61636B00655F465F93
:1019600061636B3E003C735F665F61636B00655F44
:10197000665F61636B3E003C735F475F61636B0052
:10198000655F475F61636B3E003C735F675F6163E8
:101990006B00655F675F61636B3E003C735F485F30
:1019A00061636B0043757272656E742054696D6576
:1019B0005374616D703A2000655F485F61636B3EF0
:1019C000003C735F685F61636B0054696D657A6F9B
:1019D0006E65205365740054696D657A6F6E65207D
:1019E0006E6F742073657420626563617573652022
:1019F000696E76616C69642074696D657A6F6E6575
:101A00000054696D657A6F6E65206E6F7420736522
:101A100074206265636175736520696E636F7272AD
:101A200065637420666F726D617400655F685F61E5
:101A3000636B3E003C735F695F61636B0054696D6B
:101A4000652077617320756E61626C6520746F200C
:101A500062652073657420636175736520696E63C8
:101A60006F727265637420666F726D617400655F7A
:101A7000695F61636B3E003C735F4A5F61636B004B
:101A80005072696E74696E67204750532073747288
:101A9000696E6773004E4F54207072696E74696E80
:101AA000672047505320737472696E677300655FD7
:101AB0004A5F61636B3E003C735F6A5F61636B000A
:101AC000496E636F727265637420466F726D6174E4
:101AD000206F7220696E76616C69642076616C7526
:101AE0006500655F6A5F61636B3E003C735F4B5FDF
:101AF00061636B0047505320656E61626C656400E2
:101B00004750532064697361626C656400655F4B84
:101B10005F61636B3E003C735F6B5F61636B00658D
:101B20005F6B5F61636B3E003C735F6C5F61636B17
:101B300000655F6C5F61636B3E003C735F4D5F618E
:101B4000636B00475053206D6F64656D20276F6E87
:101B50002700475053206D6F64656D206F666600E7
:101B6000475053206F757470757420726563656992
:101B70007665204F6E00475053206F7574707574F2
:101B80002072656365697665204F666600655F4D06
:101B90005F61636B3E003C735F6D5F61636B004729
:101BA0005053205072696E74205541525400475072
:101BB00053205072696E742055415254204F46464E
:101BC00000655F6D5F61636B3E003C735F4E5F61FC
:101BD000636B004F757470757474696E672064650B
:101BE00074656374696F6E20646174610053746F0F
:101BF00070206F757470757474696E672064657495
:101C0000656374696F6E206461746100655F4E5F27
:101C100061636B3E003C735F6E5F61636B00557088
:101C2000646174696E672053657269616C204E75DA
:101C30006D6265720046696E69736865640D0A4E6F
:101C400065772053657269616C204E756D626572AF
:101C50003A200043616E27742073657420534E2030
:101C6000696E636F727265637420666F726D617402
:101C700000655F6E5F61636B3E003C735F6F5F6129
:101C8000636B005570646174696E67205369746595
:101C90004E616D650046696E69736865640D0A4E34
:101CA000657720536974654E616D653A2000655F04
:101CB0006F5F61636B3E003C735F505F61636B00FD
:101CC0004154532D48323020436F6E6669677572F8
:101CD0006174696F6E2052657175657374207265E9
:101CE000636569766564005265636569766572202F
:101CF0005254432074696D653A20005072657373C5
:101D0000757265204F66667365743A200054656D80
:101D10007065726174757265204F66667365743A9A
:101D2000200054696C742063616C69622E20736CAE
:101D3000656570206F66667365743A200054696C3F
:101D4000742063616C69622E2061736B206F66661C
:101D50007365743A2000655F505F61636B3E003CC1
:101D6000735F705F61636B0054797065283129007F
:101D70004E6F2053442063617264207072657365F6
:101D80006E7400655F705F61636B3E003C735F5112
:101D90005F61636B00655F515F61636B3E003C7325
:101DA0005F715F61636B003C735F525F61636B00E7
:101DB000655F525F61636B3E003C735F725F61639E
:101DC0006B00655F725F61636B3E003C735F735FC6
:101DD00061636B00655F735F61636B3E003C735FC3
:101DE000745F61636B00655F745F61636B3E003CB1
:101DF000735F555F61636B003C735F755F61636B1D
:101E0000003C735F765F61636B00655F765F616363
:101E10006B3E003C735F785F61636B006765744382
:101E2000757272656E7446696C6500655F785F6196
:101E3000636B3E003C735F595F61636B0073656E5B
:101E40006443757272656E7446696C650046696CB0
:101E5000654E616D653A2000655F595F61636B3E59
:101E6000003C735F795F61636B00655F795F6163FD
:101E70006B3E003C735F7A5F61636B00655F7A5F06
:101E800061636B3E00557362204461746120556E3E
:101E90007265736F6C766564007563526573657403
:101EA00042617474657279466C6970466C6F7050EB
:101EB000335F320075635265736574426174746593
:101EC0007279466C6970466C6F703A2000445350CA
:101ED00020763A0053697465204E616D653A2000A2
:101EE00046696C65204E616D653A200053657269E4
:101EF000616C204E756D6265723A200046696C65B2
:101F000020466F726D61742056657273696F6E3A08
:101F100020332E3120200046696C65205374617295
:101F2000743A200046696C6520456E643A20004191
:101F3000545320547269746F6E20526563656976DC
:101F40006572204656657273696F6E3A2031312E84
:101F50003231000D0A0000000FFF03020030302E66
:101F60003030003039303030004832302C49532C7A
:101F70004D4E0008000000000000000000000000BE
:101F80000010C4EA61360341006400760061006E0F
:101F9000006300650064002000540065006C00656B
:101FA000006D006500740072007900200053007914
:101FB000007300740065006D0073001E0353006F12
:101FC000006E006900630020005200650063006538
:0E1FD0000069007600650072000F800100704D
:10E2B1004C029F0C0330003900300030003000C1A7
:10E2C10086C10CC121C116C1874101CE0042023B6A
:10E2D100000042018100004101CD004101EA0141FC
:10E2E100029E0041028200410281094101F6004182
:10E2F100029B0441029C0041023E0041023D00415B
:07E301000002004102AB0025
:103953009004292430FFE52A75F0800237E69004AD
:10396300262430FFE52A75F0800237E6C4540F247D
:1039730030FFE52A75F0800237E6540F2430FFE567
:103983002A75F0800237E6FF75F00A84E5F02430EB
:10399300FEE52A75F0800237E6C4540F2430FEEFAB
:1039A30075F0800237E690042F2430FFE52A75F086
:1039B300800237E6540F2430FEEF75F0800237E6BD
:1039C300C4540F2430FEEF75F0800237E6540F2401
:1039D30030FFE52A75F0800237E6FF75F00A84E5CB
:1039E300F02430FEE52A75F0800237E6C4540F2434
:1039F30030FEEF75F0800237E6F075F080E52A902F
:103A030004441237E67445F0E52A90044575F080C6
:103A13000237E6540F2430FEEF75F0800237E65488
:103A23000F2430FFE52A75F0800237E675F080EE4B
:103A33001237E67420F075F080EE90047D1237E6BD
:103A4300742CF0EE90047E75F0800237E6E52A9040
:103A5300044275F0800237E6540F2430FEEF75F010
:103A6300800237E6EFF075F080E52A90042C1237D8
:103A7300E67432F0E52A90042D75F0800237E6EF04
:103A830075F08090045B0237E6900467EF75F08071
:103A93000237E6F075F080EE9004781237E6742C66
:103AA300F0900479EE75F0800237E6F0E52A75F0C0
:103AB300809004430237E6EF75F080900465023787
:103AC300E6EF75F0809004640237E675F080EE123D
:103AD30037E67420F0EE75F0809004750237E6EF58
:103AE30075F0809004630237E6EF75F00A842430A2
:103AF300FF75F080E52A0237E675F08090042A020C
:103B030037E675F0809004440237E675F080900440
:103B1300270237E675F08090042E0237E675F080B1
:103B230090042F0237E690045F75F080EF0237E6CA
:103B3300F090047F75F080EF0237E675F080900413
:103B4300350237E675F0809004380237E690045E5C
:103B530075F080EF0237E67420F0EE75F080900484
:103B63003D0237E6EF75F0809004500237E6F0EE41
:103B730075F0809004760237E6F0EF75F0809004DC
:103B83004E0237E690045C75F080EF0237E6F0EE04
:103B930075F0809004770237E675F0809004660232
:103BA30037E675F0809004400237E675F0809004A4
:103BB300260237E6EF75F08090044F0237E675F082
:103BC3008090045D0237E675F0809004250237E6A5
:103BD30075F0809004460237E67420F090046D750A
:103BE300F080EE0237E675F0809004470237E6EB8B
:103BF300F09002F5E0FC900303E0900004FE75F002
:103C0300421237E6E5822CF582E43583F583E0FF43
:103C130022900111E0FEEF75F00EA42411F582E469
:103C23003401F583EEF0900112E0FEEF75F00EA47F
:103C33002412F582E43401F583EEF0900113E0FEE3
:103C4300EF75F00EA42413F582E43401F583EEF04E
:103C5300900114E0FEEF75F00EA42414F582E43411
:103C630001F583EEF0900115E0FEEF75F00EA4244C
:103C730015F582E43401F583EEF0900116E0FEEFD2
:103C830075F00EA42416F582E43401F583EEF0906A
:103C93000117E0FEEF75F00EA42417F582E434015A
:103CA300F583EEF0900118E0FEEF75F00EA42418F2
:103CB300F582E43401F583EEF0900119E0FEEF752F
:103CC300F00EA42419F582E43401F583EEF090019B
:103CD3001AE0FEEF75F00EA4241AF582E43401F520
:103CE30083EEF090011BE0FEEF75F00EA4241BF5AC
:103CF30082E43401F583EEF090011CE0FEEF75F0F1
:103D03000EA4241CF582E43401F583EEF090011D2A
:103D1300E0FEEF75F00EA4241DF582E43401F58373
:103D2300EEF090011EE0FEEF75F00EA42275F08018
:103D33009004480237E675F0809004490237E6752F
:103D4300F0809004310237E675F08090044A023720
:103D5300E675F0809004340237E675F080900441F4
:103D63000237E675F0809004320237E675F08090F2
:103D7300043B1237E67420F075F080227E127FE553
:103D8300A21292387D092290018EE024D0FFE43400
:103D9300FFFE7C007D0A123384A3E024D0FDEC34C3
:103DA300FFCD2FFFED3EFE7D3C123384AA06AB0709
:103DB30090018CE024D0FFE434FFFE7D0A123384AB
:103DC300A3E024D0FDEC34FFCD2FFFED3EFE7C0EAF
:103DD3007D10123384EF2BFBEE3AFA900190E0242E
:103DE300D0FFE434FFFE7C007D0A123384A3E02479
:103DF300D0FDEC34FFCD2F2235F0FA7B0175F00FA7
:103E0300E52B1237E6E022E50875F00EA42411F540
:103E130082E43401F583E09001F7F0E50875F00ED4
:103E2300A42412F582E43401F583E09001F8F0E470
:103E3300A3F07A0179F77B01A21292377D092290D0
:103E4300080875F00FE52B1237E6E02275F0809035
:103E530004370237E675F0809004010237E675F007
:103E6300809004020237E675F0809004040237E67E
:103E730075F08090040C0237E675F08090040E0212
:103E830037E690080275F00FE52B1237E6E022754E
:103E9300F0809004120237E675F080EF0237E6FEF9
:103EA30075F080EF0237E675F080EE0237E6EFF04B
:103EB30090080675F00FE52B1237E6E022F583E054
:103EC3009001F8F0A3742EF0E50875F00EA422FE1D
:103ED30075F080EF0237E675F080EF0237E675F094
:103EE3008090043A0237E6EFF09002F5E0FC90038D
:103EF30003E0FE75F04222900191E024D0FF900090
:103F030002E075F00A84E5F022EFF090080975F0FD
:103F13000FE52B1237E6E022E493FFE4FCFDFE906D
:103F230003757402F02275F080EF0237E675F080B6
:103F3300EE0237E6FDC4540F2430F0ED540F243065
:103F4300A3F0229002B3EFF0E0FD242FF582E434D6
:103F530002F583E024D090022CF074302DF582E436
:103F63003402F583E090022DF09002B3E02431F5A2
:103F730082E43402F583E024D090022EF02275F01F
:103F830080EF0237E675F080ED1237E6EFF075F05B
:103F930042EE223EF583E538F09002F9E475F00134
:103FA3000234219002F71236F3EC4D4E4F22A21247
:103FB30092387D0322780B7C017D017B007A0079A6
:103FC3000D7E007F0612328F78EE7C017D017E002C
:103FD3007F0602328FEFF090080075F00FE52B1289
:103FE30037E6E02275F0429000031237E6E5822FB0
:103FF300F582E43583F58322E47B3CFAF9F89002F9
:10400300E71236F30235A575F080EE1237E6742019
:10401300F022EEF0ED75F00EA4229002F9E0FEA37B
:10402300E0FF9002F0E02FFF9002EFE03EFE22E07F
:1040330090022CF0900230E090022DF0900231E0DB
:1040430090022EF0900232E090022FF0900233E0C3
:10405300900230F0227E107F40A2129238E4FD22BB
:10406300A801123679EF540FFFEF2430F538D394BB
:1040730039229002EFE0FEA3E0FF2412F5827404DC
:104083003EF58322C3E4950CFFE4950BFE740F9574
:104093000AFDE49509FC2275F080EF0237E6901FD4
:1040A3005AE493FF3395E0FEFDFC22900190E02457
:1040B300D075F00AA4229002B0E02414FFE433FE8A
:1040C300C3E5449FEE6480F874809822900190E0E9
:1040D300FF7430D39F221236F3A804A905AA06ABB6
:1040E3000722FFE4FCFDFE90030B7403F022EFF0C4
:1040F30090080A75F00FE52B1237E6E0227A027971
:104103002C7B019003B4E4F0A32275F00EA42412D7
:10411300F582E43401F58322E4939001CEF0E49038
:1041230002B3F090022CE0FFE4D39F229000447589
:10413300F0420237E62413F582E43401F583E022EA
:104143002415F582E43401F583E022A21292387D2E
:10415300012290022EE064202275F080EE0237E601
:10416300ED75F0421237E6E0FFEE22E0FE242CF577
:1041730082E43402F583227F837EEC7D027C4090CF
:1041830001E412370FD302366890022CE075F00A6F
:10419300A4FF90022EE02F9002B3F090022FE022B2
:1041A300A3E0FFC3943022241EF582E43401F58397
:1041B300229002F9E0FEA3E0FFC322A3E09001F7FF
:1041C30024D0F0900230E024D022F0E52A75F0806C
:1041D300A422E490023DF0A3F090029CF02275F03B
:1041E300101232B5AFF0EF243090020CF0A3747AC2
:1041F3002274072538F53822EFF09002F5E022D239
:10420300B4E4F50CF50BF50AF509222414F582E460
:104213003401F583E0222416F582E43401F583E0CA
:10422300223EF5837420F0E49002F9F0A3F02275A6
:10423300F080EF0237E6E0FF9002B3E02FF022E4D4
:104243009375F00AA4FFA3E4932FFFEC35F0FE224D
:104253009001F8540F2430F0A322FDE43CFC9002BB
:10426300B3E0FED322900191E024D0FF900002E05E
:1042730022D39002AEE094059002ADE06480948076
:1042830022901F58E493FD3395E0FC1233EBED4C81
:1042930022742DF0EF3395E0FE7CFF7DFF02338423
:1042A3009002EFE0FEA3E0222411F582E43401F54D
:1042B3008322122F0D9002B812376C9002BC227524
:1042C300F00AE0A49002B3F0227B017A0179FA901C
:1042D300063B023824C2B37DB47C2D7F0F2275F0D8
:1042E3003CEF84FFA3E02FF0227445F075F080E5E6
:1042F3002A22EF24D0FF9001CEE075F00AA42FF01C
:10430300229002EFE0FCA3E0FD22AF33AE32AD31E9
:10431300AC3022F09002B3E004F022900190E0244C
:10432300D0FFEE75F00A8422A37420F0A3F0901F4F
:104333005CE493FF2275F0101232B5243090020B27
:10434300F022E52B9008031237E6E582252E229012
:1043530002E312376C9002E3229002B3E0FFC32220
:10436300EE1237E6742CF022742CF075F080EE22F6
:10437300E4FAF9F80235A51236F37BD57AFF797F93
:104383007839229002EFE075F08022EF1237E6745D
:1043930049F0227B407A42790F78009002E322AB06
:1043A3000CAA0BA90AA809023668EEF0EF75F00A09
:1043B30084229002B3E0C39401229001CEE0FFFD7A
:1043C3003395E0FCED229002B312372BEC4D4E4FA8
:1043D30022FFE4FCFD9003757407F0222417F58295
:1043E300E43401F583E0222419F582E43401F583F2
:1043F300E022241AF582E43401F583E022241CF53B
:1044030082E43401F583E022E493FDFB3395E0FA83
:10441300EF6B22A3E493648094B022EFF090030344
:10442300E0FD22C295C2A4C29022901F73E493FFC1
:1044330022A21292377D0922900269F0901F64E450
:10444300932290026AF0901F65E4932290026BF02E
:10445300901F66E4932290026CF0901F67E493220E
:104463003CF583E538F022E0FF75F00A842430FE42
:10447300229002BC12376C9002B822F09001F7E050
:0C448300FFE4D39F229001CEE0FFC32293
:1056B100E49002ADF0A3F0C233A3F0A3F0A374050C
:1056C100F0E49001CDF0C208C2299001EA04F09003
:1056D100029B7404F0D20153D9BF75C990E4F5FF60
:1056E10012000312E5D612D9D712D83F1240581230
:1056F100BDFF12CEF153C77F12F6C912B81B124477
:1057010026C23512F314901F73E49330E3057F082A
:1057110012C4BFC232C2017E107F4F123D8312BD3F
:10572100FF901F73E49330E70B12B199D2257E10DD
:105731007F59800BE4F5E3C296C2257E107F60128B
:105741003D8312BDFF901F73E49330E6067E107F08
:105751006880047E107F70123D8312BDFF901F731D
:10576100E49330E40E7E107F79123D8312BDFFD2A7
:1057710013800C7E107F90123D8312BDFFC2137EF9
:10578100107FAB123D8312BDFFE49001E9F012419D
:10579100D612EFCC78C67C017D017B007A00790DB1
:1057A100123FD1901F59E4939001D0F0901F5AE419
:1057B100939001CCF0E49002ABF0D20690022BE57D
:1057C10010F09002ACE511F0900264E512F012EFD6
:1057D100CC1200033031167E107FBE12405C12BD28
:1057E100FF7E1F7F5D123D8312BDFFC231201C036E
:1057F100309306301C19309316309603E4F5E3120A
:10580100B81B30250512B1998005E4F5E3C296E590
:105811004470030258AC300705209302D290124025
:10582100B9503790029DE0C39404502E125F1D754C
:10583100F01E84E5F07010AF0D12F5CEC007125EB8
:10584100D5D007EEB50713302261AF0D12F5CEC0EA
:1058510007125ED5D007EE6F60511240B940089033
:1058610002AFE004F08007E49002AFF0A3F09002F1
:10587100AFE0D39403400BA3E02404F09002AFE027
:1058810014F09002AFE0B4C8037404F09002B0E0E9
:105891002414FFE433FEC3EF9464EE6480948040EB
:1058A10003744CF0D234124DA1C22C30070C20935A
:1058B10009E5447005309002C290AF0E12F5CEC0DA
:1058C10007125F24D007EE6F7003025991AF0D12DA
:1058D100F5CEC007125EE0D007EE6F70030259915A
:1058E100302C0302599190029CE004F0E0B43C0B8F
:1058F10090023EE004F0E490029CF090023EE0B49D
:10590100180990023DE004F0E4A3F090029CE0301D
:10591100E00C90023EE0700690023DE060667E1071
:105921007FCC123D8312BDFF90023DE0123F1D125C
:10593100885BA21292377D07125F0C90023EE01243
:105941003F1D12885BA21292377D06125F0C9002F6
:105951009CE0123F1D12885B123E3B12C0AD7E10CF
:105961007FE4123D8312BDFF30AF05E5E620E01470
:105971007E107FF7123D8312BDFFD2AF202105C2F9
:105981003512F31490023EE0D3942140031241D525
:1059910043870185878730980312BEEBE4FF12F23B
:1059A10080301379AF0D12F5CEC007125EE0D0073B
:1059B100EE6F6024309614E5E330E00F7A017985CB
:1059C100123E3912C0AD12CEF1800D20960A7E1121
:1059D1007F38123D8312BDFF124268FE123F05B5AA
:1059E100071612431EB50710AF0D12F5CEC00712F0
:1059F1005EEBD007EEB507171240CF5012EF943986
:105A0100500DA3E0FF74309F5005EF9439400E9084
:105A110002AD123F9F1242744003125F4BE558D30F
:105A2100940F5003025C4D202503025C4D303D0371
:105A3100025C4D900196E064416009A3E06441601D
:105A410003025B90900186E064476003025B901261
:105A51003D8AFFED3ECF2BCF3AFE0C7D2C123396C3
:105A6100ED4C7019123EFD6F6013901F73E493307B
:105A7100E50B9002ABE0C3940A4002C206901F7688
:105A8100E493FF901F75E4934FFF901F77E4934FCA
:105A9100FFA3E4934FFFA3E4934FFFA3E493F94FD4
:105AA1007003025B90200365123D8AFFED3ECF2B10
:105AB100FBEF3AFAC002C003901F771242427D3CCD
:105AC100123384AA06AB07901F751242427C0E7DE9
:105AD10010123384EF2BFDEE3AFC901F79E493759D
:105AE100F00AA4FFE97A002FFFEA35F0CF2DFDEF90
:105AF1003CFCD003D002AF03AE02123396ED4C60F2
:105B010003025B90123EFA6F7003025B9030030A4E
:105B11007E117F4B123D8312BDFF7B017A01798596
:105B2100123E3B12C0AD301C6653E6FEE5416004F7
:045B3100640F705637
:105B3500E49002B2F09002B2E0FF2485F582E434ED
:105B450001F583E0FE90029DE05403123FE7EEF07D
:0A5B55009002B2E004F0E0B441DB7E
:105B5F009002ABE0FF90029DE0540312412FEFF053
:105B6F0090029DE004F07F0412C4BFC2031240AE46
:105B7F00FFA3E024D02F900002F08002D20343E66F
:105B8F00019002ABE0D394F04003740AF012426824
:105B9F00FE123F056F702412431E6F701EAF0D1261
:105BAF00F5CEC007125EEBD007EE6F600E9002AD20
:105BBF00123F9F1242744003125F4B900190E0FF1F
:105BCF00C39430403FEFD3943950391241A340343E
:105BDF00EFD39439502EEF12426CF9123F056F60DC
:105BEF0023123DDEFBED3EFAE92401FFE433FE7D97
:105BFF003C1233EBEDB5030CECB502089002ABE0B1
:105C0F0004F0800B123EFA6F6005E49002ABF012C5
:105C1F0040CF502AEF94395025A3E0FF74309F50A6
:105C2F001DEF94395018EF123EFE6F60111240AE07
:105C3F00900002F0E02FF0E49002ADF0A3F0200608
:105C4F0016901F73E49330E50E9002ABE0C3940AF5
:105C5F00400512AE1FD206125F1D75F00F84E5F0DE
:105C6F007013AF0D12F5CEC007125EF6D007EE6FB0
:105C7F00600312DAD8AF0D12F5CE901F5BE493FDDF
:105C8F003395E0FCEF2DFFE43CFE1242847020AF11
:105C9F000D12F5CEC007125EF6D007EE6F601090B2
:105CAF001F74E49330E4081242D812EF9DD2B3AFC1
:105CBF000D12F5CE7E001242847015AF0D12F5CE87
:105CCF00C007125F01D007EE6F6005C235128E4418
:105CDF00309313125F3820E0051244268052D2957C
:105CEF00D2A4D290804AAF0D12F5CEC007125F0139
:105CFF00D007EE6F603A30070A125F3820E004B227
:105D0F00A48002C2A4300715AF0D12F5CEEF75F0C7
:105D1F000384E5F07007300D04B2958002C2952020
:105D2F00070E30900BAF0D12F5CEEF20E002C290B0
:105D3F00AF0D12F5CEC0079001C6E0FF12F5CEAE43
:105D4F0007D007EE6F7003025E059001C6E50DF0F8
:105D5F0053AEFEE5C720E0069002B17402F0202595
:105D6F0005C296E4F5E39001F6E0D39405400520D3
:105D7F000D02D20D9002B1E0D394004002D2073051
:105D8F001C7412417A406F7E117F77123D8312BDD2
:105D9F00FFC234124DA19001EAE0C394215030129A
:105DAF00417A402B125F3F7E117F87A21292387D7E
:105DBF000712BDFF9001EAE0FFE4FCFDFE900375C2
:105DCF00F012885B123E3B12C0AD12662E80C77E6A
:105DDF00117F9BA21292387D0612BDFF9001E41233
:105DEF0036F3900375740BF012885B123E3B12C0B2
:105DFF00ADC23512F314AF0E12F5CEC007125F24E9
:105E0F00D007EE6F60199001C7E50EF09002B1E078
:105E1F00FF7006EFD3940040069002B1E014F0AF8C
:105E2F000F12F5CEC007125F2FAE07D007EE6F70BF
:105E3F00030257CF125F2FC007AF0F12F5CEAE0779
:105E4F00D007C3EE9F6401601A9001C8E0FF12F5FE
:105E5F00CEC007AF0F12F5CEAE07D007C3EE9F64CB
:105E6F00E9705A12442D30E002D202EF30E21420D2
:105E7F009311D234124DA1D204C23412F3EB126635
:105E8F002E8027209331901F73E49330E1299001E6
:105E9F00C8E0FF12F5CEEF6417701CAF0F12F5CEEE
:105EAF00EF7014D234124DA1D200125F3F12662E42
:105EBF00C23512F3148006C204C200C2029001C898
:065ECF00E50FF00257CFC1
:105ED5009001C6E0FF12F5CEAE07229001C6E0FFA5
:105EE50012F5CEAE07229001C6E0FF12F5CEAE0741
:105EF500229001C6E0FF12F5CEAE07229001C6E062
:105F0500FF12F5CEAE072212C0AD7E107FE2A212BF
:105F150092387D0712BDFF22AF0D12F5CEEF22900C
:105F250001C7E0FF12F5CEAE07229001C8E0FF12CF
:105F3500F5CE22AF0D12F5CEEF22D23412F3EB904F
:105F450001EAE004F022E4F0A3F07F0112ED0D2256
:10D9D700C234124DA112F6C9C2AF12F4331242DAA1
:10D9E70012EF9D2094FD3094FD2094FDC2B4309435
:10D9F700FD12420212EFCC123FB890010BE0FF126A
:10DA0700F63290010B12DA4690010C12DA469001B9
:10DA17000D12DA4F90010E12DA4F90010FEFF0A3BB
:10DA2700E0FF12F632900110EFF0C23512F31490B6
:10DA37001F73E49330E3057F0812C4BFD2AF22EF10
:10DA4700F0A3E0FF12F63222EFF0A3E0FF12F63266
:01DA570022AC
:0D004600C2871242DA12EF9DD28702D9D78D
:10AE1F009002B3123791000000017E117FA6123D00
:10AE2F008312BDFF20960A7E117FC0123D8302BDA3
:10AE3F00FFC234124DA112F6C9C2AF20A5051243AD
:10AE4F00C970F89002B3123FA97002801A9002B332
:10AE5F001237910000000130A5051243C970F89018
:10AE6F0002B3123FA97007D2AFC23502F31490029A
:10AE7F00B31237910000000130A5FDC2B420A5FD2B
:10AE8F00124202C23512F3147F0512C4BF90018C17
:10AE9F001240B112AF3F8F0F90018E1240B112AF1F
:10AEAF003F8F0E900190E075F00AA4FFA3E02F24CE
:10AEBF00F2FF12F6128F0D90022BE0F5109002ACFC
:10AECF00E0F511900264E0F512123FB890010BE02B
:10AEDF00FF12F63290010B12AF2D90010C12AF2D15
:10AEEF0090010D12AF3690010E12AF3690010FEF99
:10AEFF00F0A3E0FF12F632900110EFF07F0612C4BC
:10AF0F00BF12EC487E117FE012405C12BDFF12CEE3
:0DAF1F00F17E117FEB123D8312BDFFD2AF1A
:10AF2C0022EFF0A3E0FF12F63222EFF0A3E0FF12C3
:0EAF3C00F63222FFA3E024D02FFF12F61222DD
:10DCCE00E5119004271239B7EEF0E51190042612F3
:10DCDE00399CEEF0E51090042A1239B7EEF0E510FB
:10DCEE009004291239C3EEF0E51290042F123A1661
:10DCFE00EEF0E51290042E12399CEEF0E50F900432
:10DD0E0032123A16EEF0E50F9004311239C3EEF0EE
:10DD1E00E50E900435123A5BEEF0E50E90043412E7
:10DD2E0039EFEEF0E50D900438123A5BEEF0E50DAA
:09DD3E009004371239EFEEF022D7
:10E52C00ED14601414603014603C240370469004A5
:10E53C0000123A8F745B8018900400123B2C745BB1
:10E54C00F0900401123B37745BF0EF123A47745DA4
:10E55C00123B33745DF022900400123B5374201272
:10E56C003B337420F022900400123B8A740A123B55
:05E57C0033740DF022D4
:05DDBF009002EFEFF0FF
:10DDC400A3F09002F0E0FFC39404505B7D0312E5DE
:10DDD4002C9002F0E090043912395B742EF0E4F5D3
:10DDE40038F53974672539F58274023538F583E0DE
:10DDF400FF9002F0E0900401123969E5822539F5BB
:10DE040082E5833538F583EFF00539E5397002058D
:10DE1400386419453870CC9002F0E0FF129FEE9000
:0DDE240002F0E004F0809B9002EFE0F513A7
:01DE310022CE
:10E6CE00900424123E9B742CF0EF123BCA123D783C
:10E6DE00EF9004281237E6742FF090042B123EDAD6
:10E6EE00742FF075F080EF900430123D75EF9004AA
:10E6FE00331237E6743AF0900436123EDA743AF07A
:10E70E0090042C123F297432F0EF123A797430F0E3
:01E71E0022D8
:029FEE00AE07BC
:109FF00090041A123AA7742CF0E4F53AF53B746910
:10A00000253BF582741F353AF583E493FF90041BDA
:10A01000123BE2E582253BF582E583353AF583EF95
:10A02000F0053BE53B7002053A6409453A70CFAF55
:10A030000612E6CEEE123BA5742CF0EE123D5D74D6
:10A0400020F0EE123A527447F0EE123AB17437F043
:10A05000EE123B057432F090044B123EAA742CF0C1
:10A0600090044C123F307420F0900472123ACE7477
:10A070002F123B717433123B917431123A96123B9A
:10A08000DC742CF090046E123A2F123D78EE90049E
:10A090004D123D75900451124363900452123F30AB
:10A0A0007420F0901F74E493FF20E415EE123B68D7
:10A0B0007441F0EE123BB8742FF0EE123B7E744EFA
:10A0C000F090045512415C742EF090045812415CDB
:10A0D00012436B900459123D75EE90045A12400ED3
:10A0E000EE123A83E0D39439500D75F080EE123AB7
:10A0F00086E0C394305009EE123BC17441F0800AEF
:10A1000075F080EE123BC4742EF075F08090046000
:10A1100012436390046112400AEF75F08030E30946
:10A12000EE123B9F742EF08023EE90046712400ED7
:10A13000EE123B9C7420F0EE123ABB7441F0EE122A
:10A140003AC5742FF0EE123AE3744EF075F080EEDB
:10A15000900462123D75EE900468124364900469A5
:03A1600012400AA0
:01A1630022D9
:10F3310012EFCC9001F0E50FF0A3E510F0A3E51179
:0CF34100F0A3E512F09001EFE50EF022C1
:10F1DB0012CEF130250F3010067E127F04800A7E8E
:10F1EB00127F2A80047E127F48123D8312BDFF02DC
:02F1FB00C93316
:10CEF100303E0302CF9DE511C4540F2430FD900153
:10CF0100F7B430057420F08002EDF0E511124253C0
:10CF1100742FF0E510C4123F3FE510123F3FA37498
:10CF21002FF0E512C4123F3FE512123F3FA37420D8
:10CF3100F0E50FC4540F2430FDB43006A37420F083
:10CF41008005900200EDF0E50F9002011242567447
:10CF51003AF0E50EC4123F3FE50E123F3FA3743A8B
:10CF6100F0E50DC4123F3FE50D123F3F12432BFD8B
:10CF7100C36480948090020A5007124294AD0780E6
:10CF810003742BF0ED124338ED1241E1123E3112E0
:0CCF9100C0AD7D179001F7E4F0A3DDFCBB
:01CF9D002271
:10C87800303E0302C9329001F2E0FFC4540F243065
:10C88800FE9001F7B430057420F08002EEF0EF124C
:10C898004253742FF09001F1E09001FA123F37A350
:10C8A800742FF09001F3E09001FD123F37A374203C
:10C8B800F09001F0E0FFC4540F2430FE900200B461
:10C8C80030057420F08002EEF0EF540F243090020F
:10C8D80001F0A3743AF09001EFE0FDC4540F243046
:10C8E800900203123F3DA3743AF09001EEE0FDC4BC
:10C8F800540F2430900206123F3D12432BFEC364AE
:10C9080080948090020A5007124294AE0780037404
:10C918002BF0EE124338EE1241E1123E3112C0AD57
:0AC928007E179001F7E4F0A3DEFC97
:01C9320022E2
:10C933007E127F5E12405C12BDFF123ECB12413865
:10C94300FF12F120123ECB12420EFF12F1207F2E76
:10C9530012F120123ECB124143FF12F120123ECBC3
:10C96300124219FF12F1207E127F73A21292387DB8
:10C973000812BDFF786DE6FE08E61243D412885B09
:10C9830012443412C0AD7E127F9B12414E12BDFF82
:10C9930090062E1236F3900375740CF012885B1216
:10C9A3003E3B12C0AD301A3DD3786EE6940018E6D4
:10C9B300940040319001F6E004F07E127FC21241F0
:10C9C3004E12BDFF9001F6E0D39406400E7E127F17
:10C9D300D112414E12BDFFD20D800A7E127FE312A7
:0BC9E300414E12BDFF123D7F02BDFF60
:10E5D60075F1BF75F2FF75F3FF75F47E75F5FF757E
:10E5E600A41D75A5E775A61975A77A75AE8075D4AD
:10E5F600C875D5FF75D61975DFFF75E10775E24059
:10E6060075E301C22AD2A075C70312F1B77E127F45
:10E61600E712405C12BDFF7E137F12123D8312BDCE
:04E62600FFC2B42259
:108E4400E4F529F52A12C640901F74E49330E638FD
:108E5400203E357E137F3A123FB112BDFF123ECB46
:108E64001241389001F7123ECA2414F582E4340109
:108E7400123EC01241439001FA123ECA12421990A6
:108E840001FB123E3112C0AD123ECB12420EFFB4B2
:108E9400340B123ECB124143D394354006EFD394A6
:108EA40033500D123ECB124138B43004C207800255
:108EB400D207E4F508C21F901F749330E25512A63E
:108EC400C7901F74E49330E00A7E137F4A123D83F7
:108ED40012BDFF901F74E49330E638203E357E13B4
:108EE4007F6F123FB112BDFF123ECB1243DF9001E0
:108EF400F7123ECA2418F582E43401123EC012432C
:108F0400EA9001FA123ECA1243F59001FB123E3177
:108F140012C0AD901F74E493FF30E47A30E00A7E0F
:108F2400137F83123D8312BDFF752900752A0190BA
:108F340001CCE0FFC3E52A9FE5299400503DC237E8
:108F440012ACF1901F74E49330E0259001CCE0C39F
:108F5400952AFFE49529FEC3EF9405EE9400501082
:108F64007E137FA3123FB112BDFF123E0A12C0ADA1
:108F7400052AE52A70020529028F33901F74E493B1
:108F840030E613203E107E137FBA123FB112BDFFAC
:108F9400123E0A12C0AD901F74E49330E30E1242E5
:108FA400D812EF9D3025057F0112ED0D901F74E45A
:108FB4009330E35D12B714901F74E49330E00A7E9B
:108FC400137FC7123D8312BDFF901F74E49330E6F4
:108FD40040203E3D7E137FDC123FB112BDFF123EA6
:108FE400CB1244009001F7123ECA241DF582E434EA
:108FF40001123EC01241AAE09001FA123ECA241F97
:10900400F582E43401F583E09001FB123E3112C095
:10901400ADD2B312F5857F01123C141241AAEEF0D1
:099024000FEF640870F2750807F3
:01902D002220
:10E8F100900304123824803A90030BE0D394004033
:10E9010039E014F0E47B0AFAF9F8900307124004A5
:10E91100EB2430FF90030412380490030BE0F582DE
:10E92100758300EF1233629003071236F37B0A12EC
:0BE93100437390030712376C80BE2276
:1093E700D234E49002B4F0A3F09002B41241B794DF
:1093F70034EE9400501474F72FF58274013EF58310
:10940700E4F09002B4123FA080DF900241742FF085
:10941700900244F09002497420F090024C743AF0A4
:1094270090024FF012CB6390023BE0FEA3E0FF4EA9
:10943700601A901F5612440B7002EE6A600EED70B0
:109447000B7E1F7F567A02793B1295A9900181E026
:10945700FEA3E0FF4E601A901F5712440B7002EEF6
:109467006A600EED700B7E1F7F577A017981129526
:10947700A9901F5DE493C3648094B0401212441610
:10948700400D901F601244174005124416503FC20A
:10949700117E137FED123D8312BDFFD2B4C2877DCB
:1094A700407C067F0112EF9DD287C2B4D2B4C23589
:1094B70012F31420110C7E147F40123D8312BDFF5E
:1094C70080F17E147F63123D8312BDFF8002D211AB
:1094D7009002B3E0C394055051E4A3F0A3F09002C7
:1094E700B41241B79405EE9400502674632FF582A9
:1094F700741F3EF583E493FFD3648094B95008C387
:10950700EF648094B05002C2349002B4123F9F803F
:10951700CD901F6CE493642C6002C2349002B3E0D8
:1095270004F03034AB740AF080A620340C7E147F2C
:109537006E12405C12BDFF801AC213C222C22512EE
:10954700442D30E402D213EF30E602D222EF30E7A7
:1095570002D22512C3FD9002677453F0A314F09052
:109567001F63E49312443B12444512444F1244597B
:1095770090026DF012442D30E20890026E7448F0AC
:10958700800FEF90026E30E1057444F08003745F42
:10959700F09002667404F0D235128E4412F714026A
:0295A700C3FD02
:0D95A9007B019003B4F0A304F012EE302219
:10B81B00E49002B3F0C295D2A4C29012EFCC901F69
:10B82B0074E49330E0107E147F84123D8312B919B7
:10B83B00123D7F12BDFF30930302B8E8301C0302A8
:10B84B00B8FA9001EBE0600302B8FAC20F7E147FE6
:10B85B00A3123D8312BDFF12C9337E147FD1123D5B
:10B86B008312BDFF9001E8E060527E147FDB124033
:10B87B005C12B91912662E901F74E49330E00A7EA5
:10B88B00147FEC123D8312BDFFC23512F314901FCF
:10B89B0074E49330E0067E147FF78018E544D3946C
:10B8AB00004019C234124DA1901F74E49330E0ECA8
:10B8BB007E147FFF123D8312BDFF80E09001E8E014
:10B8CB007014901F749330E00A7E157F12123D8323
:10B8DB0012BDFF12662EC23512F3148012301C0FEC
:10B8EB007E157F1F123D8312BDFFD23412F3EB90F6
:10B8FB001F74E49330E01612EFCC7E157F40123D9F
:0DB90B008312BDFF12CEF1123D7F12BDFF71
:08B918002212BDFF12CEF12244
:10F28000E5C930E60E201208D212EF701012D19CA0
:0EF2900002008E301202C212E4F5A9F5B92276
:088A5E009002EFEEF0A3EFF02F
:108A6600900183E0F539A3E0F53A12422A1241B4A7
:078A76009404EE9400504748
:108A7D00C374039FFFE49EFEEF7802C333CE33CE63
:108A8D00D8F9FF9002FBEEF0A3EFF0AE39E53AA86E
:108A9D0007088005CEC313CE13D8F9540F12406DBD
:108AAD00400674272538F53812401D74012FF582C4
:028ABD0074043F
:108ABF00123F9680AF1242A32405F582740412422E
:018ACF002482
:108AD0001241B474059FFFE49EFEEF7802C333CECB
:108AE00033CED8F9FF9002FBEEF0FAA3EFF0FB9043
:108AF00002F51236F3A90312406340031241F41247
:098B0000401D74062FF582740477
:108B0900123F969002F9E07004A3E0640670B8126F
:108B19004304240CF58274043CF5837420F0786FC7
:108B2900E6FAEAC4540F2430F538740D2DF5827431
:108B390004124463D3943940031241F4EA540F12E6
:108B4900406D40031241F4124304240EF58274046B
:108B5900124463786FE6FA08E6FBEAC4F854F0C8F1
:108B6900EBC4540F48540F12406D40031241F47482
:108B79000F2DF5827404124463EB540F12406D40BB
:108B8900031241F41242A3FF2410F58274043EF546
:108B990083E538F0302610B4300D74102FF5827447
:108BA900043EF5837448F074112FF582740412425F
:108BB900241241B49408EE94005026C374079F25EB
:108BC900E025E0F99002F11236F3124063400312F6
:108BD90041F412401D74122FF5827404123F9680DD
:108BE900D020250B1242A312407D7444F0801E3020
:108BF900060B1242A312407D744CF080101240758E
:108C0900E0B4300974122F12407F7445F0300C1310
:108C1900124075744CF074132FF58274043EF58379
:108C29007442F090029C12446A1243042413F582A0
:108C390074043CF583EEF0EF123F052430FF741401
:0A8C49002DF58274043CF583EFF072
:018C530022FE
:0BEF9D009002E3EFF0A3ECF0A3EDF016
:10EFA800E4A3F09002E3E0FF9002E6E0C39F501371
:10EFB8009002E4E0FEA3E0FF12002E9002E6E004D7
:03EFC800F080E0F6
:01EFCB002223
:10ACF10030372AE5087005752C078005E50814F53D
:10AD01002CE52C12410DE0FF123ECB124111EFF068
:10AD1100E52C75F00EA41242ABE002AE0B12AE159B
:10AD2100D23812C3398E2D8F2EC23812C3398E2FCD
:10AD31008F3012AE15AC2DAD2EEC1230189002B83A
:10AD410012376CAC2FAD30EC123018124474124330
:10AD51007A1242B512437A122F0D1244741240D95D
:10AD61001242B51240D9122F0D9002BC1242BB12F1
:10AD710036F39002B812370F122E1C12CFA212ED29
:10AD8100497BE67A2E79657842122F0DE4FBFAF9B8
:10AD9100783F122E1C1230519002B6EEF0A3EFF064
:10ADA1009002B7E0F52BE53264517004E531643F60
:10ADB1006024752B639001CDE0C39414500A7E1575
:10ADC1007F5E123D8312BDFF9001CDE0C394195007
:10ADD10014E004F0800FE532B4510AE531B43F05C7
:10ADE100E49001CDF0E52BB4FF03752B5AE52B124E
:10ADF1003F052430FF123ECB124111EFF0E52B75D8
:10AE0100F00A84F52B123F052430FF123ECB12428B
:03AE1100ABEFF0B4
:0BAE1400227F4A12DA588E318F322262
:10D19C0090029F740CF0A37403F0E49002A2F09040
:10D1AC0002A4F09002A6F09002A8F0901F63939056
:10D1BC0002A1F0901F64E4939002A3F0901F65E429
:10D1CC00939002A5F0901F66E4939002A7F0901F35
:10D1DC0067E4939002A9F0E4A3F012EAF7901F81A0
:10D1EC00E493FE740193FF901F83E493FC7401930A
:10D1FC00FD7BFF7A1F79BB9002BA1238247B017A2F
:10D20C0002799F9002BD123824901FD9E4939002AA
:10D21C00C0F0901FDAE4939002C1F0901FDBE4930E
:10D22C00FB7401939002C2CBF0A3EBF07BFF7A1F4F
:08D23C00798512AA8A02F3B9F8
:085F55009002EFEFF0A3EDF064
:105F5D00C235C236124386A4FF9002F1E5F0F0A3DC
:105F6D00EFF0E4A3F0A3F09002FB123791000000D4
:105F7D00009002FF12379100000000900265E0547E
:105F8D0003900303F07E11900003124132E5822E3F
:105F9D00123FF3E0B42C04C2358002D235E49002F6
:105FAD00F5F0A3F09002F5E0FFC3944040030262C8
:105FBD00F0900303E0FA123FE7E0FBB42C119002DE
:105FCD00F6E004F0A3123791000000000262E790A2
:105FDD0002F6E024FD70030260791470030261067D
:105FED0014700302611C1470030261D524FD70034B
:105FFD0002620E240860030262E7123FA6600302EC
:10600D0062E79002EFE0FD900431123977123BF216
:10601D00ED123D66123F8F900005123C049002EF89
:10602D00E0FD9004341239841241FBFC900303E02F
:10603D00900006123C00ED123B3E123F8F90000780
:10604D00123C049002EFE0FD900437123996124194
:10605D00FBFF75F042EA9000081237E6E5822F1239
:10606D003C0A75F080ED9004380261CE123FA660B7
:10607D00030262E79002EFE0FD9004011239A312D2
:10608D003BF2ED123E61123F8F900005123C0490E1
:10609D0002EFE0FD9004031239B1123EEA900006C2
:1060AD00123C04ED123E6A123F8F900007123C0421
:1060BD009002EFE0FD9004051239BD123EEA90000A
:1060CD0008123C04900406123F88900009123C040B
:1060DD009002EFE0FD9004071239CA123EEA9000DB
:1060ED000A123C04900408123F8890000B123C04E5
:1060FD001243869004090261CE123FA6600302622C
:10610D00E79002EFE090040A1239D7EB0262CD124C
:10611D003FA660030262E79002EFE0FD90040B12D0
:10612D0039E9123BF2ED123E73123F8F90000512CA
:10613D003C049002EFE0FD90040D1239F6123EEA98
:10614D00900006123C04ED123E7C123F8F9000072A
:10615D00123C049002EFE0FD90040F123A10123E33
:10616D00EA900008123C0475F080ED900410123F87
:10617D008C900009123C049002EFE0FD9004111286
:10618D003A1C123EEA90000A123C04ED123E9212A5
:10619D003F8F90000B123C049002EFE0FD90041332
:1061AD00123A291241FBFF900303E075F042900073
:1061BD000C1237E6E5822F123C0A75F080ED900443
:1061CD00141237E6EF0262CD123FA660030262E7BA
:1061DD009002EFE0FE900415123A4AEBF075F08054
:1061ED00EE900416123D75EE900417123D75EE906B
:1061FD000418123D75EE9004191237E674200262F0
:10620D00CD123FA660030262E79002EFE0FD90041D
:10621D0029123A55123BF2ED123AFC123F8F9000C3
:10622D0005123C049002EFE0FD900426123A611233
:10623D003EEA900006123C04ED123B0E123F8F9089
:10624D000007123C049002EFE0FD90042E123A7C00
:10625D001241FBFC900303E075F042900008123CE4
:10626D0004ED123B20EFF074862CF582E43401F539
:10627D0083E024D0FFEB1240B22FFF12F6129002F2
:10628D002B1241FBFE2487F582E43401F583124085
:10629D00B1FF74882EF582E434011266239002ACAE
:1062AD001241FBFE2489F582E43401F5831240B1DD
:1062BD00FF748A2EF582E43401126623900264EF96
:1062CD00F09002F71236F3EF2401FFE43EFEE43DB9
:1062DD00FDE43CFC9002F712376C9002F5E004F0FF
:1062ED00025FB19002EFE0FF123A527447F075F081
:1062FD0080EF123AB47450F0EF123B057453F0EF87
:10630D00123A0D7420F0EF123BD37446F0EF123BAE
:10631D00E97469F0EF123D307478F0EF123D397485
:10632D0020F0EF123D4B742012441F75F042900087
:10633D000B1237E6E0FF9002EFE0FE900432123AC6
:10634D0090EFF090000A124163123D4212441E90EC
:10635D00000D124164123B3EEFF090000C124163B0
:10636D00123D5412441E75F04290000F12416712F7
:10637D003B47EFF075F042ED90000E124167123E73
:10638D004FEFF0EE123EE17430F0EE123D6FEE90F5
:10639D00043C1237E6123B5A123B5A123D78EE90EE
:1063AD00043E123D75EE90043F123D75EE123BA872
:1063BD0012436B90046A123D75EE90046B123D759D
:1063CD00EE90046C1237E6123BDC12436B90046EB8
:1063DD00123D75EE90046F123D75EE900470123DF6
:1063ED0075EE900471123D75EE900472123D75EECE
:1063FD0090047312400E900474123ACE7420123B26
:10640D00717420123B917420123A96123D78EE90E1
:10641D00047A123D75EE90047B12400E90047C12AE
:10642D003A2F123D78EE9004291237E61240D240F1
:10643D00030264C7900429123EAAE0D39439507A1E
:10644D0075F080EE123AFF1240D2506E75F080EE6C
:10645D00123AFFE0D394395061EE123BAE1240D2A6
:10646D00505875F080EE123BB1E0D39439504B7516
:10647D00F080EE123B111240D2503F75F080EE12BB
:10648D003B11E0D394395032EE123B171240D250EB
:10649D002975F080EE123B1AE0D39439501C75F03B
:1064AD0080EE123B231240D2501075F080EE123B5D
:1064BD0023E0D3943950030265FD9002EFE0FF9085
:1064CD000429123AA87437F0EF123AFC7437F0EF42
:1064DD00123BAE7437F0EF123B0E7437F0EF123BF8
:1064ED00177437F0EF123B207437F0EF123D427402
:1064FD0030F0EF123D667430F0EF123D547430F011
:10650D0075F080EF123B417430F0EF123E4F743056
:10651D00F0EF123B477430F0EF123E587444F0EF39
:10652D00123E617441F0900403123F297454F0EF50
:10653D00123E6A7445F075F080EF900405123D75BA
:10654D0090040612438E900407123F817453F07528
:10655D00F080EF900408123D7590040912438E905F
:10656D00040A123F81744EF090040B12409A745637
:10657D00F0EF123E737441F090040D12409A744C7A
:10658D00F0EF123E7C7449F090040F1242327444C5
:10659D00F075F080EF900410123D75EF900411121C
:1065AD0037E6744FF0EF123E927452F075F080EFB3
:1065BD00900413123D75EF9004141237E67446F0F3
:1065CD009004151242327449F075F080EF90041664
:1065DD001237E67458F075F080EF900417123D7580
:1065ED00EF90041812438F900419123E9B7453F0D0
:1065FD00124386A4246AF9740435F0FA7B019003E2
:10660D0003E012412FE01240E512E8F1900265E03F
:05661D0004F0E4F55853
:0C66220022F583E024D02FFF12F6122294
:10AF4A00901F74E493FE30E41EED12410DE0FC12F2
:10AF5A003B67EC1240161242ABE0FC123BB7EC1214
:10AF6A003B7C7420F08011123B677441F0123BB7AE
:10AF7A00742F123B7C744EF0EE30E235ED75F00E14
:10AF8A00A41243F5FE123B291240151243EAFE129F
:10AF9A003B501240152418F582E43401F583E0FE93
:10AFAA00123B871240151243DFFE123A82EEF080FE
:10AFBA001F123B297420F0123B507420F0EF123B11
:10AFCA00C17441F0123B87742FF0123A82744EF02A
:10AFDA00ED75F00EA4124219900457123EA21240C7
:10AFEA0015124143900456123EA212401512420E07
:10AFFA00900454123ED21240151241389004531252
:10B00A003ED2EEF0901F74E49330E33CED75F00EFF
:10B01A00A41241AAE0FE123A8C124015241DF582B0
:10B02A00E43401F583E0FE123ABA124015124400E4
:10B03A00FE123AC4124015241BF582E43401F5834A
:10B04A00E0FE123AE2EEF022123A8C7420F0EF128D
:10B05A003B9C7420F0123ABA7441F0123AC4742F2D
:08B06A00F0123AE2744EF022EC
:104DA100E4F533F532F531F530F537F536F535F50E
:104DB100349002E712379100000000E49002EBF01A
:104DC100A3F0E54470030256A6301C03309309207A
:104DD100120620340302568B12F6C9E4F5E385135B
:104DE1002A301C0920930612F40412F720E4F52B53
:104DF100E52BC39544400302567CAF1312DDBFE59A
:104E01002AC394044003025640123E42FF640460E8
:104E110013EF6405600EEF64066009EF6407600438
:104E2100EFB40804D20B8002C20B900800123E4579
:104E3100FEA3E0786FA60608F690080D123E88548E
:104E41000FF52C300B03025006E4F52E752F037578
:104E51002F03E52F75F00F20E00F124345123FF3AA
:104E6100E0540FF52D052E800C124345123FF3E05F
:104E7100C4540FF52D7430252DF52DD394394006EA
:104E81007407252DF52D123A50E582252F123FF397
:104E9100E52DF0052FE52FB409B8123E85C4131393
:104EA1005403F52E14600F14601114601324037061
:104EB10012752FEE800D752FEF8008752FF080038E
:104EC100752FF11241CE246FF9740435F0FA7B018C
:104ED100AF2F1240E612E8F1123E85543FF52D1234
:104EE1003F05900474123956EFF0E52D75F00A84F0
:104EF100F52D123F05900473123964EF1241CD2450
:104F01006AF97404900808123DFB1240E512E8F1B9
:104F11001241CE247AF9740490080C123DFB124020
:104F2100E512E8F190080C123EB6D39464400BC22E
:104F31001AE49001F6F0C20D800B301A069001F6CA
:104F4100E004F0D21A123F0EFFE4FCFDFEFBFA79F9
:104F510001F812351A1243521236F3C006C00790F7
:104F6100080A123F117B00FAE4F9F8D007D00612C3
:104F710034FF12435212370F90080B123FDDFFE44A
:104F8100FCFDFE1234FF9002E312376C123EB3FEB9
:104F9100A3E0FF900183EEF0A3EFF0E48F338E32B4
:104FA100F531F530AD31AC307B0FFAF9F812351A25
:104FB1008F338E328D318C30124396124004E5339B
:104FC1002FFFE5323EFEE5313DFDE5303C8F338E6E
:104FD100328D31F5301241CE243AF9740435F0FAAC
:104FE1007B01C003C002C001124396124004AC0011
:104FF100AD01AE02AF0390030B7406F0D001D002F5
:10500100D00312E8F1AD2CAF2A12AF4A300B0302E4
:10501100539112430DD31243A2500302513A7E150C
:105021007F7812405C12BDFF7E157F9012414E12B7
:10503100BDFFAF0CAE0BAD0AAC091256A7123E3B39
:1050410012C0AD7E157F9F12414E12BDFF12430D5E
:105051001256A7123E3B12C0AD7E157FAA12414ED9
:1050610012BDFF124087900375740CF012885B1219
:105071003E3B12C0AD124087E47B587A02F9F8D367
:10508100123668507090029CE02402FFE433FE3334
:1050910095E0FDFCE47B3CFAF812351AC004C0052A
:1050A100C006C00790023EE0FF7E007C0E7D10121C
:1050B10038BD1240DCD007D006D005D0041234FF31
:1050C100C004C005C006C00790023DE0FFE4FCFD3E
:1050D100FE7B807A517901F812351A1240DCD00733
:1050E100D006D005D0041234FF1240DC124087D321
:1050F10012366840247F017E007D0F7C00C312437D
:10510100A25016C3E4950CFEE4950B9002EBF0A3BC
:10511100CEF0D20E1242048016850C33850B3285F7
:105121000A318509307E157FBD12414E12BDFF7EC9
:10513100157FD5123D8312BDFFC3E533950CFFE505
:1051410032950BFEE531950AFDE5309509FC90029B
:10515100E712376C9002E71236F3EF250CFFEE35BC
:105161000BFEED350AFDEC35098F0C8E0B8D0AF522
:10517100099002E712370F9002EBE0FEA3E0FFE493
:10518100FCFD1234FF9002E712376C9002EBE070E5
:1051910002A3E06007E49002EBF0A3F0E4FFFEFD60
:1051A100FC9002E712418550030252AE123FFB9080
:1051B100010BE02BF0123FFB7B3C12437390010C7F
:1051C100E02BF0E47B107A0E123FFFE47B181243D0
:1051D1007490010DE02BF07B807A517901780012F7
:1051E100400190010EE02FF090010BE0FFC3943CD1
:1051F100400E1242E190010BE075F03C84E5F0F0C5
:1052010090010CE0FFC3943C400E1242E190010C6E
:10521100E075F03C84E5F0F090010DE0FFC39418D7
:10522100401175F0181242E490010DE075F01884F8
:03523100E5F0F0B5
:1052340090010FE024FC602B24FE602724FD6023F2
:1052440024FE601F24097026900110E054037005A9
:10525400FE7F1D80047E007F1C9002EDEEF0A3EF24
:10526400F080149002EDE4F0A3741EF08009900223
:10527400EDE4F0A3741FF090010EE0FFFD9002ED49
:10528400E0FAA3E0FBC39D7480F8EA648098501AA6
:10529400C3EF9B90010EF0A3E004F0E0D3940C4024
:0852A4008F7401F0A3E004F097
:1052AC00808690010DE090043212398A1243AD9041
:1052BC0004311239ACEFF090010CE0900435123946
:1052CC00DDEEF0900434123AECEFF090010BE0902C
:1052DC0004381239DDEEF0900437123AECEFF0900E
:1052EC00010EE0FF123F052430FE75F080E52A1216
:1052FC003AFF1243AD123953EFF090010FE09004D6
:10530C002712398A1243AD123961123A677430F0A0
:10531C0090011012446A75F080E52A123B1AEEF0E7
:10532C00EF123F051239A9EF1242EE9004391237F1
:10533C00E6742EF0300E4B7E157FD6123D8312BDD7
:10534C00FF90010FE0FF12F6128F1190010EE0FF9B
:10535C0012F6128F10900110E0FF12F6128F1290BD
:10536C00010DE0FF12F6128F0F90010CE0FF12F608
:10537C00128F0E90010BE0FF12F6128F0D12EC48FB
:10538C00C20E1241D5E52A123BCA74201241CDFF40
:10539C00AEF0C006C00712430D9002F11243551235
:1053AC0036F39002F512376CD007D006128A5E30B5
:1053BC002229E4FDAF2A12E52CAF2A129FEE1241EE
:1053CC00CE2400F9740435F0FA7B01A21292377DD9
:1053DC000A12C0AD7D03AF2A12E52C123E42FF64C7
:1053EC00056012EF6406600DEF64076008EF640857
:1053FC006003025493200B03025493123E859004D5
:10540C003112396FEFF0123E8590043212397D1251
:10541C003FD8C49004341239D0123FD890043512BE
:10542C0039D0123EB1C4900437123A22123EB15414
:10543C000F2430FF75F080E52A123B4A123F0CC452
:10544C00540F123953123F0C90042A12397D12401A
:10545C00F1C4540F1239611240F1900427123A2210
:10546C00123A677430F090080C1240F690042E1229
:10547C00396FEFF075F00FE52B90080C1237E6E062
:10548C00540F1239A9EFF0AF2A129FEE123E42FDD3
:10549C00B40405AF2A125F55123E42FF6405601238
:1054AC00EF6406600DEF64076008EF6408600302A8
:1054BC00562A200B0302562AEF64057012123A503A
:1054CC007450123AAE74521239FC7456025534129E
:1054DC003E42FF64067017123A50744E123AAE12E6
:1054EC0042EC123B087457123A0A7420803AEF646B
:1054FC000775F0807016E52A9004421237E6745551
:10550C00123AAE74531239FC7454801CE52A900480
:10551C00421237E67453123AAE74591242EE123BF1
:10552C0008744E123A0A7443F0E52A123BD37420E5
:10553C00F0E52A123BE97454F0E52A123D30744927
:10554C00F0E52A123D39744DF0E52A123D4B12421A
:10555C00EC90046F123D75E52A900470123D75E5D0
:10556C002A900471123D75E52A900473123D75E57D
:10557C002A90047412400EE52A123AD97420F0E5F0
:0F558C002A123B737420F0E52A123B937420F02F
:10559B00E49002EDF09002EDE0FFC394195013E597
:1055AB002A123E58123FF07420F09002EDE004F006
:0255BB0080E38B
:1055BD00E52A123EE17430F0E52A123D6FE52A909E
:1055CD00043C12400EE52A123B5E123D78E52A900E
:1055DD00043E123D75E52A90043F12400EE52A1255
:1055ED003BA5742CF0E52A123D5D123D78E52A901D
:1055FD00046A123D75E52A90046B123D75E52A90FB
:10560D00046C123D75E52A90047A123D75E52A90D9
:10561D00047B123D75E52A90047C12400E852A13F9
:10562D00052A052BE52B65446003024E00752A04FF
:10563D00024E00301C33209330AF130513EFC3948B
:10564D0003400E7D017F007E0212E0C8E4F5138059
:10565D0018E5132401FFE433FEEF7807C333CE338F
:10566D00CED8F9FFE4FD12E0C8E4F52A024DF13081
:10567D001C0C20930912F40412F72012C6FE2021EF
:10568D0007C23512F314800312F3D275E301C22B56
:09569D00E490029DF0900265F01A
:0B56A60022900375740CF012885B2248
:10D83F00D205D295D209D2A4D20AD290D21AC20D51
:10D84F00E49001F6F09001EBF012F6C912F3D21248
:10D85F00F4FBC217C21CC21912EF6DE4900282F0E2
:10D86F00C2A3D283D2B5C21212F707C2A3D283D2F8
:10D87F00B5D2AF30930A7E157FF1123D8312BDFFF3
:10D88F00E4F5081293E77F01123C141241AAEEF05F
:10D89F000FEF640870F275080790062E123791008B
:10D8AF00000000E4786DF608F67E167F06123D83C1
:0AD8BF0012BDFFD2A0C212124426CF
:01D8C900223C
:0D00760075F1F875F3EF43E28075F5FF2298
:10008E00E49002B3F012EAF790022CE0645B600396
:10009E00020E267E167F24120E5AE490022CF0A336
:1000AE00E01238390E0E41034B42015243053444DF
:1000BE00055E4505884605B24705D8480E0E490728
:1000CE00504A082F4B0E0E4C08A34D09024E0152FA
:1000DE004F0A92500BD3510C0B520179530E0E5402
:1000EE000C95550E0E5601F7570278580CF759011C
:1000FE00525A033A610489620E0E63054964057310
:10010E0065059D6605C16705F36806AC6907846AD7
:10011E0008726B08906C08DC6D09406E09E66F0B77
:10012E0091700BEF710C48720C60730C78740CAC00
:10013E00750CBE760CD6770CDC780D42790DF27A02
:10014E0000000E047E167F35120E5A120FA6642082
:10015E00F030E5067E167F3E80047E167F59120E25
:10016E0064120F377E167F75020E0812415570729B
:10017E00A3E090022C1241C390022D1241254003A0
:10018E00020E0EEF94064003020E0EA3E0FFE49F54
:10019E004003020E0EEF94094003020E0E90022C45
:1001AE001242C290022D124239E0D3943C400374A5
:1001BE003CF01243B550037401F09002B3E0FF908F
:1001CE001F58E4936F60147E1F7F58120FC37E1664
:1001DE007F7E120F1812102C020E0E7E167F8F02CB
:1001EE000E087E167FA0020E08124155706E124147
:1001FE00BE9001F812447E506AEF94065065A3E05B
:10020E00FFE49F505EEF940950599001F71242C2DD
:10021E009001F8124239E0D3947F4003747FF012BC
:10022E0043B550037401F09002B3E025E0F0E0FF17
:10023E00901F59E4936F601E7E1F7F59120FC3905B
:10024E0002B3E09001D0F07E167FC6120F7D123EF3
:10025E003B12C0AD800D7E167F8F80047E167FD63A
:10026E00120E647E167FFC020E08124155600302C8
:10027E00032C1241BE9001F8F0900231E024D09090
:10028E0001F912447E4003020333EF94024003024D
:10029E000333A3E0FFE49F4003020333EF940940CE
:1002AE0003020333A3E0FFE49F507AEF94095075E5
:1002BE009001F775F0641242C59001F8E075F00AEE
:1002CE00A412423A9001F9124239E0D394FE40034F
:1002DE0074FAF01243B550037401F09002B3E0FFCC
:1002EE00901F5AE4936F60307E1F7F5A7A0279B363
:1002FE0012410404F012EE309002B3E09001CCF003
:10030E007E177F03120F9C1240A1123F2212885BB0
:10031E00123E3B12C0AD800D7E167F8F80047E177D
:10032E007F17120E6E7E167FFC020E087E177F3B25
:10033E00120E6E12A1647E177F44020E087E177F86
:10034E004D120E787E107F4F120E78901F73E4932D
:10035E0030E6067E177F5680047E177F5F120E8270
:10036E00901F73E49330E7067E177F6980047E1733
:10037E007F71120E82901F73E49330E5067E177F15
:10038E007A80047E177F90120E8C901F73E4933048
:10039E00E4067E177FA780047E177FC4120E8C9012
:1003AE001F73E49330E2067E177FE280047E177F90
:1003BE00F6120E96901F73E49330E1067E187F0BB3
:1003CE0080047E187F1E120E96901F73E49330E009
:1003DE00067E187F3280047E187F42120EA0901F78
:1003EE0074E49330E2067E187F5380047E187F6398
:1003FE00120EA0901F74E49330E3067E187F748073
:10040E00047E187F81120EAA901F74E49330E406C6
:10041E007E187F8F80047E187F98120EAA7E187F1A
:10042E00A2120F1812102C7E187FB0120EB47E1866
:10043E007FB2120F9C901F75120F4D901F76120FE8
:10044E004D901F77123F1B120FFB901F78123F1B10
:10045E00120FFB901F79123F1B12885BA21292376C
:10046E007D0312C0AD901F7A123F1B12885B123EA5
:10047E003B12C0AD7E187FC6020E087E187FCF12CB
:10048E000EB41241556003020526A3E0B42D047F7D
:10049E000180027F00123F46901F5712411B50727F
:1004AE00EFC39409506CA3E0642E7066A3E0FFE4E2
:1004BE009F505FEF9409505A12418CB42D20124375
:1004CE00BD245012425D9DEC1240C840089001CEF2
:1004DE0074B0F08021C3EF9E9001CEF080181244CC
:1004EE008874509FFF1242619F9001CE4005745058
:1004FE00F08003E02EF0901F57E493FF9001CEE0C2
:10050E006F60097E1F7F57120FDF80137E187FD812
:10051E00800A7E187FEC80047E187FF7120EBE7E56
:10052E00197F02020E087E197F0B120EBE7F017E0E
:10053E000012DD477E197F14020E087E197F1D12F0
:10054E000EC87F027E0012DD477E197F26020E083E
:10055E007E197F2F120EC87F037E0012DD477E1993
:10056E007F38020E087E197F41120ED27F047E0064
:10057E0012DD477E197F4A020E087E197F53120E36
:10058E00D27F067E0012DD477E197F5C020E087E4A
:10059E00197F65120EDC7F057E0012DD477E197F06
:1005AE006E020E087E197F77120EDC7F0612103651
:1005BE00020E087E197F89120EE612405812BDFFF8
:1005CE0012CEF17E197F92020E087E197F9B120EBB
:1005DE00E67E197FA412405C12BDFF12C8787E1908
:1005EE007FB8020E087E197FC1120EF012415560BF
:1005FE000302069EA3E0FD642D7033A3E0FEC394B8
:10060E0030400DEED394395007EE24D09001CEF049
:10061E00900231E0FFC394304009EFD39439500378
:10062E001242F59001CEE075F0FFA4F0802AEDC3E2
:10063E009430401190022FE0FFD394395007EF24ED
:10064E00D09001CEF0900230E0FFC394304009EF1D
:10065E00D3943950031242F5124488648094744046
:10066E0029D3EF6480948E502190022CEFF0E4A3F6
:10067E00F0901F5C936F601F7E1F7F5C1241000421
:10068E00F012EE307E197FCA800A7E197FD7800461
:10069E007E1A7F01120EF07E1A7F2B020E087E1A32
:1006AE007F34120EFA124155600302073CA3E0900C
:1006BE0001F9F0900230E09001FAF0900231E090F2
:1006CE0001FBF0900232E09001FCF0900233E090DA
:1006DE0001FDF0900234E09001FEF0900235E090C2
:1006EE0001FFF0900236E0900200F0900237E090A9
:1006FE000201F0900238E0900202F0900239E09090
:10070E000203F090023AE0900204F0901F73E4931B
:10071E0030E3057F0712C4BF12E47B12D9D77E11D6
:10072E007FE0120FD512CEF17E157FD580047E1A92
:10073E007F3D120EFA123E3512C0AD7E1A7F6E024A
:10074E000E087E1A7F77120F04B2137C1F7D7390F2
:10075E0002EAE412101B3013094410F07E1A7F8057
:10076E00800754EFF07E1A7F95120F04120F377E1A
:10077E001A7FAE020E087E1A7FB7120F0E12415567
:10078E0060030208211241A35003020821EFD39403
:10079E003240030208211241A34078EFD394345023
:1007AE00721241A3406DEFD3943650671241A340AD
:1007BE0062EFD39439505C1241A34057EFD3943675
:1007CE0050511241A3404CEFD394395046E490025D
:1007DE00B3F012435C9406501BE0FE242FF582E426
:1007EE003402F583E024D0FD742C2E124172ED12EA
:1007FE00431680DE742C2F124172E4F07E1F7F753B
:10080E007B017A02792C9003B4F0A37406F012EEF9
:10081E003080077E1A7FC0120F0E7E1A7FE2020E04
:10082E00087E1A7FEB123D8312BDFFB225120FA672
:10083E003025154480F07E1A7FF4123D8312BDFFE1
:10084E0075E30112B1998012547FF07E1B7F001266
:10085E003D8312BDFFC296E4F5E3120F677E1B7F48
:10086E000D020E087E1B7F16123D8312BDFF63E341
:10087E0001E5E330E0057F0112ED0D7E1B7F1F02C7
:10088E000E087E1B7F28123D8312BDFFB2967E1B83
:10089E007F31020E087E1B7F3A123D8312BDFF3060
:1008AE0096067E1B7F4380047E1B7F52123D831271
:1008BE00BDFFE5E330E0067E1B7F6080047E1B7F7C
:1008CE0076123D8312BDFF7E1B7F8D020E087E1BAE
:1008DE007F96123D8312BDFFB2083008067E1B7F45
:1008EE009F80047E1B7FAE123D8312BDFF7E1B7F59
:1008FE00C1020E087E1B7FCA123D8312BDFFB222BB
:10090E00E490022DF07C1F7D739002EA12101B30D2
:10091E0022094440F07E1B7FD3800754BFF07E1B1C
:10092E007FED123D8312BDFF120F677E1C7F0C02FE
:10093E000E087E1C7F15123D83120FF16003020913
:10094E00D5A3124032E49002B3F012435C940550EA
:10095E001812416EE0FDEE901F63936D60069002DB
:10096E00B3740CF012431780E1EF640D70537E1CCC
:10097E007F1E123D8312BDFF7E1F7F6312410074E6
:10098E0005F012EE307E1C7F35120E27901F63E4A9
:10099E0093FF12443BFE124445FD12444FFC124499
:1009AE0059FB90026DF09002A1EFF09002A3EEF0D1
:1009BE009002A5EDF09002A7ECF09002A9EBF0806A
:1009CE00107E167F8F80047E1C7F53123D8312BDD6
:1009DE00FF7E1C7F71020E087E1C7F7A123D8312F1
:1009EE000FF16003020A81900232E0642C60030270
:1009FE000A81900235E0642C707990022F124032F9
:100A0E00900234E0900231F0900235E0900232F024
:100A1E00900236E0900233F0900237E0900234F00C
:100A2E00E49002B3F012435C9409501812416EE048
:100A3E00FDEE901F69936D60069002B3740CF01278
:100A4E00431780E1EF640D70247E1C7F83123D837B
:100A5E0012BDFF7E1F7F691241007409F012EE3045
:100A6E007E1C7F95120FD57E1F7F69800A7E167FB2
:100A7E008F80047E187FF7123D8312BDFF7E1C7F90
:100A8E00AE020E087E1C7FB7123D8312BDFF7E1C88
:100A9E007FC0123D8312BDFF7E1C7FE7123FB11255
:100AAE00BDFF12CEF17E1E7FEC120E277E1F7F2F12
:100ABE00123D8312BDFF7E1E7FCD123FB112BDFFD0
:100ACE007E1F7F5D123D8312BDFF7E1E7FD4123FBF
:100ADE00B112BDFF7E1F7F69123D8312BDFF7E1EC8
:100AEE007FE0123FB11210087E1C7FFB123FB11245
:100AFE00BDFF901F56E493FFC364809480500BEFAC
:100B0E001240A7900375740E800B901F561240A4CE
:100B1E00900375740FF012885B123E3B12C0AD7ECF
:100B2E001D7F0D123FB112BDFF901F57E493FFC3FF
:100B3E0064809480500BEF1240A7900375740E8062
:100B4E000B901F571240A4900375740FF012885B20
:100B5E00123E3B12C0AD7E1D7F22120F7D123E3B18
:100B6E0012C0AD7E1D7F3D123FB112BDFF1240A1DE
:100B7E00123F2212885B123E3B12C0AD7E1D7F5685
:100B8E00020E087E1D7F5F123D8312BDFF20932B48
:100B9E009001F9E06420701CA3E064537016A3E08A
:100BAE00B452117E1D7F68123D8312BDFF1242CCDE
:100BBE00D2348002C23412D7248003120E3E7E1D20
:100BCE007F83020E087E1D7F8C123D8312BDFF2097
:100BDE00930512F7268003120E3E7E1D7F95020EA0
:100BEE00087E1D7F9E123D8312BDFF20930512F7D6
:100BFE00298003120E4C7E1D7F95020E087E1D7FEE
:100C0E00A7123D8312BDFF20931F9001F9E0B4207F
:100C1E0012A3E0B4530DA3E0B452081242CC12E179
:100C2E00F180107E187FF780047E1D7F70123D8349
:100C3E0012BDFF7E1D7FB0020E087E1D7FB9123DD4
:100C4E008312BDFF7F027E0012E4227E1D7FC20250
:100C5E000E087E1D7FCB123D8312BDFF7F037E00EB
:100C6E0012E4227E1D7FD4020E087E1D7FDD123D12
:100C7E008312BDFF7F047E0012E422E49001CDF0CA
:100C8E007E1D7FE6020E087E1D7FEF123D8312BD94
:100C9E00FFE4FFFE12E4227E197F80020E087E1D05
:100CAE007FF8123D8312BDFF7F01121036020E082F
:100CBE007E1E7F01123D8312BDFF7F057E0012E472
:100CCE00227E1E7F0A020E0843EF10020E0E7E1EBB
:100CDE007F13123D8312BDFF7E1E7F1C123D8312B9
:100CEE0010087E1E7F2B020E087E1E7F34123D835F
:100CFE0012BDFF7E1E7F3D123D8312BDFF20932A43
:100D0E007E1E7F4D123FB112BDFF7B017A027967C5
:100D1E0012443412C0AD7E027F677A0279677B017E
:100D2E001242D2D23412D7248003120E4C7E1E7F72
:100D3E0058020E087E1E7F61123D8312BDFF1241C6
:100D4E00556003020DE2A3E0B42D047F0180027F03
:100D5E0000123F46901F5612411B5072EFC394096A
:100D6E00506CA3E0642E7066A3E0FFE49F505FEF2B
:100D7E009409505A12418CB42D201243BD243212C4
:100D8E00425D9DEC1240C840089001CE74CEF080BA
:100D9E0021C3EF9E9001CEF0801812448874329FCA
:100DAE00FF1242619F9001CE40057432F08003E045
:100DBE002EF0901F56E493FF9001CEE06F60097EF7
:100DCE001F7F56120FDF80167E187FD8800A7E187E
:100DDE007FEC80047E187FF7123D8312BDFF7E1ECE
:100DEE007F6A80167E1E7F73123D8312BDFFD22353
:100DFE007E1E7F7C80047E1E7F85123D8312BDFF8A
:100E0E00E49002B3F012435C940F500C742C2F122A
:080E1E004172E412431680ED5D
:100E260022A21292387D0312BDFF7E1F7F63A2129B
:100E360092387D0912BDFF227E1D7F70A212923864
:100E46007D0912BDFF227E1D7F70A21292387D0998
:100E560012BDFF22A21292387D0912BDFF22A212F4
:100E660092387D0912BDFF22A21292387D0912BD69
:100E7600FF22A21292387D0912BDFF22A2129238D9
:100E86007D0912BDFF22A21292387D0912BDFF22F2
:100E9600A21292387D0912BDFF22A21292387D0954
:100EA60012BDFF22A21292387D0912BDFF22A212A4
:100EB60092387D0912BDFF22A21292387D0912BD19
:100EC600FF22A21292387D0912BDFF22A212923889
:100ED6007D0912BDFF22A21292387D0912BDFF22A2
:100EE600A21292387D0912BDFF22A21292387D0904
:100EF60012BDFF22A21292387D0912BDFF22A21254
:100F060092387D0912BDFF22A21292387D0912BDC8
:100F1600FF22A21292387D0312BDFF901F58E49360
:100F2600FF3395E0FEFDFC9003757402F012885BBA
:100F3600227E1F7F737B017A02792C9003B4E4F042
:100F4600A304F012EE3022E493FFE4FCFDFE9003CE
:100F5600757402F012885BA21292377D0312C0AD3F
:100F6600227E1F7F737B017A02792C9003B4E4F012
:100F7600A304F012EE3022A21292387D0312BDFFB6
:100F8600901F59E493FF3395E0FEFDFC90037574C2
:100F960002F012885B22A21292387D0312BDFF2254
:100FA600E490022DF07C1F7D739002EAF0A304F01A
:100FB600FB7A02792C12E85990022CE0227B017A06
:100FC6000279B39003B4E4F0A304F012EE3022A247
:100FD6001292387D0312BDFF227B017A0179CE90F1
:100FE60003B4E4F0A304F012EE302212BDFF900227
:100FF6002EE064202212885BA21292377D0312C073
:10100600AD2212BDFF7B017A027967A21292377D6B
:101016000912C0AD22F0A304F0FB7A02792C12E883
:101026005990022CE022A21292377D0312C0AD2203
:0A1036007E0012E4227E197F802262
:0300530002F29E18
:10F29E00C0E0C0D0E5BBB41E0875BB0475BCFC80D5
:0EF2AE000675BB1E75BCF8C2EDD0D0D0E032A4
:03008B0002DEA5ED
:10DEA500C0E0C0F0C083C082C0D075D000C000C043
:0DDEB50001C002C003C004C005C006C007C4
:10DEC20012F641EF30E2337B013023257A0179F7F4
:10DED2007D3112ABC19001F7E090022CF09001F875
:10DEE200E090022DF09001F9E090022EF0C2238022
:0ADEF200097A02792C7D0F12ABC1F2
:10DEFC00D007D006D005D004D003D002D001D0007A
:0BDF0C00D0D0D082D083D0F0D0E03223
:0FF63200EFC4540F75F00AA4FEEF540F2EFF2201
:10F61200EF75F00A84C454F0FEEF123F054EFF224C
:10DAD80075F43E20B278901F74E49330E01A7E1EED
:10DAE8007F99123FB112BDFF90029BE0123F1D12B9
:10DAF800885B123E3B12C0AD90029BE0FF14F0EF32
:10DB0800C394025049901F74E49330E00A7E1E7F4C
:10DB1800B4123FB112BDFF9001F4123F9FD2B190F1
