:0300000002D7C460
:0CD7C400787FE4F6D8FD75817002D80B68
:10D7D0000256B1E493A3F8E493A34003F68001F268
:10D7E00008DFF48029E493A3F85407240CC8C3335A
:10D7F000C4540F4420C8834004F456800146F6DF29
:10D80000E4800B010204081020408090E2C1E47E15
:10D81000019360BCA3FF543F30E509541FFEE4931D
:10D82000A360010ECF54C025E060A840B8E493A3E4
:10D83000FAE493A3F8E493A3C8C582C8CAC583CA0F
:10D84000F0A3C8C582C8CAC583CADFE9DEE780BEC7
:01E2C100005C
:0EF67000F0EF25E02425F582E43406F5832230
:03002B0002EB9352
:10EB9300C0E0C0F0C083C082C0D075D018900623F7
:10EBA300E475F00112342175CBF075CA60C2CFC38E
:10EBB300900624E0947D900623E094004009E4F05D
:10EBC300A3F0D22012F42DD0D0D082D083D0F0D0B5
:02EBD300E0322E
:10F42D00D3900626E09400900625E0948040077462
:07F43D00FFF5F0123421225B
:0300730002F4A0F4
:10F4A00053E67F53917F53C77F43C78053C77F4342
:06F4B000C78053C77F3244
:10EF7E00E4900623F0A3F0FF12F671E4F0A312F66C
:10EF8E0070E0547FF00FEFB401EEE4F5C8538E0F2E
:0FEF9E0075CBF0F5CA74FFF5CDF5CCD2ADD2CA64
:01EFAD002241
:10F5A900538EF8438E04758902758CEA758AEAD2FE
:02F5B9008C22A2
:10F57000E4F59175959E75945875939E75925853C0
:03F580008EBF2219
:10F50C00E4F591F595F59475937F7592FF538E3FC5
:04F51C0043910422F1
:10F5BB0012F671E0FEA3E07003EE64807002D322BA
:02F5CB00C32259
:10F58300ED4C600E12F671ECF0A3ED12F670E04450
:03F5930080F022E3
:10D05B00436C6F636B206D756C7469706C69657272
:10D06B0020616C7265616479206C6F636B65642CF5
:10D07B0020736B697070696E67207265696E697475
:10D08B00004F534349434E207C3D20307830333B97
:10D09B002000434C4B4D554C20203D2030783030F8
:10D0AB003B2000434C4B4D554C207C3D2030783879
:10D0BB00303B200044656C617920666F7220636C95
:10D0CB006F636B206D756C7469706C69657220741D
:10D0DB006F20626567696E200057616974696E67BE
:10D0EB0020666F72206D756C7469706C6965722047
:09D0FB00746F206C6F636B200060
:1000030075B28353A9F8E4F586758DCC438E082227
:10F520007586BCE58630E6FBE5A954F84404F5A9E8
:04F5300053B27F2231
:10CABA00E5B930E518901F74E49320E00302CB5FD8
:10CACA007ED07F5BA21292387D0902BE10901F743D
:10CADA00E49330E0077ED07F8C12CB6043B20390A0
:10CAEA001F74E49330E0077ED07F9D12CB60E4F59B
:10CAFA00B9901F749330E0077ED07FAE12CB6A43A1
:10CB0A00B980901F74E49330E0077ED07FBF12CBC8
:10CB1A006AE4FFFE0FBF00010EBE01F8BFF4F54341
:10CB2A00B9C0E4FEFF0FBF00010EBE01F8BFF4F565
:10CB3A00E5B920E517901F74E49330E0F37ED07FC7
:10CB4A00E4A21292387D0912BE1080E475A9037519
:05CB5A008D30438E0840
:10CB5F0022A21292387D0912BE1022A21292387DA3
:05CB6F000912BE1022B6
:0D002E000070007000DFF9EE6002DEF422C9
:1010400043757272656E742054696D653A20005361
:10105000657474696E67733A00475053206F6E0071
:10106000475053206F66660044544147206F6E001E
:1010700044544147206F6666005072696E74696E11
:1010800067204750532073656E74656E6365730007
:101090004E6F74205072696E74696E6720475053AA
:1010A0002073656E74656E6365730053746172744A
:1010B0007570205461736B7320446F6E65004473C8
:1010C000702056657273696F6E3A20004E6F20640F
:1010D00061746120666F7220746865206C6173743E
:1010E0003A0009004461797309486F757273094DBC
:1010F000696E75746573004D616B696E67207375F9
:10110000726520496E746572727570747320656EB5
:1011100061626C656420616E6420736D62427573F8
:101120004F70656E004750532055415254206469FA
:101130007361626C65642000475053206973206EB0
:101140006F7420706F77657265640044656C6179B7
:101150006564204750532066697820736176652066
:1011600064756520746F20534D42757320726563FA
:10117000657074696F6E004C617267652046696CBA
:10118000652053697A65004E65772046696C652055
:10119000506172746974696F6E200046696C6520D5
:1011A00073697A653A00537461727420726F757452
:1011B000696E6520746F204750532073796E630009
:1011C00061626F7274204750532073796E6320738D
:1011D000696E636520475053206973206F6666000F
:1011E0004E65772054696D653A200054696D6553EA
:1011F00074616D706564204453502F4750532053E1
:10120000796E6300202020204C6173742047505376
:1012100020617474656D70742077617320737563D9
:101220006365737366756C2E2000202020204C614E
:1012300073742047505320617474656D7074206618
:1012400061696C65642120002020202047505320D4
:1012500069732064697361626C65642E2000426169
:10126000747465727920766F6C7461676520697338
:101270003A2000486F75726C792044657465637418
:10128000696F6E20436F756E742073696E6365209D
:10129000506F776572204F4E3A2000546F74616C26
:1012A00020446574656374696F6E20436F756E7456
:1012B0002073696E636520506F776572204F4E3AD8
:1012C0002000202020506F6F72205369676E616C80
:1012D00000204E454544532053455256494345212D
:1012E000212100210020000D0A0D0A2D2D2D202A7C
:1012F0002A2A2054524944454E54205348454C4CC8
:101300002053544152544544202A2A2A0D0A2D2D97
:101310002D000D0A2D2D2D20487964726F70686F95
:101320006E6520636F6D6D756E69636174696F6E54
:1013300020737461727465642E00566F6C746167FB
:10134000652076616C75653A20004D6E54616B6561
:101350004D6561737572656D656E7473205265615C
:10136000642054656D7065726174757265200054F7
:10137000656D70657261747572652076616C7565F6
:101380003A20004D6E54616B654D656173757265F1
:101390006D656E74732047657474696E6720746937
:1013A0006C740057616974696E6720706572696F4B
:1013B000642076616C75653A200054696C742076FF
:1013C000616C75653A2000616463476574507265AD
:1013D0007373757265526573756C740050726573C2
:1013E000737572652076616C75653A20004E6F20CA
:1013F00056616C6964204473702056657273696F1E
:101400006E20696E20746865205254432D20546FFD
:1014100067676C65206120736F6674776172652001
:101420007265736574206F6620746865204453503C
:1014300020746F2072657472696576652069740026
:1014400057616974696E6720666F7220445350203B
:10145000746F2073656E642076657273696F6E2E8B
:101460002E2E005355434345535321212100496EED
:1014700076616C69642073657269616C206E756D4C
:10148000626572005374617274206F66204D656DE1
:101490006F7279204361726420496E73657274695A
:1014A0006F6E004C6F6767696E6720746F205344DE
:1014B000206D656D6F72792063617264206861735D
:1014C000206265656E20696E697469617465642E59
:1014D0000057616974202E2E2E20004C6F67205219
:1014E0006573756D65642061743A20005461674CC2
:1014F0006F674F70656E00536D624F70656E00557B
:101500006E6C6F6164696E67206F757220646174C0
:1015100061005461674C6F674F70656E656400537E
:1015200044206D656D6F727920636172642068611B
:1015300073206265656E2072656D6F7665642E003E
:10154000456E64206F66204D656D6F727920636112
:10155000726420696E73657274696F6E20005469DD
:101560006C742043686970204944206E6F74207247
:101570006563656976656400664E657753796E6369
:1015800020526F6C6C6F766572204C6F67696300D8
:10159000756C43756D546F745F4453503A200075F9
:1015A0006C43756D546F743A2000526F6C6C6F769B
:1015B0006572204164642056616C3A2000756C436A
:1015C000756D546F74203D20756C43756D546F7448
:1015D0005F4453500000664E657753796E63205226
:1015E00054432074696D652061646A757374656421
:1015F000004D697373696E67206D656D6F72792038
:10160000636172642E005374617274207570202DB2
:1016100020446574656374696F6E73207A65726FB8
:1016200065642E0055534220434D44205265636546
:1016300069766564003C735F5A5F61636B00354D8A
:1016400047505353796E63206973206E6F7720740F
:1016500075726E6564206F6E00354D475053537937
:101660006E63206973206E6F77207475726E656487
:10167000206F666600655F5A5F61636B3E0053656D
:101680006E736F7220726174652069733A20004E28
:101690006F20757064617465204E656564656400D3
:1016A00043616E2774207365742053656E736F7287
:1016B0005261746520696E636F727265637420662F
:1016C0006F726D617400536C656570205261746552
:1016D0002069733A200043616E277420736574207B
:1016E000736C656570207261746520696E636F72DA
:1016F0007265637420666F726D617400655F61630B
:101700006B3E004E756D626572206F662061736B73
:10171000732069733A200043616E277420736574E7
:101720002061736B207261746520696E636F7272E1
:1017300065637420666F726D6174003C735F615FF6
:1017400061636B00655F615F61636B3E003C735F6B
:10175000425F61636B00445441473A206F6E00441E
:101760005441473A206F6666004750533A206F6EE7
:10177000004750533A206F66660035204D696E75FC
:1017800074652053796E6320656E61626C656400D8
:1017900035204D696E7574652053796E63206469D8
:1017A0007361626C6564004750532073656E7465A5
:1017B0006E6365207072696E74696E672069733A32
:1017C000206F6E004750532073656E74656E6365BD
:1017D000207072696E74696E672069733A206F6653
:1017E0006600486F75726C792046696C6573206974
:1017F000733A206F6E00486F75726C792046696C81
:1018000065732069733A206F6666004461696C797C
:101810002046696C65732069733A206F6E004461DD
:10182000696C792046696C65732069733A206F662C
:10183000660046696C65732064756D70733A206F3D
:101840006E0046696C65732064756D70733A206F25
:1018500066660054656D70657261747572653A20D4
:101860006F6E0054656D70657261747572653A20B3
:101870006F66660050726573737572653A206F6E9D
:101880000050726573737572653A206F6666005416
:10189000696C743A206F6E0054696C743A206F66FC
:1018A000660053656E736F7220726174653A200032
:1018B0007300475053207361766520696E746572BA
:1018C00076616C3A2000655F425F61636B3E003C6D
:1018D000735F625F61636B004E6F206368616E6768
:1018E0006520696E206F66667365740042616420CE
:1018F00056616C7565730042616420466F726D615C
:101900007400655F625F61636B3E003C735F445FC0
:1019100061636B00655F445F61636B3E003C735FB6
:10192000645F61636B00655F645F61636B3E003C95
:10193000735F455F61636B00655F455F61636B3E2D
:10194000003C735F655F61636B00655F655F61634A
:101950006B3E003C735F465F61636B00655F465F93
:1019600061636B3E003C735F665F61636B00655F44
:10197000665F61636B3E003C735F475F61636B0052
:10198000655F475F61636B3E003C735F675F6163E8
:101990006B00655F675F61636B3E003C735F485F30
:1019A00061636B0043757272656E742054696D6576
:1019B0005374616D703A2000655F485F61636B3EF0
:1019C000003C735F685F61636B0054696D657A6F9B
:1019D0006E65205365740054696D657A6F6E65207D
:1019E0006E6F742073657420626563617573652022
:1019F000696E76616C69642074696D657A6F6E6575
:101A00000054696D657A6F6E65206E6F7420736522
:101A100074206265636175736520696E636F7272AD
:101A200065637420666F726D617400655F685F61E5
:101A3000636B3E003C735F695F61636B0054696D6B
:101A4000652077617320756E61626C6520746F200C
:101A500062652073657420636175736520696E63C8
:101A60006F727265637420666F726D617400655F7A
:101A7000695F61636B3E003C735F4A5F61636B004B
:101A80005072696E74696E67204750532073747288
:101A9000696E6773004E4F54207072696E74696E80
:101AA000672047505320737472696E677300655FD7
:101AB0004A5F61636B3E003C735F6A5F61636B000A
:101AC000496E636F727265637420466F726D6174E4
:101AD000206F7220696E76616C69642076616C7526
:101AE0006500655F6A5F61636B3E003C735F4B5FDF
:101AF00061636B0047505320656E61626C656400E2
:101B00004750532064697361626C656400655F4B84
:101B10005F61636B3E003C735F6B5F61636B00658D
:101B20005F6B5F61636B3E003C735F6C5F61636B17
:101B300000655F6C5F61636B3E003C735F4D5F618E
:101B4000636B00475053206D6F64656D20276F6E87
:101B50002700475053206D6F64656D206F666600E7
:101B6000475053206F757470757420726563656992
:101B70007665204F6E00475053206F7574707574F2
:101B80002072656365697665204F666600655F4D06
:101B90005F61636B3E003C735F6D5F61636B004729
:101BA0005053205072696E74205541525400475072
:101BB00053205072696E742055415254204F46464E
:101BC00000655F6D5F61636B3E003C735F4E5F61FC
:101BD000636B004F757470757474696E672064650B
:101BE00074656374696F6E20646174610053746F0F
:101BF00070206F757470757474696E672064657495
:101C0000656374696F6E206461746100655F4E5F27
:101C100061636B3E003C735F6E5F61636B00557088
:101C2000646174696E672053657269616C204E75DA
:101C30006D6265720046696E69736865640D0A4E6F
:101C400065772053657269616C204E756D626572AF
:101C50003A200043616E27742073657420534E2030
:101C6000696E636F727265637420666F726D617402
:101C700000655F6E5F61636B3E003C735F6F5F6129
:101C8000636B005570646174696E67205369746595
:101C90004E616D650046696E69736865640D0A4E34
:101CA000657720536974654E616D653A2000655F04
:101CB0006F5F61636B3E003C735F505F61636B00FD
:101CC0004154532D48323020436F6E6669677572F8
:101CD0006174696F6E2052657175657374207265E9
:101CE000636569766564005265636569766572202F
:101CF0005254432074696D653A20005072657373C5
:101D0000757265204F66667365743A200054656D80
:101D10007065726174757265204F66667365743A9A
:101D2000200054696C742063616C69622E20736CAE
:101D3000656570206F66667365743A200054696C3F
:101D4000742063616C69622E2061736B206F66661C
:101D50007365743A2000655F505F61636B3E003CC1
:101D6000735F705F61636B0054797065283129007F
:101D70004E6F2053442063617264207072657365F6
:101D80006E7400655F705F61636B3E003C735F5112
:101D90005F61636B00655F515F61636B3E003C7325
:101DA0005F715F61636B003C735F525F61636B00E7
:101DB000655F525F61636B3E003C735F725F61639E
:101DC0006B00655F725F61636B3E003C735F735FC6
:101DD00061636B00655F735F61636B3E003C735FC3
:101DE000745F61636B00655F745F61636B3E003CB1
:101DF000735F555F61636B003C735F755F61636B1D
:101E0000003C735F765F61636B00655F765F616363
:101E10006B3E003C735F785F61636B006765744382
:101E2000757272656E7446696C6500655F785F6196
:101E3000636B3E003C735F595F61636B0073656E5B
:101E40006443757272656E7446696C650046696CB0
:101E5000654E616D653A2000655F595F61636B3E59
:101E6000003C735F795F61636B00655F795F6163FD
:101E70006B3E003C735F7A5F61636B00655F7A5F06
:101E800061636B3E00557362204461746120556E3E
:101E90007265736F6C766564007563526573657403
:101EA00042617474657279466C6970466C6F7050EB
:101EB000335F320075635265736574426174746593
:101EC0007279466C6970466C6F703A2000445350CA
:101ED00020763A0053697465204E616D653A2000A2
:101EE00046696C65204E616D653A200053657269E4
:101EF000616C204E756D6265723A200046696C65B2
:101F000020466F726D61742056657273696F6E3A08
:101F100020332E3120200046696C65205374617295
:101F2000743A200046696C6520456E643A20004191
:101F3000545320547269746F6E20526563656976DC
:101F40006572204656657273696F6E3A2031312E84
:101F50003231000D0A0000000FFF03020030302E66
:101F60003030003039303030004832302C49532C7A
:101F70004D4E0008000000000000000000000000BE
:101F80000010C4EA61360341006400760061006E0F
:101F9000006300650064002000540065006C00656B
:101FA000006D006500740072007900200053007914
:101FB000007300740065006D0073001E0353006F12
:101FC000006E006900630020005200650063006538
:0E1FD0000069007600650072000F800100704D
:10E2C2004C029F0C0330003900300030003000C196
:10E2D20086C10CC121C116C1874101CE0042023B59
:10E2E200000042018100004101CD004101EA0141EB
:10E2F200029E0041028200410281094101F6004171
:10E30200029B0441029C0041023E0041023D004149
:07E312000002004102AB0014
:103953009004292430FFE52A75F0800237E69004AD
:10396300262430FFE52A75F0800237E6C4540F247D
:1039730030FFE52A75F0800237E6540F2430FFE567
:103983002A75F0800237E6FF75F00A84E5F02430EB
:10399300FEE52A75F0800237E6C4540F2430FEEFAB
:1039A30075F0800237E690042F2430FFE52A75F086
:1039B300800237E6540F2430FEEF75F0800237E6BD
:1039C300C4540F2430FEEF75F0800237E6540F2401
:1039D30030FFE52A75F0800237E6FF75F00A84E5CB
:1039E300F02430FEE52A75F0800237E6C4540F2434
:1039F30030FEEF75F0800237E6F075F080E52A902F
:103A030004441237E67445F0E52A90044575F080C6
:103A13000237E6540F2430FEEF75F0800237E65488
:103A23000F2430FFE52A75F0800237E675F080EE4B
:103A33001237E67420F075F080EE90047D1237E6BD
:103A4300742CF0EE90047E75F0800237E6E52A9040
:103A5300044275F0800237E6540F2430FEEF75F010
:103A6300800237E6EFF075F080E52A90042C1237D8
:103A7300E67432F0E52A90042D75F0800237E6EF04
:103A830075F08090045B0237E6900467EF75F08071
:103A93000237E6F075F080EE9004781237E6742C66
:103AA300F0900479EE75F0800237E6F0E52A75F0C0
:103AB300809004430237E6EF75F080900465023787
:103AC300E6EF75F0809004640237E675F080EE123D
:103AD30037E67420F0EE75F0809004750237E6EF58
:103AE30075F0809004630237E6EF75F00A842430A2
:103AF300FF75F080E52A0237E675F08090042A020C
:103B030037E675F0809004440237E675F080900440
:103B1300270237E675F08090042E0237E675F080B1
:103B230090042F0237E690045F75F080EF0237E6CA
:103B3300F090047F75F080EF0237E675F080900413
:103B4300350237E675F0809004380237E690045E5C
:103B530075F080EF0237E67420F0EE75F080900484
:103B63003D0237E6EF75F0809004500237E6F0EE41
:103B730075F0809004760237E6F0EF75F0809004DC
:103B83004E0237E690045C75F080EF0237E6F0EE04
:103B930075F0809004770237E675F0809004660232
:103BA30037E675F0809004400237E675F0809004A4
:103BB300260237E6EF75F08090044F0237E675F082
:103BC3008090045D0237E675F0809004250237E6A5
:103BD30075F0809004460237E67420F090046D750A
:103BE300F080EE0237E675F0809004470237E6EB8B
:103BF300F09002F5E0FC900303E0900004FE75F002
:103C0300421237E6E5822CF582E43583F583E0FF43
:103C130022900111E0FEEF75F00EA42411F582E469
:103C23003401F583EEF0900112E0FEEF75F00EA47F
:103C33002412F582E43401F583EEF0900113E0FEE3
:103C4300EF75F00EA42413F582E43401F583EEF04E
:103C5300900114E0FEEF75F00EA42414F582E43411
:103C630001F583EEF0900115E0FEEF75F00EA4244C
:103C730015F582E43401F583EEF0900116E0FEEFD2
:103C830075F00EA42416F582E43401F583EEF0906A
:103C93000117E0FEEF75F00EA42417F582E434015A
:103CA300F583EEF0900118E0FEEF75F00EA42418F2
:103CB300F582E43401F583EEF0900119E0FEEF752F
:103CC300F00EA42419F582E43401F583EEF090019B
:103CD3001AE0FEEF75F00EA4241AF582E43401F520
:103CE30083EEF090011BE0FEEF75F00EA4241BF5AC
:103CF30082E43401F583EEF090011CE0FEEF75F0F1
:103D03000EA4241CF582E43401F583EEF090011D2A
:103D1300E0FEEF75F00EA4241DF582E43401F58373
:103D2300EEF090011EE0FEEF75F00EA42275F08018
:103D33009004480237E675F0809004490237E6752F
:103D4300F0809004310237E675F08090044A023720
:103D5300E675F0809004340237E675F080900441F4
:103D63000237E675F0809004320237E675F08090F2
:103D7300043B1237E67420F075F080227E127FE553
:103D8300A21292387D092290018EE024D0FFE43400
:103D9300FFFE7C007D0A123384A3E024D0FDEC34C3
:103DA300FFCD2FFFED3EFE7D3C123384AA06AB0709
:103DB30090018CE024D0FFE434FFFE7D0A123384AB
:103DC300A3E024D0FDEC34FFCD2FFFED3EFE7C0EAF
:103DD3007D10123384EF2BFBEE3AFA900190E0242E
:103DE300D0FFE434FFFE7C007D0A123384A3E02479
:103DF300D0FDEC34FFCD2F2235F0FA7B0175F00FA7
:103E0300E52B1237E6E022E50875F00EA42411F540
:103E130082E43401F583E09001F7F0E50875F00ED4
:103E2300A42412F582E43401F583E09001F8F0E470
:103E3300A3F07A0179F77B01A21292377D092290D0
:103E4300080875F00FE52B1237E6E02275F0809035
:103E530004370237E675F0809004010237E675F007
:103E6300809004020237E675F0809004040237E67E
:103E730075F08090040C0237E675F08090040E0212
:103E830037E690080275F00FE52B1237E6E022754E
:103E9300F0809004120237E675F080EF0237E6FEF9
:103EA30075F080EF0237E675F080EE0237E6EFF04B
:103EB30090080675F00FE52B1237E6E022F583E054
:103EC3009001F8F0A3742EF0E50875F00EA422FE1D
:103ED30075F080EF0237E675F080EF0237E675F094
:103EE3008090043A0237E6EFF09002F5E0FC90038D
:103EF30003E0FE75F04222900191E024D0FF900090
:103F030002E075F00A84E5F022EFF090080975F0FD
:103F13000FE52B1237E6E022E493FFE4FCFDFE906D
:103F230003757402F02275F080EF0237E675F080B6
:103F3300EE0237E6FDC4540F2430F0ED540F243065
:103F4300A3F0229002B3EFF0E0FD242FF582E434D6
:103F530002F583E024D090022CF074302DF582E436
:103F63003402F583E090022DF09002B3E02431F5A2
:103F730082E43402F583E024D090022EF02275F01F
:103F830080EF0237E675F080ED1237E6EFF075F05B
:103F930042EE223EF583E538F09002F9E475F00134
:103FA3000234219002F71236F3EC4D4E4F22A21247
:103FB30092387D0322780B7C017D017B007A0079A6
:103FC3000D7E007F0612328F78EE7C017D017E002C
:103FD3007F0602328FEFF090080075F00FE52B1289
:103FE30037E6E02275F0429000031237E6E5822FB0
:103FF300F582E43583F58322E47B3CFAF9F89002F9
:10400300E71236F30235A575F080EE1237E6742019
:10401300F022EEF0ED75F00EA4229002F9E0FEA37B
:10402300E0FF9002F0E02FFF9002EFE03EFE22E07F
:1040330090022CF0900230E090022DF0900231E0DB
:1040430090022EF0900232E090022FF0900233E0C3
:10405300900230F0227E107F40A2129238E4FD22BB
:10406300A801123679EF540FFFEF2430F538D394BB
:1040730039229002EFE0FEA3E0FF2412F5827404DC
:104083003EF58322C3E4950CFFE4950BFE740F9574
:104093000AFDE49509FC2275F080EF0237E6901FD4
:1040A3005AE493FF3395E0FEFDFC22900190E02457
:1040B300D075F00AA4229002B0E02414FFE433FE8A
:1040C300C3E5449FEE6480F874809822900190E0E9
:1040D300FF7430D39F221236F3A804A905AA06ABB6
:1040E3000722FFE4FCFDFE90030B7403F022EFF0C4
:1040F30090080A75F00FE52B1237E6E0227A027971
:104103002C7B019003B4E4F0A32275F00EA42412D7
:10411300F582E43401F58322E4939001CEF0E49038
:1041230002B3F090022CE0FFE4D39F229000447589
:10413300F0420237E62413F582E43401F583E022EA
:104143002415F582E43401F583E022A21292387D2E
:10415300012290022EE064202275F080EE0237E601
:10416300ED75F0421237E6E0FFEE22E0FE242CF577
:1041730082E43402F583227F837EEC7D027C4090CF
:1041830001E412370FD302366890022CE075F00A6F
:10419300A4FF90022EE02F9002B3F090022FE022B2
:1041A300A3E0FFC3943022241EF582E43401F58397
:1041B300229002F9E0FEA3E0FFC322A3E09001F7FF
:1041C30024D0F0900230E024D022F0E52A75F0806C
:1041D300A422E490023DF0A3F090029CF02275F03B
:1041E300101232B5AFF0EF243090020CF0A3747AC2
:1041F3002274072538F53822EFF09002F5E022D239
:10420300B4E4F50CF50BF50AF509222414F582E460
:104213003401F583E0222416F582E43401F583E0CA
:10422300223EF5837420F0E49002F9F0A3F02275A6
:10423300F080EF0237E6E0FF9002B3E02FF022E4D4
:104243009375F00AA4FFA3E4932FFFEC35F0FE224D
:104253009001F8540F2430F0A322FDE43CFC9002BB
:10426300B3E0FED322900191E024D0FF900002E05E
:1042730022D39002AEE094059002ADE06480948076
:1042830022901F58E493FD3395E0FC1233EBED4C81
:1042930022742DF0EF3395E0FE7CFF7DFF02338423
:1042A3009002EFE0FEA3E0222411F582E43401F54D
:1042B3008322122F0D9002B812376C9002BC227524
:1042C300F00AE0A49002B3F0227B017A0179FA901C
:1042D300063B023824C2B37DB47C2D7F0F2275F0D8
:1042E3003CEF84FFA3E02FF0227445F075F080E5E6
:1042F3002A22EF24D0FF9001CEE075F00AA42FF01C
:10430300229002EFE0FCA3E0FD22AF33AE32AD31E9
:10431300AC3022F09002B3E004F022900190E0244C
:10432300D0FFEE75F00A8422A37420F0A3F0901F4F
:104333005CE493FF2275F0101232B5243090020B27
:10434300F022E52B9008031237E6E582252E229012
:1043530002E312376C9002E3229002B3E0FFC32220
:10436300EE1237E6742CF022742CF075F080EE22F6
:10437300E4FAF9F80235A51236F37BD57AFF797F93
:104383007839229002EFE075F08022EF1237E6745D
:1043930049F0227B407A42790F78009002E322AB06
:1043A3000CAA0BA90AA809023668EEF0EF75F00A09
:1043B30084229002B3E0C39401229001CEE0FFFD7A
:1043C3003395E0FCED229002B312372BEC4D4E4FA8
:1043D30022FFE4FCFD9003757407F0222417F58295
:1043E300E43401F583E0222419F582E43401F583F2
:1043F300E022241AF582E43401F583E022241CF53B
:1044030082E43401F583E022E493FDFB3395E0FA83
:10441300EF6B22A3E493648094B022EFF090030344
:10442300E0FD22C295C2A4C29022901F73E493FFC1
:1044330022A21292377D0922900269F0901F64E450
:10444300932290026AF0901F65E4932290026BF02E
:10445300901F66E4932290026CF0901F67E493220E
:104463003CF583E538F022E0FF75F00A842430FE42
:10447300229002BC12376C9002B822F09001F7E050
:0C448300FFE4D39F229001CEE0FFC32293
:1056B100E49002ADF0A3F0C233A3F0A3F0A374050C
:1056C100F0E49001CDF0C208C2299001EA04F09003
:1056D100029B7404F0D20153D9BF75C990E4F5FF60
:1056E10012000312E5E712D9E812D85012405812FD
:1056F100BE1012CF0253C77F12F6DA12B82C124431
:1057010026C23512F325901F73E49330E3057F0819
:1057110012C4D0C232C2017E107F4F123D8312BE2D
:1057210010901F73E49330E70B12B1AAD2257E10BB
:105731007F59800BE4F5E3C296C2257E107F60128B
:105741003D8312BE10901F73E49330E6067E107FF6
:105751006880047E107F70123D8312BE10901F730B
:10576100E49330E40E7E107F79123D8312BE10D295
:1057710013800C7E107F90123D8312BE10C2137EE7
:10578100107FAB123D8312BE10E49001E9F012418B
:10579100D612EFDD78C67C017D017B007A00790DA0
:1057A100123FD1901F59E4939001D0F0901F5AE419
:1057B100939001CCF0E49002ABF0D20690022BE57D
:1057C10010F09002ACE511F0900264E512F012EFD6
:1057D100DD1200033031167E107FBE12405C12BE16
:1057E100107E1F7F5D123D8312BE10C231201C034B
:1057F100309306301C19309316309603E4F5E3120A
:10580100B82C30250512B1AA8005E4F5E3C296E56E
:105811004470030258AC300705209302D290124025
:10582100B9503790029DE0C39404502E125F2E753B
:10583100F01E84E5F07010AF0D12F5DFC007125EA7
:10584100DBD007EEB50713302261AF0D12F5DFC0D3
:1058510007125EDBD007EE6F60511240B94008902D
:1058610002AFE004F08007E49002AFF0A3F09002F1
:10587100AFE0D39403400BA3E02404F09002AFE027
:1058810014F09002AFE0B4C8037404F09002B0E0E9
:105891002414FFE433FEC3EF9464EE6480948040EB
:1058A10003744CF0D234124DA1C22C30070920935D
:1058B10006E5447002C290AF0E12F5DFC007125F19
:1058C10012D007EE6F700302598EAF0D12F5DFC0D3
:1058D10007125EE6D007EE6F700302598E302C037B
:1058E10002598E90029CE004F0E0B43C0B90023E21
:1058F100E004F0E490029CF090023EE0B4180990BC
:10590100023DE004F0E4A3F090029CE030E00C9052
:10591100023EE0700690023DE060667E107FCC1290
:105921003D8312BE1090023DE0123F1D12886CA211
:105931001292377D07125F1D90023EE0123F1D1249
:10594100886CA21292377D06125F1D90029CE012B4
:105951003F1D12886C123E3B12C0BE7E107FE412C6
:105961003D8312BE1030AF05E5E620E0147E107FC6
:10597100F7123D8312BE10D2AF202105C23512F3BA
:105981002590023EE0D3942140031241D5AF0D1280
:10599100F5DFC007125EE6D007EE6F6006438701B0
:1059A10085878730980312BEFCE4FF12F291301311
:1059B10079AF0D12F5DFC007125EF1D007EE6F600F
:1059C10024309614E5E330E00F7A017985123E39EF
:1059D10012C0BE12CF02800D20960A7E117F3812AE
:1059E1003D8312BE10124268FE123F05B507161222
:1059F100431EB50710AF0D12F5DFC007125EF1D0DF
:105A010007EEB507171240CF5012EF9439500DA38E
:105A1100E0FF74309F5005EF9439400E9002AD12B3
:105A21003F9F1242744003125F5CE558D3940F50BC
:105A310003025C5A202503025C5A303D03025C5A82
:105A4100900196E064416009A3E064416003025B58
:105A51009D900186E064476003025B9D123D8AFFD1
:105A6100ED3ECF2BCF3AFE0C7D2C123396ED4C70D0
:105A710019123EFD6F6013901F73E49330E50B9094
:105A810002ABE0C3940A4002C206901F76E493FF82
:105A9100901F75E4934FFF901F77E4934FFFA3E4AA
:105AA100934FFFA3E4934FFFA3E493F94F700302D5
:105AB1005B9D200365123D8AFFED3ECF2BFBEF3A44
:105AC100FAC002C003901F771242427D3C12338418
:105AD100AA06AB07901F751242427C0E7D1012334D
:105AE10084EF2BFDEE3AFC901F79E49375F00AA444
:105AF100FFE97A002FFFEA35F0CF2DFDEF3CFCD016
:105B010003D002AF03AE02123396ED4C6003025B89
:105B11009D123EFA6F7003025B9D30030A7E117F76
:105B21004B123D8312BE107B017A017985123E3BF7
:105B310012C0BE301C6653E6FEE5416004640F707E
:015B4100560D
:105B4200E49002B2F09002B2E0FF2485F582E434E0
:105B520001F583E0FE90029DE05403123FE7EEF070
:0A5B62009002B2E004F0E0B441DB71
:105B6C009002ABE0FF90029DE0540312412FEFF046
:105B7C0090029DE004F07F0412C4D0C2031240AE28
:105B8C00FFA3E024D02F900002F08002D20343E662
:105B9C00019002ABE0D394F04003740AF012426817
:105BAC00FE123F056F702412431E6F701EAF0D1254
:105BBC00F5DFC007125EFCD007EE6F600E9002ADF1
:105BCC00123F9F1242744003125F5C900190E0FF01
:105BDC00C39430403FEFD3943950391241A3403431
:105BEC00EFD39439502EEF12426CF9123F056F60CF
:105BFC0023123DDEFBED3EFAE92401FFE433FE7D8A
:105C0C003C1233EBEDB5030CECB502089002ABE0A3
:105C1C0004F0800B123EFA6F6005E49002ABF012B8
:105C2C0040CF502AEF94395025A3E0FF74309F5099
:105C3C001DEF94395018EF123EFE6F60111240AEFA
:105C4C00900002F0E02FF0E49002ADF0A3F02006FB
:105C5C0016901F73E49330E50E9002ABE0C3940AE8
:105C6C00400512AE30D206125F2E75F00F84E5F0AF
:105C7C007013AF0D12F5DFC007125EFCD007EE6F8C
:105C8C00600312DAE9AF0D12F5DF901F5BE493FDB0
:105C9C003395E0FCEF2DFFE43CFE1242847020AF04
:105CAC000D12F5DFC007125F07D007EE6F60109082
:105CBC001F74E49330E4081242D812EFAED2B3AFA3
:105CCC000D12F5DF7E001242847015AF0D12F5DF58
:105CDC00C007125F07D007EE6F6005C235128E55F4
:105CEC00309313125F3E20E0051244268052D29569
:105CFC00D2A4D290804AAF0D12F5DFC007125F51CB
:105D0C00D007EE6F603A30070A125F3E20E004B213
:105D1C00A48002C2A4300715AF0D12F5DFEF75F0A9
:105D2C000384E5F07007300D04B2958002C2952013
:105D3C00070E30900BAF0D12F5DFEF20E002C29092
:105D4C00AF0D12F5DFC007125F51D007EE6F700375
:105D5C00025E0B9001C6E50DF053AEFEE5C720E0E8
:105D6C00069002B17402F0202505C296E4F5E3908A
:105D7C0001F6E0D394054005200D02D20D9002B13E
:105D8C00E0D394004002D207301C7412417A406F69
:105D9C007E117F77123D8312BE10C234124DA1903A
:105DAC0001EAE0C39421503012417A402B125F4536
:105DBC007E117F87A21292387D0712BE109001EAE5
:105DCC00E0FFE4FCFDFE900375F012886C123E3B84
:105DDC0012C0BE12663F80C77E117F9BA212923802
:105DEC007D0612BE109001E41236F3900375740B0D
:105DFC00F012886C123E3B12C0BEC23512F325AFB6
:105E0C000E12F5DFC007125F12D007EE6F6019900B
:105E1C0001C7E50EF09002B1E0FF7006EFD39400DD
:105E2C0040069002B1E014F0AF0F12F5DFC007127C
:105E3C005F35AE07D007EE6F70030257CF125F3598
:105E4C00C007AF0F12F5DFAE07D007C3EE9F64019A
:105E5C00601A9001C8E0FF12F5DFC007AF0F12F512
:105E6C00DFAE07D007C3EE9F64E9705A12442D30A1
:105E7C00E002D202EF30E214209311D234124DA181
:105E8C00D204C23412F3FC12663F80272093319067
:105E9C001F73E49330E1299001C8E0FF12F5DFEFA6
:105EAC006417701CAF0F12F5DFEF7014D234124D63
:105EBC00A1D200125F4512663FC23512F32580064F
:0F5ECC00C204C200C2029001C8E50FF00257CF16
:105EDB009001C6E0FF12F5DFAE07229001C6E0FF8E
:105EEB0012F5DFAE07229001C6E0FF12F5DFAE0719
:105EFB00229001C6E0FF12F5DFAE07229001C6E04B
:105F0B00FF12F5DFAE07229001C7E0FF12F5DFAEFF
:105F1B00072212C0BE7E107FE2A21292387D0712BA
:105F2B00BE1022AF0D12F5DFEF229001C8E0FF1279
:105F3B00F5DF22AF0D12F5DFEF22D23412F3FC9016
:105F4B0001EAE004F0229001C6E0FF12F5DFAE0794
:0B5F5B0022E4F0A3F07F0112ED1E22F3
:10D9E800C234124DA112F6DAC2AF12F4441242DA6E
:10D9F80012EFAE2094FD3094FD2094FDC2B4309413
:10DA0800FD12420212EFDD123FB890010BE0FF1247
:10DA1800F64390010B12DA5790010C12DA57900175
:10DA28000D12DA6090010E12DA6090010FEFF0A388
:10DA3800E0FF12F643900110EFF0C23512F3259083
:10DA48001F73E49330E3057F0812C4D0D2AF22EFEE
:10DA5800F0A3E0FF12F64322EFF0A3E0FF12F64333
:01DA6800229B
:0D004600C2871242DA12EFAED28702D9E86B
:10AE30009002B3123791000000017E117FA6123DEF
:10AE40008312BE1020960A7E117FC0123D8302BE7F
:10AE500010C234124DA112F6DAC2AF20A50512437A
:10AE6000C970F89002B3123FA97002801A9002B321
:10AE70001237910000000130A5051243C970F89007
:10AE800002B3123FA97007D2AFC23502F325900278
:10AE9000B31237910000000130A5FDC2B420A5FD1A
:10AEA000124202C23512F3257F0512C4D090018CE4
:10AEB0001240B112AF508F0F90018E1240B112AFFD
:10AEC000508F0E900190E075F00AA4FFA3E02F24AC
:10AED000F2FF12F6238F0D90022BE0F5109002ACDA
:10AEE000E0F511900264E0F512123FB890010BE01A
:10AEF000FF12F64390010B12AF3E90010C12AF3ED1
:10AF000090010D12AF4790010E12AF4790010FEF65
:10AF1000F0A3E0FF12F643900110EFF07F0612C499
:10AF2000D012EC597E117FE012405C12BE1012CF9D
:0DAF3000027E117FEB123D8312BE10D2AFE6
:10AF3D0022EFF0A3E0FF12F64322EFF0A3E0FF12A1
:0EAF4D00F64322FFA3E024D02FFF12F62322AA
:10DCDF00E5119004271239B7EEF0E51190042612E2
:10DCEF00399CEEF0E51090042A1239B7EEF0E510EA
:10DCFF009004291239C3EEF0E51290042F123A1650
:10DD0F00EEF0E51290042E12399CEEF0E50F900420
:10DD1F0032123A16EEF0E50F9004311239C3EEF0DD
:10DD2F00E50E900435123A5BEEF0E50E90043412D6
:10DD3F0039EFEEF0E50D900438123A5BEEF0E50D99
:09DD4F009004371239EFEEF022C6
:10E53D00ED14601414603014603C24037046900494
:10E54D0000123A8F745B8018900400123B2C745BA0
:10E55D00F0900401123B37745BF0EF123A47745D93
:10E56D00123B33745DF022900400123B5374201261
:10E57D003B337420F022900400123B8A740A123B44
:05E58D0033740DF022C3
:05DDD0009002EFEFF0EE
:10DDD500A3F09002F0E0FFC39404505B7D0312E5CD
:10DDE5003D9002F0E090043912395B742EF0E4F5B1
:10DDF50038F53974672539F58274023538F583E0CD
:10DE0500FF9002F0E0900401123969E5822539F5A9
:10DE150082E5833538F583EFF00539E5397002057C
:10DE2500386419453870CC9002F0E0FF129FFF90DE
:0DDE350002F0E004F0809B9002EFE0F51396
:01DE420022BD
:10E6DF00900424123E9B742CF0EF123BCA123D782B
:10E6EF00EF9004281237E6742FF090042B123EDAC5
:10E6FF00742FF075F080EF900430123D75EF900499
:10E70F00331237E6743AF0900436123EDA743AF068
:10E71F0090042C123F297432F0EF123A797430F0D2
:01E72F0022C7
:029FFF00AE07AB
:10A0010090041A123AA7742CF0E4F53AF53B7469FE
:10A01100253BF582741F353AF583E493FF90041BC9
:10A02100123BE2E582253BF582E583353AF583EF84
:10A03100F0053BE53B7002053A6409453A70CFAF44
:10A041000612E6DFEE123BA5742CF0EE123D5D74B4
:10A0510020F0EE123A527447F0EE123AB17437F032
:10A06100EE123B057432F090044B123EAA742CF0B0
:10A0710090044C123F307420F0900472123ACE7466
:10A081002F123B717433123B917431123A96123B89
:10A09100DC742CF090046E123A2F123D78EE90048D
:10A0A1004D123D75900451124363900452123F309A
:10A0B1007420F0901F74E493FF20E415EE123B68C6
:10A0C1007441F0EE123BB8742FF0EE123B7E744EE9
:10A0D100F090045512415C742EF090045812415CCA
:10A0E10012436B900459123D75EE90045A12400EC2
:10A0F100EE123A83E0D39439500D75F080EE123AA6
:10A1010086E0C394305009EE123BC17441F0800ADD
:10A1110075F080EE123BC4742EF075F080900460EF
:10A1210012436390046112400AEF75F08030E30935
:10A13100EE123B9F742EF08023EE90046712400EC6
:10A14100EE123B9C7420F0EE123ABB7441F0EE1219
:10A151003AC5742FF0EE123AE3744EF075F080EECA
:10A16100900462123D75EE90046812436490046994
:03A1710012400A8F
:01A1740022C8
:10F3420012EFDD9001F0E50FF0A3E510F0A3E51157
:0CF35200F0A3E512F09001EFE50EF022B0
:10F1EC0012CF0230250F3010067E127F04800A7E6B
:10F1FC00127F2A80047E127F48123D8312BE1002B9
:02F20C00C944F3
:10CF0200303E0302CFAEE511C4540F2430FD900130
:10CF1200F7B430057420F08002EDF0E511124253AF
:10CF2200742FF0E510C4123F3FE510123F3FA37487
:10CF32002FF0E512C4123F3FE512123F3FA37420C7
:10CF4200F0E50FC4540F2430FDB43006A37420F072
:10CF52008005900200EDF0E50F9002011242567436
:10CF62003AF0E50EC4123F3FE50E123F3FA3743A7A
:10CF7200F0E50DC4123F3FE50D123F3F12432BFD7A
:10CF8200C36480948090020A5007124294AD0780D5
:10CF920003742BF0ED124338ED1241E1123E3112CF
:0CCFA200C0BE7D179001F7E4F0A3DDFC99
:01CFAE002260
:10C88900303E0302C9439001F2E0FFC4540F243043
:10C89900FE9001F7B430057420F08002EEF0EF123B
:10C8A9004253742FF09001F1E09001FA123F37A33F
:10C8B900742FF09001F3E09001FD123F37A374202B
:10C8C900F09001F0E0FFC4540F2430FE900200B450
:10C8D90030057420F08002EEF0EF540F24309002FE
:10C8E90001F0A3743AF09001EFE0FDC4540F243035
:10C8F900900203123F3DA3743AF09001EEE0FDC4AB
:10C90900540F2430900206123F3D12432BFEC3649C
:10C9190080948090020A5007124294AE07800374F3
:10C929002BF0EE124338EE1241E1123E3112C0BE35
:0AC939007E179001F7E4F0A3DEFC86
:01C9430022D1
:10C944007E127F5E12405C12BE10123ECB12413842
:10C95400FF12F131123ECB12420EFF12F1317F2E43
:10C9640012F131123ECB124143FF12F131123ECB90
:10C97400124219FF12F1317E127F73A21292387D96
:10C984000812BE10786DE6FE08E61243D412886CD5
:10C9940012443412C0BE7E127F9B12414E12BE104E
:10C9A40090062E1236F3900375740CF012886C12F4
:10C9B4003E3B12C0BE301A3DD3786EE6940018E6B2
:10C9C400940040319001F6E004F07E127FC21241DF
:10C9D4004E12BE109001F6E0D39406400E7E127FF4
:10C9E400D112414E12BE10D20D800A7E127FE31284
:0BC9F400414E12BE10123D7F02BE102B
:10E5E70075F1BF75F2FF75F3FF75F47E75F5FF756D
:10E5F700A41D75A5E775A61975A77A75AE8075D49C
:10E60700C875D5FF75D61975DFFF75E10775E24047
:10E6170075E301C22AD2A075C70312F1C87E127F23
:10E62700E712405C12BE107E137F12123D8312BEAA
:04E6370010C2B42237
:108E5500E4F529F52A12C651901F74E49330E638DB
:108E6500203E357E137F3A123FB112BE10123ECB23
:108E75001241389001F7123ECA2414F582E43401F8
:108E8500123EC01241439001FA123ECA1242199095
:108E950001FB123E3112C0BE123ECB12420EFFB490
:108EA500340B123ECB124143D394354006EFD39495
:108EB50033500D123ECB124138B43004C207800244
:108EC500D207E4F508C21F901F749330E25512A62D
:108ED500D8901F74E49330E00A7E137F4A123D83D5
:108EE50012BE10901F74E49330E638203E357E1391
:108EF5007F6F123FB112BE10123ECB1243DF9001BD
:108F0500F7123ECA2418F582E43401123EC012431A
:108F1500EA9001FA123ECA1243F59001FB123E3166
:108F250012C0BE901F74E493FF30E47A30E00A7EED
:108F3500137F83123D8312BE10752900752A019097
:108F450001CCE0FFC3E52A9FE5299400503DC237D7
:108F550012AD02901F74E49330E0259001CCE0C37C
:108F6500952AFFE49529FEC3EF9405EE9400501071
:108F75007E137FA3123FB112BE10123E0A12C0BE6D
:108F8500052AE52A70020529028F44901F74E4938F
:108F950030E613203E107E137FBA123FB112BE1089
:108FA500123E0A12C0BE901F74E49330E30E1242C3
:108FB500D812EFAE3025057F0112ED1E901F74E427
:108FC5009330E35D12B725901F74E49330E00A7E79
:108FD500137FC7123D8312BE10901F74E49330E6D1
:108FE50040203E3D7E137FDC123FB112BE10123E83
:108FF500CB1244009001F7123ECA241DF582E434D9
:1090050001123EC01241AAE09001FA123ECA241F85
:10901500F582E43401F583E09001FB123E3112C084
:10902500BED2B312F5967F01123C141241AAEEF09E
:099035000FEF640870F2750807E2
:01903E00220F
:10E90200900304123824803A90030BE0D394004021
:10E9120039E014F0E47B0AFAF9F890030712400494
:10E92200EB2430FF90030412380490030BE0F582CD
:10E93200758300EF1233629003071236F37B0A12DB
:0BE94200437390030712376C80BE2265
:1093F800D234E49002B4F0A3F09002B41241B794CE
:1094080034EE9400501474F72FF58274013EF583FE
:10941800E4F09002B4123FA080DF900241742FF074
:10942800900244F09002497420F090024C743AF093
:1094380090024FF012CB7490023BE0FEA3E0FF4E87
:10944800601A901F5612440B7002EE6A600EED709F
:109458000B7E1F7F567A02793B1295BA900181E004
:10946800FEA3E0FF4E601A901F5712440B7002EEE5
:109478006A600EED700B7E1F7F577A017981129515
:10948800BA901F5DE493C3648094B04012124416EE
:10949800400D901F601244174005124416503FC2F9
:1094A800117E137FED123D8312BE10D2B4C2877DA8
:1094B800407C067F0112EFAED287C2B4D2B4C23567
:1094C80012F32520110C7E147F40123D8312BE102A
:1094D80080F17E147F63123D8312BE108002D21188
:1094E8009002B3E0C394055051E4A3F0A3F09002B6
:1094F800B41241B79405EE9400502674632FF58298
:10950800741F3EF583E493FFD3648094B95008C375
:10951800EF648094B05002C2349002B4123F9F802E
:10952800CD901F6CE493642C6002C2349002B3E0C7
:1095380004F03034AB740AF080A620340C7E147F1B
:109548006E12405C12BE10801AC213C222C22512CB
:10955800442D30E402D213EF30E602D222EF30E796
:1095680002D22512C40E9002677453F0A314F0902F
:109578001F63E49312443B12444512444F1244596A
:1095880090026DF012442D30E20890026E7448F09B
:10959800800FEF90026E30E1057444F08003745F31
:1095A800F09002667404F0D235128E5512F7250237
:0295B800C40EDF
:0D95BA007B019003B4F0A304F012EE4122F7
:10B82C00E49002B3F0C295D2A4C29012EFDD901F47
:10B83C0074E49330E0107E147F84123D8312B92A95
:10B84C00123D7F12BE1030930302B8F9301C030274
:10B85C00B90B9001EBE0600302B90BC20F7E147FB1
:10B86C00A3123D8312BE1012C9447E147FD1123D27
:10B87C008312BE109001E8E060527E147FDB124010
:10B88C005C12B92A12663F901F74E49330E00A7E72
:10B89C00147FEC123D8312BE10C23512F325901F9B
:10B8AC0074E49330E0067E147FF78018E544D3945B
:10B8BC00004019C234124DA1901F74E49330E0EC97
:10B8CC007E147FFF123D8312BE1080E09001E8E0F1
:10B8DC007014901F749330E00A7E157F12123D8312
:10B8EC0012BE1012663FC23512F3258012301C0FA7
:10B8FC007E157F1F123D8312BE10D23412F3FC90C2
:10B90C001F74E49330E01612EFDD7E157F40123D7C
:0DB91C008312BE1012CF02123D7F12BE102A
:08B929002212BE1012CF02220F
:10F29100E5C930E60E201208D212EF701012D1AD7E
:0EF2A10002008E301202C212E4F5A9F5B92265
:088A6F009002EFEEF0A3EFF01E
:108A7700900183E0F539A3E0F53A12422A1241B496
:078A87009404EE9400504737
:108A8E00C374039FFFE49EFEEF7802C333CE33CE52
:108A9E00D8F9FF9002FBEEF0A3EFF0AE39E53AA85D
:108AAE0007088005CEC313CE13D8F9540F12406DAC
:108ABE00400674272538F53812401D74012FF582B3
:028ACE0074042E
:108AD000123F9680AF1242A32405F582740412421D
:018AE0002471
:108AE1001241B474059FFFE49EFEEF7802C333CEBA
:108AF10033CED8F9FF9002FBEEF0FAA3EFF0FB9032
:108B010002F51236F3A90312406340031241F41235
:098B1100401D74062FF582740466
:108B1A00123F969002F9E07004A3E0640670B8125E
:108B2A004304240CF58274043CF5837420F0786FB6
:108B3A00E6FAEAC4540F2430F538740D2DF5827420
:108B4A0004124463D3943940031241F4EA540F12D5
:108B5A00406D40031241F4124304240EF58274045A
:108B6A00124463786FE6FA08E6FBEAC4F854F0C8E0
:108B7A00EBC4540F48540F12406D40031241F47471
:108B8A000F2DF5827404124463EB540F12406D40AA
:108B9A00031241F41242A3FF2410F58274043EF535
:108BAA0083E538F0302610B4300D74102FF5827436
:108BBA00043EF5837448F074112FF582740412424E
:108BCA00241241B49408EE94005026C374079F25DA
:108BDA00E025E0F99002F11236F3124063400312E5
:108BEA0041F412401D74122FF5827404123F9680CC
:108BFA00D020250B1242A312407D7444F0801E300F
:108C0A00060B1242A312407D744CF080101240757C
:108C1A00E0B4300974122F12407F7445F0300C13FF
:108C2A00124075744CF074132FF58274043EF58368
:108C3A007442F090029C12446A1243042413F5828F
:108C4A0074043CF583EEF0EF123F052430FF7414F0
:0A8C5A002DF58274043CF583EFF061
:018C640022ED
:0BEFAE009002E3EFF0A3ECF0A3EDF005
:10EFB900E4A3F09002E3E0FF9002E6E0C39F501360
:10EFC9009002E4E0FEA3E0FF12002E9002E6E004C6
:03EFD900F080E0E5
:01EFDC002212
:10AD020030372AE5087005752C078005E50814F52B
:10AD12002CE52C12410DE0FF123ECB124111EFF057
:10AD2200E52C75F00EA41242ABE002AE1C12AE2668
:10AD3200D23812C34A8E2D8F2EC23812C34A8E2F9A
:10AD42008F3012AE26AC2DAD2EEC1230189002B818
:10AD520012376CAC2FAD30EC12301812447412431F
:10AD62007A1242B512437A122F0D1244741240D94C
:10AD72001242B51240D9122F0D9002BC1242BB12E0
:10AD820036F39002B812370F122E1C12CFB312ED07
:10AD92005A7BE67A2E79657842122F0DE4FBFAF996
:10ADA200783F122E1C1230519002B6EEF0A3EFF053
:10ADB2009002B7E0F52BE53264517004E531643F4F
:10ADC2006024752B639001CDE0C39414500A7E1564
:10ADD2007F5E123D8312BE109001CDE0C3941950E4
:10ADE20014E004F0800FE532B4510AE531B43F05B6
:10ADF200E49001CDF0E52BB4FF03752B5AE52B123D
:10AE02003F052430FF123ECB124111EFF0E52B75C6
:10AE1200F00A84F52B123F052430FF123ECB12427A
:03AE2200ABEFF0A3
:0BAE2500227F4A12DA698E318F322240
:10D1AD0090029F740CF0A37403F0E49002A2F0902F
:10D1BD0002A4F09002A6F09002A8F0901F63939045
:10D1CD0002A1F0901F64E4939002A3F0901F65E418
:10D1DD00939002A5F0901F66E4939002A7F0901F24
:10D1ED0067E4939002A9F0E4A3F012EB08901F817D
:10D1FD00E493FE740193FF901F83E493FC740193F9
:10D20D00FD7BFF7A1F79BB9002BA1238247B017A1D
:10D21D0002799F9002BD123824901FD9E493900299
:10D22D00C0F0901FDAE4939002C1F0901FDBE493FD
:10D23D00FB7401939002C2CBF0A3EBF07BFF7A1F3E
:08D24D00798512AA9B02F3CAC5
:085F66009002EFEFF0A3EDF053
:105F6E00C235C236124386A4FF9002F1E5F0F0A3CB
:105F7E00EFF0E4A3F0A3F09002FB123791000000C3
:105F8E00009002FF12379100000000900265E0546D
:105F9E0003900303F07E11900003124132E5822E2E
:105FAE00123FF3E0B42C04C2358002D235E49002E5
:105FBE00F5F0A3F09002F5E0FFC3944040030263B6
:105FCE0001900303E0FA123FE7E0FBB42C119002BC
:105FDE00F6E004F0A3123791000000000262F89080
:105FEE0002F6E024FD700302608A1470030261174A
:105FFE0014700302612D1470030261E624FD700318
:10600E0002621F240860030262F8123FA6600302B8
:10601E0062F89002EFE0FD900431123977123BF2F4
:10602E00ED123D66123F8F900005123C049002EF78
:10603E00E0FD9004341239841241FBFC900303E01E
:10604E00900006123C00ED123B3E123F8F9000076F
:10605E00123C049002EFE0FD900437123996124183
:10606E00FBFF75F042EA9000081237E6E5822F1228
:10607E003C0A75F080ED9004380261DF123FA66095
:10608E00030262F89002EFE0FD9004011239A312B0
:10609E003BF2ED123E61123F8F900005123C0490D0
:1060AE0002EFE0FD9004031239B1123EEA900006B1
:1060BE00123C04ED123E6A123F8F900007123C0410
:1060CE009002EFE0FD9004051239BD123EEA9000F9
:1060DE0008123C04900406123F88900009123C04FA
:1060EE009002EFE0FD9004071239CA123EEA9000CA
:1060FE000A123C04900408123F8890000B123C04D4
:10610E001243869004090261DF123FA66003026209
:10611E00F89002EFE090040A1239D7EB0262DE1219
:10612E003FA660030262F89002EFE0FD90040B12AE
:10613E0039E9123BF2ED123E73123F8F90000512B9
:10614E003C049002EFE0FD90040D1239F6123EEA87
:10615E00900006123C04ED123E7C123F8F90000719
:10616E00123C049002EFE0FD90040F123A10123E22
:10617E00EA900008123C0475F080ED900410123F76
:10618E008C900009123C049002EFE0FD9004111275
:10619E003A1C123EEA90000A123C04ED123E921294
:1061AE003F8F90000B123C049002EFE0FD90041321
:1061BE00123A291241FBFF900303E075F042900062
:1061CE000C1237E6E5822F123C0A75F080ED900432
:1061DE00141237E6EF0262DE123FA660030262F887
:1061EE009002EFE0FE900415123A4AEBF075F08043
:1061FE00EE900416123D75EE900417123D75EE905A
:10620E000418123D75EE9004191237E674200262DE
:10621E00DE123FA660030262F89002EFE0FD9004EA
:10622E0029123A55123BF2ED123AFC123F8F9000B2
:10623E0005123C049002EFE0FD900426123A611222
:10624E003EEA900006123C04ED123B0E123F8F9078
:10625E000007123C049002EFE0FD90042E123A7CEF
:10626E001241FBFC900303E075F042900008123CD3
:10627E0004ED123B20EFF074862CF582E43401F528
:10628E0083E024D0FFEB1240B22FFF12F6239002D0
:10629E002B1241FBFE2487F582E43401F583124074
:1062AE00B1FF74882EF582E434011266349002AC8C
:1062BE001241FBFE2489F582E43401F5831240B1CC
:1062CE00FF748A2EF582E43401126634900264EF74
:1062DE00F09002F71236F3EF2401FFE43EFEE43DA8
:1062EE00FDE43CFC9002F712376C9002F5E004F0EE
:1062FE00025FC29002EFE0FF123A527447F075F05F
:10630E0080EF123AB47450F0EF123B057453F0EF75
:10631E00123A0D7420F0EF123BD37446F0EF123B9D
:10632E00E97469F0EF123D307478F0EF123D397474
:10633E0020F0EF123D4B742012441F75F042900076
:10634E000B1237E6E0FF9002EFE0FE900432123AB5
:10635E0090EFF090000A124163123D4212441E90DB
:10636E00000D124164123B3EEFF090000C1241639F
:10637E00123D5412441E75F04290000F12416712E6
:10638E003B47EFF075F042ED90000E124167123E62
:10639E004FEFF0EE123EE17430F0EE123D6FEE90E4
:1063AE00043C1237E6123B5A123B5A123D78EE90DD
:1063BE00043E123D75EE90043F123D75EE123BA861
:1063CE0012436B90046A123D75EE90046B123D758C
:1063DE00EE90046C1237E6123BDC12436B90046EA7
:1063EE00123D75EE90046F123D75EE900470123DE5
:1063FE0075EE900471123D75EE900472123D75EEBD
:10640E0090047312400E900474123ACE7420123B14
:10641E00717420123B917420123A96123D78EE90D0
:10642E00047A123D75EE90047B12400E90047C129D
:10643E003A2F123D78EE9004291237E61240D240E0
:10644E00030264D8900429123EAAE0D39439507AFC
:10645E0075F080EE123AFF1240D2506E75F080EE5B
:10646E00123AFFE0D394395061EE123BAE1240D295
:10647E00505875F080EE123BB1E0D39439504B7505
:10648E00F080EE123B111240D2503F75F080EE12AA
:10649E003B11E0D394395032EE123B171240D250DA
:1064AE002975F080EE123B1AE0D39439501C75F02A
:1064BE0080EE123B231240D2501075F080EE123B4C
:1064CE0023E0D39439500302660E9002EFE0FF9062
:1064DE000429123AA87437F0EF123AFC7437F0EF31
:1064EE00123BAE7437F0EF123B0E7437F0EF123BE7
:1064FE00177437F0EF123B207437F0EF123D4274F1
:10650E0030F0EF123D667430F0EF123D547430F0FF
:10651E0075F080EF123B417430F0EF123E4F743045
:10652E00F0EF123B477430F0EF123E587444F0EF28
:10653E00123E617441F0900403123F297454F0EF3F
:10654E00123E6A7445F075F080EF900405123D75A9
:10655E0090040612438E900407123F817453F07517
:10656E00F080EF900408123D7590040912438E904E
:10657E00040A123F81744EF090040B12409A745626
:10658E00F0EF123E737441F090040D12409A744C69
:10659E00F0EF123E7C7449F090040F1242327444B4
:1065AE00F075F080EF900410123D75EF900411120B
:1065BE0037E6744FF0EF123E927452F075F080EFA2
:1065CE00900413123D75EF9004141237E67446F0E2
:1065DE009004151242327449F075F080EF90041653
:1065EE001237E67458F075F080EF900417123D756F
:1065FE00EF90041812438F900419123E9B7453F0BF
:10660E00124386A4246AF9740435F0FA7B019003D0
:10661E0003E012412FE01240E512E902900265E01C
:05662E0004F0E4F55842
:0C66330022F583E024D02FFF12F6232272
:10AF5B00901F74E493FE30E41EED12410DE0FC12E1
:10AF6B003B67EC1240161242ABE0FC123BB7EC1203
:10AF7B003B7C7420F08011123B677441F0123BB79D
:10AF8B00742F123B7C744EF0EE30E235ED75F00E03
:10AF9B00A41243F5FE123B291240151243EAFE128E
:10AFAB003B501240152418F582E43401F583E0FE82
:10AFBB00123B871240151243DFFE123A82EEF080ED
:10AFCB001F123B297420F0123B507420F0EF123B00
:10AFDB00C17441F0123B87742FF0123A82744EF019
:10AFEB00ED75F00EA4124219900457123EA21240B6
:10AFFB0015124143900456123EA212401512420EF6
:10B00B00900454123ED21240151241389004531240
:10B01B003ED2EEF0901F74E49330E33CED75F00EEE
:10B02B00A41241AAE0FE123A8C124015241DF5829F
:10B03B00E43401F583E0FE123ABA124015124400D3
:10B04B00FE123AC4124015241BF582E43401F58339
:10B05B00E0FE123AE2EEF022123A8C7420F0EF127C
:10B06B003B9C7420F0123ABA7441F0123AC4742F1C
:08B07B00F0123AE2744EF022DB
:104DA100E4F533F532F531F530F537F536F535F50E
:104DB100349002E712379100000000E49002EBF01A
:104DC100A3F0E54470030256A6301C03309309207A
:104DD100120620340302568B12F6DAE4F5E385134A
:104DE1002A301C0920930612F41512F731E4F52B31
:104DF100E52BC39544400302567CAF1312DDD0E589
:104E01002AC394044003025640123E42FF640460E8
:104E110013EF6405600EEF64066009EF6407600438
:104E2100EFB40804D20B8002C20B900800123E4579
:104E3100FEA3E0786FA60608F690080D123E88548E
:104E41000FF52C300B03025006E4F52E752F037578
:104E51002F03E52F75F00F20E00F124345123FF3AA
:104E6100E0540FF52D052E800C124345123FF3E05F
:104E7100C4540FF52D7430252DF52DD394394006EA
:104E81007407252DF52D123A50E582252F123FF397
:104E9100E52DF0052FE52FB409B8123E85C4131393
:104EA1005403F52E14600F14601114601324037061
:104EB10012752FEE800D752FEF8008752FF080038E
:104EC100752FF11241CE246FF9740435F0FA7B018C
:104ED100AF2F1240E612E902123E85543FF52D1222
:104EE1003F05900474123956EFF0E52D75F00A84F0
:104EF100F52D123F05900473123964EF1241CD2450
:104F01006AF97404900808123DFB1240E512E902A7
:104F11001241CE247AF9740490080C123DFB124020
:104F2100E512E90290080C123EB6D39464400BC21C
:104F31001AE49001F6F0C20D800B301A069001F6CA
:104F4100E004F0D21A123F0EFFE4FCFDFEFBFA79F9
:104F510001F812351A1243521236F3C006C00790F7
:104F6100080A123F117B00FAE4F9F8D007D00612C3
:104F710034FF12435212370F90080B123FDDFFE44A
:104F8100FCFDFE1234FF9002E312376C123EB3FEB9
:104F9100A3E0FF900183EEF0A3EFF0E48F338E32B4
:104FA100F531F530AD31AC307B0FFAF9F812351A25
:104FB1008F338E328D318C30124396124004E5339B
:104FC1002FFFE5323EFEE5313DFDE5303C8F338E6E
:104FD100328D31F5301241CE243AF9740435F0FAAC
:104FE1007B01C003C002C001124396124004AC0011
:104FF100AD01AE02AF0390030B7406F0D001D002F5
:10500100D00312E902AD2CAF2A12AF5B300B0302C1
:10501100539112430DD31243A2500302513A7E150C
:105021007F7812405C12BE107E157F9012414E12A5
:10503100BE10AF0CAE0BAD0AAC091256A7123E3B27
:1050410012C0BE7E157F9F12414E12BE1012430D3B
:105051001256A7123E3B12C0BE7E157FAA12414EC8
:1050610012BE10124087900375740CF012886C12F6
:105071003E3B12C0BE124087E47B587A02F9F8D356
:10508100123668507090029CE02402FFE433FE3334
:1050910095E0FDFCE47B3CFAF812351AC004C0052A
:1050A100C006C00790023EE0FF7E007C0E7D10121C
:1050B10038BD1240DCD007D006D005D0041234FF31
:1050C100C004C005C006C00790023DE0FFE4FCFD3E
:1050D100FE7B807A517901F812351A1240DCD00733
:1050E100D006D005D0041234FF1240DC124087D321
:1050F10012366840247F017E007D0F7C00C312437D
:10510100A25016C3E4950CFEE4950B9002EBF0A3BC
:10511100CEF0D20E1242048016850C33850B3285F7
:105121000A318509307E157FBD12414E12BE107EB7
:10513100157FD5123D8312BE10C3E533950CFFE5F3
:1051410032950BFEE531950AFDE5309509FC90029B
:10515100E712376C9002E71236F3EF250CFFEE35BC
:105161000BFEED350AFDEC35098F0C8E0B8D0AF522
:10517100099002E712370F9002EBE0FEA3E0FFE493
:10518100FCFD1234FF9002E712376C9002EBE070E5
:1051910002A3E06007E49002EBF0A3F0E4FFFEFD60
:1051A100FC9002E712418550030252AE123FFB9080
:1051B100010BE02BF0123FFB7B3C12437390010C7F
:1051C100E02BF0E47B107A0E123FFFE47B181243D0
:1051D1007490010DE02BF07B807A517901780012F7
:1051E100400190010EE02FF090010BE0FFC3943CD1
:1051F100400E1242E190010BE075F03C84E5F0F0C5
:1052010090010CE0FFC3943C400E1242E190010C6E
:10521100E075F03C84E5F0F090010DE0FFC39418D7
:10522100401175F0181242E490010DE075F01884F8
:03523100E5F0F0B5
:1052340090010FE024FC602B24FE602724FD6023F2
:1052440024FE601F24097026900110E054037005A9
:10525400FE7F1D80047E007F1C9002EDEEF0A3EF24
:10526400F080149002EDE4F0A3741EF08009900223
:10527400EDE4F0A3741FF090010EE0FFFD9002ED49
:10528400E0FAA3E0FBC39D7480F8EA648098501AA6
:10529400C3EF9B90010EF0A3E004F0E0D3940C4024
:0852A4008F7401F0A3E004F097
:1052AC00808690010DE090043212398A1243AD9041
:1052BC0004311239ACEFF090010CE0900435123946
:1052CC00DDEEF0900434123AECEFF090010BE0902C
:1052DC0004381239DDEEF0900437123AECEFF0900E
:1052EC00010EE0FF123F052430FE75F080E52A1216
:1052FC003AFF1243AD123953EFF090010FE09004D6
:10530C002712398A1243AD123961123A677430F0A0
:10531C0090011012446A75F080E52A123B1AEEF0E7
:10532C00EF123F051239A9EF1242EE9004391237F1
:10533C00E6742EF0300E4B7E157FD6123D8312BED6
:10534C001090010FE0FF12F6238F1190010EE0FF79
:10535C0012F6238F10900110E0FF12F6238F12909B
:10536C00010DE0FF12F6238F0F90010CE0FF12F6F7
:10537C00238F0E90010BE0FF12F6238F0D12EC59C8
:10538C00C20E1241D5E52A123BCA74201241CDFF40
:10539C00AEF0C006C00712430D9002F11243551235
:1053AC0036F39002F512376CD007D006128A6F30A4
:1053BC002229E4FDAF2A12E53DAF2A129FFF1241CC
:1053CC00CE2400F9740435F0FA7B01A21292377DD9
:1053DC000A12C0BE7D03AF2A12E53D123E42FF64A5
:1053EC00056012EF6406600DEF64076008EF640857
:1053FC006003025493200B03025493123E859004D5
:10540C003112396FEFF0123E8590043212397D1251
:10541C003FD8C49004341239D0123FD890043512BE
:10542C0039D0123EB1C4900437123A22123EB15414
:10543C000F2430FF75F080E52A123B4A123F0CC452
:10544C00540F123953123F0C90042A12397D12401A
:10545C00F1C4540F1239611240F1900427123A2210
:10546C00123A677430F090080C1240F690042E1229
:10547C00396FEFF075F00FE52B90080C1237E6E062
:10548C00540F1239A9EFF0AF2A129FFF123E42FDC2
:10549C00B40405AF2A125F66123E42FF6405601227
:1054AC00EF6406600DEF64076008EF6408600302A8
:1054BC00562A200B0302562AEF64057012123A503A
:1054CC007450123AAE74521239FC7456025534129E
:1054DC003E42FF64067017123A50744E123AAE12E6
:1054EC0042EC123B087457123A0A7420803AEF646B
:1054FC000775F0807016E52A9004421237E6745551
:10550C00123AAE74531239FC7454801CE52A900480
:10551C00421237E67453123AAE74591242EE123BF1
:10552C0008744E123A0A7443F0E52A123BD37420E5
:10553C00F0E52A123BE97454F0E52A123D30744927
:10554C00F0E52A123D39744DF0E52A123D4B12421A
:10555C00EC90046F123D75E52A900470123D75E5D0
:10556C002A900471123D75E52A900473123D75E57D
:10557C002A90047412400EE52A123AD97420F0E5F0
:0F558C002A123B737420F0E52A123B937420F02F
:10559B00E49002EDF09002EDE0FFC394195013E597
:1055AB002A123E58123FF07420F09002EDE004F006
:0255BB0080E38B
:1055BD00E52A123EE17430F0E52A123D6FE52A909E
:1055CD00043C12400EE52A123B5E123D78E52A900E
:1055DD00043E123D75E52A90043F12400EE52A1255
:1055ED003BA5742CF0E52A123D5D123D78E52A901D
:1055FD00046A123D75E52A90046B123D75E52A90FB
:10560D00046C123D75E52A90047A123D75E52A90D9
:10561D00047B123D75E52A90047C12400E852A13F9
:10562D00052A052BE52B65446003024E00752A04FF
:10563D00024E00301C33209330AF130513EFC3948B
:10564D0003400E7D017F007E0212E0D9E4F5138048
:10565D0018E5132401FFE433FEEF7807C333CE338F
:10566D00CED8F9FFE4FD12E0D9E4F52A024DF13070
:10567D001C0C20930912F41512F73112C70F2021BB
:10568D0007C23512F325800312F3E375E301C22B34
:09569D00E490029DF0900265F01A
:0B56A60022900375740CF012886C2237
:10D85000D205D295D209D2A4D20AD290D21AC20D40
:10D86000E49001F6F09001EBF012F6DA12F3E31215
:10D87000F50CC217C21CC21912EF7EE4900282F0AE
:10D88000C2A3D283D2B5C21212F718C2A3D283D2D6
:10D89000B5D2AF30930A7E157FF1123D8312BE10D0
:10D8A000E4F5081293F87F01123C141241AAEEF03D
:10D8B0000FEF640870F275080790062E123791007A
:10D8C000000000E4786DF608F67E167F06123D83B0
:0AD8D00012BE10D2A0C212124426AC
:01D8DA00222B
:0D00760075F1F875F3EF43E28075F5FF2298
:10008E00E49002B3F012EB0890022CE0645B600384
:10009E00020E267E167F24120E5AE490022CF0A336
:1000AE00E01238390E0E41034B42015243053444DF
:1000BE00055E4505884605B24705D8480E0E490728
:1000CE00504A082F4B0E0E4C08A34D09024E0152FA
:1000DE004F0A92500BD3510C0B520179530E0E5402
:1000EE000C95550E0E5601F7570278580CF759011C
:1000FE00525A033A610489620E0E63054964057310
:10010E0065059D6605C16705F36806AC6907846AD7
:10011E0008726B08906C08DC6D09406E09E66F0B77
:10012E0091700BEF710C48720C60730C78740CAC00
:10013E00750CBE760CD6770CDC780D42790DF27A02
:10014E0000000E047E167F35120E5A120FA6642082
:10015E00F030E5067E167F3E80047E167F59120E25
:10016E0064120F377E167F75020E0812415570729B
:10017E00A3E090022C1241C390022D1241254003A0
:10018E00020E0EEF94064003020E0EA3E0FFE49F54
:10019E004003020E0EEF94094003020E0E90022C45
:1001AE001242C290022D124239E0D3943C400374A5
:1001BE003CF01243B550037401F09002B3E0FF908F
:1001CE001F58E4936F60147E1F7F58120FC37E1664
:1001DE007F7E120F1812102C020E0E7E167F8F02CB
:1001EE000E087E167FA0020E08124155706E124147
:1001FE00BE9001F812447E506AEF94065065A3E05B
:10020E00FFE49F505EEF940950599001F71242C2DD
:10021E009001F8124239E0D3947F4003747FF012BC
:10022E0043B550037401F09002B3E025E0F0E0FF17
:10023E00901F59E4936F601E7E1F7F59120FC3905B
:10024E0002B3E09001D0F07E167FC6120F7D123EF3
:10025E003B12C0BE800D7E167F8F80047E167FD629
:10026E00120E647E167FFC020E08124155600302C8
:10027E00032C1241BE9001F8F0900231E024D09090
:10028E0001F912447E4003020333EF94024003024D
:10029E000333A3E0FFE49F4003020333EF940940CE
:1002AE0003020333A3E0FFE49F507AEF94095075E5
:1002BE009001F775F0641242C59001F8E075F00AEE
:1002CE00A412423A9001F9124239E0D394FE40034F
:1002DE0074FAF01243B550037401F09002B3E0FFCC
:1002EE00901F5AE4936F60307E1F7F5A7A0279B363
:1002FE0012410404F012EE419002B3E09001CCF0F2
:10030E007E177F03120F9C1240A1123F2212886C9F
:10031E00123E3B12C0BE800D7E167F8F80047E176C
:10032E007F17120E6E7E167FFC020E087E177F3B25
:10033E00120E6E12A1757E177F44020E087E177F75
:10034E004D120E787E107F4F120E78901F73E4932D
:10035E0030E6067E177F5680047E177F5F120E8270
:10036E00901F73E49330E7067E177F6980047E1733
:10037E007F71120E82901F73E49330E5067E177F15
:10038E007A80047E177F90120E8C901F73E4933048
:10039E00E4067E177FA780047E177FC4120E8C9012
:1003AE001F73E49330E2067E177FE280047E177F90
:1003BE00F6120E96901F73E49330E1067E187F0BB3
:1003CE0080047E187F1E120E96901F73E49330E009
:1003DE00067E187F3280047E187F42120EA0901F78
:1003EE0074E49330E2067E187F5380047E187F6398
:1003FE00120EA0901F74E49330E3067E187F748073
:10040E00047E187F81120EAA901F74E49330E406C6
:10041E007E187F8F80047E187F98120EAA7E187F1A
:10042E00A2120F1812102C7E187FB0120EB47E1866
:10043E007FB2120F9C901F75120F4D901F76120FE8
:10044E004D901F77123F1B120FFB901F78123F1B10
:10045E00120FFB901F79123F1B12886CA21292375B
:10046E007D0312C0BE901F7A123F1B12886C123E83
:10047E003B12C0BE7E187FC6020E087E187FCF12BA
:10048E000EB41241556003020526A3E0B42D047F7D
:10049E000180027F00123F46901F5712411B50727F
:1004AE00EFC39409506CA3E0642E7066A3E0FFE4E2
:1004BE009F505FEF9409505A12418CB42D20124375
:1004CE00BD245012425D9DEC1240C840089001CEF2
:1004DE0074B0F08021C3EF9E9001CEF080181244CC
:1004EE008874509FFF1242619F9001CE4005745058
:1004FE00F08003E02EF0901F57E493FF9001CEE0C2
:10050E006F60097E1F7F57120FDF80137E187FD812
:10051E00800A7E187FEC80047E187FF7120EBE7E56
:10052E00197F02020E087E197F0B120EBE7F017E0E
:10053E000012DD587E197F14020E087E197F1D12DF
:10054E000EC87F027E0012DD587E197F26020E082D
:10055E007E197F2F120EC87F037E0012DD587E1982
:10056E007F38020E087E197F41120ED27F047E0064
:10057E0012DD587E197F4A020E087E197F53120E25
:10058E00D27F067E0012DD587E197F5C020E087E39
:10059E00197F65120EDC7F057E0012DD587E197FF5
:1005AE006E020E087E197F77120EDC7F0612103651
:1005BE00020E087E197F89120EE612405812BE10E6
:1005CE0012CF027E197F92020E087E197F9B120EA9
:1005DE00E67E197FA412405C12BE1012C8897E19E5
:1005EE007FB8020E087E197FC1120EF012415560BF
:1005FE000302069EA3E0FD642D7033A3E0FEC394B8
:10060E0030400DEED394395007EE24D09001CEF049
:10061E00900231E0FFC394304009EFD39439500378
:10062E001242F59001CEE075F0FFA4F0802AEDC3E2
:10063E009430401190022FE0FFD394395007EF24ED
:10064E00D09001CEF0900230E0FFC394304009EF1D
:10065E00D3943950031242F5124488648094744046
:10066E0029D3EF6480948E502190022CEFF0E4A3F6
:10067E00F0901F5C936F601F7E1F7F5C1241000421
:10068E00F012EE417E197FCA800A7E197FD7800450
:10069E007E1A7F01120EF07E1A7F2B020E087E1A32
:1006AE007F34120EFA124155600302073CA3E0900C
:1006BE0001F9F0900230E09001FAF0900231E090F2
:1006CE0001FBF0900232E09001FCF0900233E090DA
:1006DE0001FDF0900234E09001FEF0900235E090C2
:1006EE0001FFF0900236E0900200F0900237E090A9
:1006FE000201F0900238E0900202F0900239E09090
:10070E000203F090023AE0900204F0901F73E4931B
:10071E0030E3057F0712C4D012E48C12D9E87E11A3
:10072E007FE0120FD512CF027E157FD580047E1A80
:10073E007F3D120EFA123E3512C0BE7E1A7F6E0239
:10074E000E087E1A7F77120F04B2137C1F7D7390F2
:10075E0002EAE412101B3013094410F07E1A7F8057
:10076E00800754EFF07E1A7F95120F04120F377E1A
:10077E001A7FAE020E087E1A7FB7120F0E12415567
:10078E0060030208211241A35003020821EFD39403
:10079E003240030208211241A34078EFD394345023
:1007AE00721241A3406DEFD3943650671241A340AD
:1007BE0062EFD39439505C1241A34057EFD3943675
:1007CE0050511241A3404CEFD394395046E490025D
:1007DE00B3F012435C9406501BE0FE242FF582E426
:1007EE003402F583E024D0FD742C2E124172ED12EA
:1007FE00431680DE742C2F124172E4F07E1F7F753B
:10080E007B017A02792C9003B4F0A37406F012EEF9
:10081E004180077E1A7FC0120F0E7E1A7FE2020EF3
:10082E00087E1A7FEB123D8312BE10B225120FA660
:10083E003025154480F07E1A7FF4123D8312BE10CF
:10084E0075E30112B1AA8012547FF07E1B7F001255
:10085E003D8312BE10C296E4F5E3120F677E1B7F36
:10086E000D020E087E1B7F16123D8312BE1063E32F
:10087E0001E5E330E0057F0112ED1E7E1B7F1F02B6
:10088E000E087E1B7F28123D8312BE10B2967E1B71
:10089E007F31020E087E1B7F3A123D8312BE10304E
:1008AE0096067E1B7F4380047E1B7F52123D831271
:1008BE00BE10E5E330E0067E1B7F6080047E1B7F6A
:1008CE0076123D8312BE107E1B7F8D020E087E1B9C
:1008DE007F96123D8312BE10B2083008067E1B7F33
:1008EE009F80047E1B7FAE123D8312BE107E1B7F47
:1008FE00C1020E087E1B7FCA123D8312BE10B222A9
:10090E00E490022DF07C1F7D739002EA12101B30D2
:10091E0022094440F07E1B7FD3800754BFF07E1B1C
:10092E007FED123D8312BE10120F677E1C7F0C02EC
:10093E000E087E1C7F15123D83120FF16003020913
:10094E00D5A3124032E49002B3F012435C940550EA
:10095E001812416EE0FDEE901F63936D60069002DB
:10096E00B3740CF012431780E1EF640D70537E1CCC
:10097E007F1E123D8312BE107E1F7F6312410074D4
:10098E0005F012EE417E1C7F35120E27901F63E498
:10099E0093FF12443BFE124445FD12444FFC124499
:1009AE0059FB90026DF09002A1EFF09002A3EEF0D1
:1009BE009002A5EDF09002A7ECF09002A9EBF0806A
:1009CE00107E167F8F80047E1C7F53123D8312BED5
:1009DE00107E1C7F71020E087E1C7F7A123D8312E0
:1009EE000FF16003020A81900232E0642C60030270
:1009FE000A81900235E0642C707990022F124032F9
:100A0E00900234E0900231F0900235E0900232F024
:100A1E00900236E0900233F0900237E0900234F00C
:100A2E00E49002B3F012435C9409501812416EE048
:100A3E00FDEE901F69936D60069002B3740CF01278
:100A4E00431780E1EF640D70247E1C7F83123D837B
:100A5E0012BE107E1F7F691241007409F012EE4122
:100A6E007E1C7F95120FD57E1F7F69800A7E167FB2
:100A7E008F80047E187FF7123D8312BE107E1C7F7E
:100A8E00AE020E087E1C7FB7123D8312BE107E1C76
:100A9E007FC0123D8312BE107E1C7FE7123FB11243
:100AAE00BE1012CF027E1E7FEC120E277E1F7F2FEE
:100ABE00123D8312BE107E1E7FCD123FB112BE10AC
:100ACE007E1F7F5D123D8312BE107E1E7FD4123FAD
:100ADE00B112BE107E1F7F69123D8312BE107E1EA4
:100AEE007FE0123FB11210087E1C7FFB123FB11245
:100AFE00BE10901F56E493FFC364809480500BEF9A
:100B0E001240A7900375740E800B901F561240A4CE
:100B1E00900375740FF012886C123E3B12C0BE7EAD
:100B2E001D7F0D123FB112BE10901F57E493FFC3ED
:100B3E0064809480500BEF1240A7900375740E8062
:100B4E000B901F571240A4900375740FF012886C0F
:100B5E00123E3B12C0BE7E1D7F22120F7D123E3B07
:100B6E0012C0BE7E1D7F3D123FB112BE101240A1BB
:100B7E00123F2212886C123E3B12C0BE7E1D7F5663
:100B8E00020E087E1D7F5F123D8312BE1020932B36
:100B9E009001F9E06420701CA3E064537016A3E08A
:100BAE00B452117E1D7F68123D8312BE101242CCCC
:100BBE00D2348002C23412D7358003120E3E7E1D0F
:100BCE007F83020E087E1D7F8C123D8312BE102085
:100BDE00930512F7378003120E3E7E1D7F95020E8F
:100BEE00087E1D7F9E123D8312BE1020930512F7C4
:100BFE003A8003120E4C7E1D7F95020E087E1D7FDD
:100C0E00A7123D8312BE1020931F9001F9E0B4206D
:100C1E0012A3E0B4530DA3E0B452081242CC12E278
:100C2E000280107E187FF780047E1D7F70123D8338
:100C3E0012BE107E1D7FB0020E087E1D7FB9123DC2
:100C4E008312BE107F027E0012E4337E1D7FC2022D
:100C5E000E087E1D7FCB123D8312BE107F037E00D9
:100C6E0012E4337E1D7FD4020E087E1D7FDD123D01
:100C7E008312BE107F047E0012E433E49001CDF0A7
:100C8E007E1D7FE6020E087E1D7FEF123D8312BE93
:100C9E0010E4FFFE12E4337E197F80020E087E1DE3
:100CAE007FF8123D8312BE107F01121036020E081D
:100CBE007E1E7F01123D8312BE107F057E0012E460
:100CCE00337E1E7F0A020E0843EF10020E0E7E1EAA
:100CDE007F13123D8312BE107E1E7F1C123D8312A7
:100CEE0010087E1E7F2B020E087E1E7F34123D835F
:100CFE0012BE107E1E7F3D123D8312BE1020932A1F
:100D0E007E1E7F4D123FB112BE107B017A027967B3
:100D1E0012443412C0BE7E027F677A0279677B016D
:100D2E001242D2D23412D7358003120E4C7E1E7F61
:100D3E0058020E087E1E7F61123D8312BE101241B4
:100D4E00556003020DE2A3E0B42D047F0180027F03
:100D5E0000123F46901F5612411B5072EFC394096A
:100D6E00506CA3E0642E7066A3E0FFE49F505FEF2B
:100D7E009409505A12418CB42D201243BD243212C4
:100D8E00425D9DEC1240C840089001CE74CEF080BA
:100D9E0021C3EF9E9001CEF0801812448874329FCA
:100DAE00FF1242619F9001CE40057432F08003E045
:100DBE002EF0901F56E493FF9001CEE06F60097EF7
:100DCE001F7F56120FDF80167E187FD8800A7E187E
:100DDE007FEC80047E187FF7123D8312BE107E1EBC
:100DEE007F6A80167E1E7F73123D8312BE10D22341
:100DFE007E1E7F7C80047E1E7F85123D8312BE1078
:100E0E00E49002B3F012435C940F500C742C2F122A
:080E1E004172E412431680ED5D
:100E260022A21292387D0312BE107E1F7F63A21289
:100E360092387D0912BE10227E1D7F70A212923852
:100E46007D0912BE10227E1D7F70A21292387D0986
:100E560012BE1022A21292387D0912BE1022A212D0
:100E660092387D0912BE1022A21292387D0912BE56
:100E76001022A21292387D0912BE1022A2129238B6
:100E86007D0912BE1022A21292387D0912BE1022CE
:100E9600A21292387D0912BE1022A21292387D0942
:100EA60012BE1022A21292387D0912BE1022A21280
:100EB60092387D0912BE1022A21292387D0912BE06
:100EC6001022A21292387D0912BE1022A212923866
:100ED6007D0912BE1022A21292387D0912BE10227E
:100EE600A21292387D0912BE1022A21292387D09F2
:100EF60012BE1022A21292387D0912BE1022A21230
:100F060092387D0912BE1022A21292387D0912BEB5
:100F16001022A21292387D0312BE10901F58E4933D
:100F2600FF3395E0FEFDFC9003757402F012886CA9
:100F3600227E1F7F737B017A02792C9003B4E4F042
:100F4600A304F012EE4122E493FFE4FCFDFE9003BD
:100F5600757402F012886CA21292377D0312C0BE1D
:100F6600227E1F7F737B017A02792C9003B4E4F012
:100F7600A304F012EE4122A21292387D0312BE1093
:100F8600901F59E493FF3395E0FEFDFC90037574C2
:100F960002F012886C22A21292387D0312BE102231
:100FA600E490022DF07C1F7D739002EAF0A304F01A
:100FB600FB7A02792C12E86A90022CE0227B017AF5
:100FC6000279B39003B4E4F0A304F012EE4122A236
:100FD6001292387D0312BE10227B017A0179CE90DF
:100FE60003B4E4F0A304F012EE412212BE10900204
:100FF6002EE064202212886CA21292377D0312C062
:10100600BE2212BE107B017A027967A21292377D48
:101016000912C0BE22F0A304F0FB7A02792C12E872
:101026006A90022CE022A21292377D0312C0BE22E1
:0A1036007E0012E4337E197F802251
:0300530002F2AF07
:10F2AF00C0E0C0D0E5BBB41E0875BB0475BCFC80C4
:0EF2BF000675BB1E75BCF8C2EDD0D0D0E03293
:03008B0002DEB6DC
:10DEB600C0E0C0F0C083C082C0D075D000C000C032
:0DDEC60001C002C003C004C005C006C007B3
:10DED30012F652EF30E2337B013023257A0179F7D2
:10DEE3007D3112ABD29001F7E090022CF09001F853
:10DEF300E090022DF09001F9E090022EF0C2238011
:0ADF0300097A02792C7D0F12ABD2CF
:10DF0D00D007D006D005D004D003D002D001D00068
:0BDF1D00D0D0D082D083D0F0D0E03212
:0FF64300EFC4540F75F00AA4FEEF540F2EFF22F0
:10F62300EF75F00A84C454F0FEEF123F054EFF223B
:10DAE90075F43E20B278901F74E49330E01A7E1EDC
:10DAF9007F99123FB112BE1090029BE0123F1D1296
:10DB0900886C123E3B12C0BE90029BE0FF14F0EFFE
:10DB1900C394025049901F74E49330E00A7E1E7F3B
