:0300000002D8170C
:0CD81700787FE4F6D8FD75817002D85EC1
:10D8230002571AE493A3F8E493A34003F68001F2AA
:10D8330008DFF48029E493A3F85407240CC8C33306
:10D84300C4540F4420C8834004F456800146F6DFD5
:10D85300E4800B010204081020408090E316E47E6C
:10D86300019360BCA3FF543F30E509541FFEE493CA
:10D87300A360010ECF54C025E060A840B8E493A391
:10D88300FAE493A3F8E493A3C8C582C8CAC583CABC
:10D89300F0A3C8C582C8CAC583CADFE9DEE780BE74
:01E316000006
:0EF6C200F0EF25E02425F582E43406F58322DE
:03002B0002EBE500
:10EBE500C0E0C0F0C083C082C0D075D018900623A5
:10EBF500E475F001123FE275CBF075CA60C2CFC370
:10EC0500900624E0947D900623E094004009E4F00A
:10EC1500A3F0D22012F47FD0D0D082D083D0F0D010
:02EC2500E032DB
:10F47F00D3900626E09400900625E0948040077410
:07F48F00FFF5F0123FE2223D
:0300730002F4F2A2
:10F4F20053E67F53917F53C77F43C78053C77F43F0
:06F50200C78053C77F32F1
:10EFD000E4900623F0A3F0FF12F6C3E4F0A312F6C8
:10EFE000C2E0547FF00FEFB401EEE4F5C8538E0F8A
:0FEFF00075CBF0F5CA74FFF5CDF5CCD2ADD2CA12
:01EFFF0022EF
:10F5FB00538EF8438E04758902758CEA758AEAD2AC
:02F60B008C224F
:10F5C200E4F59175959E75945875939E759258536E
:03F5D2008EBF22C7
:10F55E00E4F591F595F59475937F7592FF538E3F73
:04F56E00439104229F
:10F60D0012F6C3E0FEA3E07003EE64807002D32215
:02F61D00C32206
:10F5D500ED4C600E12F6C3ECF0A3ED12F6C2E0445A
:03F5E50080F02291
:10D0AE00436C6F636B206D756C7469706C6965721F
:10D0BE0020616C7265616479206C6F636B65642CA2
:10D0CE0020736B697070696E67207265696E697422
:10D0DE00004F534349434E207C3D20307830333B44
:10D0EE002000434C4B4D554C20203D2030783030A5
:10D0FE003B2000434C4B4D554C207C3D2030783826
:10D10E00303B200044656C617920666F7220636C41
:10D11E006F636B206D756C7469706C6965722074C9
:10D12E006F20626567696E200057616974696E676A
:10D13E0020666F72206D756C7469706C69657220F3
:09D14E00746F206C6F636B20000C
:1000030075B28353A9F8E4F586758DCC438E082227
:10F572007586BCE58630E6FBE5A954F84404F5A996
:04F5820053B27F22DF
:10CB0D00E5B930E518901F64E49320E00302CBB241
:10CB1D007ED07FAEA21292387D0902BE63901F6453
:10CB2D00E49330E0077ED07FDF12CBB343B20390A6
:10CB3D001F64E49330E0077ED07FF012CBB3E4F5B1
:10CB4D00B9901F649330E0077ED17F0112CBBD43B6
:10CB5D00B980901F64E49330E0077ED17F1212CB31
:10CB6D00BDE4FFFE0FBF00010EBE01F8BFF4F5439B
:10CB7D00B9C0E4FEFF0FBF00010EBE01F8BFF4F512
:10CB8D00E5B920E517901F64E49330E0F37ED17F83
:10CB9D0037A21292387D0912BE6380E475A9037520
:05CBAD008D30438E08ED
:10CBB20022A21292387D0912BE6322A21292387DFD
:05CBC2000912BE632210
:0D002E000070007000DFF9EE6002DEF422C9
:1010300043757272656E742054696D653A20005371
:10104000657474696E67733A00475053206F6E0081
:10105000475053206F66660044544147206F6E002E
:1010600044544147206F6666005072696E74696E21
:1010700067204750532073656E74656E6365730017
:101080004E6F74205072696E74696E6720475053BA
:101090002073656E74656E6365730053746172745A
:1010A0007570205461736B7320446F6E65004473D8
:1010B000702056657273696F6E3A20004E6F20641F
:1010C00061746120666F7220746865206C6173744E
:1010D0003A0009004461797309486F757273094DCC
:1010E000696E75746573004D616B696E6720737509
:1010F000726520496E746572727570747320656EC6
:1011000061626C656420616E6420736D6242757308
:101110004F70656E0047505320554152542064690A
:101120007361626C65642000475053206973206EC0
:101130006F7420706F77657265640044656C6179C7
:101140006564204750532066697820736176652076
:1011500064756520746F20534D427573207265630A
:10116000657074696F6E004C617267652046696CCA
:10117000652053697A65004E65772046696C652065
:10118000506172746974696F6E200046696C6520E5
:1011900073697A653A00537461727420726F757462
:1011A000696E6520746F204750532073796E630019
:1011B00061626F7274204750532073796E6320739D
:1011C000696E636520475053206973206F6666001F
:1011D0004E65772054696D653A200054696D6553FA
:1011E00074616D706564204453502F4750532053F1
:1011F000796E6300202020204C6173742047505387
:1012000020617474656D70742077617320737563E9
:101210006365737366756C2E2000202020204C615E
:1012200073742047505320617474656D7074206628
:1012300061696C65642120002020202047505320E4
:1012400069732064697361626C65642E2000426179
:10125000747465727920766F6C7461676520697348
:101260003A2000486F75726C792044657465637428
:10127000696F6E20436F756E742073696E636520AD
:10128000506F776572204F4E3A2000546F74616C36
:1012900020446574656374696F6E20436F756E7466
:1012A0002073696E636520506F776572204F4E3AE8
:1012B0002000202020506F6F72205369676E616C90
:1012C00000204E454544532053455256494345213D
:1012D000212100210020000D0A0D0A2D2D2D202A8C
:1012E0002A2A2054524944454E54205348454C4CD8
:1012F0002053544152544544202A2A2A0D0A2D2DA8
:101300002D000D0A2D2D2D20487964726F70686FA5
:101310006E6520636F6D6D756E69636174696F6E64
:1013200020737461727465642E00566F6C7461670B
:10133000652076616C75653A20004D6E54616B6571
:101340004D6561737572656D656E7473205265616C
:10135000642054656D706572617475726520005407
:10136000656D70657261747572652076616C756506
:101370003A20004D6E54616B654D65617375726501
:101380006D656E74732047657474696E6720746947
:101390006C740057616974696E6720706572696F5B
:1013A000642076616C75653A200054696C7420760F
:1013B000616C75653A2000616463476574507265BD
:1013C0007373757265526573756C740050726573D2
:1013D000737572652076616C75653A20004E6F20DA
:1013E00056616C6964204473702056657273696F2E
:1013F0006E20696E20746865205254432D20546F0E
:1014000067676C65206120736F6674776172652011
:101410007265736574206F6620746865204453504C
:1014200020746F2072657472696576652069740036
:1014300057616974696E6720666F7220445350204B
:10144000746F2073656E642076657273696F6E2E9B
:101450002E2E005355434345535321212100496EFD
:1014600076616C69642073657269616C206E756D5C
:10147000626572005374617274206F66204D656DF1
:101480006F7279204361726420496E73657274696A
:101490006F6E004C6F6767696E6720746F205344EE
:1014A000206D656D6F72792063617264206861736D
:1014B000206265656E20696E697469617465642E69
:1014C0000057616974202E2E2E20004C6F67205229
:1014D0006573756D65642061743A20005461674CD2
:1014E0006F674F70656E00536D624F70656E00558B
:1014F0006E6C6F6164696E67206F757220646174D1
:1015000061005461674C6F674F70656E656400538E
:1015100044206D656D6F727920636172642068612B
:1015200073206265656E2072656D6F7665642E004E
:10153000456E64206F66204D656D6F727920636122
:10154000726420696E73657274696F6E20005469ED
:101550006C742043686970204944206E6F74207257
:101560006563656976656400664E657753796E6379
:1015700020526F6C6C6F766572204C6F67696300E8
:10158000756C43756D546F745F4453503A20007509
:101590006C43756D546F743A2000526F6C6C6F76AB
:1015A0006572204164642056616C3A2000756C437A
:1015B000756D546F74203D20756C43756D546F7458
:1015C0005F4453500000664E657753796E63205236
:1015D00054432074696D652061646A757374656431
:1015E000004D697373696E67206D656D6F72792048
:1015F000636172642E005374617274207570202DC3
:1016000020446574656374696F6E73207A65726FC8
:1016100065642E0055534220434D44205265636556
:1016200069766564003C735F5A5F61636B00354D9A
:1016300047505353796E63206973206E6F7720741F
:1016400075726E6564206F6E00354D475053537947
:101650006E63206973206E6F77207475726E656497
:10166000206F666600655F5A5F61636B3E0053657D
:101670006E736F7220726174652069733A20004E38
:101680006F20757064617465204E656564656400E3
:1016900043616E2774207365742053656E736F7297
:1016A0005261746520696E636F727265637420663F
:1016B0006F726D617400536C656570205261746562
:1016C0002069733A200043616E277420736574208B
:1016D000736C656570207261746520696E636F72EA
:1016E0007265637420666F726D617400655F61631B
:1016F0006B3E004E756D626572206F662061736B84
:10170000732069733A200043616E277420736574F7
:101710002061736B207261746520696E636F7272F1
:1017200065637420666F726D6174003C735F615F06
:1017300061636B00655F615F61636B3E003C735F7B
:10174000425F61636B00445441473A206F6E00442E
:101750005441473A206F6666004750533A206F6EF7
:10176000004750533A206F66660035204D696E750C
:1017700074652053796E6320656E61626C656400E8
:1017800035204D696E7574652053796E63206469E8
:101790007361626C6564004750532073656E7465B5
:1017A0006E6365207072696E74696E672069733A42
:1017B000206F6E004750532073656E74656E6365CD
:1017C000207072696E74696E672069733A206F6663
:1017D0006600486F75726C792046696C6573206984
:1017E000733A206F6E00486F75726C792046696C91
:1017F00065732069733A206F6666004461696C798D
:101800002046696C65732069733A206F6E004461ED
:10181000696C792046696C65732069733A206F663C
:10182000660046696C65732064756D70733A206F4D
:101830006E0046696C65732064756D70733A206F35
:1018400066660054656D70657261747572653A20E4
:101850006F6E0054656D70657261747572653A20C3
:101860006F66660050726573737572653A206F6EAD
:101870000050726573737572653A206F6666005426
:10188000696C743A206F6E0054696C743A206F660C
:10189000660053656E736F7220726174653A200042
:1018A0007300475053207361766520696E746572CA
:1018B00076616C3A2000655F425F61636B3E003C7D
:1018C000735F625F61636B004E6F206368616E6778
:1018D0006520696E206F66667365740042616420DE
:1018E00056616C7565730042616420466F726D616C
:1018F0007400655F625F61636B3E003C735F445FD1
:1019000061636B00655F445F61636B3E003C735FC6
:10191000645F61636B00655F645F61636B3E003CA5
:10192000735F455F61636B00655F455F61636B3E3D
:10193000003C735F655F61636B00655F655F61635A
:101940006B3E003C735F465F61636B00655F465FA3
:1019500061636B3E003C735F665F61636B00655F54
:10196000665F61636B3E003C735F475F61636B0062
:10197000655F475F61636B3E003C735F675F6163F8
:101980006B00655F675F61636B3E003C735F485F40
:1019900061636B0043757272656E742054696D6586
:1019A0005374616D703A2000655F485F61636B3E00
:1019B000003C735F685F61636B0054696D657A6FAB
:1019C0006E65205365740054696D657A6F6E65208D
:1019D0006E6F742073657420626563617573652032
:1019E000696E76616C69642074696D657A6F6E6585
:1019F0000054696D657A6F6E65206E6F7420736533
:101A000074206265636175736520696E636F7272BD
:101A100065637420666F726D617400655F685F61F5
:101A2000636B3E003C735F695F61636B0054696D7B
:101A3000652077617320756E61626C6520746F201C
:101A400062652073657420636175736520696E63D8
:101A50006F727265637420666F726D617400655F8A
:101A6000695F61636B3E003C735F4A5F61636B005B
:101A70005072696E74696E67204750532073747298
:101A8000696E6773004E4F54207072696E74696E90
:101A9000672047505320737472696E677300655FE7
:101AA0004A5F61636B3E003C735F6A5F61636B001A
:101AB000496E636F727265637420466F726D6174F4
:101AC000206F7220696E76616C69642076616C7536
:101AD0006500655F6A5F61636B3E003C735F4B5FEF
:101AE00061636B0047505320656E61626C656400F2
:101AF0004750532064697361626C656400655F4B95
:101B00005F61636B3E003C735F6B5F61636B00659D
:101B10005F6B5F61636B3E003C735F6C5F61636B27
:101B200000655F6C5F61636B3E003C735F4D5F619E
:101B3000636B00475053206D6F64656D20276F6E97
:101B40002700475053206D6F64656D206F666600F7
:101B5000475053206F7574707574207265636569A2
:101B60007665204F6E00475053206F757470757402
:101B70002072656365697665204F666600655F4D16
:101B80005F61636B3E003C735F6D5F61636B004739
:101B90005053205072696E74205541525400475082
:101BA00053205072696E742055415254204F46465E
:101BB00000655F6D5F61636B3E003C735F4E5F610C
:101BC000636B004F757470757474696E672064651B
:101BD00074656374696F6E20646174610053746F1F
:101BE00070206F757470757474696E6720646574A5
:101BF000656374696F6E206461746100655F4E5F38
:101C000061636B3E003C735F6E5F61636B00557098
:101C1000646174696E672053657269616C204E75EA
:101C20006D6265720046696E69736865640D0A4E7F
:101C300065772053657269616C204E756D626572BF
:101C40003A200043616E27742073657420534E2040
:101C5000696E636F727265637420666F726D617412
:101C600000655F6E5F61636B3E003C735F6F5F6139
:101C7000636B005570646174696E672053697465A5
:101C80004E616D650046696E69736865640D0A4E44
:101C9000657720536974654E616D653A2000655F14
:101CA0006F5F61636B3E003C735F505F61636B000D
:101CB0004154532D48323020436F6E666967757208
:101CC0006174696F6E2052657175657374207265F9
:101CD000636569766564005265636569766572203F
:101CE0005254432074696D653A20005072657373D5
:101CF000757265204F66667365743A200054656D91
:101D00007065726174757265204F66667365743AAA
:101D1000200054696C742063616C69622E20736CBE
:101D2000656570206F66667365743A200054696C4F
:101D3000742063616C69622E2061736B206F66662C
:101D40007365743A2000655F505F61636B3E003CD1
:101D5000735F705F61636B0054797065283129008F
:101D60004E6F205344206361726420707265736506
:101D70006E7400655F705F61636B3E003C735F5122
:101D80005F61636B00655F515F61636B3E003C7335
:101D90005F715F61636B003C735F525F61636B00F7
:101DA000655F525F61636B3E003C735F725F6163AE
:101DB0006B00655F725F61636B3E003C735F735FD6
:101DC00061636B00655F735F61636B3E003C735FD3
:101DD000745F61636B00655F745F61636B3E003CC1
:101DE000735F555F61636B003C735F755F61636B2D
:101DF000003C735F765F61636B00655F765F616374
:101E00006B3E003C735F785F61636B006765744392
:101E1000757272656E7446696C6500655F785F61A6
:101E2000636B3E003C735F595F61636B0073656E6B
:101E30006443757272656E7446696C650046696CC0
:101E4000654E616D653A2000655F595F61636B3E69
:101E5000003C735F795F61636B00655F795F61630D
:101E60006B3E003C735F7A5F61636B00655F7A5F16
:101E700061636B3E00557362204461746120556E4E
:101E80007265736F6C766564007563526573657413
:101E900042617474657279466C6970466C6F7050FB
:101EA000335F3200756352657365744261747465A3
:101EB0007279466C6970466C6F703A2000445350DA
:101EC00020763A0053697465204E616D653A2000B2
:101ED00046696C65204E616D653A200053657269F4
:101EE000616C204E756D6265723A200046696C65C2
:101EF00020466F726D61742056657273696F6E3A19
:101F000020332E3020200046696C652053746172A6
:101F1000743A200046696C6520456E643A200041A1
:101F2000545320547269746F6E20526563656976EC
:101F30006572204656657273696F6E3A2031312E94
:101F40003231000D0A0000000FFF03020030302E76
:101F50003030003039303030004832302C49532C8A
:101F60004D4E0008000000000000000000000000CE
:101F70000010C4EA61360341006400760061006E1F
:101F8000006300650064002000540065006C00657B
:101F9000006D006500740072007900200053007924
:101FA000007300740065006D0073001E0353006F22
:101FB000006E006900630020005200650063006548
:0E1FC0000069007600650072000F800100705D
:10E317004C029F0C0330003900300030003000C140
:10E3270086C10CC121C116C1874101CE0042023B03
:10E33700000042018100004101CD004101EA014195
:10E34700029E0041028200410281094101F600411B
:10E35700029B0441029C0041023E0041023D0041F4
:07E367000002004102AB00BF
:102DF8009004292430FFE52A75F0800243A7900447
:102E0800262430FFE52A75F0800243A7C4540F2416
:102E180030FFE52A75F0800243A7C4540F2430FE22
:102E2800EF75F0800243A7540F2430FFE52A75F0B0
:102E3800800243A7FF75F00A84E5F02430FEE52AF6
:102E480075F0800243A7540F2430FEEF75F080021E
:102E580043A7540F2430FFE52A75F0800243A75496
:102E68000F2430FEEF75F0800243A7EF75F00A8457
:102E78002430FFE52A75F0800243A7540F2430FE62
:102E8800EF75F0800243A790042F2430FFE52A75E0
:102E9800F0800243A7FF75F00A84E5F02430FEE5D0
:102EA8002A75F0800243A7C4540F2430FEEF75F052
:102EB800800243A775F080EE1243A77420F075F0E6
:102EC80080EE90047D1243A7742CF0EE90047E757A
:102ED800F0800243A7EFF075F080E52A90042C12E9
:102EE80043A77432F0E52A90042D75F0800243A7B9
:102EF800540F2430FEEF75F0800243A7540F24309E
:102F0800FFE52A75F0800243A7EF75F08090045B17
:102F18000243A7E52A90044275F0800243A7900473
:102F280067EF75F0800243A7F075F080EE900478A3
:102F38001243A7742CF0900479EE75F0800243A731
:102F4800EF75F0809004650243A72430FE75F08089
:102F5800E52A0243A7EF75F0809004640243A77541
:102F6800F080EE1243A77420F0EE75F0809004759F
:102F78000243A7EF75F0809004630243A775F080C1
:102F88009004430243A775F0809004440243A77558
:102F9800F08090042A0243A775F08090042702432A
:102FA800A775F08090042F0243A790045F75F08006
:102FB800EF0243A7F090047F75F080EF0243A775F6
:102FC800F0809004350243A775F0809004380243DE
:102FD800A790045E75F080EF0243A77420F0EE75A9
:102FE800F08090043D0243A7EF75F08090045002F2
:102FF80043A7F0E52A75F0809004450243A7F0EE58
:1030080075F0809004760243A7F0EF75F080900485
:103018004E0243A7F0EE75F0809004770243A79024
:10302800045C75F080EF0243A775F0809004660297
:1030380043A7EE75F0809004400243A775F0809096
:1030480004260243A775F08090042E0243A7EF756B
:10305800F08090044F0243A775F08090045D02430E
:10306800A775F0809004250243A775F08090044668
:103078000243A77420F090046D75F080EE0243A718
:1030880075F0809004470243A7EBF09002F5E0FC4E
:10309800900303E0900004FE75F0421243A7E58216
:1030A8002CF582E43583F583E0FF22900111E0FEE0
:1030B800EF75F00EA42411F582E43401F583EEF0E7
:1030C800900112E0FEEF75F00EA42412F582E434AC
:1030D80001F583EEF0900113E0FEEF75F00EA424E5
:1030E80013F582E43401F583EEF0900114E0FEEF6D
:1030F80075F00EA42414F582E43401F583EEF09003
:103108000115E0FEEF75F00EA42415F582E43401F4
:10311800F583EEF0900116E0FEEF75F00EA424168C
:10312800F582E43401F583EEF0900117E0FEEF75C7
:10313800F00EA42417F582E43401F583EEF0900133
:1031480018E0FEEF75F00EA42418F582E43401F5BA
:1031580083EEF0900119E0FEEF75F00EA42419F546
:1031680082E43401F583EEF090011AE0FEEF75F089
:103178000EA4241AF582E43401F583EEF090011BC5
:10318800E0FEEF75F00EA4241BF582E43401F5830C
:10319800EEF090011CE0FEEF75F00EA4241CF58201
:1031A800E43401F583EEF090011DE0FEEF75F00EBA
:1031B800A4241DF582E43401F583EEF090011EE0AD
:1031C800FEEF75F00EA42275F0809004480243A724
:1031D80075F0809004490243A775F080900431028D
:1031E80043A775F08090044A0243A775F0809004C5
:1031F800340243A775F0809004410243A775F0801C
:103208009004320243A775F0809004160243A77514
:10321800F0809004170243A775F0809004180243C9
:10322800A775F08090046F0243A775F0809004376B
:103238000243A775F0809004010243A775F08090BF
:1032480004190243A775F08090043A0243A775F069
:10325800809004020243A775F08090043B0243A7C4
:1032680075F0809004040243A775F08090043C0236
:1032780043A775F0809004060243A77E127FD5A26B
:103288001292387D092275F08090043E0243A7759A
:10329800F0809004080243A775F08090043F024331
:1032A800A775F08090040C0243A775F08090046A1B
:1032B8000243A775F08090040E0243A775F0809032
:1032C800046B0243A775F0809004100243A7900195
:1032D8008EE024D0FFE434FFFE7C007D0A123F45D7
:1032E800A3E024D0FDEC34FFCD2FFFED3EFE7D3C66
:1032F800123F45AA06AB0790018CE024D0FFE434C6
:10330800FFFE7D0A123F45A3E024D0FDEC34FFCD3B
:103318002FFFED3EFE7C0E7D10123F45EF2BFBEE9E
:103328003AFA900190E024D0FFE434FFFE7C007D5F
:103338000A123F45A3E024D0FDEC34FFCD2F2275BF
:10334800F08090046C0243A775F080900412024349
:10335800A775F0809004700243A735F0FA7B0175D9
:10336800F00FE52B1243A7E022E50875F00EA42420
:1033780011F582E43401F583E09001F7F0E5087572
:10338800F00EA42412F582E43401F583E09001F8EC
:10339800F0E4A3F07A0179F77B01A21292377D0954
:1033A80022FE75F080EF0243A775F0809004710249
:1033B80043A775F0809004730243A790080875F03E
:1033C8000FE52B1243A7E02275F08090047A0243A0
:1033D800A775F08090047B0243A7FE75F080EF028A
:1033E80043A790042975F080EE0243A775F080EF9B
:1033F8000243A790080275F00FE52B1243A7E022BD
:1034080075F080EF0243A775F080EF0243A775F0CF
:1034180080EE0243A775F080EF0243A7EFF0900813
:103428000675F00FE52B1243A7E022F583E0900123
:10343800F8F0A3742EF0E50875F00EA42275F0805C
:10344800EE0243A775F080EE0243A775F080EF0205
:1034580043A7EFF09002F5E0FC900303E0FE75F05F
:103468004222900191E024D0FF900002E075F00A1A
:1034780084E5F02275F080EE0243A7EFF09008098A
:1034880075F00FE52B1243A7E022E493FFE4FCFD5F
:10349800FE9003757402F02275F080EF0243A7FDD9
:1034A800C4540F2430F0ED540F2430A3F0229002BE
:1034B800B3EFF0E0FD242FF582E43402F583E02435
:1034C800D090022CF074302DF582E43402F583E0BC
:1034D80090022DF09002B3E02431F582E43402F535
:1034E80083E024D090022EF02275F080EE0243A7EC
:1034F80075F080EF0243A73EF583E538F09002F9B6
:10350800E475F001023FE275F080EE1243A77420E3
:10351800F0229002F71242B4EC4D4E4F22A21292C2
:10352800387D0322780B7C017D017B007A00790DC0
:103538007E007F06123E5078EE7C017D017E007F82
:1035480006023E50EFF090080075F00FE52B12438D
:10355800A7E02275F0429000031243A7E5822FF5F9
:1035680082E43583F58322E47B3CFAF9F89002E79C
:103578001242B4024166EEF0ED75F00EA4229002FC
:10358800F9E0FEA3E0FF9002F0E02FFF9002EFE0E9
:103598003EFE22E090022CF0900230E090022DF0E6
:1035A800900231E090022EF0900232E090022FF06B
:1035B800900233E0900230F022EFF075F042EE22F4
:1035C8007E107F30A2129238E4FD22A80112423AFE
:1035D800EF540FFFEF2430F538D39439229002EFDF
:1035E800E0FEA3E0FF2412F58274043EF58322C3B3
:1035F800E4950CFFE4950BFE740F950AFDE495091C
:10360800FC22901F4AE493FF3395E0FEFDFC2290D4
:103618000190E024D075F00AA4227452F075F0806D
:10362800E52A229002B0E02414FFE433FEC3E54407
:103638009FEE6480F874809822900190E0FF7430C7
:10364800D39F221242B4A804A905AA06AB0722FFF9
:10365800E4FCFDFE90030B7403F022EFF090080ADF
:1036680075F00FE52B1243A7E0227A02792C7B0133
:103678009003B4E4F0A32275F00EA42412F582E4BA
:103688003401F58322E4939001CEF0E49002B3F084
:1036980090022CE0FFE4D39F2290004475F0420290
:1036A80043A72413F582E43401F583E0222415F5B9
:1036B80082E43401F583E022A21292387D0122903F
:1036C800022EE0642022ED75F0421243A7E0FFEEDF
:1036D80022E0FE242CF582E43402F583227F837EE7
:1036E800EC7D027C409001E41242D0D30242299042
:1036F800022CE075F00AA4FF90022EE02F9002B38E
:10370800F090022FE022A3E0FFC3943022241EF59C
:1037180082E43401F583229002F9E0FEA3E0FFC3BE
:1037280022A3E09001F724D0F0900230E024D022C8
:10373800F0E52A75F080A422E490023DF0A3F09011
:10374800029CF02275F010123E76AFF0EF24309014
:10375800020CF0A3747A2274072538F53822EFF0AA
:103768009002F5E02275F080EF0243A7D2B4E4F5A9
:103778000CF50BF50AF509222414F582E43401F559
:1037880083E0222416F582E43401F583E0223EF535
:10379800837420F0E49002F9F0A3F022E0FF900295
:1037A800B3E02FF022E49375F00AA4FFA3E4932F6B
:1037B800FFEC35F0FE229001F8540F2430F0A322DC
:1037C800FDE43CFC9002B3E0FED322900191E0249A
:1037D800D0FF900002E022D39002AEE09405900260
:1037E800ADE06480948022901F48E493FD3395E017
:1037F800FC123FACED4C22742DF0EF3395E0FE7CCB
:10380800FF7DFF023F459002EFE0FEA3E022241176
:10381800F582E43401F58322123ACE9002B81243BD
:103828002D9002BC2275F00AE0A49002B3F0227B2E
:10383800017A0179FA90063B0243E5C2B37DB47C74
:103848002D7F0F2275F03CEF84FFA3E02FF022EFCD
:1038580024D0FF9001CEE075F00AA42FF022900248
:10386800EFE0FCA3E0FD22AF33AE32AD31AC302245
:10387800F09002B3E004F022900190E024D0FFEE33
:1038880075F00A8422A37420F0A3F0901F4CE493EF
:10389800FF2275F010123E76243090020BF022E5DC
:1038A8002B9008031243A7E582252E229002E312EB
:1038B800432D9002E3229002B3E0FFC322E4FAF919
:1038C800F80241661242B47BD57AFF797F783922B3
:1038D8009002EFE075F080227B407A42790F780001
:1038E8009002E322AB0CAA0BA90AA809024229EE0E
:1038F800F0EF75F00A84229002B3E0C3940122909D
:1039080001CEE0FFFD3395E0FCED229002B31242B8
:10391800ECEC4D4E4F22FFE4FCFD9003757407F06C
:10392800222417F582E43401F583E0222419F58274
:10393800E43401F583E022241AF582E43401F583A6
:10394800E022241CF582E43401F583E022E493FDAF
:10395800FB3395E0FAEF6B22A3E493648094B022E2
:10396800EFF0900303E0FD2275F080EF0243A7C259
:1039780095C2A4C29022901F63E493FF22A21292E0
:10398800377D0922900269F0901F54E49322900237
:103998006AF0901F55E4932290026BF0901F56E452
:1039A800932290026CF0901F57E493223CF583E534
:1039B80038F0229002BC12432D9002B822F09001F8
:0E39C800F7E0FFE4D39F229001CEE0FFC32280
:10571A00E49002ADF0A3F0C233A3F0A3F0A37405A2
:10572A00F0E49001CDF0C208C2299001EA04F09099
:10573A00029B7404F0D20153D9BF75C990E4F5FFF6
:10574A0012000312E63C12DA3B12D8A31235C81231
:10575A00BE6312CF5553C77F12F72C12B87F123986
:10576A0077C23512F377C232C2017E107F3F1232FE
:10577A008712BE63901F63E49330E70B12B1FDD228
:10578A00257E107F49800BE4F5E3C296C2257E1080
:10579A007F5012328712BE63901F63E49330E6068D
:1057AA007E107F5880047E107F6012328712BE639B
:1057BA00901F63E49330E40E7E107F6912328712E1
:1057CA00BE63D213800C7E107F8012328712BE63B2
:1057DA00C2137E107F9B12328712BE63E49001E9E6
:1057EA00F012374112F02F78C67C017D017B007AD6
:1057FA0000790D123545901F49E4939001D0F0903D
:10580A001F4AE4939001CCF0E49002ABF0D20690E8
:10581A00022BE510F09002ACE511F0900264E5125B
:10582A00F012F02F1200033031167E107FAE1235BF
:10583A00CC12BE637E1F7F4D12328712BE63C23105
:10584A00201C03309306301C19309316309603E45B
:10585A00F5E312B87F30250512B1FD8005E4F5E3C2
:10586A00C296E5447003025908300705209302D214
:10587A009012362B503790029DE0C39404502E129A
:10588A005F8A75F01E84E5F07010AF0D12F631C014
:10589A0007125F37D007EEB50713302261AF0D123A
:1058AA00F631C007125F37D007EE6F605112362B00
:1058BA0040089002AFE004F08007E49002AFF0A342
:1058CA00F09002AFE0D39403400BA3E02404F090DD
:1058DA0002AFE014F09002AFE0B4C8037404F09091
:1058EA0002B0E02414FFE433FEC3EF9464EE648054
:1058FA0094804003744CF0D234124E26C22C3007E6
:10590A0009209306E5447002C290AF0E12F631C028
:10591A0007125F6ED007EE6F70030259EAAF0D12DD
:10592A00F631C007125F42D007EE6F70030259EAE0
:10593A00302C030259EA90029CE004F0E0B43C0BDC
:10594A0090023EE004F0E490029CF090023EE0B443
:10595A00180990023DE004F0E4A3F090029CE030C4
:10596A00E00C90023EE0700690023DE060667E1018
:10597A007FBC12328712BE6390023DE01234941249
:10598A0088ABA21292377D07125F7990023EE0122D
:10599A0034941288ABA21292377D06125F79900274
:1059AA009CE01234941288AB1233A212C1117E10F9
:1059BA007FD412328712BE6330AF05E5E620E014C9
:1059CA007E107FE712328712BE63D2AF202105C252
:1059DA003512F37790023EE0D39421400312374008
:1059EA00AF0D12F631C007125F42D007EE6F6006A4
:1059FA0043870185878730980312BF4FE4FF12F26D
:105A0A00E3301379AF0D12F631C007125F4DD0079C
:105A1A00EE6F6024309614E5E330E00F7A01798561
:105A2A001233A012C11112CF55800D20960A7E1191
:105A3A007F2812328712BE631237D3FE123475B52D
:105A4A000716123880B50710AF0D12F631C00712CB
:105A5A005F4DD007EEB507171236415012EF943951
:105A6A00500DA3E0FF74309F5005EF9439400E901B
:105A7A0002AD1235081237DF4003125FB8E558D37A
:105A8A00940F5003025CB6202503025CB6303D0336
:105A9A00025CB6900196E064416009A3E06441604B
:105AAA0003025BF9900186E064476003025BF91226
:105ABA0032D6FFED3ECF2BCF3AFE0C7D2C123F574C
:105ACA00ED4C701912346D6F6013901F63E49330BC
:105ADA00E50B9002ABE0C3940A4002C206901F662F
:105AEA00E493FF901F65E4934FFF901F67E4934F81
:105AFA00FFA3E4934FFFA3E4934FFFA3E493F94F6B
:105B0A007003025BF92003651232D6FFED3ECF2BFC
:105B1A00FBEF3AFAC002C003901F671237AD7D3C13
:105B2A00123F45AA06AB07901F651237AD7C0E7D62
:105B3A0010123F45EF2BFDEE3AFC901F69E4937576
:105B4A00F00AA4FFE97A002FFFEA35F0CF2DFDEF26
:105B5A003CFCD003D002AF03AE02123F57ED4C60BB
:105B6A0003025BF912346A6F7003025BF930030AAD
:105B7A007E117F3B12328712BE637B017A017985DF
:105B8A001233A212C111301C6653E6FEE5416004CD
:045B9A00640F7056CE
:105B9E00E49002B2F09002B2E0FF2485F582E43484
:105BAE0001F583E0FE90029DE0540312355BEEF0AA
:0A5BBE009002B2E004F0E0B441DB15
:105BC8009002ABE0FF90029DE054031236A1EFF083
:105BD80090029DE004F07F0412C523C20312361719
:105BE800FFA3E024D02F900002F08002D20343E606
:105BF800019002ABE0D394F04003740AF01237D35B
:105C0800FE1234756F70241238806F701EAF0D123B
:105C1800F631C007125F58D007EE6F600E9002ADE4
:105C28001235081237DF4003125FB8900190E0FF89
:105C3800C39430403FEFD39439503912370E403473
:105C4800EFD39439502EEF1237D7F91234756F60AD
:105C58002312332AFBED3EFAE92401FFE433FE7DEB
:105C68003C123FACEDB5030CECB502089002ABE07A
:105C780004F0800B12346A6F6005E49002ABF012F6
:105C88003641502AEF94395025A3E0FF74309F50D5
:105C98001DEF94395018EF12346E6F6011123617D9
:105CA800900002F0E02FF0E49002ADF0A3F020069F
:105CB80016901F63E49330E50E9002ABE0C3940A9C
:105CC800400512AE83D206125F8A75F00F84E5F0A4
:105CD8007013AF0D12F631C007125F58D007EE6F80
:105CE800600312DB3CAF0D12F631901F4BE493FDBD
:105CF8003395E0FCEF2DFFE43CFE1237EF7020AF48
:105D08000D12F631C007125F63D007EE6F60109076
:105D18001F64E49330E40812384312F000D2B3AFA2
:105D28000D12F6317E001237EF7015AF0D12F631F5
:105D3800C007125F63D007EE6F6005C235128E9AF6
:105D4800309313125F9A20E0051239778052D2956A
:105D5800D2A4D290804AAF0D12F631C007125FADBF
:105D6800D007EE6F603A30070A125F9A20E004B25B
:105D7800A48002C2A4300715AF0D12F631EF75F0FA
:105D88000384E5F07007300D04B2958002C29520B7
:105D9800070E30900BAF0D12F631EF20E002C290E3
:105DA800AF0D12F631C007125FADD007EE6F70036A
:105DB800025E679001C6E50DF053AEFEE5C720E030
:105DC800069002B17402F0202505C296E4F5E3902E
:105DD80001F6E0D394054005200D02D20D9002B1E2
:105DE800E0D394004002D207301C741236E5406FAD
:105DF8007E117F6712328712BE63C234124E26901C
:105E080001EAE0C3942150301236E5402B125FA11D
:105E18007E117F77A21292387D0712BE639001EA45
:105E2800E0FFE4FCFDFE900375F01288AB1233A28C
:105E380012C11112667E80C77E117F8BA212923822
:105E48007D0612BE639001E41242B4900375740B90
:105E5800F01288AB1233A212C111C23512F377AF18
:105E68000E12F631C007125F6ED007EE6F60199000
:105E780001C7E50EF09002B1E0FF7006EFD3940081
:105E880040069002B1E014F0AF0F12F631C00712CD
:105E98005F91AE07D007EE6F700302582B125F9127
:105EA800C007AF0F12F631AE07D007C3EE9F6401EB
:105EB800601A9001C8E0FF12F631C007AF0F12F662
:105EC80031AE07D007C3EE9F64E9705A12397E30AD
:105ED800E002D202EF30E214209311D234124E269F
:105EE800D204C23412F44E12667E80272093319079
:105EF8001F63E49330E1299001C8E0FF12F631EF07
:105F08006417701CAF0F12F631EF7014D234124EB2
:105F180026D200125FA112667EC23512F377800680
:0F5F2800C204C200C2029001C8E50FF002582B5C
:105F37009001C6E0FF12F631AE07229001C6E0FFDE
:105F470012F631AE07229001C6E0FF12F631AE0716
:105F5700229001C6E0FF12F631AE07229001C6E09B
:105F6700FF12F631AE07229001C7E0FF12F631AEFD
:105F7700072212C1117E107FD2A21292387D07121A
:105F8700BE6322AF0D12F631EF229001C8E0FF1277
:105F9700F63122AF0D12F631EF22D23412F44E90C1
:105FA70001EAE004F0229001C6E0FF12F631AE07E5
:0B5FB70022E4F0A3F07F0112ED702245
:10DA3B00C234124E2612F72CC2AF12F4961238458E
:10DA4B0012F0002094FD3094FD2094FDC2B430946C
:10DA5B00FD12377412F02F12352C90010BE0FF12D0
:10DA6B00F69590010B12DAAA90010C12DAAA90012A
:10DA7B000D12DAB390010E12DAB390010FEFF0A38F
:10DA8B00E0FF12F695900110EFF0C23512F377908C
:10DA9B001F63E49330E3057F0712C523D2AF22EF58
:10DAAB00F0A3E0FF12F69522EFF0A3E0FF12F6953C
:01DABB002248
:0D004600C28712384512F000D28702DA3B63
:10AE83009002B3124352000000017E117F961232EA
:10AE93008712BE6320960A7E117FB012328702BEEC
:10AEA30063C234124E2612F72CC2AF20A505123905
:10AEB3001370F89002B312351D7002801A9002B31A
:10AEC3001243520000000130A50512391370F890A7
:10AED30002B312351D7007D2AFC23502F377900269
:10AEE300B31243520000000130A5FDC2B420A5FDFA
:10AEF300123774C23512F3777F0512C52390018C84
:10AF030012361A12AFA38F0F90018E12361A12AF98
:10AF1300A38F0E900190E075F00AA4FFA3E02F2405
:10AF2300F2FF12F6758F0D90022BE0F5109002AC34
:10AF3300E0F511900264E0F51212352C90010BE05C
:10AF4300FF12F69590010B12AF9190010C12AF9185
:10AF530090010D12AF9A90010E12AF9A90010FEF6C
:10AF6300F0A3E0FF12F695900110EFF07F0612C5F3
:10AF73002312ECAB7E117FD01235CC12BE6312CFFD
:0DAF8300557E117FDB12328712BE63D2AF04
:10AF900022EFF0A3E0FF12F69522EFF0A3E0FF12FC
:0EAFA000F69522FFA3E024D02FFF12F67522B3
:10DCB700E511900427122E4EEEF0E511900426127E
:10DCC7002E22EEF0E51090042A122E67EEF0E510F2
:10DCD700C4900429122E67EEF0E51290042F122E3D
:10DCE7004EEEF0E51290042E122E22EEF0E50F9084
:10DCF7000432122E83EEF0E50F900431122EAFEEB0
:10DD0700F0E50E900435122E83EEF0E50EC4900474
:10DD170034122EF8EEF0E50D900438122EF8EEF0DE
:0BDD2700E50D900437122EAFEEF02245
:10E59200ED14601414603014603C2403704690043F
:10E5A20000122F29745B8018900400122FB5745B3F
:10E5B200F0900401122FC0745BF0EF122ED4745D40
:10E5C200122FBC745DF022900400122FDC74201212
:10E5D2002FBC7420F02290040012302A740A122FE9
:05E5E200BC740DF022E5
:05DE25009002EFEFF098
:10DE2A00A3F09002F0E0FFC39404505B7D0312E577
:10DE3A00929002F0E0900439122E00742EF0E4F56C
:10DE4A0038F53974672539F58274023538F583E077
:10DE5A00FF9002F0E0900401122E0EE5822539F5BA
:10DE6A0082E5833538F583EFF00539E53970020527
:10DE7A00386419453870CC9002F0E0FF12A0449043
:0DDE8A0002F0E004F0809B9002EFE0F51341
:01DE97002268
:10E7D2009004241233F4742CF0EF1230697420F098
:10E7E2009004281233F4742FF090042B123408741E
:10E7F2002FF09004301234087420F0900433123455
:10E802000F743AF090043612340F743AF090042CDC
:0EE8120012341D7432F0EF122EEF7430F0222B
:02A04400AE0765
:10A0460090041A122F41742CF0E4F53AF53B74593A
:10A05600253BF582741F353AF583E493FF90041B84
:10A06600123081E582253BF582E583353AF583EFAB
:10A07600F0053BE53B7002053A6409453A70CFAFFF
:10A086000612E7D212303A742CF0EE1231FC74202C
:10A09600F0EE122F1D7447F0EE122F857437F0EE96
:10A0A600122F8E7432F090044B1233ED742CF09014
:10A0B600044C1234167420F0900472122F67742F19
:10A0C600123006743312301C7431122F3012307B6A
:10A0D600742CF090046E122EBC7420F090044D1275
:10A0E60034167420F0900451123445742CF0900408
:10A0F600521234457420F0901F64E493FF20E41557
:10A10600EE122FF17441F0EE123057742FF0EE126A
:10A116003013744EF090045512344C742EF09004A3
:10A126005812344C742CF090045912347C7420F07C
:10A1360090045A12347C7420F0EE122F12E0D3945D
:10A1460039500D75F080EE122F15E0C3943050098A
:10A15600EE1230607441F0800A75F080EE123063C2
:10A16600742EF09004601234F1742CF09004611295
:10A1760034F17420F0EF75F08030E309EE123034DC
:10A18600742EF08023EE900467123513EE123031F0
:10A196007420F0EE122F497441F0EE122F5E742FE8
:10A1A600F0EE122F7C744EF090046212350F75F0AB
:10A1B60080EE9004681243A7742CF090046912355F
:01A1C6000F89
:01A1C7002275
:10F3940012F02F9001F0E50FF0A3E510F0A3E511B2
:0CF3A400F0A3E512F09001EFE50EF0225E
:10F23E0012CF5530250F3010067E117FF4800A7ED6
:10F24E00127F1A80047E127F3812328712BE63023A
:02F25E00C9974E
:10CF5500303E0302D001E511C4540F2430FD900189
:10CF6500F7B430057420F08002EDF0E5111237BEFC
:10CF7500742FF0E510C41234AFE5101234AFA3746A
:10CF85002FF0E512C41234AFE5121234AFA37420AA
:10CF9500F0E50FC4540F2430FDB43006A37420F01F
:10CFA5008005900200EDF0E50F9002011237C17483
:10CFB5003AF0E50EC41234AFE50E1234AFA3743A5D
:10CFC500F0E50DC41234AFE50D1234AF12388DFD06
:10CFD500C36480948090020A50071237FFAD078022
:10CFE50003742BF0ED12389AED12374C1233981268
:0CCFF500C1117D179001F7E4F0A3DDFCF2
:01D00100220C
:10C8DC00303E0302C9969001F2E0FFC4540F24309D
:10C8EC00FE9001F7B430057420F08002EEF0EF12E8
:10C8FC0037BE742FF09001F1E09001FA1234A7A327
:10C90C00742FF09001F3E09001FD1234A7A3742072
:10C91C00F09001F0E0FFC4540F2430FE900200B4FC
:10C92C0030057420F08002EEF0EF540F24309002AA
:10C93C0001F0A3743AF09001EFE0FDC4540F2430E1
:10C94C009002031234ADA3743AF09001EEE0FDC4F2
:10C95C00540F24309002061234AD12388DFEC3648D
:10C96C0080948090020A50071237FFAE0780037440
:10C97C002BF0EE12389AEE12374C12339812C1117A
:0AC98C007E179001F7E4F0A3DEFC33
:01C99600227E
:10C997007E127F4E1235CC12BE6312343E1236AA77
:10C9A700FF12F18312343E123780FF12F1837F2E7C
:10C9B70012F18312343E1236B5FF12F18312343E60
:10C9C70012378BFF12F1837E127F63A21292387D9A
:10C9D7000812BE63786DE6FE08E612391E1288ABB0
:10C9E70012398512C1117E127F8B1236C012BE63B7
:10C9F70090062E1242B4900375740CF01288AB1295
:10CA070033A212C111301A3DD3786EE6940018E6AE
:10CA1700940040319001F6E004F07E127FB21236A6
:10CA2700C012BE639001F6E0D39406400E7E127FDB
:10CA3700C11236C012BE63D20D800A7E127FD31296
:0BCA470036C012BE6312328302BE63D1
:10E63C0075F1BF75F2FF75F3FF75F47E75F5FF7517
:10E64C00A41D75A5E775A61975A77A75AE8075D446
:10E65C00C875D5FF75D61975DFFF75E10775E240F2
:10E66C0075E301C22AD2A075C70312F21A7E127F7B
:10E67C00D71235CC12BE637E137F0212328712BEC4
:04E68C0063C2B4228F
:108E9A00E4F529F52A12C6A4901F64E49330E63853
:108EAA00203E357E137F2A12352512BE6312343EC8
:108EBA001236AA9001F712343D2414F582E43401E3
:108ECA001234331236B59001FA12343D12378B90B0
:108EDA0001FB12339812C11112343E123780FFB4CB
:108EEA00340B12343E1236B5D394354006EFD39480
:108EFA0033500D12343E1236AAB43004C20780022F
:108F0A00D207E4F508C21F901F649330E25512A7F6
:108F1A002B901F64E49330E00A7E137F3A12328763
:108F2A0012BE63901F64E49330E638203E357E1308
:108F3A007F5F12352512BE6312343E123929900121
:108F4A00F712343D2418F582E4340112343312390D
:108F5A00349001FA12343D12393F9001FB123398D2
:108F6A0012C111901F64E493FF30E47A30E00A7E64
:108F7A00137F7312328712BE63752900752A019016
:108F8A0001CCE0FFC3E52A9FE5299400503DC23792
:108F9A0012AD55901F64E49330E0259001CCE0C3F4
:108FAA00952AFFE49529FEC3EF9405EE940050102C
:108FBA007E137F9312352512BE6312337112C111CB
:108FCA00052AE52A70020529028F89901F64E49315
:108FDA0030E613203E107E137FAA12352512BE6397
:108FEA0012337112C111901F64E49330E30E1238E8
:108FFA004312F0003025057F0112ED70901F64E4E2
:10900A009330E35D12B778901F64E49330E00A7EF0
:10901A00137FB712328712BE63901F64E49330E65F
:10902A0040203E3D7E137FCC12352512BE6312349A
:10903A003E12394A9001F712343D241DF582E43478
:10904A0001123433123715E09001FA12343D241F0D
:10905A00F582E43401F583E09001FB12339812C1E2
:10906A0011D2B312F5E87F011230B3123715EEF0C0
:09907A000FEF640870F27508079D
:0190830022CA
:10E954009003041243E5803A90030BE0D394004003
:10E9640039E014F0E47B0AFAF9F8900307123578D9
:10E97400EB2430FF9003041243C590030BE0F582AF
:10E98400758300EF123F239003071242B47B0A12EF
:0BE9940038C590030712432D80BE22FF
:10943D00D234E49002B4F0A3F09002B41237229427
:10944D0034EE9400501474F72FF58274013EF583B9
:10945D00E4F09002B412350980DF900241742FF0D0
:10946D00900244F09002497420F090024C743AF04E
:10947D0090024FF012CBC790023BE0FEA3E0FF4EEF
:10948D00601A901F461239557002EE6A600EED702B
:10949D000B7E1F7F467A02793B1295FF900181E08A
:1094AD00FEA3E0FF4E601A901F471239557002EE71
:1094BD006A600EED700B7E1F7F477A0179811295E0
:1094CD00FF901F4DE493C3648094B0401212396035
:1094DD00400D901F501239614005123960503FC246
:1094ED00117E137FDD12328712BE63D2B4C2877D27
:1094FD00407C067F0112F000D287C2B4D2B4C235CF
:10950D0012F37720110C7E147F3012328712BE6356
:10951D0080F17E147F5312328712BE638002D21106
:10952D009002B3E0C394055051E4A3F0A3F0900270
:10953D00B41237229405EE9400502674532FF58201
:10954D00741F3EF583E493FFD3648094B95008C330
:10955D00EF648094B05002C2349002B4123508808A
:10956D00CD901F5CE493642C6002C2349002B3E092
:10957D0004F03034AB740AF080A620340C7E147FD6
:10958D005E1235CC12BE63801AC213C222C22512DE
:10959D00397E30E402D213EF30E602D222EF30E70B
:1095AD0002D22512C4619002677453F0A314F09097
:1095BD001F53E49312398C1239961239A01239AA1D
:1095CD0090026DF012397E30E20890026E7448F010
:1095DD00800FEF90026E30E1057444F08003745FEC
:1095ED00F09002667404F0D235128E9A12F777025B
:0295FD00C46147
:0D95FF007B019003B4F0A304F012EE932260
:10B87F00E49002B3F0C295D2A4C29012F02F901FA1
:10B88F0064E49330E0107E147F7412328712B97D16
:10B89F0012328312BE6330930302B94C301C030281
:10B8AF00B95E9001EBE0600302B95EC20F7E147FB8
:10B8BF009312328712BE6312C9977E147FC1123260
:10B8CF008712BE639001E8E060527E147FCB123581
:10B8DF00CC12B97D12667E901F64E49330E00A7E2D
:10B8EF00147FDC12328712BE63C23512F377901FBA
:10B8FF0064E49330E0067E147FE78018E544D39428
:10B90F00004019C234124E26901F64E49330E0ECCD
:10B91F007E147FEF12328712BE6380E09001E8E061
:10B92F007014901F649330E00A7E157F02123287E5
:10B93F0012BE6312667EC23512F3778012301C0F6F
:10B94F007E157F0F12328712BE63D23412F44E90DF
:10B95F001F64E49330E01612F02F7E157F30123201
:0DB96F008712BE6312CF5512328312BE63E1
:08B97C002212BE6312CF552216
:10F2E300E5C930E60E201208D212EF701012D200D8
:0EF2F30002008E301202C212E4F5A9F5B92213
:088AAE009002EFEEF0A3EFF0DF
:108AB600900183E0F539A3E0F53A12379C12371F8F
:078AC6009404EE94005047F8
:108ACD00C374039FFFE49EFEEF7802C333CE33CE13
:108ADD00D8F9FF9002FBEEF0A3EFF0AE39E53AA81E
:108AED0007088005CEC313CE13D8F9540F1235DD08
:108AFD00400674272538F53812358674012FF58216
:028B0D007404EE
:108B0F001234FF80AF12380E2405F5827404123729
:018B1F0096BF
:108B200012371F74059FFFE49EFEEF7802C333CE19
:108B300033CED8F9FF9002FBEEF0FAA3EFF0FB90F2
:108B400002F51242B4A9031235D3400312375F1263
:098B5000358674062FF5827404C9
:108B59001234FF9002F9E07004A3E0640670B812C1
:108B69003866240CF58274043CF5837420F0786F20
:108B7900E6FAEAC4540F2430F538740D2DF58274E1
:108B8900041239B4D39439400312375FEA540F12EF
:108B990035DD400312375F123866240EF5827404FE
:108BA9001239B4786FE6FA08E6FBEAC4F854F0C85B
:108BB900EBC4540F48540F1235DD400312375F746C
:108BC9000F2DF58274041239B4EB540F1235DD40C0
:108BD9000312375F12380EFF2410F58274043EF534
:108BE90083E538F0302610B4300D74102FF58274F7
:108BF900043EF5837448F074112FF582740412371A
:108C09009612371F9408EE94005026C374079F25C7
:108C1900E025E0F99002F11242B41235D340031273
:108C2900375F12358674122FF58274041234FF806F
:108C3900D020250B12380E1235ED7444F0801E3009
:108C4900060B12380E1235ED744CF080101235E512
:108C5900E0B4300974122F1235EF7445F0300C135B
:108C69001235E5744CF074132FF58274043EF583C4
:108C79007442F090029CE0FF75F00A842430FE12E1
:108C890038662413F58274043CF583EEF0EF123450
:108C9900752430FF74142DF58274043CF583EFF0CC
:018CA90022A8
:0BF000009002E3EFF0A3ECF0A3EDF0B2
:10F00B00E4A3F09002E3E0FF9002E6E0C39F50130D
:10F01B009002E4E0FEA3E0FF12002E9002E6E00473
:03F02B00F080E092
:01F02E0022BF
:10AD550030372AE5087005752C078005E50814F5D8
:10AD65002CE52C12367FE0FF12343E123683EFF0CD
:10AD7500E52C75F00EA4123816E002AE6F12AE790E
:10AD8500D23812C39D8E2D8F2EC23812C39D8E2FA1
:10AD95008F3012AE79AC2DAD2EEC123BD99002B8A6
:10ADA50012432DAC2FAD30EC123BD91239BB123802
:10ADB500CC1238201238CC123ACE1239BB12364B8F
:10ADC50012382012364B123ACE9002BC1238261297
:10ADD50042B49002B81242D01239DD12D00612EDFB
:10ADE500AC7BE67A2E79657842123ACEE4FBFAF925
:10ADF500783F1239DD123C129002B6EEF0A3EFF067
:10AE05009002B7E0F52BE53264517004E531643FFB
:10AE15006024752B639001CDE0C39414500A7E1510
:10AE25007F4E12328712BE639001CDE0C394195054
:10AE350014E004F0800FE532B4510AE531B43F0562
:10AE4500E49001CDF0E52BB4FF03752B5AE52B12E9
:10AE550034752430FF12343E123683EFF0E52B753E
:10AE6500F00A84F52B1234752430FF12343E123863
:03AE750016EFF0E5
:0BAE7800227F4A12DABC8E318F32229A
:10D2000090029F740CF0A37403F0E49002A2F090DB
:10D2100002A4F09002A6F09002A8F0901F53939001
:10D2200002A1F0901F54E4939002A3F0901F55E4E4
:10D23000939002A5F0901F56E4939002A7F0901FE0
:10D2400057E4939002A9F0E4A3F012EB5A901F71F7
:10D25000E493FE740193FF901F73E493FC740193B5
:10D26000FD7BFF7A1F79AB9002BA1243E57B017A0E
:10D2700002799F9002BD1243E5901FC9E49390028A
:10D28000C0F0901FCAE4939002C1F0901FCBE493CA
:10D29000FB7401939002C2CBF0A3EBF07BFF7A1FEB
:08D2A000797512AAEE02F41CDC
:085FC2009002EFEFF0A3EDF0F7
:105FCA00C235C2361238D8A4FF9002F1E5F0F0A328
:105FDA00EFF0E4A3F0A3F09002FB1243520000009A
:105FEA00009002FF12435200000000900265E05444
:105FFA0003900303F07E119000031236A4E5822E6B
:10600A00123567E0B42C04C2358002D235E490021E
:10601A00F5F0A3F09002F5E0FFC394404003026359
:10602A0056900303E0FA12355BE0FBB42C119002A0
:10603A00F6E004F0A31243520000000002634D9000
:10604A0002F6E024FD70030260E614700302617533
:10605A0014700302618B14700302624124FD700301
:10606A000262742408600302634D12351A60030247
:10607A00634D9002EFE0FD900431122E1C12309114
:10608A00ED1232051235C19000051230A39002EFCD
:10609A00E0FD900434122E29123766FC900303E0C7
:1060AA0090000612309FED122FC71235C1900007DB
:1060BA001230A39002EFE0FD900437122E36123709
:1060CA0066FF75F042EA9000081243A7E5822F1294
:1060DA0030A975F080ED90043802623A12351A60E0
:1060EA000302634D9002EFE0FD900401122E481264
:1060FA003091ED1232561235C19000051230A3903C
:10610A0002EFE0FD900403122E5412345A90000656
:10611A001230A3ED1232681235C19000071230A373
:10612A009002EFE0FD900405122E6112345A90009D
:10613A00081230A3ED12327A1235C19000091230DA
:10614A00A39002EFE0FD900407122E6D12345A90CC
:10615A00000A1230A3ED1232971235C190000B12C9
:10616A0030A31238D890040902623A12351A600331
:10617A0002634D9002EFE090040A122E7DEB026357
:10618A003312351A600302634D9002EFE0FD90046A
:10619A000B122E89123091ED1232A91235C19000DC
:1061AA00051230A39002EFE0FD90040D122E971213
:1061BA00345A9000061230A3ED1232BB1235C19048
:1061CA0000071230A39002EFE0FD90040F122EA9EF
:1061DA0012345A9000081230A3ED1232CD1235C192
:1061EA009000091230A39002EFE0FD900411122EE4
:1061FA00B612345A90000A1230A3ED1233501235F7
:10620A00C190000B1230A39002EFE0FD900413122C
:10621A002ED7123766FF900303E075F04290000C08
:10622A001243A7E5822F1230A975F080ED9004146D
:10623A001243A7EF02633312351A600302634D90CB
:10624A0002EFE0FE900415122EF2EBF0EE12320E7F
:10625A007420F0EE1232177420F0EE1232207420FD
:10626A00F0EE123244742002633312351A600302CC
:10627A00634D9002EFE0FD900429122EFE12309138
:10628A00ED122F971235C19000051230A39002EF3C
:10629A00E0FD900426122F0B12345A900006123099
:1062AA00A3ED122FA01235C19000071230A390025D
:1062BA00EFE0FD90042E122F20123766FC900303A4
:1062CA00E075F0429000081230A3ED122FA9EFF00A
:1062DA0074862CF582E43401F583E024D0FFEB12B6
:1062EA00361B2FFF12F67590022B123766FE248793
:1062FA00F582E43401F58312361AFF74882EF5828A
:10630A00E434011266739002AC123766FE2489F5F2
:10631A0082E43401F58312361AFF748A2EF582E478
:10632A003401126673900264EFF09002F71242B4DD
:10633A00EF2401FFE43EFEE43DFDE43CFC9002F75D
:10634A0012432D9002F5E004F002601E9002EFE085
:10635A00FF122F1D7447F0EF122F857450F0EF12C1
:10636A002F8E7453F0EF122FFD7420F0EF1230725B
:10637A007446F0EF1230887469F0EF1231CF7478F6
:10638A00F0EF1231D87420F0EF1231EA742012398A
:10639A006975F04290000B1243A7E0FF9002EFE00C
:1063AA00FE900432122F2AEFF090000A1236CE1213
:1063BA0031E112396890000D1236CF122FC7EFF073
:1063CA0090000C1236CE1231F312396875F04290F1
:1063DA00000F1236D2122FD0EFF075F042ED900076
:1063EA000E1236D2123232EFF0EE12324D7430F013
:1063FA00EE12325F7420F0EE123271122FE3122F76
:10640A00E37420F0EE12328E7420F0EE1232A07491
:10641A0020F012303A742CF0EE1232B27420F0EE00
:10642A001232C47420F0EE12334712307B742CF00F
:10643A0075F080EE90046E123513EE123229742034
:10644A00F0EE1233597420F0EE1233B17420F07565
:10645A00F080EE900472123513EE1233BA7420F003
:10646A00900474122F677420123006742012301CA4
:10647A007420122F307420F0EE1233D07420F0EE14
:10648A001233D97420F090047C122EBC7420F012BE
:10649A0033EA12364440030265271233EAE0D39402
:1064AA0039507A75F080EE122F9A123644506E7572
:1064BA00F080EE122F9AE0D394395061EE123044F4
:1064CA00123644505875F080EE123047E0D39439B2
:1064DA00504B75F080EE122FA3123644503F75F0E0
:1064EA0080EE122FA3E0D394395032EE12304D12BF
:1064FA003644502975F080EE123050E0D39439506A
:10650A001C75F080EE122FAC123644501075F080D4
:10651A00EE122FACE0D39439500302664D9002EF8D
:10652A00E0FF900429122F427437F0EF122F97746C
:10653A0037F0EF1230447437F0EF122FA07437F0AF
:10654A00EF12304D7437F0EF122FA97437F0EF12B3
:10655A0031E17430F0EF1232057430F0EF1231F39A
:10656A007430F075F080EF122FCA7430F0EF1232E7
:10657A00327430F0EF122FD07430F0EF12323B74D5
:10658A0044F0EF1232567441F090040312341D7431
:10659A0054F0EF1232687445F090040512345374C3
:1065AA0020F0EF12327A7449F090040712345374CF
:1065BA0053F0EF1232977420F09004091234A07449
:1065CA0049F090040A1234A0744EF090040B12346D
:1065DA00F87456F0EF1232A97441F090040D123497
:1065EA00F8744CF0EF1232BB7449F090040F123772
:1065FA006D7444F0EF1232CD7420F090041112370A
:10660A006D744FF0EF1233507452F075F080EF90C2
:10661A0004131235139004141239707446F090045E
:10662A00151239707449F0EF12320E7458F0EF12E5
:10663A0032177420F0EF1232207449F0EF1232440C
:10664A007453F01238D8A4246AF9740435F0FA7B2A
:10665A0001900303E01236A1E012365712E9549072
:08666A000265E004F0E4F558BC
:0C66720022F583E024D02FFF12F67522E1
:10AFAE00901F64E493FE30E41EED12367FE0FC1237
:10AFBE002FF0EC12357F123816E0FC123056EC12E0
:10AFCE0030117420F08011122FF07441F0123056AF
:10AFDE00742F123011744EF0EE30E235ED75F00E26
:10AFEE00A412393FFE122FB212357E123934FE12E0
:10AFFE002FD912357E2418F582E43401F583E0FE54
:10B00E0012302712357E123929FE122F11EEF080E2
:10B01E001F122FB27420F0122FD97420F0EF1230BD
:10B02E00607441F0123027742FF0122F11744EF00D
:10B03E00ED75F00EA412378B9004571233A912350A
:10B04E007E1236B59004561233A912357E12378011
:10B05E009004541233E212357E1236AA9004531223
:10B06E0033E2EEF0901F64E49330E33CED75F00EA6
:10B07E00A4123715E0FE122F2612357E241DF582FE
:10B08E00E43401F583E0FE122F4812357E12394A60
:10B09E00FE122F5D12357E241BF582E43401F583FA
:10B0AE00E0FE122F7BEEF022122F267420F0EF120C
:10B0BE0030317420F0122F487441F0122F5D742F2E
:08B0CE00F0122F7B744EF022FA
:104E2600E4F533F532F531F530F537F536F535F588
:104E3600349002E712435200000000E49002EBF0C7
:104E4600A3F0E544700302570F301C03309309208A
:104E560012062034030256F412F72CE4F5E3851308
:104E66002A301C0920930612F46712F783E4F52B07
:104E7600E52BC3954440030256E5AF1312DE25E544
:104E86002AC3940440030256A91233C3FF64046084
:104E96000EEF64056009EF64066004EFB40704D200
:104EA6000B8002C20B9008001233C6FEA3E0786F97
:104EB600A60608F690080D1233FE540FF52C300B9B
:104EC60003025086E4F52E752F03752F03E52F7523
:104ED600F00F20E00F1238A7123567E0540FF52DBA
:104EE600052E800C1238A7123567E0C4540FF52D35
:104EF6007430252DF52DD3943940067407252DF5EC
:104F06002D122F1BE582252F123567E52DF0052F73
:104F1600E52FB409B81233FBC413135403F52E144A
:104F2600600F14601114601324037012752FEE8045
:104F36000D752FEF8008752FF08003752FF112374E
:104F460039246FF9740435F0FA7B01AF2F12365805
:104F560012E9541233FB543FF52D12347590047444
:104F6600122DFBEFF0E52D75F00A84F52D12347540
:104F7600900473122E09EF123738246AF9740490DC
:104F8600080812336212365712E954123739247A56
:104F9600F9740490080C12336212365712E95490D1
:104FA600080C123429D39464400BC21AE49001F61B
:104FB600F0C20D800B301A069001F6E004F0D21A0A
:104FC600123485FFE4FCFDFEFBFA7901F81240DBA2
:104FD6001238B41242B4C006C00790080A123488C8
:104FE6007B00FAE4F9F8D007D0061240C01238B4B4
:104FF6001242D090080B123551FFE4FCFDFE124020
:10500600C09002E312432D123426FEA3E0FF900166
:1050160083EEF0A3EFF0E48F338E32F531F530AD49
:1050260031AC307B0FFAF9F81240DB8F338E328DBC
:10503600318C301238E0123578E5332FFFE5323EF9
:10504600FEE5313DFDE5303C8F338E328D31F53056
:10505600123739243AF9740435F0FA7B01C003C0DB
:1050660002C0011238E0123578AC00AD01AE02AFD5
:105076000390030B7406F0D001D002D00312E9545A
:10508600AD2CAF2A12AFAE300B0302540D12386F9F
:10509600D31238EC50030251BA7E157F681235CC14
:1050A60012BE637E157F801236C012BE63AF0CAE91
:1050B6000BAD0AAC091257101233A212C1117E159C
:1050C6007F8F1236C012BE6312386F12571012331A
:1050D600A212C1117E157F9A1236C012BE63123516
:1050E600F7900375740CF01288AB1233A212C1113B
:1050F6001235F7E47B587A02F9F8D3124229507038
:1051060090029CE02402FFE433FE3395E0FDFCE4CC
:105116007B3CFAF81240DBC004C005C006C007900D
:10512600023EE0FF7E007C0E7D1012447E12364E5B
:10513600D007D006D005D0041240C0C004C005C0B8
:1051460006C00790023DE0FFE4FCFDFE7B807A513D
:105156007901F81240DB12364ED007D006D005D0C2
:10516600041240C012364E1235F7D312422940249B
:105176007F017E007D0F7C00C31238EC5016C3E41D
:10518600950CFEE4950B9002EBF0A3CEF0D20E1236
:1051960037768016850C33850B32850A31850930C2
:1051A6007E157FAD1236C012BE637E157FC51232E4
:1051B6008712BE63C3E533950CFFE532950BFEE51A
:1051C60031950AFDE5309509FC9002E712432D90D2
:1051D60002E71242B4EF250CFFEE350BFEED350A61
:1051E600FDEC35098F0C8E0B8D0AF5099002E7123E
:1051F60042D09002EBE0FEA3E0FFE4FCFD1240C0CB
:105206009002E712432D9002EBE07002A3E06007E4
:10521600E49002EBF0A3F0E4FFFEFDFC9002E7123F
:1052260036F0500302532E12356F90010BE02BF02F
:1052360012356F7B3C1238C590010CE02BF0E47BF5
:10524600107A0E123573E47B181238C690010DE001
:105256002BF07B807A517901780012357590010E1A
:10526600E02FF090010BE0FFC3943C400E12384C47
:1052760090010BE075F03C84E5F0F090010CE0FF46
:10528600C3943C400E12384C90010CE075F03C84FF
:10529600E5F0F090010DE0FFC39418401175F01889
:0E52A60012384F90010DE075F01884E5F0F01D
:1052B40090010FE024FC602B24FE602724FD602372
:1052C40024FE601F24097026900110E05403700529
:1052D400FE7F1D80047E007F1C9002EDEEF0A3EFA4
:1052E400F080149002EDE4F0A3741EF080099002A3
:1052F400EDE4F0A3741FF090010EE0FFFD9002EDC9
:10530400E0FAA3E0FBC39D7480F8EA648098501A25
:10531400C3EF9B90010EF0A3E004F0E0D3940C40A3
:085324008F7401F0A3E004F016
:10532C00808690010DE0900432122E3CEEF0900439
:10533C0031122E73EFF090010CE0900435122E9D7B
:10534C001238F7900434122E92EFF090010BE0908B
:10535C000438122E9DEEF0900437122E73EFF0905D
:10536C00010EE0FF12347590042A122F521238F7F6
:10537C00122DF8EFF090010FE0900427122E3C1242
:10538C0038F7122E06122EDD7430F0900110E0FF6B
:10539C0075F00A8490042E122F52EEF0EF12347531
:1053AC00122E8FEF1236249004391243A7742EF06C
:1053BC00300E4B7E157FC612328712BE6390010FE2
:1053CC00E0FF12F6758F1190010EE0FF12F6758F4B
:1053DC0010900110E0FF12F6758F1290010DE0FF96
:1053EC0012F6758F0F90010CE0FF12F6758F0E9070
:1053FC00010BE0FF12F6758F0D12ECABC20E1237DB
:10540C0040E52A1230697420123738FFAEF0C0061E
:10541C00C00712386F9002F11238B71242B49002E2
:10542C00F512432DD007D006128AAE302229E4FDA6
:10543C00AF2A12E592AF2A12A0441237392400F990
:10544C00740435F0FA7B01A21292377D0A12C11155
:10545C007D03AF2A12E5921233C3FF6405600DEF92
:10546C0064066008EF6407600302550A200B030210
:10547C00550A1233FB900431122E14EFF01233FB49
:10548C00900432122E2F12354CC4900434122E5A22
:10549C0012354C900435122E5A123424C490043711
:1054AC00122F04123424540F2430FF75F080E52A97
:1054BC00122FD3123483C4540F122DF8123483904C
:1054CC00042A122E2F123663C4540F122E061236D3
:1054DC0063900427122F04122EDD7430F090080C08
:1054EC0012366890042E122E14EFF075F00FE52B87
:1054FC0090080C1243A7E0540F122E8FEFF0AF2A36
:10550C0012A0441233C3FDB40405AF2A125FC212B9
:10551C0033C3FF6405600DEF64066008EF64076039
:10552C0003025693200B03025693EF6405701A1274
:10553C002F1B7450123624122F88123622122F91E0
:10554C007445122FFA745680431233C3640675F0F7
:10555C0080701CE52A9004421243A7744E12362424
:10556C00122F887445123624122F9174578018E527
:10557C002A9004421243A7123622122F8874531217
:10558C003624122F917454122FFA7420F0E52A123B
:10559C0030727420F0E52A1230887454F0E52A1227
:1055AC0031CF7449F0E52A1231D8744DF0E52A1246
:1055BC0031EA7445F0E52A1232297420F0E52A12FA
:1055CC0033597420F0E52A1233B17420F0E52A1215
:1055DC0033BA7420123624900474123513E52A124F
:1055EC002F727420F0E52A1230087420F0E52A128C
:0555FC00301E7420F0D8
:10560100E49002EDF09002EDE0FFC394195013E530
:105611002A12323B1235647420F09002EDE004F05E
:0256210080E324
:10562300E52A12324D7430F0E52A12325F7420F00D
:10563300E52A1232717420F0E52A122FE77420F064
:10564300E52A12328E7420F0E52A1232A07420F07B
:10565300E52A12303B742CF0E52A1231FC7420F059
:10566300E52A1232B27420F0E52A1232C47420F013
:10567300E52A1233477420F0E52A1233D07420F060
:10568300E52A1233D9742012362490047C12351380
:10569300852A13052A052BE52B65446003024E85F5
:1056A300752A04024E85301C33209330AF13051343
:1056B300EFC39403400E7D017F007E0212E12EE4CE
:1056C300F5138018E5132401FFE433FEEF7807C3D5
:1056D30033CE33CED8F9FFE4FD12E12EE4F52A02EE
:1056E3004E76301C0C20930912F46712F78312C70D
:1056F30062202107C23512F377800312F43575E374
:0C57030001C22BE490029DF0900265F0C2
:0B570F0022900375740CF01288AB228E
:10D8A300D205D295D209D2A4D20AD290D21AC20DED
:10D8B300E49001F6F09001EBF012F72C12F435121C
:10D8C300F55EC217C21CC21912EFD0E4900282F0B7
:10D8D300C2A3D283D2B5C21212F76AC2A3D283D231
:10D8E300B5D2AF30930A7E157FE112328712BE6341
:10D8F300E4F50812943D7F011230B3123715EEF0B0
:10D903000FEF640870F275080790062E1243520059
:10D91300000000E4786DF608F67E157FF612328774
:0AD9230012BE63D2A0C212123977BF
:01D92D0022D7
:0D00760075F1F875F3EF43E28075F5FF2298
:10008E00E49002B3F012EB5A90022CE0645B600332
:10009E00020E167E167F14120E4AE490022CF0A366
:1000AE00E01243FA0DFE41034B4201524305344424
:1000BE00055E4505884605B24705D8480DFE490739
:1000CE00404A081F4B0DFE4C08934D08F24E01524C
:1000DE004F0A82500BC3510BFB520179530DFE5444
:1000EE000C85550DFE5601F7570278580CE759014D
:1000FE00525A033A610489620DFE63054964057321
:10010E0065059D6605C16705F36806AC6907746AE7
:10011E0008626B08806C08CC6D09306E09D66F0BC7
:10012E0081700BDF710C38720C50730C68740C9C60
:10013E00750CAE760CC6770CCC780D32790DE27A52
:10014E0000000DF47E167F25120E4A120F966420C3
:10015E00F030E5067E167F2E80047E167F49120E45
:10016E0054120F277E167F65020DF81236C7707275
:10017E00A3E090022C12372E90022D1236974003D8
:10018E00020DFEEF94064003020DFEA3E0FFE49F76
:10019E004003020DFEEF94094003020DFE90022C67
:1001AE0012382D90022D1237A4E0D3943C400374E4
:1001BE003CF01238FF50037401F09002B3E0FF9050
:1001CE001F48E4936F60147E1F7F48120FB37E1694
:1001DE007F6E120F0812101C020DFE7E167F7F021C
:1001EE000DF87E167F90020DF81236C7706E12371C
:1001FE00299001F81239C5506AEF94065065A3E0B4
:10020E00FFE49F505EEF940950599001F712382D7C
:10021E009001F81237A4E0D3947F4003747FF0125C
:10022E0038FF50037401F09002B3E025E0F0E0FFD8
:10023E00901F49E4936F601E7E1F7F49120FB3908B
:10024E0002B3E09001D0F07E167FB6120F6D12331E
:10025E00A212C111800D7E167F7F80047E167FC68E
:10026E00120E547E167FEC020DF81236C760030292
:10027E00032C1237299001F8F0900231E024D0902F
:10028E0001F91239C54003020333EF940240030211
:10029E000333A3E0FFE49F4003020333EF940940CE
:1002AE0003020333A3E0FFE49F507AEF94095075E5
:1002BE009001F775F0641238309001F8E075F00A8D
:1002CE00A41237A59001F91237A4E0D394FE40038F
:1002DE0074FAF01238FF50037401F09002B3E0FF8D
:1002EE00901F4AE4936F60307E1F7F4A7A0279B383
:1002FE0012367604F012EE939002B3E09001CCF039
:10030E007E167FF3120F8C12360A1234991288ABB6
:10031E001233A212C111800D7E167F7F80047E17CC
:10032E007F07120E5E7E167FEC020DF87E177F2B76
:10033E00120E5E12A1C87E177F34020DF87E177F53
:10034E003D120E687E107F3F120E68901F63E4937D
:10035E0030E6067E177F4680047E177F4F120E72A0
:10036E00901F63E49330E7067E177F5980047E1753
:10037E007F61120E72901F63E49330E5067E177F45
:10038E006A80047E177F80120E7C901F63E4933088
:10039E00E4067E177F9780047E177FB4120E7C9042
:1003AE001F63E49330E2067E177FD280047E177FB0
:1003BE00E6120E86901F63E49330E1067E177FFBF4
:1003CE0080047E187F0E120E86901F63E49330E039
:1003DE00067E187F2280047E187F32120E90901FA8
:1003EE0064E49330E2067E187F4380047E187F53C8
:1003FE00120E90901F64E49330E3067E187F6480A3
:10040E00047E187F71120E9A901F64E49330E406F6
:10041E007E187F7F80047E187F88120E9A7E187F4A
:10042E0092120F0812101C7E187FA0120EA47E18B6
:10043E007FA2120F8C901F65120F3D901F66120F38
:10044E003D901F67123492120FEB901F6812349278
:10045E00120FEB901F691234921288ABA2129237D0
:10046E007D0312C111901F6A1234921288AB12339F
:10047E00A212C1117E187FB6020DF87E187FBF1230
:10048E000EA41236C76003020526A3E0B42D047F26
:10049E000180027F001234B6901F4712368D5072C3
:1004AE00EFC39409506CA3E0642E7066A3E0FFE4E2
:1004BE009F505FEF9409505A1236F7B42D2012391F
:1004CE000724501237C89DEC12363A40089001CEE0
:1004DE0074B0F08021C3EF9E9001CEF080181239D7
:1004EE00CF74509FFF1237CC9F9001CE40057450B1
:1004FE00F08003E02EF0901F47E493FF9001CEE0D2
:10050E006F60097E1F7F47120FCF80137E187FC842
:10051E00800A7E187FDC80047E187FE7120EAE7E86
:10052E00187FF2020DF87E187FFB120EAE7F017E51
:10053E000012DDAD7E197F04020DF87E197F0D12BB
:10054E000EB87F027E0012DDAD7E197F16020DF809
:10055E007E197F1F120EB87F037E0012DDAD7E194D
:10056E007F28020DF87E197F31120EC27F047E00A5
:10057E0012DDAD7E197F3A020DF87E197F43120E01
:10058E00C27F067E0012DDAD7E197F4C020DF87E15
:10059E00197F55120ECC7F057E0012DDAD7E197FC0
:1005AE005E020DF87E197F67120ECC7F06121026A2
:1005BE00020DF87E197F79120ED61235C812BE635F
:1005CE0012CF557E197F82020DF87E197F8B120E87
:1005DE00D67E197F941235CC12BE6312C8DC7E19FA
:1005EE007FA8020DF87E197FB1120EE01236C76099
:1005FE000302069EA3E0FD642D7033A3E0FEC394B8
:10060E0030400DEED394395007EE24D09001CEF049
:10061E00900231E0FFC394304009EFD39439500378
:10062E001238579001CEE075F0FFA4F0802AEDC38A
:10063E009430401190022FE0FFD394395007EF24ED
:10064E00D09001CEF0900230E0FFC394304009EF1D
:10065E00D3943950031238571239CF6480947440B2
:10066E0029D3EF6480948E502190022CEFF0E4A3F6
:10067E00F0901F4C936F601F7E1F7F4C12367204DA
:10068E00F012EE937E197FBA800A7E197FC780041E
:10069E007E197FF1120EE07E1A7F1B020DF87E1A74
:1006AE007F24120EEA1236C77074A3E09001F9F09F
:1006BE00900230E09001FAF0900231E09001FBF0F0
:1006CE00900232E09001FCF0900233E09001FDF0D8
:1006DE00900234E09001FEF0900235E09001FFF0C0
:1006EE00900236E0900200F0900237E0900201F0A6
:1006FE00900238E0900202F0900239E0900203F08E
:10070E0090023AE0900204F012E4E112DA3B7E111C
:10071E007FD0120FC512CF557E157FC580047E1A6D
:10072E007F2D120EEA12339C12C1117E1A7F5E02C9
:10073E000DF87E1A7F67120EF4B2137C1F7D639044
:10074E0002EAE412100B3013094410F07E1A7F7087
:10075E00800754EFF07E1A7F85120EF4120F277E5B
:10076E001A7F9E020DF87E1A7FA7120EFE1236C752
:10077E00600302081112370E5003020811EFD394D2
:10078E0032400302081112370E4078EFD3943450E2
:10079E007212370E406DEFD39436506712370E40FB
:1007AE0062EFD39439505C12370E4057EFD3943624
:1007BE00505112370E404CEFD394395046E490020C
:1007CE00B3F01238BE9406501BE0FE242FF582E4DF
:1007DE003402F583E024D0FD742C2E1236DDED129A
:1007EE00387880DE742C2F1236DDE4F07E1F7F65A4
:1007FE007B017A02792C9003B4F0A37406F012EE0A
:10080E009380077E1A7FB0120EFE7E1A7FD2020DE3
:10081E00F87E1A7FDB12328712BE63B225120F9654
:10082E003025154480F07E1A7FE412328712BE63A3
:10083E0075E30112B1FD8012547FF07E1A7FF01223
:10084E00328712BE63C296E4F5E3120F577E1A7F0B
:10085E00FD020DF87E1B7F0612328712BE6363E324
:10086E0001E5E330E0057F0112ED707E1B7F0F0284
:10087E000DF87E1B7F1812328712BE63B2967E1B56
:10088E007F21020DF87E1B7F2A12328712BE633043
:10089E0096067E1B7F3380047E1B7F4212328712A8
:1008AE00BE63E5E330E0067E1B7F5080047E1B7F37
:1008BE006612328712BE637E1B7F7D020DF87E1B91
:1008CE007F8612328712BE63B2083008067E1B7F07
:1008DE008F80047E1B7F9E12328712BE637E1B7F2B
:1008EE00B1020DF87E1B7FBA12328712BE63B2229E
:1008FE00E490022DF07C1F7D639002EA12100B3003
:10090E0022094440F07E1B7FC3800754BFF07E1B3C
:10091E007FDD12328712BE63120F577E1B7FFC02E1
:10092E000DF87E1C7F05123287120FE1600302095B
:10093E00C5A312359BE49002B3F01238BE94055055
:10094E00181236D9E0FDEE901F53936D600690029B
:10095E00B3740CF012387980E1EF640D70537E1C85
:10096E007F0E12328712BE637E1F7F531236727451
:10097E0005F012EE937E1C7F25120E17901F53E486
:10098E0093FF12398CFE123996FD1239A0FC1239E2
:10099E00AAFB90026DF09002A1EFF09002A3EEF090
:1009AE009002A5EDF09002A7ECF09002A9EBF0807A
:1009BE00107E167F7F80047E1C7F4312328712BE0C
:1009CE00637E1C7F61020DF87E1C7F6A12328712D5
:1009DE000FE16003020A71900232E0642C600302A0
:1009EE000A71900235E0642C707990022F12359BBB
:1009FE00900234E0900231F0900235E0900232F035
:100A0E00900236E0900233F0900237E0900234F01C
:100A1E00E49002B3F01238BE940950181236D9E0A1
:100A2E00FDEE901F59936D60069002B3740CF01298
:100A3E00387980E1EF640D70247E1C7F731232874B
:100A4E0012BE637E1F7F591236727409F012EE9336
:100A5E007E1C7F85120FC57E1F7F59800A7E167FF2
:100A6E007F80047E187FE712328712BE637E1C7F62
:100A7E009E020DF87E1C7FA712328712BE637E1C6B
:100A8E007FB012328712BE637E1C7FD712352512BD
:100A9E00BE6312CF557E1E7FDC120E177E1F7F1F88
:100AAE0012328712BE637E1E7FBD12352512BE63C3
:100ABE007E1F7F4D12328712BE637E1E7FC412359B
:100ACE002512BE637E1F7F5912328712BE637E1EB1
:100ADE007FD0123525120FF87E1C7FEB12352512B2
:100AEE00BE63901F46E493FFC364809480500BEF67
:100AFE00123610900375740E800B901F4612360D31
:100B0E00900375740FF01288AB1233A212C1117ECE
:100B1E001C7FFD12352512BE63901F47E493FFC361
:100B2E0064809480500BEF123610900375740E8013
:100B3E000B901F4712360D900375740FF01288AB91
:100B4E001233A212C1117E1D7F12120F6D1233A22B
:100B5E0012C1117E1D7F2D12352512BE6312360A6B
:100B6E001234991288AB1233A212C1117E1D7F4628
:100B7E00020DF87E1D7F4F12328712BE6320932B1B
:100B8E009001F9E06420701CA3E064537016A3E09A
:100B9E00B452117E1D7F5812328712BE631238373F
:100BAE00D2348002C23412D7888003120E2E7E1DDC
:100BBE007F73020DF87E1D7F7C12328712BE63207A
:100BCE00930512F7898003120E2E7E1D7F85020D6E
:100BDE00F87E1D7F8E12328712BE6320930512F7A8
:100BEE008C8003120E3C7E1D7F85020DF87E1D7FCC
:100BFE009712328712BE6320931F9001F9E0B42042
:100C0E0012A3E0B4530DA3E0B4520812383712E227
:100C1E005780107E187FE780047E1D7F601232871A
:100C2E0012BE637E1D7FA0020DF87E1D7FA91232BB
:100C3E008712BE637F027E0012E4887E1D7FB202A1
:100C4E000DF87E1D7FBB12328712BE637F037E00BE
:100C5E0012E4887E1D7FC4020DF87E1D7FCD1232F8
:100C6E008712BE637F047E0012E488E49001CDF00B
:100C7E007E1D7FD6020DF87E1D7FDF12328712BEDB
:100C8E0063E4FFFE12E4887E197F70020DF87E1D6C
:100C9E007FE812328712BE637F01121026020DF812
:100CAE007E1D7FF112328712BE637F057E0012E435
:100CBE00887E1D7FFA020DF843EF10020DFE7E1E98
:100CCE007F0312328712BE637E1E7F0C1232871292
:100CDE000FF87E1E7F1B020DF87E1E7F24123287B8
:100CEE0012BE637E1E7F2D12328712BE6320932AA0
:100CFE007E1E7F3D12352512BE637B017A02796717
:100D0E0012398512C1117E027F677A0279677B01E3
:100D1E0012383DD23412D7888003120E3C7E1E7FCD
:100D2E0048020DF87E1E7F5112328712BE631236B4
:100D3E00C76003020DD2A3E0B42D047F0180027FB1
:100D4E00001234B6901F4612368D5072EFC39409BE
:100D5E00506CA3E0642E7066A3E0FFE49F505FEF3B
:100D6E009409505A1236F7B42D2012390724321234
:100D7E0037C89DEC12363A40089001CE74CEF08002
:100D8E0021C3EF9E9001CEF080181239CF74329F9E
:100D9E00FF1237CC9F9001CE40057432F08003E0F5
:100DAE002EF0901F46E493FF9001CEE06F60097E17
:100DBE001F7F46120FCF80167E187FC8800A7E18BE
:100DCE007FDC80047E187FE712328712BE637E1EA0
:100DDE007F5A80167E1E7F6312328712BE63D22325
:100DEE007E1E7F6C80047E1E7F7512328712BE635C
:100DFE00E49002B3F01238BE940F500C742C2F12E4
:080E0E0036DDE412387880EDB6
:100E160022A21292387D0312BE637E1F7F53A21256
:100E260092387D0912BE63227E1D7F60A21292381F
:100E36007D0912BE63227E1D7F60A21292387D0953
:100E460012BE6322A21292387D0912BE6322A2123A
:100E560092387D0912BE6322A21292387D0912BE13
:100E66006322A21292387D0912BE6322A212923820
:100E76007D0912BE6322A21292387D0912BE632238
:100E8600A21292387D0912BE6322A21292387D09FF
:100E960012BE6322A21292387D0912BE6322A212EA
:100EA60092387D0912BE6322A21292387D0912BEC3
:100EB6006322A21292387D0912BE6322A2129238D0
:100EC6007D0912BE6322A21292387D0912BE6322E8
:100ED600A21292387D0912BE6322A21292387D09AF
:100EE60012BE6322A21292387D0912BE6322A2129A
:100EF60092387D0912BE6322A21292387D0912BE73
:100F06006322A21292387D0312BE63901F48E493B7
:100F1600FF3395E0FEFDFC9003757402F01288AB7A
:100F2600227E1F7F637B017A02792C9003B4E4F062
:100F3600A304F012EE9322E493FFE4FCFDFE90037B
:100F4600757402F01288ABA21292377D0312C1119A
:100F5600227E1F7F637B017A02792C9003B4E4F032
:100F6600A304F012EE9322A21292387D0312BE63FE
:100F7600901F49E493FF3395E0FEFDFC90037574E2
:100F860002F01288AB22A21292387D0312BE6322AF
:100F9600E490022DF07C1F7D639002EAF0A304F03A
:100FA600FB7A02792C12E8BC90022CE0227B017AB3
:100FB6000279B39003B4E4F0A304F012EE9322A2F4
:100FC6001292387D0312BE63227B017A0179CE909C
:100FD60003B4E4F0A304F012EE932212BE6390026F
:100FE6002EE06420221288ABA21292377D0312C132
:100FF600112212BE637B017A027967A21292377DB3
:101006000912C11122F0A304F0FB7A02792C12E82E
:10101600BC90022CE022A21292377D0312C111224B
:0A1026007E0012E4887E197F70221C
:0300530002F301B4
:10F30100C0E0C0D0E5BBB41E0875BB0475BCFC8071
:0EF311000675BB1E75BCF8C2EDD0D0D0E03240
:03008B0002DF0B86
:10DF0B00C0E0C0F0C083C082C0D075D000C000C0DC
:0DDF1B0001C002C003C004C005C006C0075D
:10DF280012F6A4EF30E2337B013023257A0179F72A
:10DF38007D3112AC259001F7E090022CF09001F8A9
:10DF4800E090022DF09001F9E090022EF0C22380BB
:0ADF5800097A02792C7D0F12AC2526
:10DF6200D007D006D005D004D003D002D001D00013
:0BDF7200D0D0D082D083D0F0D0E032BD
:0FF69500EFC4540F75F00AA4FEEF540F2EFF229E
