:0300000002D8F72C
:0CD8F700787FE4F6D8FD75817002D93E00
:10D90300024E6CE493A3F8E493A34003F68001F280
:10D9130008DFF48029E493A3F85407240CC8C33325
:10D92300C4540F4420C8834004F456800146F6DFF4
:10D93300E4800B010204081020408090E2EAE47EB8
:10D94300019360BCA3FF543F30E509541FFEE493E9
:10D95300A360010ECF54C025E060A840B8E493A3B0
:10D96300FAE493A3F8E493A3C8C582C8CAC583CADB
:10D97300F0A3C8C582C8CAC583CADFE9DEE780BE93
:01E2EA000033
:0EF70800F0EF25E0242AF582E43406F5832292
:03002B0002EC22C2
:10EC2200C0E0C0F0C083C082C0D075D01890062862
:10EC3200E475F00112355675CBF075CA60C2CFC3C8
:10EC4200900629E0947D900628E094004009E4F0C3
:10EC5200A3F0D22112F4C5D0D0D082D083D0F0D08C
:02EC6200E0329E
:10F4C500D390062BE0940090062AE09480400774C0
:07F4D500FFF5F0123556228D
:0300730002F5385B
:10F5380053E67F53917F53C77F43C78053C77F43A9
:06F54800C78053C77F32AB
:10F01000E4900628F0A3F0FF12F709E4F0A312F73A
:10F0200008E0547FF00FEFB401EEE4F5C8538E0F03
:0FF0300075CBF0F5CA74FFF5CDF5CCD2ADD2CAD1
:01F03F0022AE
:10F64100538EF8438E04758902758CEA758AEAD265
:02F651008C2209
:10F60800E4F59175959E75945875939E7592585327
:03F618008EBF2280
:10F5A400E4F591F595F59475937F7592FF538E3F2D
:04F5B4004391042259
:10F6530012F709E0FEA3E07003EE64807002D32288
:02F66300C322C0
:10F61B00ED4C600E12F709ECF0A3ED12F708E04485
:03F62B0080F0224A
:10D10600436C6F636B206D756C7469706C696572C6
:10D1160020616C7265616479206C6F636B65642C49
:10D1260020736B697070696E67207265696E6974C9
:10D13600004F534349434E207C3D20307830333BEB
:10D146002000434C4B4D554C20203D20307830304C
:10D156003B2000434C4B4D554C207C3D20307838CD
:10D16600303B200044656C617920666F7220636CE9
:10D176006F636B206D756C7469706C696572207471
:10D186006F20626567696E200057616974696E6712
:10D1960020666F72206D756C7469706C696572209B
:09D1A600746F206C6F636B2000B4
:1000030075B28353A9F8E4F586758DCC438E082227
:10F5B8007586BCE58630E6FBE5A954F84404F5A950
:04F5C80053B27F2299
:10C3FE00E5B930E51A9020A7E49320E00302C4A724
:10C40E007BFF7AD17906A212923C7D0902BECE90B4
:10C41E0020A7E49330E0077AD1793712C4A843B24B
:10C42E00039020A7E49330E0077AD1794812C4A88C
:10C43E00E4F5B99020A79330E0077AD1795912C468
:10C44E00B443B9809020A7E49330E0077AD1796A9B
:10C45E0012C4B4E4FFFE0FBF00010EBE01F8BFF41C
:10C46E00F543B9C0E4FEFF0FBF00010EBE01F8BFD9
:10C47E00F4F5E5B920E5199020A7E49330E0F37BBD
:10C48E00FF7AD1798FA212923C7D0912BECE80E244
:09C49E0075A903758D30438E0869
:10C4A700227BFFA212923C7D0912BECE227BFFA205
:09C4B70012923C7D0912BECE2256
:0D002E000070007000DFF9EE6002DEF422C9
:10117A0043757272656E742054696D653A20005326
:10118A00657474696E67733A00475053206F6E0036
:10119A00475053206F66660044544147206F6E00E3
:1011AA0044544147206F6666005072696E74696ED6
:1011BA0067204750532073656E74656E63657300CC
:1011CA004E6F74205072696E74696E67204750536F
:1011DA002073656E74656E6365730053746172740F
:1011EA007570205461736B7320446F6E6500706B69
:1011FA0074436D64734F7574004E6F20646174613B
:10120A0020666F7220746865206C6173743A0009F5
:10121A00004461797309486F757273094D696E7577
:10122A00746573004D616B696E6720737572652012
:10123A00496E746572727570747320656E61626C42
:10124A00656420616E6420736D624275734F7065C8
:10125A006E004750532055415254206469736162AD
:10126A006C65642000475053206973206E6F7420A8
:10127A00706F77657265640044656C617965642096
:10128A0047505320666978207361766520647565D6
:10129A0020746F20534D42757320726563657074B4
:1012AA00696F6E004C617267652046696C652053F0
:1012BA00697A65004E65772046696C6520506172CF
:1012CA00746974696F6E200046696C652073697A67
:1012DA00653A00537461727420726F7574696E6531
:1012EA0020746F204750532073796E630061626FD8
:1012FA007274204750532073796E632073696E634A
:10130A006520475053206973206F6666004E6577E3
:10131A002054696D653A200054696D655374616D96
:10132A00706564204453502F4750532053796E639D
:10133A0000202020204C6173742047505320617490
:10134A0074656D7074207761732073756363657358
:10135A007366756C2E2000202020204C6173742047
:10136A0047505320617474656D7074206661696CAE
:10137A0065642120002020202047505320697320D3
:10138A0064697361626C65642E20004261747465DD
:10139A00727920766F6C746167652069733A2000F0
:1013AA00486F75726C7920446574656374696F6EF1
:1013BA0020436F756E742073696E636520506F7772
:1013CA006572204F4E3A2000546F74616C20446558
:1013DA0074656374696F6E20436F756E74207369E8
:1013EA006E636520506F776572204F4E3A20002059
:1013FA002020506F6F72205369676E616C00204E17
:10140A00454544532053455256494345212121001D
:10141A00210020000D0A0D0A2D2D2D202A2A2A200E
:10142A0054524944454E54205348454C4C20535439
:10143A004152544544202A2A2A0D0A2D2D2D000DE9
:10144A000A2D2D2D20487964726F70686F6E6520A1
:10145A00636F6D6D756E69636174696F6E20737405
:10146A0061727465642E00566F6C746167652076CC
:10147A00616C75653A20004D6E54616B654D65610E
:10148A00737572656D656E7473205265616420545C
:10149A00656D7065726174757265200054656D7052
:1014AA00657261747572652076616C75653A2000A3
:1014BA004D6E54616B654D6561737572656D656ED0
:1014CA0074732047657474696E672074696C74005C
:1014DA0057616974696E6720706572696F642076F6
:1014EA00616C75653A200054696C742076616C757C
:1014FA00653A200061646347657450726573737559
:10150A007265526573756C74005072657373757287
:10151A00652076616C75653A20004E6F2056616CC5
:10152A006964204473702056657273696F6E20690E
:10153A006E20746865205254432D20546F67676C7F
:10154A0065206120736F66747761726520726573B6
:10155A006574206F66207468652044535020746F48
:10156A0020726574726965766520697400576169CD
:10157A0074696E6720666F722044535020746F201E
:10158A0073656E642076657273696F6E2E2E2E00F7
:10159A005355434345535321212100496E76616CCB
:1015AA0069642073657269616C206E756D6265721B
:1015BA00005374617274206F66204D656D6F727985
:1015CA00204361726420496E73657274696F6E009C
:1015DA004C6F6767696E6720746F205344206D658E
:1015EA006D6F72792063617264206861732062652D
:1015FA00656E20696E697469617465642E0057614D
:10160A006974202E2E2E20004C6F67205265737548
:10161A006D65642061743A20005461674C6F674FAE
:10162A0070656E00536D624F70656E00556E6C6F1B
:10163A006164696E67206F75722064617461005419
:10164A0061674C6F674F70656E6564005344206D27
:10165A00656D6F72792063617264206861732062BC
:10166A0065656E2072656D6F7665642E00456E64E1
:10167A00206F66204D656D6F7279206361726420F8
:10168A00696E73657274696F6E200054696C742098
:10169A0043686970204944206E6F742072656365DF
:1016AA006976656400664E657753796E6320526F7A
:1016BA006C6C6F766572204C6F67696300756C435A
:1016CA00756D546F745F4453503A2000756C4375BE
:1016DA006D546F743A2000526F6C6C6F766572208D
:1016EA004164642056616C3A2000756C43756D54F0
:1016FA006F74203D20756C43756D546F745F44534D
:10170A00500000664E657753796E63205254432029
:10171A0074696D652061646A7573746564004D69E6
:10172A007373696E67206D656D6F7279206361727C
:10173A00642E005374617274207570202D204465E4
:10174A0074656374696F6E73207A65726F65642E4F
:10175A000055534220434D442052656365697665BE
:10176A00640047707320496E707574204469736110
:10177A00626C6564004E657720436F6E6669672008
:10178A0073656E74004F6C6420436F6E66696720E0
:10179A0073656E740053656E736F7220726174653F
:1017AA002069733A20004E6F207570646174652059
:1017BA004E65656465640043616E277420736574C1
:1017CA002053656E736F725261746520696E636F20
:1017DA00727265637420666F726D617400536C6512
:1017EA00657020526174652069733A200043616E06
:1017FA0027742073657420736C6565702072617438
:10180A006520696E636F727265637420666F726DAC
:10181A00617400655F61636B3E004E756D6265724F
:10182A00206F662061736B732069733A20004361ED
:10183A006E2774207365742061736B2072617465FE
:10184A0020696E636F727265637420666F726D6170
:10185A0074003C735F615F61636B00655F615F6128
:10186A00636B3E003C735F425F61636B00445441AB
:10187A00473A206F6E00445441473A206F6666002B
:10188A004750533A206F6E004750533A206F6666AE
:10189A000035204D696E7574652053796E63206535
:1018AA006E61626C65640035204D696E75746520E1
:1018BA0053796E632064697361626C656400475092
:1018CA00532073656E74656E6365207072696E74F9
:1018DA00696E672069733A206F6E00475053207310
:1018EA00656E74656E6365207072696E74696E6781
:1018FA002069733A206F666600486F75726C7920AA
:10190A0046696C65732069733A206F6E00486F757B
:10191A00726C792046696C65732069733A206F6628
:10192A0066004461696C792046696C657320697345
:10193A003A206F6E004461696C792046696C657360
:10194A002069733A206F66660046696C6573206485
:10195A00756D70733A206F6E0046696C657320640A
:10196A00756D70733A206F66660054656D706572A6
:10197A0061747572653A206F6E0054656D70657298
:10198A0061747572653A206F66660050726573738A
:10199A007572653A206F6E00507265737375726561
:1019AA003A206F66660054696C743A206F6E005470
:1019BA00696C743A206F66660053656E736F7220A5
:1019CA00726174653A200073004750532073617640
:1019DA006520696E74657276616C3A2000655F42B3
:1019EA005F61636B3E003C735F625F61636B004ED5
:1019FA006F206368616E676520696E206F66667323
:101A0A006574004261642056616C756573004261B9
:101A1A006420466F726D617400655F625F61636B1B
:101A2A003E003C735F445F61636B00655F445F61C6
:101A3A00636B3E003C735F645F61636B00655F6468
:101A4A005F61636B3E003C735F455F61636B00657A
:101A5A005F455F61636B3E003C735F655F61636B0B
:101A6A0000655F655F61636B3E003C735F465F6163
:101A7A00636B00655F465F61636B3E003C735F6644
:101A8A005F61636B00655F665F61636B3E003C7319
:101A9A005F475F61636B00655F475F61636B3E0031
:101AAA003C735F675F61636B00655F675F61636B70
:101ABA003E003C735F485F61636B004375727265F9
:101ACA006E742054696D655374616D703A200065B7
:101ADA005F485F61636B3E003C735F685F61636B85
:101AEA000054696D657A6F6E652053657400546998
:101AFA006D657A6F6E65206E6F74207365742062EF
:101B0A0065636175736520696E76616C69642074BA
:101B1A00696D657A6F6E650054696D657A6F6E6579
:101B2A00206E6F74207365742062656361757365D6
:101B3A0020696E636F727265637420666F726D617D
:101B4A007400655F685F61636B3E003C735F695F49
:101B5A0061636B0054696D652077617320756E61EE
:101B6A00626C6520746F20626520736574206361FE
:101B7A0075736520696E636F727265637420666F30
:101B8A00726D617400655F695F61636B3E003C73EF
:101B9A005F4A5F61636B005072696E74696E672099
:101BAA0047505320737472696E6773004E4F542006
:101BBA007072696E74696E6720475053207374722D
:101BCA00696E677300655F4A5F61636B3E003C73D1
:101BDA005F6A5F61636B00496E636F7272656374FB
:101BEA0020466F726D6174206F7220696E76616C27
:101BFA0069642076616C756500655F6A5F61636B15
:101C0A003E003C735F4B5F61636B00475053206536
:101C1A006E61626C65640047505320646973616247
:101C2A006C656400655F4B5F61636B3E003C735F8C
:101C3A006B5F61636B00655F6B5F61636B3E003C6A
:101C4A00735F6C5F61636B00655F6C5F61636B3EC2
:101C5A00003C735F4D5F61636B00475053206D6FAB
:101C6A0064656D20276F6E2700475053206D6F649F
:101C7A00656D206F666600475053206F75747075E6
:101C8A00742072656365697665204F6E004750530C
:101C9A00206F757470757420726563656976652046
:101CAA004F666600655F4D5F61636B3E003C735F24
:101CBA006D5F61636B00475053205072696E7420E8
:101CCA005541525400475053205072696E74205542
:101CDA00415254204F464600655F6D5F61636B3E1B
:101CEA00003C735F4E5F61636B004F75747075746F
:101CFA0074696E6720646574656374696F6E2064C5
:101D0A006174610053746F70206F757470757474A8
:101D1A00696E6720646574656374696F6E206461B7
:101D2A00746100655F4E5F61636B3E003C735F6E7A
:101D3A005F61636B005570646174696E67205365F7
:101D4A007269616C204E756D6265720046696E69D2
:101D5A00736865640D0A4E65772053657269616C14
:101D6A00204E756D6265723A200043616E277420B9
:101D7A0073657420534E20696E636F727265637463
:101D8A0020666F726D617400655F6E5F61636B3EA2
:101D9A00003C735F6F5F61636B00557064617469C7
:101DAA006E6720536974654E616D650046696E6998
:101DBA00736865640D0A4E657720536974654E61D0
:101DCA006D653A2000655F6F5F61636B3E003C732F
:101DDA005F505F61636B004154532D48323020439A
:101DEA006F6E66696775726174696F6E205265718C
:101DFA0075657374207265636569766564005265FA
:101E0A00636569766572205254432074696D653A38
:101E1A0020005072657373757265204F666673652C
:101E2A00743A200054656D7065726174757265202C
:101E3A004F66667365743A200054696C7420636156
:101E4A006C69622E20736C656570206F66667365B7
:101E5A00743A200054696C742063616C69622E20A4
:101E6A0061736B206F66667365743A2000655F5014
:101E7A005F61636B3E003C735F705F61636B00542C
:101E8A00797065283129004E6F20534420636172AE
:101E9A00642070726573656E7400655F705F61635C
:101EAA006B3E003C735F515F61636B00655F515F1E
:101EBA0061636B3E003C735F715F61636B003C73EF
:101ECA005F525F61636B00496E76616C696420667C
:101EDA00696C65206E616D6500655F525F61636B59
:101EEA003E003C735F725F61636B00655F725F61A6
:101EFA00636B3E003C735F735F61636B00655F7386
:101F0A005F61636B3E003C735F745F61636B006586
:101F1A005F745F61636B3E003C735F555F61636B27
:101F2A00003C735F755F61636B003C735F765F6152
:101F3A00636B00655F765F61636B3E003C735F783D
:101F4A005F61636B0067657443757272656E744690
:101F5A00696C6500655F785F61636B3E003C735F27
:101F6A00595F61636B0073656E6443757272656E67
:101F7A007446696C650046696C654E616D653A2008
:101F8A0000655F595F61636B3E003C735F795F6117
:101F9A00636B00655F795F61636B3E003C735F7AD8
:101FAA005F61636B00655F7A5F61636B3E005573C7
:101FBA0062204461746120556E7265736F6C766538
:101FCA0064007563526573657442617474657279ED
:101FDA00466C6970466C6F7050335F32007563529D
:101FEA006573657442617474657279466C6970468A
:101FFA006C6F703A200044535020763A005369744B
:10200A0065204E616D653A200046696C65204E6117
:10201A006D653A200053657269616C204E756D6278
:10202A0065723A200046696C6520466F726D61746C
:10203A002056657273696F6E3A20332E3020200065
:10204A0046696C652053746172743A200046696C63
:10205A006520456E643A20004154532054726974D5
:10206A006F6E2052656365697665722046566572A1
:10207A0073696F6E3A2031312E3138000D0A000033
:10208A00000FFF03020030302E303000303930307C
:10209A0030004832302C49532C4D4E0000000000CD
:1020AA000000000000000000000010C4EA613603CE
:1020BA0041006400760061006E0063006500640000
:1020CA002000540065006C0065006D006500740016
:1020DA0072007900200053007900730074006500D3
:1020EA006D0073001E0353006F006E0069006300E9
:1020FA0020005200650063006500690076006500F3
:07210A0072000F800100705C
:10E2EB004C029B0C0330003900300030003000C171
:10E2FB0086C10CC122C116C1874101CA0042023737
:10E30B00000042017D00004101C9004101E60141CD
:10E31B00029A0041027E0041027D094101F2004157
:10E32B000297044102980041023A00410239004130
:07E33B000002004102A700EF
:103A8800C4540F2430FEEF75F08002391B90042FC8
:103A980075F00A84E5F02430FFE52A75F0800239D4
:103AA8001BC4540F2430FEEF75F08002391B9004BC
:103AB8003475F00A842430FFE52A75F08002391B3A
:103AC800540F2430FEEF75F08002391B7A14791CEC
:103AD8007BFFA212923C7D0922540F2430FEEF7521
:103AE800F08002391B90042975F00A842430FFE520
:103AF8002A75F08002391B540F2430FEEF75F080D0
:103B080002391B75F00A84E5F02430FFE52A75F0C8
:103B18008002391B540F2430FEEF75F08002391BE8
:103B280075F080EE12391B7420F075F080EE900469
:103B38007D12391B742CF0EE90047E75F0800239EA
:103B48001BEF75F08090045B02391B900467EF75DA
:103B5800F08002391BF075F080EE90047812391B62
:103B6800742CF0900479EE75F08002391BFF75F023
:103B78000A84E5F02430FEE52A75F08002391B90AE
:103B8800042675F08002391B90042E75F0800239E6
:103B98001BEF90046575F08002391BEF9004647583
:103BA800F08002391B75F00A84E5F02430FFE52A1D
:103BB80075F08002391BEF90046375F08002391BA1
:103BC80075F08090043502391B75F08090042A0244
:103BD800391B75F08090042702391B75F080EE12AE
:103BE800391B7420F090047275F080EE02391B7551
:103BF800F08090042F02391B75F080900438023948
:103C08001B90045F75F080EF02391BF090047F75FC
:103C1800F080EF02391B90045E75F080EF02391BCB
:103C280075F08090043102391B75F08090046602AB
:103C3800391B75F08090043702391BEF75F08090BE
:103C4800045002391B7420F090047575F080EE0260
:103C5800391BF0EF75F08090044E02391B90045C1C
:103C680075F080EF02391B75F00A842430FF75F077
:103C780080E52A90042612391BEFF075F080E52ABA
:103C880090042C12391B7432F0E52A75F0809004E8
:103C98002D02391B7420F090046D75F080EE023906
:103CA8001B75F08090044F02391BEBF09002F1E095
:103CB800FC9002FFE0900004FE75F04112391BE50C
:103CC800822CF582E43583F583E0FF22EE75F080DF
:103CD80090045D02391B90010DE0FEEF75F00EA413
:103CE800240DF582E43401F583EEF090010EE0FE38
:103CF800EF75F00EA4240EF582E43401F583EEF09E
:103D080090010FE0FEEF75F00EA4240FF582E43465
:103D180001F583EEF0900110E0FEEF75F00EA4249B
:103D280010F582E43401F583EEF0900111E0FEEF26
:103D380075F00EA42411F582E43401F583EEF090B9
:103D48000112E0FEEF75F00EA42412F582E43401AE
:103D5800F583EEF0900113E0FEEF75F00EA4241346
:103D6800F582E43401F583EEF0900114E0FEEF757E
:103D7800F00EA42414F582E43401F583EEF09001EA
:103D880015E0FEEF75F00EA42415F582E43401F574
:103D980083EEF0900116E0FEEF75F00EA42416F500
:103DA80082E43401F583EEF0900117E0FEEF75F040
:103DB8000EA42417F582E43401F583EEF09001187F
:103DC800E0FEEF75F00EA42418F582E43401F583C3
:103DD800EEF0900119E0FEEF75F00EA42419F582BB
:103DE800E43401F583EEF090011AE0FEEF75F00E71
:103DF800A4227420F090043D75F080EE02391B7502
:103E0800F08090042502391B75F08090042E023949
:103E18001B75F08090044302391B75F080900444B0
:103E280002391B75F08090043202391B75F08090BE
:103E3800043402391B75F08090040202391BF0909B
:103E4800047675F080EE02391B75F0809004040248
:103E5800391B75F08090040602391B75F0809004B8
:103E68000802391BF090047775F080EE02391B7553
:103E7800F08090040C02391B75F08090040E023912
:103E88001B75F08090041002391B75F080900412A5
:103E980002391B75F08090041602391B75F080906A
:103EA800041702391B75F08090041802391B75F04D
:103EB8008090041902391B90042975F080EE0239AC
:103EC8001BFE75F080EF02391B90018AE024D0FFB9
:103ED800E434FFFE7C007D0A1234B9A3E024D0FD4F
:103EE800EC34FFCD2FFFED3EFE7D3C1234B9AA061F
:103EF800AB07900188E024D0FFE434FFFE7D0A126E
:103F080034B9A3E024D0FDEC34FFCD2FFFED3EFE05
:103F18007C0E7D101234B9EF2BFBEE3AFA90018C2F
:103F2800E024D0FFE434FFFE7C007D0A1234B9A3FC
:103F3800E024D0FDEC34FFCD2F22FE75F080EF0297
:103F4800391B75F080EE02391B75F080EF02391BC2
:103F580075F080EE02391B75F080EF02391B75F0A1
:103F680080EE02391B75F080EF02391B75F080EE88
:103F780002391B75F080EF02391B75F080EE0239AB
:103F88001B75F080EF02391BE50875F00EA4240DAF
:103F9800F582E43401F583E09001F3F0E50875F06B
:103FA8000EA42275F080EE02391B7A11797A7BFF14
:103FB800A212923C2275F080EF02391B75F080EE58
:103FC80002391B75F080EF02391B35F0FA7B017559
:103FD800F00FE52B12391BE0227BFFA212923C2244
:103FE80075F080EE02391B7BFFA212923C7D032202
:103FF80075F080EF02391B75F080EE02391BEFF087
:104008009002F1E0FC9002FFE0FE75F0412290087A
:104018000875F00FE52B12391BE02290018DE02482
:10402800D0FF900002E075F00A84E5F02275F08078
:10403800EF02391B75F0101233EAAFF0EF2430901D
:104048000208F0A3747AF0E4A3F07B017A0179F313
:104058002275F080EE02391B90208CE493FF339593
:10406800E0FEFDFC90037122FDC4540F2430F0EDF6
:10407800540F2430A3F02275F080EF02391B900210
:10408800AFEFF0E0FD242BF582E43402F583E02461
:10409800D0900228F0742C2DF582E43402F583E0E8
:1040A800900229F09002AFE0242DF582E43402F565
:1040B80083E024D090022AF02275F080EE02391BAA
:1040C8003EF583E538F09002F5E475F001023556C7
:1040D80090080275F00FE52B12391BE022E0FFE48F
:1040E800FCFDFE9003717402F0229002F31238284E
:1040F800EC4D4E4F2278077C017D017B007A0079D8
:104108000D7E007F061233C478EA7C017D017E00B3
:104118007F060233C475F080EF02391BE47B3CFA5A
:10412800F9F89002E31238280236DA7BFFA21292DD
:104138003C22EEF0ED75F00EA4229002F5E0FEA30D
:10414800E0FF9002ECE02FFF9002EBE03EFE2275CC
:10415800F00EA4240EF582E43401F5832275F08074
:10416800EE02391BE0900228F090022CE090022920
:10417800F090022DE090022AF090022EE090022B9F
:10418800F090022FE090022CF022EFF075F041EE53
:10419800229020A6E4937BFF2275F0419000031241
:1041A800391BE5822FF582E43583F583227A02797B
:1041B800287B019003B0E4F0A3227BFFA212923C7B
:1041C8007D0122A8011237AEEF540FFFEF2430F51E
:1041D80038D39439229002EBE0FEA3E0FF2412F5D5
:1041E8008274043EF5832275F00A842430FF75F04A
:1041F80080E52A2275F080EF02391B90018CE024BB
:10420800D075F00AA4229002ACE02414FFE433FE37
:10421800C3E5449FEE6480F87480982290018CE096
:10422800FF7430D39F2275F00FE52B12391BE02263
:10423800123828A804A905AA06AB0722E49390011E
:10424800CAF0E49002AFF0900228E0FFE4D39F2286
:104258002410F582E43401F583E0222411F582E488
:104268003401F583E0227BFFA212923CE4FD22EDAB
:1042780075F04112391BE0FFEE2275F080EE02392D
:104288001BE0FE2428F582E43402F583227F837E36
:10429800EC7D027C409001E0123844D302379D90B7
:1042A8000228E075F00AA4FF90022AE02F9002AFDE
:1042B800F090022BE022A3E0FFC3943022241AF5E9
:1042C80082E43401F583229002F5E0FEA3E0FFC307
:1042D80022A3E09001F324D0F090022CE024D02215
:1042E800F0E52A75F080A422E4900239F0A3F0905A
:1042F8000298F02274072538F53822EFF09002F181
:10430800E022D2B4E4F50CF50BF50AF50922240FE6
:10431800F582E43401F583E0222412F582E43401C5
:10432800F583E0223EF5837420F0E49002F5F0A3D3
:10433800F02275F080E52A02391BE0FF9002AFE019
:104348002FF022E49375F00AA4FFA3E4932FFFEC67
:1043580035F0FE229001F4540F2430F0A322FDE43E
:104368003CFC9002AFE0FED32290018DE024D0FF08
:10437800900002E022D39002AAE094059002A9E0FE
:10438800648094802290208BE493FD3395E0FC12A6
:104398003520ED4C22742DF0EF3395E0FE7CFF7D47
:1043A800FF0234B99002EBE0FEA3E022240DF5826F
:1043B800E43401F583221230429002B41238A190FD
:1043C80002B82275F00FE52B12391BE02275F00AAE
:1043D800E0A49002AFF0227B017A0179F69007B051
:1043E800023959C2B37DB47C2D7F0F22F583E0904A
:1043F80001F4F0A3742E2275F03CEF84FFA3E02FA4
:10440800F022EF24D0FF9001CAE075F00AA42FF043
:10441800229002EBE0FCA3E0FD22AF33AE32AD31D7
:10442800AC30222430FE75F080E52A22F09002AFED
:10443800E004F02290018CE024D0FFEE75F00A84AD
:1044480022A37420F0A3F090208FE493FF2275F04C
:10445800101233EA2430900207F022E52B9008036B
:1044680012391BE582252E229002DF1238A1900214
:10447800DF2290022AE06420229002AFE0FFC322EC
:10448800E4FAF9F80236DA1238287BD57AFF797F10
:104498007839227B407A42790F78009002DF22AB8C
:1044A8000CAA0BA90AA80902379D9002AFE0C39491
:1044B80001229020A7E4937BFF229001CAE0FFFD30
:1044C8003395E0FCED229002AF123860EC4D4E4F70
:1044D80022FFE4FCFD9003717407F0222415F58295
:1044E800E43401F583E0222416F582E43401F583EF
:1044F800E022E493FDFB3395E0FAEF6B22A3E4930B
:10450800648094B022EFF09002FFE0FD2275F08005
:10451800EF02391BC295C2A4C290229020A6E49350
:10452800FF22A212923C7D0922900265F09020970A
:10453800E49322900266F0902098E4932290026718
:10454800F0902099E49322900268F090209AE493E6
:10455800223CF583E538F022E0FF75F00A84243028
:10456800FE229002B81238A19002B42275F04102DE
:10457800391B7BFF7A1779B022F09001F3E0FFE452
:10458800D39F229001CAE0FFC3227BFF7A1A7918D1
:014598002200
:104E6C00E49002A9F0A3F0C233A3F0A3F0A374055D
:104E7C00F0E49001C9F0C208C22A9001E604F09057
:104E8C0002977404F0D20153D9BF75C990E4F5FFB1
:104E9C0012000312E5C312DD7312D748123FB2E4BD
:104EAC00FD12BECE12CF0053C77F12F77212B6A6F8
:104EBC0012451CC23712F39EC232C2017A11798993
:104ECC00123AD812BECE9020A6E49330E70D12B25F
:104EDC0024D2267BFF7A117993800DE4F5E3C296F8
:104EEC00C2267BFF7A11799A123ADA12BECE12419F
:104EFC009930E6067A1179A280047A1179AA123ACD
:104F0C00DA12BECE12419930E40E7A1179B3123A0C
:104F1C00DA12BECED213800C7A1179CA123ADA1296
:104F2C00BECEC2137BFF7A1179E5123ADA12BECEED
:104F3C00E49001E5F01242F112F06F78C27C017D31
:104F4C00017B007A00790D12411690208CE493902D
:104F5C0001CCF090208DE4939001C8F0E49002A76E
:104F6C00F0D206900227E510F09002A8E511F0901F
:104F7C000260E512F012F06F120003201D03309353
:104F8C0006301D19309316309603E4F5E312B6A6DD
:104F9C0030260512B2248005E4F5E3C296E5447090
:104FAC0003025066300705209302D290301817D2B6
:104FBC00341256FC129CA47BFF7A1179F8123ADA5F
:104FCC0012BECE02516212420E503D900299E0C3C5
:104FDC00940450341256BA75F01E84E5F07010AF7C
:104FEC000D12F677C007125683D007EEB5071920BD
:104FFC00230302515CAF0D12F677C007125683D013
:10500C0007EE6F700302515C12420E40089002AB27
:10501C00E004F08007E49002ABF0A3F09002ABE068
:10502C00D39403400BA3E02404F09002ABE014F003
:10503C009002ABE0B4C8037404F09002ACE024140A
:10504C00FFE433FEC3EF9464EE64809480400374F9
:10505C004CF0D2341256FC025162300705209302F8
:10506C00C290AF0E12F677C0071256C1D007EE6F82
:10507C00700302515CAF0D12F677C00712568ED03A
:10508C0007EE6F700302515C900298E004F0E0B4FC
:10509C003C0B90023AE004F0E4900298F090023A53
:1050AC00E0B41809900239E004F0E4A3F0900298FF
:1050BC00E030E00F90023AE07009900239E07003A2
:1050CC000251507BFF7A127903123ADA12BECE905B
:1050DC0002391240E5128A3CA212923C7D0712BEA4
:1050EC00CE7A127919123FB67D0712BECE90023AD3
:1050FC001240E5128A3CA212923C7D0612BECE7A78
:10510C00127919123FE17D0712BECE90029812401F
:10511C00E5128A3C123ADA12BECE7BFF7A12791B68
:10512C00123ADA12BECE30AF05E5E620E0167BFF70
:10513C007A12792E123ADA12BECED2AF202205C2E2
:10514C003712F39E90023AE0D3942140031242F0BE
:10515C0043870185878730980312BFC3E4FF12F29F
:10516C00E82013030251F0AF0D12F677C007125668
:10517C008ED007EE6F6028309616E5E330E0117B99
:10518C00017A017981123ADA12BECE12CF00800F69
:10519C0020960C7BFF7A12796F123ADA12BECE127D
:1051AC004371FE12402EB5071612443CB50710AFE2
:1051BC000D12F677C007125699D007EEB5071712E5
:1051CC0042245012EF9439500DA3E0FF74309F50DD
:1051DC0005EF9439400E9002A91240D112437D4044
:1051EC00031256E8E558D3940F500302540C2026B2
:1051FC000302540C303E0302540C900192E06441C3
:10520C006009A3E06441600302534F900182E064A3
:10521C0047600302534F123ED1FFED3ECF2BCF3AE6
:10522C00FE7C027D581234CBED4C70191240266F67
:10523C0060139020A6E49330E50B9002A7E0C39492
:10524C000A4002C2069020A9E493FF9020A8E493A0
:10525C004FFF9020AAE4934FFFA3E4934FFFA3E4E6
:10526C00934FFFA3E493F94F700302534F20035F56
:10527C00123ED1FFED3ECF2BFBEF3AFAC002C0033A
:10528C009020AA12434B7D3C1234B9AA06AB07906E
:10529C0020A812434B7C0E7D101234B9EF2BFDEE7F
:1052AC003AFC9020ACE49375F00AA4FFE97A002F45
:1052BC00FFEA35F0CF2DFDEF3CFCD003D002AF035D
:1052CC00AE021234CBED4C707A1240236F60743006
:1052DC00030C7BFF7A127982123ADA12BECE7B0172
:1052EC007A017981123ADA12BECE301D5653E6FE9F
:0852FC00E5416004640F7046F7
:10530400E49002AEF09002AEE0FF2481F582E43432
:1053140001F583E0FE900299E054031241A1EEF0FE
:0A5324009002AEE004F0E0B441DBBB
:10532E00900299E004F07F0412C642C203124203B7
:10533E00FFA3E024D02F900002F08002D20343E6B8
:10534E00019002A7E0D3943C4003740AF01243711B
:10535E00FE12402E6F702412443C6F701EAF0D1261
:10536E00F677C007125699D007EE6F600E9002A91D
:10537E001240D112437D40031256E890018CE0FF9B
:10538E00C39430403FEFD3943950391242BE40346B
:10539E00EFD39439502EEF124375F912402E6F60F1
:1053AE0023123F25FBED3EFAE92401FFE433FE7D97
:1053BE003C123520EDB5030CECB502089002A7E0C7
:1053CE0004F0800B1240236F6005E49002A7F012E8
:1053DE004224502AEF94395025A3E0FF74309F5099
:1053EE001DEF94395018EF1240276F6011124203CF
:1053FE00900002F0E02FF0E49002A9F0A3F0200656
:10540E00169020A6E49330E50E9002A7E0C3940A0E
:10541E00400512B0FBD2061256BA75F00F84E5F0B5
:10542E007013AF0D12F677C0071256A4D007EE6FA9
:10543E00600312D983AF0D12F67790208EE493FDA0
:10544E003395E0FCEF2DFFE43CFE12438D7020AF50
:10545E000D12F677C0071256A4D007EE6F601090AB
:10546E0020A7E49330E4081243EB12F040D2B3AF1E
:10547E000D12F6777E0012438D7015AF0D12F67772
:10548E00C0071256AFD007EE6F6005C2351283B655
:10549E003093131256D520E00512451C8052D2953A
:1054AE00D2A4D290804AAF0D12F677C0071256AF33
:1054BE00D007EE6F603A30070A1256D520E004B2DC
:1054CE00A48002C2A4300715AF0D12F677EF75F067
:1054DE000384E5F07007300D04B2958002C295206A
:1054EE00070E30900BAF0D12F677EF20E002C29050
:1054FE00AF0D12F677C0079001C2E0FF12F677AE3D
:10550E0007D007EE6F70030255B39001C2E50DF0A0
:10551E0053AEFEE5C720E0069002AD7402F02026E1
:10552E0005C296E4F5E39001F2E0D3940540052020
:10553E000D02D20D9002ADE0D394004002D207309E
:10554E001D63124295405E7BFF7A1279AE7D091281
:10555E00BECEC2341256FC9001E6E0C39421502711
:10556E0012429540221256DC7BFF7A1279BE7D07DD
:10557E0012BECE9001E6E0FFE4FCFDFE9003711238
:10558E0056F212654E80D07BFF7A1279D27D0612CA
:10559E00BECE9001E0123828900371740B1256F2B1
:1055AE00C23712F39EAF0E12F677C0071256C1D055
:1055BE0007EE6F60199001C3E50EF09002ADE0FFAB
:1055CE007006EFD3940040069002ADE014F0AF0FDA
:1055DE0012F677C0071256CCAE07D007EE6F7003E7
:1055EE00024F811256CCC007AF0F12F677AE07D01E
:1055FE0007C3EE9F6401601A9001C4E0FF12F677B4
:10560E00C007AF0F12F677AE07D007C3EE9F64E95F
:10561E00705A12452330E002D202EF30E21420938A
:10562E0011D2341256FCD204C23412F42C12654E2E
:10563E0080272093319020A6E49330E1299001C475
:10564E00E0FF12F677EF6417701CAF0F12F677EFCC
:10565E007014D2341256FCD2001256DC12654EC2B1
:10566E003712F39E8006C204C200C2029001C4E546
:05567E000FF0024F8156
:105683009001C2E0FF12F677AE07229001C2E0FF5D
:1056930012F677AE07229001C2E0FF12F677AE074B
:1056A300229001C2E0FF12F677AE07229001C2E01A
:1056B300FF12F677AE0722AF0D12F677EF229001B5
:1056C300C3E0FF12F677AE07229001C4E0FF12F6A3
:1056D3007722AF0D12F677EF22D23412F42C900119
:1056E300E6E004F022E4F0A3F07F0112EDEA22F0F9
:0956F300128A3C7D0912BECE2290
:10DD7300C2341256FC12F772C2AF12F4DC1243ED36
:10DD830012F0402094FD3094FD2094FDC2B43094F1
:10DD9300FD12430A12F06F1240FD900107E0FF12DB
:10DDA300F6DB90010712DDD590010812DDD5900155
:10DDB3000912DDDE90010A12DDDE90010BEFF0A304
:10DDC300E0FF12F6DB90010CEFF0C23712F39ED2A4
:10DDD300AF22EFF0A3E0FF12F6DB22EFF0A3E0FFA8
:04DDE30012F6DB2237
:0D004600C2871243ED12F040D28702DD7335
:10B0FB009002AF1238C6000000017BFF7A1279DD97
:10B10B00123ADA12BECE20960C7BFF7A1279F71226
:10B11B003ADA02BECEC2341256FC12F772C2AF201C
:10B12B00A5051244CE70F89002AF1240F570028064
:10B13B001A9002AF1238C60000000130A505124468
:10B14B00CE70F89002AF1240F57007D2AFC2370243
:10B15B00F39E9002AF1238C60000000130A5FDC26D
:10B16B00B420A5FD12430A90018812420612B219AF
:10B17B008F0F90018A12420612B2198F0E90018C1A
:10B18B00E075F00AA4FFA3E02F24F2FF12F6BB8FA9
:10B19B000D900227E0F5109002A8E0F511900260E7
:10B1AB00E0F5121240FD900107E0FF12F6DB900173
:10B1BB000712B20790010812B20790010912B210E0
:10B1CB0090010A12B21090010BEFF0A3E0FF12F600
:10B1DB00DB90010CEFF0C23712F39E12ECE87A13FE
:10B1EB007917123FE1E4FD12BECE12CF007BFF7A3E
:0BB1FB00137922123ADA12BECED2AF56
:10B2060022EFF0A3E0FF12F6DB22EFF0A3E0FF123D
:0EB21600F6DB22FFA3E024D02FFF12F6BB22AE
:10DC0300E511900427123AC8EEF0E51190042612AC
:10DC13003A88EEF0E51090042A123AC8EEF0E510C7
:10DC2300900429123A88EEF0E51290042F123AE19B
:10DC3300EEF0E51290042E123AA9EEF0E50F9004EF
:10DC430032123AE1EEF0E50F900431123AA9EEF008
:10DC5300E50E900435123AFFEEF0E50EC49004345D
:10DC6300123AFFEEF0E50D900438123B1CEEF0E59E
:0BDC73000DC4900437123B1CEEF022A1
:10E61900ED14601414603014603C240370469004B7
:10E6290000123B56745B8018900400123C0C745B1A
:10E63900F0900401123C17745BF0EF123B40745DDB
:10E64900123C13745DF022900400123C21742012D4
:10E659003C137420F022900400123C68740A123CA6
:05E6690013740DF02206
:05DDE7009002EBEFF0DB
:10DDEC00A3F09002ECE0FFC39404505B7D0312E6B9
:10DDFC00199002ECE0900439123A8F742EF0E4F58D
:10DE0C0038F53974632539F58274023538F583E0B9
:10DE1C00FF9002ECE0900401123AA3E5822539F55B
:10DE2C0082E5833538F583EFF00539E53970020565
:10DE3C00386419453870CC9002ECE0FF12A32490A2
:0DDE4C0002ECE004F0809B9002EBE0F51387
:01DE590022A6
:10E85500900424123F51742CF0EF123E077420F0FF
:10E86500900428123F51742FF090042B123F5F74CF
:10E875002FF0900430123F5F7420F0900433123F64
:10E885006D743AF0900436123F6D743AF090042C92
:0EE89500123F7B7432F0EF123C937430F0228D
:02A32400AE0782
:10A3260090041A123B6E742CF0E4F53AF53B749CDB
:10A33600253BF5827420353AF583E493FF90041BA0
:10A34600123BF0E582253BF582E583353AF583EF4E
:10A35600F0053BE53B7002053A6409453A70CFAF1C
:10A366000612E855900440123C53742CF0900441B8
:10A37600123CA27420F0900442123E007447F0EEA4
:10A38600123E197437F0EE123E227432F090044BEE
:10A39600123E4A742CF090044C123BE3123C4D746E
:10A3A6002F123E467433123E6C7431123B5D123CE2
:10A3B6009C742CF090046E123B287420F090044D8F
:10A3C600123E707420F0900451123EC2742CF0902C
:10A3D6000452123F4A7420F09020A7E493FF20E431
:10A3E60015EE123C447441F0EE123CA9742FF0EEC7
:10A3F600123C5C744EF0900455123F4A742EF09055
:10A406000458123F58742CF0900459123F58742087
:10A41600F090045A123F667420F0EE123B4AE0D3E5
:10A426009439500D75F080EE123B4DE0C3943050D8
:10A4360008123CD47441F08006123CD4742EF0907D
:10A446000460123F66742CF0900461123F7474200D
:10A45600F0EF75F08030E309EE123C34742EF08094
:10A4660026EE90046712391B7420F0EE123C31740C
:10A4760020F0EE123B9A7441F0EE123BA4742FF0DA
:10A48600EE123BBF744EF0900462123F747420F0DB
:10A49600900468123F82742CF0900469123F827413
:02A4A60020F0A4
:01A4A8002291
:10F3D80012F06F9001ECE50FF0A3E510F0A3E51132
:0CF3E800F0A3E512F09001EBE50EF0221E
:10F1E80012CF003026117BFF3010067A13793B804E
:10F1F8000C7A13796180067BFF7A13797F123ADAE9
:06F2080012BECE02C70297
:10CF0000303F0302CFACE511C4540F2430FD900133
:10CF1000F3B430057420F08002EDF0E51112435CAB
:10CF2000742FF0E510C4124078E510124078A37415
:10CF30002FF0E512C4124078E512124078A3742055
:10CF4000F0E50FC4540F2430FDB43006A37420F074
:10CF500080059001FCEDF0E50F9001FD12435F7438
:10CF60003AF0E50EC4124078E50E124078A3743A08
:10CF7000F0E50DC4124078E50D124078124449FDE9
:10CF8000C364809480900206500712439DAD0780D1
:10CF900003742BF0ED124456ED12403C123ADA12B3
:0CCFA000BECE7D179001F3E4F0A3DDFC91
:01CFAC002262
:10C9F800303F0302CAB29001EEE0FFC4540F243066
:10CA0800FE9001F3B430057420F08002EEF0EF12CE
:10CA1800435C742FF09001EDE09001F6124070A392
:10CA2800742FF09001EFE09001F9124070A3742088
:10CA3800F09001ECE0FFC4540F2430FE9001FCB4E8
:10CA480030057420F08002EEF0EF540F243090018E
:10CA5800FDF0A3743AF09001EBE0FDC4540F2430CC
:10CA68009001FF124076A3743AF09001EAE0FDC409
:10CA7800540F2430900202124076124449FEC364D7
:10CA8800809480900206500712439DAE078003747D
:10CA98002BF0EE124456EE12403C123ADA12BECE99
:0ACAA8007E179001F3E4F0A3DEFC1A
:01CAB2002261
:10C702007A137995124133E4FD12BECE123FA41280
:10C712004316FF12F1C1123FA4124258FF12F1C197
:10C722007F2E12F1C1123FA4124263FF12F1C11215
:10C732003FA4124321FF12F1C17A1379AA124133A5
:10C742007D0812BECE786DE6FE08E61244D9128A42
:10C752003C12452A12BECE7A1379D21241C212BEBF
:10C76200CE900633123828900371740CF0128A3C72
:10C77200123ADA12BECE301B3FD3786EE69400181E
:10C78200E6940040339001F2E004F07A1379F91252
:10C7920041C212BECE9001F2E0D394067BFF400E5E
:10C7A2007A1479081241C412BECED20D800A7A14CC
:0EC7B200791A1241C412BECE123AD402BECE83
:10E5C30075F1BF75F2FF75F3FF75F47E75F5FF7591
:10E5D300A41D75A5E775A61975A77A75AE8075D4C0
:10E5E300C875D5FF75D61975DFFF75E10775E2406C
:10E5F30075E301C22BD2A075C70312F2A27A147974
:10E603001E12426E12BECE7BFF7A147949123ADA99
:06E6130012BECEC2B422CB
:1083B600E4F529F52A12C7C09020A7E49330E63BDE
:1083C600203F387A147971123FEF12BECE123FA4C5
:1083D600240FF582E43401123F9D1242581243F7EE
:1083E600123FA31242639001F6123FA3124321905B
:1083F60001F712404E123ADA12BECE123FA41242D2
:1084060058FFB4340B123FA4124263D3943540068E
:10841600EFD39433500D123FA4124316B43004C266
:10842600078002D207E4F508C2209020A79330E225
:108436005E12A88A9020A7E49330E00C7BFF7A14A2
:108446007981123ADA12BECE9020A7E49330E63F45
:10845600203F3C7A1479A6123FEF12BECE123FA4FB
:108466002413F582E43401123F9D2414F582E4348A
:10847600011243F4123FA31244E49001F6123FA303
:108486001244EF9001F712404E123ADA12BECE9025
:1084960020A7E493FF20E40302853B30E00C7BFF3A
:1084A6007A1479BA123ADA12BECE752900752A0103
:1084B6009001C8E0FFC3E52A9FE5299400504CC20D
:1084C6003712AC419020A7E49330E0349001C8E025
:1084D600C3952AFFE49529FEC3EF9405EE94005058
:1084E6001F7BFF7A1479DA123FF112BECE123F904B
:1084F60012415BE09001F412404E123ADA12BECEFF
:10850600052AE52A700205290284B69020A7E4937D
:1085160030E622203F1F7BFF7A1479F1123FF112D9
:10852600BECE123F9012415BE09001F412404E1213
:108536003ADA12BECE9020A7E49330E30E1243EB54
:1085460012F0403026057F0112EDEA9020A7E49351
:1085560030E36812B9D79020A7E49330E00C7BFF94
:108566007A1479FE123ADA12BECE9020A7E493303E
:10857600E649203F467BFF7A157913123FF112BE7A
:10858600CE123FA42418F582E43401123F9D24192B
:10859600F582E434011243F4123FA31242C5E0907F
:1085A60001F6123FA3241BF582E43401F583E09023
:1085B60001F712404E123ADA12BECED2B312F62E9E
:1085C6007F01123CDE1242C5EEF00FEF640870F236
:1085D60075080730180D12F772C23712C18CC237F0
:0385E60012F39EEF
:0185E900226F
:10E9D9009002EB123959803A9002F2E0D394004048
:10E9E90039E014F0E47B0AFAF9F89002EE12412DAD
:10E9F900EB2430FF9002EB1239399002F2E0F582F4
:10EA0900758300EF1234979002EE1238287B0A12B0
:0BEA190044889002EE1238A180BE225B
:1093DE00D234E49002B0F0A3F09002B01242D294D4
:1093EE0034EE9400501474F32FF58274013EF5831D
:1093FE00E4F09002B01240D280DF90023D742FF064
:10940E00900240F09002457420F0900248743AF0B9
:10941E0090024BF012CB6E900237E0FEA3E0FF4EAF
:10942E00601A9020891244FA7002EE6A600EED7096
:10943E000B7E207F897A0279371295A690017DE006
:10944E00FEA3E0FF4E601A90208A1244FA7002EEDC
:10945E006A600EED700B7E207F8A7A01797D1295FF
:10946E00A6902090E493C3648094B04012124505F8
:10947E00400D90209312450640051245055045C2F9
:10948E00117BFF7A157924123ADA12BECED2B4C20B
:10949E00877D407C067F0112F040D287C2B4D2B4E1
:1094AE00C23712F39E20110E7BFF7A157977123A8E
:1094BE00DA12BECE80EF7BFF7A15799A123ADA1263
:1094CE00BECE8002D2119002AFE0C394055051E49B
:1094DE00A3F0A3F09002B01242D29405EE94005085
:1094EE002674962FF58274203EF583E493FFD364A1
:1094FE008094B95008C3EF648094B05002C2349087
:10950E0002B01240D180CD90209FE493642C600273
:10951E00C2349002AFE004F03034AB740AF080A68F
:10952E0020340C7A1579A512426E12BECE801AC264
:10953E0013C223C22612452330E402D213EF30E6C3
:10954E0002D223EF30E702D22612C4C09002637417
:10955E0053F0A314F0902096E49312453112453B3C
:10956E0012454512454F900269F012452330E2082C
:10957E0090026A7448F0800FEF90026A30E1057431
:10958E0044F08003745FF09002627404F0D23512DE
:08959E0083B612F7BF02C4C03E
:0D95A6007B019003B0F0A304F012EED3227D
:10B6A600E49002AFF0C295D2A4C29012F06F90203F
:10B6B600A7E49330E0127BFF7A1579BB123ADA12CF
:10B6C600B7B8123AD412BECE30930302B783301DF8
:10B6D6000302B7979001E7E0600302B797C20F7BBA
:10B6E600FF7A1579DA123ADA12BECE12C7027BFF5A
:10B6F6007A167908123ADA12BECE9001E4E0605A60
:10B706007BFF7A16791212427012B7B812654E9004
:10B7160020A7E49330E00C7BFF7A167923123ADAFD
:10B7260012BECEC23712F39E9020A7E49330E008F3
:10B736007BFF7A16792E801AE544D39400401BC20B
:10B74600341256FC9020A7E49330E0EC7BFF7A1687
:10B756007936123ADA12BECE80DE9001E4E0701637
:10B766009020A79330E00C7BFF7A167949123ADADB
:10B7760012BECE12654EC23712F39E8014301D11D2
:10B786007BFF7A167956123ADA12BECED23412F40A
:10B796002C9020A7E49330E01812F06F7BFF7A1606
:10B7A6007977123ADA12BECE12CF00123AD412BE0E
:01B7B600CEC4
:08B7B7002212BECE12CF0022C7
:10F2E800E5C930E60E201208D212EF701212D25879
:10F2F80002008E301202C212E4F5A9F5B9C2182232
:088C3F009002EBEEF0A3EFF050
:108C470090017FE0F539A3E0F53A1243321242CFA3
:078C57009404EE9400504765
:108C5E00C374039FFFE49EFEEF7802C333CE33CE80
:108C6E00D8F9FF9002F7EEF0A3EFF0AE39E53AA88F
:108C7E0007088005CEC313CE13D8F9540F1241D571
:108C8E00400674272538F53812414274012FF582BB
:028C9E0074045C
:108CA0001240C880AF1243AC2405F582740412430D
:018CB0002C97
:108CB1001242CF74059FFFE49EFEEF7802C333CECC
:108CC10033CED8F9FF9002F7EEF0FAA3EFF0FB9064
:108CD10002F1123828A9031241CB40031242FC12BF
:098CE100414274062FF58274046F
:108CEA001240C89002F5E07004A3E0640670B8125E
:108CFA004419240CF58274043CF5837420F0786FCF
:108D0A00E6FAEAC4540F2430F538740D2DF582744E
:108D1A0004124559D3943940031242FCEA540F1203
:108D2A0041D540031242FC124419240EF582740400
:108D3A00124559786FE6FA08E6FBEAC4F854F0C817
:108D4A00EBC4540F48540F1241D540031242FC742D
:108D5A000F2DF5827404124559EB540F1241D54078
:108D6A00031242FC1243ACFF2410F58274043EF550
:108D7A0083E538F0302710B4300D74102FF5827463
:108D8A00043EF5837448F074112FF582740412437B
:108D9A002C1242CF9408EE94005026C374079F25E4
:108DAA00E025E0F99002ED1238281241CB40031277
:108DBA0042FC12414274122FF58274041240C88098
:108DCA00D020260B1243AC1241E57444F0801E30C9
:108DDA00060B1243AC1241E5744CF080101241DDCF
:108DEA00E0B4300974122F1241E77445F0300C13C5
:108DFA001241DD744CF074132FF58274043EF5832E
:108E0A007442F09002981245601244192413F582B4
:108E1A0074043CF583EEF0EF12402E2430FF7414F4
:0A8E2A002DF58274043CF583EFF08F
:018E3400221B
:0BF040009002DFEFF0A3ECF0A3EDF076
:10F04B00E4A3F09002DFE0FF9002E2E0C39F5013D5
:10F05B009002E0E0FEA3E0FF12002E9002E2E0043B
:03F06B00F080E052
:01F06E00227F
:10AC410030372AE5087005752C078005E50814F5ED
:10AC51002CE52C124157E0FF123FA412415BEFF0AB
:10AC6100E52C75F00EA41243B4E002AD5D12AD67A0
:10AC7100D23812C33A8E2D8F2EC23812C33A8E2F7C
:10AC81008F3012AD67AC2DAD2EEC12314D9002B468
:10AC91001238A1AC2FAD30EC12314D12456A12447D
:10ACA1008F1243BE12448F12304212456A1242384B
:10ACB1001243BE1242381230429002B81243C412FB
:10ACC10038289002B4123844122F5112D05E12EE7D
:10ACD100267BE67A2E79657842123042E4FBFAF956
:10ACE100783F122F511231869002B2EEF0A3EFF0AD
:10ACF1009002B3E0F52BE53264517004E531643F15
:10AD01006026752B639001C9E0C39414500C7BFF3E
:10AD11007A167995123ADA12BECE9001C9E0C3943F
:10AD2100195014E004F0800FE532B4510AE531B452
:10AD31003F05E49001C9F0E52BB4FF03752B5AE5FB
:10AD41002B12402E2430FF123FA412415BEFF0E59D
:10AD51002B75F00A84F52B12402E2430FF123FA4EC
:05AD61001243B4EFF005
:0BAD6600227F4A12DA878E318F3222E2
:10D2580090029B740CF0A37403F0E490029EF0908B
:10D2680002A0F09002A2F09002A4F0902096939071
:10D27800029DF0902097E49390029FF0902098E40C
:10D28800939002A1F0902099E4939002A3F090204B
:10D298009AE4939002A5F0E4A3F012EB979020B4DF
:10D2A800E493FE740193FF9020B6E493FC74019319
:10D2B800FD7BFF7A2079EE9002B61239597B017A0C
:10D2C80002799B9002B912395990210CE49390028B
:10D2D800BCF090210DE4939002BDF090210EE493F0
:10D2E800FB7401939002BECBF0A3EBF07BFF7A2096
:08D2F80079B812AB0A02F47BC5
:085E88009002EBEFF0A3EDF036
:105E9000C235C2369002EBE075F080A4FF9002EDAF
:105EA000E5F0F0A3EFF0E4A3F0A3F09002F71238CE
:105EB000C6000000009002FB1238C60000000090EF
:105EC0000261E054039002FFF07E1190000312453E
:105ED00074E5822E1241ADE0B42C04C2358002D2AA
:105EE00035E49002F1F0A3F09002F1E0FFC394409A
:105EF000400302621B9002FFE0FA1241A1E0FBB4F2
:105F00002C119002F2E004F0A31238C60000000049
:105F10000262129002F2E024FD7003025FB014707E
:105F20000302604314700302605914700302610C91
:105F300024FD700302613F240860030262121240D4
:105F4000F260030262129002EBE0FD900431123A1B
:105F5000B0123CB2ED123E2B124192900005123C61
:105F6000C49002EBE0FD900434123AC2124303FCE9
:105F70009002FFE0900006123CC0ED123BC81241B7
:105F800092900007123CC49002EBE0FD900437129F
:105F90003ACE124303FF75F041EA90000812391B14
:105FA000E5822F123CCA75F080ED9004380261053D
:105FB0001240F260030262129002EBE0FD900401D5
:105FC000123AE7123CB2ED123E3D124192900005AA
:105FD000123CC49002EBE0FD900403123AF9124027
:105FE00006900006123CC4ED123E51124192900000
:105FF00007123CC49002EBE0FD900405123B051231
:106000004006900008123CC4ED123E5A1241929094
:106010000009123CC49002EBE0FD900407123B160D
:1060200012400690000A123CC4ED123E63124192E7
:1060300090000B123CC49002EBE075F080900409D4
:106040000261051240F260030262129002EBE090DE
:10605000040A123B22EB0261F81240F26003026272
:10606000129002EBE0FD90040B123B43123CB2EDA8
:10607000123E77124192900005123CC49002EBE070
:10608000FD90040D123B57124006900006123CC4CE
:10609000ED123E80124192900007123CC49002EB38
:1060A000E0FD90040F123B6F124006900008123C76
:1060B000C4ED123E89124192900009123CC4900234
:1060C000EBE0FD900411123B8112400690000A1291
:1060D0003CC4ED123E9212419290000B123CC490CF
:1060E00002EBE0FD900413123B8A124303FF90027F
:1060F000FFE090000C124574E5822F123CCA75F047
:1061000080ED90041412391BEF0261F81240F26026
:10611000030262129002EBE0FE900415123B93EB37
:10612000F0EE123E9B7420F0EE123EA47420F0EECE
:10613000123EAD7420F0EE123EB674200261F812E9
:1061400040F260030262129002EBE0FD900429121B
:106150003B9D123CB2ED123BD112419290000512D0
:106160003CC49002EBE0FD123B8712400690000613
:10617000123CC4ED123BDA124192900007123CC46B
:106180009002EBE0FD123B90124303FC9002FFE013
:1061900075F041900008123CC4ED123BF7EFF0742B
:1061A000822CF582E43401F583E024D0FFEB124227
:1061B000072FFF12F6BB900227124303FE2483F53C
:1061C00082E43401F583124206FF74842EF582E4E2
:1061D00034011265439002A8124303FE2485F58220
:1061E000E43401F583124206FF74862EF582E4340E
:1061F00001126543900260EFF09002F3123828EF2D
:106200002401FFE43EFEE43DFDE43CFC9002F31279
:1062100038A19002F1E004F0025EE89002EBE0FFAA
:10622000900442123BA77447F0EF123E197450F0ED
:10623000EF123E227453F0900445123F7B7420F01D
:10624000900446123F897446F0900447123F8974C7
:1062500069F0900448123FBD7478F0900449123FF1
:10626000BD7420F090044A123FCB742012450E7585
:10627000F04190000B12391BE0FF9002EBE0FE9022
:106280000432123BB8EFF090000A124277123C2819
:1062900012450D90000D124278123BC8EFF09000AD
:1062A0000C124277123E3412450D75F04190000FEA
:1062B00012427B123C00EFF075F041ED90000E129F
:1062C000427B123C3AEFF090043A123FAB7430F04C
:1062D00090043B123FAB7420F090043C123FC41278
:1062E0003DFA123DFA7420F090043E123FC474202F
:1062F000F090043F123FE87420F0900440123FE811
:10630000742CF090046A123FFF7420F090046B121A
:106310003FFF7420F090046C124059123C9C742C86
:10632000F090046E1240597420F090046F1240C136
:106330007420F09004701240C17420F09004711227
:106340003BE37420F09004731241657420F09004D4
:1063500074124165123C4D7420123E467420123E68
:106360006C7420123B5D7420F090047A12428274A7
:1063700020F090047B1242827420F090047C123B47
:10638000287420F0123EBF1242274003026412120A
:106390003EBFE0D39439507A75F080EE123BD412B0
:1063A0004227506E75F080EE123BD4E0D394395002
:1063B00061EE123B87124227505875F080EE900430
:1063C0002612391BE0D39439504875F080EE123B09
:1063D000DD124227503C75F080EE123BDDE0D39495
:1063E00039502FEE123B901242275026EE123E10EB
:1063F000E0D39439501C75F080EE123BFA1242271C
:10640000501075F080EE123BFAE0D394395003023D
:1064100065399002EBE0FF900429123BC27437F01B
:10642000EF123BD17437F0EF123B877437F0EF1265
:106430003BDA7437F0EF123B907437F0EF123BF712
:106440007437F0EF123C287430F0EF123E2B7430AA
:10645000F0EF123E347430F075F080EF123BCB74E5
:1064600030F0EF123C3A7430F0EF123C007430F030
:10647000900401123FCB7444F0EF123E3D7441F0A2
:10648000900403123FF87454F0EF123E517445F03B
:10649000900405123FF87420F0EF123E5A7449F050
:1064A0009004071240357453F0EF123E637420F0ED
:1064B0009004091240357449F090040A12407F7428
:1064C0004EF090040B12407F7456F0EF123E77743A
:1064D00041F090040D12411D744CF0EF123E807497
:1064E00049F090040F12411D7444F0EF123E89747C
:1064F00020F09004111241FC744FF0EF123E9274A0
:1065000052F09004131241FC7420F09004141245D0
:10651000157446F09004151245157449F0EF123EBB
:106520009B7458F0EF123EA47420F0EF123EAD744D
:1065300049F0EF123EB67453F0900261E004F0E4CB
:02654000F5580C
:0C65420022F583E024D02FFF12F6BB22CC
:10A9CF009020A7E493FE30E41FED124157E0FC12F4
:10A9DF003C43EC12413B1243B4E0FCEF123CA9ECB8
:10A9EF00123C5A7420F08015123C437441F075F0FC
:10A9FF0080EF123CAC742F123C5A744EF0EE30E2E2
:10AA0F003CED75F00EA41244EFFE123C0912413AD0
:10AA1F001244E4FE123C1E12413A2414F582E4342F
:10AA2F0001F583E0FE123C6512413A2413F582E4EE
:10AA3F003401F583E0FE123B49EEF0801F123C0912
:10AA4F007420F0123C1E7420F0EF123CD57441F0CC
:10AA5F00123C65742FF0123B49744EF0ED75F00EF9
:10AA6F00A4124321900457123EC912413A12426375
:10AA7F00900456123EC912413A1242589004541291
:10AA8F003F4212413A124316900453123F42EEF0E6
:10AA9F009020A7E49330E343ED75F00EA41242C566
:10AAAF00E0FE123B5312413A2419F582E43401F5CA
:10AABF0083E0FE123B9912413A2418F582E43401E7
:10AACF00F583E0FE123BA312413A2417F582E434DA
:10AADF0001F583E0FE123BBEEEF022123B537420D1
:10AAEF00F0EF123C317420F0123B997441F0123B9D
:0BAAFF00A3742FF0123BBE744EF02237
:1056FC00E4F533F532F531F530F537F536F535F5AA
:10570C00349002E31238C600000000E49002E7F087
:10571C00A3F0E5447003025E58301D03309309205A
:10572C001206203403025E3D12F772E4F5E3851392
:10573C002A301D0920930612F4AD12F7CBE4F52B99
:10574C00E52BC395444003025E2EAF1312DDE7E553
:10575C002AC394044003025DF2124016FF640460F5
:10576C0004EFB40504D20B8002C20B900800124067
:10577C0019FEA3E0786FA60608F690080D1240DB20
:10578C00540FF52C300B0302595CE4F52E752F03E6
:10579C00752F03E52F75F00F20E00F1244631241B3
:1057AC00ADE0540FF52D052E800C1244631241AD63
:1057BC00E0C4540FF52D7430252DF52DD3943940BC
:1057CC00067407252DF52D90044212433AE58225E7
:1057DC002F1241ADE52DF0052FE52FB409B5124080
:1057EC00D8C413135403F52E14600F1460111460F5
:1057FC001324037012752FEE800D752FEF80087532
:10580C002FF08003752FF11242E9246FF9740435DF
:10581C00F0FA7B01AF2FE4FCFDFE9002F27403F072
:10582C0012E9D91240D8543FF52D900474123A98CD
:10583C00EFF0E52D75F00A84F52D900473123B0BF7
:10584C00EF1242E8246AF97404900808123FD2124D
:10585C005E6F1242E9247AF9740490080C123FD25C
:10586C00125E6F90080C12422ED39464400BC21B34
:10587C00E49001F2F0C20D800B301B069001F2E0B7
:10588C0004F0D21B90080912422EFFE4FCFDFEFB33
:10589C00FA7901F812364F124470123828C006C03B
:1058AC000790080A1243CB7B00FAE4F9F8D007D032
:1058BC000612363412447012384490080B1243CB43
:1058CC00FFE4FCFDFE1236349002DF1238A175F0B5
:1058DC000FE52B90080612391BE0FEA3E0FF9001A8
:1058EC007FEEF0A3EFF0E48F338E32F531F530AD6F
:1058FC0031AC307B0FFAF9F812364F8F338E328D74
:10590C00318C3012449B12412DE5332FFFE5323E92
:10591C00FEE5313DFDE5303C8F338E328D31F53077
:10592C001242E9243AF9740435F0FA7B01C003C041
:10593C0002C00112449B12412DAC00AD01AE02AF6E
:10594C00039002F27406F0D001D002D00312E9D910
:10595C00AD2CAF2A12A9CF300B03025CF8124422F3
:10596C00D31244A75003025AA87BFF7A1679AF12C0
:10597C00427012BECE7BFF7A1679C71241C412BE9A
:10598C00CEAF0CAE0BAD0AAC09125E7E123ADA1237
:10599C00BECE7BFF7A1679D61241C412BECE12440B
:1059AC0022125E7E123ADA12BECE7BFF7A1679E1B3
:1059BC001241C4125E59900371740CF0128A3C129D
:1059CC003ADA125E59E47B587A02F9F8D312379D11
:1059DC004003025A60900298E02402FFE433FE3345
:1059EC0095E0FDFCE47B3CFAF812364FC004C00590
:1059FC00C006C00790023AE0FF7E007C0E7D1012BC
:105A0C0039F212423BD007D006D005D004123634FE
:105A1C00C004C005C006C007900239E0FFE4FCFDDD
:105A2C00FE7B807A517901F812364F12423BD00737
:105A3C00D006D005D00412363412423BC3E4950C88
:105A4C00FFE4950BFE740F950AFDE49509FCD31247
:105A5C00379D40247F017E007D0F7C00C31244A73C
:105A6C005016C3E4950CFEE4950B9002E7F0A3CE20
:105A7C00F0D20E12430C8018850C33850B32850A3C
:105A8C00318509307BFF7A1679F41241C412BECEEF
:105A9C007BFF7A17790C123ADA12BECEC3E5339536
:105AAC000CFFE532950BFEE531950AFDE5309509C5
:105ABC00FC9002E31238A19002E3123828EF250C77
:105ACC00FFEE350BFEED350AFDEC35098F0C8E0B18
:105ADC008D0AF5099002E31238449002E7E0FEA328
:105AEC00E0FFE4FCFD1236349002E31238A1900280
:105AFC00E7E07002A3E06007E49002E7F0A3F0E4B3
:105B0C00FFFEFDFC9002E31242A05003025C1C124B
:105B1C004124900107E02BF01241247B3C12448875
:105B2C00900108E02BF0E47B107A0E124128E47B04
:105B3C0018124489900109E02BF07B807A5179018D
:105B4C00780012412A90010AE02FF0900107E0FF43
:105B5C00C3943C400E1243FF900107E075F03C8467
:105B6C00E5F0F0900108E0FFC3943C400E1243FFB7
:105B7C00900108E075F03C84E5F0F0900109E0FF3D
:105B8C00C39418401175F018124402900109E07585
:065B9C00F01884E5F0F0B2
:105BA20090010BE024FC602B24FE602724FD60237F
:105BB20024FE601F2409702690010CE05403700536
:105BC200FE7F1D80047E007F1C9002E9EEF0A3EFB1
:105BD200F080149002E9E4F0A3741EF080099002B0
:105BE200E9E4F0A3741FF090010AE0FFFD9002E9DE
:105BF200E0FAA3E0FBC39D7480F8EA648098501A2F
:105C0200C3EF9B90010AF0A3E004F0E0D3940C40B0
:085C12008F7401F0A3E004F01F
:105C1A008086900109E0900432123B75EEF0EF9015
:105C2A000431123AB9EFF0900108E0FF12402E1247
:105C3A00442B123BCBEEF0EF123AB6EFF09001078D
:105C4A00E0FF12402E12442B123C03EEF0EF9004B8
:105C5A0037123AF0EFF090010AE0FF12402E124498
:105C6A002B123BD4EEF0EF123AEDEFF090010BE07D
:105C7A00900427123B75EEF0EF123C6F7430F090EF
:105C8A00010C124560E52A123E10EEF0EF123A9529
:105C9A00EFF090043912433A742EF0300E4D7BFF28
:105CAA007A17790D123ADA12BECE90010BE0FF1282
:105CBA00F6BB8F1190010AE0FF12F6BB8F1090011C
:105CCA000CE0FF12F6BB8F12900109E0FF12F6BB3F
:105CDA008F0F900108E0FF12F6BB8F0E900107E0CC
:105CEA00FF12F6BB8F0D12ECE8C20E1242F0E52A43
:105CFA00123E0774201242E8FFAEF0C006C0071237
:105D0A0044229002ED1244731238289002F112389C
:105D1A00A1D007D006128C3F302329E4FDAF2A1206
:105D2A00E619AF2A12A3241242E92400F9740435B1
:105D3A00F0FA7B01A212923C7D0A12BECE7D03AF1D
:105D4A002A12E61912401664057076300B73E50FB5
:105D5A00900432123BADEFF0E50F1241EF123C2BEB
:105D6A00EFF0E50E900435123BADEFF0E50E123A76
:105D7A00B6EFF0E50D12402E1241F3123C03EFF09C
:105D8A00E50D1241EF123C3DEFF0E51090042A12A6
:105D9A003B0BEFF0E510123AEDEFF0E51112402E51
:105DAA001241F3123BDDEFF0E511123C6F7430F053
:105DBA00E5121241EF123E13EFF0E512123A95EF97
:105DCA00F0AF2A12A324124016FDB40405AF2A121A
:105DDA005E88852A13052A052BE52B654460030294
:105DEA00575B752A0402575B301D33209330AF137B
:105DFA000513EFC39403400E7D017F007E0212E17A
:105E0A0062E4F5138018E5132401FFE433FEEF780A
:105E1A0007C333CE33CED8F9FFE4FD12E162E4F5CD
:105E2A002A02574C301D0C20930912F4AD12F7CBFD
:105E3A0012C87E202207C23712F39E800312F494FE
:0E5E4A0075E301C22CE4900299F0900261F021
:105E58002212BECEC3E4950CFFE4950BFE740F9599
:105E68000AFDE49509FC22FFE4FCFDFE9002F274B1
:105E780003F012E9D922900371740CF0128A3C22C3
:10D74800D205D295D209D2A4D20AD290D21BC20D48
:10D75800E49001F2F09001E7F012F77212F49412DB
:10D76800F5A4C217C21DC21A12F010E490027EF08E
:10D77800C2A3D283D2B5C21212F7B2C2A3D283D245
:10D78800B5C218D2AF30930C7BFF7A177928123ABA
:10D79800DA12BECEE4F5081293DE7F01123CDE12E7
:10D7A80042C5EEF00FEF640870F275080790063373
:10D7B8001238C600000000E4786DF608F67BFF7AA0
:10D7C80017793D123ADA12BECED2A0C21212451C07
:01D7D800222E
:0D00760075F1F875F3EF43E28075F5FF2298
:10008E00E49002AFF012EB97900228E0645B6003FD
:10009E000210507BFF7A17795B123ADA12BECEE469
:1000AE00900228F0A3E012396E01574103C64201B7
:1000BE00814305DB4406114506474606854706C3C0
:1000CE004801B54908584A09614B01C14C09EE4D2A
:1000DE000A614E01814F0C1D500DA3510DDF5201CF
:1000EE00C653024E540E7A55025456025C5702E61F
:1000FE00580EFC5901815A03AB61052362017563E9
:10010E0005F664062C6506666606A06706EA6807AD
:10011E00B36908AA6A09AF6B09D46C0A326D0AA7D3
:10012E006E0B646F0D4F700DC1710E20720E3B730E
:10013E000E56740E98750EB3760ED2770ED8780FC3
:10014E00597910137A0000102CC2267BFF7A17798A
:10015E006C123ADA12BECEE4FDFF12A9CF129CA4A5
:10016E00C218C218021038E4FDFF12E61912E85543
:10017E00021038D218C226900229E0FF64436004B0
:10018E00EFB45A0B12881B7BFF7A17797F80091206
:10019E00C93B7BFF7A17798F123ADA12BECEE4FD95
:1001AE00FF12E6190210381200899002627404F0F0
:1001BE00021038D21802103812447A7077A3E090E9
:1001CE0002281242DE90022912424E4003021038DB
:1001DE00EF94064003021038A3E0FFE49F400302B1
:1001EE001038EF940940030210389002281243D5BC
:1001FE00900229124342E0D3943C4003743CF01227
:10020E0044B250037401F09002AFE0FF90208BE4F3
:10021E00936F60177E207F8B1210E17A17799F12F1
:10022E0010851210CB123FF102103512457A123A98
:10023E00DA0210357BFF7A1779C1123ADA021035DD
:10024E0012E512021038D23712C18C021038124445
:10025E007A706D1242D99001F4124581506EEF946E
:10026E00065069A3E0FFE49F5062EF9409505D9041
:10027E0001F31243D59001F4124342E0D3947F4030
:10028E0003747FF01244B250037401F09002AFE099
:10029E0025E0F0E0FF90208CE4936F601E7E207FBF
:1002AE008C1210E19002AFE09001CCF07A1779E752
:1002BE0012108512406012116B800B12457A800667
:1002CE007BFF7A1779F7123ADA12BECE7BFF7A18D5
:1002DE00791D123ADA12BECE12447A6003020393EB
:1002EE001242D99001F4F090022DE024D09001F545
:1002FE00124581400302039FEF9402400302039FC5
:10030E00A3E0FFE49F400302039FEF940940030222
:10031E00039FA3E0FFE49F5078EF94095073900180
:10032E00F375F0641243D89001F4E075F00AA4124C
:10033E0043439001F5124342E0D394FE400374FA16
:10034E00F01244B250037401F09002AFE0FF90201F
:10035E008DE4936F602A7E207F8D7A0279AF1241F1
:10036E00B904F012EED39002AFE09001C8F07A1803
:10037E00792412109190208D12406312116B800B14
:10038E0012457A80067BFF7A187938123ADA12BE55
:10039E00CE7BFF7A18791D123ADA0210357BFF7A7E
:1003AE0018795C123ADA12BECE129FF57BFF7A18DC
:1003BE007965123ADA0210357BFF7A18796E123AA5
:1003CE00DA12BECE7BFF7A117989123ADA12BECEDC
:1003DE0012419930E6067A18797780047A18798076
:1003EE00123ADA12BECE12419930E7067A18798A9D
:1003FE0080047A187992123ADA12BECE12419930EE
:10040E00E5067A18799B80047A1879B1123ADA12D5
:10041E00BECE12419930E4067A1879C880047A1853
:10042E0079E5123ADA12BECE12419930E2067A1905
:10043E00790380047A197917123ADA12BECE124174
:10044E009930E1067A19792C80047A19793F123A9B
:10045E00DA12BECE12419930E0067A197953800431
:10046E007A197963123ADA12BECE1244BA30E20623
:10047E007A19797480047A197984123ADA12BECE16
:10048E001244BA30E3067A19799580047A1979A262
:10049E00123ADA12BECE1244BA30E4067A1979B0A4
:1004AE0080047A1979B9123ADA12BECE7A1979C362
:1004BE001210911210CB123FF112BECE7BFF7A19A1
:1004CE0079D1123ADA12BECE7A1979D312109D90E2
:1004DE0020A81210519020A91210519020AA12108B
:1004EE006B9020AB12106B9020ACE4931240E6128E
:1004FE008A3C123FF112BECE9020ADE4931240E63C
:10050E00128A3C123ADA12BECE7BFF7A1979E712C2
:10051E003ADA0210357BFF7A1979F0123ADA1210B4
:10052E00F360030205C6A3E0B42D047F0180027FB1
:10053E000012408690208A1242445074EFC39409F0
:10054E00506EA3E0642E7068A3E0FFE49F5061EF4D
:10055E009409505C1242A7B42D201244C2245012AA
:10056E0043669DEC12421D40089001CA74B0F080A3
:10057E0021C3EF9E9001CAF0801812458B74509FD4
:10058E00FF12436A9F9001CA40057450F08003E049
:10059E002EF090208AE493FF9001CAE06F60097EEE
:1005AE00207F8A1210FD80197BFF7A1979F9800B52
:1005BE007BFF7A1A790D8003124592123ADA12BE37
:1005CE00CE7BFF7A1A7923123ADA0210357BFF7A44
:1005DE001A792C123ADA12BECE7F011211537A1A00
:1005EE007935123ADA0210357BFF7A1A793E123AD1
:1005FE00DA12BECE7F021211537A1A7947123ADA04
:10060E000210357BFF7A1A7950123ADA12BECE7F7B
:10061E00031211637A1A7959123ADA0210357BFFF6
:10062E007A1A7962123ADA12BECE7F041211637A06
:10063E001A796B123ADA0210357BFF7A1A79741234
:10064E003ADA12BECE7F067E0012DCF97BFF7A1AF2
:10065E00797D123ADA0210357BFF7A1A7986123AD0
:10066E00DA12BECE7F057E0012DCF97BFF7A1A7994
:10067E008F123ADA0210357BFF7A1A7998123ADA2B
:10068E0012BECE7F0612115B7A1A79A1123ADA02E5
:10069E0010357BFF7A1A79AA123ADA12BECE123FC1
:1006AE00B2E4FD12BECE12CF007BFF7A1A79B312DE
:1006BE003ADA0210357BFF7A1A79BC123ADA12BE98
:1006CE00CE7BFF7A1A79C512427012BECE12C9F8CD
:1006DE007BFF7A1A79D9123ADA0210357BFF7A1A31
:1006EE0079E2123ADA1210F3600302079BA3E0FDDF
:1006FE00642D7033A3E0FEC39430400DEED39439D5
:10070E005007EE24D09001CAF090022DE0FFC39462
:10071E00304009EFD39439500312440A9001CAE0D5
:10072E0075F0FFA4F0802AEDC39430401190022B97
:10073E00E0FFD394395007EF24D09001CAF0900215
:10074E002CE0FFC394304009EFD394395003124488
:10075E000A12458B64809474402BD3EF6480948E80
:10076E005023900228EFF0E4A3F090208F936F6057
:10077E00287E207F8F1241B504F012EED37BFF7AD4
:10078E001A79EB800E7BFF7A1A79F880067BFF7A56
:10079E001B7922123ADA12BECE7BFF7A1B794C12EB
:1007AE003ADA0210357BFF7A1B7955123ADA1211BA
:1007BE002C7076A3E09001F5F090022CE09001F6FB
:1007CE00F090022DE09001F7F090022EE09001F8EB
:1007DE00F090022FE09001F9F0900230E09001FAD3
:1007EE00F0900231E09001FBF0900232E09001FCBB
:1007FE00F0900233E09001FDF0900234E09001FEA3
:10080E00F0900235E09001FFF0900236E090020089
:10081E00F012E51212DD737A13791712109D12CFB2
:10082E00007BFF7A17790C80067BFF7A1B795E12AC
:10083E003ADA12BECE124052123ADA12BECE7BFF16
:10084E007A1B798F123ADA0210357BFF7A1B799870
:10085E00123ADA12BECEB2137C207DA69002E6E4E6
:10086E00F0A304F0FB7A02792812E98D900228E0B9
:10087E0030130B4410F07BFF7A1B79A1800954EFE3
:10088E00F07BFF7A1B79B6123ADA12BECE1210A99D
:10089E007BFF7A1B79CF123ADA0210357BFF7A1B77
:1008AE0079D8123ADA12112C60030209491242BEAB
:1008BE005003020949EFD394324003020949124210
:1008CE00BE4078EFD3943450721242BE406DEFD3D7
:1008DE00943650671242BE4062EFD39439505C1288
:1008EE0042BE4057EFD3943650511242BE404CEFA9
:1008FE00D394395046E49002AFF0124481940650DE
:10090E001BE0FE242BF582E43402F583E024D0FDB7
:10091E0074282E12428DED12443480DE74282F126C
:10092E00428DE4F07E207FA87B017A027928900325
:10093E00B0F0A37406F012EED3800C7BFF7A1B7915
:10094E00E1123ADA12BECE7BFF7A1C7903123ADA42
:10095E000210357BFF7A1C790C123ADA12BECEB237
:10096E002612110F3026174480F07BFF7A1C791562
:10097E00123ADA12BECE75E30112B2248014547FFD
:10098E00F07BFF7A1C7921123ADA12BECEC296E4BF
:10099E00F5E31210A97BFF7A1C792E123ADA0210B7
:1009AE00357BFF7A1C7937123ADA12BECE63E30139
:1009BE00E5E330E0057F0112EDEA7BFF7A1C79401A
:1009CE00123ADA0210357BFF7A1C7949123ADA12A2
:1009DE00BECEB2967BFF7A1C7952123ADA021035ED
:1009EE007BFF7A1C795B123ADA12BECE7BFF309611
:1009FE00067A1C796480047A1C7973123ADA12BE74
:100A0E00CEE5E37BFF30E0067A1C798180047A1C08
:100A1E007997123ADA12BECE7BFF7A1C79AE123A71
:100A2E00DA0210357BFF7A1C79B7123ADA12BECE93
:100A3E00B2087BFF3008067A1C79C080047A1C79D4
:100A4E00CF123ADA12BECE7BFF7A1C79E2123ADA74
:100A5E000210357BFF7A1C79EB123ADA12BECEB257
:100A6E002312110F30230B4440F07BFF7A1C79F4D4
:100A7E00800954BFF07BFF7A1D790E123ADA12BE4E
:100A8E00CE7E207FA61241B504F012EED37BFF7A04
:100A9E001D792D123ADA0210357BFF7A1D79361246
:100AAE003ADA1211496003020B4CA312416CE49026
:100ABE0002AFF012448194055018124289E0FDEE07
:100ACE00902096936D60069002AF740CF012443530
:100ADE0080E1EF640D7BFF705F7A1D793F123ADA89
:100AEE0012BECE7E207F961241B57405F012EED363
:100AFE007A1D79561210BF7BFF7A207996123ADA58
:100B0E0012BECE902096E493FF124531FE12453B65
:100B1E00FD124545FC12454FFB900269F090029D77
:100B2E00EFF090029FEEF09002A1EDF09002A3EC98
:100B3E00F09002A5EBF080127A1779B080067BFF59
:100B4E007A1D7974123ADA12BECE7BFF7A1D799233
:100B5E00123ADA0210357BFF7A1D799B123ADA12BD
:100B6E0011496003020C0890022EE0642C6003020F
:100B7E000C08900231E0642C6003020C0890022BEA
:100B8E0012416C900230E090022DF0900231E09014
:100B9E00022EF0900232E090022FF0900233E0909D
:100BAE000230F0E49002AFF0124481940950181212
:100BBE004289E0FDEE90209C936D60069002AF742A
:100BCE000CF012443580E1EF640D7BFF70267A1D28
:100BDE0079A4123ADA12BECE7E207F9C1241B574F1
:100BEE0009F012EED37A1D79B61210BF7BFF7A2070
:100BFE00799C80097A1779B08003124592123ADAFD
:100C0E0012BECE7BFF7A1D79CF123ADA0210357BF7
:100C1E00FF7A1D79D8123ADA12BECE7BFF7A1D7991
:100C2E00E1123ADA12BECE7BFF7A1E7908123FF13C
:100C3E0012BECE12CF007BFF7A20791F123FF11227
:100C4E00BECE7BFF7A207996123ADA12BECE7BFFA9
:100C5E007A207962123ADA12BECE7BFF7A207900C0
:100C6E00123FF112BECE7BFF7A207990123ADA1241
:100C7E00BECE7BFF7A207907123FF112BECE7BFFEC
:100C8E007A20799C123ADA12BECE7BFF7A20791343
:100C9E00123FF11211367BFF7A1E791C123FF112B0
:100CAE00BECE902089E493FFC3648094805008EFF9
:100CBE00124066740E8008902089124063740FF003
:100CCE00128A3C123ADA12BECE7BFF7A1E792E12AF
:100CDE003FF112BECE90208AE493FFC364809480CD
:100CEE005008EF124066740E800890208A124063FE
:100CFE00740FF0128A3C123ADA12BECE7BFF7A1EC5
:100D0E007943123FF112BECE1240607402F0128A85
:100D1E003C123ADA12BECE7BFF7A1E795E123FF19A
:100D2E0012BECE90208D1240637402F0128A3C12D5
:100D3E003ADA12BECE7BFF7A1E7977123ADA0210B9
:100D4E00357BFF7A1E7980123ADA12BECE20932DB1
:100D5E009001F5E06420701EA3E064537018A3E0C8
:100D6E00B452137BFF7A1E7989123ADA12BECE1272
:100D7E0043DFD2348002C23412D869800C7BFF7AF2
:100D8E001E7991123ADA12BECE7BFF7A1E79A41228
:100D9E003ADA0210357BFF7A1E79AD123ADA12BEBC
:100DAE00CE20930312F7D17BFF7A1E79B6123ADA70
:100DBE000210357BFF7A1E79BF123ADA12BECE20B0
:100DCE00930312F7D47BFF7A1E79B6123ADA021029
:100DDE00357BFF7A1E79C8123ADA12BECE20931AEC
:100DEE009001F5E06420701EA3E0B45319A3E0B4A3
:100DFE0052141243DF12E45D800C7BFF7A1E79D110
:100E0E00123ADA12BECE7BFF7A1E79E3123ADA027A
:100E1E0010357BFF7A1E79EC123ADA12BECE7F02C3
:100E2E0012115B7A1E79F5123ADA0210357BFF7ACF
:100E3E001E79FE123ADA12BECE7F031211727A1F9B
:100E4E007907123ADA0210357BFF7A1F7910123ABF
:100E5E00DA12BECE7F047E0012E402E49001C9F0E5
:100E6E007BFF7A1F7919123ADA0210357BFF7A1F4F
:100E7E007922123ADA12BECEE4FFFE12E4027BFFB2
:100E8E007A1A79A1123ADA0210357BFF7A1F792B82
:100E9E00123ADA12BECE7F011211727A1A79A112AB
:100EAE003ADA0210357BFF7A1F7934123ADA12BE23
:100EBE00CE7F057E0012E4027BFF7A1F793D123A47
:100ECE00DA02103543EF100210387BFF7A1F794695
:100EDE00123ADA12BECE7BFF7A1F794F123ADA122D
:100EEE0011367BFF7A1F795E123ADA0210357BFFDC
:100EFE007A1F7967123ADA12BECE7BFF7A1F7970AB
:100F0E00123ADA12BECE7BFF20932A7A1F79801214
:100F1E003FF112BECE7B017A02796312452A12BED0
:100F2E00CE7E027F637A0279637B011243E5D2346F
:100F3E0012D869800A7A1E7991123ADA12BECE7BE5
:100F4E00FF7A1F798B123ADA0210357BFF7A1F79FE
:100F5E0094123ADA12BECE12447A6003020FFFA345
:100F6E00E0B42D047F0180027F001240869020891C
:100F7E001242445074EFC39409506EA3E0642E7075
:100F8E0068A3E0FFE49F5061EF9409505C1242A702
:100F9E00B42D201244C224321243669DEC12421D1F
:100FAE0040089001CA74CEF08021C3EF9E9001CA12
:100FBE00F0801812458B74329FFF12436A9F900186
:100FCE00CA40057432F08003E02EF0902089E4933D
:100FDE00FF9001CAE06F60097E207F891210FD80AC
:100FEE00197BFF7A1979F9800B7BFF7A1A790D80BC
:100FFE0003124592123ADA12BECE7BFF7A1F799D0A
:10100E00123ADA80227BFF7A1F79A6123ADA12BEE2
:10101E00CED2247BFF7A1F79AF123ADA80097BFF9A
:10102E007A1F79B8123ADA12BECEE49002AFF012FD
:10103E004481940F500C74282F12428DE4124434C4
:02104E0080ED33
:1010500022E493FFE4FCFDFE9003717402F0128A17
:101060003CA212923C7D0312BECE22E493FFE4FC2C
:10107000FDFE9003717402F0128A3CA212923C7D34
:101080000312BECE227BFFA212923C7D0312BECE83
:10109000227BFFA212923C7D0312BECE227BFFA2D6
:1010A00012923C7D0312BECE227E207FA67B017A67
:1010B0000279289003B0E4F0A304F012EED3227B6F
:1010C000FFA212923C7D0312BECE2290208BE493AD
:1010D000FF3395E0FEFDFC9003717402F0128A3C30
:1010E000227B017A0279AF9003B0E4F0A304F012FE
:1010F000EED32212BECE90022AE06420227B017A37
:101100000179CA9003B0E4F0A304F012EED322E414
:10111000900229F07C207DA69002E6F0A304F0FB6B
:101120007A02792812E98D900228E02212BECE9030
:10113000022AE064202212BECE7B017A027963A2E9
:1011400012923C7D0912BECE2212BECE90022AE03F
:101150006420227E0012DCF97BFF227E0012E40272
:101160007BFF227E0012DCF97BFF227402F0128AE0
:0A1170003C227E0012E4027BFF2205
:0300530002F3288D
:10F32800C0E0C0D0E5BBB41E0875BB0475BCFC804A
:0EF338000675BB1E75BCF8C2EDD0D0D0E03219
:03008B0002DECDC5
:10DECD00C0E0C0F0C083C082C0D075D000C000C01B
:0DDEDD0001C002C003C004C005C006C0079C
:10DEEA0012F6EAEF30E2337B013024257A0179F326
:10DEFA007D3112AD719001F3E0900228F09001F4A7
:10DF0A00E0900229F09001F5E090022AF0C2248004
:0ADF1A00097A0279287D0F12AD711B
:10DF2400D007D006D005D004D003D002D001D00051
:0BDF3400D0D0D082D083D0F0D0E032FB
:0FF6DB00EFC4540F75F00AA4FEEF540F2EFF2258
:10F6BB00EF75F00A84C454F0FEEF12402E4EFF2279
:10D9830075F43E20B27B9020A7E49330E01B7BFF2D
:10D993007A1F79CC123FF112BECE9002971240E566
:10D9A300128A3C123ADA12BECE900297E0FF14F0CC
:10D9B300EFC39402504B9020A7E49330E00C7BFF1D
:10D9C3007A1F79E7123FF112BECE9001F01240D1D7
:10D9D300D2B19020A7E49330E0139001F0E0FEA3CE
:10D9E300E01244D9128A3C12452A12BECE12F09E8E
