:0300000002D23BEE
:0CD23B00787FE4F6D8FD75817802D2827D
:10D2470002531AE493A3F8E493A34003F68001F290
:10D2570008DFF48029E493A3F85407240CC8C333E8
:10D26700C4540F4420C8834004F456800146F6DFB7
:10D27700E4800B010204081020408090DCC2E47EA9
:10D28700019360BCA3FF543F30E509541FFEE493AC
:10D29700A360010ECF54C025E060A840B8E493A373
:10D2A700FAE493A3F8E493A3C8C582C8CAC583CA9E
:10D2B700F0A3C8C582C8CAC583CADFE9DEE780BE56
:01DCC2000061
:0EF1C200F0EF25E0242DF582E43403F58322DE
:03002B0002E65C8E
:10E65C00C0E0C0F0C083C082C0D075D01890032B2E
:10E66C00E475F00112344975CBF075CA60C2CFC3A2
:10E67C0090032CE0947D90032BE094004009E4F08F
:10E68C00A3F0D22012EF94D0D0D082D083D0F0D08F
:02E69C00E0326A
:10EF9400D390032EE0940090032DE09480400774F6
:07EFA400FFF5F012344922D1
:0300730002F00791
:10F0070053E67F53917F53C77F43C78053C77F43DF
:06F01700C78053C77F32E1
:10EA4A00E490032BF0A3F0FF12F1C3E4F0A312F158
:10EA5A00C2E0547FF00FEFB401EEE4F5C8538E0F15
:0FEA6A0075CBF0F5CA74FFF5CDF5CCD2ADD2CA9D
:01EA7900227A
:10F0FB00538EF8438E04758902758CEA758AEAD2B1
:02F10B008C2254
:10F0C200E4F59175959E75945875939E7592585373
:03F0D2008EBF22CC
:10F05E00E4F591F595F59475937F7592FF538E3F78
:04F06E0043910422A4
:10F10D0012F1C3E0FEA3E07003EE64807002D3221F
:02F11D00C3220B
:10F0D500ED4C600E12F1C3ECF0A3ED12F1C2E04469
:03F0E50080F02296
:10CA2C00436C6F636B206D756C7469706C696572A7
:10CA3C0020616C7265616479206C6F636B65642C2A
:10CA4C0020736B697070696E67207265696E6974AA
:10CA5C00004F534349434E207C3D20307830333BCC
:10CA6C002000434C4B4D554C20203D20307830302D
:10CA7C003B2000434C4B4D554C207C3D20307838AE
:10CA8C00303B200044656C617920666F7220636CCA
:10CA9C006F636B206D756C7469706C696572207452
:10CAAC006F20626567696E200057616974696E67F3
:10CABC0020666F72206D756C7469706C696572207C
:09CACC00746F206C6F636B200095
:1000030075B28353A9F8E4F586758DCC438E082227
:10F072007586BCE58630E6FBE5A954F84404F5A99B
:04F0820053B27F22E4
:10BDE400E5B930E51A901FF4E49320E00302BE8D18
:10BDF4007BFF7ACA792CA211923A7D0902B6F79098
:10BE04001FF4E49330E0077ACA795D12BE8E43B220
:10BE140003901FF4E49330E0077ACA796E12BE8E61
:10BE2400E4F5B9901FF49330E0077ACA797F12BE23
:10BE34009A43B980901FF4E49330E0077ACA79906A
:10BE440012BE9AE4FFFE0FBF00010EBE01F8BFF45C
:10BE5400F543B9C0E4FEFF0FBF00010EBE01F8BFF9
:10BE6400F4F5E5B920E519901FF4E49330E0F37B91
:10BE7400FF7ACA79B5A211923A7D0912B6F780E227
:09BE840075A903758D30438E0889
:10BE8D00227BFFA211923A7D0912B6F7227BFFA207
:09BE9D0011923A7D0912B6F72258
:0D002E000070007000DFF9EE6002DEF422C9
:1011670043757272656E742054696D653A20005339
:10117700657474696E67733A00475053206F6E0049
:10118700475053206F66660044544147206F6E00F6
:1011970044544147206F6666005072696E74696EE9
:1011A70067204750532073656E74656E63657300DF
:1011B7004E6F74205072696E74696E672047505382
:1011C7002073656E74656E63657300537461727422
:1011D7007570205461736B7320446F6E6500706B7C
:1011E70074436D64734F7574004E6F20646174614E
:1011F70020666F7220746865206C6173743A000909
:10120700004461797309486F757273094D696E758A
:10121700746573004D616B696E6720737572652025
:10122700496E746572727570747320656E61626C55
:10123700656420616E6420736D624275734F7065DB
:101247006E004750532055415254206469736162C0
:101257006C65642000475053206973206E6F7420BB
:10126700706F7765726564004C61726765204669C7
:101277006C652053697A65004E65772046696C6511
:1012870020506172746974696F6E200046696C65DD
:101297002073697A653A00202020204C61737420FE
:1012A70047505320617474656D70742077617320A3
:1012B7007375636365737366756C2E200020202039
:1012C700204C6173742047505320617474656D70AE
:1012D70074206661696C6564212000202020204706
:1012E70050532069732064697361626C65642E20B2
:1012F700004261747465727920766F6C74616765FA
:101307002069733A2000486F75726C7920446574C0
:10131700656374696F6E20436F756E742073696EB1
:10132700636520506F776572204F4E3A2000546FE7
:1013370074616C20446574656374696F6E20436FD4
:10134700756E742073696E636520506F77657220C0
:101357004F4E3A2000202020506F6F72205369674C
:101367006E616C00204E4545445320534552564903
:10137700434521212100210020000D0A0D0A2D2DB2
:101387002D202A2A2A2054524944454E5420534896
:10139700454C4C2053544152544544202A2A2A0D87
:1013A7000A2D2D2D000D0A2D2D2D20487964726FE1
:1013B70070686F6E6520636F6D6D756E69636174BC
:1013C700696F6E20737461727465642E00566F6C5A
:1013D700746167652076616C75653A20004D6E54BF
:1013E700616B654D6561737572656D656E747320AC
:1013F700526561642054656D7065726174757265BC
:10140700200054656D706572617475726520766130
:101417006C75653A20004D6E54616B654D6561735F
:101427007572656D656E74732047657474696E6750
:101437002074696C740057616974696E6720706500
:1014470072696F642076616C75653A200054696C27
:10145700742076616C75653A200061646347657432
:101467005072657373757265526573756C7400504D
:10147700726573737572652076616C75653A2000C5
:101487004E6F2056616C69642044737020566572F4
:1014970073696F6E20696E20746865205254432DFE
:1014A70020546F67676C65206120736F667477617E
:1014B7007265207265736574206F66207468652095
:1014C70044535020746F2072657472696576652085
:1014D70069740057616974696E6720666F7220448A
:1014E700535020746F2073656E642076657273693C
:1014F7006F6E2E2E2E005355434345535321212102
:1015070000496E76616C69642073657269616C204D
:101517006E756D626572005374617274206F662018
:101527004D656D6F7279204361726420496E7365F2
:101537007274696F6E004C6F6767696E6720746FAE
:10154700205344206D656D6F72792063617264204A
:10155700686173206265656E20696E69746961747C
:1015670065642E0057616974202E2E2E20004C6F63
:101577006720526573756D65642061743A20005465
:1015870061674C6F674F70656E00536D624F706592
:101597006E00556E6C6F6164696E67206F7572209F
:1015A70064617461005461674C6F674F70656E6565
:1015B70064005344206D656D6F72792063617264B6
:1015C70020686173206265656E2072656D6F766550
:1015D700642E00456E64206F66204D656D6F7279CD
:1015E700206361726420696E73657274696F6E201F
:1015F7000054696C742043686970204944206E6FF9
:101607007420726563656976656400664E65775315
:10161700796E6320526F6C6C6F766572204C6F67C2
:10162700696300756C43756D546F745F4453503A2A
:101637002000756C43756D546F743A2000526F6CBF
:101647006C6F766572204164642056616C3A2000A5
:10165700756C43756D546F74203D20756C43756DC3
:10166700546F745F4453500000664E657753796E2C
:1016770063205254432074696D652061646A7573F1
:10168700746564004D697373696E67206D656D6F6E
:10169700727920636172642E0053746172742075CD
:1016A70070202D20446574656374696F6E73207AAA
:1016B70065726F65642E005B2424002C0024245D72
:1016C7000D0A0055534220434D4420526563656916
:1016D7007665640047707320496E7075742044699D
:1016E7007361626C6564004E657720436F6E66694F
:1016F700672073656E74004F6C6420436F6E666974
:10170700672073656E740053656E736F7220726124
:1017170074652069733A20004E6F20757064617498
:1017270065204E65656465640043616E27742073A8
:1017370065742053656E736F725261746520696EAC
:10174700636F727265637420666F726D61740053A4
:101757006C65657020526174652069733A20004397
:10176700616E27742073657420736C6565702072D1
:1017770061746520696E636F727265637420666F4A
:10178700726D617400655F61636B3E004E756D62DB
:101797006572206F662061736B732069733A20004E
:1017A70043616E2774207365742061736B207261C7
:1017B700746520696E636F727265637420666F72F9
:1017C7006D6174003C735F615F61636B00655F61AE
:1017D7005F61636B3E003C735F425F61636B004414
:1017E7005441473A206F6E00445441473A206F6690
:1017F70066004750533A206F6E004750533A206FA8
:101807006666004750532073656E74656E63652086
:101817007072696E74696E672069733A206F6E0023
:101827004750532073656E74656E636520707269E7
:101837006E74696E672069733A206F666600486F39
:1018470075726C792046696C65732069733A206FED
:101857006E00486F75726C792046696C65732069F4
:10186700733A206F6666004461696C792046696C3B
:1018770065732069733A206F6E004461696C792043
:1018870046696C65732069733A206F66660046691E
:101897006C65732064756D70733A206F6E004669CE
:1018A7006C65732064756D70733A206F66660054BB
:1018B700656D70657261747572653A206F6E00545C
:1018C700656D70657261747572653A206F66660042
:1018D70050726573737572653A206F6E005072654A
:1018E70073737572653A206F66660054696C743A53
:1018F700206F6E0054696C743A206F6666005365FA
:101907006E736F7220726174653A200073004750DE
:1019170053207361766520696E74657276616C3ADF
:101927002000655F425F61636B3E003C735F625FEF
:1019370061636B004E6F206368616E676520696E37
:10194700206F6666736574004261642056616C752A
:1019570065730042616420466F726D617400655F54
:10196700625F61636B3E003C735F445F61636B0062
:10197700655F445F61636B3E003C735F645F6163F7
:101987006B00655F645F61636B3E003C735F455F3F
:1019970061636B00655F455F61636B3E003C735F2E
:1019A700655F61636B00655F655F61636B3E003C0C
:1019B700735F465F61636B00655F465F61636B3EA4
:1019C700003C735F665F61636B00655F665F6163C1
:1019D7006B3E003C735F475F61636B00655F475F0A
:1019E70061636B3E003C735F675F61636B00655FBC
:1019F700675F61636B3E003C735F485F61636B00C9
:101A070043757272656E742054696D655374616DA8
:101A1700703A2000655F485F61636B3E003C735F0F
:101A2700685F61636B0054696D657A6F6E652053FB
:101A370065740054696D657A6F6E65206E6F7420EA
:101A4700736574206265636175736520696E76617D
:101A57006C69642074696D657A6F6E650054696D91
:101A6700657A6F6E65206E6F74207365742062658A
:101A7700636175736520696E636F72726563742045
:101A8700666F726D617400655F685F61636B3E00CE
:101A97003C735F695F61636B004E65772054696DC6
:101AA700653A200054696D652077617320756E6112
:101AB700626C6520746F20626520736574206361B2
:101AC70075736520696E636F727265637420666FE4
:101AD700726D617400655F695F61636B3E003C73A3
:101AE7005F4A5F61636B005072696E74696E67204D
:101AF70047505320737472696E6773004E4F5420BA
:101B07007072696E74696E672047505320737472E0
:101B1700696E677300655F4A5F61636B3E003C7384
:101B27005F6A5F61636B00496E636F7272656374AE
:101B370020466F726D6174206F7220696E76616CDA
:101B470069642076616C756500655F6A5F61636BC8
:101B57003E003C735F4B5F61636B004750532065EA
:101B67006E61626C656400475053206469736162FB
:101B77006C656400655F4B5F61636B3E003C735F40
:101B87006B5F61636B00655F6B5F61636B3E003C1E
:101B9700735F6C5F61636B00655F6C5F61636B3E76
:101BA700003C735F4D5F61636B00475053206D6F5F
:101BB70064656D20276F6E2700475053206D6F6453
:101BC700656D206F666600475053206F757470759A
:101BD700742072656365697665204F6E00475053C0
:101BE700206F7574707574207265636569766520FA
:101BF7004F666600655F4D5F61636B3E003C735FD8
:101C07006D5F61636B00475053205072696E74209B
:101C17005541525400475053205072696E742055F5
:101C2700415254204F464600655F6D5F61636B3ECE
:101C3700003C735F4E5F61636B004F757470757422
:101C470074696E6720646574656374696F6E206478
:101C57006174610053746F70206F7574707574745C
:101C6700696E6720646574656374696F6E2064616B
:101C7700746100655F4E5F61636B3E003C735F6E2E
:101C87005F61636B005570646174696E67205365AB
:101C97007269616C204E756D6265720046696E6986
:101CA700736865640D0A4E65772053657269616CC8
:101CB700204E756D6265723A200043616E2774206D
:101CC70073657420534E20696E636F727265637417
:101CD70020666F726D617400655F6E5F61636B3E56
:101CE700003C735F6F5F61636B005570646174697B
:101CF7006E6720536974654E616D650046696E694C
:101D0700736865640D0A4E657720536974654E6183
:101D17006D653A2000655F6F5F61636B3E003C73E2
:101D27005F505F61636B004154532D48323020434D
:101D37006F6E66696775726174696F6E205265713F
:101D470075657374207265636569766564005265AD
:101D5700636569766572205254432074696D653AEC
:101D670020005072657373757265204F66667365E0
:101D7700743A200054656D706572617475726520E0
:101D87004F66667365743A200054696C742063610A
:101D97006C69622E20736C656570206F666673656B
:101DA700743A200054696C742063616C69622E2058
:101DB70061736B206F66667365743A2000655F50C8
:101DC7005F61636B3E003C735F705F61636B0054E0
:101DD700797065283129004E6F2053442063617262
:101DE700642070726573656E7400655F705F616310
:101DF7006B3E003C735F515F61636B00655F515FD2
:101E070061636B3E003C735F715F61636B003C73A2
:101E17005F525F61636B00496E76616C696420662F
:101E2700696C65206E616D6500655F525F61636B0C
:101E37003E003C735F725F61636B00655F725F6159
:101E4700636B3E003C735F735F61636B00655F7339
:101E57005F61636B3E003C735F745F61636B00653A
:101E67005F745F61636B3E003C735F555F61636BDB
:101E7700003C735F755F61636B003C735F765F6106
:101E8700636B00655F765F61636B3E003C735F78F1
:101E97005F61636B0067657443757272656E744644
:101EA700696C6500655F785F61636B3E003C735FDB
:101EB700595F61636B0073656E6443757272656E1B
:101EC7007446696C650046696C654E616D653A20BC
:101ED70000655F595F61636B3E003C735F795F61CB
:101EE700636B00655F795F61636B3E003C735F7A8C
:101EF7005F61636B00655F7A5F61636B3E0055737B
:101F070062204461746120556E7265736F6C7665EB
:101F170064007563526573657442617474657279A0
:101F2700466C6970466C6F7050335F320075635250
:101F37006573657442617474657279466C6970463D
:101F47006C6F703A200044535020763A00536974FE
:101F570065204E616D653A200046696C65204E61CB
:101F67006D653A200053657269616C204E756D622C
:101F770065723A200046696C6520466F726D617420
:101F87002056657273696F6E3A20332E3020200019
:101F970046696C652053746172743A200046696C17
:101FA7006520456E643A2000415453205472697489
:101FB7006F6E205265636569766572204656657255
:101FC70073696F6E3A2031312E3137000D0A0000E8
:101FD700000FFF03020030302E3030003039303030
:101FE70030004832302C49532C4D4E000000000081
:101FF7000000000000000000000010C4EA61360382
:1020070041006400760061006E00630065006400B3
:102017002000540065006C0065006D0065007400C9
:102027007200790020005300790073007400650086
:102037006D0073001E0353006F006E00690063009C
:1020470020005200650063006500690076006500A6
:0720570072000F8001007010
:10DCC3004C019A0C0330003900300030003000C1A1
:10DCD30085C10BC115C1864100CB0042013800004C
:10DCE30042007E00004100CA004100E80141019961
:10DCF3000041017E0041017D094100F40041013CE6
:10DD030004410197044100CD004101980041013BCA
:09DD13000041013A004100020048
:10391A0090042F75F00A84E5F02430FFE52A75F04B
:10392A00800237D990042975F00A842430FFE52AE9
:10393A0075F0800237D9C4540F2430FEEF75F08039
:10394A000237D9C4540F2430FEEF75F0800237D9FC
:10395A00EB75F08090042A0237D97A13797F7BFFBE
:10396A00A211923A7D0922EB75F080900427023762
:10397A00D9EB75F0809004260237D9EB75F0809068
:10398A00042E0237D9E0FFEB75F08090043202373B
:10399A00D9E0FFEB75F0809004340237D9E0FFEBF1
:1039AA0075F0809004350237D9E0FFEB75F080900E
:1039BA0004370237D9EB90042F75F0800237D97596
:1039CA00F0809004380237D9EB90043175F0800208
:1039DA0037D9FFEB75F0800237D9EF75F080900484
:1039EA005B0237D9F075F080EF9004601237D97412
:1039FA002CF0EF90046175F0800237D9FFEB75F077
:103A0A00800237D9FFEB75F0800237D9900429EB91
:103A1A0075F0800237D9900467EF75F0800237D9C4
:103A2A00EF75F0809004650237D975F08090046EC6
:103A3A000237D975F0809004790237D975F08090F1
:103A4A00047D0237D9FF75F080EB0237D9EF75F0A4
:103A5A00809004640237D9FF75F080EB0237D9757C
:103A6A00F0809004420237D9EF75F0809004630227
:103A7A0037D97420F090043D75F080EB0237D97580
:103A8A00F08090047E0237D9FF75F080EB0237D9B7
:103A9A0090045F75F080EF0237D990000EE0FEEFD8
:103AAA0075F00EA4240EF582E43400F583EEF0904E
:103ABA00000FE0FEEF75F00EA4240FF582E4340047
:103ACA00F583EEF0900010E0FEEF75F00EA42410DE
:103ADA00F582E43400F583EEF0900011E0FEEF7514
:103AEA00F00EA42411F582E43400F583EEF0900080
:103AFA0012E0FEEF75F00EA42412F582E43400F50C
:103B0A0083EEF0900013E0FEEF75F00EA42413F597
:103B1A0082E43400F583EEF0900014E0FEEF75F0D5
:103B2A000EA42414F582E43400F583EEF090001517
:103B3A00E0FEEF75F00EA42415F582E43400F58357
:103B4A00EEF0900016E0FEEF75F00EA42416F58252
:103B5A00E43400F583EEF0900017E0FEEF75F00E06
:103B6A00A42417F582E43400F583EEF0900018E0FF
:103B7A00FEEF75F00EA42418F582E43400F583EE06
:103B8A00F0900019E0FEEF75F00EA42419F582E416
:103B9A003400F583EEF090001AE0FEEF75F00EA403
:103BAA00241AF582E43400F583EEF090001BE0FE5F
:103BBA00EF75F00EA42275F0809004430237D9F015
:103BCA0090047F75F080EF0237D975F08090044435
:103BDA000237D975F0809004460237D975F0809083
:103BEA0004480237D975F08090044A0237D975F033
:103BFA00809004400237D975F08090046D0237D95D
:103C0A0075F0809004720237D975F08090047302BF
:103C1A0037D990045E75F080EF0237D975F080903D
:103C2A0004750237D975F0809004760237D9EFF01F
:103C3A0075F080E52A90042C1237D97432F0E52AFF
:103C4A0075F08090042D0237D975F08090047702C0
:103C5A0037D975F0809004780237D9EF75F08090E3
:103C6A0004500237D9FF75F080EB0237D975F0801E
:103C7A009004660237D9F0EF75F08090044E02374F
:103C8A00D975F08090044F0237D975F080EB02376E
:103C9A00D9EE75F08090045D0237D975F080EB1289
:103CAA0037D97420F0227A1179677BFFA211923AF0
:103CBA0022E50875F00EA4240EF582E43400F5839B
:103CCA00E09000F5F0E50875F00EA4227A1679C2A4
:103CDA007BFFA211923A227BFFA211923A22900410
:103CEA005C75F080EF0237D935F0FA7B0175F00F79
:103CFA00E52B1237D9E0227BFFA211923A227BFFF1
:103D0A00A211923A7D0322FE75F080EF0237D9752F
:103D1A00F00A84E5F02430FF75F080E52A22900845
:103D2A000875F00FE52B1237D9E022FE75F080EF07
:103D3A000237D975F080EE0237D975F0101232DDEC
:103D4A00AFF0EF243090010AF0A3747AF0E4A3F004
:103D5A007B017A0079F522901FD9E493FF3395E02D
:103D6A00FEFDFC90026D22FDC4540F2430F0ED5488
:103D7A000F2430A3F02275F080EF0237D99001ABFF
:103D8A00EFF0E0FD242CF582E43401F583E024D041
:103D9A00900129F0742D2DF582E43401F583E09029
:103DAA00012AF09001ABE0242EF582E43401F58378
:103DBA00E024D090012BF022E0FF75F00A84E5F0B0
:103DCA002430FE75F080E52A2275F080EE0237D99C
:103DDA003EF583E538F09001F1E475F001023449CB
:103DEA0090080275F00FE52B1237D9E022E0FFE4C4
:103DFA00FCFDFE90026D7402F02275F080EB023732
:103E0A00D9E024D0FFE434FFFE7C007D0A1233ACF3
:103E1A00A3E024D0FDEC34FFCD2FFFED3E2290002D
:103E2A008EE024D0FF900002E0FE75F00A84E5F0EF
:103E3A002275F080EF0237D935F0FA7B01A2119290
:103E4A003A229001ED12371BEC4D4E4F22EEF0ED67
:103E5A0075F00EA4229001F1E0FEA3E0FF9001E8C4
:103E6A00E02FFF9001E7E03EFE2275F00EA4240F3A
:103E7A00F582E43400F58322E0900129F090012DC7
:103E8A00E090012AF090012EE090012BF090012F92
:103E9A00E090012CF0900130E090012DF0227BFFA0
:103EAA00A211923A22E47B3CFA9001DFF9F8123728
:103EBA001B0235CD7A0179297B019002ACE4F0A38B
:103ECA002275F080EE0237D9A8011236A1EF540FFD
:103EDA00FFEF2430F538D39439229001E7E0FEA3AE
:103EEA00E0FF2412F58274043EF58322EFF0748712
:103EFA002AF582E43400F583E022901FF3E4937BF1
:103F0A00FF227BFFA211923A22E9F074832AF582FA
:103F1A00E43400F58322EFF074842AF582E4340055
:103F2A00F58322EFF074852AF582E43400F58322C2
:103F3A00EFF074862AF582E43400F583229001A911
:103F4A00E02414FFE433FEC3E5449FEE6480F87472
:103F5A0080982290008DE0FF7430D39F2275F00F75
:103F6A00E52B1237D9E02212371BA804A905AA06A5
:103F7A00AB072275F080EB0237D9C4540F2430FE08
:103F8A00EF22E4939000CBF0E49001ABF09001298A
:103F9A00E0FFE4D39F22742CF075F080222411F5FF
:103FAA0082E43400F583E0222412F582E43400F539
:103FBA0083E0227BFFA211923A22E52B900803129A
:103FCA0037D9E582252EF582E43583F583229003DD
:103FDA0024E075F080A422E0FE2429F582E434016D
:103FEA00F583227F837EEC7D027C409000E21237CB
:103FFA0037D3023690900129E075F00AA4FF9001A8
:10400A002BE02F9001ABF090012CE0227420F07588
:10401A00F08022241BF582E43400F583229001F11A
:10402A00E0FEA3E0FFC322A3E09000F524D0F090C5
:10403A00012DE024D0227D017B007A00790D7E00DB
:10404A007F060232B775F080EF0237D9E490013A61
:10405A00F0A3F0900198F02274072538F53822E58C
:10406A002A75F080A4227BFFA211923A22E09003E3
:10407A0028F0E4A3F07B017A037925A211923A226F
:10408A00A3E0FFC39430222410F582E43400F583C0
:10409A00E0222413F582E43400F583E0223EF5831E
:1040AA007420F0E49001F1F0A3F022E0FF9001AB5C
:1040BA00E02FF022E49375F00AA4FFA3E4932FFF04
:1040CA00EC35F0FE229000F6540F2430F0A322FDC6
:1040DA00E43CFC9001ABE0FED322D39001A7E0942C
:1040EA00059001A6E06480948022901FD8E493FD95
:1040FA003395E0FC123413ED4C22742DF0EF339516
:10410A00E0FE7CFF7DFF0233AC9001E7E0FEA3E016
:10411A0022240EF582E43400F58322122F35900111
:10412A00B012375F9001B42275F00FE52B1237D920
:10413A00E02275F00AE0A49001ABF0227B017A003C
:10414A0079F8900343023817C2B37DB47C2D7F0FF0
:10415A0022F583E09000F6F0A3742E22E0FF75F0BA
:10416A000A84243022EFF0748A2AF582E43400F5B6
:10417A0083E0FF2275F03CEF84FFA3E02FF022EFEB
:10418A0024D0FF9000CBE075F00AA42FF02275F03E
:10419A0080EE0237D99001E7E0FCA3E0FD22EFF0C0
:1041AA0074882AF582E43400F583E022EFF07489FA
:1041BA002AF582E43400F583E022AF33AE32AD3122
:1041CA00AC3022F09001ABE004F02290008DE024A4
:1041DA00D0FFEE75F00A8422901FF4E493FF22A325
:1041EA007420F0A3F0901FDCE493FF2275F0101204
:1041FA0032DD2430900109F0229001DB12375F9002
:10420A0001DB227BFFA211923A22E4F075F080EFE3
:10421A002290012BE06420229001ABE0FFC322E44C
:10422A00FAF9F80235CD12371B7BD57AFF797F78F8
:10423A0039227B407A42790F78009001DB22AB0C5D
:10424A00AA0BA90AA8090236909001ABE0C394010F
:10425A0022901FF4E4937BFF229000CBE0FFFD3312
:10426A0095E0FCED22FFE4FCFD90026D7407F0225C
:10427A002416F582E43400F583E0222417F582E45B
:10428A003400F583E022E493FDFB3395E0FAEF6B0B
:10429A0022A3E493648094B022C295C2A4C290225D
:1042AA007D3C1233ACAA06AB07227C0E7D1012337A
:1042BA00ACEF2B22901FF3E493FF22E4F50CF50BED
:1042CA00F50AF50922A211923A7D0922900165F0B8
:1042DA00901FE4E49322900166F0901FE5E4932294
:1042EA00900167F0901FE6E49322900168F0901F16
:1042FA00E7E493223CF583E538F0229001B41237C3
:10430A005F9001B0227BFF7A17791F22F09000F5A7
:10431A00E0FFE4D39F229000CBE0FFC3227BFF7A29
:04432A0019795A2281
:10531A00E49001A6F0A3F0C231A3F0A3F0A37405B0
:10532A00F0E49000CAF0C207C2289000E804F090A6
:10533A0001977404F0D2017F0712ED6D53D9BF753E
:10534A00C990E4F5FF12000312DFA412D2C712CFEC
:10535A0053123CB0E4FD12B6F712C82653C77F12A7
:10536A00F23812AF9F1242A3C23512EE1EC230C2E9
:10537A00017A11797612396812B6F7901FF3E4931D
:10538A0030E70D12AB1DD2247BFF7A117980800D94
:10539A00E4F5E3C296C2247BFF7A11798712396A4F
:1053AA0012B6F7123F0430E6067A11798F80047A32
:1053BA0011799712396A12B6F7123F0430E40E7A5D
:1053CA001179A012396A12B6F7D212800C7A1179C1
:1053DA00B712396A12B6F7C2127BFF7A1179D21262
:1053EA00396A12B6F7E49000E7F012405712EAD988
:1053FA0078C37C00124040901FD9E4939000CEF00D
:10540A00901FDAE4939000C9F012EAD9120003203F
:10541A001C03309306301C19309316309603E4F5BA
:10542A00E312AF9F30240512AB1D8005E4F5E3C2F9
:10543A0096E54470030254F2300605209302D29096
:10544A00301717D232124B8B1297E37BFF7A1179FE
:10545A00E512396A12B6F70254EC123F4750341279
:10546A005A5075F01E84E5F07010AF0D12F131C07C
:10547A0007125A19D007EEB507192021030255E57C
:10548A00AF0D12F131C007125A19D007EE6F70032F
:10549A000255E5123F4740089001A8E004F0800752
:1054AA00E49001A8F0A3F09001A8E0D39403400B84
:1054BA00A3E02404F09001A8E014F09001A8E0B45D
:1054CA00C8037404F09001A9E02414FFE433FEC376
:1054DA00EF9464EE648094804003744CF0D23212EC
:1054EA004B8B1240560255EB300605209302C290B0
:1054FA00AF0E12F131C007125A57D007EE6F700380
:10550A000255E5AF0D12F131C007125A24D007EE49
:10551A006F70030255E5900198E004F0E0B43C0B8B
:10552A0090013BE004F0E4900198F090013BE0B474
:10553A00180990013AE004F0E4A3F0900198E030F1
:10554A00E00F90013BE0700990013AE070030255C8
:10555A00D97BFF7A1179F012396A12B6F790013ABB
:10556A00123DF7128394A211923A7D0712B6F77A86
:10557A00127906123CB47D0712B6F790013B123D30
:10558A00F7128394A211923A7D0612B6F77A12792B
:10559A0006123CDA7D0712B6F7900198123DF7120F
:1055AA00839412396A12B6F77BFF7A127908123994
:1055BA006A12B6F730AF05E5E620E0137BFF7A12F0
:1055CA00791B12396A12B6F7D2AFC23512EE1E90A3
:1055DA00013BE0D39421400312405643870185875B
:1055EA008730980312B8DEE4FF12ED2D301270AF47
:1055FA000D12F131C007125A24D007EE6F601F3026
:10560A00960DE5E330E0087B017A00798280092073
:10561A00960C7BFF7A12795C12396A12B6F7123E3F
:10562A0028B507161241D5B50710AF0D12F131C0D2
:10563A0007125A2FD007EEB50717123F5D5012EF27
:10564A009439500DA3E0FF74309F5005EF94394010
:10565A000E9001A6123DE31240E44003125A7EE581
:10566A0060D3940F50030257BB2024030257BB3068
:10567A003C030257BB900093E064416009A3E064D5
:10568A00416003025754900083E064476003025765
:10569A0054901FF693FF901FF5E4934FFF901FF766
:1056AA00E4934FFFA3E4934FFFA3E4934FFFA3E4D4
:1056BA0093F94F700302575490008B123E0BFE125F
:1056CA0042AA900089E024D0FFE434FFFE123E157E
:1056DA00FE1242B4FBEE3AFA90008D123E0BCF2B2B
:1056EA00FBEF3AFAC002C003901FF71240BE124203
:1056FA00AA901FF51240BE1242B4FDEE3AFC901F6A
:10570A00F9E49375F00AA4FFE97A002FFFEA35F06D
:10571A00CF2DFDEF3CFCD003D002AF03AE02123313
:10572A00BEED4C702590008EE024D0FF900002E080
:10573A00123E346F60147B017A00798212396A1240
:10574A00B6F7301C057F0412BF66123E286F70241C
:10575A001241D56F701EAF0D12F131C007125A2FC8
:10576A00D007EE6F600E9001A6123DE31240E440AE
:10577A0003125A7E123F5D5038EF94395033A3E03A
:10578A00FF74309F502BEF94395026EF24D0FF90AE
:10579A000002E0123E346F601890008DE024D0754C
:1057AA00F00AA4900002F0E02FF0E49001A6F0A322
:1057BA00F0125A5075F00F84E5F07013AF0D12F124
:1057CA0031C007125A3AD007EE6F600312D34AAFBC
:1057DA000D12F131901FDBE493FD3395E0FCEF2DC0
:1057EA00FFE43CFE1240F47020AF0D12F131C00705
:1057FA00125A3AD007EE6F6010901FF4E49330E427
:10580A000812415212EAAAD2B3AF0D12F1317E0048
:10581A001240F47015AF0D12F131C007125A45D07B
:10582A0007EE6F6005C233127D1F309313125A6B55
:10583A0020E0051242A38052D295D2A4D290804A87
:10584A00AF0D12F131C007125A45D007EE6F603A18
:10585A0030060A125A6B20E004B2A48002C2A430B5
:10586A000615AF0D12F131EF75F00384E5F07007FC
:10587A00300C04B2958002C29520060E30900BAF10
:10588A000D12F131EF20E002C290AF0D12F131C0DA
:10589A00079000C3E0FF12F131AE07D007EE6F7038
:1058AA00030259499000C3E50DF053AEFEE5C72047
:1058BA00E0069001AA7402F0202405C296E4F5E3FA
:1058CA009000F4E0D394054005200C02D20C90011C
:1058DA00AAE0D394004002D206301C63123FED4086
:1058EA005E7BFF7A12796F7D0912B6F7C232124BCC
:1058FA008B9000E8E0C394215027123FED4022121A
:10590A005A727BFF7A12797F7D0712B6F79000E808
:10591A00E0FFE4FCFDFE90026D125A88125A928052
:10592A00D07BFF7A1279937D0612B6F79000E212C5
:10593A00371B90026D740B125A88C23512EE1EAFD5
:10594A000E12F131C007125A57D007EE6F60199044
:10595A0000C4E50EF09001AAE0FF7006EFD39400B0
:10596A0040069001AAE014F0AF0F12F131C00712FD
:10597A005A62AE07D007EE6F7003025413125A62CE
:10598A00C007AF0F12F131AE07D007C3EE9F640113
:10599A00601A9000C5E0FF12F131C007AF0F12F193
:1059AA0031AE07D007C3EE9F64E9705A1242BE3087
:1059BA00E002D202EF30E214209311D232124B8B62
:1059CA00D203C23212EEC8125A9280272093319023
:1059DA001FF3E49330E1299000C5E0FF12F131EFA3
:1059EA006417701CAF0F12F131EF7014D232124BE0
:1059FA008BD200125A72125A92C23512EE1E8006C9
:0F5A0A00C203C200C2029000C5E50FF0025413A0
:105A19009000C3E0FF12F131AE07229000C3E0FF0E
:105A290012F131AE07229000C3E0FF12F131AE0747
:105A3900229000C3E0FF12F131AE07229000C3E0CB
:105A4900FF12F131AE0722AF0D12F131EF229000B2
:105A5900C4E0FF12F131AE07229000C5E0FF12F158
:105A69003122AF0D12F131EF22D23212EEC890007D
:105A7900E8E004F022E4F0A3F07F0112E82422F028
:095A89001283947D0912B6F72284
:10D2C700C232124B8B12F238C2AF12EFAB1241547B
:10D2D70012EAAA2094FD3094FD2094FDC2B4309444
:10D2E700FDD2B41242C512EAD978037C001240403D
:10D2F70078EC7C007D01124048900003E0FF12F1BA
:10D307009590000312D33890000412D3389000058B
:10D3170012D34190000612D341900007EFF0A3E02B
:10D32700FF12F195900008EFF0C23512EE1ED2AF52
:10D3370022EFF0A3E0FF12F19522EFF0A3E0FF1236
:03D34700F195223B
:0D004600C28712415412EAAAD28702D2C723
:10ED6D0090000CE0A3F090000BE0A3F090000AE0FF
:0EED7D00A3F0900009E0A3F0900009EFF0224F
:10D74000E511123F85123972EEF0E51190042612B0
:10D750003940EEF0E510123F8512395BEEF0E5102E
:10D76000900429123940EEF0E512123F851239C0BB
:10D77000EEF0E51290042E12394DEEF0E50F123F57
:10D7800085123992EEF0E50F90043112394DEEF02A
:10D79000E50E123F851239AAEEF0E50E123F841213
:10D7A000399EEEF0E50D123F851239C9EEF0E50D18
:09D7B000123F841239B6EEF0229A
:10E05400ED14601414603014603C24037046900482
:10E0640000123A23745B8018900400123A9D745B8A
:10E07400F0900401123BCD745BF0EF123A89745DA9
:10E08400123BC9745DF022900400123C1F742012EC
:10E094003BC97420F022900400123CEB740A123B3A
:05E0A400C9740DF0221B
:05D7B9009001E7EFF014
:10D7BE00A3F09001E8E0FFC39404505B7D0312E0F8
:10D7CE00549001E8E0900439123928742EF0E4F5F3
:10D7DE0038F53974632539F58274013538F583E0EF
:10D7EE00FF9001E8E090040112393AE5822539F5FF
:10D7FE0082E5833538F583EFF00539E5397002059A
:10D80E00386419453870CC9001E8E0FF129CCC903A
:0DD81E0001E8E004F0809B9001E7E0F513C5
:01D82B0022DA
:10E1F200900424123D80123FA0EF900425123CA906
:10E20200900428123D80742FF090042B123E3B7430
:10E212002FF075F080EF900430123CA99004331275
:10E222003E3B743AF090043612404F743AF0900438
:0FE232002C12404F7432F0EF123C4A7430F0223D
:029CCC00AE07E1
:109CCE0090041A123D3D742CF0E4F53AF53B74E91C
:109CDE00253BF582741F353AF583E493FF90041B00
:109CEE00123D3DE582253BF582E583353AF583EF5E
:109CFE00F0053BE53B7002053A6409453A70CFAF7B
:109D0E000612E1F2EE123BF8123FA0EE9004411261
:109D1E003CA9EE123A697447F0EE123BC07437F06C
:109D2E00EE123BD47432F090044B123DD3123FA08E
:109D3E00EE90044C123CA9EE123C0A7420F0EE1286
:109D4E003C26742FF0EE123C2F7433F0EE123C537F
:109D5E007431F0EE123C5C742CF0EE123A3D74202D
:109D6E00F0EE123C01742CF0EE123A347420F0EE48
:109D7E00123A46123FA0EE123A8C124016EE9004A2
:109D8E004D123CA9900451123DD3123FA0EE900407
:109D9E0052123CA91241E220E415EE123C667441C7
:109DAE00F0EE123C8B742FF0EE123C82744EF0905B
:109DBE000455123ECB742EF0900458123ECB123F37
:109DCE00A0EE900459123CA975F080EE90045A1240
:109DDE003CA9EE1239E5E0D39439500D75F080EEC2
:109DEE001239E8E0C394305008123C9B7441F08065
:109DFE0006123C9B742EF0900460124198742CF065
:109E0E00EE1239FD7420F0EF75F08030E309EE129A
:109E1E003C7A742EF08023EE900467123CA9EE1269
:109E2E003C777420F0EE123A2B7441F0EE123A5851
:109E3E00742FF0EE123A73744EF075F080EE9004BB
:109E4E0062123CA9900468124198123FA0EE900451
:049E5E0069123CA9A0
:019E620022DD
:10EE580012EAD99000EEE50FF0A3E510F0A3E51152
:0CEE6800F0A3E512F09000EDE50EF022A2
:10EC520012C8263024117BFF300F067A12799E806B
:10EC62000C7A1279C480067BFF7A1279E212396A31
:06EC720012B6F702BC5AC5
:10C82600303D0302C8D2E511C4540F2430FD9000F8
:10C83600F5B430057420F08002EDF0E5111240CF1A
:10C84600742FF0E510C4123D79E510123D79A374FA
:10C856002FF0E512C4123D79E512123D79A374203A
:10C86600F0E50FC4540F2430FDB43006A37420F055
:10C8760080059000FEEDF0E50F9000FF1240D274A7
:10C886003AF0E50EC4123D79E50E123D79A3743AED
:10C89600F0E50DC4123D79E50D123D791241E9FD31
:10C8A600C3648094809001085007124104AD07804C
:10C8B60003742BF0ED1241F6ED123D4412396A1263
:0CC8C600B6F77D179000F5E4F0A3DDFC50
:01C8D2002243
:10C25E00303D0302C3189000F0E0FFC4540F2430A9
:10C26E00FE9000F5B430057420F08002EEF0EF126F
:10C27E0040CF742FF09000EFE09000F8123D71A3C4
:10C28E00742FF09000F1E09000FB123D71A374202A
:10C29E00F09000EEE0FFC4540F2430FE9000FEB488
:10C2AE0030057420F08002EEF0EF540F2430900031
:10C2BE00FFF0A3743AF09000EDE0FDC4540F24306B
:10C2CE00900101123D77A3743AF09000ECE0FDC4AA
:10C2DE00540F2430900104123D771241E9FEC364DD
:10C2EE008094809001085007124104AE07800374B9
:10C2FE002BF0EE1241F6EE123D4412396A12B6F7E9
:0AC30E007E179000F5E4F0A3DEFCBA
:01C318002202
:10BC5A007A1279F8123CE1E4FD12B6F7123CCF12DF
:10BC6A004091FF12EC2B123CCF123FA7FF12EC2B94
:10BC7A007F2E12EC2B123CCF123FB2FF12EC2B128A
:10BC8A003CCF12409CFF12EC2B7A13790D123CE147
:10BC9A007D0812B6F77875E6FE08E612426F12833F
:10BCAA00941242CF12B6F77A137935123D017D010B
:10BCBA0012B6F790033612371B90026D740CF0120D
:10BCCA00839412396A12B6F7301A3BD37876E6941F
:10BCDA000018E69400402F9000F4E004F07A1379FB
:10BCEA005C123D017D0112B6F79000F4E0D3940690
:10BCFA007BFF400B7A13796B12BD16D20C80077A40
:0CBD0A0013797D12BD1612396402B6F7E1
:0ABD1600A211923A7D0112B6F72245
:10DFA40075F1BF75F2FF75F3FF75F47E75F5FF75B6
:10DFB400A41D75A5E775A61975A77A75AE8075D4E5
:10DFC400C875D5FF75D61975DFFF75E10775E24091
:10DFD40075E301C229D2A075C70312ECE77A13795D
:10DFE40081123EA8E4FD12B6F77BFF7A1379AC12D6
:08DFF400396A12B6F7C2B4222B
:107D1F00E4F529F52A12C026901FF4E49330E63BD0
:107D2F00203D387A1379D4123D0812B6F7123CCFA2
:107D3F002410F582E43400123CC8123FA712415EB2
:107D4F00123CCE123FB29000F8123CCE12409C90E3
:107D5F0000F9123D5612396A12B6F7123CCF123F94
:107D6F00A7FFB4340B123CCF123FB2D39435400669
:107D7F00EFD39433500D123CCF124091B43004C264
:107D8F00068002D206E4F508C21F901FF49330E27A
:107D9F005E12A3DB901FF4E49330E00C7BFF7A13A9
:107DAF0079E412396A12B6F7901FF4E49330E63F84
:107DBF00203D3C7A147909123D0812B6F7123CCFD8
:107DCF002414F582E43400123CC82415F582E434FF
:107DDF000012415B123CCE12427A9000F8123CCE58
:107DEF001242859000F9123D5612396A12B6F712F7
:107DFF0041E220E403027EA130E00C7BFF7A14798C
:107E0F001D12396A12B6F7752900752A019000C93B
:107E1F00E0FFC3E52A9FE5299400504CC23512A715
:107E2F0092901FF4E49330E0349000C9E0C3952A98
:107E3F00FFE49529FEC3EF9405EE9400501F7BFFDE
:107E4F007A14793D123D0A12B6F7123CBB123E78F6
:107E5F00E09000F6123D5612396A12B6F7052AE580
:107E6F002A70020529027E1C901FF4E49330E6224B
:107E7F00203D1F7BFF7A147954123D0A12B6F71278
:107E8F003CBB123E78E09000F6123D5612396A1252
:107E9F00B6F7901FF4E49330E30E12415212EAAAA0
:107EAF003024057F0112E824901FF4E49330E36837
:107EBF0012B3F8901FF4E49330E00C7BFF7A14793F
:107ECF006112396A12B6F7901FF4E49330E6492035
:107EDF003D467BFF7A147976123D0A12B6F7123CB3
:107EEF00CF2419F582E43400123CC8241AF582E439
:107EFF00340012415B123CCE12401DE09000F8128C
:107F0F003CCE241CF582E43400F583E09000F91296
:107F1F003D5612396A12B6F7D2B312F0E87F01124A
:107F2F003AA412401DEEF00FEF640870F2750807C7
:107F3F0030170D12F238C23512B0B8C23512EE1E1C
:017F4F00220F
:10E541009001E712381780389001EEE0D394004033
:10E5510037E014F0E47B0AFA9001EA123EB6EB24AC
:10E5610030FF9001E71237F79001EEE0F5827583F5
:10E5710000EF12338A9001EA12371B7B0A124229FB
:09E581009001EA12375F80C0220C
:108D4400D232E49001ACF0A3F09001AC12402A942A
:108D540034EE9400501474F52FF58274003EF583BC
:108D6400E4F09001AC123DE480DF90013F742FF0F9
:108D7400900142F09001477420F090014A743AF057
:108D840090014DF012C3D4900138E0FEA3E0FF4EF1
:108D9400601A901FD61242907002EE6A600EED7057
:108DA4000B7E1F7FD67A017938128F0E90007EE0F9
:108DB400FEA3E0FF4E601A901FD71242907002EE9D
:108DC4006A600EED700B7E1F7FD77A00797E128F5A
:108DD4000E901FDDE493C3648094B0401212429B52
:108DE400400D901FE012429C400512429B5045C228
:108DF400107BFF7A14798712396A12B6F7D2B4C29B
:108E0400877D407C067F0112EAAAD287C2B4D2B41D
:108E1400C23512EE1E20100E7BFF7A1479DA123955
:108E24006A12B6F780EF7BFF7A1479FD12396A1261
:108E3400B6F78002D2109001ABE0C394055051E420
:108E4400A3F0A3F09001AC12402A9405EE940050D4
:108E54002674E32FF582741F3EF583E493FFD364F5
:108E64008094B95008C3EF648094B05002C2329029
:108E740001AC123DE380CD901FECE493642C6002BE
:108E8400C2329001ABE004F03032AB740AF080A639
:108E940020320E7A157908123EA8E4FD12B6F78046
:108EA4001AC212C221C2241242BE30E402D212EF0C
:108EB40030E602D221EF30E702D22412C5499001F4
:108EC400637453F0A314F0901FE3E4931242D61298
:108ED40042E01242EA1242F4900169F01242BE30BA
:108EE400E20890016A7448F0800FEF90016A30E163
:108EF400057444F08003745FF09001627404F0D24E
:0A8F040033127D1F12F28502C549E9
:0D8F0E007B019002ACF0A304F012E90D22EB
:10AF9F00E49001ABF0C295D2A4C29012EAD9901FEF
:10AFAF00F4E49330E0127BFF7A15791E12396A129E
:10AFBF00B0B112396412B6F730930302B07C301C73
:10AFCF000302B0909000E9E0600302B090C20E7BE4
:10AFDF00FF7A15793D12396A12B6F712BC5A7BFF08
:10AFEF007A15796B12396A12B6F79000E6E0605A5B
:10AFFF007A157975123F0CE4FD12B0B1125A929086
:10B00F001FF4E49330E00C7BFF7A15798612396ACE
:10B01F0012B6F7C23512EE1E901FF4E49330E0081B
:10B02F007BFF7A157991801AE544D39400401BC2B7
:10B03F0032124B8B901FF4E49330E0EC7BFF7A15C8
:10B04F00799912396A12B6F780DE9000E6E0701631
:10B05F00901FF49330E00C7BFF7A1579AC12396AAC
:10B06F0012B6F7125A92C23512EE1E8014301C110E
:10B07F007BFF7A1579B912396A12B6F7D23212EE0E
:10B08F00C8901FF4E49330E01812EAD97BFF7A15C9
:10B09F0079DA12396A12B6F712C82612396412B663
:01B0AF00F7A9
:08B0B0002212B6F712C8262295
:10ED2D00E5C930E60E201108D211EF701212CB7E1C
:10ED3D0002008E301102C211E4F5A9F5B9C21722F5
:088597009001E7EEF0A3EFF004
:10859F00900080E0F539A3E0F53A1240AD12402784
:0785AF009404EE9400504714
:1085B600C374039FFFE49EFEEF7802C333CE33CE2F
:1085C600D8F9FF9001F3EEF0A3EFF0AE39E53AA843
:1085D60007088005CEC313CE13D8F9540F123EDC1C
:1085E600400674272538F538123E5F74012FF58250
:0285F60074040B
:1085F800123DDA80AF1241132405F582740412404B
:01860800A7CA
:1086090012402774059FFFE49EFEEF7802C333CE24
:1086190033CED8F9FF9001F3EEF0FAA3EFF0FB9017
:1086290001ED12371BA903123ED240031240621218
:098639003E5F74062FF582740403
:10864200123DDA9001F1E07004A3E0640670B81202
:10865200419F240CF58274043CF5837420F07877F2
:10866200E6FAEAC4540F2430F538740D2DF58274FD
:10867200041242FED394394003124062EA540F12AC
:108682003EDC400312406212419F240EF5827404C4
:108692001242FE7877E6FA08E6FBEAC4F854F0C81C
:1086A200EBC4540F48540F123EDC40031240627474
:1086B2000F2DF58274041242FEEB540F123EDC4081
:1086C20003124062124113FF2410F58274043EF536
:1086D20083E538F0302510B4300D74102FF5827414
:1086E200043EF5837448F074112FF582740412402D
:1086F200A71240279408EE94005026C374079F25C2
:10870200E025E0F99001E912371B123ED240031234
:108712004062123E5F74122FF5827404123DDA80B9
:10872200D020240B124113123EEC7444F0801E3010
:10873200050B124113123EEC744CF08010123EE411
:10874200E0B4300974122F123EEE7445F0300B1370
:10875200123EE4744CF074132FF58274043EF583D8
:108762007442F0900198124166FE12419F2413F563
:108772008274043CF583EEF0EF123E342430FF7431
:0B878200142DF58274043CF583EFF029
:01878D0022C9
:0BEAAA009001DBEFF0A3ECF0A3EDF017
:10EAB500E4A3F09001DBE0FF9001DEE0C39F50137B
:10EAC5009001DCE0FEA3E0FF12002E9001DEE004E1
:03EAD500F080E0EE
:01EAD800221B
:10A7920030352AE5087005752C078005E50814F5A3
:10A7A2002CE52C123E74E0FF123CCF123E78EFF003
:10A7B200E52C75F00EA412411BE002A8AE12A8B857
:10A7C200D23612BD208E2D8F2EC23612BD208E2F74
:10A7D2008F3012A8B8AC2DAD2EEC1230409001B0E3
:10A7E20012375FAC2FAD30EC1230401243051242EB
:10A7F20030124125124230122F35124305123F7199
:10A80200124125123F71122F359001B412412B12C1
:10A81200371B9001B0123737122E4412C98412E846
:10A82200607BE67A2E79657842122F35E4FBFAF9DD
:10A83200783F122E441230799001AEEEF0A3EFF081
:10A842009001AFE0F52BE53264517004E531643FCD
:10A852006026752B639000CAE0C39414500C7BFFF2
:10A862007A1579F812396A12B6F79000CAE0C394E1
:10A87200195014E004F0800FE532B4510AE531B406
:10A882003F05E49000CAF0E52BB4FF03752B5AE5AF
:10A892002B123E342430FF123CCF123E78EFF0E50B
:10A8A2002B75F00A84F52B123E342430FF123CCF74
:05A8B20012411BEFF054
:0BA8B700227F4A12D44E8E318F3222D5
:10CB7E0090019A740CF0A37403F0E490019DF09070
:10CB8E00019FF09001A1F09001A3F0901FE393900C
:10CB9E00019CF0901FE4E49390019EF0901FE5E459
:10CBAE00939001A0F0901FE6E4939001A2F0901FE5
:10CBBE00E7E4939001A4F0E4A3F012E5D1902001F4
:10CBCE00E493FE740193FF902003E493FC740193AD
:10CBDE00FD7BFF7A20793B9001B21238177B017AE8
:10CBEE0001799A9001B5123817902059E49390016B
:10CBFE00B8F090205AE4939001B9F090205BE49342
:10CC0E00FB7401939001BACBF0A3EBF07BFF7A207B
:08CC1E00790512A65B02EF315B
:075F35009001E7EDF0AB075E
:105F3C00C233C234EB75F080A4FFA3E5F0F0A3EFFD
:105F4C00F0E4A3F0A3F09001F112378400000000FC
:105F5C009001F5123784000000007F1174822FF538
:105F6C0082E43400F583E0B42C04C2338002D233D3
:105F7C00E4FA9001ECF074822AF582E43400F583A3
:105F8C00E0F9B42C119001ECE004F0A3123784007A
:105F9C000000000261599001ECE024FD6051147086
:105FAC000302605914700302606B1470030260E109
:105FBC0024FD700302610F24086003026159123E34
:105FCC004C60030261591239D2123F1312398F12ED
:105FDC003F2012399B123F2D1239A7123F3A12392A
:105FEC00B3123EF6FF75F080EB9004380260DA12C3
:105FFC003E4C6003026159900401123A19123F138E
:10600C00E09004021239DC123F20E09004031239B4
:10601C00DC123F2DE0900404123A06123F3AE09055
:10602C000405123A06123EF6900406123A0E12417C
:10603C00A8900407123A0E1241B6900408123A4F77
:10604C0012416F75F080EB9004090260DA123E4C3D
:10605C00600302615990040A123A82E902613F120C
:10606C003E4C600302615990040B123C94123F1396
:10607C00E090040C123A4F123F20E090040D123ABB
:10608C0061123F2DE090040E123A61123F3AE090FB
:10609C00040F123A92123EF6900410123A921241E8
:1060AC00A8900411123C6F1241B6900412123C6F6E
:1060BC0012416F900413123C94EFF0748B2AF5820A
:1060CC00E43400F583E0FF75F080EB900414123794
:1060DC00D9EF02613F123E4C7073900415123E04CE
:1060EC00E9F0900416123CA5900417123CA575F02B
:1060FC0080EB900418123CA9900419123E047420F1
:10610C0002613F123E4C7045123A16123F13E0FFEB
:10611C0012395A123F20E0FF12397B123F2DE0FF5B
:10612C00123971123F3AE0FF123985123EF6FF1216
:10613C0039BFEFF09001ED12371BEF2401FFE43E65
:10614C00FEE43DFDE43CFC9001ED12375F0AEA648D
:10615C00406003025F82EB123A697447F0EB123B2A
:10616C00C07450F0EB123BD47453F075F080EB908C
:10617C000445123CA9EB123BDD7446F09004471227
:10618C003F7D7469F0EB123BE67478F075F080EBB0
:10619C00900449123CA9EB123BEF7420F090008A5A
:1061AC0012398FEFF0900089E0FF1239D2EFF090A6
:1061BC00008C1239A7EFF090008B12399BEFF09006
:1061CC00008EE0FFEB1239C9EFF090008D1239B35D
:1061DC00EFF090043A123F7D7430F075F080EB9044
:1061EC00043B123CA975F080EB90043C1237D91299
:1061FC003A7C123A7C124016EB90043E123CA97584
:10620C00F080EB90043F123CA9EB123BF8123FA03C
:10621C00EB90046A123CA975F080EB90046B123C75
:10622C00A975F080EB90046C123CA9EB123C017444
:10623C002CF0EB123A34124016EB90046F123CA97E
:10624C0075F080EB900470123CA975F080EB900413
:10625C0071123CA9EB123C0A7420F0EB123C1312A5
:10626C004016EB900474123CA9EB123C267420F0FF
:10627C00EB123C2F7420F0EB123C537420F0EB1219
:10628C003C5C742CF0EB123A3D124016EB90047A05
:10629C00123CA975F080EB90047B123CA975F08040
:1062AC00EB90047C123CA9EB123A46742CF0EB12E6
:1062BC003A897420F0123A16123F60505E123A1668
:1062CC00E0D39439505512395A123F60504D12395F
:1062DC005AE0D39439504412397B123F60503C122F
:1062EC00397BE0D394395033123971123F60502B03
:1062FC00123971E0D394395022123985123F605013
:10630C001A123985E0D3943950111239BF123F60FB
:10631C0050091239BFE0D394394024123A1674371D
:10632C00F012395A7437F012397B7437F012397114
:10633C007437F01239857437F01239BF7437F0E4C2
:02634C00F560FA
:01634E00222C
:10A52000901FF4E493FE30E41FED123E74E0FC1241
:10A530003C65EC123E5812411BE0FCEF123C8BECE8
:10A54000123C807420F08015123C657441F075F067
:10A5500080EF123C8E742F123C80744EF0EE30E28D
:10A560003CED75F00EA4124285FE123A9A123E5747
:10A5700012427AFE123C1C123E572415F582E43436
:10A5800000F583E0FE123CE8123E572414F582E405
:10A590003400F583E0FE1239E4EEF0801F123A9A9F
:10A5A0007420F0123C1C7420F0EF123C9C7441F0BB
:10A5B000123CE8742FF01239E4744EF0ED75F00E91
:10A5C000A412409C900457123D11123E57123FB204
:10A5D000900456123D11123E57123FA79004541298
:10A5E0003D35123E57124091900453123D35EEF026
:10A5F000901FF4E49330E343ED75F00EA412401D78
:10A60000E0FE123A20123E57241AF582E43400F597
:10A6100083E0FE123A2A123E572419F582E43400F0
:10A62000F583E0FE123A57123E572418F582E434BF
:10A6300000F583E0FE123A72EEF022123A20742006
:10A64000F0EF123C777420F0123A2A7441F0123A7B
:0BA6500057742FF0123A72744EF02283
:10EE7400C232124B8B30400312F238C232124B8B27
:0CEE84009000E9E07005C23512EE1E227D
:104B8B00E4F533F532F531F530F537F536F535F526
:104B9B00349001DF12378400000000E49001E3F051
:104BAB00A3F0E54470030252EA301C033093092052
:104BBB0011062032030252E012F238E4F5E38513BA
:104BCB002A301C0920930612EF7C12F291E4F52B8C
:104BDB00E52BC3954440030252D1AF1312D7B9E56D
:104BEB002AC394044003025295123D28FF640460CB
:104BFB0004EFB40504D20A8002C20A900800123DE9
:104C0B002BFEA3E07877A60608F690080D123DED73
:104C1B00540FF52C300A03024DEDE4F52E752F03DE
:104C2B00752F03E52F75F00F20E00C123FC4E054F5
:104C3B000FF52D052E8009123FC4E0C4540FF52D3E
:104C4B007430252DF52DD3943940067407252DF599
:104C5B002D75F080E52A123A6CE582252F123FD094
:104C6B00E52DF0052FE52FB409B9123DEAC4131356
:104C7B005403F52E14600F14601114601324037089
:104C8B0012752FEE800D752FEF8008752FF08003B6
:104C9B00752FF1124069246FF9740435F0FA7B011A
:104CAB00AF2FE4FCFDFE9001EE7403F012E5411210
:104CBB003DEA543FF52D90047412391DEFF0E52DAC
:104CCB0075F00A84F52D123E342430FFE52A123C90
:104CDB0013EFF0124069246AF97404900808123C2F
:104CEB00F2125301124069247AF9740490080C12E1
:104CFB003CF212530190080C123F67D39464400BA3
:104D0B00C21AE49000F4F0C20C800B301A0690002B
:104D1B00F4E004F0D21A900809123F67FFE4FCFD9F
:104D2B00FEFBFA7901F812354212420312371BC00F
:104D3B0006C00790080A1241327B00FAE4F9F8D05A
:104D4B0007D00612352712420312373790080B1281
:104D5B004132FFE4FCFDFE1235279001DB12375F79
:104D6B0075F00FE52B9008061237D9E0FEA3E0FF94
:104D7B00900080EEF0A3EFF0E48F338E32F531F537
:104D8B0030AD31AC307B0FFAF9F81235428F338EE0
:104D9B00328D318C3012423C123EB8E5332FFFE599
:104DAB00323EFEE5313DFDE5303C8F338E328D31A9
:104DBB00F530124069243AF9740435F0FA7B01C0DE
:104DCB0003C002C00112423C123EB8AC00AD01AEB2
:104DDB0002AF039001EE7406F0D001D002D00312A3
:104DEB00E541AD2CAF2A12A520300A0302517E12E9
:104DFB0041C4D31242485003024F397A167912122A
:104E0B003F0CE4FD12B6F77A16792A123FBD7D01ED
:104E1B0012B6F7AF0CAE0BAD0AAC09125310123928
:104E2B006A12B6F77A167939123FBD7D0112B6F7C1
:104E3B001241C412531012396A12B6F77A1679441A
:104E4B001240707D011252EB90026D740CF01283C4
:104E5B009412396A1252EBE47B587A02F9F8D312A6
:104E6B0036904003024EF1900198E02402FFE433A8
:104E7B00FE3395E0FDFCE47B3CFAF8123542C004AE
:104E8B00C005C006C00790013BE0FF7E007C0E7D95
:104E9B00101238B0123F74D007D006D005D00412D0
:104EAB003527C004C005C006C00790013AE0FFE4F7
:104EBB00FCFDFE7B807A517901F8123542123F746A
:104ECB00D007D006D005D004123527123F74C3E4A7
:104EDB00950CFFE4950BFE740F950AFDE49509FC08
:104EEB00D312369040247F017E007D0F7C00C312CD
:104EFB0042485016C3E4950CFEE4950B9001E3F089
:104F0B00A3CEF0D20D1242C58018850C33850B321F
:104F1B00850A318509307A1679571240707D011256
:104F2B00B6F77BFF7A16796F12396A12B6F7C3E5BB
:104F3B0033950CFFE532950BFEE531950AFDE53017
:104F4B009509FC9001DF12375F9001DF12371BEFE1
:104F5B00250CFFEE350BFEED350AFDEC35098F0CFC
:104F6B008E0B8D0AF5099001DF1237379001E3E0C4
:104F7B00FEA3E0FFE4FCFD1235279001DF12375F43
:104F8B009001E3E07002A3E06007E49001E3F0A37B
:104F9B00F0E4FFFEFDFC9001DF123FF850030250DE
:104FAB009C123EAF900003E02BF0123EAF7B3C1205
:104FBB004229900004E02BF0E47B107A0E123EB3F2
:104FCB00E47B1812422A900005E02BF0900003E0DE
:104FDB00FFC3943C400E12417E900003E075F03C01
:104FEB0084E5F0F0900004E0FFC3943C400E1241C6
:104FFB007E900004E075F03C84E5F0F0900005E055
:10500B00FFC39418401175F018124181900005E010
:07501B0075F01884E5F0F0C8
:10502200900007E024FC602B24FE602724FD60230F
:1050320024FE601F24097026900008E054037005C6
:10504200FE7F1D80047E007F1C9001E5EEF0A3EF41
:10505200F080149001E5E4F0A3741EF08009900141
:10506200E5E4F0A3741FF0900006E0FFFD9001E577
:10507200E0FAA3E0FBC39D7480F8EA648098501ABA
:10508200C3EF9B900006F0A3E004F0E0D3940C4041
:085092008F7401F0A3E004F0AB
:10509A008086900005123DC2123995EEF0EF900419
:1050AA0031123931EFF0900004123DC21239ADEEDF
:1050BA00F0EF75F00A84123D1F1239A1EFF090004B
:1050CA0003123DC21239CCEEF0EF75F00A84123D9C
:1050DA001F1239B9EFF0900006123DC212395EEE86
:1050EA00F0EF12392EEFF0900007123DC212397517
:1050FA00EEF0EF124168FFE52A12397C123C38744F
:10510A0030F0900008124166FEE52A123986EEF068
:10511A00EF12391AEFF075F080E52A900439123748
:10512A00D9742EF0300D4D7BFF7A16797012396AD8
:10513A0012B6F7900007E0FF12F1758F1190000682
:10514A00E0FF12F1758F10900008E0FF12F1758FE1
:10515A0012900005E0FF12F1758F0F900004E0FF36
:10516A0012F1758F0E900003E0FF12F1758F0D1288
:10517A00E722C20D75F080E52A900425123CA91297
:10518A004069FFAEF0C006C0071241C49001E9129F
:10519A00420612371B9001ED12375FD007D0061274
:1051AA008597302123E4FDAF2A12E054AF2A129CDE
:1051BA00CC1240692400F97404123E427D0A12B6E8
:1051CA00F77D03AF2A12E054123D286405600302FA
:1051DA00526B200A0302526BE50F123D19123995E0
:1051EA00EFF0E50F124168FFE52A1239D3EFF0E537
:1051FA000E123D191239ADEFF0E50E75F00A841260
:10520A003D1F1239A1EFF0E50D123D191239CCEF0D
:10521A00F0E50D75F00A84123D1F1239B9EFF0E579
:10522A0010123D1912395EEFF0E51012392EEFF027
:10523A00E511123D19123975EFF0E51175F00A847E
:10524A00123D1F12397F123C387430F0E51275F0A6
:10525A000A84123D1F123989EFF0E51212391AEF4A
:10526A00F0AF2A129CCC30240C123D28FDB4040560
:10527A00AF2A125F35852A13052A052BE52B6544CB
:10528A006003024BEA752A04024BEA301C3320936E
:10529A0030AF130513EFC39403400E7D017F007EE8
:1052AA000212DB34E4F5138018E5132401FFE4331A
:1052BA00FEEF7807C333CE33CED8F9FFE4FD12DB15
:1052CA0034E4F52A024BDB301C0C20930912EF7CE4
:1052DA0012F29112C0E4C23512EE1E75E301C22A1F
:1052EA002212B6F7C3E4950CFFE4950BFE740F95F2
:1052FA000AFDE49509FC22FFE4FCFDFE9001EE7430
:10530A0003F012E5412290026D740CF0128394228C
:10CF5300D204D295D208D2A4D209D290D21AC20C4A
:10CF6300E49000F4F09000E9F012F23812EF4A1264
:10CF7300F05EC216C21CC21912EA4AE490017EF0A6
:10CF8300C2A3D283D2B5C21112F278C2A3D283D282
:10CF9300B5C217D2AF30930C7BFF7A16798B123957
:10CFA3006A12B6F77F0112ED6D90013C7404F0E450
:10CFB300F508128D447F01123AA412401DEEF00FC2
:10CFC300EF640870F2750807900336123784000087
:10CFD3000000E47875F608F67BFF7A1679A012391B
:0BCFE3006A12B6F7D2A0C2111242A3DE
:01CFEE002220
:0D00760075F1F875F3EF43E28075F5FF2298
:05897E00900324EFF05E
:108983007A1679BE12420DE4FD12B6F77A1F79E327
:1089930012420D7D0712B6F7123CD6128B57900484
:1089A30040123947E4F0EF75F080A42426F97404EB
:1089B300123E427D0612B6F7123CD6128B57900434
:1089C30045123954E0900325F0EF123BDDE09003AC
:1089D30026F0900324E09004471239C3E090032764
:1089E300F0EF123BE61240777D0612B6F7900325AF
:1089F300742CF0A37420F0900324E0FF9004491238
:108A030039D6E0900327F0EF123BEF1240777D0752
:108A130012B6F71241E230E40C900324E0900452C2
:108A23001239DEE4F0EF30E30C900324E0900469A4
:108A3300123A00E4F0900324E0FF900459123A083C
:108A4300E41239EE124214204117123A371242143B
:108A5300123A40124214123A4912421490047E8090
:108A63000390045F1237D9E4F0901FF4E49330E4E9
:108A730010123FD8244DF97404123E427D0112B600
:108A8300F7901FF4E49330E310123FD82462F97493
:108A930004123E427D0712B6F7123FD82453F974ED
:108AA30004128B40245AF97404123E427D0712B615
:108AB300F7204128123FD8246AF97404128B40240A
:108AC3006FF97404123E427D0612B6F7123FD824A2
:108AD3007AF97404123E427D0612B6F71241E2306F
:108AE300E40D900324E0900452123A107420F0EF46
:108AF30030E30D900324E0900469123A1A7420F0D5
:108B0300900324E0FF900459123A2474201239EEA2
:108B13007420F020411875F080EF123A3712401696
:108B2300EF123A40124016EF123A49742CF07BFFD1
:0D8B33007A1679C4A211923A7D0702B6F7B6
:108B400035F0FA7B01A211923A7D0612B6F7900336
:108B500024E075F080A4227D0712B6F7900324E08C
:028B6000FF22F2
:10008E00E49001ABF012E5D1900129E0645B6003CE
:10009E0002103D7BFF7A1679CA12396A12B6F7E45E
:1000AE00900129F0A3E012382C01574103C64201FA
:1000BE00814305C54405FB45063146066F4706AD2F
:1000CE004801B54908454A094E4B01C14C09DB4D63
:1000DE000A4E4E01814F0C0A500D90510DCC52011B
:1000EE00C653024E540E6755025456025C5702E632
:1000FE00580EE95901815A03AB61050D6201756312
:10010E0005E064061665065066068A6706D7680718
:10011E00A06908976A099C6B09C16C0A1F6D0A9445
:10012E006E0B516F0D3C700DAE710E0D720E28736D
:10013E000E43740E85750EA0760EBF770EC5780F22
:10014E00467910007A00001019C2247BFF7A1679C6
:10015E00DB12396A12B6F7E4FDFF12A5201297E3FF
:10016E00C217C217021025E4FDFF12E05412E1F28D
:10017E00021025D217C22490012AE0FF64436004C6
:10018E00EFB45A0B12817A7BFF7A1679EE80091240
:10019E00C1A17BFF7A1679FE12396A12B6F7E4FD19
:1001AE00FF12E0540210251200599001627404F0FF
:1001BE00021025D21702102512421B7077A3E09071
:1001CE00012912403690012A123F96400302102553
:1001DE00EF94064003021025A3E0FFE49F400302C4
:1001EE001025EF9409400302102590012912413C7D
:1001FE0090012A1240B5E0D3943C4003743CF012B7
:10020E00425350037401F09001ABE0FF901FD8E40D
:10021E00936F60177E1F7FD81210CE7A17790E1249
:10022E0010721210B8123D0A02102212430F123928
:10023E006A0210227BFF7A17793012396A02102275
:10024E0012DF4B021025D23512B0B8021025124221
:10025E001B706D1240319000F6124316506EEF94E3
:10026E00065069A3E0FFE49F5062EF9409505D9041
:10027E0000F512413C9000F61240B5E0D3947F4059
:10028E0003747FF012425350037401F09001ABE0FF
:10029E0025E0F0E0FF901FD9E4936F601E7E1F7F74
:1002AE00D91210CE9001ABE09000CEF07A177956AD
:1002BE00121072123D61121158800B12430F8006FC
:1002CE007BFF7A17796612396A12B6F77BFF7A17B7
:1002DE00798C12396A12B6F712421B60030203932D
:1002EE001240319000F6F090012EE024D09000F7ED
:1002FE00124316400302039FEF9402400302039F32
:10030E00A3E0FFE49F400302039FEF940940030222
:10031E00039FA3E0FFE49F5078EF94095073900081
:10032E00F575F06412413F9000F6E075F00AA412E4
:10033E0040B69000F71240B5E0D394FE400374FA35
:10034E00F012425350037401F09001ABE0FF901F86
:10035E00DAE4936F602A7E1F7FDA7A0179AB123E60
:10036E00C204F012E90D9001ABE09000C9F07A17CB
:10037E00799312107E901FDA123D64121158800B81
:10038E0012430F80067BFF7A1779A712396A12B6CD
:10039E00F77BFF7A17798C12396A0210227BFF7A6B
:1003AE001779CB12396A12B6F7129B347BFF7A1784
:1003BE0079D412396A0210227BFF7A1779DD12394D
:1003CE006A12B6F77BFF7A11797612396A12B6F78E
:1003DE00123F0430E6067A1779E680047A1779EF31
:1003EE0012396A12B6F7123F0430E7067A1779F916
:1003FE0080047A18790112396A12B6F7123F043066
:10040E00E4067A18790A80047A18792712396A1262
:10041E00B6F7123F0430E2067A18794580047A184E
:10042E00795912396A12B6F7123F0430E1067A187A
:10043E00796E80047A18798112396A12B6F7123FF2
:10044E000430E0067A18799580047A1879A5123965
:10045E006A12B6F712425B30E2067A1879B6800459
:10046E007A1879C612396A12B6F712425B30E30671
:10047E007A1879D780047A1879E412396A12B6F7A5
:10048E0012425B30E4067A1879F280047A1879FB0E
:10049E0012396A12B6F77A19790512107E1210B84F
:1004AE00123D0A12B6F77BFF7A19791312396A12C6
:1004BE00B6F77A19791512108A901FF512103E9020
:1004CE001FF612103E901FF7121058901FF81210C0
:1004DE0058901FF9E493123DF8128394123D0A12BC
:1004EE00B6F7901FFAE493123DF812839412396A0C
:1004FE0012B6F77BFF7A19792912396A0210227B1C
:10050E00FF7A19793212396A1210E060030205B0CF
:10051E00A3E0B42D047F0180027F00123D87901F5F
:10052E00D7123F8C5074EFC39409506EA3E0642E23
:10053E007068A3E0FFE49F5061EF9409505C123F96
:10054E00FFB42D2012426324501240D99DEC123F6D
:10055E005640089000CB74B0F08021C3EF9E9000FF
:10056E00CBF0801812432074509FFF1240DD9F90F5
:10057E0000CB40057450F08003E02EF0901FD7E4BE
:10058E0093FF9000CBE06F60097E1F7FD71210EAB9
:10059E0080197BFF7A19793B800B7BFF7A19794F93
:1005AE00800312432712396A12B6F77BFF7A197944
:1005BE006512396A0210227BFF7A19796E12396A36
:1005CE0012B6F77F011211407A19797712396A0241
:1005DE0010227BFF7A19798012396A12B6F77F02E0
:1005EE001211407A19798912396A0210227BFF7A28
:1005FE0019799212396A12B6F77F031211507A19CD
:10060E00799B12396A0210227BFF7A1979A412396A
:10061E006A12B6F77F041211507A1979AD12396A3F
:10062E000210227BFF7A1979B612396A12B6F77F59
:10063E00067E0012D6C67BFF7A1979BF12396A027E
:10064E0010227BFF7A1979C812396A12B6F77F0524
:10065E007E0012D6C67BFF7A1979D112396A021042
:10066E00227BFF7A1979DA12396A12B6F77F0612EF
:10067E0011487A1979E312396A0210227BFF7A192E
:10068E0079EC12396A12B6F7123CB0E4FD12B6F7E5
:10069E0012C8267BFF7A1979F512396A0210227B6D
:1006AE00FF7A1979FE12396A12B6F77BFF7A1A7938
:1006BE0007A211923AE4FD12B6F712C25E7BFF7AE0
:1006CE001A791B12396A0210227BFF7A1A792412C8
:1006DE00396A1210E06003020788A3E0FD642D70F2
:1006EE0033A3E0FEC39430400DEED394395007EEA1
:1006FE0024D09000CBF090012EE0FFC3943040093F
:10070E00EFD3943950031241899000CBE075F0FF7E
:10071E00A4F0802AEDC39430401190012CE0FFD359
:10072E0094395007EF24D09000CBF090012DE0FFCC
:10073E00C394304009EFD3943950031241891243C8
:10074E002064809474402BD3EF6480948E50239059
:10075E000129EFF0E4A3F0901FDC936F60287E1F59
:10076E007FDC123EBE04F012E90D7BFF7A1A792D62
:10077E00800E7BFF7A1A793A80067BFF7A1A7964AB
:10078E0012396A12B6F77BFF7A1A798E12396A021B
:10079E0010227BFF7A1A799712396A121119707624
:1007AE00A3E09000F7F090012DE09000F8F090019A
:1007BE002EE09000F9F090012FE09000FAF09001F9
:1007CE0030E09000FBF0900131E09000FCF09001E1
:1007DE0032E09000FDF0900133E09000FEF09001C9
:1007EE0034E09000FFF0900135E0900100F09001B0
:1007FE0036E0900101F0900137E0900102F012DF37
:10080E004B12D2C77A1A79A012108A12C8267BFF11
:10081E007A16796F80067BFF7A1A79AB12396A12D3
:10082E00B6F7123D5A12396A12B6F77BFF7A1A7969
:10083E00DC12396A0210227BFF7A1A79E512396AC4
:10084E0012B6F7B2127C1F7DF39001E2E4F0A3041E
:10085E00F0FB7A01792912E3C9900129E030120BDD
:10086E004410F07BFF7A1A79EE800954EFF07BFF8B
:10087E007A1B790312396A12B6F71210967BFF7A39
:10088E001B791C12396A0210227BFF7A1B79251202
:10089E00396A121119600302093612408A50030296
:1008AE000936EFD39432400302093612408A40785B
:1008BE00EFD39434507212408A406DEFD394365079
:1008CE006712408A4062EFD39439505C12408A40DE
:1008DE0057EFD39436505112408A404CEFD394398F
:1008EE005046E49001ABF01242229406501BE0FEFB
:1008FE00242CF582E43401F583E024D0FD74292EF6
:10090E00123FE5ED1241CD80DE74292F123FE5E452
:10091E00F07E1F7FF57B017A0179299002ACF0A35E
:10092E007406F012E90D800C7BFF7A1B792E1239BA
:10093E006A12B6F77BFF7A1B795012396A021022BF
:10094E007BFF7A1B795912396A12B6F7B22412104C
:10095E00FC3024174480F07BFF7A1B796212396ACF
:10096E0012B6F775E30112AB1D8014547FF07BFFB6
:10097E007A1B796E12396A12B6F7C296E4F5E31253
:10098E0010967BFF7A1B797B12396A0210227BFF4D
:10099E007A1B798412396A12B6F763E301E5E33004
:1009AE00E0057F0112E8247BFF7A1B798D12396AEC
:1009BE000210227BFF7A1B799612396A12B6F7B2B1
:1009CE00967BFF7A1B799F12396A0210227BFF7A7F
:1009DE001B79A812396A12B6F77BFF3096067A1B7E
:1009EE0079B180047A1B79C012396A12B6F7E5E341
:1009FE007BFF30E0067A1B79CE80047A1B79E412F5
:100A0E00396A12B6F77BFF7A1B79FB12396A02102C
:100A1E00227BFF7A1C790412396A12B6F7B2077B71
:100A2E00FF3007067A1C790D80047A1C791C123966
:100A3E006A12B6F77BFF7A1C792F12396A021022DE
:100A4E007BFF7A1C793812396A12B6F7B22112106E
:100A5E00FC30210B4440F07BFF7A1C794180095415
:100A6E00BFF07BFF7A1C795B12396A12B6F77E1FD4
:100A7E007FF3123EBE04F012E90D7BFF7A1C797AE9
:100A8E0012396A0210227BFF7A1C798312396A129C
:100A9E0011366003020B39A3123E82E49001ABF0D3
:100AAE0012422294055018123FE1E0FDEE901FE332
:100ABE00936D60069001AB740CF01241CE80E1EFA5
:100ACE00640D7BFF705F7A1C798C12396A12B6F74F
:100ADE007E1F7FE3123EBE7405F012E90D7A1C797B
:100AEE00A31210AC7BFF7A1F79E312396A12B6F7A4
:100AFE00901FE3E493FF1242D6FE1242E0FD124233
:100B0E00EAFC1242F4FB900169F090019CEFF09028
:100B1E00019EEEF09001A0EDF09001A2ECF090019C
:100B2E00A4EBF080127A17791F80067BFF7A1C796E
:100B3E00C112396A12B6F77BFF7A1C79DF12396A55
:100B4E000210227BFF7A1C79E812396A1211366084
:100B5E0003020BF590012FE0642C6003020BF5905D
:100B6E000132E0642C6003020BF590012C123E82E0
:100B7E00900131E090012EF0900132E090012FF0C3
:100B8E00900133E0900130F0900134E0900131F0AB
:100B9E00E49001ABF012422294095018123FE1E0AA
:100BAE00FDEE901FE9936D60069001AB740CF01290
:100BBE0041CE80E1EF640D7BFF70267A1C79F11235
:100BCE00396A12B6F77E1F7FE9123EBE7409F01223
:100BDE00E90D7A1D79031210AC7BFF7A1F79E9803B
:100BEE00097A17791F800312432712396A12B6F752
:100BFE007BFF7A1D791C12396A0210227BFF7A1D47
:100C0E00792512396A12B6F77BFF7A1D792E1239C1
:100C1E006A12B6F77BFF7A1D7955123D0A12B6F7A6
:100C2E0012C8267BFF7A1F796C123D0A12B6F77B2B
:100C3E00FF7A1F79E312396A12B6F77BFF7A1F79B2
:100C4E00AF12396A12B6F77BFF7A1F794D123D0A41
:100C5E0012B6F77BFF7A1F79DD12396A12B6F77B6F
:100C6E00FF7A1F7954123D0A12B6F77BFF7A1F796D
:100C7E00E912396A12B6F77BFF7A1F7960123D0AC4
:100C8E001211237BFF7A1D7969123D0A12B6F79075
:100C9E001FD6E493FFC3648094805008EF123D6723
:100CAE00740E8008901FD6123D64740FF012839458
:100CBE0012396A12B6F77BFF7A1D797B123D0A1242
:100CCE00B6F7901FD7E493FFC3648094805008EF6B
:100CDE00123D67740E8008901FD7123D64740FF09A
:100CEE0012839412396A12B6F77BFF7A1D7990122D
:100CFE003D0A12B6F7123D617402F0128394123956
:100D0E006A12B6F77BFF7A1D79AB123D0A12B6F75F
:100D1E00901FDA123D647402F012839412396A1233
:100D2E00B6F77BFF7A1D79C412396A0210227BFF57
:100D3E007A1D79CD12396A12B6F720932D9000F7ED
:100D4E00E06420701EA3E064537018A3E0B4521345
:100D5E007BFF7A1D79D612396A12B6F7124146D246
:100D6E00328002C23212D5CD800C7BFF7A1D79DE25
:100D7E0012396A12B6F77BFF7A1D79F112396A02BF
:100D8E0010227BFF7A1D79FA12396A12B6F7209378
:100D9E00031200867BFF7A1E790312396A02102233
:100DAE007BFF7A1E790C12396A12B6F72093031262
:100DBE00F2977BFF7A1E790312396A0210227BFFAB
:100DCE007A1E791512396A12B6F720931A9000F727
:100DDE00E06420701EA3E0B45319A3E0B4521412C1
:100DEE00414612DE96800C7BFF7A1E791E12396AFE
:100DFE0012B6F77BFF7A1E793012396A0210227B07
:100E0E00FF7A1E793912396A12B6F77F021211482B
:100E1E007A1E794212396A0210227BFF7A1E794BB2
:100E2E0012396A12B6F77F0312115F7A1E795412C5
:100E3E00396A0210227BFF7A1E795D12396A12B668
:100E4E00F77F047E0012DE3BE49000CAF07BFF7A4F
:100E5E001E796612396A0210227BFF7A1E796F1292
:100E6E00396A12B6F7E4FFFE12DE3B7BFF7A197980
:100E7E00E312396A0210227BFF7A1E797812396AE0
:100E8E0012B6F77F0112115F7A1979E312396A02ED
:100E9E0010227BFF7A1E798112396A12B6F77F050E
:100EAE007E0012DE3B7BFF7A1E798A12396A0210AF
:100EBE002243EF100210257BFF7A1E799312396AB6
:100ECE0012B6F77BFF7A1E799C12396A1211237BB8
:100EDE00FF7A1E79AB12396A0210227BFF7A1E79D5
:100EEE00B412396A12B6F77BFF7A1E79BD12396ACF
:100EFE0012B6F77BFF20932A7A1E79CD123D0A1285
:100F0E00B6F77B017A0179631242CF12B6F77E01F2
:100F1E007F637A0179637B0112414CD23212D5CDB7
:100F2E00800A7A1D79DE12396A12B6F77BFF7A1EB5
:100F3E0079D812396A0210227BFF7A1E79E11239B2
:100F4E006A12B6F712421B6003020FECA3E0B42D37
:100F5E00047F0180027F00123D87901FD6123F8CC6
:100F6E005074EFC39409506EA3E0642E7068A3E032
:100F7E00FFE49F5061EF9409505C123FFFB42D20A7
:100F8E0012426324321240D99DEC123F5640089013
:100F9E0000CB74CEF08021C3EF9E9000CBF0801872
:100FAE0012432074329FFF1240DD9F9000CB40050C
:100FBE007432F08003E02EF0901FD6E493FF900081
:100FCE00CBE06F60097E1F7FD61210EA80197BFF7F
:100FDE007A19793B800B7BFF7A19794F8003124384
:100FEE002712396A12B6F77BFF7A1E79EA12396A2E
:100FFE0080227BFF7A1E79F312396A12B6F7D2225B
:10100E007BFF7A1E79FC12396A80097BFF7A1F7981
:10101E000512396A12B6F7E49001ABF0124222942F
:0F102E000F500C74292F123FE5E41241CD80EDD5
:10103D0022E493FFE4FCFDFE90026D7402F0128336
:10104D0094A211923A7D0312B6F722E493FFE4FCC9
:10105D00FDFE90026D7402F0128394A211923A7DFE
:10106D000312B6F7227BFFA211923A7D0312B6F757
:10107D00227BFFA211923A7D0312B6F7227BFFA2CB
:10108D0011923A7D0312B6F7227E1F7FF37B017A10
:10109D000179299002ACE4F0A304F012E90D227B52
:1010AD00FFA211923A7D0312B6F722901FD8E49356
:1010BD00FF3395E0FEFDFC90026D7402F0128394F7
:1010CD00227B017A0179AB9002ACE4F0A304F0121B
:1010DD00E90D2212B6F790012BE06420227B017AF4
:1010ED000079CB9002ACE4F0A304F012E90D22E4F8
:1010FD0090012AF07C1F7DF39001E2F0A304F0FB38
:10110D007A01792912E3C9900129E02212B6F790EC
:10111D00012BE064202212B6F77B017A017963A2DC
:10112D0011923A7D0912B6F72212B6F790012BE013
:10113D006420227E0012D6C67BFF227E0012DE3B8B
:10114D007BFF227E0012D6C67BFF227402F0128333
:0A115D0094227E0012DE3B7BFF228D
:0300530002ED8B30
:10ED8B00C0E0C0D0E5BBB41E0875BB0475BCFC80ED
:0EED9B000675BB1E75BCF8C2EDD0D0D0E032BC
:03008B0002D89FF9
:10D89F00C0E0C0F0C083C082C0D075D000C000C04F
:0DD8AF0001C002C003C004C005C006C007D0
:10D8BC0012F1A4EF30E2337B013022257A0079F5A6
:10D8CC007D3112A8C29000F5E0900129F09000F68D
:10D8DC00E090012AF09000F7E090012BF0C222803A
:0AD8EC00097A0179297D0F12A8C204
:10D8F600D007D006D005D004D003D002D001D00086
:0BD90600D0D0D082D083D0F0D0E0322F
:0FF19500EFC4540F75F00AA4FEEF540F2EFF22A3
:10F17500EF75F00A84C454F0FEEF123E344EFF22C0
:10D34A0075F43E20B27B901FF4E49330E01B7BFF20
:10D35A007A1F7919123D0A12B6F7900197123DF712
:10D36A0012839412396A12B6F7900197E0FF14F00B
:10D37A00EFC39402504B901FF4E49330E00C7BFF10
:10D38A007A1F7934123D0A12B6F79000F2123DE381
:10D39A00D2B1901FF4E49330E0139000F2E0FEA3C0
:10D3AA00E012426F1283941242CF12B6F712EB08C0
:10D3BA009001977404F07D407C067F0112EAAAC2AC
:02D3CA00B1228E
:10EC9E00FDFC1236B4E53E4FFFE53D4EFEE53C4D24
:10ECAE00FDE53B4C8F3E8E3D8D3CF53B2290026246
:05ECBE0012371BE422E7
:06E69E0090026212375FDA
:10E6A400E4F53EF53DF53CF53B12ECBBFFFEFDEC1D
:10E6B40078181236A112ECA312ECBBFFFEE4FC782E
:10E6C400081236A112ECA312ECBBFFE4780812EC9A
:0BE6D4009E12ECBBFE781812EC9EFCBE
:01E6DF002218
:02F20E00AD074A
:08F21000EEFBEDFAEBAE02FF8C
:01F2180022D3
:09F24C00C2AF75FF8075EF0222CC
:10EB8F00A2AF923912F24C8E3F8F4075B7A575B771
:10EB9F00F1438F0112F24E854082853F83EDF05392
:06EBAF008FFEA23992AFB7
:01EBB500223D
:10F01D00A2AF9239C2AF8E3F8F408F828E83E49321
:05F02D00FFA23992AFC3
:01F0320022BB
:10EBB600A2AF923912F24C8E3F8F4075B7A575B74A
:10EBC600F1438F0312F24E854082853F83E4F05372
:06EBD6008FFCA23992AF92
:01EBDC002216
:10DA6100E0FEA3E0FF9002BAEEF0A3EFF0A374F89A
:10DA7100F0A3E4F09002B8E0229002AEE0FEA3E051
:10DA8100FFC39002B5E09FFF9002B4E09E225FFFCA
:10DA9100EEF0A3EFF02400FFEE3402CF24FFCF34E9
:10DAA100FF22E0FEA3E0FFA3E0FCA3E0FD22E4757A
:10DAB100F0010234499002B0FEE0FCA3E0FD22EE49
:0BDAC100F0A3EFF0A3ECF0A3EDF022C7
:0690F2009002AE12DAC08C
:1090F8009002B87402F0A3E4F024FFFB740234FF7A
:10910800FAEBF4FFEAF4FE9002AEE05EFEA3E09014
:1091180002B212DA8FA3F0A3EFF0EBF4FFEAF41235
:10912800DAB69002AFE02DFD9002AEE03C5EFEEDB7
:109138009002B612DA8FFE9002B4E06E7003A3E0DC
:109148006F7073FF12926C9002AEE0FAA3E0FB24FA
:1091580000FFEA34F89002B212DAB9C3EF9DFFEECD
:109168009C12DAB62FFFEC3E9002BAF0A3EFF0EBB8
:109178002DFFEA3CA3F0FCA3EFF0FD12DA7AFE9093
:1091880002B0E0FAA3E0FBC3EF9BFFEE9ACF240105
:10919800CF34009002BEF0A3EFF09002BAE0FEA335
:1091A800E0FF9002BEE0FAA3E0FB12E2DF1292B306
:1091B8009002B20292537F0012926C1292B3900204
:1091C800B212DA61FDA3E09002BECDF0A3EDF090FB
:1091D80002BEE0FAA3E0FB7D007CF812E2DF7F002C
:1091E8007EF812EBB612DA7ACF2401CF3400FEC330
:1091F8009002B1E09FFF9002B0E09EAB07FAE42B2B
:10920800FEEA34F89002BAF0A3CEF09002B7E02B51
:10921800FE9002B6E03A9002BCF0A3CEF0AE02C3D4
:109228009002B9E09FFF9002B8E09E9002BEF0FA6B
:10923800A3EFF0FB9002BA12DAA312E2DF9002B6B3
:10924800E0FEA3E0FF12EBB69002B612DA61FCA3CF
:10925800E0FD9002BEECF0FAA3EDF0FB7D007CF897
:0392680012E2DF30
:10926B00227EF812EBB69002BA74F8F0A3E4F090F9
:10927B0002B2E0FEA3E0FF9002BCEEF0A3EFF0C35E
:10928B009002AFE09FFF9002AEE09E9002BEF0A373
:10929B00EFF09002BCE0FCA3E0FDA3E0FAA3E0FB3F
:1092AB007F007EF812E2DF229002B2E0FEA3E0FF25
:0492BB0012EBB622DA
:10E90D009002A91238179002A7EEF0A3EFF0900233
:10E91D00ACE0FCA3E0FD1290F29002A7E0FEA3E0B4
:10E92D00FFA31237F79002ACE0FDA3E09002B3CD48
:07E93D00F0A3EDF002E0FE83
:0EE0FE009002B01238179002AEEEF0A3EFF0D1
:10E10C009002B5EEF0A3EFF09002B3E0FEA3E0FFB7
:10E11C009002AFE02FFD9002AEE03EFC9002B5E025
:10E12C00FEA3E0FFC39DEE9C50199002B0E475F085
:10E13C00011238001232FFFD12EB8F9002B512DA89
:03E14C00AF80C5DC
:01E14F0022AD
:0EE3C9009001DD1238179001E0ECF0A3EDF0AA
:10E3D700E49001E4F0A3F09001E212DAA3C39FEC0A
:10E3E7009E50259001E1E02DFF9001E0E03CFE12F8
:10E3F700F01D9001DDE475F001123800EF1233785B
:0EE407009001E412DAAF80CF9001DD0237F70A
