:0300000002BEF845
:0CBEF800787FE4F6D8FD75818702BF3F1B
:10BF040002342DE493A3F8E493A34003F68001F2F2
:10BF140008DFF48029E493A3F85407240CC8C3333E
:10BF2400C4540F4420C8834004F456800146F6DF0D
:10BF3400E4800B010204081020408090CE11E47EBE
:10BF4400019360BCA3FF543F30E509541FFEE49302
:10BF5400A360010ECF54C025E060A840B8E493A3C9
:10BF6400FAE493A3F8E493A3C8C582C8CAC583CAF4
:10BF7400F0A3C8C582C8CAC583CADFE9DEE780BEAC
:01CE11000020
:0EDC2C00F0EF25E0248BF582E43402F583222C
:03002B0002D12FD0
:10D12F00C0E0C0F0C083C082C0D075D01890028913
:10D13F00E475F001121D9575CBF075CA60C2CFC3AF
:10D14F0090028AE0947D900289E094004009E4F017
:10D15F00A3F0D21F12DA66D0D0D082D083D0F0D015
:02D16F00E032AC
:10DA6600D390028CE0940090028BE094804007747F
:07DA7600FFF5F0121D9522DF
:0300730002DAC2EC
:10DAC20053E67F53917F53C77F43C78053C77F433A
:06DAD200C78053C77F323C
:10D3DD00E4900289F0A3F0FFEFC394017480948070
:10D3ED00501012DC2DE4F0A312DC2CE0547FF00F72
:10D3FD0080E6E4F5C8538E0F75CBF0F5CA74FFF5D2
:07D40D00CDF5CCD2ADD2CA6F
:01D4140022F5
:10DB6300538EF8438E04758902758CEA758AEAD25E
:02DB73008C2202
:10DB3D00E4F59175959E75945875939E759258530D
:03DB4D008EBF2266
:10DAED00E4F591F595F59475937F7592FF538E3FFF
:04DAFD00439104222B
:10DB750012DC2DE0FEA3E07003EE64807002D32278
:02DB8500C322B9
:10DB5000ED4C600E12DC2DECF0A3ED12DC2CE04459
:03DB600080F02230
:1000030075B28353A9F8E4F586758DCC438E082227
:10D4840043B203E4F5B943B980FFFE0FBF00010EB8
:10D49400BE01F8BFF4F543B9C0E4FEFF0FBF0001BD
:10D4A4000EBE01F8BFF4F5E5B930E5FB75A90375C7
:05D4B4008D30438E08DD
:01D4B9002250
:0D002E000070007000DFF9EE6002DEF422C9
:10008E0043757272656E742054696D653A20002056
:10009E00004E657720486F75722E2E2E2020200080
:1000AE000D0A2D2D2E2000005553422054696D65EA
:1000BE0020616E642053656E736F722044617461AB
:1000CE002073656E74003F2A53796E6320436F75FB
:1000DE006E742C20496E76616C69642054696D656E
:1000EE0020666C616720736574004C6172676520D1
:1000FE0046696C652053697A65004E6577204669BE
:10010E006C6520506172746974696F6E2000466967
:10011E006C652073697A653A004473702056657277
:10012E00732069732030312E3530004E657720668E
:10013E00697665206D696E75746520696E74657279
:10014E0076616C2E2E2E20004E65772066697665C0
:10015E00206D696E75746520696E74657276616C5A
:10016E002E2E2E4E6F2047505320736F206E6F2011
:10017E0053796E632075702077696C6C20626520F0
:10018E007363686564756C65642E0D0A002020200B
:10019E00204C6173742047505320617474656D70E8
:1001AE007420776173207375636365737366756C02
:1001BE002E2000202020204C6173742047505320A5
:1001CE00617474656D7074206661696C656421205C
:1001DE0000202020204750532069732064697361EA
:1001EE00626C65642E2000426174746572792076AB
:1001FE006F6C746167652069733A2000202020209F
:10020E00486F75726C7920446574656374696F6E9E
:10021E0020436F756E743A200020546F74616C2009
:10022E00446574656374696F6E20436F756E743ABE
:10023E00200020506F6F72205369676E616C002032
:10024E004E4545445320534552564943452121219D
:10025E00000D0A0D0A2D2D2D202A2A2A205452492E
:10026E0044454E54205348454C4C2053544152540F
:10027E004544202A2A2A0D0A2D2D2D000D0A2D2D3A
:10028E002D20487964726F70686F6E6520636F6D94
:10029E006D756E69636174696F6E207374617274CB
:1002AE0065642E002A2A2A20446961676E6F737472
:1002BE0069632053746174757320436865636B20A2
:1002CE00686173206265656E20696E697469617418
:1002DE006564202A2A2A0D0A2D2D2D005344206DE7
:1002EE00656D6F72792063617264206973206E6F21
:1002FE007420696E2074686520736C6F742E002AEA
:10030E002A2A2047505320697320656E61626C65FE
:10031E006420746F20616C6C6F772074696D696EE8
:10032E00672066756E6374696F6E73202A2A2A0DB4
:10033E000A2D2D2D002A2A4261642074696D652ACA
:10034E002A0D0A2D2D2D002A2A2A2042616420749E
:10035E00696D652E205472792073657474696E67A9
:10036E0020636C6F636B207573696E672047505303
:10037E002E202A2A2A0D0A2D2D2D002A2A2A204720
:10038E00505320617474656D70742077617320739F
:10039E0075636365737366756C2E20477073207476
:1003AE00696D652073796E632077696C6C20626568
:1003BE0020617474656D707465642E202A2A2A0D6E
:1003CE000A2D2D2D002A2A2A20475053206174749D
:1003DE00656D7074206661696C65642E204770735C
:1003EE002077696C6C206E6F742062652075736562
:1003FE006420746F20736574207468652074696D51
:10040E00652E202A2A2A0D0A2D2D2D005B475053CA
:10041E002053594E43204641494C2121212E2E2E48
:10042E002E2E2E2E2E2E2E2E2E2E2E5D005B475075
:10043E00532053594E432053554343455353212183
:10044E00212E2E2E2E2E2E2E2E2E2E2E5D002A2AD2
:10045E002A2047505320417474656D707420556E78
:10046E007375636365737366756C20542A2A2A0D3F
:10047E000A2D2D2D005B4750532043616C69622E6F
:10048E002E20525443204167696E67206F66667353
:10049E0065742E2E5D002A2A2A2054657374696EA7
:1004AE00672073656E736F72732E202A2A2A0D0AC7
:1004BE002D2D2D00446961676E6F7374696320532F
:1004CE00746174757320436865636B2066696E6929
:1004DE00736865642E0D0A2D2D2D005B4750532039
:1004EE00436865636B20436F6D706C6574652E2E6B
:1004FE002E2E2E2E2E2E504153535D005B47505301
:10050E0020436865636B20436F6D706C6574652E58
:10051E002E2E2E2E2E2E2E4641494C5D00446574F5
:10052E00656374696F6E73207A65726F65642E00F1
:10053E00446961676E6F7374696320537461747577
:10054E007320436865636B2066696E6973686564C2
:10055E002E2052657374617274696E672E2E2E0D85
:10056E000A2D2D2D004E6F20446174612054686950
:10057E007320496E74657276616C202D20000D0A11
:10058E00004E6F2056616C6964204473702056656E
:10059E007273696F6E202D20546F67676C652061D2
:1005AE0020726573657420746F207265747269654C
:1005BE007665206974004473702056657273696F96
:1005CE006E2072657472696576616C206861732045
:1005DE006265656E20617474656D70746564005338
:1005EE00554343455353212121004C6F6767696E74
:1005FE006720746F205344206D656D6F7279206390
:10060E0061726420686173206265656E20696E692F
:10061E007469617465642E0057616974202E2E2EE4
:10062E0020004C6F6720526573756D656420617490
:10063E003A20005344206D656D6F727920636172AC
:10064E006420686173206265656E2072656D6F76D9
:10065E0065642E0045786974696E67206465646907
:10066E0063617465642074696D696E67206C6F6F69
:10067E00702E200D0A004368616E676564207468F1
:10068E00652073797374656D20636C6F636B207670
:10069E006961206120504320636F6D6D616E642E21
:1006AE00205265626F6F74696E672074686520737F
:1006BE00797374656D2E20576169742E2E2E0D0A76
:1006CE00004E6F74204C6F6767696E6720746F20E1
:1006DE00636172642E204F70656E20445350206308
:1006EE006F6D6D756E69636174696F6E2E0D0A00A4
:1006FE00417474656D7074696E6720445350207236
:10070E0065636F766572792E2E2E002020202A2AA0
:10071E002A2A205761726E696E6721212047505335
:10072E00207369676E616C2070726573656E7420DC
:10073E0062757420746865726520697320616E201D
:10074E00696E76616C696420636C6F636B20736590
:10075E007474696E67206E6F2073796E632077698B
:10076E006C6C20626520646F6E6520756E74696CAA
:10077E0020612076616C6964204750532074696D46
:10078E006520686173206265656E207573656420EF
:10079E00746F2073657420746865207265616C7463
:1007AE00696D6520636C6F636B2E20202000507284
:1007BE0065706172696E6720746F20646F203520DA
:1007CE006D696E207363686564756C65642053791A
:1007DE006E63207570206F6620636C6F636B732E73
:1007EE002E2E00507265706172696E6720746F20D4
:1007FE0053796E6320757020636C6F636B732E2E4E
:10080E002E00507265706172696E6720746F20538E
:10081E00796E6320757020636C6F636B732E2E2E52
:10082E002E2E2E004E6F2073796E632077696C6CBE
:10083E0020626520646F6E65206174207468697330
:10084E002074696D65202D20322E202020005374D7
:10085E00617274696E6720445350207265736574BB
:10086E0020616E6420636C6F636B2073796E632EF0
:10087E002E2E202020005374617274696E672044FE
:10088E00535020636C6F636B2073796E632E2E2E24
:10089E002020200052657365742032206861732019
:1008AE006F636375727265642E2E2E202020002ECB
:1008BE0020000D0A0D0A202020202020202A2A2A7E
:1008CE00204750532073796E632075702061626FDC
:1008DE00727465642120506F6F72207369676E6148
:1008EE006C2E202A2A2A2000202E2E2A00202E2E80
:1008FE0078002E2E2000506F6F722073796E632059
:10090E00617474656D707421200046756C6C2044A2
:10091E005350207265736574200077697468207374
:10092E00796E6320757020636F6D706C65746520D1
:10093E002D2000203A2000202020200020636C6F04
:10094E00636B206F66667365743A200075730020C2
:10095E002A2A20002A2A2A204572726F7220647475
:10096E0062546D70436C6F636B5374616D702E7552
:10097E00634461794F664D6F6E206973207A65729C
:10098E006F004D697373696E67206D656D6F727957
:10099E0020636172642E005374617274207570202E
:1009AE002D20446574656374696F6E73207A657269
:1009BE006F65642E005B2424002C20002024245D0F
:1009CE00005B4572726F72204E6F2044535020634D
:1009DE006F6E746163742E2E2E2E2E2E2E2E2E2EB4
:1009EE005D004E6F2044535020636F6E74616374CC
:1009FE0020617420004C6F737420636F6E7461639A
:100A0E00742077697468207468652044535020619F
:100A1E007420004D6F76696E6720746F2073746159
:100A2E0074757320322E004D6F76696E6720746F69
:100A3E002073746174757320332E004D6F76696E5A
:100A4E006720746F2073746174757320312E0044A7
:100A5E005350204261636B206F6E6C696E652E0081
:100A6E0055534220494E202E2E2E0047707320499A
:100A7E006E7075742044697361626C6564004E65B6
:100A8E007720436F6E6669672073656E74004F6CD6
:100A9E006420436F6E6669672073656E74005573CC
:100AAE0062204461746120556E7265736F6C766559
:100ABE00640044535020760053697465204E616D76
:100ACE00653A200046696C65204E616D653A2000DE
:100ADE0053657269616C204E756D6265723A2000C5
:100AEE0046696C6520466F726D617420566572732F
:100AFE00696F6E3A20322E3020200046696C6520D8
:100B0E0053746172743A200046696C6520456E64B8
:100B1E003A200041545320536F6E6963205265632F
:100B2E0065697665722053523330313720466972CB
:100B3E006D77617265207631302E3632460D0A00A1
:100B4E0010C4EA61360341006400760061006E0055
:100B5E006300650064002000540065006C006500B1
:100B6E006D0065007400720079002000530079005A
:100B7E007300740065006D0073001E0353006F0058
:100B8E006E0069006300200052006500630065007E
:0D0B9E0069007600650072000F8001007094
:10CE12004C01610C0330003900300030003000C199
:10CE220014C185C1074100060046015720302E304B
:10CE320030004100A3014101600041013A0041017B
:10CE420039094100BA004100F8044100880041005C
:07CE520087034200A100006C
:1013B500F075F080EF90046F1220EA7430F075F04C
:1013C50080EF9004701220EA7430F075F080EF9091
:1013D50004711220EA7430F075F080EF90047312F6
:1013E50020EA7430F075F080EF9004741220EA74EE
:1013F50030F075F080EF90046A1220EA742DF075D4
:10140500F080EF90046B1220EA7439F075F080EFEC
:1014150090046C1220EA7439F075F080EF90047A2C
:101425001220EA7430F075F080EF90047B1220EA08
:101435007430F090047CEF75F0800220EAC4540FFC
:101445002430FEEF75F0800220EA9004451220EA70
:101455007420F075F080EF9004461220EA7443F092
:1014650075F080EF9004471220EA746CF075F080F7
:10147500EF9004481220EA746FF075F080EF900445
:10148500491220EA7463F090044AEF75F080022057
:10149500EAC4540F2430FEEF75F0800220EAC454EC
:1014A5000F2430FEEF75F0800220EA540F2430FE41
:1014B500EF75F0800220EA540F2430FEEF75F080BE
:1014C5000220EA9004421220EA7447F075F080EF9A
:1014D5009004431220EA7450F0EF75F080900444B4
:1014E5000220EAE0900427FEEF75F0800220EAE092
:1014F500900426FEEF75F0800220EAE090042AFEB3
:10150500EF75F0800220EAF075F080EF900460122C
:1015150020EA742CF0EF90046175F0800220EAE077
:10152500900429FEEF75F0800220EAE090042FFE7A
:10153500EF75F0800220EA90043775F0800220EA0A
:1015450090040075F080EF0220EA90000DE0FEEFB8
:1015550075F00EA4240DF582E43400F583EEF090C9
:10156500000EE0FEEF75F00EA4240EF582E43400C3
:10157500F583EEF090000FE0FEEF75F00EA4240F5A
:10158500F582E43400F583EEF0900010E0FEEF758F
:10159500F00EA42410F582E43400F583EEF09000FB
:1015A50011E0FEEF75F00EA42411F582E43400F588
:1015B50083EEF0900012E0FEEF75F00EA42412F514
:1015C50082E43400F583EEF0900013E0FEEF75F051
:1015D5000EA42413F582E43400F583EEF090001494
:1015E500E0FEEF75F00EA42414F582E43400F583D3
:1015F500EEF0900015E0FEEF75F00EA42415F582CF
:10160500E43400F583EEF0900016E0FEEF75F00E81
:10161500A42416F582E43400F583EEF0900017E07B
:10162500FEEF75F00EA42417F582E43400F583EE81
:10163500F0900018E0FEEF75F00EA42418F582E492
:101645003400F583EEF0900019E0FEEF75F00EA47E
:101655002419F582E43400F583EEF090001AE0FEDB
:10166500EF75F00EA422EF75F0809004390220EAA0
:10167500F090047F75F080EF0220EAF09004467543
:10168500F080EF0220EAF090044875F080EF022028
:10169500EAFE75F080EF0220EAF0EF75F080900425
:1016A500790220EAF0EF75F08090047D0220EA755A
:1016B500F00A84E5F02430FF75F080E5310220EA78
:1016C50075F0809004430220EA3AF583E53CF0E5A5
:1016D5003DC4F854F0C868F53DE53EC4540F48F5DF
:1016E5003E540F2430F53CD3943974809480227590
:1016F500F08090046E0220EA90040175F080EF02FC
:1017050020EA75F0809004400220EA75F08090048C
:10171500420220EAFE75F080EF0220EA75F0809023
:1017250004500220EA75F08090044F0220EA75F01B
:101735008090044E0220EA75F0809004670220EA4A
:1017450075F0809004660220EA75F08090046502C9
:1017550020EA75F0809004640220EA75F080900418
:10176500630220EA35F0FA7B0175F00FE5321220AD
:10177500EAE022EF2430FF75F080E5310220EA75BA
:10178500F080EE0220EA90080875F00FE53212208D
:10179500EAE022F090044775F080EF0220EA75F048
:1017A50080EE0220EAF090044975F080EF0220EA0D
:1017B50075F080EE0220EA75F080EE0220EAFE75F3
:1017C500F080EF0220EA90080275F00FE532122052
:1017D500EAE02275F080EE0220EA90044575F0807B
:1017E500EF0220EAED2430FF75F080E5310220EAB2
:1017F50075F080EE0220EA90080C75F00FE53212C4
:1018050020EAE02275F080EE0220EAFE75F080EF16
:101815000220EA90080975F00FE5321220EAE0226D
:1018250075F080EE0220EA75F080EE0220EAA3E072
:10183500FF3395E0FEC3EF9430EE6480948022740C
:10184500102BF58274043AF5832275F080EF02209F
:10185500EA90080675F00FE5321220EAE022E47BF3
:101865003CFAF9F8AF3BAE3AAD39AC38121F197BEB
:1018750018E4FAF9F8021F19E5329008031220EA74
:10188500E5822536F582E43583F58322AE02AF0382
:101895007884A60608A60718E6FA08E6FBFF7C008A
:1018A5007D0AAE02021D0A75F080EE0220EA3AF5C5
:1018B50083E53CF0229001711220709001710220A5
:1018C5004C7407253CF53C2275F080EF0220EAEECA
:1018D500F0ED75F00EA4227BFF7A0079AE7D022231
:1018E500F0E53175F080A422E53B2FFFE53A3EFE99
:1018F500E5393DFDE5383C8F3B8E3A8D3922F07454
:10190500062BF58274043AF58322F074052BF582D3
:1019150074043AF5832275F080EE0220EAE5087535
:10192500F00EA42410F582E43400F583E022E508E6
:1019350075F00EA42411F582E43400F583E02275D8
:10194500F00FE5321220EAE022E475F001021D9560
:10195500E0D394007480948022F074022BF5827495
:10196500043AF58322F074032BF58274043AF58367
:1019750022F074042BF58274043AF58322E53DC404
:10198500F854F0C868F53DE53EC4540F48F53E22CD
:10199500900139E0D39408748094802274012BF56A
:1019A5008274043AF5832275F080E5310220EAE479
:1019B500FFFEFD7C4690009C122058D3021FC1AF4C
:1019C5000F7E00EFC394247480948022E47B0AFA8E
:1019D500F9F812204C121F19EB2430FF229000F861
:1019E500E0FF640122C4540F2430FF227D907C5F08
:1019F5007F75223AF5837420F02290013AE0D39462
:101A0500037480948022A3F0A37430F0A3222400F1
:101A1500F9740435F0FA7B017D807C0022D2B4C2D2
:101A2500877D407C067F0122540F2430F53C740EDF
:101A35002BF582740422540F2430F53C740D2BF5DC
:101A450082740422E4F557755811755911F55BF543
:101A55005C2290017BE075F080A42294047480944C
:101A65008022241AF582E43400F583EEF00F2290EB
:101A7500016FE0FEA3E0FFC3227427253CF53C225D
:101A850074BB2DF582E43400F583E0FC22E50DF00E
:101A9500A3E50EF0A3E50FF02290024EE0FF75F0EE
:101AA50010021C29AF09EF3395E0FE22ECC4F8546F
:101AB500F0C8EDC4540F4822E0F50DA3E0F50EA3E0
:101AC500E0F50F227884A60608A60722C394587469
:101AD50080948022240FF582E43400F583E02224EB
:101AE50012F582E43400F583E02275F080EF0220E0
:101AF500EA246FF9740435F0FA7B012294067480A8
:101B0500948022E47882F608F62290011E7404F08F
:101B150022121E7390017102207075F00FE53212CA
:0E1B250020EAE0229000A1E4F0A37419F0225F
:10342D00C223C23B9000A37401F07F0712D8CF5383
:10343D00D9BF75C990E4F5FF12000312CC1B129F82
:10344D005DE4F5FEC200C204C20290013CE0FF3013
:10345D00E004D2028002C202EF30E10AD2009001F4
:10346D00267444F08002C200EF30E20AD2049001CB
:10347D00267448F08002C2043004057F0112C00E8C
:10348D003000057F0512C00E3002057F0312C00EFD
:10349D007A00798E1238BF12A0627BFF7A00799D77
:1034AD007D0212A26053C77F9000861219554021EC
:1034BD00301B1E20151BE47F607E09FDFC900293DE
:1034CD00122058C3121FC15008D295900086E014E7
:1034DD00F0300805301B02D295E4F5FE129071E52F
:1034ED005D121AD1500C201509204106E50A642001
:1034FD007005C22A122832E4F5FE20090302359A1E
:10350D00C215FF12C506AD08E4FF12B41C900445A8
:10351D007466F0A3F0A3F0A3F0A3F0A3F07B017AFF
:10352D0004793A9001827406F07F007E007D007C64
:10353D000012D23730095FC290200802C295D2A482
:10354D00301F03127383E5C930E63D12773FE4F572
:10355D00FE301DE0FF12C1A630111E9004457420EF
:10356D00F090044BF0AD08E4FF12B41C7B017A041B
:10357D0079007D807C00126FACC21DE50A541F706E
:10358D00B3C228127E2780AC12CC7380A7E4F5FE5F
:10359D0043870185878730170343EF1012000330EF
:1035AD001F03127383E4F5FE200C03023680E50B36
:1035BD0060030236809000B812194F900007E004A6
:1035CD00F07A00799F1238BF1218DC12A260200E1B
:1035DD00712022141219E2600FEF6403600AEF6488
:1035ED00026005740AF0D243D222AF0CEF64016081
:1035FD0019EF64056014EF6409600FEF6413600A3E
:10360D00EF64176005EF642170057F071238E23013
:10361D00223020152DAF0CEF64016019EF640560A9
:10362D0014EF6409600FEF6413600AEF641760050F
:10363D00EF642170081238AFC22A1228327F0512AA
:10364D00DC483004131238CFD22612D7E0301B08D5
:10365D00124781C22C12D9627F0512DC48E50C702D
:10366D000B3000081238CFD22612D7E0C20CE490EE
:10367D000087F030223E90013BE0650B60369001F3
:10368D005FE0650B602E301009A210922412D86FE6
:10369D00800CC22412D86F7A0079B51238C7900108
:1036AD003BE50BF0C20390015F7463F0C22A122850
:1036BD003212DA35201D03023787300E04C21AD2BA
:1036CD0015E50A12213D371500371D153715303711
:1036DD001D4536EF48370353370856370D57000051
:1036ED0037373043451219E26019EF64026014EF69
:1036FD0064037036800D3043318008301A2C8003FE
:10370D00301A27122E478022E50B64597002D2968B
:10371D00D3E508121B014005E4F5088002050820D9
:10372D001108204305C228127E279000A4121955B6
:10373D004003E014F012A35A301525C21AE50A54BD
:10374D000F700D127ABCE4F5FE7A0079B61238C707
:10375D00D295201B1B200118B2A4A2A49290801018
:10376D00D222201B0B200108B2A4A2A49295929004
:10377D00200105E4FF12D32EC21D201B09200E06C9
:10378D0020430302381330134C201B0330010D303E
:10379D000804D2958004A2909295C2A43046672069
:1037AD001564900087E0C394057480948050577B16
:1037BD00FF7A0079D47D0512A260D222C22A122886
:1037CD003212DC6F7F011238E27F071238E2C22C11
:1037DD0012D962803120430F30150C201B033001AC
:1037ED0025C290D295801F201B06300109200806A6
:1037FD00A24392A492951219FF400B20150820099F
:10380D0005D2221238AF304305C22A122832304376
:10381D00030235AC12A805500B9000A4E07005C250
:10382D002A122832201B030234B51219B450030298
:10383D0034B57BFF7A0079F87D0512A260C22A1299
:10384D0028321273839000A3E0C394217480948076
:10385D00502F1219B4402AD22612D7E09000A3E0BF
:10386D0004F07BFF7A017908E4FD12A2609000A3B9
:10387D00E0FFE4FCFDFE9002521238D81247818021
:10388D00C47BFF7A01791CE4FD12A26090009C12AA
:10389D00204C900252740B1238D8C22C12D96202ED
:0238AD0034B530
:1038AF00C22A1228327F011238E27F071238E22231
:1038BF007BFFE4FD12A260227BFF7D0512A2602236
:1038CF00C22A12283212738322F01281697D0112EB
:0338DF00A26022C2
:10D8CF0090000BE0A3F090000AE0A3F0900009E0B5
:0ED8DF00A3F0900008E0A3F0900008EFF02204
:10C1A600E50E540F2430FE90042712143BEEF0E502
:10C1B6000E900426121442EEF0E50D540F2430FEC4
:10C1C60090042A12148FEEF0E50D90042912144201
:10C1D600EEF0E50F90042F1214B0EEF0E50F900488
:10C1E6002E121496EEF0E50C9004321214B0EEF016
:10C1F600E50C900431121496EEF0E50B900435121E
:10C2060014BCEEF0E50B9004341214A3EEF0E50A2C
:10C216009004381214BCEEF0E50A9004371214A309
:03C22600EEF02215
:10CEAD00ED14601114602C1460352403703C1215C0
:10CEBD0045745B8017121545745BF09004011215D3
:10CECD0048745BF090047E121679745D12167574B9
:10CEDD005DF02212154574201216757420F0221281
:0BCEED001545740A121675740DF02232
:05C5060090017BEFF045
:10C50B00A3F090017CE0FFC3121A60505B7D031215
:10C51B00CEAD90017CE090043912143C742EF0E403
:10C52B00F53CF53D741F253DF5827401353CF583D3
:10C53B00E0FF90017CE0900401121449E582253D57
:10C54B00F582E583353CF583EFF0053DE53D700263
:10C55B00053C6419453C70CC90017CE0FF1282F0E5
:0EC56B0090017CE004F0809A90017BE0F513D3
:01C57900229F
:10CD1E00900424121684742CF090042512168F742D
:10CD2E0020F0900428121700742FF090042B121785
:10CD3E009C742FF09004301217AE7420F0900433D0
:10CD4E001217E2743AF090043612184F743AF090BB
:10CD5E00042C12184F7432F090042D1218CD74302A
:02CD6E00F022B1
:0282F000AE07D7
:1082F20090041A121784742CF0E4F53EF53F74A62C
:10830200253FF5827400353EF583E0FF90041B1291
:108312001784E582253FF582E583353EF583EFF04C
:10832200053FE53F7002053E6409453E70D0AF0649
:1083320012CD1EEE121707742CF09004411217A3EF
:108342007420F0EE1217107447F0EE1216C574374F
:10835200F0EE1214DF7432F090044B1217A3742C57
:10836200F090044C1217B57420F09004721217B5F5
:108372007420F09004751217BC742FF090047612DA
:1083820017BC7433F09004771217D87431F090044C
:10839200781217D8742CF0EE1216A07420F0900404
:1083A2006D1217F5742CF0EE1216F47420F0EE1222
:1083B20016AB742CF090047E1217F57420F0900422
:1083C2004D1218097420F0900451121809742CF0FF
:1083D2009004521218257420F0EE1217217441F005
:1083E200EE12172A742FF0EE121733744EF0900427
:1083F20055121825742EF090045812182C742CF073
:1084020090045912182C7420F090045A1218AC746B
:1084120020F090045D1218AC742EF09004601219D2
:108422001B742CF0EE12151B7420F0EE12173C7424
:1084320020F0EE1217457420F0EE12174E7441F040
:10844200EE121757742FF0EE121760744EF090046C
:108452006212191B7420F075F080EE9004681220ED
:0D846200EA742CF09004691218CD7420F01B
:01846F0022EA
:10738300C235D236754E01850A50850F51850B4F94
:10739300850D52850E53303675AF4E054EEF606E38
:1073A30012D5558F10AF0DEF6055D394317480947F
:1073B30080504CAF0EEF6047941274809480503F1E
:1073C300E50F1219C94038AF0CD3EF94237480949E
:1073D30080502CEF700CE50C65116006E5116423F9
:1073E300701DAF0B7E00D3EF945974809480500FBF
:1073F300EF7017E50B654F6011E54F6459600BD2D1
:10740300367F0F7E0012002E808CC2368088E50CFA
:107413006511601D121B08D235850C112022127BC9
:10742300FF7A00798EFD12A26012A0627D021275AE
:107433005EE50B654F7003027539D203D2359001B7
:1074430039E004F0E50C64237008E50B6456700220
:10745300D243AF0B7E00EF6404603AEF64096035FA
:10746300EF64146030EF6419602BEF64246026EF3F
:1074730064296021EF6434601CEF64396017EF64A2
:10748300446012EF6449600DEF64546008EF64597F
:10749300600302751BEF64594E7002D20C201A78F8
:1074A300D21A200A197D0512755E1273837BFF7A47
:1074B30000798EE4FD12A26012A06212B3659001FE
:1074C30057E06430701EA3E0B4351990015AE0B45C
:1074D3003112A3E0B4300D7BFF7A0179277D0512C9
:1074E300A26080349000A4E0702E302212300A286B
:1074F3007BFF7A017939FD12A26012D6F780193029
:107503000A107BFF7A0179567D0512A26012B365DA
:10751300C21A9000A47478F0E50B540FF54F70165F
:107523001219954011304202E4F0202107C242E4CF
:10753300900139F0D221E50A65506002D21DE55170
:10754300650F6002D235E552650D6002D235E55311
:0A755300650E6002D235C21FA2359A
:0B755D00227BFF7A00799D12A26022C1
:0BDC87009000B2E50CF0A3121A9222EC
:10D6F70012738312A0623022117BFF300D067A016C
:10D70700799B800C7A0179C180067BFF7A0179DFEA
:08D717007D0212A26002B3655D
:10A06200E50E1219EA90024EF0BF30047F208005FF
:10A0720090024EE0FF12D794E50E12A1467F2F12F6
:10A08200D794E50D12A132E50D12A1467F2F12D70A
:10A0920094E50F12A132E50F12A14F7F2012D7943F
:10A0A200E50C1219EA90024EF0BF30047F208005C1
:10A0B20090024EE0FF12D794E50C12A14F7F3A12A4
:10A0C200D794E50B12A13CE50B12A1587F3A12D7A7
:10A0D20094E50A12A13CE50A12A1587F2012D794F6
:10A0E2007F2012D794900006E090024EF03395E064
:10A0F200C364809480501A7F2D12D794900006E09A
:10A10200FF3395E0FE7CFF7DFF121CF890024EEFBC
:10A11200F0121A9E2430FF12D794121A9EAFF0EF5B
:10A122002430FF12D7947F7A12D794E4FF02D79497
:10A13200C4540F2430FF12D79422C4540F2430FF8A
:10A1420012D79422540F2430FF12D79422540F2492
:0FA1520030FF12D79422540F2430FF12D79422DB
:10B365007BFF7A0179F5E4FD12A260E50875F00E20
:10B37500A4121AD9FF12D794121922FF12D7947F5B
:10B385002E12D794121933FF12D794E50875F00ED3
:10B39500A4121AE4FF12D7947A02790A12B4147827
:10B3A50082E6FE08E6FFE4FCFD9002527407F01207
:10B3B50081697D0112A2607A02792712B414900284
:10B3C5009312204C900252740CF01281697D011287
:10B3D500A260301934D37883E6940018E6940040CF
:10B3E500289000BAE004F07BFF7A0279407D0112D3
:10B3F500A2609000BAE0D3121B01400D7BFF7A02D8
:0FB40500794D7D0112A260D2081218DC02A260FC
:08B414007BFF7D0112A2602202
:10CC1B0075F1BF75F2FF75F3FF75F47E75F5FF7552
:10CC2B00A41D75A5E775A61975A77A75AE8075D481
:10CC3B00C875D5FF75D61975DFFF75E10775E2402D
:10CC4B0075E301C23CD2A075C70312D8297BFF7ACA
:10CC5B0002795FE4FD12A2607BFF7A02798A7D0282
:08CC6B0012A260D296D2B4229D
:05622B00900170EFF08E
:10623000C226D296D22212DC6F752C05D2257A02A4
:1062400079B212644D201B097A0279EA12644D80FA
:1062500006D290D295D2A47A03790D126463A20972
:106260009227C20912DCD8D290C2A4200802C2959B
:10627000E52C603BD2229000BB7424F07F071238DB
:10628000E2152C7DE47CA27F1912D5231219C4409B
:106290000AD3EF94447480948040D57A03794312F2
:1062A00064639000BB7424F0D22212649180C11206
:1062B00019C4400AD3EF94447480948040147A0344
:1062C000795512646BD290D295D2A4D20DD22612F7
:1062D0006491D246A227920912DA03300D14D22219
:1062E000E4FF1238E27A03798912646BD226D20D68
:1062F00080107A0379D31264813009061263FC128C
:1063000063FCD246304626300D23300D127F011239
:1063100038E2300906126417126417D24380E57F11
:10632000071238E27A04795C12648180D712DC6F3C
:10633000C22A122832D290D2A4200802C295300D6F
:106340000E3009061264321264327F031238E220E2
:1063500091047F0680027F0512DC487A0479A4123A
:106360006489D290D2A4D29512DA1CD228127E2748
:1063700012B365A20D9290C2A4200802C295C290E9
:10638000C2A4200802C29530094C7A0479C2126472
:106390008912DA1C12DC6F7BFF302615126455124D
:1063A00064557A0479E912649D7BFF7A0479E98067
:1063B000131264731264737A05790A12649D7BFF69
:1063C0007A05790A7D207C00126FACC290D2A4209D
:1063D0000827C295802390029312209500000000A8
:1063E000121B087BFF7A05792B7D0512A2607BFFCB
:0B63F0007A05793E7D0512A260D217ED
:1063FB00227BFF7A04791A7D207C00126FAC7BFF25
:10640B007A04791A7D207C00126FAC227BFF7A0410
:10641B00793B7D207C00126FAC7BFF7A04793B7D4E
:10642B00207C00126FAC227BFF7A0479837D207C69
:10643B0000126FAC7BFF7A0479837D207C00126F96
:10644B00AC227BFF7D0512A260227A0479E97D20C4
:10645B007C00126FAC7BFF227BFF7D0512A26022BA
:10646B007BFF7D0512A260227A05790A7D207C00D4
:10647B00126FAC7BFF227BFF7D0512A260227BFF9C
:10648B007D0512A260227F091238E212738312A0DB
:0A649B0062227D207C00126FAC220B
:107E2700E4F52DF52E90011EE014F0301B04D2A4CA
:107E3700C2909000A1E0FEA3E0FFD39405EE94006A
:107E4700400C9000A174FFF5F0121D95800CEF64B3
:107E5700054E700620150343EF10201506201B035F
:107E6700302802D22912AE0675F43E20B22A9001BC
:107E770056E0FF14F0C3EF9401748094805019907A
:107E870000B612194ED2B112D61B9001567404F0E7
:107E9700121A2612D523C2B1E4F508C283301B0794
:107EA700200804A21E9295127FB9D283301B1F208F
:107EB7000802C295127FC3200804A21E9295127F62
:107EC700B9200802C295127FC3200802C295C21EBC
:107ED7007DE47CA27F0F12D523128DEA301B072089
:107EE7000804A21E92957F01EFC312199A50091236
:107EF700154F121A67027EEF201305301B02C29539
:107F0700750807201502D2B3201509201B06202863
:107F170003027F9C303D03202968304204C2218040
:107F27003E30213B20423812199540337BFF7A05BA
:107F37007973E4FD12A26012A0627BFF7A05798C47
:107F47007D0212A260E4FF129A1112DC879000B240
:107F5700E0FF12DB998F12D206D212D229C22190EA
:107F6700011EE0FF7E00C3940174809480401030AE
:107F77002802800BD3EF9404EE64809480400312B0
:107F87001B0F202909301503304203302807A22888
:107F9700922A12283230150D12DC6FC22A1298F677
:107FA700C22C12D962C28CE4F5FE301B02C2A402B5
:027FB700004682
:107FB9007DE47CA27F0F12D523227DE47CA27F0A77
:047FC90012D5232288
:10D2370090017B122128802F900182121955402FCF
:10D24700E014F090017E1219D190017B1221089011
:10D257000182E0F582758300EF121CD690017E12E1
:10D26700204C7B0A12187690017E12207080C9220A
:10719C00D226127383E490016DF09000EFF0F55756
:1071AC00F558F55990016FF0A3F0121A749434EE5F
:1071BC009400501474BB2FF58274003EF583E4F0F8
:1071CC0090016F12194F80E29000FB742FF0900029
:1071DC00FEF09001037420F0900106743AF09001D7
:1071EC0009F012A5449001571218344012121833AA
:1071FC00400D90015A12183440051218335047C2F2
:10720C000F7BFF7A05798F8029200F2D121A2212FD
:10721C00D523D287C2B4E4F5FED2B4C22C12D96203
:10722C001273701273701219F112D5237BFF7A0549
:10723C0079C47D0512A26080D07BFF7A0579ED7D43
:10724C000512A2608002D20FE490016FF0A3F0123D
:10725C001A749405EE9400502A74802FF5827400F1
:10726C003EF583E0FF3395E0FED3EF9439EE648076
:10727C009480500512183A5002C22690016F1219D0
:10728C004E80CC9000A9E0642C6002C22620265EC1
:10729C009000807430F07439121A0BF0A3F0E49063
:1072AC0000A5F090015EF0900006F090013CF0908B
:1072BC0001577420F0A37430F0742E121A0B04F0E2
:1072CC009000A67448F0A37432F0A3744FF0A3742A
:1072DC002CF0A37446F0A37452F0A3742C121A0C65
:1072EC00F0D20A742090013CF012AB7F8021C210C6
:1072FC00C20AC22090013CE0FF30E402D210EF3011
:10730C00E502D20AEF30E602D220E49000A5F0D2DA
:10731C001090013CE04410F012A72290011F74530E
:10732C00F0A314F0900080E0900121F0900081E037
:10733C00900122F0900082E0900123F0900083E015
:10734C00900124F0900084E0900125F0A3745FF08C
:10735C00121B0F12DC87D228127E2712DCF912A71F
:03736C0022C23A00
:10736F00227D907C5F7F7512D5237D907C5F7F752A
:04737F0012D52322DE
:10907100E490016EF0309303029182301B03029160
:109081009C9000A4E0600302919CC20CF5FE2008B4
:1090910002C295C2A4C290D296201502D2227A05AC
:1090A10079F81291AB12B3657A0679261291AB90D9
:1090B10000A0E0605B1273837BFF7A067930E4FDE8
:1090C10012A26012A0621218DC12A2601247811271
:1090D1007383C22C12D96212919D7FFA12D5231289
:1090E100919D7FFA8016D3E55D1219574013C22A6C
:1090F1001228321273837D907C5F7F6412D52380A6
:10910100E5C22A122832200E13D243122E47800CB8
:109111001219F112D5231219F112D523E4FF1238D5
:10912100E2300D1C201519D2467F021238E27F076A
:109131001238E27BFF7A0079B57D0512A260D22256
:109141009000A0E070031247819000F8E0FF6404F2
:109151006005EF640B7014201A11E4F55DC2437FC2
:10916100071238E2C22A122832D243C22A12283206
:10917100C22C12D9629000F8E0640A701E740BF0E0
:1091810022301B107BFF7A0679417D0512A260D245
:0B9191002602D7E0D296201502D22261
:10919C00227D907C5F7FFA12D5237D907C5F227BB1
:0791AC00FF7D0512A2602205
:10D32E00E5C930E61C200E0ED20EC222EF3395E078
:10D33E004F702712B9983096057F0612DC48027797
:10D34E003F300E07C20E12D64AD222E4F5A9F5B925
:0BD35E00C215301B05200802C29522FA
:045F9C00AB07AA069F
:105FA000E5571219EA1219A1EFF0E557540F243002
:105FB000FF12195FEFF0E5581219EA12196BEFF0B2
:105FC000E558540F2430FF121977EFF0E5591219F4
:105FD000EA121910EFF0E559540F2430FF1219049A
:105FE000EFF030051F1219A1743012195E743012CF
:105FF000196A7430121976743012190F7453121909
:1060000003744CF020225690007DE0F53DA3E0F5AE
:106010003EE53E1216E64003121A7E74042BF5820A
:1060200074041216CE4003121A7E74032BF5827488
:10603000041216CE4003121A7E74022BF5827404E9
:106040001216CE4003121A7E74012BF582740412CC
:1060500018B312191074471219037444F030071F53
:106060001219A1744C12195E744F12196A745712E6
:106070001976744212190F74411219037454F07492
:10608000072BF58274041219F8855B3D855C3E7818
:1060900084E6F53D08E61216E440031218C6740BB8
:1060A0002BF58274041216CE40031218C6740A2B04
:1060B000F58274041216CE40031218C674092BF52B
:1060C0008274041216CE40031218C674082BF5828F
:1060D00074041218B3740C2BF58274041219F8208E
:1060E0002216753D0085103EE53E121A2D1218B39A
:1060F000121982121A3B8010900160E0FFC4121A3C
:106100003B1218B3EF121A2D1218B3740F2BF5822D
:1061100074041219F82D601024F0601424707018A3
:106120001218447430F080161218447479F0800EFE
:106130001218447463F080061218447478F0121A2E
:10614000A9EF640F4E70081218447446F08026EFD1
:10615000640A4E70081218447441F08018121AA98B
:10616000D3EF9400EE64809480400AE5092430FF68
:10617000121844EFF07886E6FC08E6FDEC1216E60D
:1061800040031218C674112BF58274041218B3124E
:106190001AB11216E640031218C674122BF5827457
:1061A000041218B37887E61216E640031218C67474
:1061B000132BF58274041218B374142BF582740433
:1061C0001219F87879E6FC08E6FDEC1216E64003B1
:1061D0001218C674152BF58274041218B3121AB172
:1061E0001216E640031218C674162BF582740412B8
:1061F00018B3121982787AE61216E640031218C60E
:1062000074172BF58274041218B374182BF582746A
:10621000041219F8900088E01216E640031218C61E
:0A62200074192BF58274041218B3F0
:01622A002251
:0BD52300900171EFF0A3ECF0A3EDF01D
:10D52E00E4A3F0900171E0FF900174E0C39F5016E8
:10D53E00E4F5FE900172E0FEA3E0FF12002E9001D2
:06D54E0074E004F080DD32
:01D5540022B4
:10CC7300C211C209C215C2A4200802C295E49000E1
:10CC8300A1F0A3F0C22A1228327A06796212CCC12B
:10CC93007D02E4FF12CEAD304310D22612D7E07AE4
:10CCA30006798412CCC143EF1022201B107BFF7A3C
:10CCB3000679CF7D0512A260C22C12D962227BFFB6
:06CCC3007D0512A26022B3
:10B99800900161740CF0A37403F0E4900164F090DA
:10B9A8000166F0900168F090016AF0900080E090E4
:10B9B8000163F0900081E0900165F0900082E090D2
:10B9C8000167F0900083E0900169F0900084E090B6
:10B9D800016BF0E4A3F012CFD5900B4EE493FE7404
:10B9E8000193FF900B50E493FC740193FD7BFF7A65
:10B9F8000B79889001751221287B017A0179619071
:10BA08000178122128900BA6E49390017BF0900B0B
:10BA1800A7E49390017CF0900BA8E493FB74019346
:10BA280090017DCBF0A3EBF07BFF7A0B7952129457
:04BA38002E02DA03FD
:0891B30090017BEFF0A3EDF049
:1091BB00E4A3F0A3F090017D121A779406EE9400CD
:1091CB00501F90017BE090043A121490E5822FF52A
:1091DB0082E5833EF5837420F090017D12194E8059
:1091EB00D490017BE0FF90043912149D7420F09011
:1091FB00017CE0FD7C0064016008ED640360030208
:10920B009292ED64034C706312166B742EF0900106
:10921B007DE4F0A37406F09000F01219D190017D5B
:10922B00E0FCA3E0FD90017BE09004391214AAE569
:10923B00822DF582E5833CF583EFF09000F0122050
:10924B004CE47B0A1218779000F012207090017D8D
:10925B0074FFF5F0121D9590017DE07002A3E07094
:10926B00B69000F01220950000000090017BE0FF0B
:10927B009004421214B6744FF0EF1216C5746C12B0
:10928B0014DD7464F0804B90017CE0FF7E0064027F
:10929B00702490017BE0FD9004421214C2744EF0D6
:1092AB0075F080ED1216C87465F075F080ED121430
:1092BB00E27477F0801CEF64044E600890017CE050
:1092CB006405700E90017BE0FF75F0801214C8747A
:1092DB0053F090017BE0FF75F08012144F746B120A
:0592EB0013B57430F022
:0192F000225B
:10D01C00E4FEEEC3121B01501290043A121AEFE513
:10D02C00822E1218897420F00E80E712166B742071
:10D03C00F01217DF746612168074661217987466F5
:10D04C0012168B74661217AA746612148B746612FD
:05D05C0013B57430F073
:01D0610022AC
:028CA400A90520
:108CA600C22C75F080EF1214C87453F0E4FEEEC3C4
:108CB600941974809480500F1216FDE5822E1218B6
:108CC600897420F00E80E77D0FE4FEEEC3941874DD
:108CD6008094805034121A85642C600D1216FDE5BE
:108CE600822E121889ECF0801CEDFB64196005EBEE
:108CF600642770110D121A851216FDE5822E1218C0
:108D060089ECF0D22C0D0E80C2E96404700B75F06C
:108D160080EF12144F746BF0221217DF74201216B4
:108D2600807446121798746912168B74781217AAF3
:108D3600742012148B7420F09000C3E09004321259
:108D460014ECEEF09000C2E09004311214F8EEF04C
:108D56009000C5E0900435121504EEF09000C4E0D2
:108D6600900434121528EEF09000C7E090043812F3
:108D76001534EEF09000C6E0FEEF12153CEEF03032
:108D86002C2D9000E81214E8EEF09000E71214F48F
:108D9600EEF09000E6121500EEF09000E5121524B4
:108DA600EEF09000EA121530EEF09000E9802B907C
:108DB60000E61214E8EEF09000E51214F4EEF090DE
:108DC60000E4121500EEF09000E3121524EEF09088
:108DD60000E8121530EEF09000E7E090042E12162F
:038DE60096EEF016
:018DE9002267
:10B41C00EF1217217441F0EF12172A742FF0EF126C
:10B42C001733744E1218D52416F582E43400F583C4
:10B43C00E090045F1216961218D42415F582E434A9
:10B44C0000F583E090045E1217191218D42414F539
:10B45C0082E43400F583E090045C1217191218D4BE
:10B46C002413F582E43400F583E090045B1217C3D7
:10B47C001218D4121AE49004571217C31218D412CB
:10B48C0019399004561218101218D4121928900455
:10B49C00541218101218D4121AD9FE900453121AFE
:10B4AC00EFEEF0EF12173C7420F0EF1217457420FA
:10B4BC00F0EF12174E7441F0EF121757742FF0EF94
:07B4CC00121760744EF0221C
:102E4700D224D225C2901273839000F8E0FF90003D
:102E570088F06401600AEF64026005EF640370099B
:102E67007A0679FE123425D243301A0D200A0AC297
:102E77001AE49000A4F0C24322301A092043062026
:102E870022033001069000A4E06003C21A22302218
:102E9700121219FF400D20430A7A077919123425B7
:102EA700022F2E301A1220010F7BFF7A0779BC7D83
:102EB7000512A260C21A802C30431E900087E0D30F
:102EC700121A604006200103C24322900087E004E3
:102ED700F07BFF7A0779F180067BFF7A0879107D0E
:102EE7000512A2609000A47478F030963F30223C1F
:102EF700301B02D29012C6CCEF3395E0C3648094A6
:102F070080502EC225900007E0C394767480948089
:102F1700501F20011C1273837A0879321233B512BD
:102F2700A062123407C243C21AD205227F0512DCFF
:102F370048304318E50A6453600AC22A122832123D
:102F4700738380F07BFF7A08795C800F9000F874B8
:102F57000AF01273837BFF7A087984E4FD12A2607A
:102F670012DA7D53A8FE201B03300106D295B2A4C6
:102F7700C290121922FF9000F8F0121933FE900048
:102F8700F8F06402600302304CEFC394337480940A
:102F970080500BEE9438748094805002D20743F12E
:102FA7004043A440C2861233AB1233AB53A4BF5382
:102FB700F1BFE4F52AC3E52A941474809480501471
:102FC700301B02B2A41233BD301B02B2A41233BDB0
:102FD700052A80E19000887402F0E4FF129A11E458
:102FE700FF129A11E4FF129A1112DC6FC22A1228FB
:102FF70032201B03300107200802C295B2A4123306
:10300700F5301B02B2A41233F5301B02B2A47BFFCA
:103017007A0879A27D0212A2603007099000F8743D
:1030270008F0D24322D22612D7E043EF10C22C1267
:10303700D96212719C9000F87408F0D2437D467CE7
:1030470000E402332612A06212337F30432512DCDC
:103057006F201B03300102B2A4121A2212D523D209
:10306700871273831233CF7A0879BD1233B51233BF
:10307700E1D21C301B04D295B2A4E4F52AAF0AEFC3
:1030870070030231CE302222300D1F30961C645857
:103097006018301B02C29020A5FD12341312332B87
:1030A700201B03300118D2908014201B033001022B
:1030B700C290E50A6458600312341312332BE52AD1
:1030C7005401700D300D0343C780301B0FD2A4800D
:1030D7000B300D0353C77F301B02C2A4E50A6458A7
:1030E700709BC22A12283212DC6F30964630224378
:1030F700300D40D290D2A4200802C295C20530A557
:10310700FD127383E50A121AD1500B7A0879C0129F
:1031170033C7D205801D12337F12334D121A49204F
:10312700A5FD1233CFC2B47A0879F61233C720A5AA
:103137001880FBC20DC2902094FDC2B47A0879FBB7
:103147001233D9121A493094FDD2B47A0979001290
:1031570033D9D23AD20BB2A4D295127383E50A645B
:1031670058608712334DE50A645970167D907C5F6D
:103177007F0A12D5231273831233E17A00799D12E5
:1031870033FFAF0AEF6401600FEF6402600AEF6478
:10319700036005EF6404700AC22C12D96275090F27
:1031A7008025AF0A7E00D3EF121A605003023084E5
:1031B700EF121AD24003023084C22C12D9627A0964
:1031C70079041233FFD205E4F5FE201B0330010416
:1031D700D295D2A47D907C5F7F0E12D523E4F509AA
:1031E700127383C22A122832303A29AF0C12DB99A4
:1031F7007E007C007DF0121CF8787BA60608A607E7
:10320700AF0B12DB99EF75F004A4AEF0787C26F6CD
:1032170018EE36F630433B20050B7BFF7A09791809
:10322700E4FD12A260303A277A09792812338B78A5
:103237007BE6FE08E6FF7879A60608A6077A0979ED
:103247004112338B7A09794512341DC20BC23AE415
:10325700F51412A062200502C243C21AE490013A93
:10326700F030224BD2909000B8F0A3F0E55C455BBC
:1032770060277A09794A12341DAE5BAF5CE4FCFD26
:103287009002527406F01281697D0112A2607BFFE1
:103297007A09795A7D0112A260D246E50A64017063
:1032A7000E7BFF7A09795D7D0112A26075090E9088
:1032B70000F8E0FF6405600DEF64036008EF640148
:1032C7006003740AF0123407300107C20112DBFEF3
:1032D700800312DCE0C22C12D962752A0112336C0A
:1032E700303D17AF2A052AD3EF121957400CC22ACF
:1032F70012283212336CB2A480E612DC872008024F
:10330700C295C2A4C2907BFF7A0079B57D0312A251
:1033170060C290E4900007F09000A4F07D46FCFFA7
:0333270012DB5066
:10332A00221273837BFF7A00799D7D0112A260AF1E
:10333A000AE4FCFDFE90025204F01281697D01123A
:10334A00A26022AF0AE4FCFDFE90025204F0128150
:10335A00697D0112A2607BFF7A00799D7D0112A22C
:10336A0060227D907C5F7F0E12D5237D907C5F7FEB
:10337A000E12D523227BFF7A00799D7D0112A2606D
:10338A00227BFF7D0112A2607879E6FE08E6FFE45F
:10339A00FCFD9002527406F01281697D0112A2604E
:1033AA00227D907C5F7F7512D523227BFF7D0112DF
:1033BA00A260227D907C5F7F7512D523227BFF7DE0
:1033CA000112A260227D907C5F7F0E12D523227BA0
:1033DA00FF7D0112A26022AF0AE4FCFDFE900252B8
:1033EA0004F01281697D0112A260227D907C5F7FC8
:1033FA007512D523227BFF7D0112A260227BFF7A00
:10340A000079B57D0212A260227D907C5F7F0F1247
:10341A00D523227BFF7D0112A260227BFF7D05124C
:03342A00A260227B
:10D86F00C22A12283230240812DC6F7F071238E2E6
:10D87F00C22A1228329000A4E07005C22C12D9627D
:01D88F002276
:10283200E4F5FEE55D7003022E2C9000F8E0FF64E3
:1028420004600AEF64036005EF640170063043031D
:1028520002DA1C301B03309309200E06202A0302E1
:102862002E2512DC6F9000B2E0900177F09000B359
:10287200E0900178F09000B4E0900179F09000B51A
:10288200E090017AF0300607C2167535F080199093
:10289200080EE0F535D216900177E0700B12D5558F
:1028A2008F10900178121A92900178E0700B7BFFE2
:1028B2007A0979627D0512A260900177E0F50CA396
:1028C200121ABD851331301B0920930612DA4E12FB
:1028D200DCEDE4F532E532C3955D4003022E10AF24
:1028E2001312C506C3E531121A604003022DD0E46B
:1028F200F5FEC20690080012178EC4F854F0C8689C
:102902007986F7A3E0C4540F4809F790080112171B
:10291200CEFF640E6005EF640F7004D206D21690EB
:10292200080D1217FF540FF533C22B300603022B8A
:10293200D8E4F536753703753703C3E53794097460
:102942008094805042E537540175F00F700C1218D4
:102952007DE0540FF5340536800912187DE0C45429
:102962000FF53474302534F5341216EC4006740732
:102972002534F534E531121710E58225371218890E
:10298200E534F0053780B31217CBC413135403F5A3
:102992003614600F1460111460132403701275371B
:1029A200EE800D7537EF80087537F080037537F1CB
:1029B2001218E6121AF6AF37E4FCFDFE900182749B
:1029C20003F012D2371217CB543FF534900474122D
:1029D20016B4EFF0E53475F00A84F53490047312FE
:1029E20016B4EF1218E5246AF97404900808121755
:1029F20069122E2D1218E6247AF9740490080C122A
:102A02001769122E2D1217FCD3946474809480409F
:102A12000BC219E49000BAF0C2088002D21912184F
:102A220018FFE4FCFDFEFBFA7901F8121E8E121863
:102A3200BAC006C00790080A12181B7B00FAE4F914
:102A4200F8D007D006121B16900171122058900878
:102A52000B121859FFE4FCFDFE121B16301C0EC2AD
:102A620016753580122E3C9000B3121ABD121AA9A7
:102A7200EF640E4E7005751401800EEF64014E7006
:102A8200057514FF8003E4F514121856FEA3E0FF47
:102A920090007DEEF0A3EFF07879E6FC08E6FDEF1A
:102AA2002DFFEE3CFEE48F3B8E3AF539F538AD3919
:102AB200AC387B0FFAF9F8121E8E1218FC8C38AF64
:102AC20014EF3395E0FEFDFC1218EDF5387B407AE9
:102AD20042790F78001218C0121F191218EDF5383A
:102AE200E47B3CFAF9F8AC38121F19AF038F2F12AE
:102AF20000168F0AAF3BAE3AAD39AC38E47B3C12DC
:102B020018771218FC8C38E47B3C121877AF038FCD
:102B1200371200168F0B121863AF038F30E4F5FEE5
:102B220090080E121944B5350BE532700CD216120C
:102B32002E3C8005753580C216AF30EF3395E04FDD
:102B42007036D3E5306480F8E512648098402990AD
:102B52000175E50AF0900177E50CF0900176E50B3E
:102B6200F012D5558F10900175E0F50A900177E0CB
:102B7200F50C900176E0F50B853012AF301200169D
:102B82008F0C1218E6243AF9740435F0FA7B01C06E
:102B920003C002C0017B407A42790F78001218C04C
:102BA200121F19AC00AD01AE02AF03900182740690
:102BB200F0D001D002D00312D2371218C0E47B1039
:102BC2007A27F9F8121F191218BAE4FDFC1218BA82
:102BD200121AC9022C43121856F537F50A9008004A
:102BE200121944F50B1217CBF50C121818F50D90AB
:102BF200080A121B1FF50E1217FCF50FAF0A12DBA3
:102C0200998F2F900801121B1F640E700DAF3112A5
:102C1200D01C9000B2E0F50C801812178BFDAF317A
:102C22001291B312178BFF64056005EF6404700202
:102C3200D22BC2167535F09000B2E0FF12DB998FED
:102C420012E4F5FEC21CAF3112C1A6AD33AF311290
:102C5200B41C300603022CE8121863121891900477
:102C6200321217E9EFF0AF031218A39004311217D2
:102C720078EFF0E47B3CFAF9F8AF3BAE3AAD39AC11
:102C820038121F191218919004351217E9EFF07CCF
:102C9200007D0AAF03AE02121D0A900434121778A7
:102CA200EFF01218C07884EEF608EFF67C007D642F
:102CB200121D0A121AC9E52F75F00A121C29AFF06B
:102CC200EF2430FF9004381219ACEFF0E52F75F0C5
:102CD2000A121C292430FFE53112153CEFF0E531D0
:102CE20012166C742EF01218C0121AC99004251212
:102CF20019AC7420F0E4F5FE300E0330090A302AD4
:102D020066E55D146532705FE4FDAF3112CEADE46D
:102D1200F5FE202B1BE532700A1218E6FFAEF07D9D
:102D2200E080081218E6FFAEF0AD35125F9C801607
:102D320012178BFF64046005EF6405700912178B8C
:102D4200FDAF31128CA4AF311282F075F080E53103
:102D520012166F742E1218E5121A13126FAC7D033D
:102D6200AF3112CEADC22A302011A206922CAF3161
:102D7200128470E531121707742CF0301B3A20933D
:102D820037E4F5FE202B1BE532700A1218E6FFAE7F
:102D9200F07DE080081218E6FFAEF0AD35125F9CC0
:102DA200801612178BFF64046005EF640570091228
:102DB200178BFDAF31128CA485311305310532E535
:102DC20032655D60030228E67531040228E6301B95
:102DD20037209334E4F5FEAF130513C3EF121A0440
:102DE200400E7D017F007E0212C806E4F5138018B2
:102DF200E5132401FFE433FEEF7807C333CE33CE6D
:102E0200D8F9FFE4FD12C806E4F5310228D72006FE
:102E12000312DC87301B0C20930912DA4E12DCED10
:0A2E220012B131C22C12D962C23D78
:102E2C0022FFE4FCFDFE9001827403F012D23722E3
:0B2E3C009000B2E0FF12DB998F122221
:109F5D00D295D2A4D290D219C208E49000BAF0D210
:109F6D00961219F112D5231219F112D523E490008E
:109F7D00A4F012D5558F10850C1112DC6F12DA1C5E
:109F8D0012DAEDC21BC209C218E4F5FE7F0612DC1F
:109F9D0048D24612D3DDE490013AF0C2A3D283D267
:109FAD00B5C20EF5FE12DCE0C2A3D283D2B5D2A4A7
:109FBD00C215E4900007F0F5FED2AFD243C2177F71
:109FCD000412C00E7F0212C00ED22230930D7BFF01
:109FDD007A0979907D0512A260D2437F0112D8CF04
:109FED009000F87404F0E4F5089000A1F0A3F012CD
:109FFD00719C12DA7D7F01EFC312199A5009121567
:10A00D004F121A6702A0047508079002931220954B
:10A01D0000000000121B087BFF7A0979A57D05124F
:10A02D00A260D201E49000EFF090011DF090015F6D
:10A03D007463F0E490016DF090013DF090007FF0BD
:10A04D0090013BF0D2A0C290C2907F0112D32EC2DC
:04A05D000EE4F51404
:01A0610022DC
:0D00460075F1F875F3EF43E28075F5FF22C8
:0584700090017BEFF01C
:108475007BFF7A0979C37D0112A260E4900085F043
:108485007B017A0079807D0112A2601285BFFF9081
:1084950004401214EEE4F0EF75F080A42426F9747C
:1084A500041285B09004401214FA7420F01285BFAE
:1084B500FF900445121506E090017C121680E090AD
:1084C500017DF090017BE090044712151EE09001BC
:1084D5007E12168BE090017F1285DA90017C742C58
:1084E500F090017BE0FF90044912152AE090017D90
:1084F50012148BE090017EF0A3742C1285DA9001A2
:108505007BE0FF900459121536E412150CE4F07562
:10851500F080EF202C171216F7E412169EE41216BF
:10852500A9742CF075F080EF90047E800390045FB1
:108535001220EAE4F0EF75F080A42453F9740412D4
:1085450085B075F080A4245AF974041285CF202CC7
:1085550028121A57246AF974041285CF121A571271
:108565001AF67D0112A260121A57247AF97404359D
:10857500F0FA7B017D0112A26090017BE0FF90047F
:108585005912153F742012150C7420F0202C11EF90
:108595001216F4742012169E74201216A9742CF06B
:0B85A5007BFF7A0979CA7D0202A26008
:1085B00035F0FA7B017D0112A26090017BE0227B05
:1085C000FF7A0979C77D0112A26090017BE0223514
:1085D000F0FA7B017D0112A26022F0E4A3F07B019E
:0A85E0007A01797C7D0112A260226D
:10A35A00E4FF12DB75400302A438303E0302A3FE79
:10A36A009000A4E0600302A3FE301509FC12A43990
:10A37A007C0012A43920431E1219E2600AEF64021B
:10A38A006005EF6403700FD243C22C12D9627BFFBF
:10A39A007A0979F0800BC22C12D9627BFF7A0A798A
:10A3AA0003E4FD12A26012A0621218DC12A260205D
:10A3BA00436B9000F8E0FF64026005EF6403700EDF
:10A3CA009000F87402F07BFF7A0A7921801F9000CE
:10A3DA00F8E06401700B7403F07BFF7A0A79358028
:10A3EA000C9000F87401F07BFF7A0A79497D051216
:10A3FA00A26080291219E2600AEF64026005EF6424
:10A40A0003701A7BFF7A0A795DE4FD12A26012A03A
:10A41A00621218DC12A2609000F8740AF09000A48C
:10A42A00E07002C23E7D467C00E4FF12DB50227BD4
:10A43A00FF7A0979CF7D20126FAC7BFF7A0979CF39
:08A44A007D207C00126FAC22A2
:10773F0012CFD59000F4E0645B60030278FA7BFF10
:10774F007A0A796EFD12A260E49000F7F07B017A5D
:10775F000079F47D0112A2601218DC12A260E4908D
:10776F0000F4F09000BBF09000F5E012213D77B7E8
:10777F004177F54378624478874978954C789D4EE8
:10778F0077F54F78A25078A75378B65478C85578C4
:10779F00C85678D25778D95877F55A77E263784C2C
:1077AF006478BD74000078E87F0612DC48C2227B43
:1077BF00FF7A0A79797D0512A260E4FDFF12B41CED
:1077CF00127ABCC215200802C295121B291278FB2F
:1077DF000278F3D2111278FBE4FDFF12CEAD12CD79
:1077EF001ED2A40278F3C21AC243C215200802C2E5
:1077FF0095C22212DA1C12DC6F12719C12D5558FB2
:10780F00109000F5E0FF64436004EFB45A12126B5E
:10781F007BC22CE4FF1284707BFF7A0A798C80097B
:10782F0012AFA57BFF7A0A799C7D0512A260C2A4D4
:10783F00D209E4FDFF12CEADD2A40278CD9000BCE8
:10784F00E55DF0C22A1228329000BCE0FF12CF4350
:10785F000278F3D215C228127E27E4FDAF1312CEA1
:10786F00ADE51375F080A4121A13126FAC7D02AF41
:10787F001312CEADC215806CC209129565D20912D2
:10788F001B0FD246805ED215C290D295805612D26F
:10789F00F2805112C418804CC215200802C295D232
:1078AF0022D243D21A803D12C8D2D2178036C211CB
:1078BF007D02E4FF12CEAD802BD22A1298F6121B56
:1078CF002980217F0112622B801A201103300903B6
:1078DF0012CC73D296D222800B7BFF7A0A79AC7DC1
:1078EF000512A260E49000F5F0A3F02212DA1C1248
:0378FF00DC6F2219
:0300530002D71FB2
:10D71F00C0E0C0D075D000C007AFBBEF641E70086B
:10D72F0075BB0475BCFC800675BB1E75BCF8C2EDDD
:07D73F00D007D0D0D0E0328A
:03008B0002C5EDBE
:10C5ED00C0E0C0F0C083C082C0D075D000C000C014
:0DC5FD0001C002C003C004C005C006C00795
:10C60A0012DC0EEF30E2317B013009237A0079BB6C
:10C61A007D311296979000BBE09000F4F09000BC38
:10C62A00E09000F5F09000BDE09000F6F080097A05
:08C63A000079F47D03129697CC
:10C64200D007D006D005D004D003D002D001D0004C
:0BC65200D0D0D082D083D0F0D0E032F6
:10D7BB00FDFC121FE5E53F4FFFE53E4EFEE53D4DFF
:10D7CB00FDE53C4C8F3F8E3E8D3DF53C229001F4A8
:05D7DB0012204CE422C5
:06D171009001F412207091
:10D17700E4F53FF53EF53DF53C12D7D8FFFEFDEC53
:10D187007818121FD212D7C012D7D8FFFEE4FC7846
:10D1970008121FD212D7C012D7D8FFE4780812D7C7
:0BD1A700BB12D7D8FE781812D7BBFCD3
:01D1B200225A
:02DC9200AD07DC
:08DC9400EEFBEDFAEBAE02FF1E
:01DC9C002265
:10B071001201100100000040C41000020000010094
:10B08100030109022000010100800F0904000002F0
:10B091000806500007058102400000070502024032
:10B0A1000000040309042A03530069006C006900CD
:10B0B10063006F006E0020004C00610062006F00B1
:10B0C1007200610074006F00720069006500730016
:10B0D1003803430038003000350031004600780065
:10B0E10078007800200044006500760065006C005F
:10B0F1006F0070006D0065006E007400200042005A
:10B101006F006100720064001C03300030003700E2
:10B111003900380037003600350034003300320082
:10B1210031003000FFB0A3FFB0A7FFB0D1FFB109DC
:04003E0001000000BD
:10CCC9007596117597409002817401F0E49002877E
:10CCD900F0A3F0227A0079407BFF900276022128A6
:10CCE90075960EE4F597900281E064042290027E25
:10CCF900E0FF7E00648122900284E064042275963C
:10CD09001175974822900285E4F0A304F0227596E4
:05CD19000E75970122D8
:10B6EF0090027BE07010A3E0700C90027FE0700678
:10B6FF00A3E06402600312D928900279E0247F60EE
:10B70F00131460292402707790027DE07015A3E076
:10B71F006013806B12CD00700A90027DE07004A35D
:10B72F00E06002805A7BFF7A007940804212CD00A0
:10B73F00700690027DE06002804512CCF670169084
:10B74F000282E064037BFF70067A00793E80047A00
:10B75F00007940801AEF64014E7022900283E064FA
:10B76F00037BFF70067A00793E80047A00794012DD
:10B77F00CCE3900285E4F0A37402F0800580001200
:10B78F00D92812CCEF6008E59620E7FB12CCC9222E
:10BCB80012CD007020900279E060716401606D908F
:10BCC800027BE0706790027DE0706190027FE07017
:10BCD8005BA3E060028055900279E06402704D90A9
:10BCE800027CE0704712CCF66005EF6401703DEF0E
:10BCF80064814E701AE59620E7FB12CD17E5962071
:10BD0800E7FB759611759740E4900282F08020E574
:10BD18009620E7FB75960E759702E59620E7FB756A
:10BD28009614759780E4900283F0800312D928E571
:10BD38009620E7FB12CCE96008E59620E7FB12CDD8
:02BD48000722D0
:10BD4A0012CD007020900279E060706401606C90FE
:10BD5A00027BE0706690027DE0706090027FE07086
:10BD6A005AA3E060028054900279E06402704C9019
:10BD7A00027CE0704612CCF66005EF6401703CEF7D
:10BD8A0064814E7018E59620E7FB12CD17E59620E0
:10BD9A00E7FB7596117597109002828019E5962037
:10BDAA00E7FB75960E759702E59620E7FB759614E4
:10BDBA007597209002837403F0800312D928E596C0
:10BDCA0020E7FB12CCE96008E59620E7FB12CD07D5
:01BDDA002246
:10CEF800900279E0701D90027DE07017A3E0701336
:10CF0800A3E0700FA3E0700B90027BE07005A3E034
:10CF180030E70312D9289002817405F090027CE072
:10CF280090028460057403F080037402F012CCEF61
:0BCF38006008E59620E7FB12CD072201
:10A1610090027BE024FE601C14603914605314607B
:10A17100652404600302A20F7AB0797112CCE190D8
:10A18100B07180497BFF7AB0798312CCE390B086BD
:10A19100E493FE90B085E4937C002400FFEC3E90B4
:10A1A1000285806490027CE075F00390B125122055
:10A1B100EA12213112CCE3121C4BFF900285E4809C
:10A1C100477BFF7AB0798C12CCE390B08CE493FF9B
:10A1D100900285E4803290027C12CCF96005EF6434
:10A1E10001702BEF64814E7BFF700C7AB079951270
:10A1F100CCE390B095800A7AB0799C12CCE390B010
:10A201009CE493FF900285E4F0A3EFF0800312D960
:10A211002890027BE0FF64016014EF6402600FEF9D
:10A221006403600AEF64046005EF64057023900223
:10A2310080E0FFD3900286E09F900285E094004089
:10A241001090027FE0700AE0FE900285EEF0A3EF2D
:0FA25100F012CCEF6008E59620E7FB12CCC92293
:10CAB500900279E06480701C90027BE07016A3E020
:10CAC5007012A3E0700EA3E0700AA3E07006A3E065
:10CAD5006401600512D9288023900284E0FF7E005E
:10CAE5006404700C7BFF7A00793E12CCE312CD0E04
:10CAF500EF64034E700612CCDD12CD0E12CCEF6042
:0ACB050008E59620E7FB12CCC922D8
:10BF8400900284E064026029900279E070239002B8
:10BF94007DE0701DA3E07019A3E07015A3E070119B
:10BFA40090027BE0700BA3E0D394017480948040F2
:10BFB4000512D928804690027CE0D39400748094C2
:10BFC40080402D9002847404F0E4900282F0A3F087
:10BFD400E59620E7FB12CD17E59620E7FB75961250
:10BFE400759720E59620E7FB75960EE4F597800C8F
:10BFF4009002847403F0900282F0A3F012CCEF60FC
:0AC0040008E59620E7FB12CD0722A5
:10D1B30012CD007024900279E06481701C90027B90
:10D1C300E07016A3E07012A3E0700EA3E0700AA350
:10D1D300E07006A3E06401600512D928800612CC32
:10D1E300DD12CD0E12CCEF6008E59620E7FB12CCE2
:02D1F300C9224F
:10D4BA00900279E06401701C90027FE07016A3E08C
:10D4CA00701290027BE0700CA3E07008A3E0700475
:10D4DA00A3E0600312D92812CCEF6008E59620E792
:05D4EA00FB12CD07223A
:06CE59004302810000000D
:10D6A300FEE02400FFEC3EF0A3EFF022900232E014
:10D6B3004408F0E4900281F0228568838569822220
:0BD6C300900003122187E0FEA3E0228C
:0300430002BA3CC2
:10BA3C00C0E0C0F0C083C082C0D075D000C000C0D0
:0DBA4C0001C002C003C004C005C006C00751
:10BA5900E59620E7FB759686E59620E7FB90022E92
:10BA6900E597F0E59620E7FB759682E59620E7FBDA
:10BA790090022FE597F0E59620E7FB759684E59609
:10BA890020E7FB900230E597F090022EE030E103C9
:10BA990012DCA890022EE030E20312D90B90022F9B
:10BAA900E030E003127902900230E030E20312C97B
:0BBAB9003590022EE030E00312DCB2FA
:10BAC400D007D006D005D004D003D002D001D000D6
:0BBAD400D0D0D082D083D0F0D0E03280
:0ADCA800900231E475F001021D95B1
:10D90B009002847402F0E59620E7FB7596017597FB
:0DD91B0001E4900281F0A37403F0A3F02258
:10790200E59620E7FB75960EE4F597E59620E7FBF2
:10791200759691E59620E7FB900231E597F090028B
:1079220081E064057013E59620E7FBE4F59690028A
:107932007CE0F597E4900281F0900231E0FF30E2C2
:1079420010E59620E7FB759611E4F597900281F019
:1079520022EF30E41BE59620E7FB75961175970838
:10796200E59620E7FB759611759780E4900281F009
:10797200900281E06003027A0C900231E020E00381
:10798200027A0C7B017A0279797D087C007F2012D1
:10799200CE5F90027CE0FE90027BE07C0012D6A5D6
:1079A20090027EE090027D12D6A3900280E09002C7
:1079B2007F12D6A390027AE012213D79DC0079E1B0
:1079C2000179E60379EB0579F00679F50879FA0988
:1079D20079FF0A7A040B00007A0912B6EF802B12A3
:1079E200BCB8802612BD4A802112CEF8801C12A19A
:1079F20061801712CAB5801212BF84800D12D1B3F2
:107A0200800812D4BA800312D928900281E064015E
:107A12006003027ABB900231E030E103027ABBE5F7
:107A22009620E7FB759691E59620E7FB900231E5FB
:107A320097F0E030E40630E003027ABB9002327441
:107A420002F0C3900286E09440900285E094009098
:107A52000276402D1221087C007D407F2012C2AAAE
:107A6200900277E475F040121D9590028574FF75BF
:107A7200F0C0121D95900287E475F040121D9580AA
:107A820013122108900285E0FCA3E0FD7F2012C2C0
:107A9200AA12D6AF90027FE0FEA3E0FF900287E039
:107AA200B50608A3E0B5070312D6AFE59620E7FBBB
:097AB200759611900232E0F5977F
:017ABB0022A8
:10C93500E4FFE59620E7FB75960E759702E59620D0
:10C94500E7FB759694E59620E7FBAE97900283E0AA
:10C955006403700CE59620E7FB7596147597202205
:10C96500EE30E60BE59620E7FB759614759780E5A6
:10C975009620E7FB759696E59620E7FBAF97EFFDCA
:10C985007C00E59620E7FB759697E59620E7FBAFDB
:01C99500970A
:01C99600227E
:0ADCB200900231E475F001021D95A7
:10CE5F00900233EFF0900236122128900234ECF05A
:03CE6F00A3EDF040
:10CE72004C6037900233E0F5964396C0E4FFFED350
:10CE8200900235E09F900234E09E401BE59620E739
:10CE9200FB9002361221088F828E83E597121CD6F0
:0ACEA2000FBF00010E80D8E4F596E2
:01CEAC002263
:10C2AA0090FFFD12216312212890FFFE122163ECF8
:10C2BA00F0A3EDF090FFFF122163EFF090FFFE1262
:02C2CA002163EE
:10C2CC00D2B012D6C34E6049E59620E7FB12D6BC1D
:10C2DC00A3A3E0F59612D6BCE4F0A3F012D6C3FFEC
:10C2EC0012D6BCE0FCA3E0FDC39FEC9E5023900053
:10C2FC00051221871221088D828C83121C64F597FC
:10C30C00E59620E7FB12D6BCE475F001121D958072
:03C31C00CBC2B0E1
:06C31F00900008022163FA
:10D92800E59620E7FB75960EE4F597E59620E7FB6C
:0DD938007596117597209002817404F022FD
:10D369001201100100000040C41000000000010279
:10D3790003010902200001010080FA0904000002EA
:10D38900FF00000007050202400000070582024075
:0AD399000000040309040100000075
:10942E0090016EEEF0A3EFF0900172EBF0A3EAF074
:10943E00A3E9F0E49007A8F09007A8E0FF90D369A5
:10944E0093FE74402FF582E43407F583EEF0900717
:10945E00A8E004F0E0B412E0E49007A8F09007A8AA
:10946E00E0FF90D37B93FE74522FF582E43407F520
:10947E0083EEF09007A8E004F0E0B420E090016ED7
:10948E00E0FAA3E0900748F0EAA3F0EDA3F0ECA316
:10949E00F090077274FFF0A374D3F0A3749BF09056
:1094AE000172E0F9A3E0FAA3E0900775C9F0A3EA10
:1094BE00F0A3E9F0900175E0F9A3E0FAA3E09007BC
:1094CE0078C9F0A3EAF0A3E9F0900178E0F9A3E0FF
:1094DE00FAA3E090077BC9F0A3EAF0A3E9F09001AC
:1094EE007BE0FFC394FA500590075AEFF090017C91
:1094FE00E0900759F090017DE0FEA3E090074CF05C
:10950E00EEA3F0E59620E7FB759601759708E596B4
:10951E0020E7FB75960775970FE59620E7FB759686
:10952E000975970EE59620E7FB75960B75970775EF
:10953E00D7E012DC63E4900792F0900791F0900769
:10954E0093F0900786F043E602D2AFE59620E7FB54
:07955E0075960175970122CB
:10D746009007867402F0E59620E7FB7596017597BB
:10D7560001E490078EF0A37403F0A3F0E49007921F
:07D76600F090079104F0228E
:10671200E59620E7FB75960EE4F597E59620E7FBF4
:10672200759691E59620E7FB90079CE597F0E0FFD0
:1067320030E210E59620E7FB759611E4F597900795
:106742008EF022EF30E410E59620E7FB7596117586
:106752009780E490078EF090078EE060030268470E
:1067620090079CE020E0030268477596204396C09C
:10677200E49007A8F0E59620E7FB9007A8E0247EC6
:10678200F582E43407F583E597F09007A8E004F07A
:10679200E0B407E1E59620E7FBE4F5969007A8E070
:1067A200247EF582E43407F583E597F0900781E0D3
:1067B200FE900780E07C002400FFEC3E900794F0FE
:1067C200A3EFF0900785E0FE900784E02400FFEC41
:1067D2003E900796F0A3EFF090077FE004603B1431
:1067E200B40C00505D9067EEF8282873026812021C
:1067F200681702681C02682102684402682602685F
:106802002B02684402683002683502683A02683F27
:1068120012C57A803012C9F8802B129C348026125D
:10682200CA57802112D890801C12B1F1801712CF62
:106832008E801212CB0F800D12D76D800812DB01F1
:10684200800312D94590078EE06401600302694813
:1068520090079C7402F0C390078DE0944090078CDF
:10686200E094004061E59620E7FB759620E49007EE
:10687200A8F09007A8E0FFC394405022900787E059
:10688200FBA3E0FAA3E0F98F82758300121C64F582
:1068920097E59620E7FB9007A8E004F080D49007E4
:1068A20088E475F040121D9590078DE024C0F090A9
:1068B200078CE034FFF090078BE02440F090078AC9
:1068C200E03400F08052E59620E7FB759620E490D4
:1068D20007A8F09007A8E0FFD390078DE09F9007EC
:1068E2008CE094004026900787E0FBA3E0FAA3E047
:1068F200F99007A8E0F582758300121C64F597E50C
:106902009620E7FB9007A8E004F080C790079CE080
:106912004408F0E490078EF0900796E0FEA3E0FFB3
:1069220090078AE0B50611A3E0B5070C90079CE03A
:106932004408F0E490078EF0E59620E7FB75961187
:0769420090079CE0F597228D
:10D94500E59620E7FB75960EE4F597E59620E7FB4F
:0DD9550075961175972090078E7404F022CE
:10C57A0090077EE0247F60071460062402704880DA
:10C58A002D90078FE0B40309900782E0B40202807D
:10C59A000E900790E0B40316900782E0B4820F90E1
:10C5AA00078774FFF0A374D3F0A3749F800D9007DC
:10C5BA008774FFF0A374D3F0A374A1F090078CE4FE
:10C5CA00F0A37402F0800312D94590078EE0640448
:10C5DA00601012DB0190078E7401F0E490078AF074
:03C5EA00A3F02299
:10C9F800900780E07048900782E0FFB4021DE5963A
:10CA080020E7FB75960E759702E59620E7FB75966D
:10CA180014759780E490078FF08026EFB4821DE5A7
:10CA28009620E7FB75960E759702E59620E7FB754D
:10CA38009611759740E4900790F08005800012D910
:0FCA480045E59620E7FB75960EE4F59702DB01B6
:109C3400900794E0B4373CA3E0B40B3790078EE070
:109C44006404601012DB0190078E7401F0E4900745
:109C54008AF0A3F090079B7480F09007877401F05A
:109C6400A37407F0A3749BF090078CE4F0A304F0B2
:109C7400029D36900795E020E003029D0D90079326
:109C8400E030E00854FEF04402F08007900793E0CF
:109C940054FDF0E59620E7FB75960E759702E59660
:109CA40020E7FB759614759710E59620E7FB7596EB
:109CB40011759708E59620E7FB759694E59620E7DD
:109CC400FB90079BE597F0E020E4E9E59620E7FBAD
:109CD400759614759710E59620E7FB759691E596B1
:109CE40020E7FB90079BE597F0E020E3E9E5962069
:109CF400E7FB7596117597089007917408F0900723
:109D040093E0FF30E1034401F0900794E0FCA3E00A
:109D1400FD30E10D9007867406F0900791E0441041
:109D2400F0ED30E20D9007867404F0900791E04462
:109D340020F0E59620E7FB75960EE4F59702DB012B
:10CA5700900780E07047900782E0FFB4021BE596DD
:10CA670020E7FB75960E759702E59620E7FB75960E
:10CA77001475972090078F801DEFB4821EE59620CE
:10CA8700E7FB75960E759702E59620E7FB759611FD
:10CA97007597109007907403F08005800012D945B0
:0ECAA700E59620E7FB75960EE4F59702DB019D
:10D89000E59620E7FBE4F596900780E0FFF597EF2B
:10D8A00090078660057403F080037402F002DB01C8
:10B1F100900781E024FE601B14603B240270729072
:10B2010007877401F0A37407F0A37440F09007401E
:10B21100E080539007877401F0A37407F0A3745280
:10B22100F0900755E0FE900754E07C002400FFEC0D
:10B231003E90078C8035900780E0FFD39403400255
:10B24100802FEF75F003A42472F582E43407F583AF
:10B25100E0FBA3E0FAA3E0F9900787EBF0A3EAF0A3
:10B26100A3E9F0121C4BFF90078CE4F0A3EFF080F0
:10B271000312D94590078CE0FEA3E0FF900796E00A
:10B28100FCA3E0FDC39FEC9E500890078CECF0A35B
:10B29100EDF090078EE06404601012DB0190078EE0
:0BB2A1007401F0E490078AF0A3F02293
:10CF8E00900786E0FFB40414A374FFF0A374D3F0EB
:10CF9E00A3749FF090078CE4F0A304F0EFB4031693
:10CFAE0090078774FFF0A374D3F0A374A1F09007D9
:10CFBE008CE4F0A304F012DB0190078E7401F0E410
:07CFCE0090078AF0A3F02296
:10CB0F00900780E0D394004042900791E04440F0BA
:10CB1F009007867404F0E490078FF0A3F0E5962059
:10CB2F00E7FB75960E759702E59620E7FB75961253
:10CB3F00759784E59620E7FB759615759780E596B2
:10CB4F0020E7FB75960EE4F597800C90078674032B
:0ACB5F00F090078FF0A3F002DB0155
:10D76D0090078774FFF0A374D3F0A374A1F0900712
:10D77D008CE4F0A304F012DB0190078E7401F0E449
:07D78D0090078AF0A3F022CF
:10DB010090078EE06404600BE59620E7FB759611A3
:04DB110075974022A2
:03004300028A0925
:108A0900C0E0C0F0C083C082C0D075D000C000C033
:108A190001C002C003C004C005C006C00790079D7D
:108A2900E596F0E59620E7FB75968EE59620E7FB3F
:108A390090079EE597F0E59620E7FB759686E59603
:108A490020E7FB900798E597F0E030E30BE59620E7
:108A5900E7FB75960B759707900798E030E20312CC
:108A6900D746900798E030E014900786E0FF640449
:108A79006004EFB40607900791E04480F0E5962082
:108A8900E7FB759682E59620E7FB900798E597F056
:108A9900E030E003126712900798E030E22AE59689
:108AA90020E7FB75960E759702E59620E7FB75960C
:108AB90091E59620E7FB900799E597F0E05403705C
:108AC90007900791E04402F0E59620E7FB7596844C
:108AD900E59620E7FB900798E597F0E030E229E575
:108AE9009620E7FB75960E759702E59620E7FB75CC
:108AF9009694E59620E7FB900799E597F0E030E03A
:108B090007900791E04404F0E59620E7FB75960E7F
:108B190090079EE0F597E59620E7FB90079DE5967F
:108B2900F0E59620E7FB900793E030E00990079184
:108B3900E0600312D84DD007D006D005D004D00389
:108B4900D002D001D000D0D0D082D083D0F0D0E0F4
:018B590032E9
:10CFD500E49007A8F0E5B964E0603853A90F90071D
:10CFE500A7E5A9F043B280E5A95407D3940140030E
:10CFF500E4F5A9E4F5B943B9809007A8E014F07009
:10D00500F843B9C0E5B930E5FB9007A7E0B40203E2
:07D0150043A90253A90F22F9
:10D64A009007A7E5A8F0C2AFC2AF53E6FDE4F5D74D
:10D65A00E59620E7FB759601759708E5A920E1068E
:0DD66A0043A910E4F5B99007A7E0F5A82248
:0FDC0E00900791E0FF9007A7F0E4900791F022B4
:109697009007A8EDF09007ABEBF0A3EAF0A3E9F091
:1096A700900786E0B40606EDD3944040037F00227E
:1096B700E59620E7FB75960E759702E59620E7FB82
:1096C700759694E59620E7FB90079AE597F0E020DA
:1096D700E0030297C4E59620E7FB759696E596208A
:1096E700E7FB900792E597F0E0FFEDC39F5006AECA
:1096F70005AF068000900792EFF053E6FDE5962050
:10970700E7FB7596E2900792E070030297A890072F
:10971700ABE0FF7020A3A3E090079FF0E59620E75A
:10972700FB90079FE0F8A697E004F09007A8E014E5
:10973700F070E9806CEF20E73C9007ABA3E0FAA359
:10974700E0FF9007A1EAF0A3EFF0E59620E7FB9092
:1097570007A1E0FEA3E0F5828E83E597F09007A2CC
:10976700E004F070069007A1E004F09007A8E01469
:10977700F070D7802C9007ABE064FE7021A3A3E0C4
:109787009007A5F0E59620E7FB9007A5E0F8E59799
:10979700F2E004F09007A8E014F070E880037F007F
:1097A70022E59620E7FBE4F596E59620E7FB75961C
:1097B70014E4F59743E602900792E0FF227F002228
:106FAC00E49007A7F09007A9F0A3F09007ABEBF0E3
:106FBC00A3EAF0A3E9F0900786E0B4060DED4C606F
:106FCC0009D3ED9400EC94104004E4FEFF2253E648
:106FDC00FD9007A7E030E003027190E59620E7FBF7
:106FEC0075960E759702E59620E7FB759691E596DA
:106FFC0020E7FB9007A7E597F0E030E020E596202E
:10700C00E7FB75960EE4F597E59620E7FB759691F0
:10701C00E59620E7FB9007A7E597F080B4D3ED94B5
:10702C0040EC94009007A840057440F08002EDF00D
:10703C00E59620E7FB7596229007A8E07003027195
:10704C00409007ABE0702DA3A3E0F99007A9A3E053
:10705C00FFE92FF990079FE9F0E59620E7FB9007F1
:10706C009FE0F8E6F597E004F09007A8E014F070C4
:10707C00E80271409007ABE020E747A3E0FAA3E0F9
:10708C00F99007A9E0FEA3E0FFE92FF9EA3EAF0172
:10709C009007A1F0A3EFF0E59620E7FB9007A1E0A5
:1070AC00FEA3E0F5828E83E0F5979007A2E004F052
:1070BC0070069007A1E004F09007A8E014F070D7D8
:1070CC0080729007ABE064FE7021A3A3E09007A54B
:1070DC00F0E59620E7FB9007A5E0F8E597F2E004D1
:1070EC00F09007A8E014F070E880499007ABA3E09B
:1070FC00FAA3E0F99007A9E0FEA3E0FFE92FF9EA73
:10710C003EAF019007A3F0A3EFF0E59620E7FB90CC
:10711C0007A3E0FEA3E0F5828E83E493F597900736
:10712C00A4E004F070069007A3E004F09007A8E038
:10713C0014F070D6C3ED9440EC94009007AAE04094
:10714C001F2440F09007A9E03400F074C02DFD74AA
:10715C00FF3CFCE49007A7F09007A87440F0801661
:10716C002DF09007A9E03CF09007A77401F0900770
:10717C00A8EDF0E4FCFDE59620E7FB7596117597FC
:10718C0001026FDD43E6029007A9E0FEA3E0FF22B7
:10DA0300900793E04401F0900791E0600BE59620C6
:09DA1300E7FB75960B75970F22D5
:08DCD800900793E054FEF022D6
:0CDC6300E59620E7FB75960F7597892267
:10D84D00D007D007D007D006D005D004D003D00222
:10D85D00D001D000D0D0D082D083D0F0D0E0020063
:02D86D008B220C
:10BE6B002A2A2A436C6F636B2043616C696272618F
:10BE7B0074696F6E2041626F7274656421212100B9
:10BE8B00436C6B20446966663A20307800757320EA
:10BE9B002D20002000204472696674204D6561736B
:10BEAB007572656D656E742041626F727465642086
