:0300000002B3C880
:0CB3C800787FE4F6D8FD75817E02B40F9A
:10B3D400023EBCE493A3F8E493A34003F68001F295
:10B3E40008DFF48029E493A3F85407240CC8C3337A
:10B3F400C4540F4420C8834004F456800146F6DF49
:10B40400E4800B010204081020408090C1A5E47E72
:10B41400019360BCA3FF543F30E509541FFEE4933D
:10B42400A360010ECF54C025E060A840B8E493A304
:10B43400FAE493A3F8E493A3C8C582C8CAC583CA2F
:10B44400F0A3C8C582C8CAC583CADFE9DEE780BEE7
:01C1A5000099
:0ECEDE00F0EF25E024ADF582E43402F5832266
:03002B0002C4C349
:10C4C300C0E0C0F0C083C082C0D075D0189002AB6A
:10C4D300E475F00112123275CBF075CA60C2CFC396
:10C4E3009002ACE0947D9002ABE094004009E4F04C
:10C4F300A3F0D21F12CD53D0D0D082D083D0F0D0AE
:02C50300E03224
:10CD5300D39002AEE094009002ADE094804007745B
:07CD6300FFF5F0121232226D
:0300730002CD9823
:10CD980053E67F53917F53C77F43C78053C77F4371
:06CDA800C78053C77F3273
:10C73400E49002ABF0A3F0FFEFC394017480948003
:10C74400501012CEDFE4F0A312CEDEE0547FF00FDF
:10C7540080E6E4F5C8538E0F75CBF0F5CA74FFF587
:07C76400CDF5CCD2ADD2CA25
:01C76B0022AB
:10CE2500538EF8438E04758902758CEA758AEAD2A9
:02CE35008C224D
:10CDFF00E4F59175959E75945875939E7592585359
:03CE0F008EBF22B1
:10CDC300E4F591F595F59475937F7592FF538E3F36
:04CDD3004391042262
:10CE370012CEDFE0FEA3E07003EE64807002D3221F
:02CE4700C32204
:10CE1200ED4C600E12CEDFECF0A3ED12CEDEE0445C
:03CE220080F0227B
:1000030075B28353A9F8E4F586758DCC438E082227
:10C7DB0043B203E4F5B943B980FFFE0FBF00010E6E
:10C7EB00BE01F8BFF4F543B9C0E4FEFF0FBF000173
:10C7FB000EBE01F8BFF4F5E5B930E5FB75A903757D
:05C80B008D30438E0892
:01C810002205
:0D002E000070007000DFF9EE6002DEF422C9
:10008E0043757272656E742054696D653A20002056
:10009E000077616974696E6720666F7220445350F1
:1000AE002073796E63207570202E2E2E004E65778C
:1000BE0020486F75722E2E2E202020000D0A2D2D19
:1000CE002E20005553422054696D6520616E6420C8
:1000DE0053656E736F7220446174612073656E7424
:1000EE00004C617267652046696C652053697A65BC
:1000FE00004E65772046696C652050617274697494
:10010E00696F6E200046696C652073697A653A00E6
:10011E0044737020566572732069732030312E350A
:10012E0030004E65772066697665206D696E757450
:10013E006520696E74657276616C2E2E2E4E6F2060
:10014E0047505320736F206E6F2053796E63207566
:10015E00702077696C6C20626520736368656475C6
:10016E006C65642E0D0A00202020204C61737420D3
:10017E0047505320617474656D70742077617320DD
:10018E007375636365737366756C2E200020202073
:10019E00204C6173742047505320617474656D70E8
:1001AE0074206661696C6564212000202020204740
:1001BE0050532069732064697361626C65642E20EC
:1001CE00004261747465727920766F6C7461676534
:1001DE002069733A200020202020486F75726C79B8
:1001EE0020446574656374696F6E20436F756E7419
:1001FE003A200020546F74616C20446574656374FA
:10020E00696F6E20436F756E743A200020506F6FC9
:10021E0072205369676E616C00204E454544532031
:10022E0053455256494345212121000D0A0D0A2DF1
:10023E002D2D202A2A2A2054524944454E5420530B
:10024E0048454C4C2053544152544544202A2A2AA6
:10025E000D0A2D2D2D000D0A2D2D2D20487964729D
:10026E006F70686F6E6520636F6D6D756E6963611B
:10027E0074696F6E20737461727465642E002A2A1D
:10028E002A20446961676E6F7374696320537461C9
:10029E0074757320436865636B20686173206265B3
:1002AE00656E20696E69746961746564202A2A2AF4
:1002BE000D0A2D2D2D005344206D656D6F72792022
:1002CE0063617264206973206E6F7420696E20748E
:1002DE00686520736C6F742E002A2A2A20475053AB
:1002EE0020697320656E61626C656420746F206195
:1002FE006C6C6F772074696D696E672066756E63BE
:10030E0074696F6E73202A2A2A0D0A2D2D2D002A4C
:10031E002A4261642074696D652A2A0D0A2D2D2DDD
:10032E00002A2A2A204261642074696D652E2054A9
:10033E0072792073657474696E6720636C6F636B7A
:10034E00207573696E67204750532E202A2A2A0D76
:10035E000A2D2D2D002A2A2A20475053206174740D
:10036E00656D707420776173207375636365737345
:10037E0066756C2E204770732074696D65207379D5
:10038E006E632077696C6C20626520617474656D94
:10039E00707465642E202A2A2A0D0A2D2D2D002A0E
:1003AE002A2A2047505320617474656D707420663C
:1003BE0061696C65642E204770732077696C6C20C0
:1003CE006E6F74206265207573656420746F207380
:1003DE006574207468652074696D652E202A2A2A3A
:1003EE000D0A2D2D2D005B4750532053594E43209F
:1003FE004641494C2121212E2E2E2E2E2E2E2E2ED2
:10040E002E2E2E2E2E5D005B4750532053594E43F9
:10041E0020535543434553532121212E2E2E2E2E4C
:10042E002E2E2E2E2E2E5D002A2A2A2047505320A5
:10043E00417474656D707420556E73756363657366
:10044E007366756C20542A2A2A0D0A2D2D2D005BF9
:10045E004750532043616C69622E2E205254432024
:10046E004167696E67206F66667365742E2E5D0038
:10047E002A2A2A205475726E6564206F666620479C
:10048E0050532E202A2A2A0D0A2D2D2D002A2A2AD3
:10049E002054657374696E672073656E736F727323
:1004AE002E202A2A2A0D0A2D2D2D00446961676EF1
:1004BE006F73746963205374617475732043686538
:1004CE00636B2066696E69736865642E0D0A2D2D47
:1004DE002D005B47505320436865636B20436F6D5F
:1004EE00706C6574652E2E2E2E2E2E2E2E50415390
:1004FE00535D005B47505320436865636B20436F29
:10050E006D706C6574652E2E2E2E2E2E2E2E46415F
:10051E00494C5D00446574656374696F6E73207A2F
:10052E0065726F65642E00446961676E6F737469DE
:10053E00632053746174757320436865636B206622
:10054E00696E69736865642E205265737461727486
:10055E00696E672E2E2E0D0A2D2D2D004E6F204406
:10056E00617461205468697320496E746572766196
:10057E006C202D20000D0A004E6F2056616C6964B0
:10058E00204473702056657273696F6E202D20544F
:10059E006F67676C65206120726573657420746F78
:1005AE002072657472696576652069740044737093
:1005BE002056657273696F6E207265747269657606
:1005CE00616C20686173206265656E20617474656C
:1005DE006D70746564005355434345535321212177
:1005EE00004C6F6767696E6720746F205344206DEF
:1005FE00656D6F7279206361726420686173206229
:10060E0065656E20696E697469617465642E005744
:10061E00616974202E2E2E20004C6F672052657358
:10062E00756D65642061743A20005344206D656DCC
:10063E006F727920636172642068617320626565F0
:10064E006E2072656D6F7665642E004578697469EB
:10065E006E67206465646963617465642074696D96
:10066E00696E67206C6F6F702E200D0A00436861F3
:10067E006E676564207468652073797374656D2088
:10068E00636C6F636B207669612061205043206339
:10069E006F6D6D616E642E205265626F6F74696E40
:1006AE0067207468652073797374656D2E205761A9
:1006BE0069742E2E2E0D0A004E6F74204C6F6767D4
:1006CE00696E6720746F20636172642E204F7065AF
:1006DE006E2044535020636F6D6D756E6963617447
:1006EE00696F6E2E0D0A00417474656D7074696EBB
:1006FE006720445350207265636F766572792E2E93
:10070E002E002020202A2A2A2A205761726E696E16
:10071E0067212120475053207369676E616C2070EA
:10072E00726573656E742062757420746865726587
:10073E0020697320616E20696E76616C6964206336
:10074E006C6F636B2073657474696E67206E6F20B7
:10075E0073796E632077696C6C20626520646F6EAE
:10076E006520756E74696C20612076616C696420F9
:10077E004750532074696D6520686173206265650A
:10078E006E207573656420746F20736574207468B1
:10079E0065207265616C74696D6520636C6F636B47
:1007AE002E20202000507265706172696E67207471
:1007BE006F20646F2035206D696E207363686564E9
:1007CE00756C65642053796E63207570206F66209A
:1007DE00636C6F636B732E2E2E0050726570617298
:1007EE00696E6720746F2053796E63207570206375
:1007FE006C6F636B732E2E2E005072657061726972
:10080E006E6720746F2053796E6320757020636C51
:10081E006F636B732E2E2E2E2E2E00477073206953
:10082E0073206265696E672064697361626C6564CA
:10083E002E20004E6F2073796E632077696C6C20CA
:10084E00626520646F6E6520617420746869732020
:10085E0074696D65202D20322E20202000005374E7
:10086E00617274696E6720445350207265736574AB
:10087E0020616E6420636C6F636B2073796E632EE0
:10088E002E2E202020005374617274696E672044EE
:10089E00535020636C6F636B2073796E632E2E2E14
:1008AE002020200052657365742032206861732009
:1008BE006F636375727265642E2E2E202020002EBB
:1008CE0020000D0A0D0A202020202020202A2A2A6E
:1008DE00204750532073796E632075702061626FCC
:1008EE00727465642120506F6F72207369676E6138
:1008FE006C2E202A2A2A2000202E2E2A00202E2E70
:10090E0078002E2E2000506F6F722073796E632048
:10091E00617474656D707421200046756C6C204492
:10092E005350207265736574200077697468207364
:10093E00796E6320757020636F6D706C65746520C1
:10094E002D2000203A2000202020200020636C6FF4
:10095E00636B206F66667365743A200075730020B2
:10096E002A2A20002A2A2A204572726F7220647465
:10097E0062546D70436C6F636B5374616D702E7542
:10098E00634461794F664D6F6E206973207A65728C
:10099E006F005374617274696E672075702E2053E8
:1009AE0063686564756C696E672044535020726588
:1009BE0073657420616E6420636C6F636B20737952
:1009CE006E632E004D697373696E67206D656D6F72
:1009DE00727920636172642E005374617274207593
:1009EE0070202D20446574656374696F6E73207A70
:1009FE0065726F65642E004E6F20477073207072A3
:100A0E006573656E742E2044535020526573657461
:100A1E0020616E6420636C6F636B2073796E63204C
:100A2E006973207374696C6C206E65656465642EE1
:100A3E00005B2424002C20002024245D005B4572E2
:100A4E00726F72204E6F2044535020636F6E74612C
:100A5E0063742E2E2E2E2E2E2E2E2E2E5D004E6FCB
:100A6E002044535020636F6E746163742061742050
:100A7E00004C6F737420636F6E74616374207769BA
:100A8E007468207468652044535020617420004DB2
:100A9E006F76696E6720746F20737461747573203E
:100AAE00322E004D6F76696E6720746F20737461FD
:100ABE0074757320332E004D6F76696E6720746FD8
:100ACE002073746174757320312E0044535020428C
:100ADE0061636B206F6E6C696E652E0055534220FC
:100AEE00494E202E2E2E0047707320496E7075745D
:100AFE002044697361626C6564004E657720436FB4
:100B0E006E6669672073656E74004F6C6420436F68
:100B1E006E6669672073656E74005573622044615A
:100B2E00746120556E7265736F6C76656400445304
:100B3E005020760053697465204E616D653A200031
:100B4E0046696C65204E616D653A20005365726989
:100B5E00616C204E756D6265723A200046696C6557
:100B6E0020466F726D61742056657273696F6E3AAE
:100B7E0020322E3020200046696C6520537461723D
:100B8E00743A200046696C6520456E643A20004137
:100B9E00545320536F6E69632052656365697665A1
:100BAE007220535233303031204669726D77617244
:100BBE0065207630362E36320D0A0010C4EA6136C4
:100BCE000341006400760061006E006300650064FE
:100BDE00002000540065006C0065006D0065007417
:100BEE0000720079002000530079007300740065D4
:100BFE00006D0073001E0353006F006E00690063EA
:100C0E0000200052006500630065006900760065F3
:080C1E000072000F800100705C
:10C1A6004C01610C0330003900300030003000C112
:10C1B60014C185C1074100060046015720302E30C4
:10C1C60030004100A3014101600041013A004101F4
:10C1D60039094100BA004100F804410088004100D5
:07C1E60087034200A10000E5
:1016C900F075F080EF90046F1215B57430F075F075
:1016D90080EF9004701215B57430F075F080EF90BA
:1016E90004711215B57430F075F080EF900473121F
:1016F90015B57430F075F080EF9004741215B57457
:1017090030F075F080EF90046A1215B5742DF075FC
:10171900F080EF90046B1215B57439F075F080EF15
:1017290090046C1215B57439F075F080EF90047A55
:101739001215B57430F075F080EF90047B1215B571
:101749007430F090047CEF75F0800215B5C4540F25
:101759002430FEEF75F0800215B5C4540F2430FE15
:10176900EF75F0800215B59004451215B57420F097
:1017790075F080EF9004461215B57443F075F0804A
:10178900EF9004471215B5746CF075F080EF900472
:10179900481215B5746FF075F080EF900449121571
:1017A900B57463F090044AEF75F0800215B5C4541E
:1017B9000F2430FEEF75F0800215B5540F2430FE6A
:1017C900EF75F0800215B5540F2430FEEF75F080E7
:1017D9000215B59004421215B57447F075F080EF03
:1017E9009004431215B57450F0EF75F080900444DD
:1017F9000215B5E0900427FEEF75F0800215B5E0FB
:10180900900426FEEF75F0800215B5E090042AFEDB
:10181900EF75F0800215B5E0900429FEEF75F080B0
:101829000215B5E090042FFEEF75F0800215B5F0B2
:1018390075F080EF9004601215B5742CF0EF9004E8
:101849006175F0800215B590043775F0800215B501
:10185900FE75F080EF0215B590000DE0FEEF75F012
:101869000EA4240DF582E43400F583EEF090000E09
:10187900E0FEEF75F00EA4240EF582E43400F58342
:10188900EEF090000FE0FEEF75F00EA4240FF58244
:10189900E43400F583EEF0900010E0FEEF75F00EF1
:1018A900A42410F582E43400F583EEF0900011E0F1
:1018B900FEEF75F00EA42411F582E43400F583EEF1
:1018C900F0900012E0FEEF75F00EA42412F582E408
:1018D9003400F583EEF0900013E0FEEF75F00EA4EE
:1018E9002413F582E43400F583EEF0900014E0FE51
:1018F900EF75F00EA42414F582E43400F583EEF0BC
:10190900900015E0FEEF75F00EA42415F582E4347D
:1019190000F583EEF0900016E0FEEF75F00EA424BA
:1019290016F582E43400F583EEF0900017E0FEEF3F
:1019390075F00EA42417F582E43400F583EEF090D7
:101949000018E0FEEF75F00EA42418F582E43400C7
:10195900F583EEF0900019E0FEEF75F00EA424195E
:10196900F582E43400F583EEF090001AE0FEEF759D
:10197900F00EA422FE75F080EF0215B5FE75F08019
:10198900EF0215B590040075F080EF0215B5EF75FB
:10199900F0809004390215B5F090047F75F080EF5E
:1019A9000215B5F090046975F080EF0215B5F09055
:1019B900044675F080EF0215B5F090044875F08083
:1019C900EF0215B53AF583E53AF0E53BC4F854F072
:1019D900C868F53BE53CC4540F48F53C540F243026
:1019E900F53AD39439748094802275F00A84E5F02D
:1019F9002430FF75F080E52F0215B5FE75F080EFF4
:101A09000215B5F0EF75F0809004590215B5F0EFA5
:101A190075F0809004790215B5F0EF75F0809004A7
:101A29007D0215B575F0809004430215B575F080F7
:101A390090046E0215B590040175F080EF0215B59A
:101A4900EF2430FF75F080E52F0215B575F0809011
:101A590004400215B575F0809004420215B535F0C1
:101A6900FA7B0175F00FE5301215B5E022FE75F02D
:101A790080EF0215B575F080EE0215B5F0900447B8
:101A890075F080EF0215B590080875F00FE5301272
:101A990015B5E02275F080EE0215B575F080EE02FD
:101AA90015B5F090044975F080EF0215B575F08011
:101AB900EE0215B5FE75F080EF0215B590080275B6
:101AC900F00FE5301215B5E02275F080EE0215B57C
:101AD900ED2430FF75F080E52F0215B575F080EE25
:101AE9000215B590044575F080EF0215B590080C04
:101AF90075F00FE5301215B5E02275F080EE02158C
:101B0900B575F080EE0215B590080975F00FE5304E
:101B19001215B5E022FE75F080EF1215B5EEF0ED65
:101B290075F00EA42275F080EE0215B5A3E0FF331F
:101B390095E0FEC3EF9430EE648094802274102BFC
:101B4900F58274043AF5832290080675F00FE530A2
:101B59001215B5E022E47B3CFAF9F8AF39AE38AD9D
:101B690037AC361213B67B18E4FAF9F80213B675D6
:101B7900F080EF0215B5E5309008031215B5E5823E
:101B89002534F582E43583F58322AE02AF03787BF1
:101B9900A60608A60718E6FA08E6FBFF7C007D0AF8
:101BA900AE020211A7E50875F00EA42410F582E42F
:101BB9003400F583E0223AF583E53AF022FFE5089F
:101BC90075F00EA4240EF582E43400F58322900109
:101BD9007112153B9001710214F775F080EE021530
:101BE900B57407253AF53A227BFF7A0079CA7D0256
:101BF90022F0E52F75F080A422E5392FFFE5383E64
:101C0900FEE5373DFDE5363C8F398E388D37227537
:101C1900F080EE0215B5F074062BF58274043AF5DE
:101C29008322F074052BF58274043AF58322E508C2
:101C390075F00EA42411F582E43400F583E0221234
:101C49000D1E90017312153B9001770214F775F080
:101C59000FE5301215B5E022E475F0010212327574
:101C6900F080EF0215B5E0D394007480948022755A
:101C7900F00EA4240DF582E43400F58322F07402F9
:101C89002BF58274043AF58322F074032BF58274E0
:101C9900043AF58322F074042BF58274043AF5832F
:101CA90022E53BC4F854F0C868F53BE53CC4540F41
:101CB90048F53C22900139E0D3940874809480223D
:101CC90074012BF58274043AF58322E4FFFEFD7C4E
:101CD9004690009C121513D302146CAF0F7E00EFCF
:101CE900C394247480948022E47B0AFAF9F81214CC
:101CF900F71213B6EB2430FF22C4540F2430FF220D
:101D0900241AF582E43400F583227D907C5F7F7587
:101D1900223AF5837420F022A3F0A37430F0A322B1
:101D290075F080E52F0215B52400F9740435F0FA31
:101D39007B017D807C0022D2B4C2877D407C067FF6
:101D49000122540F2430F53A740E2BF582740422C3
:101D5900540F2430F53A740D2BF582740422E4F5FE
:101D690055755611755711F559F55A2290017BE0B1
:101D790075F080A4229404748094802290016FE00D
:101D8900FEA3E0FFC3227427253AF53A2290017792
:101D990012153B9001730214F774BB2DF582E434DC
:101DA90000F583E0FC229000F8E0FF640122E50DD4
:101DB900F0A3E50EF0A3E50FF02290024EE0FF75C7
:101DC900F0100210C6AF09EF3395E0FE22ECC4F81B
:101DD90054F0C8EDC4540F4822E0F50DA3E0F50E08
:101DE900A3E0F50F22787BA60608A60722C394581C
:101DF9007480948022240FF582E43400F583E02274
:101E09002412F582E43400F583E022246FF9740486
:101E190035F0FA7B01227BFF7A00798E22940674D1
:101E290080948022E47879F608F62290011E7404E1
:101E3900F02212131090017102153B75F00FE53075
:0F1E49001215B5E0229000A1E4F0A37419F02265
:103EBC00C223C23A9000A37401F07F0712CBD853EF
:103ECC00D9BF75C990E4F5FF12000312BFB1128D72
:103EDC0095E4F5FEC200C204C202C204C202121E64
:103EEC001FFD1298EE1294087BFF7A00799D7D02DB
:103EFC001298EE53C77F7A00799F12420990008680
:103F0C00121C6F4021301B1E20151BE47F607E09A4
:103F1C00FDFC9002B1121513C312146C5008D2950B
:103F2C00900086E014F0300805301B02D295E4F5C1
:103F3C00FE129BBDE55B121DF6500C2015092040AE
:103F4C0006E50A64207005C22912247CE4F5FE20E3
:103F5C000903023FEEC215FF12B9D2AD08E4FF12FD
:103F6C009CA89004457466F0A3F0A3F0A3F0A3F012
:103F7C00A3F07B017A04793A9001827406F07F00F9
:103F8C007E007D007C0012C5CB30095FC2902008FA
:103F9C0002C295D2A4301F03127544E5C930E63D28
:103FAC00126E6DE4F5FE301DE0FF12B67330111E7B
:103FBC009004457420F090044BF0AD08E4FF129C83
:103FCC00A87B017A0479007D807C0012655AC21DA1
:103FDC00E50A541F70B3C227126AEF80AC12C007F7
:103FEC0080A7E4F5FE43870185878730170343EFED
:103FFC0010120003301F03127544E4F5FE300C4E12
:10400C00E50B704A9000B8121C62900007E004F0B7
:10401C007A0079BB124211121BF11298EE200E029B
:10402C00C222300413124200D22612CB0D301B08D0
:10403C00123B52C22B12CC6BE50C700B30000812E9
:10404C004200D22612CB0DC20CE4900087F0201D4A
:10405C0003024125300E04C21AD215E50A121608C5
:10406C0040AE0040AE1540AE3040AE4540884840B2
:10407C009C5340A15640A657000040C830423D1208
:10408C001DAF6019EF64026014EF6403702E800D95
:10409C003042298008301A248003301A1F122A85D6
:1040AC00801AD3E508121E264005E4F508800205A7
:1040BC0008201108204205C227126AEF9000A412B2
:1040CC001C6F4003E014F053AEFEE5C720E005E49E
:1040DC00FF124B72129704301527C222C21AE50A3E
:1040EC00540F700D127026E4F5FE7A0079D112424D
:1040FC0009D295201B19200116B2A4A2A49290807B
:10410C000E201B0B200108B2A4A2A4929592902021
:10411C000105E4FF12C943C21D201B06200E03300B
:10412C00424A301326201B0330010D300804D2956F
:10413C008004A2909295C2A430453120152E900097
:10414C0087E0C3940574809480802120420F301541
:10415C000C201B03300115C290D295800F201B063A
:10416C00300109200806A24292A49295304205C261
:10417C002912247C304203024000201B03023F0919
:10418C00121CD45003023F097BFF7A0079EF7D05A6
:10419C001298EEC22912247C1275449000A3E0C33D
:1041AC00942174809480502B121CD44026D2261259
:1041BC00CB0D9000A3E004F07A0079FF124211902D
:1041CC0000A3E0FFE4FCFDFE900252124219123BE8
:1041DC005280C87BFF7A017913E4FD1298EE9000AF
:1041EC009C1214F7900252740B124219C22B12CC6F
:0441FC006B023F090A
:10420000C22912247C127544227BFF7D051298EE90
:10421000227BFFE4FD1298EE22F01276D47D01128B
:0342200098EE22F3
:10CBD80090000BE0A3F090000AE0A3F0900009E0B9
:0ECBE800A3F0900008E0A3F0900008EFF02208
:10B67300E50E540F2430FE90042712174FEEF0E529
:10B683000E900426121756EEF0E50D540F2430FEEB
:10B6930090042A1217B0EEF0E50D90042912175604
:10B6A300EEF0E50F90042F1217C4EEF0E50F9004AF
:10B6B3002E121763EEF0E50C9004321217C4EEF06D
:10B6C300E50C900431121763EEF0E50B900435128C
:10B6D30017D0EEF0E50B9004341217B7EEF0E50A3D
:10B6E3009004381217D0EEF0E50A9004371217B71A
:03B6F300EEF02254
:10C24100ED14601114602C1460352403703C121934
:10C251008D745B801712198D745BF09004011219B3
:10C2610090745BF090047E1219A5745D1219A1748B
:10C271005DF02212198D74201219A17420F022127E
:0BC28100198D740A1219A1740DF0222F
:05B9D20090017BEFF085
:10B9D700A3F090017CE0FFC3121D7E505B7D031234
:10B9E700C24190017CE0900439121750742EF0E4A4
:10B9F700F53AF53B741F253BF5827401353AF5831B
:10BA0700E0FF90017CE090040112175DE582253B81
:10BA1700F582E583353AF583EFF0053BE53B7002A8
:10BA2700053A6419453A70CC90017CE0FF127C75A9
:0EBA370090017CE004F0809A90017BE0F51312
:01BA450022DE
:10C0B2009004241219B0742CF09004251219BB7448
:10C0C20020F09004281219C6742FF090042B121A33
:10C0D20042742FF0900430121A897420F0900433C5
:10C0E200121AAF743AF0900436121AEF743AF090C2
:10C0F200042C121B787432F090042D121B787430C9
:02C10200F02229
:027C7500AE0758
:107C770090041A121A7E742CF0E4F53CF53D74A6B4
:107C8700253DF5827400353CF583E0FF90041B1217
:107C97001A7EE582253DF582E583353CF583EFF0D5
:107CA700053DE53D7002053C6409453C70D0AF06D3
:107CB70012C0B2EE121A55742CF0900441121A9D9C
:107CC7007420F0EE121A5E7447F0EE121A2D743714
:107CD700F0EE1217F37432F090044B121A9D742CC5
:107CE700F090044C121AA47420F0900472121AA493
:107CF7007420F0900475121AB6742FF0900476125F
:107D07001AB67433F0900477121AD27431F09004D3
:107D170078121AD2742CF0EE121A197420F090040B
:107D27006D121AE5742CF0EE121A367420F0EE126A
:107D37001A24742CF090047E121AE57420F0900433
:107D47004D121B037420F0900451121B03742CF086
:107D5700900452121B0A7420F0900455121B0A74E7
:107D67002EF0900458121B2E742CF0EE121A0E747B
:107D770020F090045A121B2E7420F090045D121B01
:107D8700E3742EF0900460121BE3742CF0EE1218CB
:107D9700477420F0900466121C18742EF090046249
:107DA700121C187420F075F080EE9004681215B557
:087DB700742C1219AC7420F0C9
:017DBF0022A1
:10754400C234D235754C01850A4E850F4F850B4DDB
:10755400850D50850E51303575AF4C054CEF606E7E
:1075640012C8DF8F10AF0DEF6055D394317480943F
:1075740080504CAF0EEF6047941274809480503F5B
:10758400E50F121CE94038AF0CD3EF9423748094B8
:1075940080502CEF700CE50C65116006E511642336
:1075A400701DAF0B7E00D3EF945974809480500FFC
:1075B400EF7017E50B654D6011E54D6459600BD212
:1075C400357F0F7E0012002E808CC2358088E50C3A
:1075D4006511601A121E2DD234850C1120220F124F
:1075E4001E1FFD1298EE1294087D021276CAE50B56
:1075F400654D70030276A5D203D234900139E004BC
:10760400F0E50C64237008E50B64567002D242AFB7
:107614000BEF6459706DEF64597002D20C201A6339
:10762400D21A200A167D051276CA127544121E1F3C
:10763400E4FD1298EE12940812A838900157E06401
:1076440030701EA3E0B4351990015AE0B43112A38E
:10765400E0B4300D7BFF7A01791E7D051298EE802F
:10766400229000A4E0701C202219300A107BFF7ABB
:107674000179307D051298EE12A838C21A9000A440
:107684007478F0E50B540FF54D7016121CBD4011C3
:10769400304102E4F0202107C241E4900139F0D2E4
:1076A40021E50A654E6002D21DE54F650F6002D2E6
:1076B40034E550650D6002D234E551650E6002D2A6
:0576C40034C21FA234D6
:0B76C900227BFF7A00799D1298EE22D0
:0BCF38009000B2E50CF0A3121DB72220
:10CA24001275441294083022117BFF300D067A01EE
:10CA34007975800C7A01799B80067BFF7A0179B93C
:08CA44007D021298EE02A838F1
:10940800E50E121D0290024EF0BF30047F20800549
:1094180090024EE0FF12CAC1E50E1294EC7F2F12A3
:10942800CAC1E50D1294D8E50D1294EC7F2F12CA2B
:10943800C1E50F1294D8E50F1294F57F2012CAC126
:10944800E50C121D0290024EF0BF30047F2080050B
:1094580090024EE0FF12CAC1E50C1294F57F3A1251
:10946800CAC1E50B1294E2E50B1294FE7F3A12CAC8
:10947800C1E50A1294E2E50A1294FE7F2012CAC1DD
:109488007F2012CAC1900006E090024EF03395E0AA
:10949800C364809480501A7F2D12CAC1900006E0E0
:1094A800FF3395E0FE7CFF7DFF12119590024EEF91
:1094B800F0121DC32430FF12CAC1121DC3AFF0EF52
:1094C8002430FF12CAC17F7A12CAC1E4FF02CAC19E
:1094D800C4540F2430FF12CAC122C4540F2430FFD1
:1094E80012CAC122540F2430FF12CAC122540F24B9
:0F94F80030FF12CAC122540F2430FF12CAC12202
:10A838007BFF7A0179CFE4FD1298EEE50875F00EFA
:10A84800A4121DFEFF12CAC1121BAEFF12CAC17F9D
:10A858002E12CAC1121C37FF12CAC1E50875F00EC4
:10A86800A4121E09FF12CAC17A0179E412A8E77876
:10A8780079E6FE08E6FFE4FCFD9002527407F01248
:10A8880076D47D011298EE7A02790112A8E7900237
:10A89800B11214F7900252740CF01276D47D0112A2
:10A8A80098EE301934D3787AE6940018E69400408C
:10A8B800289000BAE004F07BFF7A02791A7D011231
:10A8C80098EE9000BAE0D3121E26400D7BFF7A0264
:0FA8D80079277D011298EED208121BF10298EE3B
:08A8E7007BFF7D011298EE22B7
:10BFB10075F1BF75F2FF75F3FF75F47E75F5FF75C9
:10BFC100A41D75A5E775A61975A77A75AE8075D4F8
:10BFD100C875D5FF75D61975DFFF75E10775E240A4
:10BFE10075E301C23BD2A075C70312CB327BFF7A46
:10BFF100027939E4FD1298EE7BFF7A0279647D02C1
:06C001001298EED2B422F9
:054B720090016EEFF060
:104B7700C225D296D22212CF20752A05D2247A02D4
:104B8700798C124E06201B097A0279C4124E0680D0
:104B970006D290D295D2A47A0279E7124E1CA209C6
:104BA7009226C20912CF76D290C2A4200802C295DB
:104BB700E52A6033D2229000BB7424F07F071230BD
:104BC70089124E4A121CE4400AD3EF94447480942D
:104BD7008040DD7A03791D124E1C9000BB7424F0CF
:104BE700D222124E5680C9121CE4400AD3EF9444D5
:104BF7007480948040147A03792F124E24D290D275
:104C070095D2A4D20DD225124E56D245A22692098C
:104C170012CCF0300D14D222E4FF1230897A0379D6
:104C270063124E24D225D20D80107A0379AD124E2D
:104C37003A300906124DB5124DB5D24530452630EA
:104C47000D23300D127F01123089300906124DD025
:104C5700124DD0D24280E57F071230897A04793627
:104C6700124E3A80D712CF20C22912247CD290D27A
:104C7700A4200802C295300D0E300906124DEB1222
:104C87004DEB7F031230892091047F0680027F0558
:104C970012CF0790016EE060107F0512CF07C29612
:104CA700C2227A04797E124E427A04799B124E42CE
:104CB700D290D2A4D29512CD09D227126AEF12A8A8
:104CC70038A20D9290C2A4200802C295121BAEFF13
:104CD700C394335004C224800BEFB43307C3943218
:104CE7005002C22420094DD2A4D29543F31090015B
:104CF7006F7401F0A3742CF0E5C730E03790016FB3
:104D070074FFF5F0121248FED3E5F09400EE94001C
:104D1700402230240C201E09200802C295B2A4802C
:104D270007C2A4200802B295752A02E52A60C912B3
:104D37004E4A80F7C290C2A4200802C29530094C9F
:104D47007A0479B9124E6212CD0912CF207BFF3057
:104D57002515124E0E124E0E7A0479E0124E6A7B1A
:104D6700FF7A0479E08013124E2C124E2C7A0579C3
:104D770001124E6A7BFF7A0579017D207C0012655E
:104D87005AC290D2A4200823C295801F9002B11264
:104D9700156000000000121E2D7A057922124E625E
:0D4DA7007BFF7A0579357D051298EED21755
:104DB400227BFF7A0379F47D207C0012655A7BFF05
:104DC4007A0379F47D207C0012655A227BFF7A04F1
:104DD40079157D207C0012655A7BFF7A0479157D54
:104DE400207C0012655A227BFF7A04795D7D207C49
:104DF4000012655A7BFF7A04795D7D207C00126580
:104E04005A227BFF7D051298EE227A0479E07D20F8
:104E14007C0012655A7BFF227BFF7D051298EE22EF
:104E24007BFF7D051298EE227A0579017D207C00B6
:104E340012655A7BFF227BFF7D051298EE227BFFD1
:104E44007D051298EE22152A7DE47CA27F1912C8F2
:104E5400AD227F09123089127544129408227BFF17
:0E4E64007D051298EE227D207C0012655A22F8
:106AEF00E4F52BF52C90011EE014F0301B07D2A417
:106AFF00300D02D2909000A1E0FEA3E0FFD39405E9
:106B0F00EE9400400C9000A174FFF5F01212328049
:106B1F000CEF64054E700620150343EF1020150689
:106B2F00201B03302702D22812A39275F43E20B205
:106B3F002A900156E0FF14F0C3EF94017480948003
:106B4F0050199000B6121C61D2B112C9749001563F
:106B5F007404F0121D4412C8ADC2B1C2B330220387
:106B6F0012BEFFE4F508C283301B07200804A21EE3
:106B7F009295126C9FD283301B1F200802C2951270
:106B8F006CA9200804A21E9295126C9F200802C2C5
:106B9F0095126CA9200802C295C21E7DE47CA27FCB
:106BAF000F12C8AD128050C229128EAF20150312DA
:106BBF00CEB01292FA301B07200804A21E92957FC6
:106BCF0001EFC3121CC2500C121861121D09EEF016
:106BDF000F026BD0201305301B02C29575080720DA
:106BEF001502D2B3201509201B06202703026C8043
:106BFF00303C03202868304104C221803E30213BC5
:106C0F00204138121CBD40337BFF7A05796AE4FDC1
:106C1F001298EE1294087BFF7A0579837D02129801
:106C2F00EEE4FF128FC712CF389000B2E0FF12CE02
:106C3F005B8F12D206D212D228C22190011EE0FF22
:106C4F007E00C39401748094804010302702800B23
:106C5F00D3EF9404EE648094804003121E342028F6
:106C6F0009301503304103302707A2279229122438
:106C7F007C30150D12CF20C229128C7AC22B12CC68
:106C8F006BC28CE4F5FE301B04C2A4C29002004616
:106C9F007DE47CA27F0F12C8AD227DE47CA27F0A27
:046CAF0012C8AD2238
:10C5CB0090017B1215F3802F900182121C6F402F6C
:10C5DB00E014F090017E121CF190017B1215D390A8
:10C5EB000182E0F582758300EF12117390017E12C8
:10C5FB0014F77B0A121B7190017E12153B80C92226
:10691E00D226127544E490016DF09000EFF0F5551B
:10692E00F556F55790016FF0A3F0121D859434EED5
:10693E009400501474BB2FF58274003EF583E4F07E
:10694E0090016F121C6280E29000FB742FF0900099
:10695E00FEF09001037420F0900106743AF090015D
:10696E0009F01299DF900157121B364012121B3597
:10697E00400D90015A121B364005121B355047C26E
:10698E000F7BFF7A0579868029200F2D121D40126C
:10699E00C8ADD287C2B4E4F5FED2B4C22B12CC6B12
:1069AE00126ADC126ADC121D1312C8AD7BFF7A0567
:1069BE0079BB7D051298EE80D07BFF7A0579E47D58
:1069CE00051298EE8002D20FE490016FF0A3F01240
:1069DE001D859405EE9400502A74802FF582740064
:1069EE003EF583E0FF3395E0FED3EF9439EE6480FD
:1069FE0094805005121B3C5002C22690016F121C4F
:106A0E006180CC9000A9E0642C6002C2262026563C
:106A1E009000807430F07439121D21F0A3F0E490D0
:106A2E0000A5F090015EF0900006F090013CF09011
:106A3E0001577420F0A37430F0742E121D2104F04F
:106A4E009000A67448F0A37432F0A3744FF0A374B0
:106A5E002CF0A37446F0A37452F0A3742C121D22D2
:106A6E00F012A10B801CC210C20AC22090013CE0A1
:106A7E00FF30E402D210EF30E502D20AEF30E60228
:106A8E00D220129D8E90011F7453F0A314F090002B
:106A9E0080E0900121F0900081E0900122F09000C2
:106AAE0082E0900123F0900083E0900124F09000AA
:106ABE0084E0900125F0A3745FF0121E3412CF38DB
:0D6ACE00D227126AEF12CF97129D8EC239A7
:106ADB00227D907C5F7F7512C8AD7D907C5F7F754A
:046AEB0012C8AD22FE
:109BBD00E490016EF0309303029C7E301B03029CF7
:109BCD00919000A4E06003029C91C20CF5FE200868
:109BDD0002C295C2A4C2907A0579EF129CA012A878
:109BED00387A06791D129CA09000A0E0605B12757A
:109BFD00447BFF7A067927E4FD1298EE1294081241
:109C0D001BF11298EE123B52127544C22B12CC6B03
:109C1D00129C927FFA12C8AD129C927FFA8016D3D5
:109C2D00E55B121C714013C22912247C1275447D10
:109C3D00907C5F7F6412C8AD80E5C22912247C2020
:109C4D000E13D242122A85800C121D1312C8AD12AA
:109C5D001D1312C8ADD2429000A0E07003123B520A
:109C6D00C22B12CC6B9000F8E0640A7017740BF0E5
:109C7D0022301B107BFF7A0679387D051298EED2C3
:049C8D002612CB0DC3
:109C9100227D907C5F7FFA12C8AD7D907C5F227B34
:079CA100FF7D051298EE2281
:10C94300E5C930E614200E0ED20EC222EF3395E075
:10C953004F701D12AE60026E6D300E05C20E12C90D
:10C96300A3E4F5A9F5B9C215301B05200802C29549
:01C9730022A1
:0459E100AB07AA0660
:1059E500E555121D02121CC9EFF0E555540F243080
:1059F500FF121C87EFF0E556121D02121C93EFF003
:105A0500E556540F2430FF121C9FEFF0E557121D89
:105A150002121C2CEFF0E557540F2430FF121C2006
:105A2500EFF030051F121CC97430121C8674301239
:105A35001C927430121C9E7430121C2B7453121C51
:105A45001F744CF020225690007DE0F53BA3E0F555
:105A55003CE53C1219E54003121D8F74042BF582B9
:105A650074041219CD4003121D8F74032BF5827433
:105A7500041219CD4003121D8F74022BF582740494
:105A85001219CD4003121D8F74012BF58274041277
:105A95001BBF121C2C7447121C1F7444F030071FC7
:105AA500121CC9744C121C86744F121C9274571226
:105AB5001C9E7442121C2B7441121C1F7454F074EA
:105AC500072BF5827404121D1A9000B6E0F53BA36E
:105AD500E01219E34003121BEA740B2BF5827404E0
:105AE5001219CD4003121BEA740A2BF582740412B5
:105AF50019CD4003121BEA74092BF582740412199F
:105B0500CD4003121BEA74082BF5827404121BBFE7
:105B1500740C2BF5827404121D1A202216753B0095
:105B250085103CE53C121D4B121BBF121CAA121D11
:105B3500598010900160E0FFC4121D59121BBFEF80
:105B4500121D4B121BBF740F2BF5827404121D1A04
:105B55002D601024F0601424707018121B467430E8
:105B6500F08016121B467479F0800E121B46746382
:105B7500F08006121B467478F0121DCEEF640F4EAE
:105B85007008121B467446F08026EF640A4E7008B2
:105B9500121B467441F08018121DCED3EF9400EE0F
:105BA50064809480400AE5092430FF121B46EFF01B
:105BB500787DE6FC08E6FDEC1219E54003121BEAC8
:105BC50074112BF5827404121BBF121DD61219E530
:105BD5004003121BEA74122BF5827404121BBF7862
:105BE5007EE61219E54003121BEA74132BF5827445
:105BF50004121BBF74142BF5827404121D1A7870DD
:105C0500E6FC08E6FDEC1219E54003121BEA7415E3
:105C15002BF5827404121BBF121DD61219E5400321
:105C2500121BEA74162BF5827404121BBF121CAAF0
:105C35007871E61219E54003121BEA74172BF582F9
:105C45007404121BBF74182BF5827404121D1A906C
:105C55000088E01219E54003121BEA74192BF5823E
:055C65007404121BBFD6
:015C6A002217
:0BC8AD00900171EFF0A3ECF0A3EDF0A0
:10C8B800E4A3F0900171E0FF900174E0C39F50166B
:10C8C800E4F5FE900172E0FEA3E0FF12002E900155
:06C8D80074E004F080DDB5
:01C8DE002237
:10C00700C211C209C215C2A4200802C295E4900059
:10C01700A1F0A3F0C22912247C7A06795912C055DF
:10C027007D02E4FF12C241304210D22612CB0D7AB4
:10C0370006797B12C05543EF1022201B107BFF7A35
:10C047000679C67D051298EEC22B12CC6B227BFFB8
:06C057007D051298EE22A7
:108EAF00302922E5087005752E078005E50814F5B1
:108EBF002EE52E121BC9E0121BC6EFF0E52E121C79
:108ECF0078E0028FBED22A12A2BD8E2F8F30C22A17
:108EDF0012A2BD8E318F3212C60B8E338F34AC2F50
:108EEF00AD30EC120E2990017312153BAC31AD323F
:108EFF00EC120E29121D967BD57AFF797F783912E5
:108F0F001C487BD57AFF797F7839120D1E121D967A
:108F1F00A804A905AA06AB07121C48A804A905AA0C
:108F2F0006AB07120D1E900177121C4E90017312A3
:108F3F001513120C2D12ABBF12C6857BE67A2E7954
:108F4F00657842120D1EE4FBFAF9783F120C2D12D0
:108F5F000E62900171EEF0A3EFF0900172E0F52D2B
:108F6F00E534F47003E533F46006E53445337014EB
:108F7F00E534B4FF0AE533B4FF05752D6380097539
:108F8F002D628004A21E921EE52DF47003752D5ADA
:108F9F00E52D75F00A84E5F02430121BC6EFF0E5DD
:108FAF002D75F00A84F52D75F00A84E5F02430FF55
:078FBF00E508121C78EFF039
:018FC6002288
:10AE6000900161740CF0A37403F0E4900164F0901D
:10AE70000166F0900168F090016AF0900080E09027
:10AE80000163F0900081E0900165F0900082E09015
:10AE90000167F0900083E0900169F0900084E090F9
:10AEA000016BF0E4A3F012C369900BC9E493FE7444
:10AEB0000193FF900BCBE493FC740193FD7BFF7A2D
:10AEC0000C79039001751215F37B017A0179619079
:10AED00001781215F3900C21E49390017BF0900C13
:10AEE00022E49390017CF0900C23E493FB74019393
:10AEF00090017DCBF0A3EBF07BFF7A0B79CD12862E
:04AF00009002CCF0FF
:0882D70090017BEFF0A3EDF034
:1082DF00E4A3F0A3F090017D121D889406EE9400A4
:1082EF00501F90017BE090043A12176AE5822FF538
:1082FF0082E5833EF5837420F090017D121C61802E
:10830F00D490017BE0FF9004391217B17420F090E4
:10831F00017CE0FD7C0064016008ED6403600302F2
:10832F0083B6ED64034C7063121997742EF09001AD
:10833F007DE4F0A37406F09000F0121CF190017D23
:10834F00E0FCA3E0FD90017BE09004391217BEE53D
:10835F00822DF582E5833CF583EFF09000F0121447
:10836F00F7E47B0A121B729000F012153B90017D0F
:10837F0074FFF5F012123290017DE07002A3E070ED
:10838F00B69000F01215600000000090017BE0FF36
:10839F009004421217CA744FF0EF121A2D746C1218
:1083AF0017F17464F0804B90017CE0FF7E00640253
:1083BF00702490017BE0FD9004421217D6744EF0AA
:1083CF0075F080ED121A307465F075F080ED1217AC
:1083DF00F67477F0801CEF64044E600890017CE027
:1083EF006405700E90017BE0FF75F0801217DC744E
:1083FF0053F090017BE0FF75F080121770746B12D1
:05840F0016C97430F0F5
:018414002245
:10C3B000E4FEEEC3121E26501290043A121C68E5E9
:10C3C000822E121B8B7420F00E80E71219977420B6
:10C3D000F0121AEC74661219B77466121A85746634
:10C3E0001219C27466121AAB74661217AC74661214
:05C3F00016C97430F0D5
:01C3F5002225
:027F0A00A905C7
:107F0C00C22B75F080EF1217DC7453F0E4FEEEC355
:107F1C00941974809480500F121A3FE5822E121B14
:107F2C008B7420F00E80E77D0FE4FEEEC394187482
:107F3C008094805034121DA2642C600D121A3FE5FF
:107F4C00822E121B8BECF0801CEDFB64196005EB90
:107F5C00642770110D121DA2121A3FE5822E121BFE
:107F6C008BECF0D22B0D0E80C2E96404700B75F013
:107F7C0080EF121770746BF022121AEC7420121925
:107F8C00B77446121A8574691219C27478121AAB36
:107F9C0074201217AC7420F09000C3E090043212DD
:107FAC001800EEF09000C2E090043112180CEEF0C4
:107FBC009000C5E0900435121818EEF09000C4E063
:107FCC00900434121824EEF09000C7E0900438129C
:107FDC001830EEF09000C6E0FEEF121850EEF030C4
:107FEC002B2D9000E81217FCEEF09000E712180809
:107FFC00EEF09000E6121814EEF09000E512182046
:10800C00EEF09000EA12182CEEF09000E9802B9024
:10801C0000E61217FCEEF09000E5121808EEF09056
:10802C0000E4121814EEF09000E3121820EEF09019
:10803C0000E812182CEEF09000E7E090042E1218D5
:03804C0059EEF0FA
:01804F00220E
:109CA800ED121BC9E0900450121859121B26121C01
:109CB8007CE090044F12197DEEF090044E121C685F
:109CC8007420121B272416F582E43400F583E090F3
:109CD800045F12197D121B262415F582E43400F561
:109CE80083E090045E121985121B262414F582E481
:109CF8003400F583E090045C121985121B262413A6
:109D0800F582E43400F583E090045B121A04121B18
:109D180026121E09900457121A04121B26121C3D03
:109D2800900456121A76121B26121BB49004541271
:109D38001A76121B26121DFE900453121ABD121B0E
:109D480026121D09E0900467121ABD121B26241959
:109D5800F582E43400F583E0900465121B1E241894
:109D6800F582E43400F583E0900464121B1E241786
:109D7800F582E43400F583E0FE75F080EF9004632B
:069D88001215B5EEF022F9
:102A8500D224D225C2901275449000F8E0FF900040
:102A950088F06401600AEF64026005EF6403700961
:102AA5007A0679F5123079D242301A0D200A0AC217
:102AB5001AE49000A4F0C24222301A0920420620EE
:102AC50022033001069000A4E06003C21A223022DE
:102AD5001A90013AE0D3940374809480400D20420B
:102AE5000A7A077910123079022B7D301A122001EB
:102AF5000F7BFF7A0779B37D051298EEC21A802CF9
:102B050030421E900087E0D3121D7E40062001034F
:102B1500C24222900087E004F07BFF7A0779E880C3
:102B2500067BFF7A0879077D051298EE9000A4745C
:102B350078F0309648302245301B02D29012B7F219
:102B4500EF3395E0C3648094805037C2257A0879C5
:102B550029122FFDC222900007E0C3947674809459
:102B650080501F20011C1275447A087941122FFDEF
:102B7500129408123029C242C21AD205227F0512C8
:102B8500CF07304218E50A6453600AC22912247C33
:102B950012754480F07BFF7A08796C800F9000F8FD
:102BA500740AF01275447BFF7A087994E4FD129853
:102BB500EE12CD6A53A8FE201B03300106D295B252
:102BC500A4C290121BAEFF9000F8F0121C37FE90C5
:102BD50000F8F064026003022C9BEFC39433748009
:102BE5009480500BEE9438748094805002D2074341
:102BF500F14043A440C286122FF3122FF353A4BF12
:102C050053F1BFE4F52AC3E52A94147480948050E7
:102C150014301B02B2A4123005301B02B2A41230CC
:102C250005052A80E19000887402F0E4FF128FC741
:102C3500E4FF128FC7E4FF128FC712CF20C22912FB
:102C4500247C201B03300107200802C295B2A41280
:102C55003051301B02B2A4123051301B02B2A47B9A
:102C6500FF7A0879B27D021298EE3007099000F8D4
:102C75007408F0D24222D22612CB0D43EF10C22B9C
:102C850012CC6B12691E9000F87408F0D2427D4692
:102C95007C00E4022F6E129408122FC730422512D1
:102CA500CF20201B03300102B2A4121D4012C8AD73
:102CB500D2871275441230177A0879CD12300F1267
:102CC5003035D21C301B04D295B2A4E4F52AAF0AE4
:102CD500EF7003022E1D302222300D1F30961C642A
:102CE500586018301B02C29020A5FD123063122FC8
:102CF50092201B03300118D2908014201B03300151
:102D050002C290E50A64586003123063122F92E5FF
:102D15002A5401700D300D0343C780301B0FD2A418
:102D2500800B300D0353C77F301B02C2A4E50A6434
:102D350058709BC22912247C12CF2030964630222F
:102D450043300D40D290D2A4200802C295C205306E
:102D5500A5FD127544E50A121DF6500B7A0879D0C7
:102D650012300FD205801D122FC7122F73121D6747
:102D750020A5FD123017C2B47A0979061230212038
:102D8500A51880FBC20DC2902094FDC2B47A0979C2
:102D95000B123021121D673094FDD2B47A097910D7
:102DA500123049D239D20BB2A4D295127544E50A34
:102DB50064586087122F73E50A645970167D907CFC
:102DC5005F7F0A12C8AD1275441230357A00799DBD
:102DD500123049AF0AEF6401600FEF6402600AEF39
:102DE50064036005EF6404700AC22B12CC6B75098D
:102DF5000F8025AF0A7E00D3EF121D7E5003022CF3
:102E0500D3EF121DF74003022CD3C22B12CC6B7AE1
:102E150009791412305BD205E4F5FE201B0330015D
:102E250004D295D2A47D907C5F7F0E12C8ADE4F5E7
:102E350009127544C22912247C303929AF0C12CEEF
:102E45005B7E007C007DF01211957872A60608A6BF
:102E550007AF0B12CE5BEF75F004A4AEF0787326C6
:102E6500F618EE36F630423E12302920050B7BFF70
:102E75007A097928E4FD1298EE3039277A097938EC
:102E8500122FD37872E6FE08E6FF7870A60608A62C
:102E9500077A097951122FD37A09795512305BC215
:102EA5000BC239E4F514129408200502C242C21A75
:102EB500E490013AF0302247D2909000B8F0A3F0A8
:102EC500E55A455960237A09795A123081AE59AFCE
:102ED5005AE4FCFD9002527406F01276D47D01127C
:102EE50098EE7A09796A123081D245E50A64017053
:102EF5000E7BFF7A09796D7D011298EE75090E90AA
:102F050000F8E0FF6405600DEF64036008EF6401FD
:102F15006003740AF012306D300104C2018003129F
:102F2500CF7EC22B12CC6B752A01122FB4303C1701
:102F3500AF2A052AD3EF121C71400CC22912247C3A
:102F4500122FB4B2A480E612CF38200802C295C26F
:102F5500A4C29012306D7F0512CF07C290E4900095
:0D2F650007F09000A4F07D46FCFF12CE1294
:102F720022AF0AE4FCFDFE90025204F01276D47DE8
:102F8200011298EE7BFF7A00799D7D011298EE2264
:102F92001275447BFF7A00799D7D011298EEAF0A8B
:102FA200E4FCFDFE90025204F01276D47D011298E8
:102FB200EE227D907C5F7F0E12C8AD7D907C5F7F9C
:102FC2000E12C8AD227BFF7A00799D7D011298EE28
:102FD200227BFF7D011298EE7870E6FE08E6FFE4A0
:102FE200FCFD9002527406F01276D47D011298EE26
:102FF200227D907C5F7F7512C8AD227BFF7D01121E
:1030020098EE227D907C5F7F7512C8AD227BFF7D9A
:10301200011298EE227D907C5F7F0E12C8AD227B5A
:10302200FF7D011298EE227BFF7A08796B7D0212F6
:1030320098EE22AF0AE4FCFDFE90025204F01276F2
:10304200D47D011298EE227BFF7D011298EE227D43
:10305200907C5F7F7512C8AD227BFF7D011298EED6
:10306200227D907C5F7F0F12C8AD227BFF7A0879A8
:103072006B7D021298EE227BFF7D051298EE227B79
:07308200FF7D011298EE2210
:10CB7800C22912247C30490812CF207F071230893D
:10CB8800C22912247C9000A4E07005C22B12CC6B41
:01CB9800227A
:10247C00E4F5FEE55B7003022A6A9000F8E0FF6465
:10248C0004600AEF64036005EF64017006304203D8
:10249C0002CD09301B03309309200E0620290302BC
:1024AC002A6312CF209000B2E0900177F09000B335
:1024BC00E0900178F09000B4E0900179F09000B5D4
:1024CC00E090017AF0300607C2167533F08019904F
:1024DC00080EE0F533D216900177E0700B12C8DFCE
:1024EC008F10900178121DB7900178E0700B7BFF74
:1024FC007A0979727D051298EE900177E0F50CA3BC
:10250C00121DE285132F301B0920930612CD3B12AE
:10251C00CF8BE4F530E530C3955B4003022A4EAF18
:10252C001312B9D2C3E52F121D7E4003022A0BE40D
:10253C00F5FEC206900800121A93C4F854F0C8684D
:10254C00797DF7A3E0C4540F4809F7900801121ADB
:10255C00C8FF640E6005EF640F7004D206D21690AB
:10256C00080D121AF9540FF531C22A30060302284D
:10257C0022E4F534753503753503C3E535940974D8
:10258C008094805042E535540175F00F700C121B8D
:10259C007FE0540FF53205348009121B7FE0C454E0
:1025AC000FF53274302532F5321219EB40067407F0
:1025BC002532F532E52F121A5EE5822535121B8B7A
:1025CC00E532F0053580B3121AC5C413135403F564
:1025DC003414600F146011146013240370127535D9
:1025EC00EE800D7535EF80087535F080037535F18B
:1025FC00121BFB121E14AF35E4FCFDFE900182741D
:10260C0003F012C5CB121AC5543FF5329004741264
:10261C0019F3EFF0E53275F00A84F5329004731279
:10262C0019F3EF121BFA246AF97404900808121AB1
:10263C0067122A6B121BFB247AF9740490080C1293
:10264C001A67122A6B121AF6D39464748094804021
:10265C000BC219E49000BAF0C2088002D219121B06
:10266C0011FFE4FCFDFEFBFA7901F812132B121B8F
:10267C00D7C006C00790080A121B147B00FAE4F9B5
:10268C00F8D007D006121E3B90017112151390085A
:10269C000B121B54FFE4FCFDFE121E3B301C0EC241
:1026AC0016753380122A7A9000B3121DE2121DCED9
:1026BC00EF640E4E7005751401800EEF64014E70C0
:1026CC00057514FF8003E4F514121B51FEA3E0FF03
:1026DC0090007DEEF0A3EFF07870E6FC08E6FDEFDD
:1026EC002DFFEE3CFEE48F398E38F537F536AD37DD
:1026FC00AC367B0FFAF9F812132B121C118C36AF77
:10270C0014EF3395E0FEFDFC121C02F5367B407A8B
:10271C0042790F7800121BDD1213B6121C02F5362B
:10272C00E47B3CFAF9F8AC361213B6AF038F2D12DA
:10273C0000168F0AAF39AE38AD37AC36E47B3C129D
:10274C001B72121C118C36E47B3C121B72AF038F74
:10275C00351200168F0B121B5EAF038F2EE4F5FEA5
:10276C0090080E121C57B5330BE530700CD21612B4
:10277C002A7A8005753380C216AF2EEF3395E04F61
:10278C007036D3E52E6480F8E51264809840299069
:10279C000175E50AF0900177E50CF0900176E50BF8
:1027AC00F012C8DF8F10900175E0F50A900177E008
:1027BC00F50C900176E0F50B852E12AF2E1200165B
:1027CC008F0C121BFB243AF9740435F0FA7B01C010
:1027DC0003C002C0017B407A42790F7800121BDDE6
:1027EC001213B6AC00AD01AE02AF039001827406B9
:1027FC00F0D001D002D00312C5CB121BDDE47B104C
:10280C007A27F9F81213B6121BD7E4FDFC121BD76A
:10281C00121DEE02287E121B51F535F50A900800A8
:10282C00121C57F50B121AC5F50C121B11F50D9055
:10283C00080A121E44F50E121AF6F50FAF0A12CE44
:10284C005B8F2D900801121E44640E700DAF2F1279
:10285C00C3B09000B2E0F50C8009121A90FDAF2FB6
:10286C001282D7C2167533F09000B2E0FF12CE5B25
:10287C008F12E4F5FEC21CAF2F12B673AD31AF2F21
:10288C00129CA8300603022923121B5E121B939084
:10289C000432121AD9EFF0AF03121BA590043112B7
:1028AC001A49EFF0E47B3CFAF9F8AF39AE38AD37A2
:1028BC00AC361213B6121B93900435121AD9EFF0E2
:1028CC007C007D0AAF03AE021211A7900434121AD9
:1028DC0049EFF0121BDD787BEEF608EFF67C007DFD
:1028EC00641211A7121DEEE52D75F00A1210C6AF79
:1028FC00F0EF2430FF900438121D29EFF0E52D7510
:10290C00F00A1210C62430FFE52F121850EFF0E534
:10291C002F121998742EF0121BDD121DEE90042547
:10292C00121D297420F0E4F5FE300E0330090A3034
:10293C002966E55B146530705FE4FDAF2F12C24170
:10294C00E4F5FE202A1BE530700A121BFBFFAEF0EB
:10295C007DE08008121BFBFFAEF0AD331259E18015
:10296C0016121A90FF64046005EF64057009121AC0
:10297C0090FDAF2F127F0AAF2F127C7575F080E59A
:10298C002F12199B742E121BFA121D3112655A7DCF
:10299C0003AF2F12C241C229302011A206922BAFD5
:1029AC002F127391E52F121A55742CF0301B3A200C
:1029BC009337E4F5FE202A1BE530700A121BFBFF4F
:1029CC00AEF07DE08008121BFBFFAEF0AD33125968
:1029DC00E18016121A90FF64046005EF640570091B
:1029EC00121A90FDAF2F127F0A852F13052F053079
:1029FC00E530655B6003022530752F04022530300D
:102A0C001B3A209337E4F5FEAF130513C3EF940381
:102A1C0074809480400E7D017F007E0212BC00E425
:102A2C00F5138018E5132401FFE433FEEF7807C398
:102A3C0033CE33CED8F9FFE4FD12BC00E4F52F02FF
:102A4C00252120060312CF38301B0C20930912CD00
:0E2A5C003B12CF8B12A6BDC22B12CC6BC23C1C
:102A6A0022FFE4FCFDFE9001827403F012C5CB2222
:0B2A7A009000B2E0FF12CE5B8F122232
:108D9500D295D2A4D290D219C208E49000BAF0D2EA
:108DA50096121D1312C8AD121D1312C8ADE4900022
:108DB500A4F012C8DF8F10850C1112CF2012CD0937
:108DC50012CDC3C21BC209C218E4F5FE7F0512CF3E
:108DD5000712C734E490013AF0C2A3D283D2B5C2D8
:108DE5000EF5FE12CF7EC2A3D283D2B5D2A4C21590
:108DF500E4900007F0F5FED2AFD242C2177F04120D
:108E0500B4DE7F0212B4DE7A0979A0128EA7309300
:108E1500097A0979D2128EA7D2427F0112CBD89056
:108E250000F87404F0E4F5089000A1F0A3F01269CD
:108E35001E12CD6A7F01EFC3121CC2500C121861BD
:108E4500121D09EEF00F028E3B7508079002B11254
:108E5500156000000000121E2D7BFF7A0979E77D61
:108E6500051298EED201E49000EFF090011DF0900C
:108E7500015F7463F0E490016DF090013DF09000A6
:108E85007FF090013BF0D2A0C290C2907F0112C941
:108E9500437BFF7A0A79057D051298EEC20EE4F54B
:018EA50014B8
:098EA600227BFF7D051298EE22EB
:0D00460075F1F875F3EF43E28075F5FF22C8
:0573910090017BEFF00C
:107396007BFF7A0A793F7D011298EEE4900085F032
:1073A6007B017A0079807D011298EE127519FF90A3
:1073B6000440121802E4F0EF75F080A42426F97454
:1073C600041274FB90044012180E7420F012751902
:1073D600FF90044512181AE090017C1219B7E0904C
:1073E600017DF090017BE0900447121826E09001A1
:1073F6007E1219C2E090017F12753490017C742CC4
:10740600F090017BE0FF900449121832E090017D74
:107416001217ACE090017EF0A3742C127534900123
:107426007BE0FF90045212184AE41219ACE4121AD7
:107436000CE4121838E4F075F080EF202B17121ABE
:1074460039E4121A17E4121A22742CF075F080EF40
:1074560090047E800390045F1215B5E4F0EF75F09A
:1074660080A4244DF974041274FB75F080A4246280
:10747600F9740412750A75F080A42453F974041281
:10748600750A75F080A4245AF97404127529202B04
:1074960028121D75246AF97404127529121D7512B5
:1074A6001E147D011298EE121D75247AF9740435A6
:1074B600F0FA7B017D011298EE90017BE0FF9004CB
:1074C6005212185374201219AC7420121A0C74201C
:1074D6001218387420F0202B11EF121A367420126D
:1074E6001A177420121A22742CF07BFF7A0A794636
:0574F6007D020298EE8A
:1074FB0035F0FA7B017D011298EE90017BE022358D
:10750B00F0FA7B017D011298EE90017BE0227BFF6C
:10751B007A0A79437D011298EE90017BE02235F0D7
:10752B00FA7B017D011298EE22F0E4A3F07B017A45
:09753B0001797C7D011298EE2219
:10970400E4FF12CE3740030297E2303D030297A8EC
:109714009000A4E060030297A8301509FC1297E3B7
:109724007C001297E320421E121DAF600AEF640210
:109734006005EF6403700FD242C22B12CC6B7BFF27
:109744007A0A796C800BC22B12CC6B7BFF7A0A7974
:109754007FE4FD1298EE129408121BF11298EE2089
:10976400426B9000F8E0FF64026005EF6403700E42
:109774009000F87402F07BFF7A0A799D801F9000B4
:10978400F8E06401700B7403F07BFF7A0A79B1800E
:109794000C9000F87401F07BFF7A0A79C57D0512FC
:1097A40098EE8029121DAF600AEF64026005EF6431
:1097B40003701A7BFF7A0A79D9E4FD1298EE1294A9
:1097C40008121BF11298EE9000F8740AF09000A4AD
:1097D400E07002C23D7D467C00E4FF12CE12227B83
:1097E400FF7A0A794B7D2012655A7BFF7A0A794BFE
:0897F4007D207C0012655A2261
:106E6D0012C3699000F4E0645B600302701E7BFF47
:106E7D007A0A79EAFD1298EEE49000F7F07B017A38
:106E8D000079F47D011298EE121BF11298EEE49048
:106E9D0000F4F09000BBF09000F5E01216086EE5DE
:106EAD00416F23436F90446FB5496FC34C6FCB4E09
:106EBD006F234F6FD0506FD5536FDE546FF0556FFA
:106ECD00F0566FFA577001586F235A6F10636F7A2F
:106EDD00646FE5740000700C7F0612CF07C2227B31
:106EED00FF7A0A79F57D051298EEE4FDFF129CA854
:106EFD00127026C215200802C295121E4E12701F66
:106F0D00027017D21112701FE4FDFF12C24112C0A0
:106F1D00B2D2A4027017C21AC242C215200802C210
:106F2D0095C22212CD0912CF2012691E12C8DF8F11
:106F3D00109000F5E0FF64436004EFB45A12126341
:106F4D0041C22BE4FF1273917BFF7A0B7908800904
:106F5D0012A5317BFF7A0B79187D051298EEC2A42C
:106F6D00D209E4FDFF12C241D2A4026FF59000BC1C
:106F7D00E55BF0C22912247C9000BCE0FF12C2D761
:106F8D00027017D215C227126AEFE4FDAF1312C2B9
:106F9D0041E51375F080A4121D3112655A7D02AFC3
:106FAD001312C241C2158062C2091287C7D20912DB
:106FBD001E34D2458054D215C290D295804C12C643
:106FCD0049804712B8E48042C21520083DC2958021
:106FDD003912BC68D2178032C2117D02E4FF12C291
:106FED00418027D229128C7A121E4E801D7F0112EC
:106FFD004B72801620110330091012C007800B7BD5
:10700D00FF7A0B79287D051298EEE49000F5F0A338
:09701D00F02212CD0912CF20224D
:0300530002CA4C92
:10CA4C00C0E0C0D075D000C007AFBBEF641E70084B
:10CA5C0075BB0475BCFC800675BB1E75BCF8C2EDBD
:07CA6C00D007D0D0D0E0326A
:03008B0002BAB9FD
:10BAB900C0E0C0F0C083C082C0D075D000C000C053
:0DBAC90001C002C003C004C005C006C007D4
:10BAD60012CEC0EF30E2317B013009237A0079BB08
:10BAE6007D311288F99000BBE09000F4F09000BC24
:10BAF600E09000F5F09000BDE09000F6F080097A45
:08BB06000079F47D031288F9B7
:10BB0E00D007D006D005D004D003D002D001D0008B
:0BBB1E00D0D0D082D083D0F0D0E03235
:10CAE800FDFC121490E53E4FFFE53D4EFEE53C4D42
:10CAF800FDE53B4C8F3E8E3D8D3CF53B229001F48D
:05CB08001214F7E42205
:06C505009001F412153B49
:10C50B00E4F53EF53DF53CF53B12CB05FFFEFDECAE
:10C51B00781812147D12CAED12CB05FFFEE4FC78DD
:10C52B000812147D12CAED12CB05FFE4780812CA6B
:0BC53B00E812CB05FE781812CAE8FCDD
:01C5460022D2
:02CF4300AD0738
:08CF4500EEFBEDFAEBAE02FF7A
:01CF4D0022C1
:10A5FD001201100100000040C41000020000010013
:10A60D00030109022000010100800F09040000026E
:10A61D0008065000070581024000000705020240B0
:10A62D000000040309042A03530069006C0069004B
:10A63D0063006F006E0020004C00610062006F002F
:10A64D007200610074006F00720069006500730094
:10A65D0038034300380030003500310046007800E3
:10A66D0078007800200044006500760065006C00DD
:10A67D006F0070006D0065006E00740020004200D8
:10A68D006F006100720064001C0330003000370061
:10A69D003900380037003600350034003300320001
:10A6AD0031003000FFA62FFFA633FFA65DFFA69554
:04003E0001000000BD
:10C05D007596117597409002A37401F0E49002A9B2
:10C06D00F0A3F0227A0079407BFF9002980215F33D
:10C07D0075960EE4F5979002A3E06404229002A059
:10C08D00E0FF7E006481229002A6E0640422759692
:10C09D0011759748229002A7E4F0A304F02275963B
:05C0AD000E7597012251
:10AB0B0090029DE07010A3E0700C9002A1E0700623
:10AB1B00A3E06402600312CC3190029BE0247F60BF
:10AB2B00131460292402707790029FE07015A3E044
:10AB3B006013806B12C094700A90029FE07004A3A4
:10AB4B00E06002805A7BFF7A007940804212C09409
:10AB5B00700690029FE06002804512C08A701690CA
:10AB6B0002A4E064037BFF70067A00793E80047ACE
:10AB7B00007940801AEF64014E70229002A5E064C8
:10AB8B00037BFF70067A00793E80047A00794012CD
:10AB9B00C0779002A7E4F0A37402F0800580001246
:10ABAB00CC3112C0836008E59620E7FB12C05D2212
:10B2180012C094702090029BE060716401606D9090
:10B22800029DE0706790029FE070619002A1E0705B
:10B238005BA3E06002805590029BE06402704D9031
:10B24800029EE0704712C08A6005EF6401703DEF0E
:10B2580064814E701AE59620E7FB12C0ABE5962094
:10B26800E7FB759611759740E49002A4F08020E5FD
:10B278009620E7FB75960E759702E59620E7FB7515
:10B288009614759780E49002A5F0800312CC31E5FE
:10B298009620E7FB12C07D6008E59620E7FB12C008
:02B2A8009B22E7
:10B2AA0012C094702090029BE060706401606C9000
:10B2BA00029DE0706690029FE070609002A1E070CB
:10B2CA005AA3E06002805490029BE06402704C90A2
:10B2DA00029EE0704612C08A6005EF6401703CEF7E
:10B2EA0064814E7018E59620E7FB12C0ABE5962004
:10B2FA00E7FB7596117597109002A48019E59620C0
:10B30A00E7FB75960E759702E59620E7FB7596148E
:10B31A007597209002A57403F0800312CC31E5964C
:10B32A0020E7FB12C07D6008E59620E7FB12C09B70
:01B33A0022F0
:10C28C0090029BE0701D90029FE07017A3E070136A
:10C29C00A3E0700FA3E0700B90029DE07005A3E08B
:10C2AC0030E70312CC319002A37405F090029EE0AB
:10C2BC009002A660057403F080037402F012C08330
:0BC2CC006008E59620E7FB12C09B22F3
:1095070090029DE024FE601C1460391460531460BF
:1095170065240460030295B57AA579FD12C075909C
:10952700A5FD80497BFF7AA6790F12C07790A61216
:10953700E493FE90A611E4937C002400FFEC3E9098
:1095470002A7806490029EE075F00390A6B1121501
:10955700B51215FC12C0771210E8FF9002A7E4803D
:10956700477BFF7AA6791812C07790A618E493FF75
:109577009002A7E4803290029E12C08D6005EF64CE
:1095870001702BEF64814E7BFF700C7AA679211254
:10959700C07790A621800A7AA6792812C07790A66C
:1095A70028E493FF9002A7E4F0A3EFF0800312CC26
:1095B7003190029DE0FF64016014EF6402600FEFD9
:1095C7006403600AEF64046005EF6405702390028A
:1095D700A2E0FFD39002A8E09F9002A7E09400408A
:1095E700109002A1E0700AE0FE9002A7EEF0A3EF50
:0F95F700F012C0836008E59620E7FB12C05D22EA
:10BE4B0090029BE06480701C90029DE07016A3E052
:10BE5B007012A3E0700EA3E0700AA3E07006A3E0DB
:10BE6B006401600512CC3180239002A6E0FF7E00B6
:10BE7B006404700C7BFF7A00793E12C07712C0A26B
:10BE8B00EF64034E700612C07112C0A212C0836021
:0ABE9B0008E59620E7FB12C05D22C7
:10B454009002A6E06402602990029BE070239002AF
:10B464009FE0701DA3E07019A3E07015A3E07011B4
:10B4740090029DE0700BA3E0D3940174809480400B
:10B484000512CC31804690029EE0D39400748094DF
:10B4940080402D9002A67404F0E49002A4F0A3F07E
:10B4A400E59620E7FB12C0ABE59620E7FB75961204
:10B4B400759720E59620E7FB75960EE4F597800CCA
:10B4C4009002A67403F09002A4F0A3F012C083606B
:0AB4D40008E59620E7FB12C09B225A
:10C5470012C094702490029BE06481701C90029D3D
:10C55700E07016A3E07012A3E0700EA3E0700AA3C8
:10C56700E07006A3E06401600512CC31800612C0BA
:10C577007112C0A212C0836008E59620E7FB12C0C3
:02C587005D2233
:10C8110090029BE06401701C9002A1E07016A3E0FD
:10C82100701290029DE0700CA3E07008A3E0700408
:10C83100A3E0600312CC3112C0836008E59620E7C3
:05C84100FB12C09B2268
:06C1ED004302A300000064
:10C9D000FEE02400FFEC3EF0A3EFF022900232E0F4
:10C9E0004408F0E49002A3F022855F8385608222F0
:0BC9F000900003121652E0FEA3E022AC
:0300430002AF0405
:10AF0400C0E0C0F0C083C082C0D075D000C000C013
:0DAF140001C002C003C004C005C006C00794
:10AF2100E59620E7FB759686E59620E7FB90022ED5
:10AF3100E597F0E59620E7FB759682E59620E7FB1D
:10AF410090022FE597F0E59620E7FB759684E5964C
:10AF510020E7FB900230E597F090022EE030E1030C
:10AF610012CF5990022EE030E20312CC1490022F3E
:10AF7100E030E003126CB3900230E030E20312BC27
:0BAF8100CB90022EE030E00312CF6303
:10AF8C00D007D006D005D004D003D002D001D00019
:0BAF9C00D0D0D082D083D0F0D0E032C3
:0ACF5900900231E475F0010212327B
:10CC14009002A67402F0E59620E7FB7596017597DD
:0DCC240001E49002A3F0A37403F0A3F0223A
:106CB300E59620E7FB75960EE4F597E59620E7FB4E
:106CC300759691E59620E7FB900231E597F09002E7
:106CD300A3E064057013E59620E7FBE4F5969002C4
:106CE3009EE0F597E49002A3F0900231E0FF30E2DA
:106CF30010E59620E7FB759611E4F5979002A3F053
:106D030022EF30E41BE59620E7FB75961175970893
:106D1300E59620E7FB759611759780E49002A3F042
:106D23009002A3E06003026DBD900231E020E00316
:106D3300026DBD7B017A02799B7D087C007F201266
:106D4300C1F390029EE0FE90029DE07C0012C9D246
:106D53009002A0E090029F12C9D09002A2E090029C
:106D6300A112C9D090029CE01216086D8D006D929D
:106D7300016D97036D9C056DA1066DA6086DAB09AA
:106D83006DB00A6DB50B00006DBA12AB0B802B1200
:106D9300B218802612B2AA802112C28C801C1295CE
:106DA30007801712BE4B801212B454800D12C547D0
:106DB300800812C811800312CC319002A3E0640151
:106DC3006003026E6C900231E030E103026E6CE509
:106DD3009620E7FB759691E59620E7FB900231E557
:106DE30097F0E030E40630E003026E6C90023274F8
:106DF30002F0C39002A8E094409002A7E0940090B0
:106E03000298402D1215D37C007D407F2012B77766
:106E1300900299E475F0401212329002A774FF7544
:106E2300F0C01212329002A9E475F04012123280BF
:106E3300131215D39002A7E0FCA3E0FD7F2012B745
:106E43007712C9DC9002A1E0FEA3E0FF9002A9E063
:106E5300B50608A3E0B5070312C9DCE59620E7FBF6
:096E6300759611900232E0F597DA
:016E6C002203
:10BCCB00E4FFE59620E7FB75960E759702E5962047
:10BCDB00E7FB759694E59620E7FBAE979002A5E0FF
:10BCEB006403700CE59620E7FB759614759720227C
:10BCFB00EE30E60BE59620E7FB759614759780E51D
:10BD0B009620E7FB759696E59620E7FBAF97EFFD40
:10BD1B007C00E59620E7FB759697E59620E7FBAF51
:01BD2B009780
:01BD2C0022F4
:0ACF6300900231E475F00102123271
:10C1F300900233EFF09002361215F3900234ECF014
:03C20300A3EDF0B8
:10C206004C6037900233E0F5964396C0E4FFFED3C8
:10C21600900235E09F900234E09E401BE59620E7B1
:10C22600FB9002361215D38F828E83E59712117317
:0AC236000FBF00010E80D8E4F5965A
:01C2400022DB
:10B7770090FFFD12162E1215F390FFFE12162EECF7
:10B78700F0A3EDF090FFFF12162EEFF090FFFE12E0
:02B79700162E6C
:10B79900D2B012C9F04E6049E59620E7FB12C9E91B
:10B7A900A3A3E0F59612C9E9E4F0A3F012C9F0FFEA
:10B7B90012C9E9E0FCA3E0FDC39FEC9E5023900071
:10B7C900051216521215D38D828C83121101F59729
:10B7D900E59620E7FB12C9E9E475F00112123280FF
:03B7E900CBC2B020
:06B7EC0090000802162E79
:10CC3100E59620E7FB75960EE4F597E59620E7FB70
:0DCC41007596117597209002A37404F022DF
:10C6C0001201100100000040C4100000000001022F
:10C6D00003010902200001010080FA0904000002A0
:10C6E000FF0000000705020240000007058202402B
:0AC6F000000004030904010000002B
:1086900090016EEEF0A3EFF0900172EBF0A3EAF020
:1086A000A3E9F0E49007A8F09007A8E0FF90C6C007
:1086B00093FE74402FF582E43407F583EEF09007C3
:1086C000A8E004F0E0B412E0E49007A8F09007A856
:1086D000E0FF90C6D293FE74522FF582E43407F582
:1086E00083EEF09007A8E004F0E0B420E090016E83
:1086F000E0FAA3E0900748F0EAA3F0EDA3F0ECA3C2
:10870000F090077274FFF0A374C6F0A374F2F090B7
:108710000172E0F9A3E0FAA3E0900775C9F0A3EABB
:10872000F0A3E9F0900175E0F9A3E0FAA3E0900767
:1087300078C9F0A3EAF0A3E9F0900178E0F9A3E0AA
:10874000FAA3E090077BC9F0A3EAF0A3E9F0900157
:108750007BE0FFC394FA500590075AEFF090017C3C
:10876000E0900759F090017DE0FEA3E090074CF007
:10877000EEA3F0E59620E7FB759601759708E59660
:1087800020E7FB75960775970FE59620E7FB759632
:108790000975970EE59620E7FB75960B759707759B
:1087A000D7E012CF14E4900792F0900791F0900771
:1087B00093F0900786F043E602D2AFE59620E7FB00
:0787C0007596017597012277
:10CA73009007867402F0E59620E7FB75960175979B
:10CA830001E490078EF0A37403F0A3F0E4900792FF
:07CA9300F090079104F0226E
:105ED800E59620E7FB75960EE4F597E59620E7FB37
:105EE800759691E59620E7FB90079CE597F0E0FF13
:105EF80030E210E59620E7FB759611E4F5979007D8
:105F08008EF022EF30E410E59620E7FB75961175C8
:105F18009780E490078EF090078EE0600302600D92
:105F280090079CE020E00302600D7596204396C020
:105F3800E49007A8F0E59620E7FB9007A8E0247E08
:105F4800F582E43407F583E597F09007A8E004F0BC
:105F5800E0B407E1E59620E7FBE4F5969007A8E0B2
:105F6800247EF582E43407F583E597F0900781E015
:105F7800FE900780E07C002400FFEC3E900794F040
:105F8800A3EFF0900785E0FE900784E02400FFEC83
:105F98003E900796F0A3EFF090077FE004603B1473
:105FA800B40C00505D905FB4F8282873025FD802E3
:105FB8005FDD025FE2025FE702600A025FEC025FF8
:105FC800F102600A025FF6025FFB026000026005F0
:105FD80012BA46803012BD8E802B1291EA802612AA
:105FE800BDED802112CB99801C12A77D801712C3AA
:105FF80022801212BEA5800D12CA9A800812CDD72F
:10600800800312CC4E90078EE06401600302610E9B
:1060180090079C7402F0C390078DE0944090078C21
:10602800E094004061E59620E7FB759620E4900730
:10603800A8F09007A8E0FFC394405022900787E09B
:10604800FBA3E0FAA3E0F98F82758300121101F532
:1060580097E59620E7FB9007A8E004F080D4900726
:1060680088E475F04012123290078DE024C0F09059
:10607800078CE034FFF090078BE02440F090078A0B
:10608800E03400F08052E59620E7FB759620E49016
:1060980007A8F09007A8E0FFD390078DE09F90072E
:1060A8008CE094004026900787E0FBA3E0FAA3E089
:1060B800F99007A8E0F582758300121101F597E5BC
:1060C8009620E7FB9007A8E004F080C790079CE0C3
:1060D8004408F0E490078EF0900796E0FEA3E0FFF6
:1060E80090078AE0B50611A3E0B5070C90079CE07D
:1060F8004408F0E490078EF0E59620E7FB759611CA
:0761080090079CE0F59722CF
:10CC4E00E59620E7FB75960EE4F597E59620E7FB53
:0DCC5E0075961175972090078E7404F022D2
:10BA460090077EE0247F6007146006240270488019
:10BA56002D90078FE0B40309900782E0B4020280BC
:10BA66000E900790E0B40316900782E0B4820F9020
:10BA7600078774FFF0A374C6F0A374F6800D9007D1
:10BA86008774FFF0A374C6F0A374F8F090078CE4F3
:10BA9600F0A37402F0800312CC4E90078EE064048B
:10BAA600601012CDD790078E7401F0E490078AF0EB
:03BAB600A3F022D8
:10BD8E00900780E07048900782E0FFB4021DE596B0
:10BD9E0020E7FB75960E759702E59620E7FB7596E4
:10BDAE0014759780E490078FF08026EFB4821DE51E
:10BDBE009620E7FB75960E759702E59620E7FB75C4
:10BDCE009611759740E4900790F08005800012CC94
:0FBDDE004EE59620E7FB75960EE4F59702CDD75C
:1091EA00900794E0B4373CA3E0B40B3790078EE0C5
:1091FA006404601012CDD790078E7401F0E49007D2
:10920A008AF0A3F090079B7480F09007877401F0AE
:10921A00A37407F0A3749BF090078CE4F0A304F006
:10922A000292EC900795E020E0030292C390079324
:10923A00E030E00854FEF04402F08007900793E023
:10924A0054FDF0E59620E7FB75960E759702E596B4
:10925A0020E7FB759614759710E59620E7FB75963F
:10926A0011759708E59620E7FB759694E59620E731
:10927A00FB90079BE597F0E020E4E9E59620E7FB01
:10928A00759614759710E59620E7FB759691E59605
:10929A0020E7FB90079BE597F0E020E3E9E59620BD
:1092AA00E7FB7596117597089007917408F0900777
:1092BA0093E0FF30E1034401F0900794E0FCA3E05F
:1092CA00FD30E10D9007867406F0900791E0441096
:1092DA00F0ED30E20D9007867404F0900791E044B7
:1092EA0020F0E59620E7FB75960EE4F59702CDD7B8
:10BDED00900780E07047900782E0FFB4021BE59654
:10BDFD0020E7FB75960E759702E59620E7FB759685
:10BE0D001475972090078F801DEFB4821EE5962044
:10BE1D00E7FB75960E759702E59620E7FB75961173
:10BE2D007597109007907403F08005800012CC4E2A
:0EBE3D00E59620E7FB75960EE4F59702CDD74B
:10CB9900E59620E7FBE4F596900780E0FFF597EF2F
:10CBA90090078660057403F080037402F002CDD704
:10A77D00900781E024FE601B14603B2402707290F0
:10A78D0007877401F0A37407F0A37440F09007409D
:10A79D00E080539007877401F0A37407F0A37452FF
:10A7AD00F0900755E0FE900754E07C002400FFEC8C
:10A7BD003E90078C8035900780E0FFD394034002D4
:10A7CD00802FEF75F003A42472F582E43407F5832E
:10A7DD00E0FBA3E0FAA3E0F9900787EBF0A3EAF022
:10A7ED00A3E9F01210E8FF90078CE4F0A3EFF080DE
:10A7FD000312CC4E90078CE0FEA3E0FF900796E08D
:10A80D00FCA3E0FDC39FEC9E500890078CECF0A3D9
:10A81D00EDF090078EE06404601012CDD790078E96
:0BA82D007401F0E490078AF0A3F02211
:10C32200900786E0FFB40414A374FFF0A374C6F070
:10C33200A374F6F090078CE4F0A304F0EFB40316B4
:10C3420090078774FFF0A374C6F0A374F8F0900707
:10C352008CE4F0A304F012CDD790078E7401F0E4C0
:07C3620090078AF0A3F0220E
:10BEA500900780E0D394004042900791E04440F031
:10BEB5009007867404F0E490078FF0A3F0E59620D0
:10BEC500E7FB75960E759702E59620E7FB759612CA
:10BED500759784E59620E7FB759615759780E59629
:10BEE50020E7FB75960EE4F597800C9007867403A2
:0ABEF500F090078FF0A3F002CDD704
:10CA9A0090078774FFF0A374C6F0A374F8F09007A8
:10CAAA008CE4F0A304F012CDD790078E7401F0E461
:07CABA0090078AF0A3F022AF
:10CDD70090078EE06404600BE59620E7FB759611DB
:04CDE70075974022DA
:03004300027B2419
:107B2400C0E0C0F0C083C082C0D075D000C000C027
:107B340001C002C003C004C005C006C00790079D71
:107B4400E596F0E59620E7FB75968EE59620E7FB33
:107B540090079EE597F0E59620E7FB759686E596F7
:107B640020E7FB900798E597F0E030E30BE59620DB
:107B7400E7FB75960B759707900798E030E20312C0
:107B8400CA73900798E030E014900786E0FF64041D
:107B94006004EFB40607900791E04480F0E5962076
:107BA400E7FB759682E59620E7FB900798E597F04A
:107BB400E030E003125ED8900798E030E22AE596C0
:107BC40020E7FB75960E759702E59620E7FB759600
:107BD40091E59620E7FB900799E597F0E054037050
:107BE40007900791E04402F0E59620E7FB75968440
:107BF400E59620E7FB900798E597F0E030E229E569
:107C04009620E7FB75960E759702E59620E7FB75BF
:107C14009694E59620E7FB900799E597F0E030E02D
:107C240007900791E04404F0E59620E7FB75960E73
:107C340090079EE0F597E59620E7FB90079DE59673
:107C4400F0E59620E7FB900793E030E00990079178
:107C5400E0600312CB56D007D006D005D004D00381
:107C6400D002D001D000D0D0D082D083D0F0D0E0E8
:017C740032DD
:10C36900E49007A8F0E5B964E0603853A90F900795
:10C37900A7E5A9F043B280E5A95407D39401400386
:10C38900E4F5A9E4F5B943B9809007A8E014F07081
:10C39900F843B9C0E5B930E5FB9007A7E0B402035B
:07C3A90043A90253A90F2272
:10C9A3009007A7E5A8F0C2AFC2AF53E6FDE4F5D701
:10C9B300E59620E7FB759601759708E5A920E10642
:0DC9C30043A910E4F5B99007A7E0F5A822FC
:0FCEC000900791E0FF9007A7F0E4900791F02210
:1088F9009007A8EDF09007ABEBF0A3EAF0A3E9F03D
:10890900900786E0B40606EDD3944040037F002229
:10891900E59620E7FB75960E759702E59620E7FB2D
:10892900759694E59620E7FB90079AE597F0E02085
:10893900E003028A26E59620E7FB759696E59620E0
:10894900E7FB900792E597F0E0FFEDC39F5006AE75
:1089590005AF068000900792EFF053E6FDE59620FB
:10896900E7FB7596E2900792E07003028A0A900786
:10897900ABE0FF7020A3A3E090079FF0E59620E706
:10898900FB90079FE0F8A697E004F09007A8E01491
:10899900F070E9806CEF20E73C9007ABA3E0FAA305
:1089A900E0FF9007A1EAF0A3EFF0E59620E7FB903E
:1089B90007A1E0FEA3E0F5828E83E597F09007A278
:1089C900E004F070069007A1E004F09007A8E01415
:1089D900F070D7802C9007ABE064FE7021A3A3E070
:1089E9009007A5F0E59620E7FB9007A5E0F8E59745
:1089F900F2E004F09007A8E014F070E880037F002B
:108A090022E59620E7FBE4F596E59620E7FB7596C7
:108A190014E4F59743E602900792E0FF227F0022D3
:10655A00E49007A7F09007A9F0A3F09007ABEBF03F
:10656A00A3EAF0A3E9F0900786E0B4060DED4C60CB
:10657A0009D3ED9400EC94104004E4FEFF2253E6A4
:10658A00FD9007A7E030E00302673EE59620E7FBAF
:10659A0075960E759702E59620E7FB759691E59636
:1065AA0020E7FB9007A7E597F0E030E020E596208A
:1065BA00E7FB75960EE4F597E59620E7FB7596914D
:1065CA00E59620E7FB9007A7E597F080B4D3ED9412
:1065DA0040EC94009007A840057440F08002EDF06A
:1065EA00E59620E7FB7596229007A8E070030266FD
:1065FA00EE9007ABE0702DA3A3E0F99007A9A3E002
:10660A00FFE92FF990079FE9F0E59620E7FB90074D
:10661A009FE0F8E6F597E004F09007A8E014F07020
:10662A00E80266EE9007ABE020E747A3E0FAA3E0B2
:10663A00F99007A9E0FEA3E0FFE92FF9EA3EAF01CE
:10664A009007A1F0A3EFF0E59620E7FB9007A1E001
:10665A00FEA3E0F5828E83E0F5979007A2E004F0AE
:10666A0070069007A1E004F09007A8E014F070D734
:10667A0080729007ABE064FE7021A3A3E09007A5A7
:10668A00F0E59620E7FB9007A5E0F8E597F2E0042D
:10669A00F09007A8E014F070E880499007ABA3E0F7
:1066AA00FAA3E0F99007A9E0FEA3E0FFE92FF9EACF
:1066BA003EAF019007A3F0A3EFF0E59620E7FB9029
:1066CA0007A3E0FEA3E0F5828E83E493F597900793
:1066DA00A4E004F070069007A3E004F09007A8E095
:1066EA0014F070D6C3ED9440EC94009007AAE040F1
:1066FA001F2440F09007A9E03400F074C02DFD7407
:10670A00FF3CFCE49007A7F09007A87440F08016BD
:10671A002DF09007A9E03CF09007A77401F09007CC
:10672A00A8EDF0E4FCFDE59620E7FB759611759758
:10673A000102658B43E6029007A9E0FEA3E0FF226F
:10CCF000900793E04401F0900791E0600BE59620E7
:09CD0000E7FB75960B75970F22F5
:08CF7600900793E054FEF02245
