:0300000002ACBA95
:0CACBA00787FE4F6D8FD75818502AD01BD
:10ACC600023ADEE493A3F8E493A34003F68001F28C
:10ACD60008DFF48029E493A3F85407240CC8C3338F
:10ACE600C4540F4420C8834004F456800146F6DF5E
:10ACF600E4800B010204081020408090BA97E47E9D
:10AD0600019360BCA3FF543F30E509541FFEE49352
:10AD1600A360010ECF54C025E060A840B8E493A319
:10AD2600FAE493A3F8E493A3C8C582C8CAC583CA44
:10AD3600F0A3C8C582C8CAC583CADFE9DEE780BEFC
:01BA970000AE
:0EC79500F0EF25E024ADF582E43402F58322B6
:03002B0002BDB55E
:10BDB500C0E0C0F0C083C082C0D075D0189002AB7F
:10BDC500E475F00112160175CBF075CA60C2CFC3D8
:10BDD5009002ACE0947D9002ABE094004009E4F061
:10BDE500A3F0D21F12C60AD0D0D082D083D0F0D013
:02BDF500E0323A
:10C60A00D39002AEE094009002ADE09480400774AB
:07C61A00FFF5F012160122EA
:0300730002C64F73
:10C64F0053E67F53917F53C77F43C78053C77F43C1
:06C65F00C78053C77F32C3
:10BFEB00E49002ABF0A3F0FFEFC394017480948054
:10BFFB00501012C796E4F0A312C795E0547FF00FD0
:10C00B0080E6E4F5C8538E0F75CBF0F5CA74FFF5D7
:07C01B00CDF5CCD2ADD2CA75
:01C0220022FB
:10C6DC00538EF8438E04758902758CEA758AEAD2FA
:02C6EC008C229E
:10C6B600E4F59175959E75945875939E75925853A9
:03C6C6008EBF2202
:10C67A00E4F591F595F59475937F7592FF538E3F86
:04C68A0043910422B2
:10C6EE0012C796E0FEA3E07003EE64807002D322C0
:02C6FE00C32255
:10C6C900ED4C600E12C796ECF0A3ED12C795E0444D
:03C6D90080F022CC
:1000030075B28353A9F8E4F586758DCC438E082227
:10C0920043B203E4F5B943B980FFFE0FBF00010EBE
:10C0A200BE01F8BFF4F543B9C0E4FEFF0FBF0001C3
:10C0B2000EBE01F8BFF4F5E5B930E5FB75A90375CD
:05C0C2008D30438E08E3
:01C0C7002256
:0D002E000070007000DFF9EE6002DEF422C9
:10008E0043757272656E742054696D653A20002056
:10009E000077616974696E6720666F7220445350F1
:1000AE002073796E63207570202E2E2E004E65778C
:1000BE0020486F75722E2E2E202020000D0A2D2D19
:1000CE002E20005553422054696D6520616E6420C8
:1000DE0053656E736F7220446174612073656E7424
:1000EE00004C617267652046696C652053697A65BC
:1000FE00004E65772046696C652050617274697494
:10010E00696F6E200046696C652073697A653A00E6
:10011E0044737020566572732069732030312E350A
:10012E0030004E65772066697665206D696E757450
:10013E006520696E74657276616C2E2E2E4E6F2060
:10014E0047505320736F206E6F2053796E63207566
:10015E00702077696C6C20626520736368656475C6
:10016E006C65642E0D0A00202020204C61737420D3
:10017E0047505320617474656D70742077617320DD
:10018E007375636365737366756C2E200020202073
:10019E00204C6173742047505320617474656D70E8
:1001AE0074206661696C6564212000202020204740
:1001BE0050532069732064697361626C65642E20EC
:1001CE00004261747465727920766F6C7461676534
:1001DE002069733A200020202020486F75726C79B8
:1001EE0020446574656374696F6E20436F756E7419
:1001FE003A200020546F74616C20446574656374FA
:10020E00696F6E20436F756E743A200020506F6FC9
:10021E0072205369676E616C00204E454544532031
:10022E0053455256494345212121000D0A0D0A2DF1
:10023E002D2D202A2A2A2054524944454E5420530B
:10024E0048454C4C2053544152544544202A2A2AA6
:10025E000D0A2D2D2D000D0A2D2D2D20487964729D
:10026E006F70686F6E6520636F6D6D756E6963611B
:10027E0074696F6E20737461727465642E002A2A1D
:10028E002A20446961676E6F7374696320537461C9
:10029E0074757320436865636B20686173206265B3
:1002AE00656E20696E69746961746564202A2A2AF4
:1002BE000D0A2D2D2D005344206D656D6F72792022
:1002CE0063617264206973206E6F7420696E20748E
:1002DE00686520736C6F742E002A2A2A20475053AB
:1002EE0020697320656E61626C656420746F206195
:1002FE006C6C6F772074696D696E672066756E63BE
:10030E0074696F6E73202A2A2A0D0A2D2D2D002A4C
:10031E002A4261642074696D652A2A0D0A2D2D2DDD
:10032E00002A2A2A204261642074696D652E2054A9
:10033E0072792073657474696E6720636C6F636B7A
:10034E00207573696E67204750532E202A2A2A0D76
:10035E000A2D2D2D002A2A2A20475053206174740D
:10036E00656D707420776173207375636365737345
:10037E0066756C2E204770732074696D65207379D5
:10038E006E632077696C6C20626520617474656D94
:10039E00707465642E202A2A2A0D0A2D2D2D002A0E
:1003AE002A2A2047505320617474656D707420663C
:1003BE0061696C65642E204770732077696C6C20C0
:1003CE006E6F74206265207573656420746F207380
:1003DE006574207468652074696D652E202A2A2A3A
:1003EE000D0A2D2D2D005B4750532053594E43209F
:1003FE004641494C2121212E2E2E2E2E2E2E2E2ED2
:10040E002E2E2E2E2E5D005B4750532053594E43F9
:10041E0020535543434553532121212E2E2E2E2E4C
:10042E002E2E2E2E2E2E5D002A2A2A2047505320A5
:10043E00417474656D707420556E73756363657366
:10044E007366756C20542A2A2A0D0A2D2D2D005BF9
:10045E004750532043616C69622E2E205254432024
:10046E004167696E67206F66667365742E2E5D0038
:10047E002A2A2A205475726E6564206F666620479C
:10048E0050532E202A2A2A0D0A2D2D2D002A2A2AD3
:10049E002054657374696E672073656E736F727323
:1004AE002E202A2A2A0D0A2D2D2D00446961676EF1
:1004BE006F73746963205374617475732043686538
:1004CE00636B2066696E69736865642E0D0A2D2D47
:1004DE002D005B47505320436865636B20436F6D5F
:1004EE00706C6574652E2E2E2E2E2E2E2E50415390
:1004FE00535D005B47505320436865636B20436F29
:10050E006D706C6574652E2E2E2E2E2E2E2E46415F
:10051E00494C5D00446574656374696F6E73207A2F
:10052E0065726F65642E00446961676E6F737469DE
:10053E00632053746174757320436865636B206622
:10054E00696E69736865642E205265737461727486
:10055E00696E672E2E2E0D0A2D2D2D004E6F204406
:10056E00617461205468697320496E746572766196
:10057E006C202D20000D0A004E6F2056616C6964B0
:10058E00204473702056657273696F6E202D20544F
:10059E006F67676C65206120726573657420746F78
:1005AE002072657472696576652069740044737093
:1005BE002056657273696F6E207265747269657606
:1005CE00616C20686173206265656E20617474656C
:1005DE006D70746564005355434345535321212177
:1005EE00004C6F6767696E6720746F205344206DEF
:1005FE00656D6F7279206361726420686173206229
:10060E0065656E20696E697469617465642E005744
:10061E00616974202E2E2E20004C6F672052657358
:10062E00756D65642061743A20005344206D656DCC
:10063E006F727920636172642068617320626565F0
:10064E006E2072656D6F7665642E004578697469EB
:10065E006E67206465646963617465642074696D96
:10066E00696E67206C6F6F702E200D0A00436861F3
:10067E006E676564207468652073797374656D2088
:10068E00636C6F636B207669612061205043206339
:10069E006F6D6D616E642E205265626F6F74696E40
:1006AE0067207468652073797374656D2E205761A9
:1006BE0069742E2E2E0D0A004E6F74204C6F6767D4
:1006CE00696E6720746F20636172642E204F7065AF
:1006DE006E2044535020636F6D6D756E6963617447
:1006EE00696F6E2E0D0A00417474656D7074696EBB
:1006FE006720445350207265636F766572792E2E93
:10070E002E002020202A2A2A2A205761726E696E16
:10071E0067212120475053207369676E616C2070EA
:10072E00726573656E742062757420746865726587
:10073E0020697320616E20696E76616C6964206336
:10074E006C6F636B2073657474696E67206E6F20B7
:10075E0073796E632077696C6C20626520646F6EAE
:10076E006520756E74696C20612076616C696420F9
:10077E004750532074696D6520686173206265650A
:10078E006E207573656420746F20736574207468B1
:10079E0065207265616C74696D6520636C6F636B47
:1007AE002E20202000507265706172696E67207471
:1007BE006F20646F2035206D696E207363686564E9
:1007CE00756C65642053796E63207570206F66209A
:1007DE00636C6F636B732E2E2E0050726570617298
:1007EE00696E6720746F2053796E63207570206375
:1007FE006C6F636B732E2E2E005072657061726972
:10080E006E6720746F2053796E6320757020636C51
:10081E006F636B732E2E2E2E2E2E00477073206953
:10082E0073206265696E672064697361626C6564CA
:10083E002E20004E6F2073796E632077696C6C20CA
:10084E00626520646F6E6520617420746869732020
:10085E0074696D65202D20322E20202000005374E7
:10086E00617274696E6720445350207265736574AB
:10087E0020616E6420636C6F636B2073796E632EE0
:10088E002E2E202020005374617274696E672044EE
:10089E00535020636C6F636B2073796E632E2E2E14
:1008AE002020200052657365742032206861732009
:1008BE006F636375727265642E2E2E202020002EBB
:1008CE0020000D0A0D0A202020202020202A2A2A6E
:1008DE00204750532073796E632075702061626FCC
:1008EE00727465642120506F6F72207369676E6138
:1008FE006C2E202A2A2A2000202E2E2A00202E2E70
:10090E0078002E2E2000506F6F722073796E632048
:10091E00617474656D707421200046756C6C204492
:10092E005350207265736574200077697468207364
:10093E00796E6320757020636F6D706C65746520C1
:10094E002D2000203A2000202020200020636C6FF4
:10095E00636B206F66667365743A200075730020B2
:10096E002A2A20002A2A2A204572726F7220647465
:10097E0062546D70436C6F636B5374616D702E7542
:10098E00634461794F664D6F6E206973207A65728C
:10099E006F005374617274696E672075702E2053E8
:1009AE0063686564756C696E672044535020726588
:1009BE0073657420616E6420636C6F636B20737952
:1009CE006E632E004D697373696E67206D656D6F72
:1009DE00727920636172642E005374617274207593
:1009EE0070202D20446574656374696F6E73207A70
:1009FE0065726F65642E004E6F20477073207072A3
:100A0E006573656E742E2044535020526573657461
:100A1E0020616E6420636C6F636B2073796E63204C
:100A2E006973207374696C6C206E65656465642EE1
:100A3E00005B2424002C20002024245D005B4572E2
:100A4E00726F72204E6F2044535020636F6E74612C
:100A5E0063742E2E2E2E2E2E2E2E2E2E5D004E6FCB
:100A6E002044535020636F6E746163742061742050
:100A7E00004C6F737420636F6E74616374207769BA
:100A8E007468207468652044535020617420004DB2
:100A9E006F76696E6720746F20737461747573203E
:100AAE00322E004D6F76696E6720746F20737461FD
:100ABE0074757320332E004D6F76696E6720746FD8
:100ACE002073746174757320312E0044535020428C
:100ADE0061636B206F6E6C696E652E0055534220FC
:100AEE00494E202E2E2E0047707320496E7075745D
:100AFE002044697361626C6564004E657720436FB4
:100B0E006E6669672073656E74004F6C6420436F68
:100B1E006E6669672073656E74005573622044615A
:100B2E00746120556E7265736F6C76656400445304
:100B3E005020760053697465204E616D653A200031
:100B4E0046696C65204E616D653A20005365726989
:100B5E00616C204E756D6265723A200046696C6557
:100B6E0020466F726D61742056657273696F6E3AAE
:100B7E0020322E3020200046696C6520537461723D
:100B8E00743A200046696C6520456E643A20004137
:100B9E00545320536F6E69632052656365697665A1
:100BAE007220535233303031204669726D77617244
:100BBE0065207630362E36320D0A0010C4EA6136C4
:100BCE000341006400760061006E006300650064FE
:100BDE00002000540065006C0065006D0065007417
:100BEE0000720079002000530079007300740065D4
:100BFE00006D0073001E0353006F006E00690063EA
:100C0E0000200052006500630065006900760065F3
:080C1E000072000F800100705C
:10BA98004C01610C0330003900300030003000C127
:10BAA80014C185C1074100060046015720302E30D9
:10BAB80030004100A3014101600041013A00410109
:10BAC80039094100BA004100F804410088004100EA
:07BAD80087034200A10000FA
:100C2600F075F080EF90046F1219567430F075F07D
:100C360080EF9004701219567430F075F080EF90C2
:100C460004711219567430F075F080EF9004731227
:100C560019567430F075F080EF90047412195674BA
:100C660030F075F080EF90046A121956742DF07505
:100C7600F080EF90046B1219567439F075F080EF1E
:100C860090046C1219567439F075F080EF90047A5E
:100C96001219567430F075F080EF90047B121956D5
:100CA6007430F090047CEF75F080021956C4540F2E
:100CB6002430FEEF75F0800219569004451219563D
:100CC6007420F075F080EF9004461219567443F0C4
:100CD60075F080EF900447121956746CF075F08029
:100CE600EF900448121956746FF075F080EF900477
:100CF600491219567463F090044AEF75F080021990
:100D060056C4540F2430FEEF75F080021956C454B1
:100D16000F2430FEEF75F080021956540F2430FE72
:100D2600EF75F080021956540F2430FEEF75F080EF
:100D36000219569004421219567447F075F080EF66
:100D46009004431219567450F0EF75F080900444E5
:100D5600021956E0900427FEEF75F080021956E05E
:100D6600900426FEEF75F080021956E090042AFEE4
:100D7600EF75F080021956F075F080EF900460125E
:100D86001956742CF0EF90046175F080021956E044
:100D9600900429FEEF75F080021956E090042FFEAC
:100DA600EF75F08002195690043775F080021956D7
:100DB60090040075F080EF02195690000DE0FEEFEA
:100DC60075F00EA4240DF582E43400F583EEF09060
:100DD600000EE0FEEF75F00EA4240EF582E434005A
:100DE600F583EEF090000FE0FEEF75F00EA4240FF1
:100DF600F582E43400F583EEF0900010E0FEEF7526
:100E0600F00EA42410F582E43400F583EEF0900091
:100E160011E0FEEF75F00EA42411F582E43400F51E
:100E260083EEF0900012E0FEEF75F00EA42412F5AA
:100E360082E43400F583EEF0900013E0FEEF75F0E7
:100E46000EA42413F582E43400F583EEF09000142A
:100E5600E0FEEF75F00EA42414F582E43400F58369
:100E6600EEF0900015E0FEEF75F00EA42415F58265
:100E7600E43400F583EEF0900016E0FEEF75F00E18
:100E8600A42416F582E43400F583EEF0900017E012
:100E9600FEEF75F00EA42417F582E43400F583EE18
:100EA600F0900018E0FEEF75F00EA42418F582E429
:100EB6003400F583EEF0900019E0FEEF75F00EA415
:100EC6002419F582E43400F583EEF090001AE0FE72
:100ED600EF75F00EA422EF75F080900439021956D2
:100EE600F090047F75F080EF021956F09004467575
:100EF600F080EF021956F090044875F080EF021961
:100F060056FE75F080EF021956F0EF75F0809004EA
:100F160079021956F0EF75F08090047D0219567526
:100F2600F00A84E5F02430FF75F080E52F021956AB
:100F360075F0809004430219563AF583E53AF0E5D8
:100F46003BC4F854F0C868F53BE53CC4540F48F57B
:100F56003C540F2430F53AD394397480948022752A
:100F6600F08090046E02195690040175F080EF022D
:100F7600195675F08090044002195675F080900459
:100F860042021956FE75F080EF02195675F08090F0
:100F9600045002195675F08090044F02195675F0E8
:100FA6008090044E02195675F08090046702195617
:100FB60075F08090046602195675F08090046502FB
:100FC600195675F08090046402195675F0809004E5
:100FD60063021956EF2430FF75F080E52F0219568B
:100FE60035F0FA7B0175F00FE530121956E02275DF
:100FF600F080EE021956F090044775F080EF021962
:101006005690080875F00FE530121956E02275F073
:1010160080EE021956F090044975F080EF021956D9
:1010260075F080EE02195675F080EE021956FE75BF
:10103600F080EF02195690080275F00FE53012198C
:1010460056E02275F080EE02195690044575F08040
:10105600EF021956ED2430FF75F080E52F02195680
:1010660075F080EE02195690080C75F00FE53012F7
:101076001956E02275F080EE021956FE75F080EFE3
:1010860002195690080975F00FE530121956E0223C
:1010960075F080EE02195675F080EE021956A3E03F
:1010A600FF3395E0FEC3EF9430EE648094802274A3
:1010B600102BF58274043AF5832275F080EF02193D
:1010C6005690080675F00FE530121956E022E47BBB
:1010D6003CFAF9F8AF39AE38AD37AC361217857B26
:1010E60018E4FAF9F8021785E50875F00EA424103D
:1010F600F582E43400F583E022E530900803121906
:1011060056E5822534F582E43583F58322AE02AFB7
:10111600037882A60608A60718E6FA08E6FBFF7C0F
:10112600007D0AAE0202157675F080EE0219563A77
:10113600F583E53AF0229001711218DC90017102F4
:1011460018B87407253AF53A2275F080EF02195659
:101156007BFF7A0079CA7D0222F0E52F75F080A424
:1011660022E50875F00EA42411F582E43400F58317
:10117600E022E5392FFFE5383EFEE5373DFDE53651
:101186003C8F398E388D3722F074062BF582740425
:101196003AF58322F074052BF58274043AF583221E
:1011A60075F080EE021956EEF0ED75F00EA422757C
:1011B600F00FE530121956E022E475F0010216012F
:1011C600E0D394007480948022F074022BF582742C
:1011D600043AF58322F074032BF58274043AF583FE
:1011E60022F074042BF58274043AF58322E53BC49D
:1011F600F854F0C868F53BE53CC4540F48F53C226A
:10120600900139E0D39408748094802274012BF500
:101216008274043AF5832275F080E52F021956E4AC
:10122600FFFEFD7C4690009C1218C4D302182DAF19
:101236000F7E00EFC394247480948022E47B0AFA24
:10124600F9F81218B8121785EB2430FF22C4540F90
:101256002430FF227D907C5F7F75223AF5837420CF
:10126600F022A3F0A37430F0A3222400F97404350D
:10127600F0FA7B017D807C0022D2B4C2877D407C5F
:10128600067F0122540F2430F53A740E2BF5827432
:101296000422540F2430F53A740D2BF5827404227F
:1012A600E4F555755611755711F559F55A22900101
:1012B6007BE075F080A42294047480948022241A22
:1012C600F582E43400F583EEF00F2290016FE0FE24
:1012D600A3E0FFC3227427253AF53A2274BB2DF505
:1012E60082E43400F583E0FC229000F8E0FF64011C
:1012F60022E50DF0A3E50EF0A3E50FF02290024ED5
:10130600E0FF75F010021495AF09EF3395E0FE2269
:10131600ECC4F854F0C8EDC4540F4822E0F50DA310
:10132600E0F50EA3E0F50F227882A60608A60722AE
:10133600C394587480948022240FF582E43400F517
:1013460083E0222412F582E43400F583E02275F06E
:1013560080EF021956246FF9740435F0FA7B0122E6
:101366007BFF7A00798E2294067480948022E4783A
:1013760080F608F62290011E7404F0221216DF9001
:1013860001710218DC75F00FE530121956E0229053
:0913960000A1E4F0A37419F02297
:103ADE00C223C23A9000A37401F07F0712C48F5321
:103AEE00D9BF75C990E4F5FF12000312B8A312886E
:103AFE007DE4F5FEC200C204C202C204C202121369
:103B0E0066FD1292BB128DD57BFF7A00799D7D02E8
:103B1E001292BB53C77F7A00799F123E2B9000867C
:103B2E001211C64021301B1E20151BE47F607E093A
:103B3E00FDFC9002B51218C4C312182D5008D29570
:103B4E00900086E014F0300805301B02D295E4F5A3
:103B5E00FE12958AE55B121336500C201509204093
:103B6E0006E50A64207005C22912209EE4F5FE20A7
:103B7E000903023C10C215FF12B2C4AD08E4FF12D5
:103B8E00A1D69004457466F0A3F0A3F0A3F0A3F0C1
:103B9E00A3F07B017A04793A9001827406F07F00DB
:103BAE007E007D007C0012BEBD30095FC2902008F1
:103BBE0002C295D2A4301F03126F9FE5C930E63DB5
:103BCE001268D0E4F5FE301DE0FF12AF6530111E15
:103BDE009004457420F090044BF0AD08E4FF12A160
:103BEE00D67B017A0479007D807C0012617CC21D37
:103BFE00E50A541F70B3C227126DF480AC12B8F9E7
:103C0E0080A7E4F5FE43870185878730170343EFCE
:103C1E0010120003301F03126F9FE4F5FE300C4E9E
:103C2E00E50B704A9000B81211C0900007E004F046
:103C3E007A0079BB123E331211561292BB200E023D
:103C4E00C222300413123E22D22612C3C4301B08E5
:103C5E00123774C22B12C522E50C700B30000812FD
:103C6E003E22D22612C3C4C20CE4900087F0201D5F
:103C7E0003023D47300E04C21AD215E50A1219A9E5
:103C8E003CD0003CD0153CD0303CD0453CAA483C02
:103C9E00BE533CC3563CC85700003CEA30423D126E
:103CAE0012EF6019EF64026014EF6403702E800D42
:103CBE003042298008301A248003301A1F1226A79A
:103CCE00801AD3E50812136D4005E4F5088002054D
:103CDE0008201108204205C227126DF49000A4128C
:103CEE0011C64003E014F053AEFEE5C720E005E434
:103CFE00FF1247941290D1301527C222C21AE50A3C
:103D0E00540F700D126A89E4F5FE7A0079D1123ED5
:103D1E002BD295201B19200116B2A4A2A49290803A
:103D2E000E201B0B200108B2A4A2A4929592902003
:103D3E000105E4FF12C1FAC21D201B06200E03303E
:103D4E00424A301326201B0330010D300804D29551
:103D5E008004A2909295C2A430453120152E900079
:103D6E0087E0C3940574809480802120420F301523
:103D7E000C201B03300115C290D295800F201B061C
:103D8E00300109200806A24292A49295304205C243
:103D9E002912209E304203023C22201B03023B2BA1
:103DAE001212255003023B2B7BFF7A0079EF7D0523
:103DBE001292BBC22912209E126F9F9000A3E0C3E5
:103DCE00942174809480502B1212254026D22612F4
:103DDE00C3C49000A3E004F07A0079FF123E339042
:103DEE0000A3E0FFE4FCFDFE900252123E3B1237B0
:103DFE007480C87BFF7A017913E4FD1292BB9000A8
:103E0E009C1218B8900252740B123E3BC22B12C574
:043E1E0022023B2B16
:103E2200C22912209E126F9F227BFF7D051292BB38
:103E3200227BFFE4FD1292BB22F012712F7D011250
:033E420092BB220E
:10C48F0090000BE0A3F090000AE0A3F0900009E009
:0EC49F00A3F0900008E0A3F0900008EFF02258
:10AF6500E50E540F2430FE900427120CACEEF0E5EC
:10AF75000E900426120CB3EEF0E50D540F2430FEAE
:10AF850090042A120D00EEF0E50D900429120CB381
:10AF9500EEF0E50F90042F120D21EEF0E50F900471
:10AFA5002E120D07EEF0E50C900432120D21EEF095
:10AFB500E50C900431120D07EEF0E50B9004351207
:10AFC5000D2DEEF0E50B900434120D14EEF0E50AAC
:10AFD500900438120D2DEEF0E50A900437120D1489
:03AFE500EEF02269
:10BB3300ED14601114602C1460352403703C120D55
:10BB4300B6745B8017120DB6745BF0900401120D8E
:10BB5300B9745BF090047E120EEA745D120EE67403
:10BB63005DF022120DB67420120EE67420F022123C
:0BBB73000DB6740A120EE6740DF022ED
:05B2C40090017BEFF09A
:10B2C900A3F090017CE0FFC31212BD505B7D031215
:10B2D900BB3390017CE0900439120CAD742EF0E47C
:10B2E900F53AF53B741F253BF5827401353AF58330
:10B2F900E0FF90017CE0900401120CBAE582253B45
:10B30900F582E583353AF583EFF0053BE53B7002BD
:10B31900053A6419453A70CC90017CE0FF1272B687
:0EB3290090017CE004F0809A90017BE0F51327
:01B3370022F3
:10B9A400900424120EF5742CF0900425120F0074E8
:10B9B40020F0900428120F71742FF090042B1210B1
:10B9C40000742FF090043012101F7420F090043390
:10B9D400121053743AF09004361210C0743AF09076
:10B9E400042C1210C07432F090042D12114F7430D4
:02B9F400F0223F
:0272B600AE0721
:1072B80090041A120FF5742CF0E4F53CF53D74A611
:1072C800253DF5827400353CF583E0FF90041B12E0
:1072D8000FF5E582253DF582E583353CF583EFF032
:1072E800053DE53D7002053C6409453C70D0AF069C
:1072F80012B9A4EE120F78742CF0900441121014F5
:107308007420F0EE120F817447F0EE120F367437C6
:10731800F0EE120D507432F090044B121014742CCD
:10732800F090044C1210267420F09004721210266B
:107338007420F090047512102D742FF090047612BA
:10734800102D7433F09004771210497431F09004C2
:1073580078121049742CF0EE120F117420F090047A
:107368006D121066742CF0EE120F657420F0EE1298
:107378000F1C742CF090047E1210667420F0900498
:107388004D12107A7420F090045112107A742CF077
:107398009004521210967420F0EE120F927441F07D
:1073A800EE120F9B742FF0EE120FA4744EF090049F
:1073B80055121096742EF090045812109D742CF0EB
:1073C80090045912109D7420F090045A12112E74D2
:1073D80020F090045D12112E742EF09004601211AA
:1073E800A6742CF0EE120D8C7420F0EE120FAD7412
:1073F80020F0EE120FB67420F0EE120FBF7441F0B9
:10740800EE120FC8742FF0EE120FD1744EF09004E4
:10741800621211A67420F075F080EE9004681219BB
:0D74280056742CF090046912114F7420F07E
:017435002234
:106F9F00C234D235754C01850A4E850F4F850B4D86
:106FAF00850D50850E51303575AF4C054CEF606E29
:106FBF0012C1968F10AF0DEF6055D394317480943A
:106FCF0080504CAF0EEF6047941274809480503F06
:106FDF00E50F12123A4038AF0CD3EF94237480941C
:106FEF0080502CEF700CE50C65116006E5116423E1
:106FFF00701DAF0B7E00D3EF945974809480500FA7
:10700F00EF7017E50B654D6011E54D6459600BD2BC
:10701F00357F0F7E0012002E808CC2358088E50CE4
:10702F006511601A121374D234850C1120220F12BD
:10703F001366FD1292BB128DD57D02127125E50BE1
:10704F00654D7003027100D203D234900139E00410
:10705F00F0E50C64237008E50B64567002D242AF62
:10706F000BEF6459706DEF64597002D20C201A63E4
:10707F00D21A200A167D05127125126F9F12136600
:10708F00E4FD1292BB128DD512A11F900157E0643F
:10709F0030701EA3E0B4351990015AE0B43112A339
:1070AF00E0B4300D7BFF7A01791E7D051292BB8013
:1070BF00229000A4E0701C202219300A107BFF7A66
:1070CF000179307D051292BB12A11FC21A9000A444
:1070DF007478F0E50B540FF54D701612120640112F
:1070EF00304102E4F0202107C241E4900139F0D28F
:1070FF0021E50A654E6002D21DE54F650F6002D291
:10710F0034E550650D6002D234E551650E6002D250
:05711F0034C21FA23480
:0B712400227BFF7A00799D1292BB22B3
:0BC7EF009000B2E50CF0A31212F7223C
:10C2DB00126F9F128DD53022117BFF300D067A0124
:10C2EB007975800C7A01799B80067BFF7A0179B98D
:08C2FB007D021292BB02A11F9B
:108DD500E50E12125390024EF0BF30047F2080053D
:108DE50090024EE0FF12C378E50E128EB97F2F1266
:108DF500C378E50D128EA5E50D128EB97F2F12C32E
:108E050078E50F128EA5E50F128EC27F2012C3786A
:108E1500E50C12125390024EF0BF30047F208005FE
:108E250090024EE0FF12C378E50C128EC27F3A1213
:108E3500C378E50B128EAFE50B128ECB7F3A12C3CA
:108E450078E50A128EAFE50A128ECB7F2012C37821
:108E55007F2012C378900006E090024EF03395E033
:108E6500C364809480501A7F2D12C378900006E069
:108E7500FF3395E0FE7CFF7DFF12156490024EEFF7
:108E8500F01213032430FF12C378121303AFF0EF6F
:108E95002430FF12C3787F7A12C378E4FF02C378C7
:108EA500C4540F2430FF12C37822C4540F2430FF5A
:108EB50012C37822540F2430FF12C37822540F2492
:0F8EC50030FF12C37822540F2430FF12C37822DB
:10A11F007BFF7A0179CFE4FD1292BBE50875F00E53
:10A12F00A412133EFF12C3781210EEFF12C3787FF2
:10A13F002E12C378121167FF12C378E50875F00E5F
:10A14F00A4121349FF12C3787A0179E412A1CE78D1
:10A15F0080E6FE08E6FFE4FCFD9002527407F01261
:10A16F00712F7D011292BB7A02790112A1CE90025A
:10A17F00B51218B8900252740CF012712F7D0112A3
:10A18F0092BB301934D37881E6940018E6940040DE
:10A19F00289000BAE004F07BFF7A02791A7D011251
:10A1AF0092BB9000BAE0D312136D400D7BFF7A0281
:0FA1BF0079277D011292BBD2081211560292BB72
:08A1CE007BFF7D011292BB2210
:10B8A30075F1BF75F2FF75F3FF75F47E75F5FF75DE
:10B8B300A41D75A5E775A61975A77A75AE8075D40D
:10B8C300C875D5FF75D61975DFFF75E10775E240B9
:10B8D30075E301C23BD2A075C70312C3E97BFF7AAC
:10B8E300027939E4FD1292BB7BFF7A0279647D020F
:06B8F3001292BBD2B42248
:0547940090016EEFF042
:10479900C225D296D22212C7D7752A05D2247A0207
:1047A900798C124A28201B097A0279C4124A288076
:1047B90006D290D295D2A47A0279E7124A3EA2098A
:1047C9009226C20912C82DD290C2A4200802C2950D
:1047D900E52A6033D2229000BB7424F07F07122CA3
:1047E900AB124A6C121235400AD3EF944474809488
:1047F9008040DD7A03791D124A3E9000BB7424F093
:10480900D222124A7880C9121235400AD3EF944451
:104819007480948040147A03792F124A46D290D238
:1048290095D2A4D20DD225124A78D245A226920950
:1048390012C5A7300D14D222E4FF122CAB7A0379EA
:1048490063124A46D225D20D80107A0379AD124AF5
:104859005C3009061249D71249D7D245304526306E
:104869000D23300D127F01122CAB3009061249F2CB
:104879001249F2D24280E57F07122CAB7A047936CD
:10488900124A5C80D712C7D7C22912209ED290D271
:10489900A4200802C295300D0E300906124A0D12E5
:1048A9004A0D7F03122CAB2091047F0680027F05FD
:1048B90012C7BE90016EE060107F0512C7BEC29696
:1048C900C2227A04797E124A647A04799B124A6474
:1048D900D290D2A4D29512C5C0D227126DF412A1DA
:1048E9001FA20D9290C2A4200802C2951210EEFFD9
:1048F900C394335004C224800BEFB43307C39432FA
:104909005002C22420094DD2A4D29543F31090013C
:104919006F7401F0A3742CF0E5C730E03790016F94
:1049290074FFF5F0121617FED3E5F09400EE94002B
:10493900402230240C201E09200802C295B2A4800E
:1049490007C2A4200802B295752A02E52A60C91295
:104959004A6C80F7C290C2A4200802C29530094C63
:104969007A0479B9124A8412C5C012C7D77BFF30BD
:104979002515124A30124A307A0479E0124A8C7BA2
:10498900FF7A0479E08013124A4E124A4E7A057969
:1049990001124A8C7BFF7A0579017D207C00126126
:1049A9007CC290D2A4200823C295801F9002B51220
:1049B9001901000000001213747A057922124A8441
:0D49C9007BFF7A0579357D051292BBD21770
:1049D600227BFF7A0379F47D207C0012617C7BFFC9
:1049E6007A0379F47D207C0012617C227BFF7A04B5
:1049F60079157D207C0012617C7BFF7A0479157D18
:104A0600207C0012617C227BFF7A04795D7D207C0C
:104A16000012617C7BFF7A04795D7D207C00126147
:104A26007C227BFF7D051292BB227A0479E07D20F1
:104A36007C0012617C7BFF227BFF7D051292BB22EC
:104A46007BFF7D051292BB227A0579017D207C00D1
:104A560012617C7BFF227BFF7D051292BB227BFFCE
:104A66007D051292BB22152A7DE47CA27F1912C114
:104A760064227F09122CAB126F9F128DD5227BFF09
:0E4A86007D051292BB227D207C0012617C22F5
:106DF400E4F52BF52C90011EE014F0301B07D2A40F
:106E0400300D02D2909000A1E0FEA3E0FFD39405E0
:106E1400EE9400400C9000A174FFF5F0121601806E
:106E24000CEF64054E700620150343EF1020150681
:106E3400201B03302702D228129C7975F43E20B21D
:106E44002A900156E0FF14F0C3EF940174809480FB
:106E540050199000B61211BFD2B112C22B90015634
:106E64007404F012128312C164C2B1E4F508C2833F
:106E7400301B07200804A21E9295126F8BD2833018
:106E84001B1F200802C295126F95200804A21E92AF
:106E940095126F8B200802C295126F95200802C2CA
:106EA40095C21E7DE47CA27F0F12C164127C5A300D
:106EB4001B07200804A21E92957F01EFC312120B38
:106EC4005009120DC01212C4026EBF201305301BEC
:106ED40002C295750807201502D2B3201509201B9C
:106EE40006202703026F6C303C03202868304104DD
:106EF400C221803E30213B20413812120640337BB0
:106F0400FF7A05796AE4FD1292BB128DD57BFF7A74
:106F14000579837D021292BBE4FF12899412C7EFB4
:106F24009000B2E0FF12C7128F12D206D212D228FA
:106F3400C22190011EE0FF7E00C3940174809480FE
:106F44004010302702800BD3EF9404EE64809480C9
:106F5400400312137B2028093015033041033027E6
:106F640007A227922912209E30150D12C7D7C229D5
:106F7400128762C22B12C522C28CE4F5FE301B04B8
:076F8400C2A4C29002004606
:106F8B007DE47CA27F0F12C164227DE47CA27F0A88
:046F9B0012C1642299
:10BEBD0090017B121994802F9001821211C6402F90
:10BECD00E014F090017E12124290017B12197490D1
:10BEDD000182E0F582758300EF12154290017E120A
:10BEED0018B87B0A1210E790017E1218DC80C92267
:10636C00D226126F9FE490016DF09000EFF0F5557E
:10637C00F556F55790016FF0A3F01212D19434EE4C
:10638C009400501474BB2FF58274003EF583E4F036
:10639C0090016F1211C080E29000FB742FF09000FE
:1063AC00FEF09001037420F0900106743AF0900115
:1063BC0009F01293AC9001571210A540121210A4C0
:1063CC00400D90015A1210A540051210A45047C25E
:1063DC000F7BFF7A0579868029200F2D12127F12F0
:1063EC00C164D287C2B4E4F5FED2B4C22B12C5226A
:1063FC0012652F12652F12125A12C1647BFF7A0597
:10640C0079BB7D051292BB80D07BFF7A0579E47D48
:10641C00051292BB8002D20FE490016FF0A3F01230
:10642C0012D19405EE9400502A74802FF5827400DA
:10643C003EF583E0FF3395E0FED3EF9439EE6480B4
:10644C00948050051210AB5002C22690016F1211AD
:10645C00BF80CC9000A9E0642C6002C22620265696
:10646C009000807430F07439121268F0A3F0E4904C
:10647C0000A5F090015EF0900006F090013CF090C9
:10648C0001577420F0A37430F0742E12126804F0CB
:10649C009000A67448F0A37432F0A3744FF0A37468
:1064AC002CF0A37446F0A37452F0A3742C1212694E
:1064BC00F01299F28021C210C20AC22090013CE075
:1064CC00FF30E402D210EF30E502D20AEF30E602E0
:1064DC00D220E49000A5F012967590011F7453F031
:1064EC00A314F0900080E0900121F0900081E090E6
:1064FC000122F0900082E0900123F0900083E09064
:10650C000124F0900084E0900125F0A3745FF01258
:10651C00137B12C7EFD227126DF412C84E12967568
:02652C00C23972
:10652E00227D907C5F7F7512C1647D907C5F7F754C
:04653E0012C1642200
:10958A00E490016EF030930302964B301B0302966F
:10959A005E9000A4E0600302965EC20CF5FE20080D
:1095AA0002C295C2A4C2907A0579EF12966D12A1F1
:1095BA001F7A06791D12966D9000A0E0605B126F0B
:1095CA009F7BFF7A067927E4FD1292BB128DD51292
:1095DA0011561292BB123774126F9FC22B12C522F8
:1095EA0012965F7FFA12C16412965F7FFA8016D3D1
:1095FA00E55B1211C84013C22912209E126F9F7D8B
:10960A00907C5F7F6412C16480E5C22912209E208B
:10961A000E13D2421226A7800C12125A12C16412D9
:10962A00125A12C164D2429000A0E0700312377439
:10963A00C22B12C5229000F8E0640A7017740BF06E
:10964A0022301B107BFF7A0679387D051292BBD235
:04965A002612C3C44D
:10965E00227D907C5F7FFA12C1647D907C5F227BBD
:07966E00FF7D051292BB22F3
:10C1FA00E5C930E614200E0ED20EC222EF3395E0C6
:10C20A004F701D12A7520268D0300E05C20E12C21C
:10C21A005AE4F5A9F5B9C215301B05200802C295E2
:01C22A0022F1
:04560300AB07AA0641
:10560700E555121253121212EFF0E555540F2430DC
:10561700FF1211D0EFF0E5561212531211DCEFF022
:10562700E556540F2430FF1211E8EFF0E557121238
:105637005312119BEFF0E557540F2430FF12118FCF
:10564700EFF030051F12121274301211CF7430129E
:1056570011DB74301211E7743012119A745312115E
:105667008E744CF020225690007DE0F53BA3E0F5C8
:105677003CE53C120F5740031212DB74042BF582F2
:105687007404120F3F40031212DB74032BF582746C
:1056970004120F3F40031212DB74022BF5827404CD
:1056A700120F3F40031212DB74012BF582740412B0
:1056B700113512119B744712118E7444F030071F75
:1056C700121212744C1211CF744F1211DB7457124D
:1056D70011E7744212119A744112118E7454F074C6
:1056E700072BF58274041212619000B6E0F53BA314
:1056F700E0120F554003121148740B2BF582740406
:10570700120F3F4003121148740A2BF582740412DA
:105717000F3F400312114874092BF5827404120FCE
:105727003F400312114874082BF582740412113597
:10573700740C2BF5827404121261202216753B003B
:1057470085103CE53C12128A1211351211F3121220
:10575700988010900160E0FFC4121298121135EF83
:1057670012128A121135740F2BF58274041212610A
:105777002D601024F06014247070181210B5743066
:10578700F080161210B57479F0800E1210B574639C
:10579700F080061210B57478F012130EEF640F4EF6
:1057A70070081210B57446F08026EF640A4E700830
:1057B7001210B57441F0801812130ED3EF9400EE57
:1057C70064809480400AE5092430FF1210B5EFF099
:1057D7007884E6FC08E6FDEC120F574003121148E7
:1057E70074112BF5827404121135121316120F5708
:1057F700400312114874122BF58274041211357884
:1058070085E6120F57400312114874132BF5827463
:105817000412113574142BF582740412126178770F
:10582700E6FC08E6FDEC120F574003121148741509
:105837002BF5827404121135121316120F574003F9
:1058470012114874162BF58274041211351211F3D4
:105857007878E6120F57400312114874172BF58218
:10586700740412113574182BF582740412126190A6
:105877000088E0120F57400312114874192BF58264
:0558870074041211354C
:01588C0022F9
:0BC16400900171EFF0A3ECF0A3EDF0F0
:10C16F00E4A3F0900171E0FF900174E0C39F5016BB
:10C17F00E4F5FE900172E0FEA3E0FF12002E9001A5
:06C18F0074E004F080DD05
:01C195002287
:10B8F900C211C209C215C2A4200802C295E490006F
:10B90900A1F0A3F0C22912209E7A06795912B947EB
:10B919007D02E4FF12BB33304210D22612C3C47A2F
:10B9290006797B12B94743EF1022201B107BFF7A5F
:10B939000679C67D051292BBC22B12C522227BFF56
:06B949007D051292BB22F5
:10A75200900161740CF0A37403F0E4900164F09032
:10A762000166F0900168F090016AF0900080E0903C
:10A772000163F0900081E0900165F0900082E0902A
:10A782000167F0900083E0900169F0900084E0900E
:10A79200016BF0E4A3F012BC5B900BC9E493FE746E
:10A7A2000193FF900BCBE493FC740193FD7BFF7A42
:10A7B2000C79039001751219947B017A01796190E9
:10A7C2000178121994900C21E49390017BF0900C83
:10A7D20022E49390017CF0900C23E493FB740193A8
:10A7E20090017DCBF0A3EBF07BFF7A0B79CD128247
:04A7F2009A02C5A75B
:087EE10090017BEFF0A3EDF02E
:107EE900E4A3F0A3F090017D1212D49406EE94005D
:107EF900501F90017BE090043A120D01E5822FF5A5
:107F090082E5833EF5837420F090017D1211BF80D4
:107F1900D490017BE0FF900439120D0E7420F0908B
:107F2900017CE0FD7C0064016008ED6403600302EC
:107F39007FC0ED64034C7063120EDC742EF0900167
:107F49007DE4F0A37406F09000F012124290017DD6
:107F5900E0FCA3E0FD90017BE0900439120D1BE5E4
:107F6900822DF582E5833CF583EFF09000F012183D
:107F7900B8E47B0A1210E89000F01218DC90017D39
:107F890074FFF5F012160190017DE07002A3E07014
:107F9900B69000F01219010000000090017BE0FF8B
:107FA900900442120D27744FF0EF120F36746C12C1
:107FB9000D4E7464F0804B90017CE0FF7E006402FA
:107FC900702490017BE0FD900442120D33744EF051
:107FD90075F080ED120F397465F075F080ED120DB2
:107FE900537477F0801CEF64044E600890017CE0C4
:107FF9006405700E90017BE0FF75F080120D3974F5
:1080090053F090017BE0FF75F080120CC0746B1285
:058019000C267430F09C
:01801E00223F
:10BCA200E4FEEEC312136D501290043A121354E5DF
:10BCB200822E12110B7420F00E80E7120EDC74201B
:10BCC200F01210507466120EF17466120FFC746654
:10BCD200120EFC746612101B7466120CFC7466124F
:05BCE2000C267430F097
:01BCE700223A
:027B1400A905C1
:107B1600C22B75F080EF120D397453F0E4FEEEC3FC
:107B2600941974809480500F120F6EE5822E1211F4
:107B36000B7420F00E80E77D0FE4FEEEC3941874FC
:107B460080948050341212E2642C600D120F6EE5A0
:107B5600822E12110BECF0801CEDFB64196005EB14
:107B6600642770110D1212E2120F6EE5822E1211A9
:107B76000BECF0D22B0D0E80C2E96404700B75F08D
:107B860080EF120CC0746BF0221210507420120E8B
:107B9600F17446120FFC7469120EFC747812101BF5
:107BA6007420120CFC7420F09000C3E09004321292
:107BB6000D5DEEF09000C2E0900431120D69EEF01A
:107BC6009000C5E0900435120D75EEF09000C4E00B
:107BD600900434120D99EEF09000C7E0900438122C
:107BE6000DA5EEF09000C6E0FEEF120DADEEF03002
:107BF6002B2D9000E8120D59EEF09000E7120D655E
:107C0600EEF09000E6120D71EEF09000E5120D9583
:107C1600EEF09000EA120DA1EEF09000E9802B90B4
:107C260000E6120D59EEF09000E5120D65EEF090AB
:107C360000E4120D71EEF09000E3120D95EEF09057
:107C460000E8120DA1EEF09000E7E090042E120F6E
:037C560007EEF046
:017C59002208
:10A1D600EF120F927441F0EF120F9B742FF0EF12F3
:10A1E6000FA4744E1211AE2416F582E43400F583E2
:10A1F600E090045F120F071211AD2415F582E434C6
:10A2060000F583E090045E120F8A1211AD2414F556
:10A2160082E43400F583E090045C120F8A1211ADDB
:10A226002413F582E43400F583E090045B121034C5
:10A236001211AD121349900457121034EEF0ED12BC
:10A246001169900456121081EEF0ED1210F0900490
:10A25600541210811211AD12133EFE9004531213C4
:10A2660054EEF0EF120FAD7420F0EF120FB674201B
:10A27600F0EF120FBF7441F0EF120FC8742FF0EF1A
:07A28600120FD1744EF0220B
:1026A700D224D225C290126F9F9000F8E0FF9000CD
:1026B70088F06401600AEF64026005EF6403700943
:1026C7007A0679F5122C9BD242301A0D200A0AC2DB
:1026D7001AE49000A4F0C24222301A0920420620D0
:1026E70022033001069000A4E06003C21A223022C0
:1026F7001A90013AE0D3940374809480400D2042ED
:102707000A7A077910122C9B02279F301A12200190
:102717000F7BFF7A0779B37D051292BBC21A802C13
:1027270030421E900087E0D31212BD4006200103FD
:10273700C24222900087E004F07BFF7A0779E880A5
:10274700067BFF7A0879077D051292BB9000A47477
:1027570078F0309648302245301B02D29012B0E410
:10276700EF3395E0C3648094805037C2257A0879A7
:1027770029122C1FC222900007E0C394767480941C
:1027870080501F20011C126F9F7A087941122C1F5D
:10279700128DD5122C4BC242C21AD205227F0512C6
:1027A700C7BE304218E50A6453600AC22912209E48
:1027B700126F9F80F07BFF7A08796C800F9000F88A
:1027C700740AF0126F9F7BFF7A087994E4FD1292E6
:1027D700BB12C62153A8FE201B03300106D295B2B7
:1027E700A4C2901210EEFF9000F8F0121167FE904D
:1027F70000F8F0640260030228BDEFC394337480CD
:102807009480500BEE9438748094805002D2074322
:10281700F14043A440C286122C15122C1553A4BFB5
:1028270053F1BFE4F52AC3E52A94147480948050C9
:1028370014301B02B2A4122C27301B02B2A4122C94
:1028470027052A80E19000887402F0E4FF1289943A
:10285700E4FF128994E4FF12899412C7D7C22912A0
:10286700209E201B03300107200802C295B2A41244
:102877002C73301B02B2A4122C73301B02B2A47B40
:10288700FF7A0879B27D021292BB3007099000F8EF
:102897007408F0D24222D22612C3C443EF10C22BCF
:1028A70012C52212636C9000F87408F0D2427D467C
:1028B7007C00E4022B90128DD5122BE930422512B1
:1028C700C7D7201B03300102B2A412127F12C164C2
:1028D700D287126F9F122C397A0879CD122C3112B8
:1028E7002C57D21C301B04D295B2A4E4F52AAF0AA8
:1028F700EF7003022A3F302222300D1F30961C64EE
:10290700586018301B02C29020A5FD122C85122B8F
:10291700B4201B03300118D2908014201B03300110
:1029270002C290E50A64586003122C85122BB4E5A5
:102937002A5401700D300D0343C780301B0FD2A4FA
:10294700800B300D0353C77F301B02C2A4E50A6416
:1029570058709BC22912209E12C7D7309646302244
:1029670043300D40D290D2A4200802C295C2053050
:10297700A5FD126F9FE50A121336500B7A0879D01E
:10298700122C31D205801D122BE9122B951212A69B
:1029970020A5FD122C39C2B47A097906122C4320DE
:1029A700A51880FBC20DC2902094FDC2B47A0979A4
:1029B7000B122C431212A63094FDD2B47A09791067
:1029C700122C6BD239D20BB2A4D295126F9FE50AA3
:1029D70064586087122B95E50A645970167D907CC0
:1029E7005F7F0A12C164126F9F122C577A00799D7C
:1029F700122C6BAF0AEF6401600FEF6402600AEFFD
:102A070064036005EF6404700AC22B12C5227509BE
:102A17000F8025AF0A7E00D3EF1212BD50030228A4
:102A2700F5EF12133740030228F5C22B12C5227A9D
:102A3700097914122C7DD205E4F5FE201B03300121
:102A470004D295D2A47D907C5F7F0E12C164E4F519
:102A570009126F9FC22912209E303929AF0C12C765
:102A6700127E007C007DF01215647879A60608A610
:102A770007AF0B12C712EF75F004A4AEF0787A26F1
:102A8700F618EE36F630423E122C4B20050B7BFF34
:102A97007A097928E4FD1292BB3039277A09793807
:102AA700122BF57879E6FE08E6FF7877A60608A6E2
:102AB700077A097951122BF57A097955122C7DC2BB
:102AC7000BC239E4F514128DD5200502C242C21A91
:102AD700E490013AF0302247D2909000B8F0A3F08A
:102AE700E55A455960237A09795A122CA3AE59AF92
:102AF7005AE4FCFD9002527406F012712F7D011208
:102B070092BB7A09796A122CA3D245E50A6401704F
:102B17000E7BFF7A09796D7D011292BB75090E90C4
:102B270000F8E0FF6405600DEF64036008EF6401DF
:102B37006003740AF0122C8F300104C20180031263
:102B4700C835C22B12C522752A01122BD6303C1765
:102B5700AF2A052AD3EF1211C8400CC22912209EB2
:102B6700122BD6B2A480E612C7EF200802C295C284
:102B7700A4C290122C8F7F0512C7BEC290E49000AA
:0D2B870007F09000A4F07D46FCFF12C6C9C7
:102B940022AF0AE4FCFDFE90025204F012712F7D74
:102BA400011292BB7BFF7A00799D7D011292BB22B8
:102BB400126F9F7BFF7A00799D7D011292BBAF0A51
:102BC400E4FCFDFE90025204F012712F7D0112927A
:102BD400BB227D907C5F7F0E12C1647D907C5F7F01
:102BE4000E12C164227BFF7A00799D7D011292BB93
:102BF400227BFF7D011292BB7877E6FE08E6FFE4B4
:102C0400FCFD9002527406F012712F7D011292BBEA
:102C1400227D907C5F7F7512C164227BFF7D01124F
:102C240092BB227D907C5F7F7512C164227BFF7D05
:102C3400011292BB227D907C5F7F0E12C164227BC5
:102C4400FF7D011292BB227BFF7A08796B7D021211
:102C540092BB22AF0AE4FCFDFE90025204F0127112
:102C64002F7D011292BB227BFF7D011292BB227D3C
:102C7400907C5F7F7512C164227BFF7D011292BB41
:102C8400227D907C5F7F0F12C164227BFF7A0879DA
:102C94006B7D021292BB227BFF7D051292BB227BCD
:072CA400FF7D011292BB222B
:10C42F00C22912209E30490812C7D77F07122CABA2
:10C43F00C22912209E9000A4E07005C22B12C522C3
:01C44F0022CA
:10209E00E4F5FEE55B700302268C9000F8E0FF6429
:1020AE0004600AEF64036005EF64017006304203BA
:1020BE0002C5C0301B03309309200E0620290302EF
:1020CE00268512C7D79000B2E0900177F09000B34A
:1020DE00E0900178F09000B4E0900179F09000B5B6
:1020EE00E090017AF0300607C2167533F080199031
:1020FE00080EE0F533D216900177E0700B12C19600
:10210E008F109001781212F7900178E0700B7BFF20
:10211E007A0979727D051292BB900177E0F50CA3D6
:10212E0012132285132F301B0920930612C5F212AB
:10213E00C842E4F530E530C3955B4003022670AF2C
:10214E001312B2C4C3E52F1212BD400302262DE4B2
:10215E00F5FEC20690080012100AC4F854F0C868C2
:10216E007984F7A3E0C4540F4809F79008011210C0
:10217E003FFF640E6005EF640F7004D206D2169016
:10218E00080D121070540FF531C22A3006030224C6
:10219E0044E4F534753503753503C3E53594097498
:1021AE008094805042E535540175F00F700C12107A
:1021BE00FFE0540FF532053480091210FFE0C454CD
:1021CE000FF53274302532F532120F5D400674076A
:1021DE002532F532E52F120F81E582253512110BCE
:1021EE00E532F0053580B312103CC413135403F5D9
:1021FE003414600F146011146013240370127535BB
:10220E00EE800D7535EF80087535F080037535F16C
:10221E0012116012135BAF35E4FCFDFE9001827467
:10222E0003F012BEBD12103C543FF53290047412EE
:10223E000F25EFF0E53275F00A84F5329004731233
:10224E000F25EF12115F246AF97404900808120F1B
:10225E00E612268D121160247AF9740490080C127D
:10226E000FE612268D12106DD39464748094804004
:10227E000BC219E49000BAF0C2088002D2191210F3
:10228E0089FFE4FCFDFEFBFA7901F81216FA121131
:10229E003CC006C00790080A12108C7B00FAE4F9C5
:1022AE00F8D007D0061213829001711218C490084C
:1022BE000B1210CAFFE4FCFDFE121382301C0EC27C
:1022CE001675338012269C9000B312132212130E31
:1022DE00EF640E4E7005751401800EEF64014E70A2
:1022EE00057514FF8003E4F5141210C7FEA3E0FF7A
:1022FE0090007DEEF0A3EFF07877E6FC08E6FDEFB8
:10230E002DFFEE3CFEE48F398E38F537F536AD37BE
:10231E00AC367B0FFAF9F81216FA1211878C36AF1B
:10232E0014EF3395E0FEFDFC121178F5367B407A02
:10233E0042790F7800121142121785121178F53674
:10234E00E47B3CFAF9F8AC36121785AF038F2D12E9
:10235E0000168F0AAF39AE38AD37AC36E47B3C127F
:10236E0010E81211878C36E47B3C1210E8AF038F15
:10237E00351200168F0B1210D4AF038F2EE4F5FE1C
:10238E0090080E1211B5B5330BE530700CD2161243
:10239E00269C8005753380C216AF2EEF3395E04F25
:1023AE007036D3E52E6480F8E5126480984029904B
:1023BE000175E50AF0900177E50CF0900176E50BDA
:1023CE00F012C1968F10900175E0F50A900177E03A
:1023DE00F50C900176E0F50B852E12AF2E1200163D
:1023EE008F0C121160243AF9740435F0FA7B01C097
:1023FE0003C002C0017B407A42790F78001211426D
:10240E00121785AC00AD01AE02AF039001827406C7
:10241E00F0D001D002D00312BEBD121142E47B10E7
:10242E007A27F9F812178512113CE4FDFC12113CC3
:10243E0012132E0224A01210C7F535F50A900800CB
:10244E001211B5F50B12103CF50C121089F50D900A
:10245E00080A12138BF50E12106DF50FAF0A12C784
:10246E00128F2D90080112138B640E700DAF2F1268
:10247E00BCA29000B2E0F50C8009121007FDAF2F40
:10248E00127EE1C2167533F09000B2E0FF12C71251
:10249E008F12E4F5FEC21CAF2F12AF65AD31AF2F18
:1024AE0012A1D63006030225451210D41211139034
:1024BE00043212105AEFF0AF0312112590043112AC
:1024CE000FDAEFF0E47B3CFAF9F8AF39AE38AD37FE
:1024DE00AC3612178512111390043512105AEFF004
:1024EE007C007D0AAF03AE02121576900434120FF3
:1024FE00DAEFF01211427882EEF608EFF67C007DEC
:10250E006412157612132EE52D75F00A121495AF7E
:10251E00F0EF2430FF90043812121DEFF0E52D7508
:10252E00F00A1214952430FFE52F120DADEFF0E5F1
:10253E002F120EDD742EF012114212132E9004255E
:10254E0012121D7420F0E4F5FE300E0330090A302D
:10255E002966E55B146530705FE4FDAF2F12BB3367
:10256E00E4F5FE202A1BE530700A121160FFAEF072
:10257E007DE08008121160FFAEF0AD33125603807D
:10258E0016121007FF64046005EF6405700912103F
:10259E0007FDAF2F127B14AF2F1272B675F080E5C8
:1025AE002F120EE0742E12115F12127012617C7DCA
:1025BE0003AF2F12BB33C229302011A206922BAFCC
:1025CE002F127436E52F120F78742CF0301B3A2030
:1025DE009337E4F5FE202A1BE530700A121160FFD6
:1025EE00AEF07DE08008121160FFAEF0AD331256F2
:1025FE00038016121007FF64046005EF640570096E
:10260E00121007FDAF2F127B14852F13052F0530E7
:10261E00E530655B6003022152752F0402215230B2
:10262E001B3A209337E4F5FEAF130513C3EF940363
:10263E0074809480400E7D017F007E0212B4F2E41D
:10264E00F5138018E5132401FFE433FEEF7807C37A
:10265E0033CE33CED8F9FFE4FD12B4F2E4F52F02F7
:10266E00214320060312C7EF301B0C20930912C51D
:0E267E00F212C842129FA4C22B12C522C23C07
:10268C0022FFE4FCFDFE9001827403F012BEBD2219
:0B269C009000B2E0FF12C7128F122264
:10887D00D295D2A4D290D219C208E49000BAF0D207
:10888D009612125A12C16412125A12C164E4900067
:10889D00A4F012C1968F10850C1112C7D712C5C046
:1088AD0012C67AC21BC209C218E4F5FE7F0512C7B3
:1088BD00BE12BFEBE490013AF0C2A3D283D2B5C28F
:1088CD000EF5FE12C835C2A3D283D2B5D2A4C215FD
:1088DD00E4900007F0F5FED2AFD242C2177F04122A
:1088ED00ADD07F0212ADD07A0979A012898C309368
:1088FD00097A0979D212898CD2427F0112C48F90E4
:10890D0000F87404F0E4F5089000A1F0A3F01263F0
:10891D006C12C6217F01EFC312120B5009120DC04C
:10892D001212C40289237508079002B512190100AD
:10893D000000001213747BFF7A0979E77D0512920E
:10894D00BBD201E49000EFF090011DF090015F7437
:10895D0063F0E490016DF090013DF090007FF09098
:10896D00013BF0D2A0C290C2907F0112C1FA7BFFF1
:0E897D007A0A79057D051292BBC20EE4F5144C
:09898B00227BFF7D051292BB2244
:0D00460075F1F875F3EF43E28075F5FF22C8
:0574360090017BEFF066
:10743B007BFF7A0A793F7D011292BBE4900085F0C5
:10744B007B017A0079807D011292BB127585FF90CA
:10745B000440120D5FE4F0EF75F080A42426F9745C
:10746B0004127576900440120D6B7420F012758522
:10747B00FF900445120D77E090017C120EF1E09025
:10748B00017DF090017BE0900447120D8FE090019D
:10749B007E120EFCE090017F1275A090017C742C83
:1074AB00F090017BE0FF900449120D9BE090017D71
:1074BB00120CFCE090017EF0A3742C1275A09001CD
:1074CB007BE0FF900459120DA7E4120D7DE4F075DB
:1074DB00F080EF202B17120F68E4120F0FE4120F3E
:1074EB001A742CF075F080EF90047E800390045F8B
:1074FB00121956E4F0EF75F080A42453F9740412BA
:10750B00757675F080A4245AF97404127595202BA6
:10751B00281212B4246AF974041275951212B4125B
:10752B00135B7D011292BB1212B4247AF9740435E9
:10753B00F0FA7B017D011292BB90017BE0FF90047E
:10754B0059120DB07420120D7D7420F0202B11EF09
:10755B00120F657420120F0F7420120F1A742CF077
:0B756B007BFF7A0A79467D020292BB8A
:1075760035F0FA7B017D011292BB90017BE0227B04
:10758600FF7A0A79437D011292BB90017BE0223596
:10759600F0FA7B017D011292BB22F0E4A3F07B019D
:0A75A6007A01797C7D011292BB226C
:1090D100E4FF12C6EE40030291AF303D03029175E9
:1090E1009000A4E06003029175301509FC1291B063
:1090F1007C001291B020421E1212EF600AEF64024E
:109101006005EF6403700FD242C22B12C5227BFFB0
:109111007A0A796C800BC22B12C5227BFF7A0A79FD
:109121007FE4FD1292BB128DD51211561292BB2013
:10913100426B9000F8E0FF64026005EF6403700E7B
:109141009000F87402F07BFF7A0A799D801F9000ED
:10915100F8E06401700B7403F07BFF7A0A79B18047
:109161000C9000F87401F07BFF7A0A79C57D051235
:1091710092BB80291212EF600AEF64026005EF646E
:1091810003701A7BFF7A0A79D9E4FD1292BB128D22
:10919100D51211561292BB9000F8740AF09000A4F7
:1091A100E07002C23D7D467C00E4FF12C6C9227B0D
:1091B100FF7A0A794B7D2012617C7BFF7A0A794B19
:0891C1007D207C0012617C227C
:1068D00012BC5B9000F4E0645B6003026A817BFFA2
:1068E0007A0A79EAFD1292BBE49000F7F07B017A14
:1068F0000079F47D011292BB1211561292BBE49002
:1069000000F4F09000BBF09000F5E01219A969487E
:106910004169864369F3446A18496A264C6A2E4ED7
:1069200069864F6A33506A38536A41546A53556ACC
:1069300053566A5D576A645869865A69736369DD9C
:10694000646A487400006A6F7F0612C7BEC2227B69
:10695000FF7A0A79F57D051292BBE4FDFF12A1D6FC
:10696000126A89C215200802C295121395126A8212
:10697000026A7AD211126A82E4FDFF12BB3312B9A5
:10698000A4D2A4026A7AC21AC242C215200802C264
:1069900095C22212C5C012C7D712636C12C1968F5E
:1069A000109000F5E0FF64436004EFB45A12125FE8
:1069B00063C22BE4FF1274367BFF7A0B79088009DF
:1069C000129E187BFF7A0B79187D051292BBC2A428
:1069D000D209E4FDFF12BB33D2A4026A589000BC76
:1069E000E55BF0C22912209E9000BCE0FF12BBC9FB
:1069F000026A7AD215C227126DF4E4FDAF1312BBFE
:106A000033E51375F080A412127012617C7D02AF21
:106A10001312BB33C2158062C2091283D1D209128C
:106A2000137BD2458054D215C290D295804C12BFB0
:106A30003B804712B1D68042C21520083DC29580E6
:106A40003912B55AD2178032C2117D02E4FF12BB4F
:106A5000338027D229128762121395801D7F01127D
:106A60004794801620110330091012B8F9800B7B6F
:106A7000FF7A0B79287D051292BBE49000F5F0A314
:096A8000F02212C5C012C7D72292
:0300530002C303E2
:10C30300C0E0C0D075D000C007AFBBEF641E70089B
:10C3130075BB0475BCFC800675BB1E75BCF8C2ED0D
:07C32300D007D0D0D0E032BA
:03008B0002B3AB12
:10B3AB00C0E0C0F0C083C082C0D075D000C000C068
:0DB3BB0001C002C003C004C005C006C007E9
:10B3C80012C777EF30E2317B013009237A0079BB6D
:10B3D8007D311285039000BBE09000F4F09000BC32
:10B3E800E09000F5F09000BDE09000F6F080097A5A
:08B3F8000079F47D03128503C6
:10B40000D007D006D005D004D003D002D001D000A0
:0BB41000D0D0D082D083D0F0D0E0324A
:10C39F00FDFC121851E53E4FFFE53D4EFEE53C4DCD
:10C3AF00FDE53B4C8F3E8E3D8D3CF53B229001F4DD
:05C3BF001218B8E42291
:06BDF7009001F41218DCBB
:10BDFD00E4F53EF53DF53CF53B12C3BCFFFEFDEC15
:10BE0D00781812183E12C3A412C3BCFFFEE4FC78CE
:10BE1D000812183E12C3A412C3BCFFE4780812C363
:0BBE2D009F12C3BCFE781812C39FFCDC
:01BE380022E7
:02C7FA00AD0789
:08C7FC00EEFBEDFAEBAE02FFCB
:01C804002211
:109EE4001201100100000040C41000020000010033
:109EF400030109022000010100800F09040000028F
:109F040008065000070581024000000705020240D0
:109F14000000040309042A03530069006C0069006B
:109F240063006F006E0020004C00610062006F004F
:109F34007200610074006F007200690065007300B4
:109F44003803430038003000350031004600780003
:109F540078007800200044006500760065006C00FD
:109F64006F0070006D0065006E00740020004200F8
:109F74006F006100720064001C0330003000370081
:109F84003900380037003600350034003300320021
:109F940031003000FF9F16FF9F1AFF9F44FF9F7CF4
:04003E0001000000BD
:10B94F007596117597409002A37401F0E49002A9C7
:10B95F00F0A3F0227A0079407BFF900298021994AD
:10B96F0075960EE4F5979002A3E06404229002A06E
:10B97F00E0FF7E006481229002A6E06404227596A7
:10B98F0011759748229002A7E4F0A304F022759650
:05B99F000E7597012266
:10A4A90090029DE07010A3E0700C9002A1E070068C
:10A4B900A3E06402600312C4E890029BE0247F6079
:10A4C900131460292402707790029FE07015A3E0AD
:10A4D9006013806B12B986700A90029FE07004A322
:10A4E900E06002805A7BFF7A007940804212B98687
:10A4F900700690029FE06002804512B97C70169048
:10A5090002A4E064037BFF70067A00793E80047A36
:10A51900007940801AEF64014E70229002A5E06430
:10A52900037BFF70067A00793E80047A0079401235
:10A53900B9699002A7E4F0A37402F08005800012C3
:10A54900C4E812B9756008E59620E7FB12B94F22F5
:10AB0A0012B986702090029BE060716401606D90BA
:10AB1A00029DE0706790029FE070619002A1E07070
:10AB2A005BA3E06002805590029BE06402704D9046
:10AB3A00029EE0704712B97C6005EF6401703DEF38
:10AB4A0064814E701AE59620E7FB12B99DE59620BE
:10AB5A00E7FB759611759740E49002A4F08020E512
:10AB6A009620E7FB75960E759702E59620E7FB752A
:10AB7A009614759780E49002A5F0800312C4E8E564
:10AB8A009620E7FB12B96F6008E59620E7FB12B939
:02AB9A008D220A
:10AB9C0012B986702090029BE060706401606C902A
:10ABAC00029DE0706690029FE070609002A1E070E0
:10ABBC005AA3E06002805490029BE06402704C90B7
:10ABCC00029EE0704612B97C6005EF6401703CEFA8
:10ABDC0064814E7018E59620E7FB12B99DE596202E
:10ABEC00E7FB7596117597109002A48019E59620D5
:10ABFC00E7FB75960E759702E59620E7FB759614A4
:10AC0C007597209002A57403F0800312C4E8E596B2
:10AC1C0020E7FB12B96F6008E59620E7FB12B98DAF
:01AC2C002205
:10BB7E0090029BE0701D90029FE07017A3E070137F
:10BB8E00A3E0700FA3E0700B90029DE07005A3E0A0
:10BB9E0030E70312C4E89002A37405F090029EE011
:10BBAE009002A660057403F080037402F012B9755A
:0BBBBE006008E59620E7FB12B98D221D
:108ED40090029DE024FE601C1460391460531460F9
:108EE4006524046003028F827A9E79E412B9679044
:108EF4009EE480497BFF7A9E79F612B969909EF9C7
:108F0400E493FE909EF8E4937C002400FFEC3E90F2
:108F140002A7806490029EE075F003909F98121956
:108F24005612199D12B9691214B7FF9002A7E48072
:108F3400477BFF7A9E79FF12B969909EFFE493FF05
:108F44009002A7E4803290029E12B97F6005EF641C
:108F540001702BEF64814E7BFF700C7A9F790812AD
:108F6400B969909F08800A7A9F790F12B969909F16
:108F74000FE493FF9002A7E4F0A3EFF0800312C480
:108F8400E890029DE0FF64016014EF6402600FEF5B
:108F94006403600AEF64046005EF640570239002C3
:108FA400A2E0FFD39002A8E09F9002A7E0940040C3
:108FB400109002A1E0700AE0FE9002A7EEF0A3EF89
:0F8FC400F012B9756008E59620E7FB12B94F224D
:10B73D0090029BE06480701C90029DE07016A3E067
:10B74D007012A3E0700EA3E0700AA3E07006A3E0F0
:10B75D006401600512C4E880239002A6E0FF7E001C
:10B76D006404700C7BFF7A00793E12B96912B994AA
:10B77D00EF64034E700612B96312B99412B9756075
:0AB78D0008E59620E7FB12B94F22F1
:10AD46009002A6E06402602990029BE070239002C4
:10AD56009FE0701DA3E07019A3E07015A3E07011C9
:10AD660090029DE0700BA3E0D39401748094804020
:10AD76000512C4E8804690029EE0D3940074809445
:10AD860080402D9002A67404F0E49002A4F0A3F093
:10AD9600E59620E7FB12B99DE59620E7FB7596122E
:10ADA600759720E59620E7FB75960EE4F597800CDF
:10ADB6009002A67403F09002A4F0A3F012B9756095
:0AADC60008E59620E7FB12B98D2284
:10BE390012B986702490029BE06481701C90029D67
:10BE4900E07016A3E07012A3E0700EA3E0700AA3DD
:10BE5900E07006A3E06401600512C4E8800612B927
:10BE69006312B99412B9756008E59620E7FB12B917
:02BE79004F2256
:10C0C80090029BE06401701C9002A1E07016A3E04E
:10C0D800701290029DE0700CA3E07008A3E0700459
:10C0E800A3E0600312C4E812B9756008E59620E77A
:05C0F800FB12B98D22CE
:06BADF004302A300000079
:10C28700FEE02400FFEC3EF0A3EFF022900232E044
:10C297004408F0E49002A3F0228566838567822232
:0BC2A7009000031219F3E0FEA3E02258
:0300430002A7F61B
:10A7F600C0E0C0F0C083C082C0D075D000C000C029
:0DA8060001C002C003C004C005C006C007A9
:10A81300E59620E7FB759686E59620E7FB90022EEA
:10A82300E597F0E59620E7FB759682E59620E7FB32
:10A8330090022FE597F0E59620E7FB759684E59661
:10A8430020E7FB900230E597F090022EE030E10321
:10A8530012C81090022EE030E20312C4CB90022FF4
:10A86300E030E003126716900230E030E20312B5E5
:0BA87300BD90022EE030E00312C81A76
:10A87E00D007D006D005D004D003D002D001D0002E
:0BA88E00D0D0D082D083D0F0D0E032D8
:0AC81000900231E475F001021601F8
:10C4CB009002A67402F0E59620E7FB75960175972E
:0DC4DB0001E49002A3F0A37403F0A3F0228B
:10671600E59620E7FB75960EE4F597E59620E7FBF0
:10672600759691E59620E7FB900231E597F0900289
:10673600A3E064057013E59620E7FBE4F596900266
:106746009EE0F597E49002A3F0900231E0FF30E27C
:1067560010E59620E7FB759611E4F5979002A3F0F5
:1067660022EF30E41BE59620E7FB75961175970836
:10677600E59620E7FB759611759780E49002A3F0E5
:106786009002A3E06003026820900231E020E0035B
:106796000268207B017A02799B7D087C007F2012AB
:1067A600BAE590029EE0FE90029DE07C0012C2894E
:1067B6009002A0E090029F12C2879002A2E090028F
:1067C600A112C28790029CE01219A967F00067F532
:1067D6000167FA0367FF05680406680908680E0979
:1067E60068130A68180B0000681D12A4A9802B12F2
:1067F600AB0A802612AB9C802112BB7E801C128EB7
:10680600D4801712B73D801212AD46800D12BE39E4
:10681600800812C0C8800312C4E89002A3E0640195
:1068260060030268CF900231E030E1030268CFE5F1
:106836009620E7FB759691E59620E7FB900231E5F9
:1068460097F0E030E40630E0030268CF900232743D
:1068560002F0C39002A8E094409002A7E094009052
:106866000298402D1219747C007D407F2012B06979
:10687600900299E475F0401216019002A774FF7514
:10688600F0C01216019002A9E475F04012160180BC
:10689600131219749002A7E0FCA3E0FD7F2012B04A
:1068A6006912C2939002A1E0FEA3E0FF9002A9E064
:1068B600B50608A3E0B5070312C293E59620E7FBE9
:0968C600759611900232E0F5977D
:0168CF0022A6
:10B5BD00E4FFE59620E7FB75960E759702E596205C
:10B5CD00E7FB759694E59620E7FBAE979002A5E014
:10B5DD006403700CE59620E7FB7596147597202291
:10B5ED00EE30E60BE59620E7FB759614759780E532
:10B5FD009620E7FB759696E59620E7FBAF97EFFD56
:10B60D007C00E59620E7FB759697E59620E7FBAF66
:01B61D009795
:01B61E002209
:0AC81A00900231E475F001021601EE
:10BAE500900233EFF0900236121994900234ECF084
:03BAF500A3EDF0CE
:10BAF8004C6037900233E0F5964396C0E4FFFED3DE
:10BB0800900235E09F900234E09E401BE59620E7C6
:10BB1800FB9002361219748F828E83E597121542B4
:0ABB28000FBF00010E80D8E4F5966F
:01BB320022F0
:10B0690090FFFD1219CF12199490FFFE1219CFEC1F
:10B07900F0A3EDF090FFFF1219CFEFF090FFFE1251
:02B0890019CFDD
:10B08B00D2B012C2A74E6049E59620E7FB12C2A0D0
:10B09B00A3A3E0F59612C2A0E4F0A3F012C2A7FF9F
:10B0AB0012C2A0E0FCA3E0FDC39FEC9E50239000D6
:10B0BB00051219F31219748D828C831214D0F59723
:10B0CB00E59620E7FB12C2A0E475F0011216018091
:03B0DB00CBC2B035
:06B0DE009000080219CFEA
:10C4E800E59620E7FB75960EE4F597E59620E7FBC1
:0DC4F8007596117597209002A37404F02230
:10BF77001201100100000040C4100000000001027F
:10BF870003010902200001010080FA0904000002F0
:10BF9700FF0000000705020240000007058202407B
:0ABFA700000004030904010000007B
:10829A0090016EEEF0A3EFF0900172EBF0A3EAF01A
:1082AA00A3E9F0E49007A8F09007A8E0FF90BF7751
:1082BA0093FE74402FF582E43407F583EEF09007BD
:1082CA00A8E004F0E0B412E0E49007A8F09007A850
:1082DA00E0FF90BF8993FE74522FF582E43407F5CC
:1082EA0083EEF09007A8E004F0E0B420E090016E7D
:1082FA00E0FAA3E0900748F0EAA3F0EDA3F0ECA3BC
:10830A00F090077274FFF0A374BFF0A374A9F09001
:10831A000172E0F9A3E0FAA3E0900775C9F0A3EAB5
:10832A00F0A3E9F0900175E0F9A3E0FAA3E0900761
:10833A0078C9F0A3EAF0A3E9F0900178E0F9A3E0A4
:10834A00FAA3E090077BC9F0A3EAF0A3E9F0900151
:10835A007BE0FFC394FA500590075AEFF090017C36
:10836A00E0900759F090017DE0FEA3E090074CF001
:10837A00EEA3F0E59620E7FB759601759708E5965A
:10838A0020E7FB75960775970FE59620E7FB75962C
:10839A000975970EE59620E7FB75960B7597077595
:1083AA00D7E012C7CBE4900792F0900791F09007BC
:1083BA0093F0900786F043E602D2AFE59620E7FBFA
:0783CA007596017597012271
:10C32A009007867402F0E59620E7FB7596017597EB
:10C33A0001E490078EF0A37403F0A3F0E49007924F
:07C34A00F090079104F022BE
:105AFA00E59620E7FB75960EE4F597E59620E7FB19
:105B0A00759691E59620E7FB90079CE597F0E0FFF4
:105B1A0030E210E59620E7FB759611E4F5979007B9
:105B2A008EF022EF30E410E59620E7FB75961175AA
:105B3A009780E490078EF090078EE06003025C2F56
:105B4A0090079CE020E003025C2F7596204396C0E4
:105B5A00E49007A8F0E59620E7FB9007A8E0247EEA
:105B6A00F582E43407F583E597F09007A8E004F09E
:105B7A00E0B407E1E59620E7FBE4F5969007A8E094
:105B8A00247EF582E43407F583E597F0900781E0F7
:105B9A00FE900780E07C002400FFEC3E900794F022
:105BAA00A3EFF0900785E0FE900784E02400FFEC65
:105BBA003E900796F0A3EFF090077FE004603B1455
:105BCA00B40C00505D905BD6F8282873025BFA0289
:105BDA005BFF025C04025C09025C2C025C0E025C44
:105BEA0013025C2C025C18025C1D025C22025C2718
:105BFA0012B338803012B680802B128BB7802612EF
:105C0A00B6DF802112C450801C12A064801712BC17
:105C1A0014801212B797800D12C351800812C68ED3
:105C2A00800312C50590078EE064016003025D30AF
:105C3A0090079C7402F0C390078DE0944090078C03
:105C4A00E094004061E59620E7FB759620E4900712
:105C5A00A8F09007A8E0FFC394405022900787E07D
:105C6A00FBA3E0FAA3E0F98F827583001214D0F542
:105C7A0097E59620E7FB9007A8E004F080D4900708
:105C8A0088E475F04012160190078DE024C0F09068
:105C9A00078CE034FFF090078BE02440F090078AED
:105CAA00E03400F08052E59620E7FB759620E490F8
:105CBA0007A8F09007A8E0FFD390078DE09F900710
:105CCA008CE094004026900787E0FBA3E0FAA3E06B
:105CDA00F99007A8E0F5827583001214D0F597E5CC
:105CEA009620E7FB9007A8E004F080C790079CE0A5
:105CFA004408F0E490078EF0900796E0FEA3E0FFD8
:105D0A0090078AE0B50611A3E0B5070C90079CE05E
:105D1A004408F0E490078EF0E59620E7FB759611AB
:075D2A0090079CE0F59722B1
:10C50500E59620E7FB75960EE4F597E59620E7FBA3
:0DC5150075961175972090078E7404F02222
:10B3380090077EE0247F600714600624027048802E
:10B348002D90078FE0B40309900782E0B4020280D1
:10B358000E900790E0B40316900782E0B4820F9035
:10B36800078774FFF0A374BFF0A374AD800D900736
:10B378008774FFF0A374BFF0A374AFF090078CE458
:10B38800F0A37402F0800312C50590078EE06404F0
:10B39800601012C68E90078E7401F0E490078AF050
:03B3A800A3F022ED
:10B68000900780E07048900782E0FFB4021DE596C5
:10B6900020E7FB75960E759702E59620E7FB7596F9
:10B6A00014759780E490078FF08026EFB4821DE533
:10B6B0009620E7FB75960E759702E59620E7FB75D9
:10B6C0009611759740E4900790F08005800012C5B0
:0FB6D00005E59620E7FB75960EE4F59702C68E0A
:108BB700900794E0B4373CA3E0B40B3790078EE0FE
:108BC7006404601012C68E90078E7401F0E490075B
:108BD7008AF0A3F090079B7480F09007877401F0E8
:108BE700A37407F0A3749BF090078CE4F0A304F040
:108BF700028CB9900795E020E003028C90900793D0
:108C0700E030E00854FEF04402F08007900793E05C
:108C170054FDF0E59620E7FB75960E759702E596ED
:108C270020E7FB759614759710E59620E7FB759678
:108C370011759708E59620E7FB759694E59620E76A
:108C4700FB90079BE597F0E020E4E9E59620E7FB3A
:108C5700759614759710E59620E7FB759691E5963E
:108C670020E7FB90079BE597F0E020E3E9E59620F6
:108C7700E7FB7596117597089007917408F09007B0
:108C870093E0FF30E1034401F0900794E0FCA3E098
:108C9700FD30E10D9007867406F0900791E04410CF
:108CA700F0ED30E20D9007867404F0900791E044F0
:108CB70020F0E59620E7FB75960EE4F59702C68E41
:10B6DF00900780E07047900782E0FFB4021BE59669
:10B6EF0020E7FB75960E759702E59620E7FB75969A
:10B6FF001475972090078F801DEFB4821EE596205A
:10B70F00E7FB75960E759702E59620E7FB75961188
:10B71F007597109007907403F08005800012C5058F
:0EB72F00E59620E7FB75960EE4F59702C68EB0
:10C45000E59620E7FBE4F596900780E0FFF597EF7F
:10C4600090078660057403F080037402F002C68EA4
:10A06400900781E024FE601B14603B240270729010
:10A0740007877401F0A37407F0A37440F0900740BD
:10A08400E080539007877401F0A37407F0A374521F
:10A09400F0900755E0FE900754E07C002400FFECAC
:10A0A4003E90078C8035900780E0FFD394034002F4
:10A0B400802FEF75F003A42472F582E43407F5834E
:10A0C400E0FBA3E0FAA3E0F9900787EBF0A3EAF042
:10A0D400A3E9F01214B7FF90078CE4F0A3EFF0802B
:10A0E4000312C50590078CE0FEA3E0FF900796E0FD
:10A0F400FCA3E0FDC39FEC9E500890078CECF0A3FA
:10A10400EDF090078EE06404601012C68E90078E06
:0BA114007401F0E490078AF0A3F02231
:10BC1400900786E0FFB40414A374FFF0A374BFF08C
:10BC2400A374ADF090078CE4F0A304F0EFB4031612
:10BC340090078774FFF0A374BFF0A374AFF090076C
:10BC44008CE4F0A304F012C68E90078E7401F0E425
:07BC540090078AF0A3F02223
:10B79700900780E0D394004042900791E04440F046
:10B7A7009007867404F0E490078FF0A3F0E59620E5
:10B7B700E7FB75960E759702E59620E7FB759612DF
:10B7C700759784E59620E7FB759615759780E5963E
:10B7D70020E7FB75960EE4F597800C9007867403B7
:0AB7E700F090078FF0A3F002C68E69
:10C3510090078774FFF0A374BFF0A374AFF0900748
:10C361008CE4F0A304F012C68E90078E7401F0E401
:07C3710090078AF0A3F022FF
:10C68E0090078EE06404600BE59620E7FB7596112B
:04C69E00759740222A
:03004300027879C7
:10787900C0E0C0F0C083C082C0D075D000C000C0D5
:1078890001C002C003C004C005C006C00790079D1F
:10789900E596F0E59620E7FB75968EE59620E7FBE1
:1078A90090079EE597F0E59620E7FB759686E596A5
:1078B90020E7FB900798E597F0E030E30BE5962089
:1078C900E7FB75960B759707900798E030E203126E
:1078D900C32A900798E030E014900786E0FF64041B
:1078E9006004EFB40607900791E04480F0E5962024
:1078F900E7FB759682E59620E7FB900798E597F0F8
:10790900E030E003125AFA900798E030E22AE5964F
:1079190020E7FB75960E759702E59620E7FB7596AD
:1079290091E59620E7FB900799E597F0E0540370FD
:1079390007900791E04402F0E59620E7FB759684ED
:10794900E59620E7FB900798E597F0E030E229E516
:107959009620E7FB75960E759702E59620E7FB756D
:107969009694E59620E7FB900799E597F0E030E0DB
:1079790007900791E04404F0E59620E7FB75960E21
:1079890090079EE0F597E59620E7FB90079DE59621
:10799900F0E59620E7FB900793E030E00990079126
:1079A900E0600312C40DD007D006D005D004D0037F
:1079B900D002D001D000D0D0D082D083D0F0D0E096
:0179C900328B
:10BC5B00E49007A8F0E5B964E0603853A90F9007AA
:10BC6B00A7E5A9F043B280E5A95407D3940140039B
:10BC7B00E4F5A9E4F5B943B9809007A8E014F07096
:10BC8B00F843B9C0E5B930E5FB9007A7E0B4020370
:07BC9B0043A90253A90F2287
:10C25A009007A7E5A8F0C2AFC2AF53E6FDE4F5D751
:10C26A00E59620E7FB759601759708E5A920E10692
:0DC27A0043A910E4F5B99007A7E0F5A8224C
:0FC77700900791E0FF9007A7F0E4900791F02260
:108503009007A8EDF09007ABEBF0A3EAF0A3E9F036
:10851300900786E0B40606EDD3944040037F002223
:10852300E59620E7FB75960E759702E59620E7FB27
:10853300759694E59620E7FB90079AE597F0E0207F
:10854300E003028630E59620E7FB759696E59620D4
:10855300E7FB900792E597F0E0FFEDC39F5006AE6F
:1085630005AF068000900792EFF053E6FDE59620F5
:10857300E7FB7596E2900792E0700302861490077A
:10858300ABE0FF7020A3A3E090079FF0E59620E700
:10859300FB90079FE0F8A697E004F09007A8E0148B
:1085A300F070E9806CEF20E73C9007ABA3E0FAA3FF
:1085B300E0FF9007A1EAF0A3EFF0E59620E7FB9038
:1085C30007A1E0FEA3E0F5828E83E597F09007A272
:1085D300E004F070069007A1E004F09007A8E0140F
:1085E300F070D7802C9007ABE064FE7021A3A3E06A
:1085F3009007A5F0E59620E7FB9007A5E0F8E5973F
:10860300F2E004F09007A8E014F070E880037F0024
:1086130022E59620E7FBE4F596E59620E7FB7596C1
:1086230014E4F59743E602900792E0FF227F0022CD
:10617C00E49007A7F09007A9F0A3F09007ABEBF021
:10618C00A3EAF0A3E9F0900786E0B4060DED4C60AD
:10619C0009D3ED9400EC94104004E4FEFF2253E686
:1061AC00FD9007A7E030E003026360E59620E7FB73
:1061BC0075960E759702E59620E7FB759691E59618
:1061CC0020E7FB9007A7E597F0E030E020E596206C
:1061DC00E7FB75960EE4F597E59620E7FB7596912F
:1061EC00E59620E7FB9007A7E597F080B4D3ED94F4
:1061FC0040EC94009007A840057440F08002EDF04C
:10620C00E59620E7FB7596229007A8E070030263E1
:10621C00109007ABE0702DA3A3E0F99007A9A3E0C1
:10622C00FFE92FF990079FE9F0E59620E7FB90072F
:10623C009FE0F8E6F597E004F09007A8E014F07002
:10624C00E80263109007ABE020E747A3E0FAA3E075
:10625C00F99007A9E0FEA3E0FFE92FF9EA3EAF01B0
:10626C009007A1F0A3EFF0E59620E7FB9007A1E0E3
:10627C00FEA3E0F5828E83E0F5979007A2E004F090
:10628C0070069007A1E004F09007A8E014F070D716
:10629C0080729007ABE064FE7021A3A3E09007A589
:1062AC00F0E59620E7FB9007A5E0F8E597F2E0040F
:1062BC00F09007A8E014F070E880499007ABA3E0D9
:1062CC00FAA3E0F99007A9E0FEA3E0FFE92FF9EAB1
:1062DC003EAF019007A3F0A3EFF0E59620E7FB900B
:1062EC0007A3E0FEA3E0F5828E83E493F597900775
:1062FC00A4E004F070069007A3E004F09007A8E077
:10630C0014F070D6C3ED9440EC94009007AAE040D2
:10631C001F2440F09007A9E03400F074C02DFD74E8
:10632C00FF3CFCE49007A7F09007A87440F080169F
:10633C002DF09007A9E03CF09007A77401F09007AE
:10634C00A8EDF0E4FCFDE59620E7FB75961175973A
:10635C00010261AD43E6029007A9E0FEA3E0FF2233
:10C5A700900793E04401F0900791E0600BE5962037
:09C5B700E7FB75960B75970F2246
:08C82D00900793E054FEF02295
:0CC7CB00E59620E7FB75960F7597892214
:10C40D00D007D007D007D006D005D004D003D00276
:10C41D00D001D000D0D0D082D083D0F0D0E00200B7
:02C42D008B2260
:10AC2D002A2A2A436C6F636B2043616C69627261DF
:10AC3D0074696F6E2041626F727465642121210009
:10AC4D00436C6B20446966663A203078007573203A
:10AC5D002D20002000204472696674204D656173BB
:10AC6D007572656D656E742041626F7274656420D6
:10AC7D002121212A00202020002D2D2D204F666618
:10AC8D00736574205265676973746572206E6F7495
:10AC9D00206D6F6469666965642E2A00202020206E
:0DACAD002A002020000808000808202000D0
:10A3F700F583EFF09001731218B8E47B0AFAF9F8C5
:10A4070012BD2E9001731218DCE47B0AFAF9F8905A
:10A4170001731218B812BD2EEB2430FFE50875F052
:10A427000EA4229000F01218DC9000F00218C48FDE
:10A437002F152FAF2FEF3395E0FED3EF2290017347
:10A447001218B874FFFBFAF9F81216FA90017302A2
:10A4570018DCD3E52F941F7480948022D3E52F94C2
:10A467001E7480948022943BEE6480948022900135
:10A47700730218B87BFF7AAC79627D02221216DF6D
:10A487009000F00218DC90015DE0940174809480E4
:10A49700227FE07E937D04222413F582E43400F5C5
:02A4A70083220E
:05417E00900179EFF053
