:0300000002B3C682
:0CB3C600787FE4F6D8FD75818502B40D97
:10B3D200023ECBE493A3F8E493A34003F68001F288
:10B3E20008DFF48029E493A3F85407240CC8C3337C
:10B3F200C4540F4420C8834004F456800146F6DF4B
:10B40200E4800B010204081020408090C1A3E47E76
:10B41200019360BCA3FF543F30E509541FFEE4933F
:10B42200A360010ECF54C025E060A840B8E493A306
:10B43200FAE493A3F8E493A3C8C582C8CAC583CA31
:10B44200F0A3C8C582C8CAC583CADFE9DEE780BEE9
:01C1A300009B
:0ECEDC00F0EF25E024ADF582E43402F5832268
:03002B0002C4C14B
:10C4C100C0E0C0F0C083C082C0D075D0189002AB6C
:10C4D100E475F00112123275CBF075CA60C2CFC398
:10C4E1009002ACE0947D9002ABE094004009E4F04E
:10C4F100A3F0D21F12CD51D0D0D082D083D0F0D0B2
:02C50100E03226
:10CD5100D39002AEE094009002ADE094804007745D
:07CD6100FFF5F0121232226F
:0300730002CD9625
:10CD960053E67F53917F53C77F43C78053C77F4373
:06CDA600C78053C77F3275
:10C73200E49002ABF0A3F0FFEFC394017480948005
:10C74200501012CEDDE4F0A312CEDCE0547FF00FE5
:10C7520080E6E4F5C8538E0F75CBF0F5CA74FFF589
:07C76200CDF5CCD2ADD2CA27
:01C7690022AD
:10CE2300538EF8438E04758902758CEA758AEAD2AB
:02CE33008C224F
:10CDFD00E4F59175959E75945875939E759258535B
:03CE0D008EBF22B3
:10CDC100E4F591F595F59475937F7592FF538E3F38
:04CDD1004391042264
:10CE350012CEDDE0FEA3E07003EE64807002D32223
:02CE4500C32206
:10CE1000ED4C600E12CEDDECF0A3ED12CEDCE04462
:03CE200080F0227D
:1000030075B28353A9F8E4F586758DCC438E082227
:10C7D90043B203E4F5B943B980FFFE0FBF00010E70
:10C7E900BE01F8BFF4F543B9C0E4FEFF0FBF000175
:10C7F9000EBE01F8BFF4F5E5B930E5FB75A903757F
:05C809008D30438E0894
:01C80E002207
:0D002E000070007000DFF9EE6002DEF422C9
:10008E0043757272656E742054696D653A20002056
:10009E000077616974696E6720666F7220445350F1
:1000AE002073796E63207570202E2E2E004E65778C
:1000BE0020486F75722E2E2E202020000D0A2D2D19
:1000CE002E20005553422054696D6520616E6420C8
:1000DE0053656E736F7220446174612073656E7424
:1000EE00004C617267652046696C652053697A65BC
:1000FE00004E65772046696C652050617274697494
:10010E00696F6E200046696C652073697A653A00E6
:10011E0044737020566572732069732030312E350A
:10012E0030004E65772066697665206D696E757450
:10013E006520696E74657276616C2E2E2E4E6F2060
:10014E0047505320736F206E6F2053796E63207566
:10015E00702077696C6C20626520736368656475C6
:10016E006C65642E0D0A00202020204C61737420D3
:10017E0047505320617474656D70742077617320DD
:10018E007375636365737366756C2E200020202073
:10019E00204C6173742047505320617474656D70E8
:1001AE0074206661696C6564212000202020204740
:1001BE0050532069732064697361626C65642E20EC
:1001CE00004261747465727920766F6C7461676534
:1001DE002069733A200020202020486F75726C79B8
:1001EE0020446574656374696F6E20436F756E7419
:1001FE003A200020546F74616C20446574656374FA
:10020E00696F6E20436F756E743A200020506F6FC9
:10021E0072205369676E616C00204E454544532031
:10022E0053455256494345212121000D0A0D0A2DF1
:10023E002D2D202A2A2A2054524944454E5420530B
:10024E0048454C4C2053544152544544202A2A2AA6
:10025E000D0A2D2D2D000D0A2D2D2D20487964729D
:10026E006F70686F6E6520636F6D6D756E6963611B
:10027E0074696F6E20737461727465642E002A2A1D
:10028E002A20446961676E6F7374696320537461C9
:10029E0074757320436865636B20686173206265B3
:1002AE00656E20696E69746961746564202A2A2AF4
:1002BE000D0A2D2D2D005344206D656D6F72792022
:1002CE0063617264206973206E6F7420696E20748E
:1002DE00686520736C6F742E002A2A2A20475053AB
:1002EE0020697320656E61626C656420746F206195
:1002FE006C6C6F772074696D696E672066756E63BE
:10030E0074696F6E73202A2A2A0D0A2D2D2D002A4C
:10031E002A4261642074696D652A2A0D0A2D2D2DDD
:10032E00002A2A2A204261642074696D652E2054A9
:10033E0072792073657474696E6720636C6F636B7A
:10034E00207573696E67204750532E202A2A2A0D76
:10035E000A2D2D2D002A2A2A20475053206174740D
:10036E00656D707420776173207375636365737345
:10037E0066756C2E204770732074696D65207379D5
:10038E006E632077696C6C20626520617474656D94
:10039E00707465642E202A2A2A0D0A2D2D2D002A0E
:1003AE002A2A2047505320617474656D707420663C
:1003BE0061696C65642E204770732077696C6C20C0
:1003CE006E6F74206265207573656420746F207380
:1003DE006574207468652074696D652E202A2A2A3A
:1003EE000D0A2D2D2D005B4750532053594E43209F
:1003FE004641494C2121212E2E2E2E2E2E2E2E2ED2
:10040E002E2E2E2E2E5D005B4750532053594E43F9
:10041E0020535543434553532121212E2E2E2E2E4C
:10042E002E2E2E2E2E2E5D002A2A2A2047505320A5
:10043E00417474656D707420556E73756363657366
:10044E007366756C20542A2A2A0D0A2D2D2D005BF9
:10045E004750532043616C69622E2E205254432024
:10046E004167696E67206F66667365742E2E5D0038
:10047E002A2A2A205475726E6564206F666620479C
:10048E0050532E202A2A2A0D0A2D2D2D002A2A2AD3
:10049E002054657374696E672073656E736F727323
:1004AE002E202A2A2A0D0A2D2D2D00446961676EF1
:1004BE006F73746963205374617475732043686538
:1004CE00636B2066696E69736865642E0D0A2D2D47
:1004DE002D005B47505320436865636B20436F6D5F
:1004EE00706C6574652E2E2E2E2E2E2E2E50415390
:1004FE00535D005B47505320436865636B20436F29
:10050E006D706C6574652E2E2E2E2E2E2E2E46415F
:10051E00494C5D00446574656374696F6E73207A2F
:10052E0065726F65642E00446961676E6F737469DE
:10053E00632053746174757320436865636B206622
:10054E00696E69736865642E205265737461727486
:10055E00696E672E2E2E0D0A2D2D2D004E6F204406
:10056E00617461205468697320496E746572766196
:10057E006C202D20000D0A004E6F2056616C6964B0
:10058E00204473702056657273696F6E202D20544F
:10059E006F67676C65206120726573657420746F78
:1005AE002072657472696576652069740044737093
:1005BE002056657273696F6E207265747269657606
:1005CE00616C20686173206265656E20617474656C
:1005DE006D70746564005355434345535321212177
:1005EE00004C6F6767696E6720746F205344206DEF
:1005FE00656D6F7279206361726420686173206229
:10060E0065656E20696E697469617465642E005744
:10061E00616974202E2E2E20004C6F672052657358
:10062E00756D65642061743A20005344206D656DCC
:10063E006F727920636172642068617320626565F0
:10064E006E2072656D6F7665642E004578697469EB
:10065E006E67206465646963617465642074696D96
:10066E00696E67206C6F6F702E200D0A00436861F3
:10067E006E676564207468652073797374656D2088
:10068E00636C6F636B207669612061205043206339
:10069E006F6D6D616E642E205265626F6F74696E40
:1006AE0067207468652073797374656D2E205761A9
:1006BE0069742E2E2E0D0A004E6F74204C6F6767D4
:1006CE00696E6720746F20636172642E204F7065AF
:1006DE006E2044535020636F6D6D756E6963617447
:1006EE00696F6E2E0D0A00417474656D7074696EBB
:1006FE006720445350207265636F766572792E2E93
:10070E002E002020202A2A2A2A205761726E696E16
:10071E0067212120475053207369676E616C2070EA
:10072E00726573656E742062757420746865726587
:10073E0020697320616E20696E76616C6964206336
:10074E006C6F636B2073657474696E67206E6F20B7
:10075E0073796E632077696C6C20626520646F6EAE
:10076E006520756E74696C20612076616C696420F9
:10077E004750532074696D6520686173206265650A
:10078E006E207573656420746F20736574207468B1
:10079E0065207265616C74696D6520636C6F636B47
:1007AE002E20202000507265706172696E67207471
:1007BE006F20646F2035206D696E207363686564E9
:1007CE00756C65642053796E63207570206F66209A
:1007DE00636C6F636B732E2E2E0050726570617298
:1007EE00696E6720746F2053796E63207570206375
:1007FE006C6F636B732E2E2E005072657061726972
:10080E006E6720746F2053796E6320757020636C51
:10081E006F636B732E2E2E2E2E2E00477073206953
:10082E0073206265696E672064697361626C6564CA
:10083E002E20004E6F2073796E632077696C6C20CA
:10084E00626520646F6E6520617420746869732020
:10085E0074696D65202D20322E20202000005374E7
:10086E00617274696E6720445350207265736574AB
:10087E0020616E6420636C6F636B2073796E632EE0
:10088E002E2E202020005374617274696E672044EE
:10089E00535020636C6F636B2073796E632E2E2E14
:1008AE002020200052657365742032206861732009
:1008BE006F636375727265642E2E2E202020002EBB
:1008CE0020000D0A0D0A202020202020202A2A2A6E
:1008DE00204750532073796E632075702061626FCC
:1008EE00727465642120506F6F72207369676E6138
:1008FE006C2E202A2A2A2000202E2E2A00202E2E70
:10090E0078002E2E2000506F6F722073796E632048
:10091E00617474656D707421200046756C6C204492
:10092E005350207265736574200077697468207364
:10093E00796E6320757020636F6D706C65746520C1
:10094E002D2000203A2000202020200020636C6FF4
:10095E00636B206F66667365743A200075730020B2
:10096E002A2A20002A2A2A204572726F7220647465
:10097E0062546D70436C6F636B5374616D702E7542
:10098E00634461794F664D6F6E206973207A65728C
:10099E006F005374617274696E672075702E2053E8
:1009AE0063686564756C696E672044535020726588
:1009BE0073657420616E6420636C6F636B20737952
:1009CE006E632E004D697373696E67206D656D6F72
:1009DE00727920636172642E005374617274207593
:1009EE0070202D20446574656374696F6E73207A70
:1009FE0065726F65642E004E6F20477073207072A3
:100A0E006573656E742E2044535020526573657461
:100A1E0020616E6420636C6F636B2073796E63204C
:100A2E006973207374696C6C206E65656465642EE1
:100A3E00005B2424002C20002024245D005B4572E2
:100A4E00726F72204E6F2044535020636F6E74612C
:100A5E0063742E2E2E2E2E2E2E2E2E2E5D004E6FCB
:100A6E002044535020636F6E746163742061742050
:100A7E00004C6F737420636F6E74616374207769BA
:100A8E007468207468652044535020617420004DB2
:100A9E006F76696E6720746F20737461747573203E
:100AAE00322E004D6F76696E6720746F20737461FD
:100ABE0074757320332E004D6F76696E6720746FD8
:100ACE002073746174757320312E0044535020428C
:100ADE0061636B206F6E6C696E652E0055534220FC
:100AEE00494E202E2E2E0047707320496E7075745D
:100AFE002044697361626C6564004E657720436FB4
:100B0E006E6669672073656E74004F6C6420436F68
:100B1E006E6669672073656E74005573622044615A
:100B2E00746120556E7265736F6C76656400445304
:100B3E005020760053697465204E616D653A200031
:100B4E0046696C65204E616D653A20005365726989
:100B5E00616C204E756D6265723A200046696C6557
:100B6E0020466F726D61742056657273696F6E3AAE
:100B7E0020322E3020200046696C6520537461723D
:100B8E00743A200046696C6520456E643A20004137
:100B9E00545320536F6E69632052656365697665A1
:100BAE007220535233303031204669726D77617244
:100BBE0065207630362E36320D0A0010C4EA6136C4
:100BCE000341006400760061006E006300650064FE
:100BDE00002000540065006C0065006D0065007417
:100BEE0000720079002000530079007300740065D4
:100BFE00006D0073001E0353006F006E00690063EA
:100C0E0000200052006500630065006900760065F3
:080C1E000072000F800100705C
:10C1A4004C01610C0330003900300030003000C114
:10C1B40014C185C1074100060046015720302E30C6
:10C1C40030004100A3014101600041013A004101F6
:10C1D40039094100BA004100F804410088004100D7
:07C1E40087034200A10000E7
:1016C900F075F080EF90046F1215B57430F075F075
:1016D90080EF9004701215B57430F075F080EF90BA
:1016E90004711215B57430F075F080EF900473121F
:1016F90015B57430F075F080EF9004741215B57457
:1017090030F075F080EF90046A1215B5742DF075FC
:10171900F080EF90046B1215B57439F075F080EF15
:1017290090046C1215B57439F075F080EF90047A55
:101739001215B57430F075F080EF90047B1215B571
:101749007430F090047CEF75F0800215B5C4540F25
:101759002430FEEF75F0800215B5C4540F2430FE15
:10176900EF75F0800215B59004451215B57420F097
:1017790075F080EF9004461215B57443F075F0804A
:10178900EF9004471215B5746CF075F080EF900472
:10179900481215B5746FF075F080EF900449121571
:1017A900B57463F090044AEF75F0800215B5C4541E
:1017B9000F2430FEEF75F0800215B5540F2430FE6A
:1017C900EF75F0800215B5540F2430FEEF75F080E7
:1017D9000215B59004421215B57447F075F080EF03
:1017E9009004431215B57450F0EF75F080900444DD
:1017F9000215B5E0900427FEEF75F0800215B5E0FB
:10180900900426FEEF75F0800215B5E090042AFEDB
:10181900EF75F0800215B5E0900429FEEF75F080B0
:101829000215B5F075F080EF9004601215B5742CAF
:10183900F0EF90046175F0800215B5E090042FFE79
:10184900EF75F0800215B590043775F0800215B573
:10185900FE75F080EF0215B590040075F080EF0277
:1018690015B590000DE0FEEF75F00EA4240DF5827C
:10187900E43400F583EEF090000EE0FEEF75F00E13
:10188900A4240EF582E43400F583EEF090000FE015
:10189900FEEF75F00EA4240FF582E43400F583EE13
:1018A900F0900010E0FEEF75F00EA42410F582E42C
:1018B9003400F583EEF0900011E0FEEF75F00EA410
:1018C9002411F582E43400F583EEF0900012E0FE75
:1018D900EF75F00EA42412F582E43400F583EEF0DE
:1018E900900013E0FEEF75F00EA42413F582E434A2
:1018F90000F583EEF0900014E0FEEF75F00EA424DD
:1019090014F582E43400F583EEF0900015E0FEEF63
:1019190075F00EA42415F582E43400F583EEF090F9
:101929000016E0FEEF75F00EA42416F582E43400EB
:10193900F583EEF0900017E0FEEF75F00EA4241782
:10194900F582E43400F583EEF0900018E0FEEF75BF
:10195900F00EA42418F582E43400F583EEF090002B
:1019690019E0FEEF75F00EA42419F582E43400F5B0
:1019790083EEF090001AE0FEEF75F00EA422EF75E9
:10198900F0809004390215B5F090047F75F080EF6E
:101999000215B5F090044675F080EF0215B5F09088
:1019A900044875F080EF0215B5FE75F080EF021559
:1019B900B5F0EF75F0809004590215B5F0EF75F0A8
:1019C900809004790215B575F00A84E5F02430FF9A
:1019D90075F080E52F0215B53AF583E53AF0E53B58
:1019E900C4F854F0C868F53BE53CC4540F48F53CCD
:1019F900540F2430F53AD394397480948022F0EF4F
:101A090075F08090047D0215B575F080900443024D
:101A190015B590040175F080EF0215B575F0809049
:101A2900046E0215B5FE75F080EF0215B575F080EC
:101A39009004400215B575F0809004420215B57501
:101A4900F0809004670215B575F080900466021560
:101A5900B575F0809004650215B575F08090046441
:101A69000215B575F0809004630215B5EF2430FFB7
:101A790075F080E52F0215B535F0FA7B0175F00F89
:101A8900E5301215B5E022F090044775F080EF02B9
:101A990015B575F080EE0215B590080875F00FE5DB
:101AA900301215B5E022F090044975F080EF021567
:101AB900B575F080EE0215B575F080EE0215B5FE2C
:101AC90075F080EF0215B575F080EE0215B5900836
:101AD9000275F00FE5301215B5E02290044575F056
:101AE90080EF0215B575F080EE0215B5ED2430FFD3
:101AF90075F080E52F0215B575F080EE0215B590E9
:101B0900080C75F00FE5301215B5E022FE75F0806E
:101B1900EF0215B575F080EE0215B590080975F05C
:101B29000FE5301215B5E02275F080EE0215B57596
:101B3900F080EF0215B5A3E0FF3395E0FEC3EF9403
:101B490030EE648094802274102BF58274043AF587
:101B5900832275F080EE0215B590080675F00FE541
:101B6900301215B5E022E47B3CFAF9F8AF39AE380A
:101B7900AD37AC361213B67B18E4FAF9F80213B68E
:101B8900E50875F00EA42410F582E43400F583E02D
:101B990022E5309008031215B5E5822534F582E473
:101BA9003583F58322AE02AF037882A60608A6071D
:101BB90018E6FA08E6FBFF7C007D0AAE020211A7CF
:101BC90075F080EF0215B53AF583E53AF022FFE5A5
:101BD9000875F00EA4240EF582E43400F5832290F2
:101BE900017112153B9001710214F77407253AF53A
:101BF9003A2275F080EE0215B5EEF0ED75F00EA4FF
:101C0900227BFF7A0079CA7D0222F0E52F75F080E8
:101C1900A422E5392FFFE5383EFEE5373DFDE536DF
:101C29003C8F398E388D3722F074062BF582740477
:101C39003AF58322F074052BF58274043AF5832270
:101C4900E50875F00EA42411F582E43400F583E06B
:101C59002275F080EF0215B5120D1E900173121551
:101C69003B9001770214F775F00FE5301215B5E0D6
:101C790022E475F001021232E0D39400748094805A
:101C89002275F00EA4240DF582E43400F58322F0C8
:101C990074022BF58274043AF58322F074032BF550
:101CA9008274043AF58322F074042BF58274043AA1
:101CB900F58322E53BC4F854F0C868F53BE53CC41C
:101CC900540F48F53C22900139E0D394087480946C
:101CD900802274012BF58274043AF5832275F08011
:101CE900E52F0215B5E4FFFEFD7C4690009C121518
:101CF90013D302146CAF0F7E00EFC3942474809445
:101D09008022E47B0AFAF9F81214F71213B6EB24CD
:101D190030FF22C4540F2430FF227D907C5F7F75F1
:101D2900223AF5837420F022A3F0A37430F0A322A1
:101D39002400F9740435F0FA7B017D807C0022D2FD
:101D4900B4C2877D407C067F0122540F2430F53AC6
:101D5900740E2BF582740422540F2430F53A740D55
:101D69002BF582740422E4F555755611755711F552
:101D790059F55A2294047480948022241AF582E435
:101D89003400F583EEF00F2290016FE0FEA3E0FF2F
:101D9900C3227427253AF53A2290017712153B9010
:101DA90001730214F774BB2DF582E43400F583E066
:101DB900FC229000F8E0FF640122E50DF0A3E50E96
:101DC900F0A3E50FF02290024EE0FF75F01002102B
:101DD900C6AF09EF3395E0FE22ECC4F854F0C8ED24
:101DE900C4540F4822E0F50DA3E0F50EA3E0F50F6A
:101DF900227882A60608A60722C394587480948084
:101E09002275F080EE0215B5240FF582E43400F551
:101E190083E0222412F582E43400F583E0227BFF7B
:101E29007A00798E2294067480948022E47880F670
:101E390008F62290011E7404F02212131090017109
:101E490002153B75F00FE5301215B5E0229000A19F
:071E5900E4F0A37419F0226C
:103ECB00C223C23A9000A37401F07F0712CBD653E2
:103EDB00D9BF75C990E4F5FF12000312BFAF128E64
:103EEB00CBE4F5FEC200C204C202C204C202121E1F
:103EFB0027FD1299091294237BFF7A00799D7D028D
:103F0B0012990953C77F7A00799F12421890008645
:103F1B00121C814021301B1E20151BE47F607E0983
:103F2B00FDFC9002B1121513C312146C5008D295FC
:103F3B00900086E014F0300805301B02D295E4F5B2
:103F4B00FE129BD8E55B121E02500C201509204077
:103F5B0006E50A64207005C229122484E4F5FE20CC
:103F6B000903023FFDC215FF12B9D0AD08E4FF12E1
:103F7B00A5329004457466F0A3F0A3F0A3F0A3F070
:103F8B00A3F07B017A04793A9001827406F07F00EA
:103F9B007E007D007C0012C5C930095FC2902008ED
:103FAB0002C295D2A4301F03127548E5C930E63D15
:103FBB00126E7BE4F5FE301DE0FF12B67130111E60
:103FCB009004457420F090044BF0AD08E4FF12A56B
:103FDB00327B017A0479007D807C00126569C21DF9
:103FEB00E50A541F70B3C227126B0380AC12C005D5
:103FFB0080A7E4F5FE43870185878730170343EFDE
:10400B0010120003301F03127548E4F5FE300C4EFE
:10401B00E50B704A9000B8121C7B900007E004F08F
:10402B007A0079BB124220121C0A129909200E0247
:10403B00C22230041312420FD22612CB0B301B08B4
:10404B00123B61C22B12CC69E50C700B30000812CD
:10405B00420FD22612CB0BC20CE4900087F0201D2E
:10406B0003024134300E04C21AD215E50A121608A7
:10407B0040BD0040BD1540BD3040BD454097484058
:10408B00AB5340B05640B557000040D730423D12BD
:10409B001DBB6019EF64026014EF6403702E800D7A
:1040AB003042298008301A248003301A1F122A94B8
:1040BB00801AD3E508121E2E4005E4F50880020590
:1040CB0008201108204205C227126B039000A4128E
:1040DB001C814003E014F053AEFEE5C720E005E47D
:1040EB00FF124B8112971F301527C222C21AE50A05
:1040FB00540F700D127034E4F5FE7A0079D1124230
:10410B0018D295201B19200116B2A4A2A49290805C
:10411B000E201B0B200108B2A4A2A4929592902012
:10412B000105E4FF12C941C21D201B06200E0330FE
:10413B00424A301326201B0330010D300804D29560
:10414B008004A2909295C2A430453120152E900088
:10415B0087E0C3940574809480802120420F301532
:10416B000C201B03300115C290D295800F201B062B
:10417B00300109200806A24292A49295304205C252
:10418B002912248430420302400F201B03023F18E4
:10419B00121CEE5003023F187BFF7A0079EF7D056E
:1041AB00129909C2291224841275489000A3E0C306
:1041BB00942174809480502B121CEE4026D2261230
:1041CB00CB0B9000A3E004F07A0079FF1242209011
:1041DB0000A3E0FFE4FCFDFE900252124228123BCA
:1041EB006180C87BFF7A017913E4FD129909900075
:1041FB009C1214F7900252740B124228C22B12CC51
:04420B0069023F18ED
:10420F00C229122484127548227BFF7D0512990959
:10421F00227BFFE4FD12990922F01276D87D01125C
:03422F00990922C8
:10CBD60090000BE0A3F090000AE0A3F0900009E0BB
:0ECBE600A3F0900008E0A3F0900008EFF0220A
:10B67100E50E540F2430FE90042712174FEEF0E52B
:10B681000E900426121756EEF0E50D540F2430FEED
:10B6910090042A1217B0EEF0E50D90042912175606
:10B6A100EEF0E50F90042F1217C4EEF0E50F9004B1
:10B6B1002E121763EEF0E50C9004321217C4EEF06F
:10B6C100E50C900431121763EEF0E50B900435128E
:10B6D10017D0EEF0E50B9004341217B7EEF0E50A3F
:10B6E1009004381217D0EEF0E50A9004371217B71C
:03B6F100EEF02256
:10C23F00ED14601114602C1460352403703C121837
:10C24F0061745B8017121861745BF090040112180F
:10C25F0064745BF090047E121995745D12199174D9
:10C26F005DF02212186174201219917420F02212BD
:0BC27F001861740A121991740DF0226E
:05B9D00090017BEFF087
:10B9D500A3F090017CE0FFC3121D7D505B7D031237
:10B9E500C23F90017CE0900439121750742EF0E4A8
:10B9F500F53AF53B741F253BF5827401353AF5831D
:10BA0500E0FF90017CE090040112175DE582253B83
:10BA1500F582E583353AF583EFF0053BE53B7002AA
:10BA2500053A6419453A70CC90017CE0FF1279D44F
:0EBA350090017CE004F0809A90017BE0F51314
:01BA430022E0
:10C0B0009004241219A0742CF09004251219AB746A
:10C0C00020F0900428121A1E742FF090042B121ADC
:10C0D00094742FF0900430121AB37420F09004334B
:10C0E000121AE7743AF0900436121B38743AF09042
:10C0F000042C121B387432F090042D121BC97430BA
:02C10000F0222B
:0279D400AE07FC
:1079D60090041A121A9B742CF0E4F53CF53D74A63B
:1079E600253DF5827400353CF583E0FF90041B12BB
:1079F6001A9BE582253DF582E583353CF583EFF05C
:107A0600053DE53D7002053C6409453C70D0AF0676
:107A160012C0B0EE121A36742CF0900441121ABA43
:107A26007420F0EE121A3F7447F0EE121A127437F1
:107A3600F0EE1217F37432F090044B121ABA742C4B
:107A4600F090044C121AC17420F0900472121AC1FC
:107A56007420F0900475121AD0742FF090047612E8
:107A66001AD07433F0900477121AEE7431F0900441
:107A760078121AEE742CF0EE1219C77420F09004E6
:107A86006D121B01742CF0EE121A257420F0EE1202
:107A96001A09742CF090047E121B017420F09004D5
:107AA6004D121B1D7420F0900451121B1D742CF0F6
:107AB600900452121B317420F0900455121B31743D
:107AC6002EF0900458121B5B742CF0EE1219BC7445
:107AD60020F090045A121B5B7420F090045D121B78
:107AE600FB742EF0900460121BFB742CF0EE12183F
:107AF6003B7420F0EE121A487420F0EE121A5174FC
:107B060020F0EE121A5A7441F0EE121A63742FF036
:107B1600EE121A6C744EF0900462121E0A7420F073
:107B2600900468121E0A742CF0900469121BC97422
:027B360020F03D
:017B3800222A
:10754800C234D235754C01850A4E850F4F850B4DD7
:10755800850D50850E51303575AF4C054CEF606E7A
:1075680012C8DD8F10AF0DEF6055D394317480943D
:1075780080504CAF0EEF6047941274809480503F57
:10758800E50F121D034038AF0CD3EF942374809499
:1075980080502CEF700CE50C65116006E511642332
:1075A800701DAF0B7E00D3EF945974809480500FF8
:1075B800EF7017E50B654D6011E54D6459600BD20E
:1075C800357F0F7E0012002E808CC2358088E50C36
:1075D8006511601A121E35D234850C1120220F1243
:1075E8001E27FD1299091294237D021276CEE50B0F
:1075F800654D70030276A9D203D234900139E004B4
:10760800F0E50C64237008E50B64567002D242AFB3
:107618000BEF6459706DEF64597002D20C201A6335
:10762800D21A200A167D051276CE127548121E2728
:10763800E4FD12990912942312A836900157E064C8
:1076480030701EA3E0B4351990015AE0B43112A38A
:10765800E0B4300D7BFF7A01791E7D05129909800F
:10766800229000A4E0701C202219300A107BFF7AB7
:107678000179307D0512990912A836C21A9000A422
:107688007478F0E50B540FF54D7016121CCF4011AD
:10769800304102E4F0202107C241E4900139F0D2E0
:1076A80021E50A654E6002D21DE54F650F6002D2E2
:1076B80034E550650D6002D234E551650E6002D2A2
:0576C80034C21FA234D2
:0B76CD00227BFF7A00799D12990922B0
:0BCF36009000B2E50CF0A3121DC32216
:10CA22001275481294233022117BFF300D067A01D1
:10CA32007975800C7A01799B80067BFF7A0179B93E
:08CA42007D0212990902A836D9
:10942300E50E121D1C90024EF0BF30047F20800514
:1094330090024EE0FF12CABFE50E1295077F2F126E
:10944300CABFE50D1294F3E50D1295077F2F12CADB
:10945300BFE50F1294F3E50F1295107F2012CABFD8
:10946300E50C121D1C90024EF0BF30047F208005D6
:1094730090024EE0FF12CABFE50C1295107F3A121C
:10948300CABFE50B1294FDE50B1295197F3A12CA78
:10949300BFE50A1294FDE50A1295197F2012CABF8F
:1094A3007F2012CABF900006E090024EF03395E091
:1094B300C364809480501A7F2D12CABF900006E0C7
:1094C300FF3395E0FE7CFF7DFF12119590024EEF76
:1094D300F0121DCF2430FF12CABF121DCFAFF0EF21
:1094E3002430FF12CABF7F7A12CABFE4FF02CABF89
:1094F300C4540F2430FF12CABF22C4540F2430FFB8
:1095030012CABF22540F2430FF12CABF22540F24A1
:0F95130030FF12CABF22540F2430FF12CABF22EA
:10A836007BFF7A0179CFE4FD129909E50875F00EE0
:10A84600A4121E11FF12CABF121B89FF12CABF7FB4
:10A856002E12CABF121C49FF12CABFE50875F00EB8
:10A86600A4121E1CFF12CABF7A0179E412A8E57869
:10A8760080E6FE08E6FFE4FCFD9002527407F01243
:10A8860076D87D011299097A02790112A8E590021B
:10A89600B11214F7900252740CF01276D87D0112A0
:10A8A6009909301934D37881E6940018E69400406B
:10A8B600289000BAE004F07BFF7A02791A7D011233
:10A8C60099099000BAE0D3121E2E400D7BFF7A0242
:0FA8D60079277D01129909D208121C0A029909EB
:08A8E5007BFF7D01129909229D
:10BFAF0075F1BF75F2FF75F3FF75F47E75F5FF75CB
:10BFBF00A41D75A5E775A61975A77A75AE8075D4FA
:10BFCF00C875D5FF75D61975DFFF75E10775E240A6
:10BFDF0075E301C23BD2A075C70312CB307BFF7A4A
:10BFEF00027939E4FD1299097BFF7A0279647D02A7
:06BFFF00129909D2B422E0
:054B810090016EEFF051
:104B8600C225D296D22212CF1E752A05D2247A02C7
:104B9600798C124E15201B097A0279C4124E1580A3
:104BA60006D290D295D2A47A0279E7124E2BA209A8
:104BB6009226C20912CF74D290C2A4200802C295CE
:104BC600E52A6033D2229000BB7424F07F071230AE
:104BD60098124E59121CFE400AD3EF9444748094E6
:104BE6008040DD7A03791D124E2B9000BB7424F0B1
:104BF600D222124E6580C9121CFE400AD3EF94449D
:104C06007480948040147A03792F124E33D290D256
:104C160095D2A4D20DD225124E65D245A22692096E
:104C260012CCEE300D14D222E4FF1230987A0379BA
:104C360063124E33D225D20D80107A0379AD124E0F
:104C460049300906124DC4124DC4D24530452630AE
:104C56000D23300D127F01123098300906124DDFF8
:104C6600124DDFD24280E57F071230987A047936FA
:104C7600124E4980D712CF1EC229122484D290D256
:104C8600A4200802C295300D0E300906124DFA1204
:104C96004DFA7F031230982091047F0680027F052B
:104CA60012CF0590016EE060107F0512CF05C29607
:104CB600C2227A04797E124E517A04799B124E51A1
:104CC600D290D2A4D29512CD07D227126B0312A886
:104CD60036A20D9290C2A4200802C295121B89FF2B
:104CE600C394335004C224800BEFB43307C3943209
:104CF6005002C22420094DD2A4D29543F31090014C
:104D06006F7401F0A3742CF0E5C730E03790016FA3
:104D160074FFF5F0121248FED3E5F09400EE94000D
:104D2600402230240C201E09200802C295B2A4801D
:104D360007C2A4200802B295752A02E52A60C912A4
:104D46004E5980F7C290C2A4200802C29530094C81
:104D56007A0479B9124E7112CD0712CF1E7BFF303D
:104D66002515124E1D124E1D7A0479E0124E797BDE
:104D7600FF7A0479E08013124E3B124E3B7A057996
:104D860001124E797BFF7A0579017D207C00126540
:104D960069C290D2A4200823C295801F9002B11246
:104DA600156000000000121E357A057922124E7138
:0D4DB6007BFF7A0579357D05129909D2172A
:104DC300227BFF7A0379F47D207C001265697BFFE7
:104DD3007A0379F47D207C00126569227BFF7A04D3
:104DE30079157D207C001265697BFF7A0479157D36
:104DF300207C00126569227BFF7A04795D7D207C2B
:104E0300001265697BFF7A04795D7D207C00126561
:104E130069227BFF7D05129909227A0479E07D20BE
:104E23007C001265697BFF227BFF7D0512990922B5
:104E33007BFF7D05129909227A0579017D207C008B
:104E43001265697BFF227BFF7D05129909227BFF97
:104E53007D0512990922152A7DE47CA27F1912C8C7
:104E6300AB227F09123098127548129423227BFFDC
:0E4E73007D05129909227D207C0012656922BE
:106B0300E4F52BF52C90011EE014F0301B07D2A402
:106B1300300D02D2909000A1E0FEA3E0FFD39405D4
:106B2300EE9400400C9000A174FFF5F01212328035
:106B33000CEF64054E700620150343EF1020150675
:106B4300201B03302702D22812A2C775F43E20B2BD
:106B53002A900156E0FF14F0C3EF940174809480EF
:106B630050199000B6121C7AD2B112C97290015614
:106B73007404F0121D4C12C8ABC2B1C2B33022036D
:106B830012BEFDE4F508C283301B07200804A21ED1
:106B93009295126CADD283301B1F200802C295124E
:106BA3006CB7200804A21E9295126CAD200802C295
:106BB30095126CB7200802C295C21E7DE47CA27FA9
:106BC3000F12C8AB12806EC229128DB320150312A7
:106BD300CEAE301B07200804A21E92957F01EFC39F
:106BE300121CD4500912186B121D84026BE120137E
:106BF30005301B02C295750807201502D2B3201574
:106C030009201B06202703026C8E303C03202868D2
:106C1300304104C221803E30213B204138121CCF39
:106C230040337BFF7A05796AE4FD129909129423B4
:106C33007BFF7A0579837D02129909E4FF128FE2C3
:106C430012CF369000B2E0FF12CE598F12D206D285
:106C530012D228C22190011EE0FF7E00C39401746A
:106C63008094804010302702800BD3EF9404EE64AD
:106C73008094804003121E3C2028093015033041C4
:106C830003302707A227922912248430150D12CF2F
:106C93001EC229128C98C22B12CC69C28CE4F5FE59
:0A6CA300301B04C2A4C29002004698
:106CAD007DE47CA27F0F12C8AB227DE47CA27F0A1B
:046CBD0012C8AB222C
:10C5C90090017B1215F3802F900182121C81402F5C
:10C5D900E014F090017E121D0B90017B1215D3908F
:10C5E9000182E0F582758300EF12117390017E12CA
:10C5F90014F77B0A121B8290017E12153B80C92217
:10675900D226127548E490016DF09000EFF0F555DE
:10676900F556F55790016FF0A3F0121D919434EE90
:106779009400501474BB2FF58274003EF583E4F045
:1067890090016F121C7B80E29000FB742FF0900047
:10679900FEF09001037420F0900106743AF0900124
:1067A90009F01299FA900157121B404012121B3F2F
:1067B900400D90015A121B404005121B3F5047C221
:1067C9000F7BFF7A0579868029200F2D121D48122B
:1067D900C8ABD287C2B4E4F5FED2B4C22B12CC69DD
:1067E90012691C12691C121D2312C8AB7BFF7A05A2
:1067F90079BB7D0512990980D07BFF7A0579E47D03
:10680900051299098002D20FE490016FF0A3F012EA
:106819001D919405EE9400502A74802FF58274001E
:106829003EF583E0FF3395E0FED3EF9439EE6480C3
:1068390094805005121B465002C22690016F121C0B
:106849007A80CC9000A9E0642C6002C226202656EA
:106859009000807430F07439121D31F0A3F0E49087
:1068690000A5F090015EF0900006F090013CF090D8
:1068790001577420F0A37430F0742E121D3104F006
:106889009000A67448F0A37432F0A3744FF0A37477
:106899002CF0A37446F0A37452F0A3742C121D3289
:1068A900F012A0408021C210C20AC22090013CE02F
:1068B900FF30E402D210EF30E502D20AEF30E602EF
:1068C900D220E49000A5F0129CC390011F7453F0EC
:1068D900A314F0900080E0900121F0900081E090F5
:1068E9000122F0900082E0900123F0900083E09073
:1068F9000124F0900084E0900125F0A3745FF01268
:106909001E3C12CF36D227126B0312CF95129CC3AD
:02691900C23981
:10691B00227D907C5F7F7512C8AB7D907C5F7F750D
:04692B0012C8AB22C1
:109BD800E490016EF0309303029C99301B03029CC1
:109BE800AC9000A4E06003029CACC20CF5FE200817
:109BF80002C295C2A4C2907A0579EF129CBB12A842
:109C0800367A06791D129CBB9000A0E0605B127545
:109C1800487BFF7A067927E4FD12990912942312EA
:109C28001C0A129909123B61127548C22B12CC69A1
:109C3800129CAD7FFA12C8AB129CAD7FFA8016D386
:109C4800E55B121C834013C2291224841275487DD7
:109C5800907C5F7F6412C8AB80E5C22912248420FF
:109C68000E13D242122A94800C121D2312C8AB1272
:109C78001D2312C8ABD2429000A0E07003123B61D2
:109C8800C22B12CC699000F8E0640A7017740BF0CC
:109C980022301B107BFF7A0679387D05129909D28C
:049CA8002612CB0BAA
:109CAC00227D907C5F7FFA12C8AB7D907C5F227B1B
:079CBC00FF7D05129909224A
:10C94100E5C930E614200E0ED20EC222EF3395E077
:10C951004F701D12AE5E026E7B300E05C20E12C903
:10C96100A1E4F5A9F5B9C215301B05200802C2954D
:01C9710022A3
:0459F000AB07AA0651
:1059F400E555121D1C121CDBEFF0E555540F243045
:105A0400FF121C99EFF0E556121D1C121CA5EFF0B5
:105A1400E556540F2430FF121CB1EFF0E557121D68
:105A24001C121C3EEFF0E557540F2430FF121C32B9
:105A3400EFF030051F121CDB7430121C9874301206
:105A44001CA47430121CB07430121C3D7453121C0C
:105A540031744CF020225690007DE0F53BA3E0F534
:105A64003CE53C1219F94003121D9B74042BF5828A
:105A740074041219E14003121D9B74032BF5827404
:105A8400041219E14003121D9B74022BF582740465
:105A94001219E14003121D9B74012BF58274041248
:105AA4001BD0121C3E7447121C317444F030071F83
:105AB400121CDB744C121C98744F121CA4745712E1
:105AC4001CB07442121C3D7441121C317454F074A5
:105AD400072BF5827404121D2A9000B6E0F53BA34F
:105AE400E01219F74003121BF4740B2BF5827404B3
:105AF4001219E14003121BF4740A2BF58274041288
:105B040019E14003121BF474092BF5827404121971
:105B1400E14003121BF474082BF5827404121BD0A9
:105B2400740C2BF5827404121D2A202216753B0076
:105B340085103CE53C121D53121BD0121CBC121DD7
:105B4400618010900160E0FFC4121D61121BD0EF50
:105B5400121D53121BD0740F2BF5827404121D2ACC
:105B64002D601024F0601424707018121B507430CF
:105B7400F08016121B507479F0800E121B5074635F
:105B8400F08006121B507478F0121DDAEF640F4E89
:105B94007008121B507446F08026EF640A4E700899
:105BA400121B507441F08018121DDAD3EF9400EEEA
:105BB40064809480400AE5092430FF121B50EFF002
:105BC4007884E6FC08E6FDEC1219F94003121BF494
:105BD40074112BF5827404121BD0121DE21219F9F0
:105BE4004003121BF474122BF5827404121BD07838
:105BF40085E61219F94003121BF474132BF5827411
:105C040004121BD074142BF5827404121D2A7877A5
:105C1400E6FC08E6FDEC1219F94003121BF47415B6
:105C24002BF5827404121BD0121DE21219F94003E1
:105C3400121BF474162BF5827404121BD0121CBCB4
:105C44007878E61219F94003121BF474172BF582C5
:105C54007404121BD074182BF5827404121D2A903C
:105C64000088E01219F94003121BF474192BF58211
:055C74007404121BD0B6
:015C79002208
:0BC8AB00900171EFF0A3ECF0A3EDF0A2
:10C8B600E4A3F0900171E0FF900174E0C39F50166D
:10C8C600E4F5FE900172E0FEA3E0FF12002E900157
:06C8D60074E004F080DDB7
:01C8DC002239
:10C00500C211C209C215C2A4200802C295E490005B
:10C01500A1F0A3F0C2291224847A06795912C053DB
:10C025007D02E4FF12C23F304210D22612CB0B7ABA
:10C0350006797B12C05343EF1022201B107BFF7A39
:10C045000679C67D05129909C22B12CC69227BFFA0
:06C055007D05129909228D
:108DB300302922E5087005752E078005E50814F5AE
:108DC3002EE52E121BDAE0121BD7EFF0E52E121C54
:108DD3008AE0028EC2D22A12A1F28E2F8F30C22ACB
:108DE30012A1F28E318F3212C6098E338F34AC2F1B
:108DF300AD30EC120E2990017312153BAC31AD323C
:108E0300EC120E29121DA27BD57AFF797F783912D5
:108E13001C617BD57AFF797F7839120D1E121DA252
:108E2300A804A905AA06AB07121C61A804A905AAF0
:108E330006AB07120D1E900177121C679001731287
:108E43001513120C2D12ABBD12C6837BE67A2E7955
:108E5300657842120D1EE4FBFAF9783F120C2D12CD
:108E63000E62900171EEF0A3EFF0900172E0F52D28
:108E7300E534F47003E533F46006E53445337014E8
:108E8300E534B4FF0AE533B4FF05752D6380097536
:108E93002D628004A21E921EE52DF47003752D5AD7
:108EA300E52D75F00A84E5F02430121BD7EFF0E5C9
:108EB3002D75F00A84F52D75F00A84E5F02430FF52
:078EC300E508121C8AEFF024
:018ECA002285
:10AE5E00900161740CF0A37403F0E4900164F0901F
:10AE6E000166F0900168F090016AF0900080E09029
:10AE7E000163F0900081E0900165F0900082E09017
:10AE8E000167F0900083E0900169F0900084E090FB
:10AE9E00016BF0E4A3F012C367900BC9E493FE7448
:10AEAE000193FF900BCBE493FC740193FD7BFF7A2F
:10AEBE000C79039001751215F37B017A017961907B
:10AECE0001781215F3900C21E49390017BF0900C15
:10AEDE0022E49390017CF0900C23E493FB74019395
:10AEEE0090017DCBF0A3EBF07BFF7A0B79CD128630
:04AEFE00AE02CCEEE6
:0882F50090017BEFF0A3EDF016
:1082FD00E4A3F0A3F090017D121D949406EE94007A
:10830D00501F90017BE090043A12176AE5822FF519
:10831D0082E5833EF5837420F090017D121C7A80F6
:10832D00D490017BE0FF9004391217B17420F090C6
:10833D00017CE0FD7C0064016008ED6403600302D4
:10834D0083D4ED64034C7063121987742EF0900181
:10835D007DE4F0A37406F09000F0121D0B90017DEA
:10836D00E0FCA3E0FD90017BE09004391217BEE51F
:10837D00822DF582E5833CF583EFF09000F0121429
:10838D00F7E47B0A121B839000F012153B90017DE0
:10839D0074FFF5F012123290017DE07002A3E070CF
:1083AD00B69000F01215600000000090017BE0FF18
:1083BD009004421217CA744FF0EF121A12746C1215
:1083CD0017F17464F0804B90017CE0FF7E00640235
:1083DD00702490017BE0FD9004421217D6744EF08C
:1083ED0075F080ED121A157465F075F080ED1217A9
:1083FD00F67477F0801CEF64044E600890017CE009
:10840D006405700E90017BE0FF75F0801217DC742F
:10841D0053F090017BE0FF75F080121770746B12B2
:05842D0016C97430F0D7
:018432002227
:10C3AE00E4FEEEC3121E2E501290043A121C5AE5F1
:10C3BE00822E121BA67420F00E80E71219877420AD
:10C3CE00F0121AE4746612199C7466121A9074664E
:10C3DE001219A77466121AAF74661217AC7466122D
:05C3EE0016C97430F0D7
:01C3F3002227
:027F2800A905A9
:107F2A00C22B75F080EF1217DC7453F0E4FEEEC337
:107F3A00941974809480500F121A1BE5822E121B1A
:107F4A00A67420F00E80E77D0FE4FEEEC394187449
:107F5A008094805034121DAE642C600D121A1BE5F9
:107F6A00822E121BA6ECF0801CEDFB64196005EB57
:107F7A00642770110D121DAE121A1BE5822E121BF8
:107F8A00A6ECF0D22B0D0E80C2E96404700B75F0DA
:107F9A0080EF121770746BF022121AE4742012190F
:107FAA009C7446121A9074691219A77478121AAF3F
:107FBA0074201217AC7420F09000C3E090043212BF
:107FCA001800EEF09000C2E090043112180CEEF0A6
:107FDA009000C5E0900435121818EEF09000C4E045
:107FEA00900434121824EEF09000C7E0900438127E
:107FFA001848EEF09000C6E0FEEF121850EEF0308E
:10800A002B2D9000E81217FCEEF09000E7121808EA
:10801A00EEF09000E6121814EEF09000E512182027
:10802A00EEF09000EA121844EEF09000E9802B90EE
:10803A0000E61217FCEEF09000E5121808EEF09038
:10804A0000E4121814EEF09000E3121820EEF090FB
:10805A0000E8121844EEF09000E7E090042E12189F
:03806A0059EEF0DC
:01806D0022F0
:10A53200ED121BDAE0900450121859121C02121C80
:10A542008EE090044F1219B2EEF090044E121C5A93
:10A552007420121C032416F582E43400F583E09083
:10A56200045F1219B2121C022415F582E43400F5BC
:10A5720083E090045E121A2E121C022414F582E467
:10A582003400F583E090045C121A2E121C0224138C
:10A59200F582E43400F583E090045B121AC8121CC1
:10A5A20002121E1C900457121AC8121C02121C4FCF
:10A5B200900456121B15EEF0ED121B8B90045412F0
:10A5C2001B15121C02121E11FE75F080EF9004532F
:10A5D2001215B5EEF0EF121A487420F0EF121A516C
:10A5E2007420F0EF121A5A7441F0EF121A63742FAA
:09A5F200F0EF121A6C744EF02215
:102A9400D224D225C2901275489000F8E0FF90002D
:102AA40088F06401600AEF64026005EF6403700952
:102AB4007A0679F5123088D242301A0D200A0AC2F9
:102AC4001AE49000A4F0C24222301A0920420620DF
:102AD40022033001069000A4E06003C21A223022CF
:102AE4001A90013AE0D3940374809480400D2042FC
:102AF4000A7A077910123088022B8C301A122001BE
:102B04000F7BFF7A0779B37D05129909C21A802CCD
:102B140030421E900087E0D3121D7D400620010341
:102B2400C24222900087E004F07BFF7A0779E880B4
:102B3400067BFF7A0879077D051299099000A47431
:102B440078F0309648302245301B02D29012B7F00C
:102B5400EF3395E0C3648094805037C2257A0879B6
:102B64002912300CC222900007E0C394767480943A
:102B740080501F20011C1275487A08794112300CCC
:102B8400129423123038C242C21AD205227F05128F
:102B9400CF05304218E50A6453600AC2291224841E
:102BA40012754880F07BFF7A08796C800F9000F8EA
:102BB400740AF01275487BFF7A087994E4FD12993F
:102BC4000912CD6853A8FE201B03300106D295B22A
:102BD400A4C290121B89FF9000F8F0121C49FE90C9
:102BE40000F8F064026003022CAAEFC394337480EB
:102BF4009480500BEE9438748094805002D2074332
:102C0400F14043A440C28612300212300253A4BFE2
:102C140053F1BFE4F52AC3E52A94147480948050D8
:102C240014301B02B2A4123014301B02B2A41230AE
:102C340014052A80E19000887402F0E4FF128FE208
:102C4400E4FF128FE2E4FF128FE212CF1EC22912B8
:102C54002484201B03300107200802C295B2A41269
:102C64003060301B02B2A4123060301B02B2A47B6D
:102C7400FF7A0879B27D021299093007099000F8A9
:102C84007408F0D24222D22612CB0B43EF10C22B8F
:102C940012CC691267599000F87408F0D2427D464C
:102CA4007C00E4022F7D129423122FD63042251289
:102CB400CF1E201B03300102B2A4121D4812C8AB60
:102CC400D2871275481230267A0879CD12301E1236
:102CD4003044D21C301B04D295B2A4E4F52AAF0AC6
:102CE400EF7003022E2C302222300D1F30961C640C
:102CF400586018301B02C29020A5FD123072122FAA
:102D0400A1201B03300118D2908014201B03300132
:102D140002C290E50A64586003123072122FA1E5D2
:102D24002A5401700D300D0343C780301B0FD2A409
:102D3400800B300D0353C77F301B02C2A4E50A6425
:102D440058709BC22912248412CF1E30964630221A
:102D540043300D40D290D2A4200802C295C205305F
:102D6400A5FD127548E50A121E02500B7A0879D0A7
:102D740012301ED205801D122FD6122F82121D6F03
:102D840020A5FD123026C2B47A097906123030200B
:102D9400A51880FBC20DC2902094FDC2B47A0979B3
:102DA4000B123030121D6F3094FDD2B47A097910B1
:102DB400123058D239D20BB2A4D295127548E50A12
:102DC40064586087122F82E50A645970167D907CDE
:102DD4005F7F0A12C8AB1275481230447A00799D9D
:102DE400123058AF0AEF6401600FEF6402600AEF1B
:102DF40064036005EF6404700AC22B12CC69750980
:102E04000F8025AF0A7E00D3EF121D7D5003022CE4
:102E1400E2EF121E034003022CE2C22B12CC697AA9
:102E240009791412306AD205E4F5FE201B0330013F
:102E340004D295D2A47D907C5F7F0E12C8ABE4F5DA
:102E440009127548C229122484303929AF0C12CED4
:102E5400597E007C007DF01211957879A60608A6AB
:102E640007AF0B12CE59EF75F004A4AEF0787A26B2
:102E7400F618EE36F630423E12303820050B7BFF52
:102E84007A097928E4FD1299093039277A097938C1
:102E9400122FE27879E6FE08E6FF7877A60608A600
:102EA400077A097951122FE27A09795512306AC2E8
:102EB4000BC239E4F514129423200502C242C21A4B
:102EC400E490013AF0302247D2909000B8F0A3F099
:102ED400E55A455960237A09795A123090AE59AFB0
:102EE4005AE4FCFD9002527406F01276D87D011269
:102EF40099097A09796A123090D245E50A64017019
:102F04000E7BFF7A09796D7D0112990975090E907E
:102F140000F8E0FF6405600DEF64036008EF6401EE
:102F24006003740AF012307C300104C20180031281
:102F3400CF7CC22B12CC69752A01122FC3303C17E7
:102F4400AF2A052AD3EF121C83400CC22912248411
:102F5400122FC3B2A480E612CF36200802C295C253
:102F6400A4C29012307C7F0512CF05C290E4900079
:0D2F740007F09000A4F07D46FCFF12CE1087
:102F810022AF0AE4FCFDFE90025204F01276D87DD5
:102F9100011299097BFF7A00799D7D01129909221D
:102FA1001275487BFF7A00799D7D01129909AF0A5C
:102FB100E4FCFDFE90025204F01276D87D011299D4
:102FC10009227D907C5F7F0E12C8AB7D907C5F7F74
:102FD1000E12C8AB227BFF7A00799D7D01129909FF
:102FE100227BFF7D011299097877E6FE08E6FFE46E
:102FF100FCFD9002527406F01276D87D01129909F7
:10300100227D907C5F7F7512C8AB227BFF7D011210
:103011009909227D907C5F7F7512C8AB227BFF7D71
:1030210001129909227D907C5F7F0E12C8AB227B31
:10303100FF7D01129909227BFF7A08796B7D0212CB
:10304100990922AF0AE4FCFDFE90025204F01276C7
:10305100D87D01129909227BFF7D01129909227DF8
:10306100907C5F7F7512C8AB227BFF7D01129909AD
:10307100227D907C5F7F0F12C8AB227BFF7A08799B
:103081006B7D02129909227BFF7D05129909227B32
:07309100FF7D0112990922E5
:10CB7600C22912248430490812CF1E7F071230982A
:10CB8600C2291224849000A4E07005C22B12CC693D
:01CB9600227C
:10248400E4F5FEE55B7003022A799000F8E0FF644E
:1024940004600AEF64036005EF64017006304203D0
:1024A40002CD07301B03309309200E0620290302B6
:1024B4002A7212CF1E9000B2E0900177F09000B320
:1024C400E0900178F09000B4E0900179F09000B5CC
:1024D400E090017AF0300607C2167533F080199047
:1024E400080EE0F533D216900177E0700B12C8DDC8
:1024F4008F10900178121DC3900178E0700B7BFF60
:102504007A0979727D05129909900177E0F50CA397
:10251400121DEE85132F301B0920930612CD39129C
:10252400CF89E4F530E530C3955B4003022A5DAF03
:102534001312B9D0C3E52F121D7D4003022A1AE4F9
:10254400F5FEC206900800121AA5C4F854F0C86833
:102554007984F7A3E0C4540F4809F7900801121ACC
:10256400DAFF640E6005EF640F7004D206D2169091
:10257400080D121B0B540FF531C22A300603022832
:1025840031E4F534753503753503C3E535940974C1
:102594008094805042E535540175F00F700C121B85
:1025A4009AE0540FF53205348009121B9AE0C454A2
:1025B4000FF53274302532F5321219FF40067407D4
:1025C4002532F532E52F121A3FE5822535121BA676
:1025D400E532F0053580B3121AD7C413135403F54A
:1025E4003414600F146011146013240370127535D1
:1025F400EE800D7535EF80087535F080037535F183
:10260400121C14246FF9740435F0FA7B01AF35E41D
:10261400FCFDFE9001827403F012C5C9121AD7544E
:102624003FF5329004741219D0EFF0E53275F00AD8
:1026340084F5329004731219D0EF121C13246AF932
:102644007404900808121A81122A7A121C14247A2B
:10265400F9740490080C121A81122A7A121B08D3F6
:10266400946474809480400BC219E49000BAF0C260
:10267400088002D219121B24FFE4FCFDFEFBFA7948
:1026840001F812132B121BE8C006C00790080A12A7
:102694001B277B00FAE4F9F8D007D006121E4390FA
:1026A400017112151390080B121B65FFE4FCFDFE6B
:1026B400121E43301C0EC216753380122A899000F4
:1026C400B3121DEE121DDAEF640E4E70057514017F
:1026D400800EEF64014E70057514FF8003E4F51459
:1026E400121B62FEA3E0FF90007DEEF0A3EFF078F2
:1026F40077E6FC08E6FDEF2DFFEE3CFEE48F398E15
:1027040038F537F536AD37AC367B0FFAF9F81213D6
:102714002B121C2A8C36AF14EF3395E0FEFDFC120D
:102724001C1BF5367B407A42790F7800121BEE129F
:1027340013B6121C1BF536E47B3CFAF9F8AC3612DE
:1027440013B6AF038F2D1200168F0AAF39AE38AD12
:1027540037AC36E47B3C121B83121C2A8C36E47B98
:102764003C121B83AF038F351200168F0B121B6FA5
:10277400AF038F2EE4F5FE90080E121C70B5330BD8
:10278400E530700CD216122A898005753380C21682
:10279400AF2EEF3395E04F7036D3E52E6480F8E525
:1027A400126480984029900175E50AF0900177E55C
:1027B4000CF0900176E50BF012C8DD8F10900175D6
:1027C400E0F50A900177E0F50C900176E0F50B85D1
:1027D4002E12AF2E1200168F0C121C14243AF97408
:1027E4000435F0FA7B01C003C002C0017B407A4289
:1027F400790F7800121BEE1213B6AC00AD01AE02D5
:10280400AF039001827406F0D001D002D00312C548
:10281400C9121BEEE47B107A27F9F81213B6121BC7
:10282400E8E4FDFC121BE8121DFA02288D121B625B
:10283400F535F50A900800121C70F50B121AD7F53D
:102844000C121B24F50D90080A121E4CF50E121BD7
:1028540008F50FAF0A12CE598F2D900801121E4CA5
:10286400640E700DAF2F12C3AE9000B2E0F50C8071
:1028740009121AA2FDAF2F1282F5C2167533F09019
:1028840000B2E0FF12CE598F12E4F5FEC21CAF2F46
:1028940012B671AD31AF2F12A532300603022932C0
:1028A400121B6F121BAE900432121AF5EFF0AF0335
:1028B400121BC0900431121A75EFF0E47B3CFAF954
:1028C400F8AF39AE38AD37AC361213B6121BAE9032
:1028D4000435121AF5EFF07C007D0AAF03AE021244
:1028E40011A7900434121A75EFF0121BEE7882EEE1
:1028F400F608EFF67C007D641211A7121DFAE52D8F
:1029040075F00A1210C6AFF0EF2430FF90043812AD
:102914001CE6EFF0E52D75F00A1210C62430FFE531
:102924002F121850EFF0E52F121988742EF0121B95
:10293400EE121DFA900425121CE67420F0E4F5FE54
:10294400300E0330090A302966E55B146530705F88
:10295400E4FDAF2F12C23FE4F5FE202A1BE53070E0
:102964000A121C14FFAEF07DE08008121C14FFAEA6
:10297400F0AD331259F08016121AA2FF64046005F8
:10298400EF64057009121AA2FDAF2F127F28AF2F32
:102994001279D475F080E52F12198B742E121C1342
:1029A400121D391265697D03AF2F12C23FC229304F
:1029B4002011A206922BAF2F12739FE52F121A3605
:1029C400742CF0301B3A209337E4F5FE202A1BE5E3
:1029D40030700A121C14FFAEF07DE08008121C1443
:1029E400FFAEF0AD331259F08016121AA2FF640440
:1029F4006005EF64057009121AA2FDAF2F127F283B
:102A0400852F13052F0530E530655B6003022538FB
:102A1400752F04022538301B3A209337E4F5FEAFB6
:102A2400130513C3EF940374809480400E7D017FDB
:102A3400007E0212BBFEE4F5138018E5132401FFA7
:102A4400E433FEEF7807C333CE33CED8F9FFE4FD89
:102A540012BBFEE4F52F02252920060312CF3630DF
:102A64001B0C20930912CD3912CF8912A6BBC22B9D
:052A740012CC69C23C18
:102A790022FFE4FCFDFE9001827403F012C5C92215
:0B2A89009000B2E0FF12CE598F122225
:108ECB00D295D2A4D290D219C208E49000BAF0D2B3
:108EDB0096121D2312C8AB121D2312C8ABE49000CF
:108EEB00A4F012C8DD8F10850C1112CF1E12CD0706
:108EFB0012CDC1C21BC209C218E4F5FE7F0512CF09
:108F0B000512C732E490013AF0C2A3D283D2B5C2A4
:108F1B000EF5FE12CF7CC2A3D283D2B5D2A4C2155A
:108F2B00E4900007F0F5FED2AFD242C2177F0412D5
:108F3B00B4DC7F0212B4DC7A0979A0128FDA309399
:108F4B00097A0979D2128FDAD2427F0112CBD690ED
:108F5B0000F87404F0E4F5089000A1F0A3F0126798
:108F6B005912CD687F01EFC3121CD4500912186B34
:108F7B00121D84028F717508079002B112156000E3
:108F8B00000000121E357BFF7A0979E77D051299E7
:108F9B0009D201E49000EFF090011DF090015F7495
:108FAB0063F0E490016DF090013DF090007FF09044
:108FBB00013BF0D2A0C290C2907F0112C9417BFF4E
:0E8FCB007A0A79057D05129909C20EE4F514A3
:098FD900227BFF7D05129909229B
:0D00460075F1F875F3EF43E28075F5FF22C8
:05739F0090017BEFF0FE
:1073A4007BFF7A0A793F7D01129909E4900085F008
:1073B4007B017A0079807D0112990912751DFF9075
:1073C4000440121802E4F0EF75F080A42426F97446
:1073D400041274FF90044012180E7420F012751DEC
:1073E400FF90044512181AE090017C12199CE09059
:1073F400017DF090017BE0900447121826E0900193
:107404007E1219A7E090017F12752D90017C742CD7
:10741400F090017BE0FF90044912183EE090017D5A
:107424001217ACE090017EF0A3742C12752D90011C
:107434007BE0FF90045212184AE41219BAE41218BD
:107444002CE4F075F080EF202B17121A28E412199F
:10745400C5E4121A07742CF075F080EF90047E8056
:107464000390045F1215B5E4F0EF75F080A4244D89
:10747400F974041274FF75F080A42453F97404128F
:10748400750E75F080A4245AF9740412753D202BEE
:107494003390017BE075F080A4246AF974041275BA
:1074A4000E75F080A4246FF9740412753D90017B6D
:1074B400E075F080A4247AF9740435F0FA7B017D38
:1074C4000112990990017BE0FF9004521218537441
:1074D400201219BA742012182C7420F0202B11EFEA
:1074E400121A2574201219C57420121A07742CF06C
:0B74F4007BFF7A0A79467D02029909AD
:1074FF0035F0FA7B017D0112990990017BE022356D
:10750F00F0FA7B017D0112990990017BE0227BFF4C
:10751F007A0A79437D0112990990017BE022F0E408
:10752F00A3F07B017A01797C7D011299092235F054
:09753F00FA7B017D011299092279
:10971F00E4FF12CE3540030297FD303D030297C39D
:10972F009000A4E060030297C3301509FC1297FE66
:10973F007C001297FE20421E121DBB600AEF6402CE
:10974F006005EF6403700FD242C22B12CC697BFF0E
:10975F007A0A796C800BC22B12CC697BFF7A0A795B
:10976F007FE4FD129909129423121C0A1299092001
:10977F00426B9000F8E0FF64026005EF6403700E27
:10978F009000F87402F07BFF7A0A799D801F900099
:10979F00F8E06401700B7403F07BFF7A0A79B180F3
:1097AF000C9000F87401F07BFF7A0A79C57D0512E1
:1097BF0099098029121DBB600AEF64026005EF64EE
:1097CF0003701A7BFF7A0A79D9E4FD129909129472
:1097DF0023121C0A1299099000F8740AF09000A441
:1097EF00E07002C23D7D467C00E4FF12CE10227B6A
:1097FF00FF7A0A794B7D201265697BFF7A0A794BD4
:08980F007D207C001265692236
:106E7B0012C3679000F4E0645B600302702C7BFF2D
:106E8B007A0A79EAFD129909E49000F7F07B017A0E
:106E9B000079F47D01129909121C0A129909E490E8
:106EAB0000F4F09000BBF09000F5E01216086EF3C2
:106EBB00416F31436F9E446FC3496FD14C6FD94EB5
:106ECB006F314F6FDE506FE3536FEC546FFE556FA6
:106EDB00FE56700857700F586F315A6F1E636F88CC
:106EEB00646FF3740000701A7F0612CF05C2227B09
:106EFB00FF7A0A79F57D05129909E4FDFF12A53297
:106F0B00127034C215200802C295121E5612702D33
:106F1B00027025D21112702DE4FDFF12C23F12C078
:106F2B00B0D2A4027025C21AC242C215200802C2F6
:106F3B0095C22212CD0712CF1E12675912C8DD8FD0
:106F4B00109000F5E0FF64436004EFB45A12126333
:106F5B0050C22BE4FF12739F7BFF7A0B79088009D9
:106F6B0012A4667BFF7A0B79187D05129909C2A4CE
:106F7B00D209E4FDFF12C23FD2A40270039000BC01
:106F8B00E55BF0C2291224849000BCE0FF12C2D54D
:106F9B00027025D215C227126B03E4FDAF1312C288
:106FAB003FE51375F080A4121D391265697D02AFA0
:106FBB001312C23FC2158062C2091287E5D20912B1
:106FCB001E3CD2458054D215C290D295804C12C62D
:106FDB0047804712B8E28042C21520083DC2958017
:106FEB003912BC66D2178032C2117D02E4FF12C285
:106FFB003F8027D229128C98121E56801D7F0112BA
:10700B004B81801620110330091012C005800B7BB9
:10701B00FF7A0B79287D05129909E49000F5F0A30E
:09702B00F02212CD0712CF1E2243
:0300530002CA4A94
:10CA4A00C0E0C0D075D000C007AFBBEF641E70084D
:10CA5A0075BB0475BCFC800675BB1E75BCF8C2EDBF
:07CA6A00D007D0D0D0E0326C
:03008B0002BAB7FF
:10BAB700C0E0C0F0C083C082C0D075D000C000C055
:0DBAC70001C002C003C004C005C006C007D6
:10BAD40012CEBEEF30E2317B013009237A0079BB0C
:10BAE4007D311289179000BBE09000F4F09000BC07
:10BAF400E09000F5F09000BDE09000F6F080097A47
:08BB04000079F47D031289179A
:10BB0C00D007D006D005D004D003D002D001D0008D
:0BBB1C00D0D0D082D083D0F0D0E03237
:10CAE600FDFC121490E53E4FFFE53D4EFEE53C4D44
:10CAF600FDE53B4C8F3E8E3D8D3CF53B229001F48F
:05CB06001214F7E42207
:06C503009001F412153B4B
:10C50900E4F53EF53DF53CF53B12CB03FFFEFDECB2
:10C51900781812147D12CAEB12CB03FFFEE4FC78E3
:10C529000812147D12CAEB12CB03FFE4780812CA71
:0BC53900E612CB03FE781812CAE6FCE5
:01C5440022D4
:02CF4100AD073A
:08CF4300EEFBEDFAEBAE02FF7C
:01CF4B0022C3
:10A5FB001201100100000040C41000020000010015
:10A60B00030109022000010100800F090400000270
:10A61B0008065000070581024000000705020240B2
:10A62B000000040309042A03530069006C0069004D
:10A63B0063006F006E0020004C00610062006F0031
:10A64B007200610074006F00720069006500730096
:10A65B0038034300380030003500310046007800E5
:10A66B0078007800200044006500760065006C00DF
:10A67B006F0070006D0065006E00740020004200DA
:10A68B006F006100720064001C0330003000370063
:10A69B003900380037003600350034003300320003
:10A6AB0031003000FFA62DFFA631FFA65BFFA6935E
:04003E0001000000BD
:10C05B007596117597409002A37401F0E49002A9B4
:10C06B00F0A3F0227A0079407BFF9002980215F33F
:10C07B0075960EE4F5979002A3E06404229002A05B
:10C08B00E0FF7E006481229002A6E0640422759694
:10C09B0011759748229002A7E4F0A304F02275963D
:05C0AB000E7597012253
:10AB090090029DE07010A3E0700C9002A1E0700625
:10AB1900A3E06402600312CC2F90029BE0247F60C3
:10AB2900131460292402707790029FE07015A3E046
:10AB39006013806B12C092700A90029FE07004A3A8
:10AB4900E06002805A7BFF7A007940804212C0920D
:10AB5900700690029FE06002804512C088701690CE
:10AB690002A4E064037BFF70067A00793E80047AD0
:10AB7900007940801AEF64014E70229002A5E064CA
:10AB8900037BFF70067A00793E80047A00794012CF
:10AB9900C0759002A7E4F0A37402F080058000124A
:10ABA900CC2F12C0816008E59620E7FB12C05B221A
:10B2160012C092702090029BE060716401606D9094
:10B22600029DE0706790029FE070619002A1E0705D
:10B236005BA3E06002805590029BE06402704D9033
:10B24600029EE0704712C0886005EF6401703DEF12
:10B2560064814E701AE59620E7FB12C0A9E5962098
:10B26600E7FB759611759740E49002A4F08020E5FF
:10B276009620E7FB75960E759702E59620E7FB7517
:10B286009614759780E49002A5F0800312CC2FE502
:10B296009620E7FB12C07B6008E59620E7FB12C00C
:02B2A6009922EB
:10B2A80012C092702090029BE060706401606C9004
:10B2B800029DE0706690029FE070609002A1E070CD
:10B2C8005AA3E06002805490029BE06402704C90A4
:10B2D800029EE0704612C0886005EF6401703CEF82
:10B2E80064814E7018E59620E7FB12C0A9E5962008
:10B2F800E7FB7596117597109002A48019E59620C2
:10B30800E7FB75960E759702E59620E7FB75961490
:10B318007597209002A57403F0800312CC2FE59650
:10B3280020E7FB12C07B6008E59620E7FB12C09976
:01B3380022F2
:10C28A0090029BE0701D90029FE07017A3E070136C
:10C29A00A3E0700FA3E0700B90029DE07005A3E08D
:10C2AA0030E70312CC2F9002A37405F090029EE0AF
:10C2BA009002A660057403F080037402F012C08134
:0BC2CA006008E59620E7FB12C09922F7
:1095220090029DE024FE601C1460391460531460A4
:1095320065240460030295D07AA579FB12C073906A
:10954200A5FB80497BFF7AA6790D12C07590A61003
:10955200E493FE90A60FE4937C002400FFEC3E907F
:1095620002A7806490029EE075F00390A6AF1215E8
:10957200B51215FC12C0751210E8FF9002A7E48024
:10958200477BFF7AA6791612C07590A616E493FF60
:109592009002A7E4803290029E12C08B6005EF64B5
:1095A20001702BEF64814E7BFF700C7AA6791F123B
:1095B200C07590A61F800A7AA6792612C07590A659
:1095C20026E493FF9002A7E4F0A3EFF0800312CC0D
:1095D2002F90029DE0FF64016014EF6402600FEFC0
:1095E2006403600AEF64046005EF6405702390026F
:1095F200A2E0FFD39002A8E09F9002A7E09400406F
:10960200109002A1E0700AE0FE9002A7EEF0A3EF34
:0F961200F012C0816008E59620E7FB12C05B22D2
:10BE490090029BE06480701C90029DE07016A3E054
:10BE59007012A3E0700EA3E0700AA3E07006A3E0DD
:10BE69006401600512CC2F80239002A6E0FF7E00BA
:10BE79006404700C7BFF7A00793E12C07512C0A071
:10BE8900EF64034E700612C06F12C0A012C0816029
:0ABE990008E59620E7FB12C05B22CB
:10B452009002A6E06402602990029BE070239002B1
:10B462009FE0701DA3E07019A3E07015A3E07011B6
:10B4720090029DE0700BA3E0D3940174809480400D
:10B482000512CC2F804690029EE0D39400748094E3
:10B4920080402D9002A67404F0E49002A4F0A3F080
:10B4A200E59620E7FB12C0A9E59620E7FB75961208
:10B4B200759720E59620E7FB75960EE4F597800CCC
:10B4C2009002A67403F09002A4F0A3F012C081606F
:0AB4D20008E59620E7FB12C099225E
:10C5450012C092702490029BE06481701C90029D41
:10C55500E07016A3E07012A3E0700EA3E0700AA3CA
:10C56500E07006A3E06401600512CC2F800612C0BE
:10C575006F12C0A012C0816008E59620E7FB12C0CB
:02C585005B2237
:10C80F0090029BE06401701C9002A1E07016A3E0FF
:10C81F00701290029DE0700CA3E07008A3E070040A
:10C82F00A3E0600312CC2F12C0816008E59620E7C9
:05C83F00FB12C099226C
:06C1EB004302A300000066
:10C9CE00FEE02400FFEC3EF0A3EFF022900232E0F6
:10C9DE004408F0E49002A3F02285668385678222E4
:0BC9EE00900003121652E0FEA3E022AE
:0300430002AF0207
:10AF0200C0E0C0F0C083C082C0D075D000C000C015
:0DAF120001C002C003C004C005C006C00796
:10AF1F00E59620E7FB759686E59620E7FB90022ED7
:10AF2F00E597F0E59620E7FB759682E59620E7FB1F
:10AF3F0090022FE597F0E59620E7FB759684E5964E
:10AF4F0020E7FB900230E597F090022EE030E1030E
:10AF5F0012CF5790022EE030E20312CC1290022F44
:10AF6F00E030E003126CC1900230E030E20312BC1B
:0BAF7F00C990022EE030E00312CF6109
:10AF8A00D007D006D005D004D003D002D001D0001B
:0BAF9A00D0D0D082D083D0F0D0E032C5
:0ACF5700900231E475F0010212327D
:10CC12009002A67402F0E59620E7FB7596017597DF
:0DCC220001E49002A3F0A37403F0A3F0223C
:106CC100E59620E7FB75960EE4F597E59620E7FB40
:106CD100759691E59620E7FB900231E597F09002D9
:106CE100A3E064057013E59620E7FBE4F5969002B6
:106CF1009EE0F597E49002A3F0900231E0FF30E2CC
:106D010010E59620E7FB759611E4F5979002A3F044
:106D110022EF30E41BE59620E7FB75961175970885
:106D2100E59620E7FB759611759780E49002A3F034
:106D31009002A3E06003026DCB900231E020E003FA
:106D4100026DCB7B017A02799B7D087C007F20124A
:106D5100C1F190029EE0FE90029DE07C0012C9D03C
:106D61009002A0E090029F12C9CE9002A2E0900290
:106D7100A112C9CE90029CE01216086D9B006DA075
:106D8100016DA5036DAA056DAF066DB4086DB90956
:106D91006DBE0A6DC30B00006DC812AB09802B12CA
:106DA100B216802612B2A8802112C28A801C1295C6
:106DB10022801712BE49801212B452800D12C545AD
:106DC100800812C80F800312CC2F9002A3E0640147
:106DD1006003026E7A900231E030E103026E7AE5DF
:106DE1009620E7FB759691E59620E7FB900231E549
:106DF10097F0E030E40630E003026E7A90023274DC
:106E010002F0C39002A8E094409002A7E0940090A1
:106E11000298402D1215D37C007D407F2012B7755A
:106E2100900299E475F0401212329002A774FF7536
:106E3100F0C01212329002A9E475F04012123280B1
:106E4100131215D39002A7E0FCA3E0FD7F2012B737
:106E51007512C9DA9002A1E0FEA3E0FF9002A9E059
:106E6100B50608A3E0B5070312C9DAE59620E7FBEA
:096E7100759611900232E0F597CC
:016E7A0022F5
:10BCC900E4FFE59620E7FB75960E759702E5962049
:10BCD900E7FB759694E59620E7FBAE979002A5E001
:10BCE9006403700CE59620E7FB759614759720227E
:10BCF900EE30E60BE59620E7FB759614759780E51F
:10BD09009620E7FB759696E59620E7FBAF97EFFD42
:10BD19007C00E59620E7FB759697E59620E7FBAF53
:01BD29009782
:01BD2A0022F6
:0ACF6100900231E475F00102123273
:10C1F100900233EFF09002361215F3900234ECF016
:03C20100A3EDF0BA
:10C204004C6037900233E0F5964396C0E4FFFED3CA
:10C21400900235E09F900234E09E401BE59620E7B3
:10C22400FB9002361215D38F828E83E59712117319
:0AC234000FBF00010E80D8E4F5965C
:01C23E0022DD
:10B7750090FFFD12162E1215F390FFFE12162EECF9
:10B78500F0A3EDF090FFFF12162EEFF090FFFE12E2
:02B79500162E6E
:10B79700D2B012C9EE4E6049E59620E7FB12C9E721
:10B7A700A3A3E0F59612C9E7E4F0A3F012C9EEFFF0
:10B7B70012C9E7E0FCA3E0FDC39FEC9E5023900075
:10B7C700051216521215D38D828C83121101F5972B
:10B7D700E59620E7FB12C9E7E475F0011212328003
:03B7E700CBC2B022
:06B7EA0090000802162E7B
:10CC2F00E59620E7FB75960EE4F597E59620E7FB72
:0DCC3F007596117597209002A37404F022E1
:10C6BE001201100100000040C41000000000010231
:10C6CE0003010902200001010080FA0904000002A2
:10C6DE00FF0000000705020240000007058202402D
:0AC6EE00000004030904010000002D
:1086AE0090016EEEF0A3EFF0900172EBF0A3EAF002
:1086BE00A3E9F0E49007A8F09007A8E0FF90C6BEEB
:1086CE0093FE74402FF582E43407F583EEF09007A5
:1086DE00A8E004F0E0B412E0E49007A8F09007A838
:1086EE00E0FF90C6D093FE74522FF582E43407F566
:1086FE0083EEF09007A8E004F0E0B420E090016E65
:10870E00E0FAA3E0900748F0EAA3F0EDA3F0ECA3A3
:10871E00F090077274FFF0A374C6F0A374F0F0909B
:10872E000172E0F9A3E0FAA3E0900775C9F0A3EA9D
:10873E00F0A3E9F0900175E0F9A3E0FAA3E0900749
:10874E0078C9F0A3EAF0A3E9F0900178E0F9A3E08C
:10875E00FAA3E090077BC9F0A3EAF0A3E9F0900139
:10876E007BE0FFC394FA500590075AEFF090017C1E
:10877E00E0900759F090017DE0FEA3E090074CF0E9
:10878E00EEA3F0E59620E7FB759601759708E59642
:10879E0020E7FB75960775970FE59620E7FB759614
:1087AE000975970EE59620E7FB75960B759707757D
:1087BE00D7E012CF12E4900792F0900791F0900755
:1087CE0093F0900786F043E602D2AFE59620E7FBE2
:0787DE007596017597012259
:10CA71009007867402F0E59620E7FB75960175979D
:10CA810001E490078EF0A37403F0A3F0E490079201
:07CA9100F090079104F02270
:105EE700E59620E7FB75960EE4F597E59620E7FB28
:105EF700759691E59620E7FB90079CE597F0E0FF04
:105F070030E210E59620E7FB759611E4F5979007C8
:105F17008EF022EF30E410E59620E7FB75961175B9
:105F27009780E490078EF090078EE0600302601C74
:105F370090079CE020E00302601C7596204396C002
:105F4700E49007A8F0E59620E7FB9007A8E0247EF9
:105F5700F582E43407F583E597F09007A8E004F0AD
:105F6700E0B407E1E59620E7FBE4F5969007A8E0A3
:105F7700247EF582E43407F583E597F0900781E006
:105F8700FE900780E07C002400FFEC3E900794F031
:105F9700A3EFF0900785E0FE900784E02400FFEC74
:105FA7003E900796F0A3EFF090077FE004603B1464
:105FB700B40C00505D905FC3F8282873025FE702B6
:105FC7005FEC025FF1025FF6026019025FFB02609D
:105FD7000002601902600502600A02600F02601485
:105FE70012BA44803012BD8C802B12920580261283
:105FF700BDEB802112CB97801C12A77B801712C3A1
:1060070020801212BEA3800D12CA98800812CDD527
:10601700800312CC4C90078EE06401600302611D7F
:1060270090079C7402F0C390078DE0944090078C12
:10603700E094004061E59620E7FB759620E4900721
:10604700A8F09007A8E0FFC394405022900787E08C
:10605700FBA3E0FAA3E0F98F82758300121101F523
:1060670097E59620E7FB9007A8E004F080D4900717
:1060770088E475F04012123290078DE024C0F0904A
:10608700078CE034FFF090078BE02440F090078AFC
:10609700E03400F08052E59620E7FB759620E49007
:1060A70007A8F09007A8E0FFD390078DE09F90071F
:1060B7008CE094004026900787E0FBA3E0FAA3E07A
:1060C700F99007A8E0F582758300121101F597E5AD
:1060D7009620E7FB9007A8E004F080C790079CE0B4
:1060E7004408F0E490078EF0900796E0FEA3E0FFE7
:1060F70090078AE0B50611A3E0B5070C90079CE06E
:106107004408F0E490078EF0E59620E7FB759611BA
:0761170090079CE0F59722C0
:10CC4C00E59620E7FB75960EE4F597E59620E7FB55
:0DCC5C0075961175972090078E7404F022D4
:10BA440090077EE0247F600714600624027048801B
:10BA54002D90078FE0B40309900782E0B4020280BE
:10BA64000E900790E0B40316900782E0B4820F9022
:10BA7400078774FFF0A374C6F0A374F4800D9007D5
:10BA84008774FFF0A374C6F0A374F6F090078CE4F7
:10BA9400F0A37402F0800312CC4C90078EE064048F
:10BAA400601012CDD590078E7401F0E490078AF0EF
:03BAB400A3F022DA
:10BD8C00900780E07048900782E0FFB4021DE596B2
:10BD9C0020E7FB75960E759702E59620E7FB7596E6
:10BDAC0014759780E490078FF08026EFB4821DE520
:10BDBC009620E7FB75960E759702E59620E7FB75C6
:10BDCC009611759740E4900790F08005800012CC96
:0FBDDC004CE59620E7FB75960EE4F59702CDD562
:10920500900794E0B4373CA3E0B40B3790078EE0A9
:109215006404601012CDD590078E7401F0E49007B8
:109225008AF0A3F090079B7480F09007877401F093
:10923500A37407F0A3749BF090078CE4F0A304F0EB
:10924500029307900795E020E0030292DE900793D2
:10925500E030E00854FEF04402F08007900793E008
:1092650054FDF0E59620E7FB75960E759702E59699
:1092750020E7FB759614759710E59620E7FB759624
:1092850011759708E59620E7FB759694E59620E716
:10929500FB90079BE597F0E020E4E9E59620E7FBE6
:1092A500759614759710E59620E7FB759691E596EA
:1092B50020E7FB90079BE597F0E020E3E9E59620A2
:1092C500E7FB7596117597089007917408F090075C
:1092D50093E0FF30E1034401F0900794E0FCA3E044
:1092E500FD30E10D9007867406F0900791E044107B
:1092F500F0ED30E20D9007867404F0900791E0449C
:1093050020F0E59620E7FB75960EE4F59702CDD59E
:10BDEB00900780E07047900782E0FFB4021BE59656
:10BDFB0020E7FB75960E759702E59620E7FB759687
:10BE0B001475972090078F801DEFB4821EE5962046
:10BE1B00E7FB75960E759702E59620E7FB75961175
:10BE2B007597109007907403F08005800012CC4C2E
:0EBE3B00E59620E7FB75960EE4F59702CDD54F
:10CB9700E59620E7FBE4F596900780E0FFF597EF31
:10CBA70090078660057403F080037402F002CDD508
:10A77B00900781E024FE601B14603B2402707290F2
:10A78B0007877401F0A37407F0A37440F09007409F
:10A79B00E080539007877401F0A37407F0A3745201
:10A7AB00F0900755E0FE900754E07C002400FFEC8E
:10A7BB003E90078C8035900780E0FFD394034002D6
:10A7CB00802FEF75F003A42472F582E43407F58330
:10A7DB00E0FBA3E0FAA3E0F9900787EBF0A3EAF024
:10A7EB00A3E9F01210E8FF90078CE4F0A3EFF080E0
:10A7FB000312CC4C90078CE0FEA3E0FF900796E091
:10A80B00FCA3E0FDC39FEC9E500890078CECF0A3DB
:10A81B00EDF090078EE06404601012CDD590078E9A
:0BA82B007401F0E490078AF0A3F02213
:10C32000900786E0FFB40414A374FFF0A374C6F072
:10C33000A374F4F090078CE4F0A304F0EFB40316B8
:10C3400090078774FFF0A374C6F0A374F6F090070B
:10C350008CE4F0A304F012CDD590078E7401F0E4C4
:07C3600090078AF0A3F02210
:10BEA300900780E0D394004042900791E04440F033
:10BEB3009007867404F0E490078FF0A3F0E59620D2
:10BEC300E7FB75960E759702E59620E7FB759612CC
:10BED300759784E59620E7FB759615759780E5962B
:10BEE30020E7FB75960EE4F597800C9007867403A4
:0ABEF300F090078FF0A3F002CDD508
:10CA980090078774FFF0A374C6F0A374F6F09007AC
:10CAA8008CE4F0A304F012CDD590078E7401F0E465
:07CAB80090078AF0A3F022B1
:10CDD50090078EE06404600BE59620E7FB759611DD
:04CDE50075974022DC
:03004300027C8DAF
:107C8D00C0E0C0F0C083C082C0D075D000C000C0BD
:107C9D0001C002C003C004C005C006C00790079D07
:107CAD00E596F0E59620E7FB75968EE59620E7FBC9
:107CBD0090079EE597F0E59620E7FB759686E5968D
:107CCD0020E7FB900798E597F0E030E30BE5962071
:107CDD00E7FB75960B759707900798E030E2031256
:107CED00CA71900798E030E014900786E0FF6404B5
:107CFD006004EFB40607900791E04480F0E596200C
:107D0D00E7FB759682E59620E7FB900798E597F0DF
:107D1D00E030E003125EE7900798E030E22AE59646
:107D2D0020E7FB75960E759702E59620E7FB759695
:107D3D0091E59620E7FB900799E597F0E0540370E5
:107D4D0007900791E04402F0E59620E7FB759684D5
:107D5D00E59620E7FB900798E597F0E030E229E5FE
:107D6D009620E7FB75960E759702E59620E7FB7555
:107D7D009694E59620E7FB900799E597F0E030E0C3
:107D8D0007900791E04404F0E59620E7FB75960E09
:107D9D0090079EE0F597E59620E7FB90079DE59609
:107DAD00F0E59620E7FB900793E030E0099007910E
:107DBD00E0600312CB54D007D006D005D004D00319
:107DCD00D002D001D000D0D0D082D083D0F0D0E07E
:017DDD003273
:10C36700E49007A8F0E5B964E0603853A90F900797
:10C37700A7E5A9F043B280E5A95407D39401400388
:10C38700E4F5A9E4F5B943B9809007A8E014F07083
:10C39700F843B9C0E5B930E5FB9007A7E0B402035D
:07C3A70043A90253A90F2274
:10C9A1009007A7E5A8F0C2AFC2AF53E6FDE4F5D703
:10C9B100E59620E7FB759601759708E5A920E10644
:0DC9C10043A910E4F5B99007A7E0F5A822FE
:0FCEBE00900791E0FF9007A7F0E4900791F02212
:108917009007A8EDF09007ABEBF0A3EAF0A3E9F01E
:10892700900786E0B40606EDD3944040037F00220B
:10893700E59620E7FB75960E759702E59620E7FB0F
:10894700759694E59620E7FB90079AE597F0E02067
:10895700E003028A44E59620E7FB759696E59620A4
:10896700E7FB900792E597F0E0FFEDC39F5006AE57
:1089770005AF068000900792EFF053E6FDE59620DD
:10898700E7FB7596E2900792E07003028A2890074A
:10899700ABE0FF7020A3A3E090079FF0E59620E7E8
:1089A700FB90079FE0F8A697E004F09007A8E01473
:1089B700F070E9806CEF20E73C9007ABA3E0FAA3E7
:1089C700E0FF9007A1EAF0A3EFF0E59620E7FB9020
:1089D70007A1E0FEA3E0F5828E83E597F09007A25A
:1089E700E004F070069007A1E004F09007A8E014F7
:1089F700F070D7802C9007ABE064FE7021A3A3E052
:108A07009007A5F0E59620E7FB9007A5E0F8E59726
:108A1700F2E004F09007A8E014F070E880037F000C
:108A270022E59620E7FBE4F596E59620E7FB7596A9
:108A370014E4F59743E602900792E0FF227F0022B5
:10656900E49007A7F09007A9F0A3F09007ABEBF030
:10657900A3EAF0A3E9F0900786E0B4060DED4C60BC
:1065890009D3ED9400EC94104004E4FEFF2253E695
:10659900FD9007A7E030E00302674DE59620E7FB91
:1065A90075960E759702E59620E7FB759691E59627
:1065B90020E7FB9007A7E597F0E030E020E596207B
:1065C900E7FB75960EE4F597E59620E7FB7596913E
:1065D900E59620E7FB9007A7E597F080B4D3ED9403
:1065E90040EC94009007A840057440F08002EDF05B
:1065F900E59620E7FB7596229007A8E070030266EE
:10660900FD9007ABE0702DA3A3E0F99007A9A3E0E3
:10661900FFE92FF990079FE9F0E59620E7FB90073E
:106629009FE0F8E6F597E004F09007A8E014F07011
:10663900E80266FD9007ABE020E747A3E0FAA3E094
:10664900F99007A9E0FEA3E0FFE92FF9EA3EAF01BF
:106659009007A1F0A3EFF0E59620E7FB9007A1E0F2
:10666900FEA3E0F5828E83E0F5979007A2E004F09F
:1066790070069007A1E004F09007A8E014F070D725
:1066890080729007ABE064FE7021A3A3E09007A598
:10669900F0E59620E7FB9007A5E0F8E597F2E0041E
:1066A900F09007A8E014F070E880499007ABA3E0E8
:1066B900FAA3E0F99007A9E0FEA3E0FFE92FF9EAC0
:1066C9003EAF019007A3F0A3EFF0E59620E7FB901A
:1066D90007A3E0FEA3E0F5828E83E493F597900784
:1066E900A4E004F070069007A3E004F09007A8E086
:1066F90014F070D6C3ED9440EC94009007AAE040E2
:106709001F2440F09007A9E03400F074C02DFD74F7
:10671900FF3CFCE49007A7F09007A87440F08016AE
:106729002DF09007A9E03CF09007A77401F09007BD
:10673900A8EDF0E4FCFDE59620E7FB759611759749
:106749000102659A43E6029007A9E0FEA3E0FF2251
:10CCEE00900793E04401F0900791E0600BE59620E9
:09CCFE00E7FB75960B75970F22F8
:08CF7400900793E054FEF02247
