:0300000002BF2D0F
:0CBF2D00787FE4F6D8FD75818702BF74B0
:10BF3900023435E493A3F8E493A34003F68001F2B5
:10BF490008DFF48029E493A3F85407240CC8C33309
:10BF5900C4540F4420C8834004F456800146F6DFD8
:10BF6900E4800B010204081020408090CE51E47E49
:10BF7900019360BCA3FF543F30E509541FFEE493CD
:10BF8900A360010ECF54C025E060A840B8E493A394
:10BF9900FAE493A3F8E493A3C8C582C8CAC583CABF
:10BFA900F0A3C8C582C8CAC583CADFE9DEE780BE77
:01CE510000E0
:0EDC6C00F0EF25E0248BF582E43402F58322EC
:03002B0002D16F90
:10D16F00C0E0C0F0C083C082C0D075D018900289D3
:10D17F00E475F001121D9D75CBF075CA60C2CFC367
:10D18F0090028AE0947D900289E094004009E4F0D7
:10D19F00A3F0D21F12DAA6D0D0D082D083D0F0D095
:02D1AF00E0326C
:10DAA600D390028CE0940090028BE094804007743F
:07DAB600FFF5F0121D9D2297
:0300730002DB02AB
:10DB020053E67F53917F53C77F43C78053C77F43F9
:06DB1200C78053C77F32FB
:10D41D00E4900289F0A3F0FFEFC39401748094802F
:10D42D00501012DC6DE4F0A312DC6CE0547FF00FB1
:10D43D0080E6E4F5C8538E0F75CBF0F5CA74FFF591
:07D44D00CDF5CCD2ADD2CA2F
:01D4540022B5
:10DBA300538EF8438E04758902758CEA758AEAD21E
:02DBB3008C22C2
:10DB7D00E4F59175959E75945875939E75925853CD
:03DB8D008EBF2226
:10DB2D00E4F591F595F59475937F7592FF538E3FBE
:04DB3D0043910422EA
:10DBB50012DC6DE0FEA3E07003EE64807002D322F8
:02DBC500C32279
:10DB9000ED4C600E12DC6DECF0A3ED12DC6CE04499
:03DBA00080F022F0
:1000030075B28353A9F8E4F586758DCC438E082227
:10D4C40043B203E4F5B943B980FFFE0FBF00010E78
:10D4D400BE01F8BFF4F543B9C0E4FEFF0FBF00017D
:10D4E4000EBE01F8BFF4F5E5B930E5FB75A9037587
:05D4F4008D30438E089D
:01D4F9002210
:0D002E000070007000DFF9EE6002DEF422C9
:10008E0043757272656E742054696D653A20002056
:10009E00004E657720486F75722E2E2E2020200080
:1000AE000D0A2D2D2E2000005553422054696D65EA
:1000BE0020616E642053656E736F722044617461AB
:1000CE002073656E74003F2A53796E6320436F75FB
:1000DE006E742C20496E76616C69642054696D656E
:1000EE0020666C616720736574004C6172676520D1
:1000FE0046696C652053697A65004E6577204669BE
:10010E006C6520506172746974696F6E00207E7E1A
:10011E00377E7E0046696C652073697A653A0044C5
:10012E00737020566572732069732030312E35300E
:10013E00004E65772066697665206D696E7574650B
:10014E0020696E74657276616C2E2E2E20004E65BF
:10015E00772066697665206D696E75746520696EA7
:10016E0074657276616C2E2E2E4E6F204750532082
:10017E00736F206E6F2053796E63207570207769D0
:10018E006C6C206265207363686564756C65642EA3
:10019E000D0A00202020204C6173742047505320FC
:1001AE00617474656D707420776173207375636309
:1001BE0065737366756C2E2000202020204C6173B1
:1001CE00742047505320617474656D70742066619D
:1001DE00696C65642120002020202047505320693F
:1001EE00732064697361626C65642E2000426174D1
:1001FE007465727920766F6C746167652069733AE5
:10020E00200020202020486F75726C792044657480
:10021E00656374696F6E20436F756E743A200020AB
:10022E00546F74616C20446574656374696F6E20DD
:10023E00436F756E743A200020506F6F72205369B1
:10024E00676E616C00204E4545445320534552560F
:10025E00494345212121000D0A0D0A2D2D2D202A5D
:10026E002A2A2054524944454E54205348454C4C5A
:10027E002053544152544544202A2A2A0D0A2D2D2A
:10028E002D000D0A2D2D2D20487964726F70686F28
:10029E006E6520636F6D6D756E69636174696F6EE7
:1002AE0020737461727465642E002A2A2A204469B0
:1002BE0061676E6F73746963205374617475732014
:1002CE00436865636B20686173206265656E2069A3
:1002DE006E69746961746564202A2A2A0D0A2D2DAF
:1002EE002D005344206D656D6F72792063617264C9
:1002FE00206973206E6F7420696E20746865207398
:10030E006C6F742E002A2A2A2047505320697320BE
:10031E00656E61626C656420746F20616C6C6F77C2
:10032E002074696D696E672066756E6374696F6E91
:10033E0073202A2A2A0D0A2D2D2D002A2A426164A5
:10034E002074696D652A2A0D0A2D2D2D002A2A2A60
:10035E00204261642074696D652E20547279207379
:10036E00657474696E6720636C6F636B2075736957
:10037E006E67204750532E202A2A2A0D0A2D2D2D26
:10038E00002A2A2A2047505320617474656D7074B8
:10039E0020776173207375636365737366756C2E56
:1003AE00204770732074696D652073796E632077B2
:1003BE00696C6C20626520617474656D707465641F
:1003CE002E202A2A2A0D0A2D2D2D002A2A2A2047D0
:1003DE00505320617474656D7074206661696C652C
:1003EE00642E204770732077696C6C206E6F7420BA
:1003FE006265207573656420746F20736574207454
:10040E0068652074696D652E202A2A2A0D0A2D2D05
:10041E002D005B4750532053594E43204641494CC3
:10042E002121212E2E2E2E2E2E2E2E2E2E2E2E2E05
:10043E002E5D005B4750532053594E432053554376
:10044E00434553532121212E2E2E2E2E2E2E2E2E6F
:10045E002E2E5D002A2A2A2047505320417474659F
:10046E006D707420556E7375636365737366756C0A
:10047E0020542A2A2A0D0A2D2D2D005B4750532079
:10048E0043616C69622E2E20525443204167696E7F
:10049E0067206F66667365742E2E5D002A2A2A20E9
:1004AE0054657374696E672073656E736F72732E05
:1004BE00202A2A2A0D0A2D2D2D00446961676E6FA0
:1004CE007374696320537461747573204368656334
:1004DE006B2066696E69736865642E0D0A2D2D2D6D
:1004EE00005B47505320436865636B20436F6D700C
:1004FE006C6574652E2E2E2E2E2E2E2E504153539D
:10050E005D005B47505320436865636B20436F6DFE
:10051E00706C6574652E2E2E2E2E2E2E2E46414973
:10052E004C5D00446574656374696F6E73207A6503
:10053E00726F65642E00446961676E6F73746963D0
:10054E002053746174757320436865636B2066690C
:10055E006E69736865642E20526573746172746976
:10056E006E672E2E2E0D0A2D2D2D004E6F204461FE
:10057E007461205468697320496E74657276616C7B
:10058E00202D20000D0A004E6F2056616C696420EC
:10059E004473702056657273696F6E202D20546FF0
:1005AE0067676C65206120726573657420746F20B7
:1005BE007265747269657665206974004473702083
:1005CE0056657273696F6E207265747269657661B5
:1005DE006C20686173206265656E20617474656D50
:1005EE0070746564005355434345535321212100D4
:1005FE004C6F6767696E6720746F205344206D657A
:10060E006D6F727920636172642068617320626518
:10061E00656E20696E697469617465642E00576138
:10062E006974202E2E2E20004C6F67205265737534
:10063E006D65642061743A20005344206D656D6FC2
:10064E007279206361726420686173206265656EE1
:10065E002072656D6F7665642E0045786974696EDB
:10066E0067206465646963617465642074696D698B
:10067E006E67206C6F6F702E200D0A004368616EDE
:10068E00676564207468652073797374656D206383
:10069E006C6F636B20766961206120504320636F1D
:1006AE006D6D616E642E205265626F6F74696E6738
:1006BE00207468652073797374656D2E2057616997
:1006CE00742E2E2E0D0A004E6F74204C6F676769C4
:1006DE006E6720746F20636172642E204F70656E9A
:1006EE002044535020636F6D6D756E69636174693C
:1006FE006F6E2E0D0A00417474656D7074696E67AD
:10070E0020445350207265636F766572792E2E2EBB
:10071E00002020202A2A2A2A205761726E696E67CD
:10072E00212120475053207369676E616C207072CF
:10073E006573656E742062757420746865726520C9
:10074E00697320616E20696E76616C696420636CDA
:10075E006F636B2073657474696E67206E6F2073A0
:10076E00796E632077696C6C20626520646F6E65AC
:10077E0020756E74696C20612076616C6964204707
:10078E0050532074696D6520686173206265656ED3
:10079E00207573656420746F2073657420746865AA
:1007AE00207265616C74696D6520636C6F636B2E6E
:1007BE0020202000507265706172696E6720746F20
:1007CE0020646F2035206D696E20736368656475D3
:1007DE006C65642053796E63207570206F6620639C
:1007EE006C6F636B732E2E2E005072657061726982
:1007FE006E6720746F2053796E6320757020636C62
:10080E006F636B732E2E2E00507265706172696E5F
:10081E006720746F2053796E6320757020636C6F40
:10082E00636B732E2E2E2E2E2E004E6F2073796E2E
:10083E00632077696C6C20626520646F6E65206141
:10084E007420746869732074696D65202D20322EB2
:10085E00202020005374617274696E6720445350D7
:10086E0020726573657420616E6420636C6F636BB8
:10087E002073796E632E2E2E202020005374617209
:10088E0074696E672044535020636C6F636B2073E2
:10089E00796E632E2E2E20202000526573657420F3
:1008AE003220686173206F636375727265642E2ED9
:1008BE002E202020002E20000D0A0D0A20202020A0
:1008CE002020202A2A2A204750532073796E632035
:1008DE0075702061626F727465642120506F6F7243
:1008EE00207369676E616C2E202A2A2A2000202E22
:1008FE002E2A00202E2E78002E2E2000506F6F7282
:10090E002073796E6320617474656D70742120009C
:10091E0046756C6C204453502072657365742000CC
:10092E00776974682073796E6320757020636F6DBC
:10093E00706C657465202D2000203A200020202048
:10094E00200020636C6F636B206F66667365743A6C
:10095E002000757300202A2A20002A2A2A20457298
:10096E00726F7220647462546D70436C6F636B535C
:10097E0074616D702E75634461794F664D6F6E2094
:10098E006973207A65726F004D697373696E6720A3
:10099E006D656D6F727920636172642E00537461A0
:1009AE007274207570202D20446574656374696FB0
:1009BE006E73207A65726F65642E005B2424002CA2
:1009CE0020002024245D005B4572726F72204E6FF2
:1009DE002044535020636F6E746163742E2E2E2E3E
:1009EE002E2E2E2E2E2E5D004E6F20445350206341
:1009FE006F6E7461637420617420004C6F73742089
:100A0E00636F6E74616374207769746820746865AF
:100A1E002044535020617420004D6F76696E67201C
:100A2E00746F2073746174757320322E004D6F765F
:100A3E00696E6720746F2073746174757320332E22
:100A4E00004D6F76696E6720746F207374617475D4
:100A5E007320312E00445350204261636B206F6E21
:100A6E006C696E652E0055534220494E202E2E2E57
:100A7E000047707320496E7075742044697361620B
:100A8E006C6564004E657720436F6E6669672073F0
:100A9E00656E74004F6C6420436F6E6669672073D9
:100AAE00656E7400557362204461746120556E72D8
:100ABE0065736F6C766564004453502076005369FD
:100ACE007465204E616D653A200046696C65204E56
:100ADE00616D653A200053657269616C204E756DCB
:100AEE006265723A200046696C6520466F726D61D0
:100AFE00742056657273696F6E3A20322E30202044
:100B0E000046696C652053746172743A2000466920
:100B1E006C6520456E643A200041545320536F6E2D
:100B2E00696320526563656976657220535233306E
:100B3E003137204669726D77617265207631302EBD
:100B4E0036320D0A0010C4EA6136034100640076A5
:100B5E000061006E006300650064002000540065B3
:100B6E00006C0065006D0065007400720079002055
:100B7E0000530079007300740065006D0073001E51
:100B8E000353006F006E0069006300200052006581
:100B9E00006300650069007600650072000F800139
:020BAE000070D5
:10CE52004C01610C0330003900300030003000C159
:10CE620014C185C1074100060046015720302E300B
:10CE720030004100A3014101600041013A0041013B
:10CE820039094100BA004100F8044100880041001C
:07CE920087034200A100002C
:1013BD00F075F080EF90046F1220F27430F075F03C
:1013CD0080EF9004701220F27430F075F080EF9081
:1013DD0004711220F27430F075F080EF90047312E6
:1013ED0020F27430F075F080EF9004741220F274D6
:1013FD0030F075F080EF90046A1220F2742DF075C4
:10140D00F080EF90046B1220F27439F075F080EFDC
:10141D0090046C1220F27439F075F080EF90047A1C
:10142D001220F27430F075F080EF90047B1220F2F0
:10143D007430F090047CEF75F0800220F2C4540FEC
:10144D002430FEEF75F0800220F29004451220F258
:10145D007420F075F080EF9004461220F27443F082
:10146D0075F080EF9004471220F2746CF075F080E7
:10147D00EF9004481220F2746FF075F080EF900435
:10148D00491220F27463F090044AEF75F080022047
:10149D00F2C4540F2430FEEF75F0800220F2C454D4
:1014AD000F2430FEEF75F0800220F2540F2430FE31
:1014BD00EF75F0800220F2540F2430FEEF75F080AE
:1014CD000220F29004421220F27447F075F080EF82
:1014DD009004431220F27450F0EF75F080900444A4
:1014ED000220F2E0900427FEEF75F0800220F2E07A
:1014FD00900426FEEF75F0800220F2E090042AFEA3
:10150D00EF75F0800220F2F075F080EF900460121C
:10151D0020F2742CF0EF90046175F0800220F2E05F
:10152D00900429FEEF75F0800220F2E090042FFE6A
:10153D00EF75F0800220F290043775F0800220F2F2
:10154D0090040075F080EF0220F290000DE0FEEFA8
:10155D0075F00EA4240DF582E43400F583EEF090C1
:10156D00000EE0FEEF75F00EA4240EF582E43400BB
:10157D00F583EEF090000FE0FEEF75F00EA4240F52
:10158D00F582E43400F583EEF0900010E0FEEF7587
:10159D00F00EA42410F582E43400F583EEF09000F3
:1015AD0011E0FEEF75F00EA42411F582E43400F580
:1015BD0083EEF0900012E0FEEF75F00EA42412F50C
:1015CD0082E43400F583EEF0900013E0FEEF75F049
:1015DD000EA42413F582E43400F583EEF09000148C
:1015ED00E0FEEF75F00EA42414F582E43400F583CB
:1015FD00EEF0900015E0FEEF75F00EA42415F582C7
:10160D00E43400F583EEF0900016E0FEEF75F00E79
:10161D00A42416F582E43400F583EEF0900017E073
:10162D00FEEF75F00EA42417F582E43400F583EE79
:10163D00F0900018E0FEEF75F00EA42418F582E48A
:10164D003400F583EEF0900019E0FEEF75F00EA476
:10165D002419F582E43400F583EEF090001AE0FED3
:10166D00EF75F00EA422EF75F0809004390220F290
:10167D00F090047F75F080EF0220F2F09004467533
:10168D00F080EF0220F2F090044875F080EF022018
:10169D00F2FE75F080EF0220F2F0EF75F08090040D
:1016AD00790220F2F0EF75F08090047D0220F27542
:1016BD00F00A84E5F02430FF75F080E5310220F268
:1016CD0075F0809004430220F23AF583E53CF0E595
:1016DD003DC4F854F0C868F53DE53EC4540F48F5D7
:1016ED003E540F2430F53CD3943974809480227588
:1016FD00F08090046E0220F290040175F080EF02EC
:10170D0020F275F0809004400220F275F080900474
:10171D00420220F2FE75F080EF0220F275F080900B
:10172D0004500220F275F08090044F0220F275F003
:10173D008090044E0220F275F0809004670220F232
:10174D0075F0809004660220F275F08090046502B9
:10175D0020F275F0809004640220F275F080900400
:10176D00630220F235F0FA7B0175F00FE53212209D
:10177D00F2E022EF2430FF75F080E5310220F275A2
:10178D00F080EE0220F290080875F00FE53212207D
:10179D00F2E022F090044775F080EF0220F275F030
:1017AD0080EE0220F2F090044975F080EF0220F2F5
:1017BD0075F080EE0220F275F080EE0220F2FE75DB
:1017CD00F080EF0220F290080275F00FE532122042
:1017DD00F2E02275F080EE0220F290044575F08063
:1017ED00EF0220F2ED2430FF75F080E5310220F29A
:1017FD0075F080EE0220F290080C75F00FE53212B4
:10180D0020F2E02275F080EE0220F2FE75F080EFFE
:10181D000220F290080975F00FE5321220F2E02255
:10182D0075F080EE0220F275F080EE0220F2A3E05A
:10183D00FF3395E0FEC3EF9430EE64809480227404
:10184D00102BF58274043AF5832275F080EF022097
:10185D00F290080675F00FE5321220F2E022E47BDB
:10186D003CFAF9F8AF3BAE3AAD39AC38121F217BDB
:10187D0018E4FAF9F8021F21E5329008031220F25C
:10188D00E5822536F582E43583F58322AE02AF037A
:10189D007884A60608A60718E6FA08E6FBFF7C0082
:1018AD007D0AAE02021D1275F080EE0220F23AF5AD
:1018BD0083E53CF022900171122078900171022095
:1018CD00547407253CF53C2275F080EF0220F2EEB2
:1018DD00F0ED75F00EA4227BFF7A0079AE7D022229
:1018ED00F0E53175F080A422E53B2FFFE53A3EFE91
:1018FD00E5393DFDE5383C8F3B8E3A8D3922F0744C
:10190D00062BF58274043AF58322F074052BF582CB
:10191D0074043AF5832275F080EE0220F2E5087525
:10192D00F00EA42410F582E43400F583E022E508DE
:10193D0075F00EA42411F582E43400F583E02275D0
:10194D00F00FE5321220F2E022E475F001021D9D48
:10195D00E0D394007480948022F074022BF582748D
:10196D00043AF58322F074032BF58274043AF5835F
:10197D0022F074042BF58274043AF58322E53DC4FC
:10198D00F854F0C868F53DE53EC4540F48F53E22C5
:10199D00900139E0D39408748094802274012BF562
:1019AD008274043AF5832275F080E5310220F2E469
:1019BD00FFFEFD7C4690009C122060D3021FC9AF34
:1019CD000F7E00EFC394247480948022E47B0AFA86
:1019DD00F9F8122054121F21EB2430FF229000F849
:1019ED00E0FF640122C4540F2430FF227D907C5F00
:1019FD007F75223AF5837420F02290013AE0D3945A
:101A0D00037480948022A3F0A37430F0A3222400E9
:101A1D00F9740435F0FA7B017D807C0022D2B4C2CA
:101A2D00877D407C067F0122540F2430F53C740ED7
:101A3D002BF582740422540F2430F53C740D2BF5D4
:101A4D0082740422E4F557755811755911F55BF53B
:101A5D005C2290017BE075F080A422940474809444
:101A6D008022241AF582E43400F583EEF00F2290E3
:101A7D00016FE0FEA3E0FFC3227427253CF53C2255
:101A8D0074BB2DF582E43400F583E0FC22E50DF006
:101A9D00A3E50EF0A3E50FF02290024EE0FF75F0E6
:101AAD0010021C31AF09EF3395E0FE22ECC4F8545F
:101ABD00F0C8EDC4540F4822E0F50DA3E0F50EA3D8
:101ACD00E0F50F227884A60608A60722C394587461
:101ADD0080948022240FF582E43400F583E02224E3
:101AED0012F582E43400F583E02275F080EF0220D8
:101AFD00F2246FF9740435F0FA7B01229406748098
:101B0D00948022E47882F608F62290011E7404F087
:101B1D0022121E7B90017102207875F00FE53212B2
:0E1B2D0020F2E0229000A1E4F0A37419F0224F
:10343500C223C23B9000A37401F07F0712D90F533A
:10344500D9BF75C990E4F5FF12000312CC5B129F3A
:103455007CE4F5FEC200C204C20290013CE0FF30EC
:10346500E004D2028002C202EF30E10AD2009001EC
:10347500267444F08002C200EF30E20AD2049001C3
:10348500267448F08002C2043004057F0112C0434F
:103495003000057F0512C0433002057F0312C0438B
:1034A5007A00798E1238DC12A1867BFF7A00799D2D
:1034B5007D0212A38453C77F90008612195D4021B7
:1034C500301B1E20151BE47F607E09FDFC900293D6
:1034D500122060C3121FC95008D295900086E014CF
:1034E500F0300805301B02D295E4F5FE12908AE50E
:1034F5005D121AD9500C201509204106E50A6420F1
:103505007005C22A12283AE4F5FE2009030235A205
:10351500C215FF12C546AD08E4FF12B4519004452B
:103525007466F0A3F0A3F0A3F0A3F0A3F07B017AF7
:1035350004793A9001827406F07F007E007D007C5C
:103545000012D27730095FC290200802C295D2A43A
:10355500301F031271BAE5C930E63D12774CE4F528
:10356500FE301DE0FF12C26130111E90044574202B
:10357500F090044BF0AD08E4FF12B4517B017A04DE
:1035850079007D807C00126FCAC21DE50A541F7048
:10359500B3C228127FDC80AC12CCB380A7E4F5FE61
:1035A50043870185878730170343EF1012000330E7
:1035B5001F031271BAE4F5FE200C03023688E50BF1
:1035C50060030236889000B8121957900007E0048E
:1035D500F07A00799F1238DC1218E412A384200EC9
:1035E500712022141219EA600FEF6403600AEF6478
:1035F500026005740AF0D243D222AF0CEF64016079
:1036050019EF64056014EF6409600FEF6413600A35
:10361500EF64176005EF642170057F071238F530F8
:10362500223020152DAF0CEF64016019EF640560A1
:1036350014EF6409600FEF6413600AEF6417600507
:10364500EF642170081238CCC22A12283A7F05127D
:10365500DC883004131238ECD22612D820301B082F
:10366500124794C22C12D9A27F0512DC88E50C7092
:103675000B3000081238ECD22612D820C20CE49088
:103685000087F030223E90013BE0650B60369001EB
:103695005FE0650B602E301009A210922412D8AF9E
:1036A500800CC22412D8AF7A0079B51238E49001A3
:1036B5003BE50BF0C20390015F7463F0C22A122848
:1036C5003A12DA75201D0302378F300E04C21AD262
:1036D50015E50A122145371D00372515371D3037E9
:1036E500254536F748370B53371056371557000021
:1036F500373F3043451219EA6019EF64026014EF51
:1037050064037036800D3043318008301A2C8003F5
:10371500301A27122E4F8022E50B64597002D2967B
:10372500D3E508121B094005E4F5088002050820C9
:103735001108204305C228127FDC9000A412195DF0
:103745004003E014F012A47E301525C21AE50A5490
:103755000F700D127AC9E4F5FE7A0079B61238E4D5
:10376500D295201B1B200118B2A4A2A49290801010
:10377500D222201B0B200108B2A4A2A492959290FC
:10378500200105E4FF12D36EC21D201B09200E0681
:1037950020430302381B30134C201B0330010D302E
:1037A5000804D2958004A2909295C2A43046672061
:1037B5001564900087E0C394057480948050577B0E
:1037C500FF7A0079D47D0512A384D222C22A122859
:1037D5003A12DCAF7F011238F57F071238F5C22C9B
:1037E50012D9A2803120430F30150C201B03300164
:1037F50025C290D295801F201B063001092008069E
:10380500A24392A49295121A07400B20150820098D
:1038150005D2221238CC304305C22A12283A304349
:10382500030235B412A83A500B9000A4E07005C20B
:103835002A12283A201B030234BD1219BC50030278
:1038450034BD7BFF7A0079F87D0512A384C22A1264
:10385500283A1271BA9000A3E0C394217480948031
:10386500502F1219BC402AD22612D8209000A3E06E
:1038750004F07BFF7A017908E4FD12A3849000A38C
:10388500E0FFE4FCFDFE9002521238B71247948027
:10389500C47BFF7A017922E4FD12A38490009C1277
:1038A5002054900252740B1238B7C22C12D9A202BE
:0238B50034BD20
:1038B700F01281827D0112A3847BFF7A01791B7D3F
:1038C7000212A38422C22A12283A7F011238F57FF6
:1038D700071238F5227BFFE4FD12A384227BFF7DCC
:0E38E7000512A38422C22A12283A1271BA22B4
:10D90F0090000BE0A3F090000AE0A3F0900009E074
:0ED91F00A3F0900008E0A3F0900008EFF022C3
:10C26100E50E540F2430FE900427121443EEF0E53E
:10C271000E90042612144AEEF0E50D540F2430FE00
:10C2810090042A121497EEF0E50D90042912144A35
:10C29100EEF0E50F90042F1214B8EEF0E50F9004C4
:10C2A1002E12149EEEF0E50C9004321214B8EEF04A
:10C2B100E50C90043112149EEEF0E50B900435125A
:10C2C10014C4EEF0E50B9004341214ABEEF0E50A61
:10C2D1009004381214C4EEF0E50A9004371214AB3E
:03C2E100EEF0225A
:10CEED00ED14601114602C1460352403703C121580
:10CEFD004D745B801712154D745BF0900401121583
:10CF0D0050745BF090047E121681745D12167D7460
:10CF1D005DF02212154D742012167D7420F0221230
:0BCF2D00154D740A12167D740DF022E1
:05C5460090017BEFF005
:10C54B00A3F090017CE0FFC3121A68505B7D0312CD
:10C55B00CEED90017CE0900439121444742EF0E47B
:10C56B00F53CF53D741F253DF5827401353CF58393
:10C57B00E0FF90017CE0900401121451E582253D0F
:10C58B00F582E583353CF583EFF0053DE53D700223
:10C59B00053C6419453C70CC90017CE0FF1283098B
:0EC5AB0090017CE004F0809A90017BE0F51393
:01C5B900225F
:10CD5E0090042412168C742CF090042512169774DD
:10CD6E0020F0900428121708742FF090042B12173D
:10CD7E00A4742FF09004301217B67420F090043380
:10CD8E001217EA743AF0900436121857743AF0906B
:10CD9E00042C1218577432F090042D1218D57430DA
:02CDAE00F02271
:02830900AE07BD
:10830B0090041A12178C742CF0E4F53EF53F74A60A
:10831B00253FF5827400353EF583E0FF90041B1278
:10832B00178CE582253FF582E583353EF583EFF02B
:10833B00053FE53F7002053E6409453E70D0AF0630
:10834B0012CD5EEE12170F742CF09004411217AB86
:10835B007420F0EE1217187447F0EE1216CD743726
:10836B00F0EE1214E77432F090044B1217AB742C2E
:10837B00F090044C1217BD7420F09004721217BDCC
:10838B007420F09004751217C4742FF090047612B9
:10839B0017C47433F09004771217E07431F0900423
:1083AB00781217E0742CF0EE1216A87420F09004DB
:1083BB006D1217FD742CF0EE1216FC7420F0EE12F9
:1083CB0016B3742CF090047E1217FD7420F09004F9
:1083DB004D1218117420F0900451121811742CF0D6
:1083EB0090045212182D7420F0EE1217297441F0DC
:1083FB00EE121732742FF0EE12173B744EF09004FE
:10840B005512182D742EF0900458121834742CF049
:10841B009004591218347420F090045A1218B47442
:10842B0020F090045D1218B4742EF09004601219B1
:10843B0023742CF0EE1215237420F0EE12174474F3
:10844B0020F0EE12174D7420F0EE1217567441F017
:10845B00EE12175F742FF0EE121768744EF0900443
:10846B00621219237420F075F080EE9004681220CC
:0D847B00F2742CF09004691218D57420F0F2
:0184880022D1
:1071BA00C235D236754E01850A50850F51850B4F5F
:1071CA00850D52850E53303675AF4E054EEF606E03
:1071DA0012D5958F10AF0DEF6055D394317480940A
:1071EA0080504CAF0EEF6047941274809480503FE9
:1071FA00E50F1219D14038AF0CD3EF942374809461
:10720A0080502CEF700CE50C65116006E5116423C3
:10721A00701DAF0B7E00D3EF945974809480500F89
:10722A00EF7017E50B654F6011E54F6459600BD29B
:10723A00367F0F7E0012002E808CC2368088E50CC5
:10724A006511601D121B10D235850C112022127B8C
:10725A00FF7A00798EFD12A38412A1867D02127331
:10726A0095E50B654F7003027370D203D235900116
:10727A0039E004F0E50C64237008E50B64567002EB
:10728A00D243AF0B7E00EF6404603AEF64096035C5
:10729A00EF64146030EF6419602BEF64246026EF0A
:1072AA0064296021EF6434601CEF64396017EF646D
:1072BA00446012EF6449600DEF64546008EF64594A
:1072CA006003027352EF64594E7002D20C201A788E
:1072DA00D21A200A197D051273951271BA7BFF7AA8
:1072EA0000798EE4FD12A38412A18612B39A90014A
:1072FA0057E06430701EA3E0B4351990015AE0B427
:10730A003112A3E0B4300D7BFF7A01792D7D05128D
:10731A00A38480349000A4E0702E302212300A2810
:10732A007BFF7A01793FFD12A38412D73780193087
:10733A000A107BFF7A01795C7D0512A38412B39A45
:10734A00C21A9000A47478F0E50B540FF54F70162A
:10735A0012199D4011304202E4F0202107C242E492
:10736A00900139F0D221E50A65506002D21DE5513B
:10737A00650F6002D235E552650D6002D235E553DC
:0A738A00650E6002D235C21FA23565
:0B739400227BFF7A00799D12A3842267
:0BDCC7009000B2E50CF0A3121A9A22A4
:10D737001271BA12A1863022117BFF300D067A01D1
:10D7470079A1800C7A0179C780067BFF7A0179E598
:08D757007D0212A38402B39AC3
:10A18600E50E1219F290024EF0BF30047F208005D2
:10A1960090024EE0FF12D7D4E50E12A26A7F2F126C
:10A1A600D7D4E50D12A256E50D12A26A7F2F12D75B
:10A1B600D4E50F12A256E50F12A2737F2012D7D450
:10A1C600E50C1219F290024EF0BF30047F20800594
:10A1D60090024EE0FF12D7D4E50C12A2737F3A121A
:10A1E600D7D4E50B12A260E50B12A27C7F3A12D7F8
:10A1F600D4E50A12A260E50A12A27C7F2012D7D407
:10A206007F2012D7D4900006E090024EF03395E0FE
:10A21600C364809480501A7F2D12D7D4900006E034
:10A22600FF3395E0FE7CFF7DFF121D0090024EEF8E
:10A23600F0121AA62430FF12D7D4121AA6AFF0EFE6
:10A246002430FF12D7D47F7A12D7D4E4FF02D7D4B2
:10A25600C4540F2430FF12D7D422C4540F2430FF25
:10A2660012D7D422540F2430FF12D7D422540F24ED
:0FA2760030FF12D7D422540F2430FF12D7D42236
:10B39A007BFF7A0179FBE4FD12A384E50875F00EC0
:10B3AA00A4121AE1FF12D7D412192AFF12D7D47F96
:10B3BA002E12D7D412193BFF12D7D4E50875F00E16
:10B3CA00A4121AECFF12D7D47A02791012B449786F
:10B3DA0082E6FE08E6FFE4FCFD9002527407F012D2
:10B3EA0081827D0112A3847A02792D12B4499002D6
:10B3FA0093122054900252740CF01281827D011231
:10B40A00A384301934D37883E6940018E694004074
:10B41A00289000BAE004F07BFF7A0279467D011297
:10B42A00A3849000BAE0D3121B09400D7BFF7A0275
:0FB43A0079537D0112A384D2081218E402A3846F
:08B449007BFF7D0112A38422A8
:10CC5B0075F1BF75F2FF75F3FF75F47E75F5FF7512
:10CC6B00A41D75A5E775A61975A77A75AE8075D441
:10CC7B00C875D5FF75D61975DFFF75E10775E240ED
:10CC8B0075E301C23CD2A075C70312D8697BFF7A4A
:10CC9B00027965E4FD12A3847BFF7A0279907D0211
:08CCAB0012A384D296D2B42238
:05624900900170EFF070
:10624E00C226D296D22212DCAF752C05D2257A0246
:10625E0079B812646B201B097A0279F012646B8094
:10626E0006D290D295D2A47A037913126481A20930
:10627E009227C20912DD18D290C2A4200802C2953C
:10628E00E52C603BD2229000BB7424F07F071238BD
:10629E00F5152C7DE47CA27F1912D5631219CC4022
:1062AE000AD3EF94447480948040D57A03794912CE
:1062BE0064819000BB7424F0D2221264AF80C112AC
:1062CE0019CC400AD3EF94447480948040147A031E
:1062DE00795B126489D290D295D2A4D20DD22612B5
:1062EE0064AFD246A227920912DA43300D14D2229D
:1062FE00E4FF1238F57A03798F126489D226D20D13
:10630E0080107A0379D912649F30090612641A122A
:10631E00641AD246304626300D23300D127F0112FC
:10632E0038F5300906126435126435D24380E57FA4
:10633E00071238F57A04796212649F80D712DCAFA7
:10634E00C22A12283AD290D2A4200802C295300D49
:10635E000E3009061264501264507F031238F52075
:10636E0091047F0680027F0512DC887A0479AA12D6
:10637E0064A7D290D2A4D29512DA5CD228127FDC16
:10638E0012B39AA20D9290C2A4200802C295C29096
:10639E00C2A4200802C29530094C7A0479C812644E
:1063AE00A712DA5C12DCAF7BFF3026151264731273
:1063BE0064737A0479EF1264BB7BFF7A0479EF8001
:1063CE00131264911264917A0579101264BB7BFFEB
:1063DE007A0579107D207C00126FCAC290D2A4205B
:1063EE000827C295802390029312209D0000000082
:1063FE00121B107BFF7A0579317D0512A3847BFF7A
:0B640E007A0579447D0512A384D217A3
:10641900227BFF7A0479207D207C00126FCA7BFFE2
:106429007A0479207D207C00126FCA227BFF7A04CE
:1064390079417D207C00126FCA7BFF7A0479417D06
:10644900207C00126FCA227BFF7A0479897D207C27
:1064590000126FCA7BFF7A0479897D207C00126F54
:10646900CA227BFF7D0512A384227A0479EF7D205D
:106479007C00126FCA7BFF227BFF7D0512A3842259
:106489007BFF7D0512A384227A0579107D207C008B
:10649900126FCA7BFF227BFF7D0512A384227BFF3B
:1064A9007D0512A384227F091238F51271BA12A14F
:0A64B90086227D207C00126FCA22AB
:107FDC00E4F52DF52E90011EE014F0301B04D2A414
:107FEC00C2909000A1E0FEA3E0FFD39405EE9400B4
:107FFC00400C9000A174FFF5F0121D9D800CEF64F5
:10800C00054E700620150343EF10201506201B03A8
:10801C00302802D22912AE3B75F43E20B22A9001D0
:10802C0056E0FF14F0C3EF940174809480501990C3
:10803C0000B6121956D2B112D65B9001567404F0E8
:10804C00121A2E12D563C2B1E4F508C283301B0795
:10805C00200804A21E929512816ED283301B1F2021
:10806C000802C295128178200804A21E92951281F2
:10807C006E200802C295128178200802C295C21E99
:10808C007DE47CA27F0F12D563128E03301B072078
:10809C000804A21E92957F01EFC31219A250091277
:1080AC001557121A6F0280A4201305301B02C295BB
:1080BC00750807201502D2B3201509201B062028AD
:1080CC0003028151303D03202968304204C22180D3
:1080DC003E30213B20423812199D40337BFF7A05FC
:1080EC007979E4FD12A38412A1867BFF7A0579923B
:1080FC007D0212A384E4FF129B4112DCC79000B2F4
:10810C00E0FF12DBD98F12D206D212D229C22190F3
:10811C00011EE0FF7E00C3940174809480401030F7
:10812C002802800BD3EF9404EE64809480400312F9
:10813C001B17202909301503304203302807A228C9
:10814C00922A12283A30150D12DCAFC22A12990F5E
:10815C00C22C12D9A2C28CE4F5FE301B02C2A402BE
:02816C000046CB
:10816E007DE47CA27F0F12D563227DE47CA27F0A80
:04817E0012D5632291
:10D2770090017B122130802F90018212195D402F7F
:10D28700E014F090017E1219D990017B12211090C1
:10D297000182E0F582758300EF121CDE90017E1299
:10D2A70020547B0A12187E90017E12207880C922B2
:10757600D2261271BAE490016DF09000EFF0F55743
:10758600F558F55990016FF0A3F0121A7C9434EE79
:107596009400501474BB2FF58274003EF583E4F01A
:1075A60090016F12195780E29000FB742FF0900043
:1075B600FEF09001037420F0900106743AF09001F9
:1075C60009F012A66890015712183C401212183B97
:1075D600400D90015A12183C400512183B5047C204
:1075E6000F7BFF7A0579958029200F2D121A2A1212
:1075F600D563D287C2B4E4F5FED2B4C22C12D9A2A6
:107606001277391277391219F912D5637BFF7A0589
:1076160079CA7D0512A38480D07BFF7A0579F37D34
:107626000512A3848002D20FE490016FF0A3F0123A
:107636001A7C9405EE9400502A74802FF58274000B
:107646003EF583E0FF3395E0FED3EF9439EE648098
:10765600948050051218425002C22690016F1219EA
:107666005680CC9000A9E0642C6002C226202656E3
:107676009000807430F07439121A13F0A3F0E4907D
:1076860000A5F090015EF0900006F090013CF090AD
:1076960001577420F0A37430F0742E121A1304F0FC
:1076A6009000A67448F0A37432F0A3744FF0A3744C
:1076B6002CF0A37446F0A37452F0A3742C121A147F
:1076C600F012ABB48021C210C20AC22090013CE085
:1076D600FF30E402D210EF30E502D20AEF30E602C4
:1076E600D220E49000A5F012A75790011F7453F022
:1076F600A314F0900080E0900121F0900081E090CA
:107706000122F0900082E0900123F0900083E09047
:107716000124F0900084E0900125F0A3745FF0123C
:107726001B1712DCC7D228127FDC12DD3912A757CD
:02773600C23A55
:10773800227D907C5F7F7512D5637D907C5F7F751D
:0477480012D56322D1
:10908A00E490016EF030930302919B301B0302912E
:10909A00B59000A4E060030291B5C20CF5FE200869
:1090AA0002C295C2A4C290D296201502D2227A0593
:1090BA0079FE1291C412B39A7A06792C1291C4904D
:1090CA0000A0E0605B1271BA7BFF7A067936E4FD94
:1090DA0012A38412A1861218E412A38412479412CE
:1090EA0071BAC22C12D9A21291B67FFA12D56312A2
:1090FA0091B67FFA8016D3E55D12195F4013C22A32
:10910A0012283A1271BA7D907C5F7F6412D563800F
:10911A00E5C22A12283A200E13D243122E4F800C8F
:10912A001219F912D5631219F912D563E4FF12382C
:10913A00F5300D1C201519D2467F021238F57F072B
:10914A001238F57BFF7A0079B57D0512A384D22205
:10915A009000A0E070031247949000F8E0FF6404C6
:10916A006005EF640B7014201A11E4F55DC2437FA9
:10917A00071238F5C22A12283AD243C22A12283ACA
:10918A00C22C12D9A29000F8E0640A701E740BF087
:10919A0022301B107BFF7A0679477D0512A384D201
:0B91AA002602D820D296201502D22207
:1091B500227D907C5F7FFA12D5637D907C5F227B58
:0791C500FF7D0512A38422C7
:10D36E00E5C930E61C200E0ED20EC222EF3395E038
:10D37E004F702712B9CD3096057F0612DC880277E2
:10D38E004C300E07C20E12D68AD222E4F5A9F5B998
:0BD39E00C215301B05200802C29522BA
:045FBA00AB07AA0681
:105FBE00E5571219F21219A9EFF0E557540F2430D4
:105FCE00FF121967EFF0E5581219F2121973EFF07C
:105FDE00E558540F2430FF12197FEFF0E5591219CE
:105FEE00F2121918EFF0E559540F2430FF12190C64
:105FFE00EFF030051F1219A97430121966743012A1
:10600E001972743012197E743012191774531219D2
:10601E000B744CF020225690007DE0F53DA3E0F588
:10602E003EE53E1216EE4003121A8674042BF582DC
:10603E0074041216D64003121A8674032BF582745A
:10604E00041216D64003121A8674022BF5827404BB
:10605E001216D64003121A8674012BF5827404129E
:10606E0018BB121918744712190B7444F030071F1D
:10607E001219A9744C121966744F121972745712B0
:10608E00197E7442121917744112190B7454F0745C
:10609E00072BF5827404121A00855B3D855C3E78F1
:1060AE0084E6F53D08E61216EC40031218CE740B8A
:1060BE002BF58274041216D640031218CE740A2BD6
:1060CE00F58274041216D640031218CE74092BF5FD
:1060DE008274041216D640031218CE74082BF58261
:1060EE0074041218BB740C2BF5827404121A00205F
:1060FE002216753D0085103EE53E121A351218BB6C
:10610E0012198A121A438010900160E0FFC4121A0D
:10611E00431218BBEF121A351218BB740F2BF582EF
:10612E007404121A002D601024F06014247070187C
:10613E0012184C7430F0801612184C7479F0800ED0
:10614E0012184C7463F0800612184C7478F0121A00
:10615E00B1EF640F4E700812184C7446F08026EFA3
:10616E00640A4E700812184C7441F08018121AB15D
:10617E00D3EF9400EE64809480400AE5092430FF4A
:10618E0012184CEFF07886E6FC08E6FDEC1216EEDF
:10619E0040031218CE74112BF58274041218BB1220
:1061AE001AB91216EE40031218CE74122BF5827421
:1061BE00041218BB7887E61216EE40031218CE743E
:1061CE00132BF58274041218BB74142BF58274040D
:1061DE00121A007879E6FC08E6FDEC1216EE400382
:1061EE001218CE74152BF58274041218BB121AB93C
:1061FE001216EE40031218CE74162BF5827404128A
:10620E0018BB12198A787AE61216EE40031218CECF
:10621E0074172BF58274041218BB74182BF5827444
:10622E0004121A00900088E01216EE40031218CEE7
:0A623E0074192BF58274041218BBCA
:016248002233
:0BD56300900171EFF0A3ECF0A3EDF0DD
:10D56E00E4A3F0900171E0FF900174E0C39F5016A8
:10D57E00E4F5FE900172E0FEA3E0FF12002E900192
:06D58E0074E004F080DDF2
:01D594002274
:10CCB300C211C209C215C2A4200802C295E49000A1
:10CCC300A1F0A3F0C22A12283A7A06796812CD019C
:10CCD3007D02E4FF12CEED304310D22612D8207A23
:10CCE30006798A12CD0143EF1022201B107BFF7AB5
:10CCF3000679D57D0512A384C22C12D9A2227BFF0B
:06CD03007D0512A384224D
:10B9CD00900161740CF0A37403F0E4900164F090A5
:10B9DD000166F0900168F090016AF0900080E090AF
:10B9ED000163F0900081E0900165F0900082E0909D
:10B9FD000167F0900083E0900169F0900084E09081
:10BA0D00016BF0E4A3F012D015900B53E493FE7488
:10BA1D000193FF900B55E493FC740193FD7BFF7A2A
:10BA2D000B798D9001751221307B017A017961902E
:10BA3D000178122130900BABE49390017BF0900BC9
:10BA4D00ACE49390017CF0900BADE493FB74019307
:10BA5D0090017DCBF0A3EBF07BFF7A0B795712941D
:04BA6D004702DA436F
:0891CC0090017BEFF0A3EDF030
:1091D400E4A3F0A3F090017D121A7F9406EE9400AC
:1091E400501F90017BE090043A121498E5822FF509
:1091F40082E5833EF5837420F090017D1219568038
:10920400D490017BE0FF9004391214A57420F090EF
:10921400017CE0FD7C0064016008ED6403600302EE
:1092240092ABED64034C7063121673742EF09001CC
:109234007DE4F0A37406F09000F01219D990017D3A
:10924400E0FCA3E0FD90017BE09004391214B2E548
:10925400822DF582E5833CF583EFF09000F0122037
:1092640054E47B0A12187F9000F012207890017D5C
:1092740074FFF5F0121D9D90017DE07002A3E07073
:10928400B69000F012209D0000000090017BE0FFEA
:109294009004421214BE744FF0EF1216CD746C1287
:1092A40014E57464F0804B90017CE0FF7E0064025E
:1092B400702490017BE0FD9004421214CA744EF0B5
:1092C40075F080ED1216D07465F075F080ED12140F
:1092D400EA7477F0801CEF64044E600890017CE02F
:1092E4006405700E90017BE0FF75F0801214D07459
:1092F40053F090017BE0FF75F080121457746B12E9
:0593040013BD7430F000
:019309002241
:10D05C00E4FEEEC3121B09501290043A121AF7E5C3
:10D06C00822E1218917420F00E80E7121673742021
:10D07C00F01217E7746612168874661217A074669D
:10D08C0012169374661217B27466121493746612A5
:05D09C0013BD7430F02B
:01D0A100226C
:028CBD00A90507
:108CBF00C22C75F080EF1214D07453F0E4FEEEC3A3
:108CCF00941974809480500F121705E5822E121894
:108CDF00917420F00E80E77D0FE4FEEEC3941874BC
:108CEF008094805034121A8D642C600D121705E594
:108CFF00822E121891ECF0801CEDFB64196005EBCD
:108D0F00642770110D121A8D121705E5822E121895
:108D1F0091ECF0D22C0D0E80C2E96404700B75F04B
:108D2F0080EF121457746BF0221217E7742012168B
:108D3F008874461217A0746912169374781217B2BA
:108D4F0074201214937420F09000C3E09004321238
:108D5F0014F4EEF09000C2E0900431121500EEF022
:108D6F009000C5E090043512150CEEF09000C4E0B1
:108D7F00900434121530EEF09000C7E090043812D2
:108D8F00153CEEF09000C6E0FEEF121544EEF03009
:108D9F002C2D9000E81214F0EEF09000E71214FC66
:108DAF00EEF09000E6121508EEF09000E512152C8B
:108DBF00EEF09000EA121538EEF09000E9802B905B
:108DCF0000E61214F0EEF09000E51214FCEEF090B5
:108DDF0000E4121508EEF09000E312152CEEF0905F
:108DEF0000E8121538EEF09000E7E090042E12160E
:038DFF009EEEF0F5
:018E0200224D
:10B45100EF1217297441F0EF121732742FF0EF1227
:10B46100173B744E1218DD2416F582E43400F5837F
:10B47100E090045F12169E1218DC2415F582E43464
:10B4810000F583E090045E1217211218DC2414F5F4
:10B4910082E43400F583E090045C1217211218DC79
:10B4A1002413F582E43400F583E090045B1217CB9A
:10B4B1001218DC121AEC9004571217CB1218DC1276
:10B4C10019419004561218181218DC121930900400
:10B4D100541218181218DC121AE1FE900453121AB1
:10B4E100F7EEF0EF1217447420F0EF12174D7420AD
:10B4F100F0EF1217567441F0EF12175F742FF0EF4F
:07B50100121768744EF022DE
:102E4F00D224D225C2901271BA9000F8E0FF900000
:102E5F0088F06401600AEF64026005EF6403700993
:102E6F007A07790412342DD243301A0D200A0AC280
:102E7F001AE49000A4F0C24322301A09204306201E
:102E8F0022033001069000A4E06003C21A22302210
:102E9F0012121A07400D20430A7A07791F12342D98
:102EAF00022F36301A1220010F7BFF7A0779C27D6D
:102EBF000512A384C21A802C30431E900087E0D3E2
:102ECF00121A684006200103C24322900087E004D3
:102EDF00F07BFF7A0779F780067BFF7A0879167DFA
:102EEF000512A3849000A47478F030963F30223CF2
:102EFF00301B02D29012C70CEF3395E0C36480945D
:102F0F0080502EC225900007E0C394767480948081
:102F1F00501F20011C1271BA7A0879381233BD1272
:102F2F00A18612340FC243C21AD205227F0512DCCA
:102F3F0088304318E50A6453600AC22A12283A12ED
:102F4F0071BA80F07BFF7A087962800F9000F87475
:102F5F000AF01271BA7BFF7A08798AE4FD12A38412
:102F6F0012DABD53A8FE201B03300106D295B2A47E
:102F7F00C29012192AFF9000F8F012193BFE900030
:102F8F00F8F064026003023054EFC39433748094FA
:102F9F0080500BEE9438748094805002D20743F126
:102FAF004043A440C2861233B31233B353A4BF536A
:102FBF00F1BFE4F52AC3E52A941474809480501469
:102FCF00301B02B2A41233C5301B02B2A41233C598
:102FDF00052A80E19000887402F0E4FF129B41E41F
:102FEF00FF129B41E4FF129B4112DCAFC22A122851
:102FFF003A201B03300107200802C295B2A41233F6
:10300F00FD301B02B2A41233FD301B02B2A47BFFB2
:10301F007A0879A87D0212A3843007099000F8740A
:10302F0008F0D24322D22612D82043EF10C22C121E
:10303F00D9A21275769000F87408F0D2437D467CC1
:10304F0000E402332E12A18612338730432512DC9F
:10305F00AF201B03300102B2A4121A2A12D563D279
:10306F00871271BA1233D77A0879C31233BD12336C
:10307F00E9D21C301B04D295B2A4E4F52AAF0AEFB3
:10308F0070030231D6302222300D1F30961C645847
:10309F006018301B02C29020A5FD12341B1233336F
:1030AF00201B03300118D2908014201B0330010223
:1030BF00C290E50A6458600312341B123333E52AB9
:1030CF005401700D300D0343C780301B0FD2A48005
:1030DF000B300D0353C77F301B02C2A4E50A64589F
:1030EF00709BC22A12283A12DCAF30964630224328
:1030FF00300D40D290D2A4200802C295C20530A54F
:10310F00FD1271BAE50A121AD9500B7A0879C61254
:10311F0033CFD205801D123387123355121A512027
:10312F00A5FD1233D7C2B47A0879FC1233CF20A58C
:10313F001880FBC20DC2902094FDC2B47A097901A8
:10314F001233E1121A513094FDD2B47A0979061272
:10315F0033E1D23AD20BB2A4D2951271BAE50A6416
:10316F00586087123355E50A645970167D907C5F5D
:10317F007F0A12D5631271BA1233E97A00799D1260
:10318F003407AF0AEF6401600FEF6402600AEF6467
:10319F00036005EF6404700AC22C12D9A275090FDF
:1031AF008025AF0A7E00D3EF121A68500302308CCD
:1031BF00EF121ADA400302308CC22C12D9A27A090C
:1031CF00790A123407D205E4F5FE201B03300104FF
:1031DF00D295D2A47D907C5F7F0E12D563E4F50962
:1031EF001271BAC22A12283A303A29AF0C12DBD91F
:1031FF007E007C007DF0121D00787BA60608A607D6
:10320F00AF0B12DBD9EF75F004A4AEF0787C26F685
:10321F0018EE36F630433B20050B7BFF7A09791EFB
:10322F00E4FD12A384303A277A09792E123393786A
:10323F007BE6FE08E6FF7879A60608A6077A0979E5
:10324F00471233937A09794B123425C20BC23AE4F1
:10325F00F51412A186200502C243C21AE490013A66
:10326F00F030224BD2909000B8F0A3F0E55C455BB4
:10327F0060277A097950123425AE5BAF5CE4FCFD10
:10328F009002527406F01281827D0112A3847BFF9B
:10329F007A0979607D0112A384D246E50A64017030
:1032AF000E7BFF7A0979637D0112A38475090E9055
:1032BF0000F8E0FF6405600DEF64036008EF640140
:1032CF006003740AF012340F300107C20112DC3EA2
:1032DF00800312DD20C22C12D9A2752A0112337479
:1032EF00303D17AF2A052AD3EF12195F400CC22ABF
:1032FF0012283A123374B2A480E612DCC7200802F7
:10330F00C295C2A4C2907BFF7A0079B57D0312A348
:10331F0084C290E4900007F09000A4F07D46FCFF7B
:03332F0012DB901E
:10333200221271BA7BFF7A00799D7D0112A384AFBC
:103342000AE4FCFDFE90025204F01281827D011219
:10335200A38422AF0AE4FCFDFE90025204F0128123
:10336200827D0112A3847BFF7A00799D7D0112A3E5
:1033720084227D907C5F7F0E12D5637D907C5F7F7F
:103382000E12D563227BFF7A00799D7D0112A38400
:10339200227BFF7D0112A3847879E6FE08E6FFE432
:1033A200FCFD9002527406F01281827D0112A38408
:1033B200227D907C5F7F7512D563227BFF7D011297
:1033C200A384227D907C5F7F7512D563227BFF7D73
:1033D2000112A384227D907C5F7F0E12D563227B33
:1033E200FF7D0112A38422AF0AE4FCFDFE9002528B
:1033F20004F01281827D0112A384227D907C5F7F82
:103402007512D563227BFF7D0112A384227BFF7A92
:103412000079B57D0212A384227D907C5F7F0F121A
:10342200D563227BFF7D0112A384227BFF7D0512DF
:03343200A384224E
:10D8AF00C22A12283A30240812DCAF7F071238F54B
:10D8BF00C22A12283A9000A4E07005C22C12D9A2F5
:01D8CF002236
:10283A00E4F5FEE55D7003022E349000F8E0FF64D3
:10284A0004600AEF64036005EF6401700630430315
:10285A0002DA5C301B03309309200E06202A030299
:10286A002E2D12DCAF9000B2E0900177F09000B309
:10287A00E0900178F09000B4E0900179F09000B512
:10288A00E090017AF0300607C2167535F08019908B
:10289A00080EE0F535D216900177E0700B12D59547
:1028AA008F10900178121A9A900178E0700B7BFFD2
:1028BA007A0979687D0512A384900177E0F50CA363
:1028CA00121AC5851331301B0920930612DA8E12AB
:1028DA00DD2DE4F532E532C3955D4003022E18AFD3
:1028EA001312C546C3E531121A684003022DD8E413
:1028FA00F5FEC206900800121796C4F854F0C8688C
:10290A007986F7A3E0C4540F4809F7900801121713
:10291A00D6FF640E6005EF640F7004D206D21690DB
:10292A00080D121807540FF533C22B300603022B79
:10293A00E0E4F536753703753703C3E53794097450
:10294A008094805042E537540175F00F700C1218CC
:10295A0085E0540FF53405368009121885E0C45411
:10296A000FF53474302534F5341216F44006740722
:10297A002534F534E531121718E5822537121891F6
:10298A00E534F0053780B31217D3C413135403F593
:10299A003614600F14601114601324037012753713
:1029AA00EE800D7537EF80087537F080037537F1C3
:1029BA001218EE121AFEAF37E4FCFDFE9001827483
:1029CA0003F012D2771217D3543FF53490047412DD
:1029DA0016BCEFF0E53475F00A84F53490047312EE
:1029EA0016BCEF1218ED246AF9740490080812173D
:1029FA0071122E351218EE247AF9740490080C120A
:102A0A001771122E35121804D3946474809480407E
:102A1A000BC219E49000BAF0C2088002D219121847
:102A2A0020FFE4FCFDFEFBFA7901F8121E9612184B
:102A3A00C2C006C00790080A1218237B00FAE4F9FC
:102A4A00F8D007D006121B1E900171122060900860
:102A5A000B121861FFE4FCFDFE121B1E301C0EC295
:102A6A0016753580122E449000B3121AC5121AB187
:102A7A00EF640E4E7005751401800EEF64014E70FE
:102A8A00057514FF8003E4F51412185EFEA3E0FF37
:102A9A0090007DEEF0A3EFF07879E6FC08E6FDEF12
:102AAA002DFFEE3CFEE48F3B8E3AF539F538AD3911
:102ABA00AC387B0FFAF9F8121E961219048C38AF4B
:102ACA0014EF3395E0FEFDFC1218F5F5387B407AD9
:102ADA0042790F78001218C8121F211218F5F5381A
:102AEA00E47B3CFAF9F8AC38121F21AF038F2F129E
:102AFA0000168F0AAF3BAE3AAD39AC38E47B3C12D4
:102B0A00187F1219048C38E47B3C12187FAF038FAC
:102B1A00371200168F0B12186BAF038F30E4F5FED5
:102B2A0090080E12194CB5350BE532700CD21612FC
:102B3A002E448005753580C216AF30EF3395E04FCD
:102B4A007036D3E5306480F8E512648098402990A5
:102B5A000175E50AF0900177E50CF0900176E50B36
:102B6A00F012D5958F10900175E0F50A900177E083
:102B7A00F50C900176E0F50B853012AF3012001695
:102B8A008F0C1218EE243AF9740435F0FA7B01C05E
:102B9A0003C002C0017B407A42790F78001218C83C
:102BAA00121F21AC00AD01AE02AF03900182740680
:102BBA00F0D001D002D00312D2771218C8E47B10E9
:102BCA007A27F9F8121F211218C2E4FDFC1218C262
:102BDA00121AD1022C4B12185EF537F50A9008002A
:102BEA0012194CF50B1217D3F50C121820F50D908B
:102BFA00080A121B27F50E121804F50FAF0A12DB8A
:102C0A00D98F2F900801121B27640E700DAF311255
:102C1A00D05C9000B2E0F50C8018121793FDAF312A
:102C2A001291CC121793FF64056005EF64047002D9
:102C3A00D22BC2167535F09000B2E0FF12DBD98FA5
:102C4A0012E4F5FEC21CAF3112C261AD33AF3112CC
:102C5A00B451300603022CF012186B121899900422
:102C6A00321217F1EFF0AF031218AB9004311217BA
:102C7A0080EFF0E47B3CFAF9F8AF3BAE3AAD39AC01
:102C8A0038121F211218999004351217F1EFF07CAF
:102C9A00007D0AAF03AE02121D129004341217808F
:102CAA00EFF01218C87884EEF608EFF67C007D641F
:102CBA00121D12121AD1E52F75F00A121C31AFF04B
:102CCA00EF2430FF9004381219B4EFF0E52F75F0B5
:102CDA000A121C312430FFE531121544EFF0E531B8
:102CEA00121674742EF01218C8121AD190042512F2
:102CFA0019B47420F0E4F5FE300E0330090A302AC4
:102D0A0066E55D146532705FE4FDAF3112CEEDE425
:102D1A00F5FE202B1BE532700A1218EEFFAEF07D8D
:102D2A00E080081218EEFFAEF0AD35125FBA8016D9
:102D3A00121793FF64046005EF6405700912179374
:102D4A00FDAF31128CBDAF3112830975F080E531C8
:102D5A00121677742E1218ED121A1B126FCA7D03FF
:102D6A00AF3112CEEDC22A302011A206922CAF3119
:102D7A00128489E53112170F742CF0301B3A209314
:102D8A0037E4F5FE202B1BE532700A1218EEFFAE6F
:102D9A00F07DE080081218EEFFAEF0AD35125FBA92
:102DAA008016121793FF64046005EF640570091218
:102DBA001793FDAF31128CBD85311305310532E50C
:102DCA0032655D60030228EE7531040228EE301B7D
:102DDA0037209334E4F5FEAF130513C3EF121A0C30
:102DEA00400E7D017F007E0212C846E4F51380186A
:102DFA00E5132401FFE433FEEF7807C333CE33CE65
:102E0A00D8F9FFE4FD12C846E4F5310228DF2006AE
:102E1A000312DCC7301B0C20930912DA8E12DD2D47
:0A2E2A0012B166C22C12D9A2C23DFB
:102E340022FFE4FCFDFE9001827403F012D277229B
:0B2E44009000B2E0FF12DBD98F1222D9
:109F7C00D295D2A4D290D219C208E49000BAF0D2F1
:109F8C00961219F912D5631219F912D563E49000DF
:109F9C00A4F012D5958F10850C1112DCAF12DA5C7F
:109FAC0012DB2DC21BC209C218E4F5FE7F0612DCBF
:109FBC0088D24612D41DE490013AF0C2A3D283D2C7
:109FCC00B5C20EF5FE12DD20C2A3D283D2B5D2A447
:109FDC00C215E4900007F0F5FED2AFD243C2177F52
:109FEC000412C0437F0212C043D22230930D7BFF78
:109FFC007A0979967D0512A384D2437F0112D90F79
:10A00C009000F87404F0E4F5089000A1F0A3F012AD
:10A01C00757612DABD7F01EFC31219A25009121521
:10A02C0057121A6F02A02375080790029312209DF5
:10A03C0000000000121B107BFF7A0979AB7D051222
:10A04C00A384D201E49000EFF090011DF090015F29
:10A05C007463F0E490016DF090013DF090007FF09E
:10A06C0090013BF0D2A0C290C2907F0112D36EC27D
:04A07C000EE4F514E5
:01A0800022BD
:0D00460075F1F875F3EF43E28075F5FF22C8
:0584890090017BEFF003
:10848E007BFF7A0979C97D0112A384E4900085F0FF
:10849E007B017A0079807D0112A3841285D8FF902A
:1084AE0004401214F6E4F0EF75F080A42426F9745B
:1084BE00041285C99004401215027420F01285D85A
:1084CE00FF90044512150EE090017C121688E09084
:1084DE00017DF090017BE0900447121526E090019B
:1084EE007E121693E090017F1285F390017C742C1E
:1084FE00F090017BE0FF900449121532E090017D6F
:10850E00121493E090017EF0A3742C1285F3900167
:10851E007BE0FF90045912153EE4121514E4F07539
:10852E00F080EF202C171216FFE41216A6E4121696
:10853E00B1742CF075F080EF90047E800390045F90
:10854E001220F2E4F0EF75F080A42453F9740412B3
:10855E0085C975F080A4245AF974041285E8202C7C
:10856E0028121A5F246AF974041285E8121A5F122F
:10857E001AFE7D0112A384121A5F247AF97404354F
:10858E00F0FA7B017D0112A38490017BE0FF900441
:10859E005912154774201215147420F0202C11EF67
:1085AE001216FC74201216A674201216B1742CF03A
:0B85BE007BFF7A0979D07D0202A384C4
:1085C90035F0FA7B017D0112A38490017BE0227BC7
:1085D900FF7A0979CD7D0112A38490017BE02235D0
:1085E900F0FA7B017D0112A38422F0E4A3F07B0160
:0A85F9007A01797C7D0112A384222F
:10A47E00E4FF12DBB5400302A55C303E0302A522C9
:10A48E009000A4E0600302A522301509FC12A55D20
:10A49E007C0012A55D20431E1219EA600AEF6402C9
:10A4AE006005EF6403700FD243C22C12D9A27BFF5A
:10A4BE007A0979F6800BC22C12D9A27BFF7A0A791F
:10A4CE0009E4FD12A38412A1861218E412A38420BB
:10A4DE00436B9000F8E0FF64026005EF6403700EBA
:10A4EE009000F87402F07BFF7A0A7927801F9000A3
:10A4FE00F8E06401700B7403F07BFF7A0A793B80FD
:10A50E000C9000F87401F07BFF7A0A794F7D0512EA
:10A51E00A38480291219EA600AEF64026005EF64D1
:10A52E0003701A7BFF7A0A7963E4FD12A38412A1E9
:10A53E00861218E412A3849000F8740AF09000A416
:10A54E00E07002C23E7D467C00E4FF12DB90227B6F
:10A55E00FF7A0979D57D20126FCA7BFF7A0979D5EA
:08A56E007D207C00126FCA225F
:10774C0012D0159000F4E0645B60030279077BFFB4
:10775C007A0A7974FD12A384E49000F7F07B017A25
:10776C000079F47D0112A3841218E412A384E4902E
:10777C0000F4F09000BBF09000F5E012214577C4C6
:10778C0041780243786F4478944978A24C78AA4E99
:10779C0078024F78AF5078B45378C35478D5557875
:1077AC00D55678DF5778E65878025A77EF637859D0
:1077BC006478CA74000078F57F0612DC88C2227BDC
:1077CC00FF7A0A797F7D0512A384E4FDFF12B45180
:1077DC00127AC9C215200802C295121B31127908FF
:1077EC00027900D211127908E4FDFF12CEED12CD10
:1077FC005ED2A4027900C21AC243C215200802C28A
:10780C0095C22212DA5C12DCAF12757612D5958F06
:10781C00109000F5E0FF64436004EFB45A12126B51
:10782C0099C22CE4FF1284897BFF7A0A7992800931
:10783C0012AFDA7BFF7A0A79A27D0512A384C2A467
:10784C00D209E4FDFF12CEEDD2A40278DA9000BC8E
:10785C00E55DF0C22A12283A9000BCE0FF12CF83FB
:10786C00027900D215C228127FDCE4FDAF1312CED0
:10787C00EDE51375F080A4121A1B126FCA7D02AFCE
:10788C001312CEEDC215806CC20912957ED209126C
:10789C001B17D246805ED215C290D295805612D359
:1078AC0032805112C458804CC215200802C295D2A5
:1078BC0022D243D21A803D12C912D2178036C2117D
:1078CC007D02E4FF12CEED802BD22A12990F121BEF
:1078DC003180217F01126249801A20110330090383
:1078EC0012CCB3D296D222800B7BFF7A0A79B27D6E
:1078FC000512A384E49000F5F0A3F02212DA5C12D6
:03790C00DCAF22CB
:0300530002D75F72
:10D75F00C0E0C0D075D000C007AFBBEF641E70082B
:10D76F0075BB0475BCFC800675BB1E75BCF8C2ED9D
:07D77F00D007D0D0D0E0324A
:03008B0002C62D7D
:10C62D00C0E0C0F0C083C082C0D075D000C000C0D3
:0DC63D0001C002C003C004C005C006C00754
:10C64A0012DC4EEF30E2317B013009237A0079BBEC
:10C65A007D311296B09000BBE09000F4F09000BCDF
:10C66A00E09000F5F09000BDE09000F6F080097AC5
:08C67A000079F47D031296B073
:10C68200D007D006D005D004D003D002D001D0000C
:0BC69200D0D0D082D083D0F0D0E032B6
:10D7FB00FDFC121FEDE53F4FFFE53E4EFEE53D4DB7
:10D80B00FDE53C4C8F3F8E3E8D3DF53C229001F467
:05D81B00122054E4227C
:06D1B1009001F412207849
:10D1B700E4F53FF53EF53DF53C12D818FFFEFDECD2
:10D1C7007818121FDA12D80012D818FFFEE4FC787C
:10D1D70008121FDA12D80012D818FFE4780812D7FD
:0BD1E700FB12D818FE781812D7FBFCD2
:01D1F200221A
:02DCD200AD079C
:08DCD400EEFBEDFAEBAE02FFDE
:01DCDC002225
:10B0A6001201100100000040C4100002000001005F
:10B0B600030109022000010100800F0904000002BB
:10B0C60008065000070581024000000705020240FD
:10B0D6000000040309042A03530069006C00690098
:10B0E60063006F006E0020004C00610062006F007C
:10B0F6007200610074006F007200690065007300E1
:10B10600380343003800300035003100460078002F
:10B1160078007800200044006500760065006C0029
:10B126006F0070006D0065006E0074002000420024
:10B136006F006100720064001C03300030003700AD
:10B14600390038003700360035003400330032004D
:10B1560031003000FFB0D8FFB0DCFFB106FFB13ED2
:04003E0001000000BD
:10CD09007596117597409002817401F0E49002873D
:10CD1900F0A3F0227A0079407BFF9002760221305D
:10CD290075960EE4F597900281E064042290027EE4
:10CD3900E0FF7E00648122900284E06404227596FB
:10CD49001175974822900285E4F0A304F0227596A4
:05CD59000E7597012298
:10B7240090027BE07010A3E0700C90027FE0700642
:10B73400A3E06402600312D968900279E0247F6078
:10B74400131460292402707790027DE07015A3E041
:10B754006013806B12CD40700A90027DE07004A3E8
:10B76400E06002805A7BFF7A007940804212CD402B
:10B77400700690027DE06002804512CD367016900E
:10B784000282E064037BFF70067A00793E80047ACB
:10B79400007940801AEF64014E7022900283E064C5
:10B7A400037BFF70067A00793E80047A00794012A8
:10B7B400CD23900285E4F0A37402F080058000128A
:10B7C400D96812CD2F6008E59620E7FB12CD092237
:10BCED0012CD407020900279E060716401606D901A
:10BCFD00027BE0706790027DE0706190027FE070E2
:10BD0D005BA3E060028055900279E06402704D9073
:10BD1D00027CE0704712CD366005EF6401703DEF97
:10BD2D0064814E701AE59620E7FB12CD57E59620FB
:10BD3D00E7FB759611759740E4900282F08020E53F
:10BD4D009620E7FB75960E759702E59620E7FB7535
:10BD5D009614759780E4900283F0800312D968E5FC
:10BD6D009620E7FB12CD296008E59620E7FB12CD62
:02BD7D0047225B
:10BD7F0012CD407020900279E060706401606C9089
:10BD8F00027BE0706690027DE0706090027FE07051
:10BD9F005AA3E060028054900279E06402704C90E4
:10BDAF00027CE0704612CD366005EF6401703CEF07
:10BDBF0064814E7018E59620E7FB12CD57E596206B
:10BDCF00E7FB7596117597109002828019E5962002
:10BDDF00E7FB75960E759702E59620E7FB759614AF
:10BDEF007597209002837403F0800312D968E5964B
:10BDFF0020E7FB12CD296008E59620E7FB12CD471F
:01BE0F002210
:10CF3800900279E0701D90027DE07017A3E07013F5
:10CF4800A3E0700FA3E0700B90027BE07005A3E0F4
:10CF580030E70312D9689002817405F090027CE0F2
:10CF680090028460057403F080037402F012CD2FE0
:0BCF78006008E59620E7FB12CD472281
:10A2850090027BE024FE601C146039146053146056
:10A29500652404600302A3337AB079A612CD219018
:10A2A500B0A680497BFF7AB079B812CD2390B0BBB8
:10A2B500E493FE90B0BAE4937C002400FFEC3E905A
:10A2C5000285806490027CE075F00390B15A1220FB
:10A2D500F212213912CD23121C53FF900285E4801E
:10A2E500477BFF7AB079C112CD2390B0C1E493FFCB
:10A2F500900285E4803290027C12CD396005EF64CE
:10A3050001702BEF64814E7BFF700C7AB079CA1215
:10A31500CD2390B0CA800A7AB079D112CD2390B0FE
:10A32500D1E493FF900285E4F0A3EFF0800312D906
:10A335006890027BE0FF64016014EF6402600FEF38
:10A345006403600AEF64046005EF640570239002FE
:10A3550080E0FFD3900286E09F900285E094004064
:10A365001090027FE0700AE0FE900285EEF0A3EF08
:0FA37500F012CD2F6008E59620E7FB12CD0922EC
:10CAF500900279E06480701C90027BE07016A3E0E0
:10CB05007012A3E0700EA3E0700AA3E07006A3E024
:10CB15006401600512D9688023900284E0FF7E00DD
:10CB25006404700C7BFF7A00793E12CD2312CD4E42
:10CB3500EF64034E700612CD1D12CD4E12CD2F603F
:0ACB450008E59620E7FB12CD092257
:10BFB900900284E064026029900279E07023900283
:10BFC9007DE0701DA3E07019A3E07015A3E0701166
:10BFD90090027BE0700BA3E0D394017480948040BD
:10BFE9000512D968804690027CE0D394007480944D
:10BFF90080402D9002847404F0E4900282F0A3F052
:10C00900E59620E7FB12CD57E59620E7FB759612DA
:10C01900759720E59620E7FB75960EE4F597800C59
:10C029009002847403F0900282F0A3F012CD2F6085
:0AC0390008E59620E7FB12CD472230
:10D1F30012CD407024900279E06481701C90027B10
:10D20300E07016A3E07012A3E0700EA3E0700AA30F
:10D21300E07006A3E06401600512D968800612CDB0
:10D223001D12CD4E12CD2F6008E59620E7FB12CDDF
:02D233000922CE
:10D4FA00900279E06401701C90027FE07016A3E04C
:10D50A00701290027BE0700CA3E07008A3E0700434
:10D51A00A3E0600312D96812CD2F6008E59620E7D0
:05D52A00FB12CD4722B9
:06CE9900430281000000CD
:10D6E300FEE02400FFEC3EF0A3EFF022900232E0D4
:10D6F3004408F0E4900281F02285688385698222E0
:0BD7030090000312218FE0FEA3E02243
:0300430002BA718D
:10BA7100C0E0C0F0C083C082C0D075D000C000C09B
:0DBA810001C002C003C004C005C006C0071C
:10BA8E00E59620E7FB759686E59620E7FB90022E5D
:10BA9E00E597F0E59620E7FB759682E59620E7FBA5
:10BAAE0090022FE597F0E59620E7FB759684E596D4
:10BABE0020E7FB900230E597F090022EE030E10394
:10BACE0012DCE890022EE030E20312D94B90022FE6
:10BADE00E030E00312790F900230E030E20312C939
:0BBAEE007590022EE030E00312DCF245
:10BAF900D007D006D005D004D003D002D001D000A1
:0BBB0900D0D0D082D083D0F0D0E0324A
:0ADCE800900231E475F001021D9D69
:10D94B009002847402F0E59620E7FB7596017597BB
:0DD95B0001E4900281F0A37403F0A3F02218
:10790F00E59620E7FB75960EE4F597E59620E7FBE5
:10791F00759691E59620E7FB900231E597F090027E
:10792F0081E064057013E59620E7FBE4F59690027D
:10793F007CE0F597E4900281F0900231E0FF30E2B5
:10794F0010E59620E7FB759611E4F597900281F00C
:10795F0022EF30E41BE59620E7FB7596117597082B
:10796F00E59620E7FB759611759780E4900281F0FC
:10797F00900281E06003027A19900231E020E00367
:10798F00027A197B017A0279797D087C007F2012B7
:10799F00CE9F90027CE0FE90027BE07C0012D6E549
:1079AF0090027EE090027D12D6E3900280E090027A
:1079BF007F12D6E390027AE012214579E90079EE41
:1079CF000179F30379F80579FD067A02087A070938
:1079DF007A0C0A7A110B00007A1612B724802B1238
:1079EF00BCED802612BD7F802112CF38801C12A2E1
:1079FF0085801712CAF5801212BFB9800D12D1F30C
:107A0F00800812D4FA800312D968900281E06401D1
:107A1F006003027AC8900231E030E103027AC8E5D0
:107A2F009620E7FB759691E59620E7FB900231E5EE
:107A3F0097F0E030E40630E003027AC89002327427
:107A4F0002F0C3900286E09440900285E09400908B
:107A5F000276402D1221107C007D407F2012C365DD
:107A6F00900277E475F040121D9D90028574FF75AA
:107A7F00F0C0121D9D900287E475F040121D9D808D
:107A8F0013122110900285E0FCA3E0FD7F2012C3AA
:107A9F006512D6EF90027FE0FEA3E0FF900287E031
:107AAF00B50608A3E0B5070312D6EFE59620E7FB6E
:097ABF00759611900232E0F59772
:017AC800229B
:10C97500E4FFE59620E7FB75960E759702E5962090
:10C98500E7FB759694E59620E7FBAE97900283E06A
:10C995006403700CE59620E7FB75961475972022C5
:10C9A500EE30E60BE59620E7FB759614759780E566
:10C9B5009620E7FB759696E59620E7FBAF97EFFD8A
:10C9C5007C00E59620E7FB759697E59620E7FBAF9B
:01C9D50097CA
:01C9D600223E
:0ADCF200900231E475F001021D9D5F
:10CE9F00900233EFF0900236122130900234ECF012
:03CEAF00A3EDF000
:10CEB2004C6037900233E0F5964396C0E4FFFED310
:10CEC200900235E09F900234E09E401BE59620E7F9
:10CED200FB9002361221108F828E83E597121CDEA0
:0ACEE2000FBF00010E80D8E4F596A2
:01CEEC002223
:10C3650090FFFD12216B12213090FFFE12216BEC24
:10C37500F0A3EDF090FFFF12216BEFF090FFFE129E
:02C38500216B2A
:10C38700D2B012D7034E6049E59620E7FB12D6FCE0
:10C39700A3A3E0F59612D6FCE4F0A3F012D703FFAF
:10C3A70012D6FCE0FCA3E0FDC39FEC9E5023900057
:10C3B7000512218F1221108D828C83121C6CF59728
:10C3C700E59620E7FB12D6FCE475F001121D9D806F
:03C3D700CBC2B026
:06C3DA0090000802216B37
:10D96800E59620E7FB75960EE4F597E59620E7FB2C
:0DD978007596117597209002817404F022BD
:10D3A9001201100100000040C41000000000010239
:10D3B90003010902200001010080FA0904000002AA
:10D3C900FF00000007050202400000070582024035
:0AD3D9000000040309040100000035
:1094470090016EEEF0A3EFF0900172EBF0A3EAF05B
:10945700A3E9F0E49007A8F09007A8E0FF90D3A94C
:1094670093FE74402FF582E43407F583EEF09007FE
:10947700A8E004F0E0B412E0E49007A8F09007A891
:10948700E0FF90D3BB93FE74522FF582E43407F5C7
:1094970083EEF09007A8E004F0E0B420E090016EBE
:1094A700E0FAA3E0900748F0EAA3F0EDA3F0ECA3FD
:1094B700F090077274FFF0A374D3F0A374DBF090FD
:1094C7000172E0F9A3E0FAA3E0900775C9F0A3EAF7
:1094D700F0A3E9F0900175E0F9A3E0FAA3E09007A3
:1094E70078C9F0A3EAF0A3E9F0900178E0F9A3E0E6
:1094F700FAA3E090077BC9F0A3EAF0A3E9F0900193
:109507007BE0FFC394FA500590075AEFF090017C77
:10951700E0900759F090017DE0FEA3E090074CF042
:10952700EEA3F0E59620E7FB759601759708E5969B
:1095370020E7FB75960775970FE59620E7FB75966D
:109547000975970EE59620E7FB75960B75970775D6
:10955700D7E012DCA3E4900792F0900791F0900710
:1095670093F0900786F043E602D2AFE59620E7FB3B
:0795770075960175970122B2
:10D786009007867402F0E59620E7FB75960175977B
:10D7960001E490078EF0A37403F0A3F0E4900792DF
:07D7A600F090079104F0224E
:10673000E59620E7FB75960EE4F597E59620E7FBD6
:10674000759691E59620E7FB90079CE597F0E0FFB2
:1067500030E210E59620E7FB759611E4F597900777
:106760008EF022EF30E410E59620E7FB7596117568
:106770009780E490078EF090078EE06003026865D2
:1067800090079CE020E0030268657596204396C060
:10679000E49007A8F0E59620E7FB9007A8E0247EA8
:1067A000F582E43407F583E597F09007A8E004F05C
:1067B000E0B407E1E59620E7FBE4F5969007A8E052
:1067C000247EF582E43407F583E597F0900781E0B5
:1067D000FE900780E07C002400FFEC3E900794F0E0
:1067E000A3EFF0900785E0FE900784E02400FFEC23
:1067F0003E900796F0A3EFF090077FE004603B1413
:10680000B40C00505D90680CF828287302683002C0
:10681000683502683A02683F0268620268440268AA
:106820004902686202684E02685302685802685D55
:1068300012C5BA803012CA38802B129C538026129F
:10684000CA97802112D8D0801C12B226801712CF8E
:10685000CE801212CB4F800D12D7AD800812DB41D3
:10686000800312D98590078EE06401600302696697
:1068700090079C7402F0C390078DE0944090078CC1
:10688000E094004061E59620E7FB759620E49007D0
:10689000A8F09007A8E0FFC394405022900787E03B
:1068A000FBA3E0FAA3E0F98F82758300121C6CF55C
:1068B00097E59620E7FB9007A8E004F080D49007C6
:1068C00088E475F040121D9D90078DE024C0F09083
:1068D000078CE034FFF090078BE02440F090078AAB
:1068E000E03400F08052E59620E7FB759620E490B6
:1068F00007A8F09007A8E0FFD390078DE09F9007CE
:106900008CE094004026900787E0FBA3E0FAA3E028
:10691000F99007A8E0F582758300121C6CF597E5E5
:106920009620E7FB9007A8E004F080C790079CE062
:106930004408F0E490078EF0900796E0FEA3E0FF95
:1069400090078AE0B50611A3E0B5070C90079CE01C
:106950004408F0E490078EF0E59620E7FB75961169
:0769600090079CE0F597226F
:10D98500E59620E7FB75960EE4F597E59620E7FB0F
:0DD9950075961175972090078E7404F0228E
:10C5BA0090077EE0247F600714600624027048809A
:10C5CA002D90078FE0B40309900782E0B40202803D
:10C5DA000E900790E0B40316900782E0B4820F90A1
:10C5EA00078774FFF0A374D3F0A374DF800D90075C
:10C5FA008774FFF0A374D3F0A374E1F090078CE47E
:10C60A00F0A37402F0800312D98590078EE06404C7
:10C61A00601012DB4190078E7401F0E490078AF0F3
:03C62A00A3F02258
:10CA3800900780E07048900782E0FFB4021DE596F9
:10CA480020E7FB75960E759702E59620E7FB75962D
:10CA580014759780E490078FF08026EFB4821DE567
:10CA68009620E7FB75960E759702E59620E7FB750D
:10CA78009611759740E4900790F08005800012D9D0
:0FCA880085E59620E7FB75960EE4F59702DB41F6
:109C5300900794E0B4373CA3E0B40B3790078EE051
:109C63006404601012DB4190078E7401F0E49007E6
:109C73008AF0A3F090079B7480F09007877401F03B
:109C8300A37407F0A3749BF090078CE4F0A304F093
:109C9300029D55900795E020E003029D2C900793C9
:109CA300E030E00854FEF04402F08007900793E0B0
:109CB30054FDF0E59620E7FB75960E759702E59641
:109CC30020E7FB759614759710E59620E7FB7596CC
:109CD30011759708E59620E7FB759694E59620E7BE
:109CE300FB90079BE597F0E020E4E9E59620E7FB8E
:109CF300759614759710E59620E7FB759691E59692
:109D030020E7FB90079BE597F0E020E3E9E5962049
:109D1300E7FB7596117597089007917408F0900703
:109D230093E0FF30E1034401F0900794E0FCA3E0EB
:109D3300FD30E10D9007867406F0900791E0441022
:109D4300F0ED30E20D9007867404F0900791E04443
:109D530020F0E59620E7FB75960EE4F59702DB41CC
:10CA9700900780E07047900782E0FFB4021BE5969D
:10CAA70020E7FB75960E759702E59620E7FB7596CE
:10CAB7001475972090078F801DEFB4821EE596208E
:10CAC700E7FB75960E759702E59620E7FB759611BD
:10CAD7007597109007907403F08005800012D98530
:0ECAE700E59620E7FB75960EE4F59702DB411D
:10D8D000E59620E7FBE4F596900780E0FFF597EFEB
:10D8E00090078660057403F080037402F002DB4148
:10B22600900781E024FE601B14603B24027072903C
:10B2360007877401F0A37407F0A37440F0900740E9
:10B24600E080539007877401F0A37407F0A374524B
:10B25600F0900755E0FE900754E07C002400FFECD8
:10B266003E90078C8035900780E0FFD39403400220
:10B27600802FEF75F003A42472F582E43407F5837A
:10B28600E0FBA3E0FAA3E0F9900787EBF0A3EAF06E
:10B29600A3E9F0121C53FF90078CE4F0A3EFF080B3
:10B2A6000312D98590078CE0FEA3E0FF900796E095
:10B2B600FCA3E0FDC39FEC9E500890078CECF0A326
:10B2C600EDF090078EE06404601012DB4190078E6B
:0BB2D6007401F0E490078AF0A3F0225E
:10CFCE00900786E0FFB40414A374FFF0A374D3F0AB
:10CFDE00A374DFF090078CE4F0A304F0EFB4031613
:10CFEE0090078774FFF0A374D3F0A374E1F0900759
:10CFFE008CE4F0A304F012DB4190078E7401F0E490
:07D00E0090078AF0A3F02255
:10CB4F00900780E0D394004042900791E04440F07A
:10CB5F009007867404F0E490078FF0A3F0E5962019
:10CB6F00E7FB75960E759702E59620E7FB75961213
:10CB7F00759784E59620E7FB759615759780E59672
:10CB8F0020E7FB75960EE4F597800C9007867403EB
:0ACB9F00F090078FF0A3F002DB41D5
:10D7AD0090078774FFF0A374D3F0A374E1F0900792
:10D7BD008CE4F0A304F012DB4190078E7401F0E4C9
:07D7CD0090078AF0A3F0228F
:10DB410090078EE06404600BE59620E7FB75961163
:04DB51007597402262
:03004300028A220C
:108A2200C0E0C0F0C083C082C0D075D000C000C01A
:108A320001C002C003C004C005C006C00790079D64
:108A4200E596F0E59620E7FB75968EE59620E7FB26
:108A520090079EE597F0E59620E7FB759686E596EA
:108A620020E7FB900798E597F0E030E30BE59620CE
:108A7200E7FB75960B759707900798E030E20312B3
:108A8200D786900798E030E014900786E0FF6404F0
:108A92006004EFB40607900791E04480F0E5962069
:108AA200E7FB759682E59620E7FB900798E597F03D
:108AB200E030E003126730900798E030E22AE59652
:108AC20020E7FB75960E759702E59620E7FB7596F3
:108AD20091E59620E7FB900799E597F0E054037043
:108AE20007900791E04402F0E59620E7FB75968433
:108AF200E59620E7FB900798E597F0E030E229E55C
:108B02009620E7FB75960E759702E59620E7FB75B2
:108B12009694E59620E7FB900799E597F0E030E020
:108B220007900791E04404F0E59620E7FB75960E66
:108B320090079EE0F597E59620E7FB90079DE59666
:108B4200F0E59620E7FB900793E030E0099007916B
:108B5200E0600312D88DD007D006D005D004D00330
:108B6200D002D001D000D0D0D082D083D0F0D0E0DB
:018B720032D0
:10D01500E49007A8F0E5B964E0603853A90F9007DC
:10D02500A7E5A9F043B280E5A95407D394014003CD
:10D03500E4F5A9E4F5B943B9809007A8E014F070C8
:10D04500F843B9C0E5B930E5FB9007A7E0B40203A2
:07D0550043A90253A90F22B9
:10D68A009007A7E5A8F0C2AFC2AF53E6FDE4F5D70D
:10D69A00E59620E7FB759601759708E5A920E1064E
:0DD6AA0043A910E4F5B99007A7E0F5A82208
:0FDC4E00900791E0FF9007A7F0E4900791F02274
:1096B0009007A8EDF09007ABEBF0A3EAF0A3E9F078
:1096C000900786E0B40606EDD3944040037F002265
:1096D000E59620E7FB75960E759702E59620E7FB69
:1096E000759694E59620E7FB90079AE597F0E020C1
:1096F000E0030297DDE59620E7FB759696E5962058
:10970000E7FB900792E597F0E0FFEDC39F5006AEB0
:1097100005AF068000900792EFF053E6FDE5962036
:10972000E7FB7596E2900792E070030297C19007FD
:10973000ABE0FF7020A3A3E090079FF0E59620E741
:10974000FB90079FE0F8A697E004F09007A8E014CC
:10975000F070E9806CEF20E73C9007ABA3E0FAA340
:10976000E0FF9007A1EAF0A3EFF0E59620E7FB9079
:1097700007A1E0FEA3E0F5828E83E597F09007A2B3
:10978000E004F070069007A1E004F09007A8E01450
:10979000F070D7802C9007ABE064FE7021A3A3E0AB
:1097A0009007A5F0E59620E7FB9007A5E0F8E59780
:1097B000F2E004F09007A8E014F070E880037F0066
:1097C00022E59620E7FBE4F596E59620E7FB759603
:1097D00014E4F59743E602900792E0FF227F00220F
:106FCA00E49007A7F09007A9F0A3F09007ABEBF0C5
:106FDA00A3EAF0A3E9F0900786E0B4060DED4C6051
:106FEA0009D3ED9400EC94104004E4FEFF2253E62A
:106FFA00FD9007A7E030E0030271AEE59620E7FBBB
:10700A0075960E759702E59620E7FB759691E596BB
:10701A0020E7FB9007A7E597F0E030E020E596200F
:10702A00E7FB75960EE4F597E59620E7FB759691D2
:10703A00E59620E7FB9007A7E597F080B4D3ED9497
:10704A0040EC94009007A840057440F08002EDF0EF
:10705A00E59620E7FB7596229007A8E07003027177
:10706A005E9007ABE0702DA3A3E0F99007A9A3E017
:10707A00FFE92FF990079FE9F0E59620E7FB9007D3
:10708A009FE0F8E6F597E004F09007A8E014F070A6
:10709A00E802715E9007ABE020E747A3E0FAA3E0BD
:1070AA00F99007A9E0FEA3E0FFE92FF9EA3EAF0154
:1070BA009007A1F0A3EFF0E59620E7FB9007A1E087
:1070CA00FEA3E0F5828E83E0F5979007A2E004F034
:1070DA0070069007A1E004F09007A8E014F070D7BA
:1070EA0080729007ABE064FE7021A3A3E09007A52D
:1070FA00F0E59620E7FB9007A5E0F8E597F2E004B3
:10710A00F09007A8E014F070E880499007ABA3E07C
:10711A00FAA3E0F99007A9E0FEA3E0FFE92FF9EA54
:10712A003EAF019007A3F0A3EFF0E59620E7FB90AE
:10713A0007A3E0FEA3E0F5828E83E493F597900718
:10714A00A4E004F070069007A3E004F09007A8E01A
:10715A0014F070D6C3ED9440EC94009007AAE04076
:10716A001F2440F09007A9E03400F074C02DFD748C
:10717A00FF3CFCE49007A7F09007A87440F0801643
:10718A002DF09007A9E03CF09007A77401F0900752
:10719A00A8EDF0E4FCFDE59620E7FB7596117597DE
:1071AA0001026FFB43E6029007A9E0FEA3E0FF227B
:10DA4300900793E04401F0900791E0600BE5962086
:09DA5300E7FB75960B75970F2295
:08DD1800900793E054FEF02295
:0CDCA300E59620E7FB75960F7597892227
:10D88D00D007D007D007D006D005D004D003D002E2
:10D89D00D001D000D0D0D082D083D0F0D0E0020023
:02D8AD008B22CC
:10BEA0002A2A2A436C6F636B2043616C696272615A
:10BEB00074696F6E2041626F727465642121210084
:10BEC000436C6B20446966663A20307800757320B5
:10BED0002D20002000204472696674204D65617336
:10BEE0007572656D656E742041626F727465642051
