:0300000002BE49F4
:0CBE4900787FE4F6D8FD75818702BE907A
:10BE5500023436E493A3F8E493A34003F68001F299
:10BE650008DFF48029E493A3F85407240CC8C333EE
:10BE7500C4540F4420C8834004F456800146F6DFBD
:10BE8500E4800B010204081020408090CD6DE47E13
:10BE9500019360BCA3FF543F30E509541FFEE493B2
:10BEA500A360010ECF54C025E060A840B8E493A379
:10BEB500FAE493A3F8E493A3C8C582C8CAC583CAA4
:10BEC500F0A3C8C582C8CAC583CADFE9DEE780BE5C
:01CD6D0000C5
:0EDB5800F0EF25E0248AF582E43402F5832202
:03002B0002D08B75
:10D08B00C0E0C0F0C083C082C0D075D018900288B9
:10D09B00E475F001121D9E75CBF075CA60C2CFC34B
:10D0AB00900289E0947D900288E094004009E4F0BE
:10D0BB00A3F0D21F12D992D0D0D082D083D0F0D08F
:02D0CB00E03251
:10D99200D390028BE0940090028AE0948040077456
:07D9A200FFF5F0121D9E22AB
:0300730002D9EEC1
:10D9EE0053E67F53917F53C77F43C78053C77F430F
:06D9FE00C78053C77F3211
:10D33900E4900288F0A3F0FFEFC394017480948015
:10D34900501012DB59E4F0A312DB58E0547FF00FC0
:10D3590080E6E4F5C8538E0F75CBF0F5CA74FFF576
:07D36900CDF5CCD2ADD2CA14
:01D37000229A
:10DA8F00538EF8438E04758902758CEA758AEAD233
:02DA9F008C22D7
:10DA6900E4F59175959E75945875939E75925853E2
:03DA79008EBF223B
:10DA1900E4F591F595F59475937F7592FF538E3FD3
:04DA290043910422FF
:10DAA10012DB59E0FEA3E07003EE64807002D32222
:02DAB100C3228E
:10DA7C00ED4C600E12DB59ECF0A3ED12DB58E044D8
:03DA8C0080F02205
:1000030075B28353A9F8E4F586758DCC438E082227
:10D3E00043B203E4F5B943B980FFFE0FBF00010E5D
:10D3F000BE01F8BFF4F543B9C0E4FEFF0FBF000162
:10D400000EBE01F8BFF4F5E5B930E5FB75A903756B
:05D410008D30438E0881
:01D4150022F4
:0D002E000070007000DFF9EE6002DEF422C9
:10008E0043757272656E742054696D653A20002056
:10009E00004E657720486F75722E2E2E2020200080
:1000AE000D0A2D2D2E2000005553422054696D65EA
:1000BE0020616E642053656E736F722044617461AB
:1000CE002073656E74003F2A53796E6320436F75FB
:1000DE006E742C20496E76616C69642054696D656E
:1000EE0020666C616720736574004C6172676520D1
:1000FE0046696C652053697A65004E6577204669BE
:10010E006C6520506172746974696F6E00207E7E1A
:10011E00377E7E0046696C652073697A653A0044C5
:10012E00737020566572732069732030312E35300E
:10013E00004E65772066697665206D696E7574650B
:10014E0020696E74657276616C2E2E2E20004E65BF
:10015E00772066697665206D696E75746520696EA7
:10016E0074657276616C2E2E2E4E6F204750532082
:10017E00736F206E6F2053796E63207570207769D0
:10018E006C6C206265207363686564756C65642EA3
:10019E000D0A00202020204C6173742047505320FC
:1001AE00617474656D707420776173207375636309
:1001BE0065737366756C2E2000202020204C6173B1
:1001CE00742047505320617474656D70742066619D
:1001DE00696C65642120002020202047505320693F
:1001EE00732064697361626C65642E2000426174D1
:1001FE007465727920766F6C746167652069733AE5
:10020E00200020202020486F75726C792044657480
:10021E00656374696F6E20436F756E743A200020AB
:10022E00546F74616C20446574656374696F6E20DD
:10023E00436F756E743A200020506F6F72205369B1
:10024E00676E616C00204E4545445320534552560F
:10025E00494345212121000D0A0D0A2D2D2D202A5D
:10026E002A2A2054524944454E54205348454C4C5A
:10027E002053544152544544202A2A2A0D0A2D2D2A
:10028E002D000D0A2D2D2D20487964726F70686F28
:10029E006E6520636F6D6D756E69636174696F6EE7
:1002AE0020737461727465642E002A2A2A204469B0
:1002BE0061676E6F73746963205374617475732014
:1002CE00436865636B20686173206265656E2069A3
:1002DE006E69746961746564202A2A2A0D0A2D2DAF
:1002EE002D005344206D656D6F72792063617264C9
:1002FE00206973206E6F7420696E20746865207398
:10030E006C6F742E002A2A2A2047505320697320BE
:10031E00656E61626C656420746F20616C6C6F77C2
:10032E002074696D696E672066756E6374696F6E91
:10033E0073202A2A2A0D0A2D2D2D002A2A426164A5
:10034E002074696D652A2A0D0A2D2D2D002A2A2A60
:10035E00204261642074696D652E20547279207379
:10036E00657474696E6720636C6F636B2075736957
:10037E006E67204750532E202A2A2A0D0A2D2D2D26
:10038E00002A2A2A2047505320617474656D7074B8
:10039E0020776173207375636365737366756C2E56
:1003AE00204770732074696D652073796E632077B2
:1003BE00696C6C20626520617474656D707465641F
:1003CE002E202A2A2A0D0A2D2D2D002A2A2A2047D0
:1003DE00505320617474656D7074206661696C652C
:1003EE00642E204770732077696C6C206E6F7420BA
:1003FE006265207573656420746F20736574207454
:10040E0068652074696D652E202A2A2A0D0A2D2D05
:10041E002D005B4750532053594E43204641494CC3
:10042E002121212E2E2E2E2E2E2E2E2E2E2E2E2E05
:10043E002E5D005B4750532053594E432053554376
:10044E00434553532121212E2E2E2E2E2E2E2E2E6F
:10045E002E2E5D002A2A2A2047505320417474659F
:10046E006D707420556E7375636365737366756C0A
:10047E0020542A2A2A0D0A2D2D2D005B4750532079
:10048E0043616C69622E2E20525443204167696E7F
:10049E0067206F66667365742E2E5D002A2A2A20E9
:1004AE0054657374696E672073656E736F72732E05
:1004BE00202A2A2A0D0A2D2D2D00446961676E6FA0
:1004CE007374696320537461747573204368656334
:1004DE006B2066696E69736865642E0D0A2D2D2D6D
:1004EE00005B47505320436865636B20436F6D700C
:1004FE006C6574652E2E2E2E2E2E2E2E504153539D
:10050E005D005B47505320436865636B20436F6DFE
:10051E00706C6574652E2E2E2E2E2E2E2E46414973
:10052E004C5D00446574656374696F6E73207A6503
:10053E00726F65642E00446961676E6F73746963D0
:10054E002053746174757320436865636B2066690C
:10055E006E69736865642E20526573746172746976
:10056E006E672E2E2E0D0A2D2D2D004E6F204461FE
:10057E007461205468697320496E74657276616C7B
:10058E00202D20000D0A004E6F2056616C696420EC
:10059E004473702056657273696F6E202D20546FF0
:1005AE0067676C65206120726573657420746F20B7
:1005BE007265747269657665206974004473702083
:1005CE0056657273696F6E207265747269657661B5
:1005DE006C20686173206265656E20617474656D50
:1005EE0070746564005355434345535321212100D4
:1005FE004C6F6767696E6720746F205344206D657A
:10060E006D6F727920636172642068617320626518
:10061E00656E20696E697469617465642E00576138
:10062E006974202E2E2E20004C6F67205265737534
:10063E006D65642061743A005344206D656D6F7270
:10064E0079206361726420686173206265656E2033
:10065E0072656D6F7665642E0045786974696E6794
:10066E00206465646963617465642074696D696E84
:10067E0067206C6F6F702E200D0A004368616E67E5
:10068E006564207468652073797374656D20636C7E
:10069E006F636B20766961206120504320636F6D1C
:1006AE006D616E642E205265626F6F74696E672085
:1006BE007468652073797374656D2E205761697443
:1006CE002E2E2E0D0A004E6F74204C6F6767696ECA
:1006DE006720746F20636172642E204F70656E20E8
:1006EE0044535020636F6D6D756E69636174696FED
:1006FE006E2E0D0A00417474656D7074696E6720FC
:10070E00445350207265636F766572792E2E2E00DB
:10071E002020202A2A2A2A205761726E696E6721AC
:10072E002120475053207369676E616C207072658B
:10073E0073656E74206275742074686572652069C5
:10074E007320616E20696E76616C696420636C6FD4
:10075E00636B2073657474696E67206E6F20737996
:10076E006E632077696C6C20626520646F6E652005
:10077E00756E74696C20612076616C6964204750D7
:10078E00532074696D6520686173206265656E2003
:10079E007573656420746F207365742074686520AA
:1007AE007265616C74696D6520636C6F636B2E206E
:1007BE00202000507265706172696E6720746F2020
:1007CE00646F2035206D696E207363686564756C87
:1007DE0065642053796E63207570206F6620636C9C
:1007EE006F636B732E2E2E00507265706172696E80
:1007FE006720746F2053796E6320757020636C6F61
:10080E00636B732E2E2E00507265706172696E6767
:10081E0020746F2053796E6320757020636C6F6344
:10082E006B732E2E2E2E2E2E004E6F2073796E632E
:10083E002077696C6C20626520646F6E6520617430
:10084E0020746869732074696D65202D20322E2006
:10085E002020005374617274696E672044535020D7
:10086E00726573657420616E6420636C6F636B20B8
:10087E0073796E632E2E2E202020005374617274B5
:10088E00696E672044535020636C6F636B207379DD
:10089E006E632E2E2E20202000526573657420323A
:1008AE0020686173206F636375727265642E2E2EDD
:1008BE00202020002E20000D0A0D0A2020202020AE
:1008CE0020202A2A2A204750532073796E632075E0
:1008DE00702061626F727465642120506F6F722098
:1008EE007369676E616C2E202A2A2A2000202E2E14
:1008FE002A00202E2E78002E2E2000506F6F722090
:10090E0073796E6320617474656D70742120004676
:10091E00756C6C204453502072657365742000779B
:10092E006974682073796E6320757020636F6D70C3
:10093E006C657465202D2000203A20002020202098
:10094E000020636C6F636B206F66667365743A206C
:10095E0000757300202A2A20002A2A2A2045727246
:10096E006F7220647462546D70436C6F636B53745A
:10097E00616D702E75634461794F664D6F6E20699F
:10098E0073207A65726F004D697373696E67206D9F
:10099E00656D6F727920636172642E00537461729B
:1009AE0074207570202D20446574656374696F6EB4
:1009BE0073207A65726F65642E005B2424002C20F0
:1009CE00002024245D005B4572726F72204E6F20F2
:1009DE0044535020636F6E746163742E2E2E2E2E30
:1009EE002E2E2E2E2E5D004E6F2044535020636F00
:1009FE006E7461637420617420004C6F7374206395
:100A0E006F6E7461637420776974682074686520F2
:100A1E0044535020617420004D6F76696E672074C8
:100A2E006F2073746174757320322E004D6F76696A
:100A3E006E6720746F2073746174757320332E008B
:100A4E004D6F76696E6720746F2073746174757361
:100A5E0020312E00445350204261636B206F6E6C28
:100A6E00696E652E0055534220494E202E2E2E00C3
:100A7E0047707320496E7075742044697361626C9F
:100A8E006564004E657720436F6E666967207365F7
:100A9E006E74004F6C6420436F6E666967207365D9
:100AAE006E7400557362204461746120556E7265D8
:100ABE00736F6C76656400445350207600536974EE
:100ACE0065204E616D653A200046696C65204E6169
:100ADE006D653A200053657269616C204E756D62CA
:100AEE0065723A200046696C6520466F726D6174BE
:100AFE002056657273696F6E3A20322E30202000B8
:100B0E0046696C652053746172743A200046696CB4
:100B1E006520456E643A200041545320536F6E6930
:100B2E0063205265636569766572205352333031A6
:100B3E0037204669726D77617265207631302E36B8
:100B4E00324D0D0A0010C4EA61360341006400768E
:100B5E000061006E006300650064002000540065B3
:100B6E00006C0065006D0065007400720079002055
:100B7E0000530079007300740065006D0073001E51
:100B8E000353006F006E0069006300200052006581
:100B9E00006300650069007600650072000F800139
:020BAE000070D5
:10CD6E004C01610C0330003900300030003000C13E
:10CD7E0014C185C1074100060046015720302E30F0
:10CD8E0030004100A3014101600041013A00410120
:10CD9E0039094100BA004100F80441008800410001
:07CDAE0087034200A1000011
:1013BE00F075F080EF90046F1220F37430F075F03A
:1013CE0080EF9004701220F37430F075F080EF907F
:1013DE0004711220F37430F075F080EF90047312E4
:1013EE0020F37430F075F080EF9004741220F374D3
:1013FE0030F075F080EF90046A1220F3742DF075C2
:10140E00F080EF90046B1220F37439F075F080EFDA
:10141E0090046C1220F37439F075F080EF90047A1A
:10142E001220F37430F075F080EF90047B1220F3ED
:10143E007430F090047CEF75F0800220F3C4540FEA
:10144E002430FEEF75F0800220F39004451220F355
:10145E007420F075F080EF9004461220F37443F080
:10146E0075F080EF9004471220F3746CF075F080E5
:10147E00EF9004481220F3746FF075F080EF900433
:10148E00491220F37463F090044AEF75F080022045
:10149E00F3C4540F2430FEEF75F0800220F3C454D1
:1014AE000F2430FEEF75F0800220F3540F2430FE2F
:1014BE00EF75F0800220F3540F2430FEEF75F080AC
:1014CE000220F39004421220F37447F075F080EF7F
:1014DE009004431220F37450F0EF75F080900444A2
:1014EE000220F3E0900427FEEF75F0800220F3E077
:1014FE00900426FEEF75F0800220F3E090042AFEA1
:10150E00EF75F0800220F3F075F080EF900460121A
:10151E0020F3742CF0EF90046175F0800220F3E05C
:10152E00900429FEEF75F0800220F3E090042FFE68
:10153E00EF75F0800220F390043775F0800220F3EF
:10154E0090040075F080EF0220F390000DE0FEEFA6
:10155E0075F00EA4240DF582E43400F583EEF090C0
:10156E00000EE0FEEF75F00EA4240EF582E43400BA
:10157E00F583EEF090000FE0FEEF75F00EA4240F51
:10158E00F582E43400F583EEF0900010E0FEEF7586
:10159E00F00EA42410F582E43400F583EEF09000F2
:1015AE0011E0FEEF75F00EA42411F582E43400F57F
:1015BE0083EEF0900012E0FEEF75F00EA42412F50B
:1015CE0082E43400F583EEF0900013E0FEEF75F048
:1015DE000EA42413F582E43400F583EEF09000148B
:1015EE00E0FEEF75F00EA42414F582E43400F583CA
:1015FE00EEF0900015E0FEEF75F00EA42415F582C6
:10160E00E43400F583EEF0900016E0FEEF75F00E78
:10161E00A42416F582E43400F583EEF0900017E072
:10162E00FEEF75F00EA42417F582E43400F583EE78
:10163E00F0900018E0FEEF75F00EA42418F582E489
:10164E003400F583EEF0900019E0FEEF75F00EA475
:10165E002419F582E43400F583EEF090001AE0FED2
:10166E00EF75F00EA422EF75F0809004390220F38E
:10167E00F090047F75F080EF0220F3F09004467531
:10168E00F080EF0220F3F090044875F080EF022016
:10169E00F3FE75F080EF0220F3F0EF75F08090040A
:1016AE00790220F3F0EF75F08090047D0220F3753F
:1016BE00F00A84E5F02430FF75F080E5310220F366
:1016CE0075F0809004430220F33AF583E53CF0E593
:1016DE003DC4F854F0C868F53DE53EC4540F48F5D6
:1016EE003E540F2430F53CD3943974809480227587
:1016FE00F08090046E0220F390040175F080EF02EA
:10170E0020F375F0809004400220F375F080900471
:10171E00420220F3FE75F080EF0220F375F0809008
:10172E0004500220F375F08090044F0220F375F000
:10173E008090044E0220F375F0809004670220F32F
:10174E0075F0809004660220F375F08090046502B7
:10175E0020F375F0809004640220F375F0809004FD
:10176E00630220F335F0FA7B0175F00FE53212209B
:10177E00F3E022EF2430FF75F080E5310220F3759F
:10178E00F080EE0220F390080875F00FE53212207B
:10179E00F3E022F090044775F080EF0220F375F02D
:1017AE0080EE0220F3F090044975F080EF0220F3F2
:1017BE0075F080EE0220F375F080EE0220F3FE75D8
:1017CE00F080EF0220F390080275F00FE532122040
:1017DE00F3E02275F080EE0220F390044575F08060
:1017EE00EF0220F3ED2430FF75F080E5310220F397
:1017FE0075F080EE0220F390080C75F00FE53212B2
:10180E0020F3E02275F080EE0220F3FE75F080EFFB
:10181E000220F390080975F00FE5321220F3E02252
:10182E0075F080EE0220F375F080EE0220F3A3E057
:10183E00FF3395E0FEC3EF9430EE64809480227403
:10184E00102BF58274043AF5832275F080EF022096
:10185E00F390080675F00FE5321220F3E022E47BD8
:10186E003CFAF9F8AF3BAE3AAD39AC38121F227BD9
:10187E0018E4FAF9F8021F22E5329008031220F359
:10188E00E5822536F582E43583F58322AE02AF0379
:10189E007884A60608A60718E6FA08E6FBFF7C0081
:1018AE007D0AAE02021D1375F080EE0220F33AF5AA
:1018BE0083E53CF022900171122079900171022093
:1018CE00557407253CF53C2275F080EF0220F3EEAF
:1018DE00F0ED75F00EA4227BFF7A0079AE7D022228
:1018EE00F0E53175F080A422E53B2FFFE53A3EFE90
:1018FE00E5393DFDE5383C8F3B8E3A8D3922F0744B
:10190E00062BF58274043AF58322F074052BF582CA
:10191E0074043AF5832275F080EE0220F3E5087523
:10192E00F00EA42410F582E43400F583E022E508DD
:10193E0075F00EA42411F582E43400F583E02275CF
:10194E00F00FE5321220F3E022E475F001021D9E45
:10195E00F074022BF58274043AF58322F074032B93
:10196E00F58274043AF58322F074042BF582740424
:10197E003AF58322E53DC4F854F0C868F53DE53EDE
:10198E00C4540F48F53E22900139E0D39408748078
:10199E0094802274012BF58274043AF5832275F03B
:1019AE0080E5310220F3E0D394007480948022E429
:1019BE00FFFEFD7C4690009C122061D3021FCAAF31
:1019CE000F7E00EFC394247480948022E47B0AFA85
:1019DE00F9F8122055121F22EB2430FF229000F846
:1019EE00E0FF640122C4540F2430FF227D907C5FFF
:1019FE007F75223AF5837420F02290013AE0D39459
:101A0E00037480948022A3F0A37430F0A3222400E8
:101A1E00F9740435F0FA7B017D807C0022D2B4C2C9
:101A2E00877D407C067F0122540F2430F53C740ED6
:101A3E002BF582740422540F2430F53C740D2BF5D3
:101A4E0082740422E4F557755811755911F55BF53A
:101A5E005C2290017BE075F080A422940474809443
:101A6E008022241AF582E43400F583EEF00F2290E2
:101A7E00016EE0FEA3E0FFC3227427253CF53C2255
:101A8E0074BB2DF582E43400F583E0FC22E50DF005
:101A9E00A3E50EF0A3E50FF02290024DE0FF75F0E6
:101AAE0010021C32AF09EF3395E0FE22ECC4F8545D
:101ABE00F0C8EDC4540F4822E0F50DA3E0F50EA3D7
:101ACE00E0F50F227884A60608A60722C394587460
:101ADE0080948022240FF582E43400F583E02224E2
:101AEE0012F582E43400F583E02275F080EF0220D7
:101AFE00F3246FF9740435F0FA7B01229406748096
:101B0E00948022E47882F608F62290011E7404F086
:101B1E0022121E7C90017102207975F00FE53212AF
:0E1B2E0020F3E0229000A1E4F0A37419F0224D
:10343600C223C23B9000A37401F07F0712D7FB534F
:10344600D9BF75C990E4F5FF12000312CB77129F1E
:10345600F5E4F5FEC200C204C20290013CE0FF3072
:10346600E004D2028002C202EF30E10AD2009001EB
:10347600267444F08002C200EF30E20AD2049001C2
:10348600267448F08002C2043004057F0112BF5F33
:103496003000057F0512BF5F3002057F0312BF5F54
:1034A6007A00798E12390A129EF67BFF7A00799D90
:1034B6007D0212A1F353C77F9000861219B44021F2
:1034C600301B1E20151BE47F607E09FDFC900292D6
:1034D600122061C3121FCA5008D295900086E014CC
:1034E600F0300805301B02D295E4F5FE12B643E52E
:1034F6005D121ADA500C201509204106E50A6420EF
:103506007005C22A12283BE4F5FE2009030235A302
:10351600C215FF12C462AD08E4FF12B2C0900445A2
:103526007466F0A3F0A3F0A3F0A3F0A3F07B017AF6
:1035360004793A9001827406F07F007E007D007C5B
:103546000012D19330095FC290200802C295D2A41E
:10355600301F03127C38E5C930E63D127550E4F59C
:10356600FE301DE0FF12C17D30111E90044574200F
:10357600F090044BF0AD08E4FF12B2C07B017A0470
:1035860079007D807C00126DD7C21DE50A541F703C
:10359600B3C228127F9380AC12CBCF80A7E4F5FE8E
:1035A60043870185878730170343EF1012000330E6
:1035B6001F03127C38E4F5FE200C03023689E50B66
:1035C60060030236899000B8121958900007E0048B
:1035D600F07A00799F12390A1218E512A1F3200E2B
:1035E600712022141219EB600FEF6403600AEF6476
:1035F600026005740AF0D243D222AF0CEF64016078
:1036060019EF64056014EF6409600FEF6413600A34
:10361600EF64176005EF642170057F0712392330C8
:10362600223020152DAF0CEF64016019EF640560A0
:1036360014EF6409600FEF6413600AEF6417600506
:10364600EF642170081238FAC22A12283B7F05124D
:10365600DB7430041312391AD22612D70C301B0829
:103666001247B9C22C12D88E7F0512DB74E50C7096
:103676000B30000812391AD22612D70CC20CE4906D
:103686000087F0302254301D5120434EAF0AEF64BC
:10369600036019EF64136014EF6423600FEF645343
:1036A600600AEF64336005EF6443702E301009A2A0
:1036B60010922412D79B800CC22412D79B7A0079D1
:1036C600B512391290013BE50BF0C20390015F740D
:1036D60063F0C22A12283B12D961201D030237BDAE
:1036E600300E04C21AD215E50A12214637340037C5
:1036F6003C15373430373C45370E48372253372789
:1037060056372C57000037563043451219EB6019CF
:10371600EF64026014EF64037036800D304331802D
:1037260008301A2C8003301A27122E508022E50BFF
:1037360064597002D296D3E508121B0A4005E4F5D7
:103746000880020508201108204305C228127F932D
:103756009000A41219B44003E014F012A2EDD22294
:10376600204312201A0FE50A75F00584E5F070056E
:103776007F07123923301525C21AE50A540F700D3A
:103786001278CDE4F5FE7A0079B6123912D2952078
:103796001B1B200118B2A4A2A492908010D2222052
:1037A6001B0B200108B2A4A2A492959290200105B9
:1037B600E4FF12D28AC21D201B09200E06204303F5
:1037C60002384930134C201B0330010D300804D257
:1037D600958004A2909295C2A43046672015649005
:1037E6000087E0C394057480948050577BFF7A006D
:1037F60079D47D0512A1F3D222C22A12283B12DB0C
:103806009B7F011239237F07123923C22C12D88ECF
:10381600803120430F30150C201B03300125C29048
:10382600D295801F201B06300109200806A243926C
:10383600A49295121A08400B201508200905D222D9
:103846001238FA304305C22A12283B3043030235A8
:10385600B512A6A9500B9000A4E07005C22A122842
:103866003B201B030234BE1219BD50030234BE7B3B
:10387600FF7A0079F87D0512A1F3C22A12283B12BD
:103886007C389000A3E0C3942174809480502F125A
:1038960019BD402AD22612D70C9000A3E004F07B73
:1038A600FF7A017908E4FD12A1F39000A3E0FFE49A
:1038B600FCFDFE9002511238E51247B980C47BFF29
:1038C6007A017922E4FD12A1F390009C1220559012
:0F38D6000251740B1238E5C22C12D88E0234BE88
:1038E500F01281397D0112A1F37BFF7A01791B7DED
:1038F5000212A1F322C22A12283B7F011239237F2B
:1039050007123923227BFFE4FD12A1F3227BFF7D01
:0E3915000512A1F322C22A12283B127C38228E
:10D7FB0090000BE0A3F090000AE0A3F0900009E08A
:0ED80B00A3F0900008E0A3F0900008EFF022D8
:10C17D00E50E540F2430FE900427121444EEF0E522
:10C18D000E90042612144BEEF0E50D540F2430FEE4
:10C19D0090042A121498EEF0E50D90042912144B18
:10C1AD00EEF0E50F90042F1214B9EEF0E50F9004A8
:10C1BD002E12149FEEF0E50C9004321214B9EEF02D
:10C1CD00E50C90043112149FEEF0E50B900435123E
:10C1DD0014C5EEF0E50B9004341214ACEEF0E50A44
:10C1ED009004381214C5EEF0E50A9004371214AC21
:03C1FD00EEF0223F
:10CE0900ED14601114602C1460352403703C121564
:10CE19004E745B801712154E745BF0900401121565
:10CE290051745BF090047E121682745D12167E7442
:10CE39005DF02212154E742012167E7420F0221213
:0BCE4900154E740A12167E740DF022C4
:05C4620090017BEFF0EA
:10C46700A3F090017CE0FFC3121A69505B7D0312B1
:10C47700CE0990017CE0900439121445742EF0E443
:10C48700F53CF53D741F253DF5827401353CF58378
:10C49700E0FF90017CE0900401121452E582253DF3
:10C4A700F582E583353CF583EFF0053DE53D700208
:10C4B700053C6419453C70CC90017CE0FF1282C0BA
:0EC4C70090017CE004F0809A90017BE0F51378
:01C4D5002244
:10CC7A0090042412168D742CF090042512169874C0
:10CC8A0020F0900428121709742FF090042B121721
:10CC9A00A5742FF09004301217B77420F090043363
:10CCAA001217EB743AF0900436121858743AF0904E
:10CCBA00042C1218587432F090042D1218D67430BD
:02CCCA00F02256
:0282C000AE0707
:1082C20090041A12178D742CF0E4F53EF53F74A653
:1082D200253FF5827400353EF583E0FF90041B12C2
:1082E200178DE582253FF582E583353EF583EFF074
:1082F200053FE53F7002053E6409453E70D0AF067A
:1083020012CC7AEE121710742CF09004411217ACB2
:108312007420F0EE1217197447F0EE1216CE74376D
:10832200F0EE1214E87432F090044B1217AC742C75
:10833200F090044C1217BE7420F09004721217BE13
:108342007420F09004751217C5742FF09004761201
:1083520017C57433F09004771217E17431F090046A
:10836200781217E1742CF0EE1216A97420F0900422
:108372006D1217FE742CF0EE1216FD7420F0EE1240
:1083820016B4742CF090047E1217FE7420F0900440
:108392004D1218127420F0900451121812742CF01D
:1083A20090045212182E7420F0EE12172A7441F023
:1083B200EE121733742FF0EE12173C744EF0900445
:1083C2005512182E742EF0900458121835742CF091
:1083D2009004591218357420F090045A1218B5748A
:1083E20020F090045D1218B5742EF09004601219FA
:1083F20024742CF0EE1215247420F0EE121745743A
:1084020020F0EE12174E7420F0EE1217577441F05E
:10841200EE121760742FF0EE121769744EF090048A
:10842200621219247420F075F080EE900468122014
:0D843200F3742CF09004691218D67420F039
:01843F00221A
:107C3800C235D236754E01850A50850F51850B4FD6
:107C4800850D52850E53303675AF4E054EEF606E7A
:107C580012D4B18F10AF0DEF6055D3943174809466
:107C680080504CAF0EEF6047941274809480503F60
:107C7800E50F1219D24038AF0CD3EF9423748094D7
:107C880080502CEF700CE50C65116006E51164233B
:107C9800701DAF0B7E00D3EF945974809480500F01
:107CA800EF7017E50B654F6011E54F6459600BD213
:107CB800367F0F7E0012002E808CC2368088E50C3D
:107CC8006511601D121B11D235850C112022127B03
:107CD800FF7A00798EFD12A1F3129EF67D02127DC5
:107CE800E1E50B654F7003027DBCD203D2359001EC
:107CF80039E004F0E50C64237008E50B6456700263
:107D0800D243AF0B7E00EF64296008EF645960032B
:107D1800027D9EEF64594E7002D20C201A78D21A56
:107D2800200A197D05127DE1127C387BFF7A0079E3
:107D38008EE4FD12A1F3129EF612B209900157E0EB
:107D48006430701EA3E0B4351990015AE0B43112C2
:107D5800A3E0B4300D7BFF7A01792D7D0512A1F3E4
:107D680080349000A4E0702E302212300A287BFF65
:107D78007A01793FFD12A1F312D6238019300A1037
:107D88007BFF7A01795C7D0512A1F312B209C21A50
:107D98009000A47478F0E50B540FF54F7016121983
:107DA800954011304202E4F0202107C242E49001DC
:107DB80039F0D221E50A65506002D21DE551650F00
:107DC8006002D235E552650D6002D235E553650E85
:087DD8006002D235C21FA23582
:0B7DE000227BFF7A00799D12A1F322A4
:0BDBB3009000B2E50CF0A3121A9B22B8
:10D62300127C38129EF63022117BFF300D067A01F0
:10D6330079A1800C7A0179C780067BFF7A0179E5AD
:08D643007D0212A1F302B209FD
:109EF600E50E1219F390024DF0BF30047F20800565
:109F060090024DE0FF12D6C0E50E129FDA7F2F12A7
:109F1600D6C0E50D129FC6E50D129FDA7F2F12D629
:109F2600C0E50F129FC6E50F129FE37F2012D6C031
:109F3600E50C1219F390024DF0BF30047F20800526
:109F460090024DE0FF12D6C0E50C129FE37F3A1255
:109F5600D6C0E50B129FD0E50B129FEC7F3A12D6C6
:109F6600C0E50A129FD0E50A129FEC7F2012D6C0E8
:109F76007F2012D6C0900006E090024DF03395E0A7
:109F8600C364809480501A7F2D12D6C0900006E0DC
:109F9600FF3395E0FE7CFF7DFF121D0190024DEF21
:109FA600F0121AA72430FF12D6C0121AA7AFF0EF8C
:109FB6002430FF12D6C07F7A12D6C0E4FF02D6C084
:109FC600C4540F2430FF12D6C022C4540F2430FFCD
:109FD60012D6C022540F2430FF12D6C022540F24AA
:0F9FE60030FF12D6C022540F2430FF12D6C022F3
:10B209007BFF7A0179FBE4FD12A1F3E50875F00EE5
:10B21900A4121AE2FF12D6C012192BFF12D6C07F50
:10B229002E12D6C012193CFF12D6C0E50875F00ED1
:10B23900A4121AEDFF12D6C07A02791012B2B878A8
:10B2490082E6FE08E6FFE4FCFD9002517407F01265
:10B2590081397D0112A1F37A02792D12B2B89002D7
:10B2690092122055900251740CF01281397D01120D
:10B27900A1F3301934D37883E6940018E69400409A
:10B28900289000BAE004F07BFF7A0279467D01122A
:10B29900A1F39000BAE0D3121B0A400D7BFF7A029A
:0FB2A90079537D0112A1F3D2081218E502A1F327
:08B2B8007BFF7D0112A1F322CE
:10CB770075F1BF75F2FF75F3FF75F47E75F5FF75F7
:10CB8700A41D75A5E775A61975A77A75AE8075D426
:10CB9700C875D5FF75D61975DFFF75E10775E240D2
:10CBA70075E301C23CD2A075C70312D7557BFF7A44
:10CBB700027965E4FD12A1F37BFF7A0279907D0289
:08CBC70012A1F3D296D2B422B0
:05626E00900170EFF04B
:10627300C226D296D22212DB9B752C05D2257A0236
:1062830079B8126490201B097A0279F01264908025
:1062930006D290D295D2A47A0379131264A6A209E6
:1062A3009227C20912DC04D290C2A4200802C2952C
:1062B300E52C603BD2229000BB7424F07F07123997
:1062C30023152C7DE47CA27F1912D47F1219CD40B3
:1062D3000AD3EF94447480948040D57A03794912A9
:1062E30064A69000BB7424F0D2221264D480C1123D
:1062F30019CD400AD3EF94447480948040147A03F8
:10630300795B1264AED290D295D2A4D20DD226126A
:1063130064D4D246A227920912D92F300D14D22267
:10632300E4FF1239237A03798F1264AED226D20D99
:1063330080107A0379D91264C430090612643F12BB
:10634300643FD246304626300D23300D127F0112B2
:10635300392330090612645A12645AD24380E57F06
:10636300071239237A0479621264C480D712DB9B43
:10637300C22A12283BD290D2A4200802C295300D23
:106383000E3009061264751264757F0312392320D7
:1063930091047F0680027F0512DB747A0479AA12C6
:1063A30064CCD290D2A4D29512D948D228127F932A
:1063B30012B209A20D9290C2A4200802C295C29003
:1063C300C2A4200802C29530094C7A0479C8126429
:1063D300CC12D94812DB9B7BFF302615126498122E
:1063E30064987A0479EF1264E07BFF7A0479EF8092
:1063F300131264B61264B67A0579101264E07BFF57
:106403007A0579107D207C00126DD7C290D2A4202A
:106413000827C295802390029212209E000000005C
:10642300121B117BFF7A0579317D0512A1F37BFFE6
:0B6433007A0579447D0512A1F3D21711
:10643E00227BFF7A0479207D207C00126DD77BFFB2
:10644E007A0479207D207C00126DD7227BFF7A049E
:10645E0079417D207C00126DD77BFF7A0479417DD6
:10646E00207C00126DD7227BFF7A0479897D207CF7
:10647E0000126DD77BFF7A0479897D207C00126D26
:10648E00D7227BFF7D0512A1F3227A0479EF7D20BE
:10649E007C00126DD77BFF227BFF7D0512A1F322BC
:1064AE007BFF7D0512A1F3227A0579107D207C00F9
:1064BE00126DD77BFF227BFF7D0512A1F3227BFF9E
:1064CE007D0512A1F3227F09123923127C38129E08
:0A64DE00F6227D207C00126DD7220B
:107F9300E4F52DF52E90011EE014F0301B04D2A45D
:107FA300C2909000A1E0FEA3E0FFD39405EE9400FD
:107FB300400C9000A174FFF5F0121D9E800CEF643D
:107FC300054E700620150343EF10201506201B03F2
:107FD300302802D22912ACAA75F43E20B22A9001AD
:107FE30056E0FF14F0C3EF9401748094805019900D
:107FF30000B6121957D2B112D5479001567404F046
:10800300121A2F12D47FC2B1E4F508C283301B07C2
:10801300200804A21E9295128125D283301B1F20B3
:108023000802C29512812F200804A21E9295128184
:1080330025200802C29512812F200802C295C21E74
:108043007DE47CA27F0F12D47F128DBA301B0720F0
:108053000804A21E92957F01EFC312199A500912C8
:108063001558121A7002805B201305301B02C2954B
:10807300750807201502D2B3201509201B062028F6
:1080830003028108303D03202968304204C2218065
:108093003E30213B20423812199540337BFF7A054D
:1080A3007979E4FD12A1F3129EF67BFF7A057992AA
:1080B3007D0212A1F3E4FF1299B612DBB39000B272
:1080C300E0FF12DAC58F12D206D212D229C2219052
:1080D300011EE0FF7E00C394017480948040103041
:1080E3002802800BD3EF9404EE6480948040031243
:1080F3001B18202909301503304203302807A22812
:10810300922A12283B30150D12DB9BC22A12978448
:10811300C22C12D88EC28CE4F5FE301B02C2A4021C
:02812300004614
:108125007DE47CA27F0F12D47F227DE47CA27F0AAE
:0481350012D47F22BF
:10D1930090017B122131802F9001821219B4402F0C
:10D1A300E014F090017E1219DA90017B12211190A4
:10D1B3000182E0F582758300EF121CDF90017E127D
:10D1C30020557B0A12187F90017E12207980C92294
:106FC700D226127C38E490016DF09000EFF0F5576F
:106FD700F558F55990016EF0A3F0121A7D9434EE2E
:106FE7009400501474BB2FF58274003EF583E4F0CF
:106FF70090016E12195880E29000FB742FF09000F8
:10700700FEF09001037420F0900106743AF09001AD
:1070170009F012A4D790015712183D401212183CDC
:10702700400D90015A12183D400512183C5047C2B6
:107037000F7BFF7A0579958029200F2D121A2B12C5
:10704700D47FD287C2B4E4F5FED2B4C22C12D88E54
:107057001271921271921219FA12D47F7BFF7A057C
:1070670079CA7D0512A1F380D07BFF7A0579F37D7C
:107077000512A1F38002D20FE490016EF0A3F01283
:107087001A7D9405EE9400502A74802FF5827400BF
:107097003EF583E0FF3395E0FED3EF9439EE64804D
:1070A700948050051218435002C22690016E12199F
:1070B7005780CC9000A9E0642C6002C22620265E8F
:1070C7009000807430F07439121A14F0A3F0E49031
:1070D70000A5F090015EF0900006F090013CF09062
:1070E70001577420F0A37430F0742E121A1404F0B0
:1070F7009000A67448F0A37432F0A3744FF0A37401
:107107002CF0A37446F0A37452F0A3742C121A1532
:10711700F0D220744090013CF012AA238021C210C3
:10712700C20AC22090013CE0FF30E402D210EF30E7
:10713700E502D20AEF30E602D220E49000A5F01271
:10714700A5C690011F7453F0A314F0900080E0903F
:107157000121F0900081E0900122F0900082E09000
:107167000123F0900083E0900124F0900084E090E8
:107177000125F0A3745FF0121B1812DBB3D228129B
:0A7187007F9312DC2512A5C6C23A60
:10719100227D907C5F7F7512D47F7D907C5F7F75AF
:0471A10012D47F2263
:10B6430030930302B6D0301B0302B6E79000A4E0A8
:10B65300600302B6E7C20CF5FEC208200802C295D9
:10B66300C2A4C2907A0579FE12B6E87A06792C1242
:10B67300B6E89000A0E0601EC22A12283B127C3874
:10B683007BFF7A067936E4FD12A1F3129EF61218B7
:10B69300E512A1F3800C1219FA12D47F1219FA12CF
:10B6A300D47FE4FF123923300D057F0212392312B0
:10B6B30047B9200E02D243C22A12283BC22C12D809
:10B6C3008E9000F8E0640A701B740BF022301B109C
:10B6D3007BFF7A0679467D0512A1F3D22602D70CA9
:0DB6E300D296D222227BFF7D0512A1F32218
:10D28A00E5C930E61C200E0ED20EC222EF3395E01D
:10D29A004F702712B8E93096057F0612DB740275C3
:10D2AA0050300E07C20E12D576D222E4F5A9F5B98E
:0BD2BA00C215301B05200802C295229F
:045FDF00AB07AA065C
:105FE300E5571219F31219A1EFF0E557540F2430B6
:105FF300FF12195FEFF0E5581219F312196BEFF066
:10600300E558540F2430FF121977EFF0E5591219B0
:10601300F3121919EFF0E559540F2430FF12190D3B
:10602300EFF030051F1219A1743012195E7430128B
:10603300196A7430121976743012191874531219BC
:106043000C744CF020225690007DE0F53DA3E0F562
:106053003EE53E1216EF4003121A8774042BF582B5
:1060630074041216D74003121A8774032BF5827433
:10607300041216D74003121A8774022BF582740494
:106083001216D74003121A8774012BF58274041277
:1060930018BC121919744712190C7444F030071FF5
:1060A3001219A1744C12195E744F12196A745712A3
:1060B30019767442121918744112190C7454F0743D
:1060C300072BF5827404121A01855B3D855C3E78CB
:1060D30084E6F53D08E61216ED40031218CF740B63
:1060E3002BF58274041216D740031218CF740A2BAF
:1060F300F58274041216D740031218CF74092BF5D6
:106103008274041216D740031218CF74082BF58239
:1061130074041218BC740C2BF5827404121A012037
:106123002216753D0085103EE53E121A361218BC44
:10613300121982121A448010900160E0FFC4121AEF
:10614300441218BCEF121A361218BC740F2BF582C6
:106153007404121A012D601024F060142470701856
:1061630012184D7430F0801612184D7479F0800EA9
:1061730012184D7463F0800612184D7478F0121AD9
:10618300B2EF640F4E700812184D7446F08026EF7C
:10619300640A4E700812184D7441F08018121AB236
:1061A300D3EF9400EE64809480400AE5092430FF25
:1061B30012184DEFF07886E6FC08E6FDEC1216EFB8
:1061C30040031218CF74112BF58274041218BC12F9
:1061D3001ABA1216EF40031218CF74122BF58274F9
:1061E300041218BC7887E61216EF40031218CF7416
:1061F300132BF58274041218BC74142BF5827404E7
:10620300121A017879E6FC08E6FDEC1216EF40035A
:106213001218CF74152BF58274041218BC121ABA13
:106223001216EF40031218CF74162BF58274041262
:1062330018BC121982787AE61216EF40031218CFAF
:1062430074172BF58274041218BC74182BF582741E
:1062530004121A01900088E01216EF40031218CFBF
:0A62630074192BF58274041218BCA4
:01626D00220E
:0BD47F00900171EFF0A3ECF0A3EDF0C2
:10D48A00E4A3F0900171E0FF900174E0C39F50168D
:10D49A00E4F5FE900172E0FEA3E0FF12002E900177
:06D4AA0074E004F080DDD7
:01D4B0002259
:10CBCF00C211C209C215C2A4200802C295E4900086
:10CBDF00A1F0A3F0C22A12283B7A06796712CC1D66
:10CBEF007D02E4FF12CE09304310D22612D70C7A01
:10CBFF0006798912CC1D43EF1022201B107BFF7A80
:10CC0F000679D47D0512A1F3C22C12D88E227BFF98
:06CC1F007D0512A1F322C5
:10B8E900900161740CF0A37403F0E4900164F0908A
:10B8F9000166F0900168F090016AF0900080E09094
:10B909000163F0900081E0900165F0900082E09081
:10B919000167F0900083E0900169F0900084E09065
:10B92900016BF0E4A3F012CF31900B53E493FE7452
:10B939000193FF900B55E493FC740193FD7BFF7A0F
:10B949000B798D9001751221317B017A0179619012
:10B959000178122131900BABE49390017BF0900BAD
:10B96900ACE49390017CF0900BADE493FB740193EC
:10B9790090017DCBF0A3EBF07BFF7A0B7957129204
:04B98900BC02D92FF4
:0890410090017BEFF0A3EDF0BC
:10904900E4A3F0A3F090017D121A809406EE940037
:10905900501F90017BE090043A121499E5822FF594
:1090690082E5833EF5837420F090017D12195780C3
:10907900D490017BE0FF9004391214A67420F0907B
:10908900017CE0FD7C0064016008ED64036003027B
:109099009120ED64034C7063121674742EF09001E4
:1090A9007DE4F0A37406F09000F01219DA90017DC6
:1090B900E0FCA3E0FD90017BE09004391214B3E5D4
:1090C900822DF582E5833CF583EFF09000F01220C4
:1090D90055E47B0A1218809000F012207990017DE6
:1090E90074FFF5F0121D9E90017DE07002A3E070FF
:1090F900B69000F012209E0000000090017BE0FF76
:109109009004421214BF744FF0EF1216CE746C1211
:1091190014E67464F0804B90017CE0FF7E006402E9
:10912900702490017BE0FD9004421214CB744EF040
:1091390075F080ED1216D17465F075F080ED12149A
:10914900EB7477F0801CEF64044E600890017CE0BA
:109159006405700E90017BE0FF75F0801214D174E4
:1091690053F090017BE0FF75F080121458746B1274
:0591790013BE7430F08C
:01917E0022CE
:10CF7800E4FEEEC3121B0A501290043A121AF8E5A6
:10CF8800822E1218927420F00E80E7121674742004
:10CF9800F01217E8746612168974661217A174667F
:10CFA80012169474661217B3746612149474661287
:05CFB80013BE7430F00F
:01CFBD002251
:028C7400A90550
:108C7600C22C75F080EF1214D17453F0E4FEEEC3EB
:108C8600941974809480500F121706E5822E1218DC
:108C9600927420F00E80E77D0FE4FEEEC394187404
:108CA6008094805034121A8E642C600D121706E5DB
:108CB600822E121892ECF0801CEDFB64196005EB15
:108CC600642770110D121A8E121706E5822E1218DD
:108CD60092ECF0D22C0D0E80C2E96404700B75F094
:108CE60080EF121458746BF0221217E874201216D3
:108CF6008974461217A1746912169474781217B300
:108D060074201214947420F09000C3E09004321280
:108D160014F5EEF09000C2E0900431121501EEF069
:108D26009000C5E090043512150DEEF09000C4E0F9
:108D3600900434121531EEF09000C7E0900438121A
:108D4600153DEEF09000C6E0FEEF121545EEF03050
:108D56002C2D9000E81214F1EEF09000E71214FDAD
:108D6600EEF09000E6121509EEF09000E512152DD2
:108D7600EEF09000EA121539EEF09000E9802B90A3
:108D860000E61214F1EEF09000E51214FDEEF090FC
:108D960000E4121509EEF09000E312152DEEF090A6
:108DA60000E8121539EEF09000E7E090042E121656
:038DB6009FEEF03D
:018DB9002297
:10B2C000EF12172A7441F0EF121733742FF0EF12B8
:10B2D000173C744E1218DE2416F582E43400F58310
:10B2E000E090045F12169F1218DD2415F582E434F5
:10B2F00000F583E090045E1217221218DD2414F585
:10B3000082E43400F583E090045C1217221218DD09
:10B310002413F582E43400F583E090045B1217CC2B
:10B320001218DD121AED9004571217CC1218DD1204
:10B3300019429004561218191218DD12193190048E
:10B34000541218191218DD121AE2FE900453121A40
:10B35000F8EEF0EF1217457420F0EF12174E74203C
:10B36000F0EF1217577441F0EF121760742FF0EFDF
:07B37000121769744EF02270
:102E5000D224D225C290127C389000F8E0FF900076
:102E600088F06401600AEF64026005EF6403700992
:102E70007A07790312342ED243301A0D200A0AC27F
:102E80001AE49000A4F0C24322301A09204306201D
:102E900022033001069000A4E06003C21A2230220F
:102EA00012121A08400D20430A7A07791E12342E96
:102EB000022F37301A1220010F7BFF7A0779C17D6C
:102EC0000512A1F3C21A802C30431E900087E0D374
:102ED000121A694006200103C24322900087E004D1
:102EE000F07BFF7A0779F680067BFF7A0879157DFB
:102EF0000512A1F39000A47478F030963F30223C84
:102F0000301B02D29012C628EF3395E0C364809440
:102F100080502EC225900007E0C394767480948080
:102F2000501F20011C127C387A0879371233BE12E8
:102F30009EF6123410C243C21AD205227F0512DB5C
:102F400074304318E50A6453600AC22A12283B12FF
:102F50007C3880F07BFF7A087961800F9000F874EC
:102F60000AF0127C387BFF7A087989E4FD12A1F31C
:102F700012D9A953A8FE201B03300106D295B2A492
:102F8000C29012192BFF9000F8F012193CFE90002D
:102F9000F8F064026003023055EFC39433748094F8
:102FA00080500BEE9438748094805002D20743F125
:102FB0004043A440C2861233B41233B453A4BF5367
:102FC000F1BFE4F52AC3E52A941474809480501468
:102FD000301B02B2A41233C6301B02B2A41233C695
:102FE000052A80E19000887402F0E4FF1299B6E4AB
:102FF000FF1299B6E4FF1299B612DB9BC22A12287F
:103000003B201B03300107200802C295B2A41233F3
:10301000FE301B02B2A41233FE301B02B2A47BFFAF
:103020007A0879A77D0212A1F33007099000F8749D
:1030300008F0D24322D22612D70C43EF10C22C1232
:10304000D88E126FC79000F87408F0D2437D467C8A
:1030500000E402332F129EF612338830432512DB30
:103060009B201B03300102B2A4121A2B12D47FD270
:1030700087127C381233D87A0879C21233BE1233E1
:10308000EAD21C301B04D295B2A4E4F52AAF0AEFB1
:1030900070030231D7302222300D1F30961C645845
:1030A0006018301B02C29020A5FD12341C1233346C
:1030B000201B03300118D2908014201B0330010222
:1030C000C290E50A6458600312341C123334E52AB6
:1030D0005401700D300D0343C780301B0FD2A48004
:1030E0000B300D0353C77F301B02C2A4E50A64589E
:1030F000709BC22A12283B12DB9B3096463022433B
:10310000300D40D290D2A4200802C295C20530A54D
:10311000FD127C38E50A121ADA500B7A0879C512CA
:1031200033D0D205801D123388123356121A522022
:10313000A5FD1233D8C2B47A0879FB1233D020A58A
:103140001880FBC20DC2902094FDC2B47A097900A8
:103150001233E2121A523094FDD2B47A0979051270
:1031600033E2D23AD20BB2A4D295127C38E50A648B
:10317000586087123356E50A645970167D907C5F5B
:103180007F0A12D47F127C381233EA7A00799D12BA
:103190003408AF0AEF6401600FEF6402600AEF6465
:1031A000036005EF6404700AC22C12D88E75090FF3
:1031B0008025AF0A7E00D3EF121A69500302308DCA
:1031C000EF121ADB400302308DC22C12D88E7A091E
:1031D0007909123408D205E4F5FE201B03300104FE
:1031E000D295D2A47D907C5F7F0E12D47FE4F50946
:1031F000127C38C22A12283B303A29AF0C12DAC5A9
:103200007E007C007DF0121D01787BA60608A607D3
:10321000AF0B12DAC5EF75F004A4AEF0787C26F699
:1032200018EE36F630433B20050B7BFF7A09791DFB
:10323000E4FD12A1F3303A277A09792D12339478FC
:103240007BE6FE08E6FF7879A60608A6077A0979E4
:10325000461233947A09794A123426C20BC23AE4F0
:10326000F514129EF6200502C243C21AE490013AF8
:10327000F030224BD2909000B8F0A3F0E55C455BB3
:1032800060277A09794F123426AE5BAF5CE4FCFD0F
:103290009002517406F01281397D0112A1F37BFF77
:1032A0007A09795F7D0112A1F3D246E50A640170C3
:1032B0000E7BFF7A0979627D0112A1F375090E90E8
:1032C00000F8E0FF6405600DEF64036008EF64013F
:1032D0006003740AF0123410300107C20112DB2AB5
:1032E000800312DC0CC22C12D88E752A01123375A1
:1032F000303D17AF2A052AD3EF1219B6400CC22A67
:1033000012283B123375B2A480E612DBB320080208
:10331000C295C2A4C2907BFF7A0079B57D0312A149
:10332000F3C290E4900007F09000A4F07D46FCFF0B
:0333300012DA7C32
:1033330022127C387BFF7A00799D7D0112A1F3AFC5
:103343000AE4FCFDFE90025104F01281397D011262
:10335300A1F322AF0AE4FCFDFE90025104F01281B6
:10336300397D0112A1F37BFF7A00799D7D0112A1C2
:10337300F3227D907C5F7F0E12D47F7D907C5F7FF4
:103383000E12D47F227BFF7A00799D7D0112A1F377
:10339300227BFF7D0112A1F37879E6FE08E6FFE4C4
:1033A300FCFD9002517406F01281397D0112A1F3E4
:1033B300227D907C5F7F7512D47F227BFF7D01127B
:1033C300A1F3227D907C5F7F7512D47F227BFF7DEA
:1033D3000112A1F3227D907C5F7F0E12D47F227BAA
:1033E300FF7D0112A1F322AF0AE4FCFDFE9002511E
:1033F30004F01281397D0112A1F3227D907C5F7F5D
:103403007512D47F227BFF7D0112A1F3227BFF7A09
:103413000079B57D0212A1F3227D907C5F7F0F12AC
:10342300D47F227BFF7D0112A1F3227BFF7D051256
:03343300A1F322E0
:10D79B00C22A12283B30240812DB9B7F0712392345
:10D7AB00C22A12283B9000A4E07005C22C12D88E1E
:01D7BB00224B
:10283B00E4F5FEE55D7003022E359000F8E0FF64D1
:10284B0004600AEF64036005EF6401700630430314
:10285B0002D948301B03309309200E06202A0302AD
:10286B002E2E12DB9B9000B2E0900177F09000B31C
:10287B00E0900178F09000B4E0900179F09000B511
:10288B00E090017AF0300607C2167535F08019908A
:10289B00080EE0F535D216900177E0700B12D4B12B
:1028AB008F10900178121A9B900178E0700B7BFFD0
:1028BB007A0979677D0512A1F3900177E0F50CA3F6
:1028CB00121AC6851331301B0920930612D97A12BE
:1028DB00DC19E4F532E532C3955D4003022E19AFE6
:1028EB001312C462C3E531121A694003022DD9E4F5
:1028FB00F5FEC206900800121797C4F854F0C8688A
:10290B007986F7A3E0C4540F4809F7900801121712
:10291B00D7FF640E6005EF640F7004D206D21690D9
:10292B00080D121808540FF533C22B300603022B77
:10293B00E1E4F536753703753703C3E5379409744E
:10294B008094805042E537540175F00F700C1218CB
:10295B0086E0540FF53405368009121886E0C4540E
:10296B000FF53474302534F5341216F54006740720
:10297B002534F534E531121719E5822537121892F3
:10298B00E534F0053780B31217D4C413135403F591
:10299B003614600F14601114601324037012753712
:1029AB00EE800D7537EF80087537F080037537F1C2
:1029BB001218EF121AFFAF37E4FCFDFE9001827480
:1029CB0003F012D1931217D4543FF53490047412C0
:1029DB0016BDEFF0E53475F00A84F53490047312EC
:1029EB0016BDEF1218EE246AF9740490080812173A
:1029FB0072122E361218EF247AF9740490080C1206
:102A0B001772122E36121805D3946474809480407A
:102A1B000BC219E49000BAF0C2088002D219121846
:102A2B0021FFE4FCFDFEFBFA7901F8121E97121848
:102A3B00C3C006C00790080A1218247B00FAE4F9F9
:102A4B00F8D007D006121B1F90017112206190085D
:102A5B000B121862FFE4FCFDFE121B1F301C0EC292
:102A6B0016753580122E459000B3121AC6121AB283
:102A7B00EF640E4E7005751401800EEF64014E70FD
:102A8B00057514FF8003E4F51412185FFEA3E0FF35
:102A9B0090007DEEF0A3EFF07879E6FC08E6FDEF11
:102AAB002DFFEE3CFEE48F3B8E3AF539F538AD3910
:102ABB00AC387B0FFAF9F8121E971219058C38AF48
:102ACB0014EF3395E0FEFDFC1218F6F5387B407AD7
:102ADB0042790F78001218C9121F221218F6F53816
:102AEB00E47B3CFAF9F8AC38121F22AF038F2F129C
:102AFB0000168F0AAF3BAE3AAD39AC38E47B3C12D3
:102B0B0018801219058C38E47B3C121880AF038FA8
:102B1B00371200168F0B12186CAF038F30E4F5FED3
:102B2B0090080E12194DB5350BE532700CD21612FA
:102B3B002E458005753580C216AF30EF3395E04FCB
:102B4B007036D3E5306480F8E512648098402990A4
:102B5B000175E50AF0900177E50CF0900176E50B35
:102B6B00F012D4B18F10900175E0F50A900177E067
:102B7B00F50C900176E0F50B853012AF3012001694
:102B8B008F0C1218EF243AF9740435F0FA7B01C05C
:102B9B0003C002C0017B407A42790F78001218C93A
:102BAB00121F22AC00AD01AE02AF0390018274067E
:102BBB00F0D001D002D00312D1931218C9E47B10CC
:102BCB007A27F9F8121F221218C3E4FDFC1218C35E
:102BDB00121AD2022C4C12185FF537F50A90080026
:102BEB0012194DF50B1217D4F50C121821F50D9087
:102BFB00080A121B28F50E121805F50FAF0A12DA88
:102C0B00C58F2F900801121B28640E700DAF311267
:102C1B00CF789000B2E0F50C8018121794FDAF310D
:102C2B00129041121794FF64056005EF6404700263
:102C3B00D22BC2167535F09000B2E0FF12DAC58FB9
:102C4B0012E4F5FEC21CAF3112C17DAD33AF3112B0
:102C5B00B2C0300603022CF112186C12189A9004B1
:102C6B00321217F2EFF0AF031218AC9004311217B7
:102C7B0081EFF0E47B3CFAF9F8AF3BAE3AAD39ACFF
:102C8B0038121F2212189A9004351217F2EFF07CAB
:102C9B00007D0AAF03AE02121D139004341217818C
:102CAB00EFF01218C97884EEF608EFF67C007D641D
:102CBB00121D13121AD2E52F75F00A121C32AFF047
:102CCB00EF2430FF9004381219ACEFF0E52F75F0BC
:102CDB000A121C322430FFE531121545EFF0E531B5
:102CEB00121675742EF01218C9121AD290042512EE
:102CFB0019AC7420F0E4F5FE300E0330090A302ACB
:102D0B0066E55D146532705FE4FDAF3112CE09E408
:102D1B00F5FE202B1BE532700A1218EFFFAEF07D8B
:102D2B00E080081218EFFFAEF0AD35125FDF8016B2
:102D3B00121794FF64046005EF6405700912179471
:102D4B00FDAF31128C74AF311282C075F080E5315A
:102D5B00121678742E1218EE121A1C126DD77D03F0
:102D6B00AF3112CE09C22A302011A206922CAF31FC
:102D7B00128440E531121710742CF0301B3A20935B
:102D8B0037E4F5FE202B1BE532700A1218EFFFAE6D
:102D9B00F07DE080081218EFFFAEF0AD35125FDF6B
:102DAB008016121794FF64046005EF640570091216
:102DBB001794FDAF31128C7485311305310532E553
:102DCB0032655D60030228EF7531040228EF301B7A
:102DDB0037209334E4F5FEAF130513C3EF121A0D2E
:102DEB00400E7D017F007E0212C762E4F51380184E
:102DFB00E5132401FFE433FEEF7807C333CE33CE64
:102E0B00D8F9FFE4FD12C762E4F5310228E0200691
:102E1B000312DBB3301B0C20930912D97A12DC1985
:0A2E2B0012AFD5C22C12D88EC23DA2
:102E350022FFE4FCFDFE9001827403F012D193227F
:0B2E45009000B2E0FF12DAC58F1222ED
:109FF500D295D2A4D290D219C208E49000BAF0D278
:10A00500961219FA12D47F1219FA12D47FE490002D
:10A01500A4F012D4B18F10850C1112DB9B12D94814
:10A0250012DA19C21BC209C218E4F5FE7F0612DB5B
:10A0350074D24612D339E490013AF0C2A3D283D246
:10A04500B5C20EF5FE12DC0CC2A3D283D2B5D2A4E2
:10A05500C215E4900007F0F5FED2AFD243C2177FD8
:10A065000412BF5F7F0212BF5FD22230930D7BFFC8
:10A075007A0979957D0512A1F3D2437F0112D7FBA9
:10A085009000F87404F0E4F5089000A1F0A3F01234
:10A095006FC712D9A97F01EFC312199A500912157A
:10A0A50058121A7002A09C75080790029212209E01
:10A0B50000000000121B117BFF7A0979AA7D0512A9
:10A0C500A1F3D201E49000EFF090011DF090015F43
:10A0D5007463F0E490016DF090013DF090007FF025
:0EA0E50090013BF0D2A0C290C290C20EF514C2
:01A0F300224A
:0D00460075F1F875F3EF43E28075F5FF22C8
:0584400090017BEFF04C
:108445007BFF7A0979C87D0112A1F3E4900085F0DC
:108455007B017A0079807D0112A1F312858FFF904F
:1084650004401214F7E4F0EF75F080A42426F974A3
:10847500041285809004401215037420F012858F34
:10848500FF90044512150FE090017C121689E090CB
:10849500017DF090017BE0900447121527E09001E3
:1084A5007E121694E090017F1285AA90017C742CAF
:1084B500F090017BE0FF900449121533E090017DB7
:1084C500121494E090017EF0A3742C1285AA9001F9
:1084D5007BE0FF90045912153FE4121515E4F07581
:1084E500F080EF202C17121700E41216A7E41216DD
:1084F500B2742CF075F080EF90047E800390045FD9
:108505001220F3E4F0EF75F080A42453F9740412FB
:10851500858075F080A4245AF9740412859F202C57
:1085250028121A60246AF9740412859F121A6012BF
:108535001AFF7D0112A1F3121A60247AF974043529
:10854500F0FA7B017D0112A1F390017BE0FF90041D
:108555005912154874201215157420F0202C11EFAE
:108565001216FD74201216A774201216B2742CF080
:0B8575007BFF7A0979CF7D0202A1F3A1
:1085800035F0FA7B017D0112A1F390017BE0227BA3
:10859000FF7A0979CC7D0112A1F390017BE02235AD
:1085A000F0FA7B017D0112A1F322F0E4A3F07B013C
:0A85B0007A01797C7D0112A1F3220B
:10A2ED00E4FF12DAA1400302A3CB303E0302A39197
:10A2FD009000A4E0600302A391301509FC12A3CCD9
:10A30D007C0012A3CC20431E1219EB600AEF6402ED
:10A31D006005EF6403700FD243C22C12D88E7BFF01
:10A32D007A0979F5800BC22C12D88E7BFF7A0A79C7
:10A33D0008E4FD12A1F3129EF61218E512A1F32006
:10A34D00436B9000F8E0FF64026005EF6403700E4C
:10A35D009000F87402F07BFF7A0A7926801F900036
:10A36D00F8E06401700B7403F07BFF7A0A793A8090
:10A37D000C9000F87401F07BFF7A0A794E7D05127E
:10A38D00A1F380291219EB600AEF64026005EF64F6
:10A39D0003701A7BFF7A0A7962E4FD12A1F3129E13
:10A3AD00F61218E512A1F39000F8740AF09000A4CB
:10A3BD00E07002C23E7D467C00E4FF12DA7C227B17
:10A3CD00FF7A0979D47D20126DD77BFF7A0979D474
:08A3DD007D207C00126DD722E7
:1075500012CF319000F4E0645B600302770B7BFF95
:107560007A0A7973FD12A1F3E49000F7F07B017AB7
:107570000079F47D0112A1F31218E512A1F3E49051
:1075800000F4F09000BBF09000F5E012214675C8C1
:107590004176064376734476984976A64C76AE4E8D
:1075A00076064F76B35076B85376C75476D955766B
:1075B000D95676E35776EA5876065A75F363765DC0
:1075C0006476CE74000076F97F0612DB74C2227BEB
:1075D000FF7A0A797E7D0512A1F3E4FDFF12B2C0A5
:1075E0001278CDC215200802C295121B3212770CF8
:1075F000027704D21112770CE4FDFF12CE0912CCEF
:107600007AD2A4027704C21AC243C215200802C269
:1076100095C22212D94812DB9B126FC712D4B18FC8
:10762000109000F5E0FF64436004EFB45A12126B4F
:10763000BEC22CE4FF1284407BFF7A0A7991800954
:1076400012AE497BFF7A0A79A17D0512A1F3C2A48B
:10765000D209E4FDFF12CE09D2A40276DE9000BC6E
:10766000E55DF0C22A12283B9000BCE0FF12CE9FDD
:10767000027704D215C228127F93E4FDAF1312CE15
:1076800009E51375F080A4121A1C126DD77D02AFA4
:107690001312CE09C215806CC2091293F3D20912DB
:1076A0001B18D246805ED215C290D295805612D257
:1076B0004E805112C374804CC215200802C295D26C
:1076C00022D243D21A803D12C82ED2178036C21160
:1076D0007D02E4FF12CE09802BD22A129784121B5E
:1076E0003280217F0112626E801A2011033009035B
:1076F00012CBCFD296D222800B7BFF7A0A79B17D52
:107700000512A1F3E49000F5F0A3F02212D948127B
:03771000DB9B22DE
:0300530002D64B87
:10D64B00C0E0C0D075D000C007AFBBEF641E700840
:10D65B0075BB0475BCFC800675BB1E75BCF8C2EDB2
:07D66B00D007D0D0D0E0325F
:03008B0002C54962
:10C54900C0E0C0F0C083C082C0D075D000C000C0B8
:0DC5590001C002C003C004C005C006C00739
:10C5660012DB3AEF30E2317B013009237A0079BBE6
:10C576007D311295259000BBE09000F4F09000BC50
:10C58600E09000F5F09000BDE09000F6F080097AAA
:08C596000079F47D03129525E4
:10C59E00D007D006D005D004D003D002D001D000F1
:0BC5AE00D0D0D082D083D0F0D0E0329B
:10D6E700FDFC121FEEE53F4FFFE53E4EFEE53D4DCB
:10D6F700FDE53C4C8F3F8E3E8D3DF53C229001F37E
:05D70700122055E42290
:06D0CD009001F31220792E
:10D0D300E4F53FF53EF53DF53C12D704FFFEFDECCC
:10D0E3007818121FDB12D6EC12D704FFFEE4FC788B
:10D0F30008121FDB12D6EC12D704FFE4780812D60D
:0BD10300E712D704FE781812D6E7FCF4
:01D10E0022FE
:02DBBE00AD07B1
:08DBC000EEFBEDFAEBAE02FFF3
:01DBC800223A
:10AF15001201100100000040C410000200000100F1
:10AF2500030109022000010100800F09040000024D
:10AF3500080650000705810240000007050202408F
:10AF45000000040309042A03530069006C0069002A
:10AF550063006F006E0020004C00610062006F000E
:10AF65007200610074006F00720069006500730073
:10AF750038034300380030003500310046007800C2
:10AF850078007800200044006500760065006C00BC
:10AF95006F0070006D0065006E00740020004200B7
:10AFA5006F006100720064001C0330003000370040
:10AFB50039003800370036003500340033003200E0
:10AFC50031003000FFAF47FFAF4BFFAF75FFAFADAF
:04003E0001000000BD
:10CC25007596117597409002807401F0E490028624
:10CC3500F0A3F0227A0079407BFF90027502213142
:10CC450075960EE4F597900280E064042290027DCB
:10CC5500E0FF7E00648122900283E06404227596E1
:10CC65001175974822900284E4F0A304F02275968A
:05CC75000E759701227D
:10B5930090027AE07010A3E0700C90027EE07006D7
:10B5A300A3E06402600312D854900278E0247F6021
:10B5B300131460292402707790027CE07015A3E0D5
:10B5C3006013806B12CC5C700A90027CE07004A361
:10B5D300E06002805A7BFF7A007940804212CC5CA3
:10B5E300700690027CE06002804512CC5270169087
:10B5F3000281E064037BFF70067A00793E80047A5F
:10B60300007940801AEF64014E7022900282E06458
:10B61300037BFF70067A00793E80047A007940123A
:10B62300CC3F900284E4F0A37402F0800580001202
:10B63300D85412CC4B6008E59620E7FB12CC2522A8
:10BC090012CC5C7020900278E060716401606D90E4
:10BC1900027AE0706790027CE0706190027EE070C9
:10BC29005BA3E060028055900278E06402704D9059
:10BC3900027BE0704712CC526005EF6401703DEF62
:10BC490064814E701AE59620E7FB12CC73E59620C5
:10BC5900E7FB759611759740E4900281F08020E525
:10BC69009620E7FB75960E759702E59620E7FB751A
:10BC79009614759780E4900282F0800312D854E5F7
:10BC89009620E7FB12CC456008E59620E7FB12CC2D
:02BC9900632224
:10BC9B0012CC5C7020900278E060706401606C9054
:10BCAB00027AE0706690027CE0706090027EE07039
:10BCBB005AA3E060028054900278E06402704C90CA
:10BCCB00027BE0704612CC526005EF6401703CEFD2
:10BCDB0064814E7018E59620E7FB12CC73E5962035
:10BCEB00E7FB7596117597109002818019E59620E8
:10BCFB00E7FB75960E759702E59620E7FB75961494
:10BD0B007597209002827403F0800312D854E59645
:10BD1B0020E7FB12CC456008E59620E7FB12CC63CD
:01BD2B0022F5
:10CE5400900278E0701D90027CE07017A3E07013DC
:10CE6400A3E0700FA3E0700B90027AE07005A3E0DA
:10CE740030E70312D8549002807405F090027BE0EE
:10CE840090028360057403F080037402F012CC4BAB
:0BCE94006008E59620E7FB12CC63224B
:10A0F40090027AE024FE601C1460391460531460EA
:10A10400652404600302A1A27AAF791512CC3D90B4
:10A11400AF1580497BFF7AAF792712CC3F90AF2AE5
:10A12400E493FE90AF29E4937C002400FFEC3E907E
:10A134000284806490027BE075F00390AFC9122022
:10A14400F312213A12CC3F121C54FF900284E48093
:10A15400477BFF7AAF793012CC3F90AF30E493FF66
:10A16400900284E4803290027B12CC556005EF6447
:10A1740001702BEF64814E7BFF700C7AAF7939123A
:10A18400CC3F90AF39800A7AAF794012CC3F90AF80
:10A1940040E493FF900284E4F0A3EFF0800312D82C
:10A1A4005490027AE0FF64016014EF6402600FEFE0
:10A1B4006403600AEF64046005EF64057023900291
:10A1C4007FE0FFD3900285E09F900284E0940040FA
:10A1D4001090027EE0700AE0FE900284EEF0A3EF9D
:0FA1E400F012CC4B6008E59620E7FB12CC252249
:10CA1100900278E06480701C90027AE07016A3E0C6
:10CA21007012A3E0700EA3E0700AA3E07006A3E009
:10CA31006401600512D8548023900283E0FF7E00D8
:10CA41006404700C7BFF7A00793E12CC3F12CC6AF1
:10CA5100EF64034E700612CC3912CC6A12CC4B60D3
:0ACA610008E59620E7FB12CC252221
:10BED500900283E064026029900278E0702390026A
:10BEE5007CE0701DA3E07019A3E07015A3E070114C
:10BEF50090027AE0700BA3E0D394017480948040A3
:10BF05000512D854804690027BE0D3940074809447
:10BF150080402D9002837404F0E4900281F0A3F038
:10BF2500E59620E7FB12CC73E59620E7FB759612A4
:10BF3500759720E59620E7FB75960EE4F597800C3E
:10BF45009002837403F0900281F0A3F012CC4B6051
:0ABF550008E59620E7FB12CC6322FA
:10D10F0012CC5C7024900278E06481701C90027ADB
:10D11F00E07016A3E07012A3E0700EA3E0700AA3F4
:10D12F00E07006A3E06401600512D854800612CCAB
:10D13F003912CC6A12CC4B6008E59620E7FB12CC73
:02D14F00252297
:10D41600900278E06401701C90027EE07016A3E032
:10D42600701290027AE0700CA3E07008A3E070041A
:10D43600A3E0600312D85412CC4B6008E59620E7AF
:05D44600FB12CC632283
:06CDB500430280000000B3
:10D5CF00FEE02400FFEC3EF0A3EFF022900231E0EA
:10D5DF004408F0E4900280F02285688385698222F6
:0BD5EF00900003122190E0FEA3E02258
:0300430002B98D72
:10B98D00C0E0C0F0C083C082C0D075D000C000C080
:0DB99D0001C002C003C004C005C006C00701
:10B9AA00E59620E7FB759686E59620E7FB90022D43
:10B9BA00E597F0E59620E7FB759682E59620E7FB8A
:10B9CA0090022EE597F0E59620E7FB759684E596BA
:10B9DA0020E7FB90022FE597F090022DE030E1037B
:10B9EA0012DBD490022DE030E20312D83790022EF7
:10B9FA00E030E00312771390022FE030E20312C81E
:0BBA0A009190022DE030E00312DBDE23
:10BA1500D007D006D005D004D003D002D001D00085
:0BBA2500D0D0D082D083D0F0D0E0322F
:0ADBD400900230E475F001021D9E7E
:10D837009002837402F0E59620E7FB7596017597D1
:0DD8470001E4900280F0A37403F0A3F0222E
:10771300E59620E7FB75960EE4F597E59620E7FBE3
:10772300759691E59620E7FB900230E597F090027D
:1077330080E064057013E59620E7FBE4F59690027C
:107743007BE0F597E4900280F0900230E0FF30E2B6
:1077530010E59620E7FB759611E4F597900280F00B
:1077630022EF30E41BE59620E7FB75961175970829
:10777300E59620E7FB759611759780E4900280F0FB
:10778300900280E0600302781D900230E020E00365
:1077930002781D7B017A0279787D087C007F2012B4
:1077A300CDBB90027BE0FE90027AE07C0012D5D143
:1077B30090027DE090027C12D5CF90027FE0900290
:1077C3007E12D5CF900279E012214677ED0077F251
:1077D3000177F70377FC05780106780608780B092B
:1077E30078100A78150B0000781A12B593802B12C3
:1077F300BC09802612BC9B802112CE54801C12A08F
:10780300F4801712CA11801212BED5800D12D10F47
:10781300800812D416800312D854900280E06401C9
:1078230060030278CC900230E030E1030278CCE5CB
:107833009620E7FB759691E59620E7FB900230E5ED
:1078430097F0E030E40630E0030278CC9002317424
:1078530002F0C3900285E09440900284E09400908B
:107863000275402D1221117C007D407F2012C281C0
:10787300900276E475F040121D9E90028474FF75A9
:10788300F0C0121D9E900286E475F040121D9E808A
:1078930013122111900284E0FCA3E0FD7F2012C2A9
:1078A3008112D5DB90027EE0FEA3E0FF900286E02A
:1078B300B50608A3E0B5070312D5DBE59620E7FB81
:0978C300759611900231E0F59771
:0178CC002299
:10C89100E4FFE59620E7FB75960E759702E5962075
:10C8A100E7FB759694E59620E7FBAE97900282E050
:10C8B1006403700CE59620E7FB75961475972022AA
:10C8C100EE30E60BE59620E7FB759614759780E54B
:10C8D1009620E7FB759696E59620E7FBAF97EFFD6F
:10C8E1007C00E59620E7FB759697E59620E7FBAF80
:01C8F10097AF
:01C8F2002223
:0ADBDE00900230E475F001021D9E74
:10CDBB00900232EFF0900235122131900233ECF0F9
:03CDCB00A3EDF0E5
:10CDCE004C6037900232E0F5964396C0E4FFFED3F6
:10CDDE00900234E09F900233E09E401BE59620E7E0
:10CDEE00FB9002351221118F828E83E597121CDF84
:0ACDFE000FBF00010E80D8E4F59687
:01CE08002207
:10C2810090FFFD12216C12213190FFFE12216CEC06
:10C29100F0A3EDF090FFFF12216CEFF090FFFE1282
:02C2A100216C0E
:10C2A300D2B012D5EF4E6049E59620E7FB12D5E8F0
:10C2B300A3A3E0F59612D5E8E4F0A3F012D5EFFFBF
:10C2C30012D5E8E0FCA3E0FDC39FEC9E5023900051
:10C2D300051221901221118D828C83121C6DF5970A
:10C2E300E59620E7FB12D5E8E475F001121D9E8068
:03C2F300CBC2B00B
:06C2F60090000802216C1B
:10D85400E59620E7FB75960EE4F597E59620E7FB41
:0DD864007596117597209002807404F022D3
:10D2C5001201100100000040C4100000000001021E
:10D2D50003010902200001010080FA09040000028F
:10D2E500FF0000000705020240000007058202401A
:0AD2F500000004030904010000001A
:1092BC0090016EEEF0A3EFF0900172EBF0A3EAF0E8
:1092CC00A3E9F0E49007A8F09007A8E0FF90D2C5BE
:1092DC0093FE74402FF582E43407F583EEF090078B
:1092EC00A8E004F0E0B412E0E49007A8F09007A81E
:1092FC00E0FF90D2D793FE74522FF582E43407F539
:10930C0083EEF09007A8E004F0E0B420E090016E4A
:10931C00E0FAA3E0900748F0EAA3F0EDA3F0ECA389
:10932C00F090077274FFF0A374D2F0A374F7F0906E
:10933C000172E0F9A3E0FAA3E0900775C9F0A3EA83
:10934C00F0A3E9F0900175E0F9A3E0FAA3E090072F
:10935C0078C9F0A3EAF0A3E9F0900178E0F9A3E072
:10936C00FAA3E090077BC9F0A3EAF0A3E9F090011F
:10937C007BE0FFC394FA500590075AEFF090017C04
:10938C00E0900759F090017DE0FEA3E090074CF0CF
:10939C00EEA3F0E59620E7FB759601759708E59628
:1093AC0020E7FB75960775970FE59620E7FB7596FA
:1093BC000975970EE59620E7FB75960B7597077563
:1093CC00D7E012DB8FE4900792F0900791F09007B2
:1093DC0093F0900786F043E602D2AFE59620E7FBC8
:0793EC00759601759701223F
:10D672009007867402F0E59620E7FB759601759790
:10D6820001E490078EF0A37403F0A3F0E4900792F4
:07D69200F090079104F02263
:10675500E59620E7FB75960EE4F597E59620E7FBB1
:10676500759691E59620E7FB90079CE597F0E0FF8D
:1067750030E210E59620E7FB759611E4F597900752
:106785008EF022EF30E410E59620E7FB7596117543
:106795009780E490078EF090078EE0600302688A88
:1067A50090079CE020E00302688A7596204396C016
:1067B500E49007A8F0E59620E7FB9007A8E0247E83
:1067C500F582E43407F583E597F09007A8E004F037
:1067D500E0B407E1E59620E7FBE4F5969007A8E02D
:1067E500247EF582E43407F583E597F0900781E090
:1067F500FE900780E07C002400FFEC3E900794F0BB
:10680500A3EFF0900785E0FE900784E02400FFECFD
:106815003E900796F0A3EFF090077FE004603B14ED
:10682500B40C00505D906831F82828730268550251
:10683500685A02685F0268640268870268690268CC
:106845006E02688702687302687802687D02688252
:1068550012C4D6803012C954802B129AC8802612D1
:10686500C9B3802112D7BC801C12B095801712CEF7
:10687500EA801212CA6B800D12D699800812DA2DA1
:10688500800312D87190078EE06401600302698B62
:1068950090079C7402F0C390078DE0944090078C9C
:1068A500E094004061E59620E7FB759620E49007AB
:1068B500A8F09007A8E0FFC394405022900787E016
:1068C500FBA3E0FAA3E0F98F82758300121C6DF536
:1068D50097E59620E7FB9007A8E004F080D49007A1
:1068E50088E475F040121D9E90078DE024C0F0905D
:1068F500078CE034FFF090078BE02440F090078A86
:10690500E03400F08052E59620E7FB759620E49090
:1069150007A8F09007A8E0FFD390078DE09F9007A8
:106925008CE094004026900787E0FBA3E0FAA3E003
:10693500F99007A8E0F582758300121C6DF597E5BF
:106945009620E7FB9007A8E004F080C790079CE03D
:106955004408F0E490078EF0900796E0FEA3E0FF70
:1069650090078AE0B50611A3E0B5070C90079CE0F7
:106975004408F0E490078EF0E59620E7FB75961144
:0769850090079CE0F597224A
:10D87100E59620E7FB75960EE4F597E59620E7FB24
:0DD8810075961175972090078E7404F022A3
:10C4D60090077EE0247F600714600624027048807F
:10C4E6002D90078FE0B40309900782E0B402028022
:10C4F6000E900790E0B40316900782E0B4820F9086
:10C50600078774FFF0A374D2F0A374FB800D900725
:10C516008774FFF0A374D2F0A374FDF090078CE447
:10C52600F0A37402F0800312D87190078EE06404C1
:10C53600601012DA2D90078E7401F0E490078AF0ED
:03C54600A3F0223D
:10C95400900780E07048900782E0FFB4021DE596DE
:10C9640020E7FB75960E759702E59620E7FB759612
:10C9740014759780E490078FF08026EFB4821DE54C
:10C984009620E7FB75960E759702E59620E7FB75F2
:10C994009611759740E4900790F08005800012D8B6
:0FC9A40071E59620E7FB75960EE4F59702DA2D04
:109AC800900794E0B4373CA3E0B40B3790078EE0DE
:109AD8006404601012DA2D90078E7401F0E4900788
:109AE8008AF0A3F090079B7480F09007877401F0C8
:109AF800A37407F0A3749BF090078CE4F0A304F020
:109B0800029BCA900795E020E003029BA19007936F
:109B1800E030E00854FEF04402F08007900793E03C
:109B280054FDF0E59620E7FB75960E759702E596CD
:109B380020E7FB759614759710E59620E7FB759658
:109B480011759708E59620E7FB759694E59620E74A
:109B5800FB90079BE597F0E020E4E9E59620E7FB1A
:109B6800759614759710E59620E7FB759691E5961E
:109B780020E7FB90079BE597F0E020E3E9E59620D6
:109B8800E7FB7596117597089007917408F0900790
:109B980093E0FF30E1034401F0900794E0FCA3E078
:109BA800FD30E10D9007867406F0900791E04410AF
:109BB800F0ED30E20D9007867404F0900791E044D0
:109BC80020F0E59620E7FB75960EE4F59702DA2D6E
:10C9B300900780E07047900782E0FFB4021BE59682
:10C9C30020E7FB75960E759702E59620E7FB7596B3
:10C9D3001475972090078F801DEFB4821EE5962073
:10C9E300E7FB75960E759702E59620E7FB759611A2
:10C9F3007597109007907403F08005800012D8712A
:0ECA0300E59620E7FB75960EE4F59702DA2D16
:10D7BC00E59620E7FBE4F596900780E0FFF597EF00
:10D7CC0090078660057403F080037402F002DA2D72
:10B09500900781E024FE601B14603B2402707290CF
:10B0A50007877401F0A37407F0A37440F09007407C
:10B0B500E080539007877401F0A37407F0A37452DE
:10B0C500F0900755E0FE900754E07C002400FFEC6B
:10B0D5003E90078C8035900780E0FFD394034002B3
:10B0E500802FEF75F003A42472F582E43407F5830D
:10B0F500E0FBA3E0FAA3E0F9900787EBF0A3EAF001
:10B10500A3E9F0121C54FF90078CE4F0A3EFF08044
:10B115000312D87190078CE0FEA3E0FF900796E03C
:10B12500FCA3E0FDC39FEC9E500890078CECF0A3B8
:10B13500EDF090078EE06404601012DA2D90078E12
:0BB145007401F0E490078AF0A3F022F0
:10CEEA00900786E0FFB40414A374FFF0A374D2F091
:10CEFA00A374FBF090078CE4F0A304F0EFB40316DC
:10CF0A0090078774FFF0A374D2F0A374FDF0900722
:10CF1A008CE4F0A304F012DA2D90078E7401F0E489
:07CF2A0090078AF0A3F0223A
:10CA6B00900780E0D394004042900791E04440F05F
:10CA7B009007867404F0E490078FF0A3F0E59620FE
:10CA8B00E7FB75960E759702E59620E7FB759612F8
:10CA9B00759784E59620E7FB759615759780E59657
:10CAAB0020E7FB75960EE4F597800C9007867403D0
:0ACABB00F090078FF0A3F002DA2DCF
:10D6990090078774FFF0A374D2F0A374FDF090078C
:10D6A9008CE4F0A304F012DA2D90078E7401F0E4F3
:07D6B90090078AF0A3F022A4
:10DA2D0090078EE06404600BE59620E7FB75961178
:04DA3D007597402277
:030043000289D956
:1089D900C0E0C0F0C083C082C0D075D000C000C064
:1089E90001C002C003C004C005C006C00790079DAE
:1089F900E596F0E59620E7FB75968EE59620E7FB70
:108A090090079EE597F0E59620E7FB759686E59633
:108A190020E7FB900798E597F0E030E30BE5962017
:108A2900E7FB75960B759707900798E030E20312FC
:108A3900D672900798E030E014900786E0FF64044E
:108A49006004EFB40607900791E04480F0E59620B2
:108A5900E7FB759682E59620E7FB900798E597F086
:108A6900E030E003126755900798E030E22AE59676
:108A790020E7FB75960E759702E59620E7FB75963C
:108A890091E59620E7FB900799E597F0E05403708C
:108A990007900791E04402F0E59620E7FB7596847C
:108AA900E59620E7FB900798E597F0E030E229E5A5
:108AB9009620E7FB75960E759702E59620E7FB75FC
:108AC9009694E59620E7FB900799E597F0E030E06A
:108AD90007900791E04404F0E59620E7FB75960EB0
:108AE90090079EE0F597E59620E7FB90079DE596B0
:108AF900F0E59620E7FB900793E030E009900791B5
:108B0900E0600312D779D007D006D005D004D0038E
:108B1900D002D001D000D0D0D082D083D0F0D0E024
:018B29003219
:10CF3100E49007A8F0E5B964E0603853A90F9007C1
:10CF4100A7E5A9F043B280E5A95407D394014003B2
:10CF5100E4F5A9E4F5B943B9809007A8E014F070AD
:10CF6100F843B9C0E5B930E5FB9007A7E0B4020387
:07CF710043A90253A90F229E
:10D576009007A7E5A8F0C2AFC2AF53E6FDE4F5D722
:10D58600E59620E7FB759601759708E5A920E10663
:0DD5960043A910E4F5B99007A7E0F5A8221D
:0FDB3A00900791E0FF9007A7F0E4900791F02289
:109525009007A8EDF09007ABEBF0A3EAF0A3E9F004
:10953500900786E0B40606EDD3944040037F0022F1
:10954500E59620E7FB75960E759702E59620E7FBF5
:10955500759694E59620E7FB90079AE597F0E0204D
:10956500E003029652E59620E7FB759696E5962070
:10957500E7FB900792E597F0E0FFEDC39F5006AE3D
:1095850005AF068000900792EFF053E6FDE59620C3
:10959500E7FB7596E2900792E07003029636900716
:1095A500ABE0FF7020A3A3E090079FF0E59620E7CE
:1095B500FB90079FE0F8A697E004F09007A8E01459
:1095C500F070E9806CEF20E73C9007ABA3E0FAA3CD
:1095D500E0FF9007A1EAF0A3EFF0E59620E7FB9006
:1095E50007A1E0FEA3E0F5828E83E597F09007A240
:1095F500E004F070069007A1E004F09007A8E014DD
:10960500F070D7802C9007ABE064FE7021A3A3E037
:109615009007A5F0E59620E7FB9007A5E0F8E5970C
:10962500F2E004F09007A8E014F070E880037F00F2
:1096350022E59620E7FBE4F596E59620E7FB75968F
:1096450014E4F59743E602900792E0FF227F00229B
:106DD700E49007A7F09007A9F0A3F09007ABEBF0BA
:106DE700A3EAF0A3E9F0900786E0B4060DED4C6046
:106DF70009D3ED9400EC94104004E4FEFF2253E61F
:106E0700FD9007A7E030E003026FBBE59620E7FBA4
:106E170075960E759702E59620E7FB759691E596B0
:106E270020E7FB9007A7E597F0E030E020E5962004
:106E3700E7FB75960EE4F597E59620E7FB759691C7
:106E4700E59620E7FB9007A7E597F080B4D3ED948C
:106E570040EC94009007A840057440F08002EDF0E4
:106E6700E59620E7FB7596229007A8E07003026F6E
:106E77006B9007ABE0702DA3A3E0F99007A9A3E0FF
:106E8700FFE92FF990079FE9F0E59620E7FB9007C8
:106E97009FE0F8E6F597E004F09007A8E014F0709B
:106EA700E8026F6B9007ABE020E747A3E0FAA3E0A7
:106EB700F99007A9E0FEA3E0FFE92FF9EA3EAF0149
:106EC7009007A1F0A3EFF0E59620E7FB9007A1E07C
:106ED700FEA3E0F5828E83E0F5979007A2E004F029
:106EE70070069007A1E004F09007A8E014F070D7AF
:106EF70080729007ABE064FE7021A3A3E09007A522
:106F0700F0E59620E7FB9007A5E0F8E597F2E004A7
:106F1700F09007A8E014F070E880499007ABA3E071
:106F2700FAA3E0F99007A9E0FEA3E0FFE92FF9EA49
:106F37003EAF019007A3F0A3EFF0E59620E7FB90A3
:106F470007A3E0FEA3E0F5828E83E493F59790070D
:106F5700A4E004F070069007A3E004F09007A8E00F
:106F670014F070D6C3ED9440EC94009007AAE0406B
:106F77001F2440F09007A9E03400F074C02DFD7481
:106F8700FF3CFCE49007A7F09007A87440F0801638
:106F97002DF09007A9E03CF09007A77401F0900747
:106FA700A8EDF0E4FCFDE59620E7FB7596117597D3
:106FB70001026E0843E6029007A9E0FEA3E0FF2264
:10D92F00900793E04401F0900791E0600BE596209B
:09D93F00E7FB75960B75970F22AA
:08DC0400900793E054FEF022AA
:0CDB8F00E59620E7FB75960F759789223C
:10D77900D007D007D007D006D005D004D003D002F7
:10D78900D001D000D0D0D082D083D0F0D0E0020038
:02D799008B22E1
:10BDBC002A2A2A436C6F636B2043616C696272613F
:10BDCC0074696F6E2041626F727465642121210069
:10BDDC00436C6B20446966663A203078007573209A
:10BDEC002D20002000204472696674204D6561731B
:10BDFC007572656D656E742041626F727465642036
:10BE0C002121212A00202020002D2D2D204F666677
:10BE1C00736574205265676973746572206E6F74F4
:10BE2C00206D6F6469666965642E2A0020202020CD
:0DBE3C002A0020200008080008082020002F
:10B4E100F583EFF0900173122055E47B0AFAF9F825
:10B4F10012D004900173122079E47B0AFAF9F890D2
:10B50100017312205512D004EB2430FFE50875F0C9
:10B511000EA4229000F01220799000F00220618F99
:10B52100311531AF31EF3395E0FED3EF2290017346
:10B5310012205574FFFBFAF9F8121E97900173025D
