:0300000002D7BB69
:0CD7BB00787FE4F6D8FD75817002D8027A
:10D7C7000256DCE493A3F8E493A34003F68001F246
:10D7D70008DFF48029E493A3F85407240CC8C33363
:10D7E700C4540F4420C8834004F456800146F6DF32
:10D7F700E4800B010204081020408090E2ABE47E35
:10D80700019360BCA3FF543F30E509541FFEE49326
:10D81700A360010ECF54C025E060A840B8E493A3ED
:10D82700FAE493A3F8E493A3C8C582C8CAC583CA18
:10D83700F0A3C8C582C8CAC583CADFE9DEE780BED0
:01E2AB000072
:0EF65700F0EF25E02425F582E43406F5832249
:03002B0002EB7A6B
:10EB7A00C0E0C0F0C083C082C0D075D01890062310
:10EB8A00E475F001123FDD75CBF075CA60C2CFC3E0
:10EB9A00900624E0947D900623E094004009E4F076
:10EBAA00A3F0D22012F414D0D0D082D083D0F0D0E7
:02EBBA00E03247
:10F41400D3900626E09400900625E094804007747B
:07F42400FFF5F0123FDD22AD
:0300730002F4870D
:10F4870053E67F53917F53C77F43C78053C77F435B
:06F49700C78053C77F325D
:10EF6500E4900623F0A3F0FF12F658E4F0A312F69E
:10EF750057E0547FF00FEFB401EEE4F5C8538E0F60
:0FEF850075CBF0F5CA74FFF5CDF5CCD2ADD2CA7D
:01EF9400225A
:10F59000538EF8438E04758902758CEA758AEAD217
:02F5A0008C22BB
:10F55700E4F59175959E75945875939E75925853D9
:03F567008EBF2232
:10F4F300E4F591F595F59475937F7592FF538E3FDF
:04F50300439104220A
:10F5A20012F658E0FEA3E07003EE64807002D322EC
:02F5B200C32272
:10F56A00ED4C600E12F658ECF0A3ED12F657E0449B
:03F57A0080F022FC
:10D05200436C6F636B206D756C7469706C6965727B
:10D0620020616C7265616479206C6F636B65642CFE
:10D0720020736B697070696E67207265696E69747E
:10D08200004F534349434E207C3D20307830333BA0
:10D092002000434C4B4D554C20203D203078303001
:10D0A2003B2000434C4B4D554C207C3D2030783882
:10D0B200303B200044656C617920666F7220636C9E
:10D0C2006F636B206D756C7469706C696572207426
:10D0D2006F20626567696E200057616974696E67C7
:10D0E20020666F72206D756C7469706C6965722050
:09D0F200746F206C6F636B200069
:1000030075B28353A9F8E4F586758DCC438E082227
:10F507007586BCE58630E6FBE5A954F84404F5A901
:04F5170053B27F224A
:10CAB100E5B930E518901F64E49320E00302CB56FA
:10CAC1007ED07F52A21292387D0902BE07901F6468
:10CAD100E49330E0077ED07F8312CB5743B20390BB
:10CAE1001F64E49330E0077ED07F9412CB57E4F5C6
:10CAF100B9901F649330E0077ED07FA512CB6143CC
:10CB0100B980901F64E49330E0077ED07FB612CBEA
:10CB110061E4FFFE0FBF00010EBE01F8BFF4F54353
:10CB2100B9C0E4FEFF0FBF00010EBE01F8BFF4F56E
:10CB3100E5B920E517901F64E49330E0F37ED07FE0
:10CB4100DBA21292387D0912BE0780E475A9037534
:05CB51008D30438E0849
:10CB560022A21292387D0912BE0722A21292387DB5
:05CB66000912BE0722C8
:0D002E000070007000DFF9EE6002DEF422C9
:1010300043757272656E742054696D653A20005371
:10104000657474696E67733A00475053206F6E0081
:10105000475053206F66660044544147206F6E002E
:1010600044544147206F6666005072696E74696E21
:1010700067204750532073656E74656E6365730017
:101080004E6F74205072696E74696E6720475053BA
:101090002073656E74656E6365730053746172745A
:1010A0007570205461736B7320446F6E65004473D8
:1010B000702056657273696F6E3A20004E6F20641F
:1010C00061746120666F7220746865206C6173744E
:1010D0003A0009004461797309486F757273094DCC
:1010E000696E75746573004D616B696E6720737509
:1010F000726520496E746572727570747320656EC6
:1011000061626C656420616E6420736D6242757308
:101110004F70656E0047505320554152542064690A
:101120007361626C65642000475053206973206EC0
:101130006F7420706F77657265640044656C6179C7
:101140006564204750532066697820736176652076
:1011500064756520746F20534D427573207265630A
:10116000657074696F6E004C617267652046696CCA
:10117000652053697A65004E65772046696C652065
:10118000506172746974696F6E200046696C6520E5
:1011900073697A653A00537461727420726F757462
:1011A000696E6520746F204750532073796E630019
:1011B00061626F7274204750532073796E6320739D
:1011C000696E636520475053206973206F6666001F
:1011D0004E65772054696D653A200054696D6553FA
:1011E00074616D706564204453502F4750532053F1
:1011F000796E6300202020204C6173742047505387
:1012000020617474656D70742077617320737563E9
:101210006365737366756C2E2000202020204C615E
:1012200073742047505320617474656D7074206628
:1012300061696C65642120002020202047505320E4
:1012400069732064697361626C65642E2000426179
:10125000747465727920766F6C7461676520697348
:101260003A2000486F75726C792044657465637428
:10127000696F6E20436F756E742073696E636520AD
:10128000506F776572204F4E3A2000546F74616C36
:1012900020446574656374696F6E20436F756E7466
:1012A0002073696E636520506F776572204F4E3AE8
:1012B0002000202020506F6F72205369676E616C90
:1012C00000204E454544532053455256494345213D
:1012D000212100210020000D0A0D0A2D2D2D202A8C
:1012E0002A2A2054524944454E54205348454C4CD8
:1012F0002053544152544544202A2A2A0D0A2D2DA8
:101300002D000D0A2D2D2D20487964726F70686FA5
:101310006E6520636F6D6D756E69636174696F6E64
:1013200020737461727465642E00566F6C7461670B
:10133000652076616C75653A20004D6E54616B6571
:101340004D6561737572656D656E7473205265616C
:10135000642054656D706572617475726520005407
:10136000656D70657261747572652076616C756506
:101370003A20004D6E54616B654D65617375726501
:101380006D656E74732047657474696E6720746947
:101390006C740057616974696E6720706572696F5B
:1013A000642076616C75653A200054696C7420760F
:1013B000616C75653A2000616463476574507265BD
:1013C0007373757265526573756C740050726573D2
:1013D000737572652076616C75653A20004E6F20DA
:1013E00056616C6964204473702056657273696F2E
:1013F0006E20696E20746865205254432D20546F0E
:1014000067676C65206120736F6674776172652011
:101410007265736574206F6620746865204453504C
:1014200020746F2072657472696576652069740036
:1014300057616974696E6720666F7220445350204B
:10144000746F2073656E642076657273696F6E2E9B
:101450002E2E005355434345535321212100496EFD
:1014600076616C69642073657269616C206E756D5C
:10147000626572005374617274206F66204D656DF1
:101480006F7279204361726420496E73657274696A
:101490006F6E004C6F6767696E6720746F205344EE
:1014A000206D656D6F72792063617264206861736D
:1014B000206265656E20696E697469617465642E69
:1014C0000057616974202E2E2E20004C6F67205229
:1014D0006573756D65642061743A20005461674CD2
:1014E0006F674F70656E00536D624F70656E00558B
:1014F0006E6C6F6164696E67206F757220646174D1
:1015000061005461674C6F674F70656E656400538E
:1015100044206D656D6F727920636172642068612B
:1015200073206265656E2072656D6F7665642E004E
:10153000456E64206F66204D656D6F727920636122
:10154000726420696E73657274696F6E20005469ED
:101550006C742043686970204944206E6F74207257
:101560006563656976656400664E657753796E6379
:1015700020526F6C6C6F766572204C6F67696300E8
:10158000756C43756D546F745F4453503A20007509
:101590006C43756D546F743A2000526F6C6C6F76AB
:1015A0006572204164642056616C3A2000756C437A
:1015B000756D546F74203D20756C43756D546F7458
:1015C0005F4453500000664E657753796E63205236
:1015D00054432074696D652061646A757374656431
:1015E000004D697373696E67206D656D6F72792048
:1015F000636172642E005374617274207570202DC3
:1016000020446574656374696F6E73207A65726FC8
:1016100065642E0055534220434D44205265636556
:1016200069766564003C735F5A5F61636B00354D9A
:1016300047505353796E63206973206E6F7720741F
:1016400075726E6564206F6E00354D475053537947
:101650006E63206973206E6F77207475726E656497
:10166000206F666600655F5A5F61636B3E0053657D
:101670006E736F7220726174652069733A20004E38
:101680006F20757064617465204E656564656400E3
:1016900043616E2774207365742053656E736F7297
:1016A0005261746520696E636F727265637420663F
:1016B0006F726D617400536C656570205261746562
:1016C0002069733A200043616E277420736574208B
:1016D000736C656570207261746520696E636F72EA
:1016E0007265637420666F726D617400655F61631B
:1016F0006B3E004E756D626572206F662061736B84
:10170000732069733A200043616E277420736574F7
:101710002061736B207261746520696E636F7272F1
:1017200065637420666F726D6174003C735F615F06
:1017300061636B00655F615F61636B3E003C735F7B
:10174000425F61636B00445441473A206F6E00442E
:101750005441473A206F6666004750533A206F6EF7
:10176000004750533A206F66660035204D696E750C
:1017700074652053796E6320656E61626C656400E8
:1017800035204D696E7574652053796E63206469E8
:101790007361626C6564004750532073656E7465B5
:1017A0006E6365207072696E74696E672069733A42
:1017B000206F6E004750532073656E74656E6365CD
:1017C000207072696E74696E672069733A206F6663
:1017D0006600486F75726C792046696C6573206984
:1017E000733A206F6E00486F75726C792046696C91
:1017F00065732069733A206F6666004461696C798D
:101800002046696C65732069733A206F6E004461ED
:10181000696C792046696C65732069733A206F663C
:10182000660046696C65732064756D70733A206F4D
:101830006E0046696C65732064756D70733A206F35
:1018400066660054656D70657261747572653A20E4
:101850006F6E0054656D70657261747572653A20C3
:101860006F66660050726573737572653A206F6EAD
:101870000050726573737572653A206F6666005426
:10188000696C743A206F6E0054696C743A206F660C
:10189000660053656E736F7220726174653A200042
:1018A0007300475053207361766520696E746572CA
:1018B00076616C3A2000655F425F61636B3E003C7D
:1018C000735F625F61636B004E6F206368616E6778
:1018D0006520696E206F66667365740042616420DE
:1018E00056616C7565730042616420466F726D616C
:1018F0007400655F625F61636B3E003C735F445FD1
:1019000061636B00655F445F61636B3E003C735FC6
:10191000645F61636B00655F645F61636B3E003CA5
:10192000735F455F61636B00655F455F61636B3E3D
:10193000003C735F655F61636B00655F655F61635A
:101940006B3E003C735F465F61636B00655F465FA3
:1019500061636B3E003C735F665F61636B00655F54
:10196000665F61636B3E003C735F475F61636B0062
:10197000655F475F61636B3E003C735F675F6163F8
:101980006B00655F675F61636B3E003C735F485F40
:1019900061636B0043757272656E742054696D6586
:1019A0005374616D703A2000655F485F61636B3E00
:1019B000003C735F685F61636B0054696D657A6FAB
:1019C0006E65205365740054696D657A6F6E65208D
:1019D0006E6F742073657420626563617573652032
:1019E000696E76616C69642074696D657A6F6E6585
:1019F0000054696D657A6F6E65206E6F7420736533
:101A000074206265636175736520696E636F7272BD
:101A100065637420666F726D617400655F685F61F5
:101A2000636B3E003C735F695F61636B0054696D7B
:101A3000652077617320756E61626C6520746F201C
:101A400062652073657420636175736520696E63D8
:101A50006F727265637420666F726D617400655F8A
:101A6000695F61636B3E003C735F4A5F61636B005B
:101A70005072696E74696E67204750532073747298
:101A8000696E6773004E4F54207072696E74696E90
:101A9000672047505320737472696E677300655FE7
:101AA0004A5F61636B3E003C735F6A5F61636B001A
:101AB000496E636F727265637420466F726D6174F4
:101AC000206F7220696E76616C69642076616C7536
:101AD0006500655F6A5F61636B3E003C735F4B5FEF
:101AE00061636B0047505320656E61626C656400F2
:101AF0004750532064697361626C656400655F4B95
:101B00005F61636B3E003C735F6B5F61636B00659D
:101B10005F6B5F61636B3E003C735F6C5F61636B27
:101B200000655F6C5F61636B3E003C735F4D5F619E
:101B3000636B00475053206D6F64656D20276F6E97
:101B40002700475053206D6F64656D206F666600F7
:101B5000475053206F7574707574207265636569A2
:101B60007665204F6E00475053206F757470757402
:101B70002072656365697665204F666600655F4D16
:101B80005F61636B3E003C735F6D5F61636B004739
:101B90005053205072696E74205541525400475082
:101BA00053205072696E742055415254204F46465E
:101BB00000655F6D5F61636B3E003C735F4E5F610C
:101BC000636B004F757470757474696E672064651B
:101BD00074656374696F6E20646174610053746F1F
:101BE00070206F757470757474696E6720646574A5
:101BF000656374696F6E206461746100655F4E5F38
:101C000061636B3E003C735F6E5F61636B00557098
:101C1000646174696E672053657269616C204E75EA
:101C20006D6265720046696E69736865640D0A4E7F
:101C300065772053657269616C204E756D626572BF
:101C40003A200043616E27742073657420534E2040
:101C5000696E636F727265637420666F726D617412
:101C600000655F6E5F61636B3E003C735F6F5F6139
:101C7000636B005570646174696E672053697465A5
:101C80004E616D650046696E69736865640D0A4E44
:101C9000657720536974654E616D653A2000655F14
:101CA0006F5F61636B3E003C735F505F61636B000D
:101CB0004154532D48323020436F6E666967757208
:101CC0006174696F6E2052657175657374207265F9
:101CD000636569766564005265636569766572203F
:101CE0005254432074696D653A20005072657373D5
:101CF000757265204F66667365743A200054656D91
:101D00007065726174757265204F66667365743AAA
:101D1000200054696C742063616C69622E20736CBE
:101D2000656570206F66667365743A200054696C4F
:101D3000742063616C69622E2061736B206F66662C
:101D40007365743A2000655F505F61636B3E003CD1
:101D5000735F705F61636B0054797065283129008F
:101D60004E6F205344206361726420707265736506
:101D70006E7400655F705F61636B3E003C735F5122
:101D80005F61636B00655F515F61636B3E003C7335
:101D90005F715F61636B003C735F525F61636B00F7
:101DA000655F525F61636B3E003C735F725F6163AE
:101DB0006B00655F725F61636B3E003C735F735FD6
:101DC00061636B00655F735F61636B3E003C735FD3
:101DD000745F61636B00655F745F61636B3E003CC1
:101DE000735F555F61636B003C735F755F61636B2D
:101DF000003C735F765F61636B00655F765F616374
:101E00006B3E003C735F785F61636B006765744392
:101E1000757272656E7446696C6500655F785F61A6
:101E2000636B3E003C735F595F61636B0073656E6B
:101E30006443757272656E7446696C650046696CC0
:101E4000654E616D653A2000655F595F61636B3E69
:101E5000003C735F795F61636B00655F795F61630D
:101E60006B3E003C735F7A5F61636B00655F7A5F16
:101E700061636B3E00557362204461746120556E4E
:101E80007265736F6C766564007563526573657413
:101E900042617474657279466C6970466C6F7050FB
:101EA000335F3200756352657365744261747465A3
:101EB0007279466C6970466C6F703A2000445350DA
:101EC00020763A0053697465204E616D653A2000B2
:101ED00046696C65204E616D653A200053657269F4
:101EE000616C204E756D6265723A200046696C65C2
:101EF00020466F726D61742056657273696F6E3A19
:101F000020332E3020200046696C652053746172A6
:101F1000743A200046696C6520456E643A200041A1
:101F2000545320547269746F6E20526563656976EC
:101F30006572204656657273696F6E3A2031312E94
:101F40003230000D0A0000000FFF03020030302E77
:101F50003030003039303030004832302C49532C8A
:101F60004D4E0000000000000000000000000000D6
:101F70000010C4EA61360341006400760061006E1F
:101F8000006300650064002000540065006C00657B
:101F9000006D006500740072007900200053007924
:101FA000007300740065006D0073001E0353006F22
:101FB000006E006900630020005200650063006548
:0E1FC0000069007600650072000F800100705D
:10E2AC004C029F0C0330003900300030003000C1AC
:10E2BC0086C10CC121C116C1874101CE0042023B6F
:10E2CC00000042018100004101CD004101EA014101
:10E2DC00029E0041028200410281094101F6004187
:10E2EC00029B0441029C0041023E0041023D004160
:07E2FC000002004102AB002B
:102DF4009004292430FFE52A75F0800243A2900450
:102E0400262430FFE52A75F0800243A2C4540F241F
:102E140030FFE52A75F0800243A2C4540F2430FE2B
:102E2400EF75F0800243A2540F2430FFE52A75F0B9
:102E3400800243A2540F2430FEEF75F0800243A2B7
:102E4400FF75F00A84E5F02430FEE52A75F080026F
:102E540043A290042F2430FFE52A75F0800243A298
:102E6400C4540F2430FEEF75F0800243A2C4540F03
:102E74002430FEEF75F0800243A2540F2430FFE5A6
:102E84002A75F0800243A2FF75F00A84E5F024302D
:102E9400FEE52A75F0800243A2540F2430FEEF753C
:102EA400F0800243A2540F2430FFE52A75F080021B
:102EB40043A275F080EE1243A27420F075F080EE08
:102EC40090047D1243A2742CF0EE90047E75F08081
:102ED4000243A2540F2430FEEF75F0800243A2EFA8
:102EE400F075F080E52A90042C1243A27432F0E5C8
:102EF4002A90042D75F0800243A2EF75F0809004AF
:102F04005B0243A2900467EF75F0800243A2F07560
:102F1400F080EE9004781243A2742CF0900479EEC1
:102F240075F0800243A2EF75F00A842430FFE52A8D
:102F340075F0800243A2EF90046575F0800243A20D
:102F4400EF90046475F0800243A22430FE75F08093
:102F5400E52A0243A275F080EE1243A27420F0EE3B
:102F640075F0809004750243A2EF75F080900463BD
:102F74000243A275F0809004430243A275F080904E
:102F840004440243A275F08090042A0243A275F01F
:102F9400809004270243A275F08090042F0243A27C
:102FA40090045F75F080EF0243A275F080900442B4
:102FB4000243A2F090047F75F080EF0243A275F003
:102FC400809004350243A275F0809004380243A235
:102FD40090045E75F080EF0243A27420F0EE75F069
:102FE4008090043D0243A2EF75F0809004500243A8
:102FF400A2F0E52A75F0809004450243A2F0EE7534
:10300400F0809004760243A2F0EF75F08090044EB5
:103014000243A2F0EE75F0809004770243A290047C
:103024005C75F080EF0243A275F080900466024361
:10303400A2EE75F0809004400243A275F0809004E3
:10304400260243A275F08090042E0243A2EF75F08D
:103054008090044F0243A275F08090045D0243A265
:1030640075F0809004250243A275F0809004460216
:1030740043A27420F090046D75F080EE0243A275B3
:10308400F0809004470243A2EBF09002F5E0FC903C
:103094000303E0900004FE75F0421243A2E5822C83
:1030A400F582E43583F583E0FF22900111E0FEEF21
:1030B40075F00EA42411F582E43401F583EEF0904A
:1030C4000112E0FEEF75F00EA42412F582E434013F
:1030D400F583EEF0900113E0FEEF75F00EA42413D7
:1030E400F582E43401F583EEF0900114E0FEEF750F
:1030F400F00EA42414F582E43401F583EEF090017B
:1031040015E0FEEF75F00EA42415F582E43401F504
:1031140083EEF0900116E0FEEF75F00EA42416F590
:1031240082E43401F583EEF0900117E0FEEF75F0D0
:103134000EA42417F582E43401F583EEF09001180F
:10314400E0FEEF75F00EA42418F582E43401F58353
:10315400EEF0900119E0FEEF75F00EA42419F5824B
:10316400E43401F583EEF090011AE0FEEF75F00E01
:10317400A4241AF582E43401F583EEF090011BE0F7
:10318400FEEF75F00EA4241BF582E43401F583EE02
:10319400F090011CE0FEEF75F00EA4241CF582E40F
:1031A4003401F583EEF090011DE0FEEF75F00EA4FE
:1031B400241DF582E43401F583EEF090011EE0FE57
:1031C400EF75F00EA42275F0809004480243A275B6
:1031D400F0809004490243A275F0809004310243C8
:1031E400A275F08090044A0243A275F080900434E2
:1031F4000243A275F0809004410243A275F08090CE
:1032040004320243A275F0809004160243A275F0C2
:10321400809004170243A275F0809004180243A220
:1032240075F08090046F0243A275F0809004370219
:1032340043A275F0809004010243A275F0809004CB
:10324400190243A275F08090043A0243A275F080FB
:103254009004020243A275F08090043B0243A275DD
:10326400F0809004040243A275F08090043C024371
:10327400A275F0809004060243A27E127FD5A212AA
:1032840092387D092275F08090043E0243A275F0C5
:10329400809004080243A275F08090043F0243A288
:1032A40075F08090040C0243A275F08090046A02C9
:1032B40043A275F08090040E0243A275F08090043E
:1032C4006B0243A275F0809004100243A290018E19
:1032D400E024D0FFE434FFFE7C007D0A123F40A3CB
:1032E400E024D0FDEC34FFCD2FFFED3EFE7D3C12FB
:1032F4003F40AA06AB0790018CE024D0FFE434FFE2
:10330400FE7D0A123F40A3E024D0FDEC34FFCD2F14
:10331400FFED3EFE7C0E7D10123F40EF2BFBEE3A9C
:10332400FA900190E024D0FFE434FFFE7C007D0A93
:10333400123F40A3E024D0FDEC34FFCD2F2275F0E2
:103344008090046C0243A275F0809004120243A2A0
:1033540075F0809004700243A2E50875F00EA42471
:1033640011F582E43401F583E09001F7F0E5087586
:10337400F00EA42412F582E43401F583E09001F800
:10338400F0E4A3F07A0179F77B01A21292377D0968
:1033940022FE75F080EF0243A235F0FA7B0175F04E
:1033A4000FE52B1243A2E02275F0809004710243D2
:1033B400A275F0809004730243A275F08090047AA1
:1033C4000243A290080875F00FE52B1243A2E022F5
:1033D40075F08090047B0243A2FE75F080EF0243F7
:1033E400A290042975F080EE0243A275F080EF02EA
:1033F40043A290080275F00FE52B1243A2E0227558
:10340400F080EF0243A275F080EF0243A275F080D2
:10341400EE0243A275F080EF0243A2EFF09008069B
:1034240075F00FE52B1243A2E022F583E09001F83A
:10343400F0A3742EF0E50875F00EA42275F080EE6A
:103444000243A275F080EE0243A275F080EF0243BE
:10345400A2EFF09002F5E0FC900303E0FE75F04269
:1034640022900191E024D0FF900002E075F00A84DC
:10347400E5F02275F080EE0243A2EFF090080975A2
:10348400F00FE52B1243A2E022E493FFE4FCFDFEDF
:103494009003757402F02275F080EF0243A2FDC41C
:1034A400540F2430F0ED540F2430A3F0229002B3D3
:1034B400EFF0E0FD242FF582E43402F583E024D01C
:1034C40090022CF074302DF582E43402F583E09000
:1034D400022DF09002B3E02431F582E43402F58346
:1034E400E024D090022EF02275F080EE0243A27503
:1034F400F080EF0243A23EF583E538F09002F9E450
:1035040075F001023FDD75F080EE1243A27420F0E5
:10351400229002F71242AFEC4D4E4F22A212923883
:103524007D0322780B7C017D017B007A00790D7E7E
:10353400007F06123E4B78EE7C017D017E007F0603
:10354400023E4BEFF090080075F00FE52B1243A2FA
:10355400E02275F0429000031243A2E5822FF58227
:10356400E43583F58322E47B3CFAF9F89002E71210
:1035740042AF024161EEF0ED75F00EA4229002F923
:10358400E0FEA3E0FF9002F0E02FFF9002EFE03EA8
:10359400FE22E090022CF0900230E090022DF09098
:1035A4000231E090022EF0900232E090022FF0906F
:1035B4000233E0900230F022EFF075F042EE227E0A
:1035C400107F30A2129238E4FD22A801124235EF96
:1035D400540FFFEF2430F538D39439229002EFE0F2
:1035E400FEA3E0FF2412F58274043EF58322C3E4B3
:1035F400950CFFE4950BFE740F950AFDE49509FC08
:1036040022901F4AE493FF3395E0FEFDFC229001D3
:1036140090E024D075F00AA4229002B0E02414FFB4
:10362400E433FEC3E5449FEE6480F87480982290EE
:103634000190E0FF7430D39F221242AFA804A90581
:10364400AA06AB0722FFE4FCFDFE90030B7403F013
:1036540022EFF090080A75F00FE52B1243A2E02246
:103664007A02792C7B019003B4E4F0A32275F00E66
:10367400A42412F582E43401F58322E4939001CE6C
:10368400F0E49002B3F090022CE0FFE4D39F229088
:10369400004475F0420243A22413F582E43401F598
:1036A40083E0222415F582E43401F583E022A2129A
:1036B40092387D012290022EE0642022ED75F042C2
:1036C4001243A2E0FFEE227420F075F080E52A2276
:1036D400E0FE242CF582E43402F583227F837EEC21
:1036E4007D027C409001E41242CBD302422490023A
:1036F4002CE075F00AA4FF90022EE02F9002B3F0A4
:1037040090022FE022A3E0FFC3943022241EF5820E
:10371400E43401F583229002F9E0FEA3E0FFC32222
:10372400A3E09001F724D0F0900230E024D022F0FE
:10373400E52A75F080A422E490023DF0A3F0900203
:103744009CF02275F010123E71AFF0EF243090021D
:103754000CF0A3747A2274072538F53822EFF09020
:1037640002F5E02275F080EF0243A2D2B4E4F50C36
:10377400F50BF50AF509222414F582E43401F583E6
:10378400E0222416F582E43401F583E0223EF58339
:103794007420F0E49002F9F0A3F022E0FF9002B369
:1037A400E02FF022E49375F00AA4FFA3E4932FFF23
:1037B400EC35F0FE229001F8540F2430F0A322FDE2
:1037C400E43CFC9002B3E0FED322900191E024D0CB
:1037D400FF900002E022D39002AEE094059002AD87
:1037E400E06480948022901F48E493FD3395E0FCCC
:1037F400123FA7ED4C22742DF0EF3395E0FE7CFFD1
:103804007DFF023F409002EFE0FEA3E0222411F589
:1038140082E43401F58322123AC99002B812432893
:103824009002BC2275F00AE0A49002B3F0227B015E
:103834007A0179FA90063B0243E0C2B37DB47C2D51
:103844007F0F2275F03CEF84FFA3E02FF022EF24DA
:10385400D0FF9001CEE075F00AA42FF0229002EF81
:10386400E0FCA3E0FD22AF33AE32AD31AC3022F048
:103874009002B3E004F022900190E024D0FFEE75B2
:10388400F00A8422A37420F0A3F0901F4CE493FF69
:103894002275F010123E71243090020BF022E52BB9
:1038A4009008031243A2E582252E229002E31243DC
:1038B400289002E3229002B3E0FFC322E4FAF9F86D
:1038C4000241611242AF7BD57AFF797F7839229029
:1038D40002EFE075F080227B407A42790F78009005
:1038E40002E322AB0CAA0BA90AA809024224EEF0B7
:1038F400EF75F00A84229002B3E0C3940122900190
:10390400CEE0FFFD3395E0FCED229002B31242E7D6
:10391400EC4D4E4F22FFE4FCFD9003757407F0223A
:103924002417F582E43401F583E0222419F582E4B6
:103934003401F583E022241AF582E43401F583E0AE
:1039440022241CF582E43401F583E022E493FDFB98
:103954003395E0FAEF6B22A3E493648094B022EFF2
:10396400F0900303E0FD2275F080EF0243A2C295BC
:10397400C2A4C29022901F63E493FF22A212923742
:103984007D0922900269F0901F54E4932290026A08
:10399400F0901F55E4932290026BF0901F56E4932D
:1039A4002290026CF0901F57E493223CF583E53893
:1039B400F0229002BC1243289002B822F09001F742
:0D39C400E0FFE4D39F229001CEE0FFC3227C
:1056DC00E49002ADF0A3F0C233A3F0A3F0A37405E1
:1056EC00F0E49001CDF0C208C2299001EA04F090D8
:1056FC00029B7404F0D20153D9BF75C990E4F5FF35
:10570C0012000312E5D112DD4612D8471235C3122E
:10571C00BE0712CEF953C77F12F6C112B823123945
:10572C0072C23512F30CC232C2017E107F3F1232AC
:10573C008212BE07901F63E49330E70B12B1A1D223
:10574C00257E107F49800BE4F5E3C296C2257E10BE
:10575C007F5012328212BE07901F63E49330E6062C
:10576C007E107F5880047E107F6012328212BE073A
:10577C00901F63E49330E40E7E107F691232821224
:10578C00BE07D213800C7E107F8012328212BE07AD
:10579C00C2137E107F9B12328212BE07E49001E985
:1057AC00F012373C12EFC478C67C017D017B007A85
:1057BC0000790D123540901F49E4939001D0F09080
:1057CC001F4AE4939001CCF0E49002ABF0D2069027
:1057DC00022BE510F09002ACE511F0900264E5129A
:1057EC00F012EFC41200033031167E107FAE12356A
:1057FC00C712BE077E1F7F4D12328212BE07C23106
:10580C00201C03309306301C19309316309603E499
:10581C00F5E312B82330250512B1A18005E4F5E3B8
:10582C00C296E54470030258D1300705209302D28A
:10583C009012361D503D90029DE0C39404503412DA
:10584C005F3575F01E84E5F07010AF0D12F5C6C013
:10585C0007125EEDD007EEB507192022030259A9F5
:10586C00AF0D12F5C6C007125EEDD007EE6F7003D8
:10587C000259A912361D40089002AFE004F08007CF
:10588C00E49002AFF0A3F09002AFE0D39403400B8E
:10589C00A3E02404F09002AFE014F09002AFE0B467
:1058AC00C8037404F09002B0E02414FFE433FEC388
:1058BC00EF9464EE648094804003744CF0D2341204
:1058CC004E190259AF300705209302C290AF0E1249
:1058DC00F5C6C007125F3CD007EE6F70030259A9E2
:1058EC00AF0D12F5C6C007125EF8D007EE6F70034D
:1058FC000259A990029CE004F0E0B43C0B90023EEB
:10590C00E004F0E490029CF090023EE0B4180990A0
:10591C00023DE004F0E4A3F090029CE030E00C9037
:10592C00023EE0700690023DE060667E107FBC1285
:10593C00328212BE0790023DE012348F128859A2B7
:10594C001292377D07125F2490023EE012348F12C0
:10595C008859A21292377D06125F2490029CE012A5
:10596C00348F12885912338E12C0B57E107FD41228
:10597C00328212BE0730AF05E5E620E0147E107FC0
:10598C00E712328212BE07D2AF202105C23512F3C4
:10599C000C90023EE0D39421400312373B43870125
:1059AC0085878730980312BEF3E4FF12F278301328
:1059BC0079AF0D12F5C6C007125EF8D007EE6F6016
:1059CC0024309614E5E330E00F7A01798512338C9C
:1059DC0012C0B512CEF9800D20960A7E117F2812C6
:1059EC00328212BE071237CEFE123470B507161271
:1059FC00387BB50710AF0D12F5C6C007125F03D088
:105A0C0007EEB507171236335012EF9439500DA329
:105A1C00E0FF74309F5005EF9439400E9002AD12A8
:105A2C0035031237DA4003125F63E558D3940F50F5
:105A3C0003025C65202503025C65303D03025C6556
:105A4C00900196E064416009A3E064416003025B4D
:105A5C00A8900186E064476003025BA81232D1FF74
:105A6C00ED3ECF2BCF3AFE0C7D2C123F52ED4C70FD
:105A7C00191234686F6013901F63E49330E50B9038
:105A8C0002ABE0C3940A4002C206901F66E493FF87
:105A9C00901F65E4934FFF901F67E4934FFFA3E4BF
:105AAC00934FFFA3E4934FFFA3E493F94F700302CA
:105ABC005BA82003651232D1FFED3ECF2BFBEF3AF2
:105ACC00FAC002C003901F671237A87D3C123F40FA
:105ADC00AA06AB07901F651237A87C0E7D10123FEB
:105AEC0040EF2BFDEE3AFC901F69E49375F00AA48D
:105AFC00FFE97A002FFFEA35F0CF2DFDEF3CFCD00B
:105B0C0003D002AF03AE02123F52ED4C6003025BB6
:105B1C00A81234656F7003025BA830030A7E117FF4
:105B2C003B12328212BE077B017A01798512338EC9
:105B3C0012C0B5301C6653E6FEE5416004640F707C
:015B4C005602
:105B4D00E49002B2F09002B2E0FF2485F582E434D5
:105B5D0001F583E0FE90029DE05403123556EEF000
:0A5B6D009002B2E004F0E0B441DB66
:105B77009002ABE0FF90029DE05403123693EFF0E2
:105B870090029DE004F07F0412C4C7C203123612CC
:105B9700FFA3E024D02F900002F08002D20343E657
:105BA700019002ABE0D394F04003740AF01237CEB1
:105BB700FE1234706F702412387B6F701EAF0D1297
:105BC700F5C6C007125F03D007EE6F600E9002ADF7
:105BD7001235031237DA4003125F63900190E0FF3A
:105BE700C39430403FEFD3943950391237094034CA
:105BF700EFD39439502EEF1237D2F91234706F6009
:105C070023123325FBED3EFAE92401FFE433FE7D41
:105C17003C123FA7EDB5030CECB502089002ABE0D0
:105C270004F0800B1234656F6005E49002ABF0124C
:105C37003633502AEF94395025A3E0FF74309F5034
:105C47001DEF94395018EF1234696F601112361234
:105C5700900002F0E02FF0E49002ADF0A3F02006F0
:105C670016901F63E49330E50E9002ABE0C3940AED
:105C7700400512AE27D206125F3575F00F84E5F0A6
:105C87007013AF0D12F5C6C007125F0ED007EE6F87
:105C9700600312DA5FAF0D12F5C6901F4BE493FD58
:105CA7003395E0FCEF2DFFE43CFE1237EA7020AF9E
:105CB7000D12F5C6C007125F0ED007EE6F60109089
:105CC7001F64E49330E40812383E12EF95D2B3AF65
:105CD7000D12F5C67E001237EA7015AF0D12F5C624
:105CE700C007125F19D007EE6F6005C235128E48E4
:105CF700309313125F5020E0051239728052D2950B
:105D0700D2A4D290804AAF0D12F5C6C007125F1910
:105D1700D007EE6F603A30070A125F5020E004B2F6
:105D2700A48002C2A4300715AF0D12F5C6EF75F0B7
:105D37000384E5F07007300D04B2958002C2952008
:105D4700070E30900BAF0D12F5C6EF20E002C290A0
:105D5700AF0D12F5C6C0079001C6E0FF12F5C6AE3B
:105D670007D007EE6F7003025E1D9001C6E50DF0C8
:105D770053AEFEE5C720E0069002B17402F020257D
:105D870005C296E4F5E39001F6E0D39405400520BB
:105D97000D02D20D9002B1E0D394004002D2073039
:105DA7001C741236E0406F7E117F6712328212BE7A
:105DB70007C234124E199001EAE0C3942150301201
:105DC70036E0402B125F577E117F77A21292387D03
:105DD7000712BE079001EAE0FFE4FCFDFE900375A1
:105DE700F012885912338E12C0B512662C80C77E06
:105DF700117F8BA21292387D0612BE079001E41222
:105E070042AF900375740BF012885912338E12C08B
:105E1700B5C23512F30CAF0E12F5C6C007125F3CC0
:105E2700D007EE6F60199001C7E50EF09002B1E060
:105E3700FF7006EFD3940040069002B1E014F0AF74
:105E47000F12F5C6C007125F47AE07D007EE6F7097
:105E5700030257ED125F47C007AF0F12F5C6AE0733
:105E6700D007C3EE9F6401601A9001C8E0FF12F5E6
:105E7700C6C007AF0F12F5C6AE07D007C3EE9F64C3
:105E8700E9705A12397930E002D202EF30E2142079
:105E97009311D234124E19D204C23412F3E31266AC
:105EA7002C8027209331901F63E49330E1299001E0
:105EB700C8E0FF12F5C6EF6417701CAF0F12F5C6E6
:105EC700EF7014D234124E19D200125F5712662C9B
:105ED700C23512F30C8006C204C200C2029001C888
:065EE700E50FF00257ED8B
:105EED009001C6E0FF12F5C6AE07229001C6E0FF95
:105EFD0012F5C6AE07229001C6E0FF12F5C6AE0739
:105F0D00229001C6E0FF12F5C6AE07229001C6E051
:105F1D00FF12F5C6AE072212C0B57E107FD2A212B7
:105F2D0092387D0712BE0722AF0D12F5C6EF2290F3
:105F3D0001C7E0FF12F5C6AE07229001C8E0FF12BF
:105F4D00F5C622AF0D12F5C6EF22D23412F3E3904F
:105F5D0001EAE004F022E4F0A3F07F0112ED052246
:10DD4600C234124E1912F6C1C2AF12F42B12384069
:10DD560012EF952094FD3094FD2094FDC2B43094CA
:10DD6600FD12376F12EFC412352790010BE0FF1238
:10DD7600F62A90010B12DDA890010C12DDA8900185
:10DD86000D12DDB190010E12DDB190010FEFF0A37F
:10DD9600E0FF12F62A900110EFF0C23512F30CD212
:10DDA600AF22EFF0A3E0FF12F62A22EFF0A3E0FF86
:04DDB60012F62A2215
:0D004600C28712384012EF95D28702DD46C6
:10AE27009002B312434D000000017E117F9612324B
:10AE37008212BE0720960A7E117FB012328202BEAE
:10AE470007C234124E1912F6C1C2AF20A505123936
:10AE57000E70F89002B31235187002801A9002B380
:10AE670012434D0000000130A50512390E70F8900D
:10AE770002B31235187007D2AFC23502F30C900235
:10AE8700B312434D0000000130A5FDC2B420A5FD5B
:10AE970012376FC23512F30C7F0512C4C790018CAD
:10AEA70012361512AF478F0F90018E12361512AF5B
:10AEB700478F0E900190E075F00AA4FFA3E02F24BE
:10AEC700F2FF12F60A8F0D90022BE0F5109002ACFC
:10AED700E0F511900264E0F51212352790010BE0BE
:10AEE700FF12F62A90010B12AF3590010C12AF3505
:10AEF70090010D12AF3E90010E12AF3E90010FEF81
:10AF0700F0A3E0FF12F62A900110EFF07F0612C4BB
:10AF1700C712EC407E117FD01235C712BE0712CE82
:0DAF2700F97E117FDB12328212BE07D2AF1D
:10AF340022EFF0A3E0FF12F62A22EFF0A3E0FF12C3
:0EAF4400F62A22FFA3E024D02FFF12F60A22E5
:10DC5500E511900427122E38EEF0E51190042612F6
:10DC65002E1EEEF0E51090042A122E38EEF0E51087
:10DC7500900429122E64EEF0E51290042F122E9DC9
:10DC8500EEF0E51290042E122E1EEEF0E50F900434
:10DC950032122E9DEEF0E50F900431122E64EEF057
:10DCA500E50E900435122ED7EEF0E50E90043412F1
:10DCB5002E71EEF0E50D900438122ED7EEF0E50D3D
:09DCC500900437122E71EEF022DA
:10E52700ED14601414603014603C240370469004AA
:10E5370000122F0B745B8018900400122FA7745BD6
:10E54700F0900401122FBB745BF0EF122ECE745DB6
:10E55700122FB7745DF022900400122FD774201287
:10E567002FB77420F022900400123025740A122F5E
:05E57700B7740DF02255
:05DDBA009002EFEFF004
:10DDBF00A3F09002F0E0FFC39404505B7D0312E5E3
:10DDCF00279002F0E0900439122DFC742EF0E4F548
:10DDDF0038F53974672539F58274023538F583E0E3
:10DDEF00FF9002F0E0900401122E0AE5822539F52A
:10DDFF0082E5833538F583EFF00539E53970020593
:10DE0F00386419453870CC9002F0E0FF129FF29001
:0DDE1F0002F0E004F0809B9002EFE0F513AC
:01DE2C0022D3
:10E767009004241233EF742CF0EF1230647420F00D
:10E777009004281233EF742FF090042B1234037493
:10E787002FF09004301234037420F09004331234C5
:10E797000A743AF090043612340A743AF090042C52
:0EE7A7001234187432F0EF122EF57430F02296
:029FF200AE07B8
:109FF40090041A122F23742CF0E4F53AF53B7459AB
:10A00400253BF582741F353AF583E493FF90041BD6
:10A0140012307CE582253BF582E583353AF583EF02
:10A02400F0053BE53B7002053A6409453A70CFAF51
:10A034000612E767123035742CF0EE1231F77420F3
:10A04400F0EE122FAE7447F0EE122F777437F0EE65
:10A05400122F807432F090044B1233E8742CF09079
:10A06400044C1234117420F0900472122F59742F7E
:10A0740012300174331230177431122F12123076E9
:10A08400742CF090046E122EB67420F090044D12CD
:10A0940034117420F0900451123440742CF0900464
:10A0A400521234407420F0901F64E493FF20E415AE
:10A0B400EE122FEC7441F0EE123052742FF0EE12C7
:10A0C400300E744EF0900455123447742EF0900400
:10A0D40058123447742CF09004591234777420F0D9
:10A0E40090045A1234777420F0EE122EFFE0D394C9
:10A0F40039500D75F080EE122F02E0C394305009F0
:10A10400EE12305B7441F0800A75F080EE12305E1E
:10A11400742EF09004601234EC742CF090046112EC
:10A1240034EC7420F0EF75F08030E309EE12302F38
:10A13400742EF08023EE90046712350EEE12302C4C
:10A144007420F0EE122F3B7441F0EE122F45742F61
:10A15400F0EE122F6E744EF090046212350A75F010
:10A1640080EE9004681243A2742CF09004691235B6
:01A174000AE0
:01A1750022C7
:10F3290012EFC49001F0E50FF0A3E510F0A3E51189
:0CF33900F0A3E512F09001EFE50EF022C9
:10F1D30012CEF930250F3010067E117FF4800A7E9F
:10F1E300127F1A80047E127F3812328212BE070207
:02F1F300C93B16
:10CEF900303E0302CFA5E511C4540F2430FD900143
:10CF0900F7B430057420F08002EDF0E5111237B95D
:10CF1900742FF0E510C41234AAE5101234AAA374D0
:10CF29002FF0E512C41234AAE5121234AAA3742010
:10CF3900F0E50FC4540F2430FDB43006A37420F07B
:10CF49008005900200EDF0E50F9002011237BC74E4
:10CF59003AF0E50EC41234AAE50E1234AAA3743AC3
:10CF6900F0E50DC41234AAE50D1234AA123888FD71
:10CF7900C36480948090020A50071237FAAD078083
:10CF890003742BF0ED123895ED12374712338412E2
:0CCF9900C0B57D179001F7E4F0A3DDFCAB
:01CFA5002269
:10C88000303E0302C93A9001F2E0FFC4540F243055
:10C89000FE9001F7B430057420F08002EEF0EF1244
:10C8A00037B9742FF09001F1E09001FA1234A2A38D
:10C8B000742FF09001F3E09001FD1234A2A37420D4
:10C8C000F09001F0E0FFC4540F2430FE900200B459
:10C8D00030057420F08002EEF0EF540F2430900207
:10C8E00001F0A3743AF09001EFE0FDC4540F24303E
:10C8F0009002031234A8A3743AF09001EEE0FDC454
:10C90000540F24309002061234A8123888FEC364F3
:10C9100080948090020A50071237FAAE07800374A1
:10C920002BF0EE123895EE12374712338412C0B551
:0AC930007E179001F7E4F0A3DEFC8F
:01C93A0022DA
:10C93B007E127F4E1235C712BE0712343912369C47
:10C94B00FF12F11812343912377BFF12F1187F2EB8
:10C95B0012F1181234391236A7FF12F118123439AA
:10C96B00123786FF12F1187E127F63A21292387D66
:10C97B000812BE07786DE6FE08E6123919128859BF
:10C98B0012398012C0B57E127F8B1236B212BE07DF
:10C99B0090062E1242AF900375740CF01288591248
:10C9AB00338E12C0B5301A3DD3786EE6940018E67C
:10C9BB00940040319001F6E004F07E127FB2123603
:10C9CB00B212BE079001F6E0D39406400E7E127FA2
:10C9DB00C11236B212BE07D20D800A7E127FD3125D
:0BC9EB0036B212BE0712327E02BE07F9
:10E5D10075F1BF75F2FF75F3FF75F47E75F5FF7583
:10E5E100A41D75A5E775A61975A77A75AE8075D4B2
:10E5F100C875D5FF75D61975DFFF75E10775E2405E
:10E6010075E301C22AD2A075C70312F1AF7E127F52
:10E61100D71235C712BE077E137F0212328212BE95
:04E6210007C2B42256
:108E4800E4F529F52A12C648901F64E49330E63801
:108E5800203E357E137F2A12352012BE0712343980
:108E680012369C9001F71234382414F582E4340148
:108E780012342E1236A79001FA123438123786901F
:108E880001FB12338412C0B512343912377BFFB498
:108E9800340B1234391236A7D394354006EFD394E5
:108EA80033500D12343912369CB43004C207800294
:108EB800D207E4F508C21F901F649330E25512A64A
:108EC800CF901F64E49330E00A7E137F3A12328217
:108ED80012BE07901F64E49330E638203E357E13B7
:108EE8007F5F12352012BE071234391239249001DF
:108EF800F71234382418F582E4340112342E12396A
:108F08002F9001FA12343812393A9001FB12338447
:108F180012C0B5901F64E493FF30E47A30E00A7E13
:108F2800137F7312328212BE07752900752A0190C9
:108F380001CCE0FFC3E52A9FE5299400503DC237E4
:108F480012ACF9901F64E49330E0259001CCE0C3A3
:108F5800952AFFE49529FEC3EF9405EE940050107E
:108F68007E137F9312352012BE0712335D12C0B5EF
:108F7800052AE52A70020529028F37901F64E493B9
:108F880030E613203E107E137FAA12352012BE074A
:108F980012335D12C0B5901F64E49330E30E1238AB
:108FA8003E12EF953025057F0112ED05901F64E410
:108FB8009330E35D12B71C901F64E49330E00A7E9F
:108FC800137FB712328212BE07901F64E49330E613
:108FD80040203E3D7E137FCC12352012BE0712344E
:108FE800391239459001F7123438241DF582E434DA
:108FF8000112342E123710E09001FA123438241F6F
:10900800F582E43401F583E09001FB12338412C049
:10901800B5D2B312F57D7F011230AE123710EEF0E3
:099028000FEF640870F2750807EF
:01903100221C
:10E8E9009003041243E0803A90030BE0D394004074
:10E8F90039E014F0E47B0AFAF9F89003071235734A
:10E90900EB2430FF9003041243C090030BE0F5821F
:10E91900758300EF123F1E9003071242AF7B0A1264
:0BE9290038C090030712432880BE2274
:1093EB00D234E49002B4F0A3F09002B412371D947F
:1093FB0034EE9400501474F72FF58274013EF5830C
:10940B00E4F09002B412350480DF900241742FF027
:10941B00900244F09002497420F090024C743AF0A0
:10942B0090024FF012CB6B90023BE0FEA3E0FF4E9D
:10943B00601A901F461239507002EE6A600EED7082
:10944B000B7E1F7F467A02793B1295AD900181E02E
:10945B00FEA3E0FF4E601A901F471239507002EEC8
:10946B006A600EED700B7E1F7F477A017981129532
:10947B00AD901F4DE493C3648094B0401212395BDE
:10948B00400D901F5012395C400512395B503FC2A2
:10949B00117E137FDD12328212BE07D2B4C2877DDA
:1094AB00407C067F0112EF95D287C2B4D2B4C2358D
:1094BB0012F30C20110C7E147F3012328212BE0775
:1094CB0080F17E147F5312328212BE078002D211BA
:1094DB009002B3E0C394055051E4A3F0A3F09002C3
:1094EB00B412371D9405EE9400502674532FF58259
:1094FB00741F3EF583E493FFD3648094B95008C383
:10950B00EF648094B05002C2349002B412350380E1
:10951B00CD901F5CE493642C6002C2349002B3E0E4
:10952B0004F03034AB740AF080A620340C7E147F28
:10953B005E1235C712BE07801AC213C222C2251291
:10954B00397930E402D213EF30E602D222EF30E762
:10955B0002D22512C4059002677453F0A314F09045
:10956B001F53E49312398712399112399B1239A583
:10957B0090026DF012397930E20890026E7448F067
:10958B00800FEF90026E30E1057444F08003745F3E
:10959B00F09002667404F0D235128E4812F70C026A
:0295AB00C405F5
:0D95AD007B019003B4F0A304F012EE28221D
:10B82300E49002B3F0C295D2A4C29012EFC4901F69
:10B8330064E49330E0107E147F7412328212B921D3
:10B8430012327E12BE0730930302B8F0301C03029B
:10B85300B9029001EBE0600302B902C20F7E147FCC
:10B863009312328212BE0712C93B7E147FC1123279
:10B873008212BE079001E8E060527E147FCB12353E
:10B88300C712B92112662C901F64E49330E00A7E3C
:10B89300147FDC12328212BE07C23512F30C901FE2
:10B8A30064E49330E0067E147FE78018E544D39484
:10B8B300004019C234124E19901F64E49330E0EC37
:10B8C3007E147FEF12328212BE0780E09001E8E01F
:10B8D3007014901F649330E00A7E157F0212328247
:10B8E30012BE0712662CC23512F30C8012301C0FE5
:10B8F3007E157F0F12328212BE07D23412F3E39009
:10B903001F64E49330E01612EFC47E157F301232C9
:0DB913008212BE0712CEF912327E12BE075C
:08B920002212BE0712CEF9222B
:10F27800E5C930E60E201208D212EF701012D1A4A0
:0EF2880002008E301202C212E4F5A9F5B9227E
:088A5C009002EFEEF0A3EFF031
:108A6400900183E0F539A3E0F53A12379712371AEB
:078A74009404EE940050474A
:108A7B00C374039FFFE49EFEEF7802C333CE33CE65
:108A8B00D8F9FF9002FBEEF0A3EFF0AE39E53AA870
:108A9B0007088005CEC313CE13D8F9540F1235D85F
:108AAB00400674272538F53812358174012FF5826D
:028ABB00740441
:108ABD001234FA80AF1238092405F5827404123786
:018ACD009117
:108ACE0012371A74059FFFE49EFEEF7802C333CE71
:108ADE0033CED8F9FF9002FBEEF0FAA3EFF0FB9045
:108AEE0002F51242AFA9031235CE400312375A12C5
:098AFE00358174062FF582740421
:108B07001234FA9002F9E07004A3E0640670B81218
:108B17003861240CF58274043CF5837420F0786F77
:108B2700E6FAEAC4540F2430F538740D2DF5827433
:108B3700041239AFD39439400312375AEA540F124B
:108B470035D8400312375A123861240EF58274045F
:108B57001239AF786FE6FA08E6FBEAC4F854F0C8B2
:108B6700EBC4540F48540F1235D8400312375A74C8
:108B77000F2DF58274041239AFEB540F1235D8401C
:108B87000312375A123809FF2410F58274043EF590
:108B970083E538F0302610B4300D74102FF5827449
:108BA700043EF5837448F074112FF582740412376C
:108BB7009112371A9408EE94005026C374079F2524
:108BC700E025E0F99002F11242AF1235CE400312D0
:108BD700375A12358174122FF58274041234FA80D1
:108BE700D020250B1238091235E87444F0801E3066
:108BF700060B1238091235E8744CF080101235E074
:108C0700E0B4300974122F1235EA7445F0300C13B2
:108C17001235E0744CF074132FF58274043EF5831B
:108C27007442F090029CE0FF75F00A842430FE1233
:108C370038612413F58274043CF583EEF0EF1234A7
:108C4700702430FF74142DF58274043CF583EFF023
:018C570022FA
:0BEF95009002E3EFF0A3ECF0A3EDF01E
:10EFA000E4A3F09002E3E0FF9002E6E0C39F501379
:10EFB0009002E4E0FEA3E0FF12002E9002E6E004DF
:03EFC000F080E0FE
:01EFC300222B
:10ACF90030372AE5087005752C078005E50814F535
:10AD09002CE52C123671E0FF123439123675EFF04A
:10AD1900E52C75F00EA4123811E002AE1312AE1D27
:10AD2900D23812C3418E2D8F2EC23812C3418E2FB5
:10AD39008F3012AE1DAC2DAD2EEC123BD49002B863
:10AD4900124328AC2FAD30EC123BD41239B612386D
:10AD5900C712381B1238C7123AC91239B612363D12
:10AD690012381B12363D123AC99002BC1238211210
:10AD790042AF9002B81242CB1239D812CFAA12EDC3
:10AD8900417BE67A2E79657842123AC9E4FBFAF9F1
:10AD9900783F1239D8123C0D9002B6EEF0A3EFF0CD
:10ADA9009002B7E0F52BE53264517004E531643F58
:10ADB9006024752B639001CDE0C39414500A7E156D
:10ADC9007F4E12328212BE079001CDE0C394195012
:10ADD90014E004F0800FE532B4510AE531B43F05BF
:10ADE900E49001CDF0E52BB4FF03752B5AE52B1246
:10ADF90034702430FF123439123675EFF0E52B75B3
:10AE0900F00A84F52B1234702430FF1234391238C9
:03AE190011EFF046
:0BAE1C00227F4A12D9DF8E318F3222D4
:10D1A40090029F740CF0A37403F0E49002A2F09038
:10D1B40002A4F09002A6F09002A8F0901F5393905E
:10D1C40002A1F0901F54E4939002A3F0901F55E441
:10D1D400939002A5F0901F56E4939002A7F0901F3D
:10D1E40057E4939002A9F0E4A3F012EAEF901F71C0
:10D1F400E493FE740193FF901F73E493FC74019312
:10D20400FD7BFF7A1F79AB9002BA1243E07B017A6F
:10D2140002799F9002BD1243E0901FC9E4939002EB
:10D22400C0F0901FCAE4939002C1F0901FCBE49326
:10D23400FB7401939002C2CBF0A3EBF07BFF7A1F47
:08D24400797512AA9202F3B100
:085F6D009002EFEFF0A3EDF04C
:105F7500C235C2361238D3A4FF9002F1E5F0F0A382
:105F8500EFF0E4A3F0A3F09002FB12434D000000F4
:105F9500009002FF12434D00000000900265E0549E
:105FA50003900303F07E11900003123696E5822ECE
:105FB500123562E0B42C04C2358002D235E4900279
:105FC500F5F0A3F09002F5E0FFC3944040030263AF
:105FD50001900303E0FA123556E0FBB42C11900250
:105FE500F6E004F0A312434D000000000262F890B1
:105FF50002F6E024FD700302609114700302612033
:106005001470030261361470030261EC24FD700301
:1060150002621F240860030262F81235156003024C
:1060250062F89002EFE0FD900431122E1812308CC8
:10603500ED1232001235BC90000512309E9002EF31
:10604500E0FD900434122E25123761FC900303E025
:1060550090000612309AED122FC21235BC9000073F
:1060650012309E9002EFE0FD900437122E32123767
:1060750061FF75F042EA9000081243A2E5822F12F3
:1060850030A475F080ED9004380261E51235156095
:10609500030262F89002EFE0FD900401122E3E1219
:1060A500308CED1232511235BC90000512309E90A5
:1060B50002EFE0FD900403122E50123455900006B5
:1060C50012309EED1232631235BC90000712309EDD
:1060D5009002EFE0FD900405122E5E1234559000FB
:1060E5000812309EED1232751235BC90000912303F
:1060F5009E9002EFE0FD900407122E6B123455902E
:10610500000A12309EED1232921235BC90000B122D
:10611500309E1238D39004090261E51235156003EB
:106125000262F89002EFE090040A122E78EB026208
:10613500DE12351560030262F89002EFE0FD90046F
:106145000B122E8512308CED1232A41235BC900044
:106155000512309E9002EFE0FD90040D122E97126D
:10616500345590000612309EED1232B61235BC90B1
:10617500000712309E9002EFE0FD90040F122EA34F
:1061850012345590000812309EED1232C81235BCFB
:1061950090000912309E9002EFE0FD900411122E3E
:1061A500B012345590000A12309EED12334B123561
:1061B500BC90000B12309E9002EFE0FD900413128C
:1061C5002ED1123761FF900303E075F04290000C69
:1061D5001243A2E5822F1230A475F080ED900414CD
:1061E5001243A2EF0262DE12351560030262F890D7
:1061F50002EFE0FE900415122EDDEBF0EE123209EF
:106205007420F0EE1232127420F0EE12321B74205C
:10621500F0EE12323F74200262DE12351560030281
:1062250062F89002EFE0FD900429122EF812308CEE
:10623500ED122F891235BC90000512309E9002EFA9
:10624500E0FD900426122F0C1234559000061230F2
:106255009EED122F921235BC90000712309E9002CF
:10626500EFE0FD90042E122F24123761FC900303FA
:10627500E075F04290000812309EED122F9BEFF072
:1062850074862CF582E43401F583E024D0FFEB120B
:1062950036162FFF12F60A90022B123761FE24875D
:1062A500F582E43401F583123615FF74882EF582E4
:1062B500E434011266219002AC123761FE2489F59F
:1062C50082E43401F583123615FF748A2EF582E4D3
:1062D5003401126621900264EFF09002F71242AF8A
:1062E500EF2401FFE43EFEE43DFDE43CFC9002F7B3
:1062F5001243289002F5E004F0025FC99002EFE036
:10630500FF900442122F347447F0EF122F77745028
:10631500F0EF122F807453F0EF122FF87420F0EF86
:1063250012306D7446F0EF1230837469F0EF12315C
:10633500CA7478F0EF1231D37420F0EF1231E5749E
:106345002012396475F04290000B1243A2E0FF90D1
:1063550002EFE0FE900432122F3EEFF090000A1299
:1063650036C01231DC12396390000D1236C1122F7E
:10637500C2EFF090000C1236C01231EE123963757F
:10638500F04290000F1236C4122FCBEFF075F04299
:10639500ED90000E1236C412322DEFF0EE12324897
:1063A5007430F0EE12325A7420F0EE12326C122F65
:1063B500DE122FDE7420F0EE1232897420F0EE1218
:1063C500329B7420F0123035742CF0EE1232AD741D
:1063D50020F0EE1232BF7420F0EE12334212307606
:1063E500742CF075F080EE90046E12350EEE1232BC
:1063F500247420F0EE1233547420F0EE1233AC7492
:1064050020F075F080EE90047212350EEE1233B561
:106415007420F0900474122F5974201230017420E6
:106425001230177420122F127420F0EE1233BE743E
:1064350020F0EE1233D47420F090047C122EB67442
:1064450020F01233E512363640030264D51233E5E7
:10645500E0D39439507A75F080EE122F8C123636CF
:10646500506E75F080EE122F8CE0D394395061EEAA
:1064750012303F123636505875F080EE123042E039
:10648500D39439504B75F080EE122F951236365055
:106495003F75F080EE122F95E0D394395032EE120D
:1064A5003048123636502975F080EE12304BE0D365
:1064B5009439501C75F080EE122F9E12363650100E
:1064C50075F080EE122F9EE0D3943950030265FBE0
:1064D5009002EFE0FF900429122F487437F0EF1275
:1064E5002F897437F0EF12303F7437F0EF122F9287
:1064F5007437F0EF1230487437F0EF122F9B743772
:10650500F0EF1231DC7430F0EF1232007430F0EF3E
:106515001231EE7430F075F080EF122FC57430F043
:10652500EF12322D7430F0EF122FCB7430F0EF12E2
:1065350032367444F0EF1232517441F09004031274
:1065450034187454F0EF1232637445F09004051258
:10655500344E7420F0EF1232757449F0900407122E
:10656500344E7453F0EF1232927420F090040912F5
:10657500349B7449F090040A12349B744EF09004D5
:106585000B1234F37456F0EF1232A47441F09004F8
:106595000D1234F3744CF0EF1232B67449F09004D6
:1065A5000F1237687444F0EF1232C87420F090046B
:1065B50011123768744FF0EF12334B7452F075F0C7
:1065C50080EF90041312350E90041412396B744643
:1065D500F090041512396B7449F0EF1232097458B2
:1065E500F0EF1232127420F0EF12321B7449F0EF03
:1065F50012323F7453F01238D3A4246AF974043567
:10660500F0FA7B01900303E0123693E0123649124B
:0B661500E8E9900265E004F0E4F558AD
:0C66200022F583E024D02FFF12F60A229E
:10AF5200901F64E493FE30E41EED123671E0FC12A1
:10AF62002FEBEC12357A123811E0FC123051EC1250
:10AF7200300C7420F08011122FEB7441F01230511A
:10AF8200742F12300C744EF0EE30E235ED75F00E87
:10AF9200A412393AFE122FA412357912392FFE1259
:10AFA2002FD41235792418F582E43401F583E0FEBA
:10AFB200123022123579123924FE122EFEEEF08062
:10AFC2001F122FA47420F0122FD47420F0EF12302D
:10AFD2005B7441F0123022742FF0122EFE744EF088
:10AFE200ED75F00EA4123786900457123395123580
:10AFF200791236A790045612339512357912377B9F
:10B002009004541233DD12357912369C9004531297
:10B0120033DDEEF0901F64E49330E33CED75F00E07
:10B02200A4123710E0FE122F08123579241DF58282
:10B03200E43401F583E0FE122F3A123579123945D4
:10B04200FE122F44123579241BF582E43401F58374
:10B05200E0FE122F6DEEF022122F087420F0EF1294
:10B06200302C7420F0122F3A7441F0122F44742FB6
:08B07200F0122F6D744EF02264
:104E1900E4F533F532F531F530F537F536F535F595
:104E2900349002E712434D00000000E49002EBF0D9
:104E3900A3F0E54470030256D1301C0330930920D6
:104E490012062034030256B612F6C1E4F5E38513BF
:104E59002A301C0920930612F3FC12F718E4F52BEB
:104E6900E52BC3954440030256A7AF1312DDBAE5FB
:104E79002AC39404400302566B1233C7FF640460CB
:104E890009EF64056004EFB40604D20B8002C20B7B
:104E99009008001233CAFEA3E0786FA60608F690C0
:104EA900080D1233F9540FF52C300B03025076E438
:104EB900F52E752F03752F03E52F75F00F20E00FE1
:104EC9001238A2123562E0540FF52D052E800C120E
:104ED90038A2123562E0C4540FF52D7430252DF532
:104EE9002DD3943940067407252DF52DE52A122F67
:104EF900AEE582252F123562E52DF0052FE52FB499
:104F090009B61233F6C413135403F52E14600F14A3
:104F1900601114601324037012752FEE800D752F24
:104F2900EF8008752FF08003752FF1123734246F45
:104F3900F9740435F0FA7B01AF2F12364A12E8E909
:104F49001233F6543FF52D123470900474122DF774
:104F5900EFF0E52D75F00A84F52D12347090047385
:104F6900122E05EF123733246AF9740490080812D7
:104F7900339D12364912E8E9123734247AF9740458
:104F890090080C12339D12364912E8E990080C1268
:104F99003424D39464400BC21AE49001F6F0C20D94
:104FA900800B301A069001F6E004F0D21A12348010
:104FB900FFE4FCFDFEFBFA7901F81240D61238AF86
:104FC9001242AFC006C00790080A1234837B00FA68
:104FD900E4F9F8D007D0061240BB1238AF1242CB21
:104FE90090080B12354CFFE4FCFDFE1240BB900209
:104FF900E3124328123421FEA3E0FF900183EEF06F
:10500900A3EFF0E48F338E32F531F530AD31AC30AA
:105019007B0FFAF9F81240D68F338E328D318C30EE
:105029001238DB123573E5332FFFE5323EFEE531E9
:105039003DFDE5303C8F338E328D31F530123734FA
:10504900243AF9740435F0FA7B01C003C002C001A7
:105059001238DB123573AC00AD01AE02AF03900319
:105069000B7406F0D001D002D00312E8E9AD2CAFE1
:105079002A12AF52300B030253FD12386AD3123889
:10508900E750030251AA7E157F681235C712BE0781
:105099007E157F801236B212BE07AF0CAE0BAD0A79
:1050A900AC091256D212338E12C0B57E157F8F12FB
:1050B90036B212BE0712386A1256D212338E12C095
:1050C900B57E157F9A1236B212BE071235F29003D9
:1050D90075740CF012885912338E12C0B51235F25C
:1050E900E47B587A02F9F8D3124224507090029C5A
:1050F900E02402FFE433FE3395E0FDFCE47B3CFA57
:10510900F81240D6C004C005C006C00790023EE0B0
:10511900FF7E007C0E7D10124479123640D007D0F4
:1051290006D005D0041240BBC004C005C006C007A4
:1051390090023DE0FFE4FCFDFE7B807A517901F8A5
:105149001240D6123640D007D006D005D0041240FE
:10515900BB1236401235F2D312422440247F017E1D
:10516900007D0F7C00C31238E75016C3E4950CFE8E
:10517900E4950B9002EBF0A3CEF0D20E12377180BA
:1051890016850C33850B32850A318509307E157FEA
:10519900AD1236B212BE077E157FC512328212BE1B
:1051A90007C3E533950CFFE532950BFEE531950A0A
:1051B900FDE5309509FC9002E71243289002E712B9
:1051C90042AFEF250CFFEE350BFEED350AFDEC3550
:1051D900098F0C8E0B8D0AF5099002E71242CB90CC
:1051E90002EBE0FEA3E0FFE4FCFD1240BB9002E706
:1051F9001243289002EBE07002A3E06007E49002FA
:10520900EBF0A3F0E4FFFEFDFC9002E71236EB5051
:105219000302531E12356A90010BE02BF012356A16
:105229007B3C1238C090010CE02BF0E47B107A0E25
:1052390012356EE47B181238C190010DE02BF07B1A
:10524900807A517901780012357090010EE02FF0C3
:1052590090010BE0FFC3943C400E12384790010BBC
:10526900E075F03C84E5F0F090010CE0FFC3943C5C
:10527900400E12384790010CE075F03C84E5F0F0DF
:1052890090010DE0FFC39418401175F01812384AC7
:0B52990090010DE075F01884E5F0F0C6
:1052A40090010FE024FC602B24FE602724FD602382
:1052B40024FE601F24097026900110E05403700539
:1052C400FE7F1D80047E007F1C9002EDEEF0A3EFB4
:1052D400F080149002EDE4F0A3741EF080099002B3
:1052E400EDE4F0A3741FF090010EE0FFFD9002EDD9
:1052F400E0FAA3E0FBC39D7480F8EA648098501A36
:10530400C3EF9B90010EF0A3E004F0E0D3940C40B3
:085314008F7401F0A3E004F026
:10531C00808690010DE0900432122E441238F290E7
:10532C000431122E59EFF090010CE0900435122E3E
:10533C0044EEF0900434122F2AEFF090010BE09021
:10534C000438122E8BEEF0900437122F2AEFF090C7
:10535C00010EE090042A122E8B1238F2122DF4EF6B
:10536C00F090010FE0FF123470900427122F4E12B0
:10537C0038F2122E02122EE37430F0900110E0FF7E
:10538C0075F00A8490042E122F4EEEF0EF1234704A
:10539C00122E56EF1236CD9004391243A2742EF011
:1053AC00300E4B7E157FC612328212BE0790010F53
:1053BC00E0FF12F60A8F1190010EE0FF12F60A8F31
:1053CC0010900110E0FF12F60A8F1290010DE0FF11
:1053DC0012F60A8F0F90010CE0FF12F60A8F0E9056
:1053EC00010BE0FF12F60A8F0D12EC40C20E1237C1
:1053FC003BE52A1230647420123733FFAEF0C0063E
:10540C00C00712386A9002F11238B21242AF900201
:10541C00F5124328D007D006128A5C302229E4FD0D
:10542C00AF2A12E527AF2A129FF21237342400F963
:10543C00740435F0FA7B01A21292377D0A12C0B5C2
:10544C007D03AF2A12E5271233C7FF64056008EF0E
:10545C00640660030254F5200B030254F51233F674
:10546C00900431122E10EFF01233F6900432122EFB
:10547C002B123547C4900434122E7E1235479004FB
:10548C0035122EA912341FC4900437122EA91234CF
:10549C001F540F2430FF75F080E52A122FCE1234E2
:1054AC007EC4540F122DF412347E90042A122E2B2B
:1054BC00123655C4540F122E021236559004271270
:1054CC002E7E122EE37430F090080C12365A900493
:1054DC002E122E10EFF075F00FE52B90080C1243E6
:1054EC00A2E0540F122E56EFF0AF2A129FF2123395
:1054FC00C7FDB40405AF2A125F6D1233C7FF6405F4
:10550C006008EF64066003025655200B03025655E3
:10551C00EF640575F080701EE52A122FB1745012DD
:10552C0036CD122F7A74521236CD122F8374451247
:10553C002FF57456801CE52A122FB1744E1236CDFD
:10554C00122F7A74451236CD122F837457122FF501
:10555C007420F0E52A12306D7420F0E52A123083A5
:10556C007454F0E52A1231CA7449F0E52A1231D389
:10557C00744DF0E52A1231E57445F0E52A12322417
:10558C007420F0E52A1233547420F0E52A1233AC5F
:10559C007420F0E52A1233B51236CB900474123510
:1055AC000EE52A122F647420F0E52A1230037420C1
:0955BC00F0E52A1230197420F008
:1055C500E49002EDF09002EDE0FFC394195013E56D
:1055D5002A12323612355F7420F09002EDE004F0A5
:0255E50080E361
:1055E700E52A1232487430F0E52A12325A7420F054
:1055F700E52A12326C7420F0E52A122FE27420F0AB
:10560700E52A1232897420F0E52A12329B7420F0C1
:10561700E52A123036742CF0E52A1231F77420F09F
:10562700E52A1232AD7420F0E52A1232BF7420F059
:10563700E52A1233427420F0E52A1233BE7420F0B3
:10564700E52A1233D41236CB90047C12350E852A04
:1056570013052A052BE52B65446003024E78752A4E
:1056670004024E78301C33209330AF130513EFC379
:105677009403400E7D017F007E0212E0C3E4F51320
:105687008018E5132401FFE433FEEF7807C333CE18
:1056970033CED8F9FFE4FD12E0C3E4F52A024E69E0
:1056A700301C0C20930912F3FC12F71812C70620BE
:1056B7002107C23512F30C800312F3CA75E301C246
:0A56C7002BE490029DF0900265F0C4
:0B56D10022900375740CF0128859221F
:10D84700D205D295D209D2A4D20AD290D21AC20D49
:10D85700E49001F6F09001EBF012F6C112F3CA1250
:10D86700F4F3C217C21CC21912EF65E4900282F0EA
:10D87700C2A3D283D2B5C21212F6FFC2A3D283D2F9
:10D88700B5D2AF30930A7E157FE112328212BE07FE
:10D89700E4F5081293EB7F011230AE123710EEF069
:10D8A7000FEF640870F275080790062E12434D00BB
:10D8B700000000E4786DF608F67E157FF6123282D6
:0AD8C70012BE07D2A0C2121239727D
:01D8D1002234
:0D00760075F1F875F3EF43E28075F5FF2298
:10008E00E49002B3F012EAEF90022CE0645B60039E
:10009E00020E167E167F14120E4AE490022CF0A366
:1000AE00E01243F50DFE41034B4201524305344429
:1000BE00055E4505884605B24705D8480DFE490739
:1000CE00404A081F4B0DFE4C08934D08F24E01524C
:1000DE004F0A82500BC3510BFB520179530DFE5444
:1000EE000C85550DFE5601F7570278580CE759014D
:1000FE00525A033A610489620DFE63054964057321
:10010E0065059D6605C16705F36806AC6907746AE7
:10011E0008626B08806C08CC6D09306E09D66F0BC7
:10012E0081700BDF710C38720C50730C68740C9C60
:10013E00750CAE760CC6770CCC780D32790DE27A52
:10014E0000000DF47E167F25120E4A120F966420C3
:10015E00F030E5067E167F2E80047E167F49120E45
:10016E0054120F277E167F65020DF81236B9707283
:10017E00A3E090022C12372990022D1236894003EB
:10018E00020DFEEF94064003020DFEA3E0FFE49F76
:10019E004003020DFEEF94094003020DFE90022C67
:1001AE0012382890022D12379FE0D3943C400374EE
:1001BE003CF01238FA50037401F09002B3E0FF9055
:1001CE001F48E4936F60147E1F7F48120FB37E1694
:1001DE007F6E120F0812101C020DFE7E167F7F021C
:1001EE000DF87E167F90020DF81236B9706E12372A
:1001FE00249001F81239C0506AEF94065065A3E0BE
:10020E00FFE49F505EEF940950599001F712382881
:10021E009001F812379FE0D3947F4003747FF01261
:10022E0038FA50037401F09002B3E025E0F0E0FFDD
:10023E00901F49E4936F601E7E1F7F49120FB3908B
:10024E0002B3E09001D0F07E167FB6120F6D12331E
:10025E008E12C0B5800D7E167F7F80047E167FC6FF
:10026E00120E547E167FEC020DF81236B9600302A0
:10027E00032C1237249001F8F0900231E024D09034
:10028E0001F91239C04003020333EF940240030216
:10029E000333A3E0FFE49F4003020333EF940940CE
:1002AE0003020333A3E0FFE49F507AEF94095075E5
:1002BE009001F775F06412382B9001F8E075F00A92
:1002CE00A41237A09001F912379FE0D394FE400399
:1002DE0074FAF01238FA50037401F09002B3E0FF92
:1002EE00901F4AE4936F60307E1F7F4A7A0279B383
:1002FE0012366804F012EE289002B3E09001CCF0B2
:10030E007E167FF3120F8C12360512349412885912
:10031E0012338E12C0B5800D7E167F7F80047E173D
:10032E007F07120E5E7E167FEC020DF87E177F2B76
:10033E00120E5E12A1767E177F34020DF87E177FA5
:10034E003D120E687E107F3F120E68901F63E4937D
:10035E0030E6067E177F4680047E177F4F120E72A0
:10036E00901F63E49330E7067E177F5980047E1753
:10037E007F61120E72901F63E49330E5067E177F45
:10038E006A80047E177F80120E7C901F63E4933088
:10039E00E4067E177F9780047E177FB4120E7C9042
:1003AE001F63E49330E2067E177FD280047E177FB0
:1003BE00E6120E86901F63E49330E1067E177FFBF4
:1003CE0080047E187F0E120E86901F63E49330E039
:1003DE00067E187F2280047E187F32120E90901FA8
:1003EE0064E49330E2067E187F4380047E187F53C8
:1003FE00120E90901F64E49330E3067E187F6480A3
:10040E00047E187F71120E9A901F64E49330E406F6
:10041E007E187F7F80047E187F88120E9A7E187F4A
:10042E0092120F0812101C7E187FA0120EA47E18B6
:10043E007FA2120F8C901F65120F3D901F66120F38
:10044E003D901F6712348D120FEB901F6812348D82
:10045E00120FEB901F6912348D128859A212923727
:10046E007D0312C0B5901F6A12348D128859123353
:10047E008E12C0B57E187FB6020DF87E187FBF12A1
:10048E000EA41236B96003020526A3E0B42D047F34
:10049E000180027F001234B1901F4712367F5072D6
:1004AE00EFC39409506CA3E0642E7066A3E0FFE4E2
:1004BE009F505FEF9409505A1236F2B42D20123924
:1004CE000224501237C39DEC12362C40089001CEF8
:1004DE0074B0F08021C3EF9E9001CEF080181239D7
:1004EE00CA74509FFF1237C79F9001CE40057450BB
:1004FE00F08003E02EF0901F47E493FF9001CEE0D2
:10050E006F60097E1F7F47120FCF80137E187FC842
:10051E00800A7E187FDC80047E187FE7120EAE7E86
:10052E00187FF2020DF87E187FFB120EAE7F017E51
:10053E000012DCCE7E197F04020DF87E197F0D129B
:10054E000EB87F027E0012DCCE7E197F16020DF8E9
:10055E007E197F1F120EB87F037E0012DCCE7E192D
:10056E007F28020DF87E197F31120EC27F047E00A5
:10057E0012DCCE7E197F3A020DF87E197F43120EE1
:10058E00C27F067E0012DCCE7E197F4C020DF87EF5
:10059E00197F55120ECC7F057E0012DCCE7E197FA0
:1005AE005E020DF87E197F67120ECC7F06121026A2
:1005BE00020DF87E197F79120ED61235C312BE07C0
:1005CE0012CEF97E197F82020DF87E197F8B120EE4
:1005DE00D67E197F941235C712BE0712C8807E19B7
:1005EE007FA8020DF87E197FB1120EE01236B960A7
:1005FE000302069EA3E0FD642D7033A3E0FEC394B8
:10060E0030400DEED394395007EE24D09001CEF049
:10061E00900231E0FFC394304009EFD39439500378
:10062E001238529001CEE075F0FFA4F0802AEDC38F
:10063E009430401190022FE0FFD394395007EF24ED
:10064E00D09001CEF0900230E0FFC394304009EF1D
:10065E00D3943950031238521239CA6480947440BC
:10066E0029D3EF6480948E502190022CEFF0E4A3F6
:10067E00F0901F4C936F601F7E1F7F4C12366404E8
:10068E00F012EE287E197FBA800A7E197FC7800489
:10069E007E197FF1120EE07E1A7F1B020DF87E1A74
:1006AE007F24120EEA1236B97074A3E09001F9F0AD
:1006BE00900230E09001FAF0900231E09001FBF0F0
:1006CE00900232E09001FCF0900233E09001FDF0D8
:1006DE00900234E09001FEF0900235E09001FFF0C0
:1006EE00900236E0900200F0900237E0900201F0A6
:1006FE00900238E0900202F0900239E0900203F08E
:10070E0090023AE0900204F012E47612DD467E1179
:10071E007FD0120FC512CEF97E157FC580047E1ACA
:10072E007F2D120EEA12338812C0B57E1A7F5E023A
:10073E000DF87E1A7F67120EF4B2137C1F7D639044
:10074E0002EAE412100B3013094410F07E1A7F7087
:10075E00800754EFF07E1A7F85120EF4120F277E5B
:10076E001A7F9E020DF87E1A7FA7120EFE1236B960
:10077E0060030208111237095003020811EFD394D7
:10078E003240030208111237094078EFD3943450E7
:10079E0072123709406DEFD3943650671237094005
:1007AE0062EFD39439505C1237094057EFD3943629
:1007BE005051123709404CEFD394395046E4900211
:1007CE00B3F01238B99406501BE0FE242FF582E4E4
:1007DE003402F583E024D0FD742C2E1236D8ED129F
:1007EE00387380DE742C2F1236D8E4F07E1F7F65AE
:1007FE007B017A02792C9003B4F0A37406F012EE0A
:10080E002880077E1A7FB0120EFE7E1A7FD2020D4E
:10081E00F87E1A7FDB12328212BE07B225120F96B5
:10082E003025154480F07E1A7FE412328212BE0704
:10083E0075E30112B1A18012547FF07E1A7FF0127F
:10084E00328212BE07C296E4F5E3120F577E1A7F6C
:10085E00FD020DF87E1B7F0612328212BE0763E385
:10086E0001E5E330E0057F0112ED057E1B7F0F02EF
:10087E000DF87E1B7F1812328212BE07B2967E1BB7
:10088E007F21020DF87E1B7F2A12328212BE0730A4
:10089E0096067E1B7F3380047E1B7F4212328212AD
:1008AE00BE07E5E330E0067E1B7F5080047E1B7F93
:1008BE006612328212BE077E1B7F7D020DF87E1BF2
:1008CE007F8612328212BE07B2083008067E1B7F68
:1008DE008F80047E1B7F9E12328212BE077E1B7F8C
:1008EE00B1020DF87E1B7FBA12328212BE07B222FF
:1008FE00E490022DF07C1F7D639002EA12100B3003
:10090E0022094440F07E1B7FC3800754BFF07E1B3C
:10091E007FDD12328212BE07120F577E1B7FFC0242
:10092E000DF87E1C7F05123282120FE16003020960
:10093E00C5A3123596E49002B3F01238B99405505F
:10094E00181236D4E0FDEE901F53936D60069002A0
:10095E00B3740CF012387480E1EF640D70537E1C8A
:10096E007F0E12328212BE077E1F7F5312366474C0
:10097E0005F012EE287E1C7F25120E17901F53E4F1
:10098E0093FF123987FE123991FD12399BFC1239F1
:10099E00A5FB90026DF09002A1EFF09002A3EEF095
:1009AE009002A5EDF09002A7ECF09002A9EBF0807A
:1009BE00107E167F7F80047E1C7F4312328212BE11
:1009CE00077E1C7F61020DF87E1C7F6A1232821236
:1009DE000FE16003020A71900232E0642C600302A0
:1009EE000A71900235E0642C707990022F123596C0
:1009FE00900234E0900231F0900235E0900232F035
:100A0E00900236E0900233F0900237E0900234F01C
:100A1E00E49002B3F01238B9940950181236D4E0AB
:100A2E00FDEE901F59936D60069002B3740CF01298
:100A3E00387480E1EF640D70247E1C7F7312328255
:100A4E0012BE077E1F7F591236647409F012EE280B
:100A5E007E1C7F85120FC57E1F7F59800A7E167FF2
:100A6E007F80047E187FE712328212BE077E1C7FC3
:100A7E009E020DF87E1C7FA712328212BE077E1CCC
:100A8E007FB012328212BE077E1C7FD71235201223
:100A9E00BE0712CEF97E1E7FDC120E177E1F7F1F41
:100AAE0012328212BE077E1E7FBD12352012BE0785
:100ABE007E1F7F4D12328212BE077E1E7FC41235FC
:100ACE002012BE077E1F7F5912328212BE077E1E73
:100ADE007FD0123520120FF87E1C7FEB12352012BC
:100AEE00BE07901F46E493FFC364809480500BEFC3
:100AFE0012360B900375740E800B901F461236083B
:100B0E00900375740FF012885912338E12C0B57E91
:100B1E001C7FFD12352012BE07901F47E493FFC3C2
:100B2E0064809480500BEF12360B900375740E8018
:100B3E000B901F47123608900375740FF0128859E8
:100B4E0012338E12C0B57E1D7F12120F6D12338EB0
:100B5E0012C0B57E1D7F2D12352012BE071236052E
:100B6E0012349412885912338E12C0B57E1D7F46F0
:100B7E00020DF87E1D7F4F12328212BE0720932B7C
:100B8E009001F9E06420701CA3E064537016A3E09A
:100B9E00B452117E1D7F5812328212BE07123832A5
:100BAE00D2348002C23412D72C8003120E2E7E1D38
:100BBE007F73020DF87E1D7F7C12328212BE0720DB
:100BCE00930512F71E8003120E2E7E1D7F85020DD9
:100BDE00F87E1D7F8E12328212BE0720930512F709
:100BEE00218003120E3C7E1D7F85020DF87E1D7F37
:100BFE009712328212BE0720931F9001F9E0B420A3
:100C0E0012A3E0B4530DA3E0B4520812383212E12D
:100C1E00EC80107E187FE780047E1D7F601232828A
:100C2E0012BE077E1D7FA0020DF87E1D7FA9123217
:100C3E008212BE077F027E0012E41D7E1D7FB2026D
:100C4E000DF87E1D7FBB12328212BE077F037E001F
:100C5E0012E41D7E1D7FC4020DF87E1D7FCD123263
:100C6E008212BE077F047E0012E41DE49001CDF0D7
:100C7E007E1D7FD6020DF87E1D7FDF12328212BEE0
:100C8E0007E4FFFE12E41D7E197F70020DF87E1D33
:100C9E007FE812328212BE077F01121026020DF873
:100CAE007E1D7FF112328212BE077F057E0012E496
:100CBE001D7E1D7FFA020DF843EF10020DFE7E1E03
:100CCE007F0312328212BE077E1E7F0C12328212F8
:100CDE000FF87E1E7F1B020DF87E1E7F24123282BD
:100CEE0012BE077E1E7F2D12328212BE0720932A5D
:100CFE007E1E7F3D12352012BE077B017A02796778
:100D0E0012398012C0B57E027F677A0279677B0145
:100D1E00123838D23412D72C8003120E3C7E1E7F2E
:100D2E0048020DF87E1E7F5112328212BE07123615
:100D3E00B96003020DD2A3E0B42D047F0180027FBF
:100D4E00001234B1901F4612367F5072EFC39409D1
:100D5E00506CA3E0642E7066A3E0FFE49F505FEF3B
:100D6E009409505A1236F2B42D201239022432123E
:100D7E0037C39DEC12362C40089001CE74CEF08015
:100D8E0021C3EF9E9001CEF080181239CA74329FA3
:100D9E00FF1237C79F9001CE40057432F08003E0FA
:100DAE002EF0901F46E493FF9001CEE06F60097E17
:100DBE001F7F46120FCF80167E187FC8800A7E18BE
:100DCE007FDC80047E187FE712328212BE077E1E01
:100DDE007F5A80167E1E7F6312328212BE07D22386
:100DEE007E1E7F6C80047E1E7F7512328212BE07BD
:100DFE00E49002B3F01238B9940F500C742C2F12E9
:080E0E0036D8E412387380EDC0
:100E160022A21292387D0312BE077E1F7F53A212B2
:100E260092387D0912BE07227E1D7F60A21292387B
:100E36007D0912BE07227E1D7F60A21292387D09AF
:100E460012BE0722A21292387D0912BE0722A212F2
:100E560092387D0912BE0722A21292387D0912BE6F
:100E66000722A21292387D0912BE0722A2129238D8
:100E76007D0912BE0722A21292387D0912BE0722F0
:100E8600A21292387D0912BE0722A21292387D095B
:100E960012BE0722A21292387D0912BE0722A212A2
:100EA60092387D0912BE0722A21292387D0912BE1F
:100EB6000722A21292387D0912BE0722A212923888
:100EC6007D0912BE0722A21292387D0912BE0722A0
:100ED600A21292387D0912BE0722A21292387D090B
:100EE60012BE0722A21292387D0912BE0722A21252
:100EF60092387D0912BE0722A21292387D0912BECF
:100F06000722A21292387D0312BE07901F48E4936F
:100F1600FF3395E0FEFDFC9003757402F0128859CC
:100F2600227E1F7F637B017A02792C9003B4E4F062
:100F3600A304F012EE2822E493FFE4FCFDFE9003E6
:100F4600757402F0128859A21292377D0312C0B549
:100F5600227E1F7F637B017A02792C9003B4E4F032
:100F6600A304F012EE2822A21292387D0312BE07C5
:100F7600901F49E493FF3395E0FEFDFC90037574E2
:100F860002F012885922A21292387D0312BE07225D
:100F9600E490022DF07C1F7D639002EAF0A304F03A
:100FA600FB7A02792C12E85190022CE0227B017A1E
:100FB6000279B39003B4E4F0A304F012EE2822A25F
:100FC6001292387D0312BE07227B017A0179CE90F8
:100FD60003B4E4F0A304F012EE282212BE07900236
:100FE6002EE0642022128859A21292377D0312C085
:100FF600B52212BE077B017A027967A21292377D6B
:101006000912C0B522F0A304F0FB7A02792C12E88B
:101016005190022CE022A21292377D0312C0B52213
:0A1026007E0012E41D7E197F702287
:0300530002F29620
:10F29600C0E0C0D0E5BBB41E0875BB0475BCFC80DD
:0EF2A6000675BB1E75BCF8C2EDD0D0D0E032AC
:03008B0002DEA0F2
:10DEA000C0E0C0F0C083C082C0D075D000C000C048
:0DDEB00001C002C003C004C005C006C007C9
:10DEBD0012F639EF30E2337B013023257A0179F701
:10DECD007D3112ABC99001F7E090022CF09001F872
:10DEDD00E090022DF09001F9E090022EF0C2238027
:0ADEED00097A02792C7D0F12ABC9EF
:10DEF700D007D006D005D004D003D002D001D0007F
:0BDF0700D0D0D082D083D0F0D0E03228
:0FF62A00EFC4540F75F00AA4FEEF540F2EFF2209
:10F60A00EF75F00A84C454F0FEEF1234704EFF22F4
:10DA5F0075F43E20B278901F64E49330E01A7E1E76
:10DA6F007F8912352012BE0790029BE012348F126D
:10DA7F00885912338E12C0B590029BE0FF14F0EF5D
:10DA8F00C394025049901F64E49330E00A7E1E7FD6
