:0300000002D61E07
:0CD61E00787FE4F6D8FD75817002D665B7
:10D62A00024D64E493A3F8E493A34003F68001F265
:10D63A0008DFF48029E493A3F85407240CC8C33301
:10D64A00C4540F4420C8834004F456800146F6DFD0
:10D65A00E4800B010204081020408090E085E47EFB
:10D66A00019360BCA3FF543F30E509541FFEE493C5
:10D67A00A360010ECF54C025E060A840B8E493A38C
:10D68A00FAE493A3F8E493A3C8C582C8CAC583CAB7
:10D69A00F0A3C8C582C8CAC583CADFE9DEE780BE6F
:01E08500009A
:0EF43300F0EF25E024FCF582E43403F583229B
:03002B0002E95493
:10E95400C0E0C0F0C083C082C0D075D0189003FA64
:10E96400E475F00112341B75CBF075CA60C2CFC3D5
:10E974009003FBE0947D9003FAE094004009E4F0F6
:10E98400A3F0D22112F1F0D0D0D082D083D0F0D035
:02E99400E0326F
:10F1F000D39003FDE094009003FCE09480400774FA
:07F20000FFF5F012341B22A0
:0300730002F26333
:10F2630053E67F53917F53C77F43C78053C77F4381
:06F27300C78053C77F3283
:10ED3F00E49003FAF0A3F0FF12F434E4F0A312F41A
:10ED4F0033E0547FF00FEFB401EEE4F5C8538E0FAC
:0FED5F0075CBF0F5CA74FFF5CDF5CCD2ADD2CAA5
:01ED6E002282
:10F36C00538EF8438E04758902758CEA758AEAD23D
:02F37C008C22E1
:10F33300E4F59175959E75945875939E75925853FF
:03F343008EBF2258
:10F2CF00E4F591F595F59475937F7592FF538E3F05
:04F2DF004391042231
:10F37E0012F434E0FEA3E07003EE64807002D32238
:02F38E00C32298
:10F34600ED4C600E12F434ECF0A3ED12F433E0440D
:03F3560080F02222
:10CE2800436C6F636B206D756C7469706C696572A7
:10CE380020616C7265616479206C6F636B65642C2A
:10CE480020736B697070696E67207265696E6974AA
:10CE5800004F534349434E207C3D20307830333BCC
:10CE68002000434C4B4D554C20203D20307830302D
:10CE78003B2000434C4B4D554C207C3D20307838AE
:10CE8800303B200044656C617920666F7220636CCA
:10CE98006F636B206D756C7469706C696572207452
:10CEA8006F20626567696E200057616974696E67F3
:10CEB80020666F72206D756C7469706C696572207C
:09CEC800746F206C6F636B200095
:1000030075B28353A9F8E4F586758DCC438E082227
:10F2E3007586BCE58630E6FBE5A954F84404F5A928
:04F2F30053B27F2271
:10C88700E5B930E518901F7FE49320E00302C92C37
:10C897007ECE7F28A21292397D0902BBDD901F7FD1
:10C8A700E49330E0077ECE7F5912C92D43B203903F
:10C8B7001F7FE49330E0077ECE7F6A12C92DE4F52F
:10C8C700B9901F7F9330E0077ECE7F7B12C9374335
:10C8D700B980901F7FE49330E0077ECE7F8C12C92A
:10C8E70037E4FFFE0FBF00010EBE01F8BFF4F543AA
:10C8F700B9C0E4FEFF0FBF00010EBE01F8BFF4F59B
:10C90700E5B920E517901F7FE49330E0F37ECE7FF3
:10C91700B1A21292397D0912BBDD80E475A90375B6
:05C927008D30438E0875
:10C92C0022A21292397D0912BBDD22A21292397D0C
:05C93C000912BBDD2221
:0D002E000070007000DFF9EE6002DEF422C9
:1010440043757272656E742054696D653A2000535D
:10105400657474696E67733A00475053206F6E006D
:10106400475053206F66660044544147206F6E001A
:1010740044544147206F6666005072696E74696E0D
:1010840067204750532073656E74656E6365730003
:101094004E6F74205072696E74696E6720475053A6
:1010A4002073656E74656E63657300537461727446
:1010B4007570205461736B7320446F6E65004473C4
:1010C400702056657273696F6E3A2000706B7443BA
:1010D4006D64734F7574004E6F2064617461206693
:1010E4006F7220746865206C6173743A000900445F
:1010F40061797309486F757273094D696E7574650A
:1011040073004D616B696E67207375726520496E5B
:10111400746572727570747320656E61626C656457
:1011240020616E6420736D624275734F70656E004A
:1011340047505320554152542064697361626C6571
:10114400642000475053206973206E6F7420706FC1
:1011540077657265640044656C6179656420475005
:101164005320666978207361766520647565207400
:101174006F20534D42757320726563657074696F97
:101184006E004C617267652046696C652053697A0C
:1011940065004E65772046696C65205061727469FC
:1011A40074696F6E200046696C652073697A653ACC
:1011B40000537461727420726F7574696E65207463
:1011C4006F204750532073796E630061626F7274AD
:1011D400204750532073796E632073696E636520D2
:1011E400475053206973206F6666004E657720541C
:1011F400696D653A200054696D655374616D70655D
:1012040064204453502F4750532053796E63002079
:101214002020204C617374204750532061747465FE
:101224006D7074207761732073756363657373667F
:10123400756C2E2000202020204C617374204750B0
:101244005320617474656D7074206661696C6564A3
:1012540021200020202020475053206973206469F6
:101264007361626C65642E200042617474657279E6
:1012740020766F6C746167652069733A2000486F4B
:1012840075726C7920446574656374696F6E20436C
:101294006F756E742073696E636520506F77657225
:1012A400204F4E3A2000546F74616C20446574657D
:1012B4006374696F6E20436F756E742073696E6317
:1012C4006520506F776572204F4E3A200020202011
:1012D400506F6F72205369676E616C00204E4545F4
:1012E40044532053455256494345212121002100AE
:1012F40020000D0A0D0A2D2D2D202A2A2A205452B1
:101304004944454E54205348454C4C205354415273
:10131400544544202A2A2A0D0A2D2D2D000D0A2D6C
:101324002D2D20487964726F70686F6E6520636F2D
:101334006D6D756E69636174696F6E20737461722B
:101344007465642E00566F6C746167652076616CF9
:1013540075653A20004D6E54616B654D656173751A
:1013640072656D656E747320526561642054656D99
:101374007065726174757265200054656D70657274
:1013840061747572652076616C75653A20004D6EE6
:1013940054616B654D6561737572656D656E7473CB
:1013A4002047657474696E672074696C74005761B2
:1013B4006974696E6720706572696F642076616C08
:1013C40075653A200054696C742076616C75653AD1
:1013D4002000616463476574507265737375726548
:1013E400526573756C740050726573737572652001
:1013F40076616C75653A20004E6F2056616C6964A5
:10140400204473702056657273696F6E20696E2074
:10141400746865205254432D20546F67676C6520AF
:101424006120736F66747761726520726573657489
:10143400206F66207468652044535020746F2072B6
:1014440065747269657665206974005761697469A9
:101454006E6720666F722044535020746F2073654A
:101464006E642076657273696F6E2E2E2E0053554E
:10147400434345535321212100496E76616C6964CD
:101484002073657269616C206E756D6265720053BC
:1014940074617274206F66204D656D6F727920439C
:1014A40061726420496E73657274696F6E004C6F6B
:1014B4006767696E6720746F205344206D656D6F94
:1014C4007279206361726420686173206265656E5D
:1014D40020696E697469617465642E00576169746A
:1014E400202E2E2E20004C6F6720526573756D657B
:1014F400642061743A20005461674C6F674F7065D3
:101504006E00536D624F70656E00556E6C6F616452
:10151400696E67206F75722064617461005461673D
:101524004C6F674F70656E6564005344206D656D44
:101534006F727920636172642068617320626565EB
:101544006E2072656D6F7665642E00456E64206F43
:1015540066204D656D6F7279206361726420696ED7
:1015640073657274696F6E200054696C74204368EB
:101574006970204944206E6F7420726563656976D2
:10158400656400664E657753796E6320526F6C6CA8
:101594006F766572204C6F67696300756C43756D77
:1015A400546F745F4453503A2000756C43756D5406
:1015B4006F743A2000526F6C6C6F766572204164D0
:1015C400642056616C3A2000756C43756D546F74D9
:1015D400203D20756C43756D546F745F4453500007
:1015E40000664E657753796E6320525443207469C4
:1015F4006D652061646A7573746564004D69737305
:10160400696E67206D656D6F727920636172642EF7
:10161400005374617274207570202D2044657465C4
:101624006374696F6E73207A65726F65642E0055FA
:10163400534220434D4420526563656976656400D6
:1016440047707320496E7075742044697361626CCD
:101654006564004E657720436F6E66696720736525
:101664006E74004F6C6420436F6E66696720736507
:101674006E740053656E736F7220726174652069B5
:10168400733A20004E6F20757064617465204E6556
:10169400656465640043616E277420736574205328
:1016A400656E736F725261746520696E636F7272D6
:1016B40065637420666F726D617400536C65657048
:1016C40020526174652069733A200043616E277467
:1016D4002073657420736C65657020726174652075
:1016E400696E636F727265637420666F726D617484
:1016F40000655F61636B3E004E756D626572206FBD
:10170400662061736B732069733A200043616E270E
:1017140074207365742061736B2072617465206931
:101724006E636F727265637420666F726D617400AC
:101734003C735F615F61636B00655F615F61636BF5
:101744003E003C735F425F61636B00445441473A1F
:10175400206F6E00445441473A206F66660047503C
:10176400533A206F6E004750533A206F6666003537
:10177400204D696E7574652053796E6320656E61C2
:10178400626C65640035204D696E7574652053790B
:101794006E632064697361626C6564004750532012
:1017A40073656E74656E6365207072696E74696EBC
:1017B400672069733A206F6E004750532073656E3B
:1017C40074656E6365207072696E74696E672069F2
:1017D400733A206F666600486F75726C79204669AB
:1017E4006C65732069733A206F6E00486F75726C74
:1017F400792046696C65732069733A206F666600C8
:101804004461696C792046696C65732069733A2078
:101814006F6E004461696C792046696C6573206958
:10182400733A206F66660046696C65732064756D53
:1018340070733A206F6E0046696C65732064756D31
:1018440070733A206F66660054656D7065726174DA
:101854007572653A206F6E0054656D7065726174BF
:101864007572653A206F666600507265737375729F
:10187400653A206F6E0050726573737572653A2015
:101884006F66660054696C743A206F6E0054696C1C
:10189400743A206F66660053656E736F72207261CE
:1018A40074653A20007300475053207361766520B5
:1018B400696E74657276616C3A2000655F425F619F
:1018C400636B3E003C735F625F61636B004E6F202D
:1018D4006368616E676520696E206F666673657400
:1018E400004261642056616C756573004261642036
:1018F400466F726D617400655F625F61636B3E0089
:101904003C735F445F61636B00655F445F61636B5D
:101914003E003C735F645F61636B00655F645F619D
:10192400636B3E003C735F455F61636B00655F45BD
:101934005F61636B3E003C735F655F61636B006571
:101944005F655F61636B3E003C735F465F61636B21
:1019540000655F465F61636B3E003C735F665F6179
:10196400636B00655F665F61636B3E003C735F475A
:101974005F61636B00655F475F61636B3E003C734F
:101984005F675F61636B00655F675F61636B3E0008
:101994003C735F485F61636B0043757272656E747C
:1019A4002054696D655374616D703A2000655F4819
:1019B4005F61636B3E003C735F685F61636B0054FF
:1019C400696D657A6F6E65205365740054696D6541
:1019D4007A6F6E65206E6F74207365742062656320
:1019E4006175736520696E76616C69642074696DD4
:1019F400657A6F6E650054696D657A6F6E65206EE9
:101A04006F74207365742062656361757365206902
:101A14006E636F727265637420666F726D617400B9
:101A2400655F685F61636B3E003C735F695F616320
:101A34006B0054696D652077617320756E61626C0B
:101A44006520746F2062652073657420636175730B
:101A54006520696E636F727265637420666F726D60
:101A6400617400655F695F61636B3E003C735F4A4C
:101A74005F61636B005072696E74696E67204750D2
:101A84005320737472696E6773004E4F54207072E2
:101A9400696E74696E672047505320737472696E5F
:101AA400677300655F4A5F61636B3E003C735F6A06
:101AB4005F61636B00496E636F7272656374204685
:101AC4006F726D6174206F7220696E76616C6964E7
:101AD4002076616C756500655F6A5F61636B3E00CB
:101AE4003C735F4B5F61636B0047505320656E61CD
:101AF400626C6564004750532064697361626C656D
:101B04006400655F4B5F61636B3E003C735F6B5FBA
:101B140061636B00655F6B5F61636B3E003C735F89
:101B24006C5F61636B00655F6C5F61636B3E003C7F
:101B3400735F4D5F61636B00475053206D6F646545
:101B44006D20276F6E2700475053206D6F64656DBD
:101B5400206F666600475053206F7574707574204B
:101B640072656365697665204F6E00475053206F38
:101B740075747075742072656365697665204F6647
:101B84006600655F4D5F61636B3E003C735F6D5F34
:101B940061636B00475053205072696E7420554145
:101BA400525400475053205072696E74205541526C
:101BB40054204F464600655F6D5F61636B3E003C99
:101BC400735F4E5F61636B004F75747075747469F5
:101BD4006E6720646574656374696F6E20646174F4
:101BE400610053746F70206F757470757474696ECE
:101BF4006720646574656374696F6E2064617461E1
:101C040000655F4E5F61636B3E003C735F6E5F61B6
:101C1400636B005570646174696E67205365726903
:101C2400616C204E756D6265720046696E697368F9
:101C340065640D0A4E65772053657269616C204EA8
:101C4400756D6265723A200043616E277420736576
:101C54007420534E20696E636F72726563742066DC
:101C64006F726D617400655F6E5F61636B3E003C13
:101C7400735F6F5F61636B005570646174696E6755
:101C840020536974654E616D650046696E697368B9
:101C940065640D0A4E657720536974654E616D6500
:101CA4003A2000655F6F5F61636B3E003C735F5079
:101CB4005F61636B004154532D48323020436F6E93
:101CC40066696775726174696F6E205265717565B6
:101CD4007374207265636569766564005265636533
:101CE40069766572205254432074696D653A200008
:101CF4005072657373757265204F66667365743AC6
:101D0400200054656D7065726174757265204F664C
:101D1400667365743A200054696C742063616C695D
:101D2400622E20736C656570206F66667365743A05
:101D3400200054696C742063616C69622E206173A5
:101D44006B206F66667365743A2000655F505F614F
:101D5400636B3E003C735F705F61636B005479702A
:101D640065283129004E6F2053442063617264203A
:101D740070726573656E7400655F705F61636B3E5E
:101D8400003C735F515F61636B00655F515F61632A
:101D94006B3E003C735F715F61636B003C735F5229
:101DA4005F61636B00496E76616C69642066696C7F
:101DB40065206E616D6500655F525F61636B3E0017
:101DC4003C735F725F61636B00655F725F61636B3D
:101DD4003E003C735F735F61636B00655F735F61BB
:101DE400636B3E003C735F745F61636B00655F749B
:101DF4005F61636B3E003C735F555F61636B003CE6
:101E0400735F755F61636B003C735F765F61636BE7
:101E140000655F765F61636B3E003C735F785F6172
:101E2400636B0067657443757272656E7446696CA2
:101E34006500655F785F61636B3E003C735F595F6B
:101E440061636B0073656E6443757272656E74468C
:101E5400696C650046696C654E616D653A20006584
:101E64005F595F61636B3E003C735F795F61636BD5
:101E740000655F795F61636B3E003C735F7A5F610D
:101E8400636B00655F7A5F61636B3E00557362202C
:101E94004461746120556E7265736F6C766564007D
:101EA4007563526573657442617474657279466CC6
:101EB4006970466C6F7050335F320075635265739E
:101EC400657442617474657279466C6970466C6FAE
:101ED400703A200044535020763A005369746520C8
:101EE4004E616D653A200046696C65204E616D65F2
:101EF4003A200053657269616C204E756D6265729B
:101F04003A200046696C6520466F726D61742056F4
:101F1400657273696F6E3A20332E30202000466953
:101F24006C652053746172743A200046696C6520B4
:101F3400456E643A200041545320547269746F6EA4
:101F440020526563656976657220465665727369C9
:101F54006F6E3A2031312E3139000D0A0000000F26
:101F6400FF03020030302E30300030393030300082
:101F74004832302C49532C4D4E0000000000000024
:101F8400000000000000000010C4EA6136034100B4
:101F94006400760061006E00630065006400200048
:101FA400540065006C0065006D00650074007200EB
:101FB40079002000530079007300740065006D00FF
:101FC40073001E0353006F006E006900630020005D
:101FD40052006500630065006900760065007200C8
:051FE4000F80010070F8
:10E086004C029B0C0330003900300030003000C1D8
:10E0960086C10CC122C116C1874101CA004202379E
:10E0A600000042017D00004101C9004101E6014135
:10E0B600029A0041027E0041027D094101F20041BF
:10E0C6000297044102980041023A00410239004198
:07E0D6000002004102A70057
:10394D00C4540F2430FEEF75F0800237E090042F41
:10395D0075F00A84E5F02430FFE52A75F080023712
:10396D00E0C4540F2430FEEF75F0800237E0900470
:10397D003475F00A842430FFE52A75F0800237E0B3
:10398D00540F2430FEEF75F0800237E0540F2430D1
:10399D00FEEF75F0800237E090042975F00A84245B
:1039AD0030FFE52A75F0800237E0540F2430FEEF2A
:1039BD0075F0800237E075F00A84E5F02430FFE5FC
:1039CD002A75F0800237E0540F2430FEEF75F08039
:1039DD000237E075F080EE1237E07420F075F0805C
:1039ED00EE90047D1237E0742CF0EE90047E75F0AD
:1039FD00800237E0EF75F08090045B0237E09004B1
:103A0D0067EF75F0800237E0F075F080EE90047886
:103A1D001237E0742CF0900479EE75F0800237E0E7
:103A2D00FF75F00A84E5F02430FEE52A75F080027A
:103A3D0037E090042675F0800237E090042E75F083
:103A4D00800237E0EF90046575F0800237E0EF906B
:103A5D00046475F0800237E075F00A84E5F02430D7
:103A6D00FFE52A75F0800237E0EF90046375F08072
:103A7D000237E075F0809004350237E075F08090E4
:103A8D00042A0237E075F0809004270237E075F0C4
:103A9D0080EE1237E07420F090047275F080EE0223
:103AAD0037E075F08090042F0237E075F0809004B8
:103ABD00380237E090045F75F080EF0237E0F09048
:103ACD00047F75F080EF0237E090045E75F080EFB3
:103ADD000237E075F0809004310237E075F0809088
:103AED0004660237E075F0809004370237E0EF7519
:103AFD00F0809004500237E07420F090047575F05A
:103B0D0080EE0237E0F0EF75F08090044E0237E062
:103B1D0090045C75F080EF0237E075F00A84243074
:103B2D00FF75F080E52A9004261237E0EFF075F06E
:103B3D0080E52A90042C1237E07432F0E52A75F0F6
:103B4D008090042D0237E07420F090046D75F080A4
:103B5D00EE0237E075F08090044F0237E0EBF09005
:103B6D0002F1E0FC9002FFE0900004FE75F04112BE
:103B7D0037E0E5822CF582E43583F583E0FF22EE14
:103B8D0075F08090045D0237E090010DE0FEEF7559
:103B9D00F00EA4240DF582E43401F583EEF09001CE
:103BAD000EE0FEEF75F00EA4240EF582E43401F55F
:103BBD0083EEF090010FE0FEEF75F00EA4240FF5EB
:103BCD0082E43401F583EEF0900110E0FEEF75F024
:103BDD000EA42410F582E43401F583EEF09001116A
:103BED00E0FEEF75F00EA42411F582E43401F583A7
:103BFD00EEF0900112E0FEEF75F00EA42412F582A6
:103C0D00E43401F583EEF0900113E0FEEF75F00E54
:103C1D00A42413F582E43401F583EEF0900114E051
:103C2D00FEEF75F00EA42414F582E43401F583EE55
:103C3D00F0900115E0FEEF75F00EA42415F582E469
:103C4D003401F583EEF0900116E0FEEF75F00EA451
:103C5D002416F582E43401F583EEF0900117E0FEB1
:103C6D00EF75F00EA42417F582E43401F583EEF020
:103C7D00900118E0FEEF75F00EA42418F582E434DF
:103C8D0001F583EEF0900119E0FEEF75F00EA4241E
:103C9D0019F582E43401F583EEF090011AE0FEEFA0
:103CAD0075F00EA4227420F090043D75F080EE02A4
:103CBD0037E075F0809004250237E075F0809004B0
:103CCD002E0237E075F0809004430237E075F080E6
:103CDD009004440237E075F0809004320237E075AD
:103CED00F0809004340237E075F0809004020237C2
:103CFD00E0F090047675F080EE0237E075F080907C
:103D0D0004040237E075F0809004060237E075F088
:103D1D00809004080237E0F090047775F080EE0291
:103D2D0037E075F08090040C0237E075F080900458
:103D3D000E0237E07E127FF4A21292397D092275B0
:103D4D00F0809004100237E075F080900412023775
:103D5D00E075F0809004160237E075F0809004173E
:103D6D000237E075F0809004180237E075F080900E
:103D7D0004190237E090042975F080EE0237E0FE59
:103D8D0075F080EF0237E090018AE024D0FFE43433
:103D9D00FFFE7C007D0A12337EA3E024D0FDEC34BF
:103DAD00FFCD2FFFED3EFE7D3C12337EAA06AB0705
:103DBD00900188E024D0FFE434FFFE7D0A12337EAB
:103DCD00A3E024D0FDEC34FFCD2FFFED3EFE7C0EA5
:103DDD007D1012337EEF2BFBEE3AFA90018CE0242E
:103DED00D0FFE434FFFE7C007D0A12337EA3E02475
:103DFD00D0FDEC34FFCD2F22FE75F080EF0237E0C1
:103E0D0075F080EE0237E075F080EF0237E0E508DF
:103E1D0075F00EA4240DF582E43401F583E09001D4
:103E2D00F3F0E50875F00EA4240EF582E43401F5E7
:103E3D0083E09001F4F0E4A3F07A0179F37B01A221
:103E4D001292387D092275F080EE0237E075F08010
:103E5D00EF0237E075F080EE0237E075F080EF028B
:103E6D0037E075F080EE0237E075F080EF0237E055
:103E7D0075F080EE0237E075F080EF0237E075F0F7
:103E8D0080EE0237E075F080EF0237E075F080EEDE
:103E9D000237E075F080EF0237E035F0FA7B0175FF
:103EAD00F00FE52B1237E0E022F583E09001F4F0FE
:103EBD00A3742EF0E50875F00EA42275F080EE02C5
:103ECD0037E075F080EF0237E075F080EE0237E0F5
:103EDD00EFF09002F1E0FC9002FFE0FE75F0412260
:103EED0090080875F00FE52B1237E0E02290018D58
:103EFD00E024D0FF900002E075F00A84E5F0227511
:103F0D00F080EF0237E0E493FFE4FCFDFE900371D7
:103F1D007402F02275F080EE0237E0FDC4540F24D8
:103F2D0030F0ED540F2430A3F02275F080EF0237FE
:103F3D00E09002AFEFF0E0FD242BF582E43402F5C2
:103F4D0083E024D0900228F0742C2DF582E4340205
:103F5D00F583E0900229F09002AFE0242DF582E484
:103F6D003402F583E024D090022AF02275F080EE21
:103F7D000237E03EF583E538F09002F5E475F00187
:103F8D0002341B90080275F00FE52B1237E0E0228A
:103F9D009002F31236EDEC4D4E4F22A21292397D66
:103FAD00032278077C017D017B007A00790D7E006C
:103FBD007F0612328978EA7C017D017E007F060240
:103FCD00328975F080EF0237E0E47B3CFAF9F89026
:103FDD0002E31236ED02359FEEF0ED75F00EA422E0
:103FED009002F5E0FEA3E0FF9002ECE02FFF9002BF
:103FFD00EBE03EFE2275F080EE0237E0E090022805
:10400D00F090022CE0900229F090022DE090022A0F
:10401D00F090022EE090022BF090022FE090022CF7
:10402D00F022EFF075F041EE2275F0419000031291
:10403D0037E0E5822FF582E43583F583227A027924
:10404D00287B019003B0E4F0A3227E107F44A212DE
:10405D009239E4FD22A801123673EF540FFFEF24BD
:10406D0030F538D39439229002EBE0FEA3E0FF2423
:10407D0012F58274043EF58322C3E4950CFFE4959A
:10408D000BFE740F950AFDE49509FC2275F00A8468
:10409D002430FF75F080E52A2275F080EF0237E0BD
:1040AD00901F65E493FF3395E0FEFDFC2290018C9B
:1040BD00E024D075F00AA4229002ACE02414FFE4B1
:1040CD0033FEC3E5449FEE6480F87480982290011E
:1040DD008CE0FF7430D39F2275F00FE52B1237E083
:1040ED00E0221236EDA804A905AA06AB072275F049
:1040FD000EA4240EF582E43401F58322E49390019D
:10410D00CAF0E49002AFF0900228E0FFE4D39F22C2
:10411D00240FF582E43401F583E0222411F582E4C5
:10412D003401F583E022A21292397D012290022AF8
:10413D00E0642022ED75F0411237E0E0FFEE2275CC
:10414D00F080EE0237E0E0FE2428F582E43402F53B
:10415D0083227F837EEC7D027C409001E012370943
:10416D00D3023662900228E075F00AA4FF90022A6D
:10417D00E02F9002AFF090022BE022A3E0FFC3945A
:10418D003022241AF582E43401F583229002F5E001
:10419D00FEA3E0FFC322A3E09001F324D0F0900230
:1041AD002CE024D022F0E52A75F080A422E49002C0
:1041BD0039F0A3F0900298F02275F0101232AFAFE3
:1041CD00F0EF2430900208F0A3747A22740725389A
:1041DD00F53822EFF09002F1E022D2B4E4F50CF5BF
:1041ED000BF50AF509222410F582E43401F583E07C
:1041FD00222412F582E43401F583E0223EF5837426
:10420D0020F0E49002F5F0A3F02275F080E52A028B
:10421D0037E0E0FF9002AFE02FF022E49375F00A53
:10422D00A4FFA3E4932FFFEC35F0FE229001F4548C
:10423D000F2430F0A322FDE43CFC9002AFE0FED34E
:10424D002290018DE024D0FF900002E022D3900255
:10425D00AAE094059002A9E06480948022901F63E7
:10426D00E493FD3395E0FC1233E5ED4C22742DF013
:10427D00EF3395E0FE7CFF7DFF02337E9002EBE095
:10428D00FEA3E022240DF582E43401F58322122FE2
:10429D00079002B41237669002B82275F00FE52B25
:1042AD001237E0E02275F00AE0A49002AFF0227B15
:1042BD00017A0179F690063502381EC2B37DB47CC1
:1042CD002D7F0F2275F03CEF84FFA3E02FF022EF3E
:1042DD0024D0FF9001CAE075F00AA42FF0229002BD
:1042ED00EBE0FCA3E0FD22AF33AE32AD31AC3022BA
:1042FD002430FE75F080E52A22F09002AFE004F044
:10430D002290018CE024D0FFEE75F00A8422A37474
:10431D0020F0A3F0901F67E493FF2275F010123286
:10432D00AF2430900207F022E52B9008031237E0FE
:10433D00E582252E229002DF1237669002DF229051
:10434D0002AFE0FFC322E4FAF9F802359F1236ED11
:10435D007BD57AFF797F7839227B407A42790F7845
:10436D00009002DF22AB0CAA0BA90AA80902366243
:10437D009002AFE0C39401229001CAE0FFFD339596
:10438D00E0FCED229002AF123725EC4D4E4F22FF8F
:10439D00E4FCFD9003717407F0222413F582E434DC
:1043AD0001F583E0222415F582E43401F583E02242
:1043BD002416F582E43401F583E0222418F582E415
:1043CD003401F583E022E493FDFB3395E0FAEF6BC6
:1043DD0022A3E493648094B022EFF09002FFE0FDFD
:1043ED002275F080EF0237E0C295C2A4C2902290F0
:1043FD001F7EE493FF22A21292387D09229002655E
:10440D00F0901F6FE49322900266F0901F70E4937A
:10441D0022900267F0901F71E49322900268F09051
:10442D001F72E493223CF583E538F022E0FF75F02E
:10443D000A842430FE229002B81237669002B4220C
:10444D0075F0410237E0F09001F3E0FFE4D39F22D5
:07445D009001CAE0FFC32239
:104D6400E49002A9F0A3F0C234A3F0A3F0A3740565
:104D7400F0E49001C9F0C208C22A9001E604F09060
:104D840002977404F0D20153D9BF75C990E4F5FFBA
:104D940012000312E3AB12DB2012D591124057121A
:104DA400BBDD12CCCF53C77F12F49D12B5F9124369
:104DB400F5C23812F0E8C233C2017E107F53123DAF
:104DC4004512BBDD901F7EE49330E70B12AE56D242
:104DD400267E107F5D800BE4F5E3C296C2267E102A
:104DE4007F64123D4512BBDD901F7EE49330E606DE
:104DF4007E107F6C80047E107F74123D4512BBDDF3
:104E0400901F7EE49330E40E7E107F7D123D4512A8
:104E1400BBDDD213800C7E107F94123D4512BBDDA6
:104E2400C2137E107FAF123D4512BBDDE49001E555
:104E3400F01241BB12ED9E78C27C017D017B007AA9
:104E440000790D123FC8901F64E4939001CCF09058
:104E54001F65E4939001C8F0E49002A7F0D2069095
:104E64000227E510F09002A8E511F0900260E51227
:104E7400F012ED9E1200033032167E107FC21240F3
:104E84005B12BBDD7E1F7F68123D4512BBDDC23263
:104E9400201D03309306301D19309316309603E419
:104EA400F5E312B5F930260512AE568005E4F5E3B4
:104EB400C296E5447003024F71300705209302D275
:104EC40090301815D2351255F8129AA37E107FD05F
:104ED400123D4512BBDD02504F1240C5503D9002B9
:104EE40099E0C3940450341255C075F01E84E5F063
:104EF4007010AF0D12F3A2C007125578D007EEB5AB
:104F04000719202303025049AF0D12F3A2C0071260
:104F14005578D007EE6F70030250491240C540081F
:104F24009002ABE004F08007E49002ABF0A3F090B1
:104F340002ABE0D39403400BA3E02404F09002AB53
:104F4400E014F09002ABE0B4C8037404F09002AC37
:104F5400E02414FFE433FEC3EF9464EE6480948091
:104F64004003744CF0D2351255F802504F30070507
:104F7400209302C290AF0E12F3A2C0071255C7D0FD
:104F840007EE6F7003025049AF0D12F3A2C007126F
:104F94005583D007EE6F7003025049900298E004E5
:104FA400F0E0B43C0B90023AE004F0E4900298F094
:104FB40090023AE0B41809900239E004F0E4A3F056
:104FC400900298E030E00C90023AE07006900239CA
:104FD400E060667E107FDB123D4512BBDD90023936
:104FE400E0123F15128647A21292387D071255AF80
:104FF40090023AE0123F15128647A21292387D06BB
:105004001255AF900298E0123F15128647123E4C9B
:1050140012BE8B7E107FF3123D4512BBDD30AF050F
:10502400E5E620E0147E117F06123D4512BBDDD279
:10503400AF202205C23812F0E890023AE0D394215E
:1050440040031241BA43870185878730980312BC15
:10505400C9E4FF12F013301379AF0D12F3A2C007A5
:10506400125583D007EE6F6024309614E5E330E0E8
:105074000F7A017981123E4A12BE8B12CCCF800D79
:1050840020960A7E117F47123D4512BBDD12424E27
:10509400FE123F05B5071612430EB50710AF0D12E9
:1050A400F3A2C00712558ED007EEB507171240DBE6
:1050B4005012EF9439500DA3E0FF74309F5005EF68
:1050C4009439400E9002A9123F8912425A400312A9
:1050D40055EEE558D3940F50030252F020260302F4
:1050E40052F0303E030252F0900192E064416009B4
:1050F400A3E064416003025233900182E06447609C
:1051040003025233123D94FFED3ECF2BCF3AFE7C87
:10511400027D58123390ED4C7019123EFD6F6013EE
:10512400901F7EE49330E50B9002A7E0C3940A40FD
:1051340002C206901F81E493FF901F80E4934FFF07
:10514400901F82E4934FFFA3E4934FFFA3E4934F94
:10515400FFA3E493F94F700302523320035F123D1F
:1051640094FFED3ECF2BFBEF3AFAC002C003901F31
:10517400821242287D3C12337EAA06AB07901F8020
:105184001242287C0E7D1012337EEF2BFDEE3AFC8A
:10519400901F84E49375F00AA4FFE97A002FFFEAD4
:1051A40035F0CF2DFDEF3CFCD003D002AF03AE02AF
:1051B400123390ED4C7078123EFA6F607230030A2D
:1051C4007E117F5A123D4512BBDD7B017A01798144
:1051D400123E4C12BE8B301D5653E6FEE541600470
:0451E400640F70469E
:1051E800E49002AEF09002AEE0FF2481F582E43450
:1051F80001F583E0FE900299E05403124036EEF088
:0A5208009002AEE004F0E0B441DBD8
:10521200900299E004F07F0412C29DC2031240BAC8
:10522200FFA3E024D02F900002F08002D20343E6D5
:10523200019002A7E0D3943C4003740AF012424E5C
:10524200FE123F056F702412430E6F701EAF0D12D7
:10525200F3A2C00712558ED007EE6F600E9002A91E
:10526200123F8912425A40031255EE90018CE0FF20
:10527200C39430403FEFD3943950391241884034BF
:10528200EFD39439502EEF124252F9123F056F605C
:1052920023123DE8FBED3EFAE92401FFE433FE7DF3
:1052A2003C1233E5EDB5030CECB502089002A7E021
:1052B20004F0800B123EFA6F6005E49002A7F01230
:1052C20040DB502AEF94395025A3E0FF74309F5001
:1052D2001DEF94395018EF123EFE6F60111240BA62
:1052E200900002F0E02FF0E49002A9F0A3F0200673
:1052F20016901F7EE49330E50E9002A7E0C3940A55
:10530200400512B09DD2061255C075F00F84E5F02B
:105312007013AF0D12F3A2C007125599D007EE6FAA
:10532200600312D837AF0D12F3A2901F66E493FD0B
:105332003395E0FCEF2DFFE43CFE12426A7020AF91
:105342000D12F3A2C007125599D007EE6F601090AC
:105352001F7FE49330E4081242C812ED6FD2B3AF5C
:105362000D12F3A27E0012426A7015AF0D12F3A263
:10537200C0071255A4D007EE6F6005C23612884AE4
:105382003093131255DB20E0051243F58052D2957B
:10539200D2A4D290804AAF0D12F3A2C0071255A434
:1053A200D007EE6F603A30070A1255DB20E004B2F4
:1053B200A48002C2A4300715AF0D12F3A2EF75F05C
:1053C2000384E5F07007300D04B2958002C2952087
:1053D200070E30900BAF0D12F3A2EF20E002C29045
:1053E200AF0D12F3A2C0079001C2E0FF12F3A2AE0A
:1053F20007D007EE6F70030254A89001C2E50DF0CA
:1054020053AEFEE5C720E0069002AD7402F02026FE
:1054120005C296E4F5E39001F2E0D394054005203D
:105422000D02D20D9002ADE0D394004002D20730BB
:105432001D7412415F406F7E117F86123D4512BB83
:10544200DDC2351255F89001E6E0C39421503012C6
:10545200415F402B1255E27E117F96A21292397D56
:105462000712BBDD9001E6E0FFE4FCFDFE90037154
:10547200F0128647123E4C12BE8B12641A80C77E0F
:10548200117FAAA21292397D0612BBDD9001E012B1
:1054920036ED900371740BF0128647123E4C12BE29
:1054A2008BC23812F0E8AF0E12F3A2C0071255C732
:1054B200D007EE6F60199001C3E50EF09002ADE0E7
:1054C200FF7006EFD3940040069002ADE014F0AFF7
:1054D2000F12F3A2C0071255D2AE07D007EE6F70BB
:1054E20003024E751255D2C007AF0F12F3A2AE07D8
:1054F200D007C3EE9F6401601A9001C4E0FF12F36B
:10550200A2C007AF0F12F3A2AE07D007C3EE9F648B
:10551200E9705A1243FC30E002D202EF30E214206A
:105522009311D2351255F8D204C23512F1BF12646A
:105532001A8027209331901F7EE49330E129900155
:10554200C4E0FF12F3A2EF6417701CAF0F12F3A2B4
:10555200EF7014D2351255F8D2001255E212641AC5
:10556200C23812F0E88006C204C200C2029001C42E
:06557200E50FF0024E758A
:105578009001C2E0FF12F3A2AE07229001C2E0FF41
:1055880012F3A2AE07229001C2E0FF12F3A2AE0707
:10559800229001C2E0FF12F3A2AE07229001C2E0FE
:1055A800FF12F3A2AE072212BE8B7E107FF1A21269
:1055B80092397D0712BBDD22AF0D12F3A2EF2290C4
:1055C80001C3E0FF12F3A2AE07229001C4E0FF126C
:1055D800F3A222AF0D12F3A2EF22D23512F1BF903F
:1055E80001E6E004F022E4F0A3F07F0112EADF22F2
:10DB2000C2351255F812F49DC2AF12F2071242CA62
:10DB300012ED6F2094FD3094FD2094FDC2B430941A
:10DB4000FD1241E712ED9E123FAF900107E0FF1278
:10DB5000F40690010712DB8290010812DB8290012B
:10DB60000912DB8B90010A12DB8B90010BEFF0A303
:10DB7000E0FF12F40690010CEFF0C23812F0E8D288
:10DB8000AF22EFF0A3E0FF12F40622EFF0A3E0FFD4
:04DB900012F4062263
:0D004600C2871242CA12ED6FD28702DB2082
:10B09D009002AF12378B000000017E117FB5123D7B
:10B0AD004512BBDD20960A7E117FCF123D4502BBB6
:10B0BD00DDC2351255F812F49DC2AF20A50512431D
:10B0CD009170F89002AF123FA07002801A9002AFFB
:10B0DD0012378B0000000130A50512439170F890D6
:10B0ED0002AF123FA07007D2AFC23802F0E8900253
:10B0FD00AF12378B0000000130A5FDC2B420A5FDB5
:10B10D001241E79001881240BD12B1B38F0F90012B
:10B11D008A1240BD12B1B38F0E90018CE075F00A0A
:10B12D00A4FFA3E02F24F2FF12F3E68F0D90022768
:10B13D00E0F5109002A8E0F511900260E0F5121212
:10B14D003FAF900107E0FF12F40690010712B1A185
:10B15D0090010812B1A190010912B1AA90010A1231
:10B16D00B1AA90010BEFF0A3E0FF12F40690010CD1
:10B17D00EFF0C23812F0E812EA1A7E117FEF12409A
:10B18D005B12BBDD12CCCF7E117FFA123D4512BB97
:03B19D00DDD2AF51
:10B1A00022EFF0A3E0FF12F40622EFF0A3E0FF127B
:0EB1B000F40622FFA3E024D02FFF12F3E622C4
:10D9B200E51190042712398DEEF0E511900426123C
:10D9C200394DEEF0E51090042A12398DEEF0E51093
:10D9D20090042912394DEEF0E51290042F12399974
:10D9E200EEF0E51290042E12396EEEF0E50F90047F
:10D9F20032123999EEF0E50F90043112396EEEF0E1
:10DA0200E50E9004351239B7EEF0E50EC4900434F9
:10DA12001239B7EEF0E50D9004381239D4EEF0E584
:0BDA22000DC49004371239D4EEF0223E
:10E30100ED14601414603014603C240370469004D2
:10E3110000123A0E745B8018900400123AC4745BC8
:10E32100F0900401123ACF745BF0EF1239F8745D8A
:10E33100123ACB745DF022900400123AD974201283
:10E341003ACB7420F022900400123B20740A123A56
:05E35100CB740DF02269
:05DB94009002EBEFF030
:10DB9900A3F09002ECE0FFC39404505B7D0312E311
:10DBA900019002ECE0900439123954742EF0E4F536
:10DBB90038F53974632539F58274023538F583E00F
:10DBC900FF9002ECE0900401123968E5822539F5ED
:10DBD90082E5833538F583EFF00539E539700205BB
:10DBE900386419453870CC9002ECE0FF129DEA9038
:0DDBF90002ECE004F0809B9002EBE0F513DD
:01DC060022FB
:10E54100900424123E14742CF0EF123CBF7420F09E
:10E55100900428123E14742FF090042B123E5A742A
:10E561002FF0900430123E5A7420F0900433123E82
:10E5710068743AF0900436123E68743AF090042CB4
:0EE58100123E767432F0EF123B4B7430F022F3
:029DEA00AE07C2
:109DEC0090041A123A26742CF0E4F53AF53B74748C
:109DFC00253BF582741F353AF583E493FF90041BE1
:109E0C00123AA8E582253BF582E583353AF583EFD6
:109E1C00F0053BE53B7002053A6409453A70CFAF5B
:109E2C000612E541900440123B0B742CF090044157
:109E3C00123B5A7420F0900442123CB87447F0EE76
:109E4C00123CD17437F0EE123CDA7432F090044BC1
:109E5C00123D02742CF090044C123A9B123B057488
:109E6C002F123CFE7433123D247431123A15123BFE
:109E7C0054742CF090046E1239E07420F090044D60
:109E8C00123D287420F0900451123D85742CF090F2
:109E9C000452123E0D7420F0901F7FE493FF20E4D7
:109EAC0015EE123AFC7441F0EE123B61742FF0EE99
:109EBC00123B14744EF0900455123E0D742EF0901B
:109ECC000458123E53742CF0900459123E537420D3
:109EDC00F090045A123E617420F0EE123A02E0D374
:109EEC009439500D75F080EE123A05E0C394305061
:109EFC0008123B8C7441F08006123B8C742EF0904F
:109F0C000460123E61742CF0900461123E6F742058
:109F1C00F0EF75F08030E309EE123AEC742EF0801D
:109F2C0026EE9004671237E07420F0EE123AE974D2
:109F3C0020F0EE123A527441F0EE123A5C742FF0AB
:109F4C00EE123A77744EF0900462123E6F7420F069
:109F5C00900468123E7D742CF0900469123E7D745E
:029F6C0020F0E3
:019F6E0022D0
:10F1050012ED9E9001ECE50FF0A3E510F0A3E511DB
:0CF11500F0A3E512F09001EBE50EF022F3
:10EFAD0012CCCF30260F3010067E127F13800A7ED2
:10EFBD00127F3980047E127F57123D4512BBDD0250
:02EFCD00C7116A
:10CCCF00303F0302CD7BE511C4540F2430FD90019A
:10CCDF00F3B430057420F08002EDF0E51112423903
:10CCEF00742FF0E510C4123F30E510123F30A374DB
:10CCFF002FF0E512C4123F30E512123F30A374201B
:10CD0F00F0E50FC4540F2430FDB43006A37420F0A7
:10CD1F0080059001FCEDF0E50F9001FD12423C748F
:10CD2F003AF0E50EC4123F30E50E123F30A3743ACD
:10CD3F00F0E50DC4123F30E50D123F3012431BFDDD
:10CD4F00C364809480900206500712427AAD078028
:10CD5F0003742BF0ED124328ED1241C6123E42121E
:0CCD6F00BE8B7D179001F3E4F0A3DDFC07
:01CD7B002295
:10C65600303F0302C7109001EEE0FFC4540F2430B0
:10C66600FE9001F3B430057420F08002EEF0EF1274
:10C676004239742FF09001EDE09001F6123F28A3A5
:10C68600742FF09001EFE09001F9123F28A3742077
:10C69600F09001ECE0FFC4540F2430FE9001FCB48E
:10C6A60030057420F08002EEF0EF540F2430900134
:10C6B600FDF0A3743AF09001EBE0FDC4540F243072
:10C6C6009001FF123F2EA3743AF09001EAE0FDC4F8
:10C6D600540F2430900202123F2E12431BFEC364F5
:10C6E600809480900206500712427AAE0780037447
:10C6F6002BF0EE124328EE1241C6123E4212BE8BBA
:0AC706007E179001F3E4F0A3DEFCBF
:01C710002206
:10C711007E127F6D12405B12BBDD123EC112411DC4
:10C72100FF12EEF2123EC11241F3FF12EEF27F2E22
:10C7310012EEF2123EC1124128FF12EEF2123EC178
:10C741001241FEFF12EEF27E127F82A21292397D19
:10C751000812BBDD786DE6FE08E612439C1286479F
:10C7610012440312BE8B7E127FAA12413312BBDD2B
:10C771009006281236ED900371740CF01286471260
:10C781003E4C12BE8B301B3DD3786EE6940018E60A
:10C79100940040319001F2E004F07E127FD1124109
:10C7A1003312BBDD9001F2E0D39406400E7E127F7E
:10C7B100E012413312BBDDD20D800A7E127FF212EC
:0BC7C100413312BBDD123D4102BBDD25
:10E3AB0075F1BF75F2FF75F3FF75F47E75F5FF75AB
:10E3BB00A41D75A5E775A61975A77A75AE8075D4DA
:10E3CB00C875D5FF75D61975DFFF75E10775E24086
:10E3DB0075E301C22BD2A075C70312EF897E127FA2
:10E3EB00F612405B12BBDD7E137F21123D4512BB43
:04E3FB00DDC2B422A9
:10884A00E4F529F52A12C41E901F7FE49330E63816
:10885A00203F357E137F49123FA812BBDD123EC16D
:10886A0012411D9001F3123EC02410F582E4340136
:10887A00123EB61241289001F6123EC01241FE90F5
:10888A0001F7123E4212BE8B123EC11241F3FFB4EF
:10889A00340B123EC1124128D394354006EFD394CB
:1088AA0033500D123EC112411DB43004C20780027A
:1088BA00D207E4F508C220901F7F9330E25512A434
:1088CA00AA901F7FE49330E00A7E137F59123D4538
:1088DA0012BBDD901F7FE49330E638203F357E13CC
:1088EA007F7E123FA812BBDD123EC11243A7900140
:1088FA00F3123EC02414F582E43401123EB6124348
:10890A00B29001F6123EC01243BD9001F7123E42E8
:10891A0012BE8B901F7FE493FF30E47A30E00A7E28
:10892A00137F92123D4512BBDD752900752A01900D
:10893A0001C8E0FFC3E52A9FE5299400503DC238EB
:10894A0012AAD4901F7FE49330E0259001C8E0C3B7
:10895A00952AFFE49529FEC3EF9405EE9400501082
:10896A007E137FB2123FA812BBDD123E1B12BE8BD2
:10897A00052AE52A70020529028939901F7FE493A6
:10898A0030E613203F107E137FC9123FA812BBDDC9
:10899A00123E1B12BE8B901F7FE49330E30E1242ED
:1089AA00C812ED6F3026057F0112EADF901F7FE4BF
:1089BA009330E35D12B4F2901F7FE49330E00A7EB5
:1089CA00137FD6123D4512BBDD901F7FE49330E63C
:1089DA0040203F3D7E137FEB123FA812BBDD123EC3
:1089EA00C11243C89001F3123EC02419F582E4343F
:1089FA0001123EB612418FE09001F6123EC0241BCE
:108A0A00F582E43401F583E09001F7123E4212BE8A
:108A1A008BD2B312F3597F01123B9612418FEEF0BB
:108A2A000FEF640870F275080730180D12F49DC232
:098A3A003812BF69C23812F0E8DD
:018A43002210
:10E6C3009002EB12381E803A9002F2E0D39400409D
:10E6D30039E014F0E47B0AFAF9F89002EE123FDF16
:10E6E300EB2430FF9002EB1237FE9002F2E0F5824A
:10E6F300758300EF12335C9002EE1236ED7B0A1243
:0BE7030043539002EE12376680BE22E6
:1091E300D235E49002B0F0A3F09002B012419C9407
:1091F30034EE9400501474F32FF58274013EF5831A
:10920300E4F09002B0123F8A80DF90023D742FF0A9
:10921300900240F09002457420F0900248743AF0B6
:1092230090024BF012C941900237E0FEA3E0FF4EDB
:10923300601A901F611243D37002EE6A600EED70E4
:109243000B7E1F7F617A0279371293A590017DE02F
:10925300FEA3E0FF4E601A901F621243D37002EE2A
:109263006A600EED700B7E1F7F627A01797D129327
:10927300A5901F68E493C3648094B040121243DE48
:10928300400D901F6B1243DF40051243DE503FC277
:10929300117E137FFC123D4512BBDDD2B4C2877D24
:1092A300407C067F0112ED6FD287C2B4D2B4C238BC
:1092B30012F0E820110C7E147F4F123D4512BBDDE6
:1092C30080F17E147F72123D4512BBDD8002D21104
:1092D3009002AFE0C394055051E4A3F0A3F09002D1
:1092E300B012419C9405EE94005026746E2FF582C3
:1092F300741F3EF583E493FFD3648094B95008C38D
:10930300EF648094B05002C2359002B0123F89805E
:10931300CD901F77E493642C6002C2359002AFE0D6
:1093230004F03035AB740AF080A620350C7E147F30
:109333007D12405B12BBDD801AC213C223C2261208
:1093430043FC30E402D213EF30E602D223EF30E7DE
:1093530002D22612C1DB9002637453F0A314F0907F
:109363001F6EE49312440A12441412441E1244283A
:10937300900269F01243FC30E20890026A7448F0EC
:10938300800FEF90026A30E1057444F08003745F4C
:10939300F09002627404F0D23612884A12F4E802A2
:0293A300C1DB2C
:0D93A5007B019003B0F0A304F012EC022253
:10B5F900E49002AFF0C295D2A4C29012ED9E901FC2
:10B609007FE49330E0107E147F93123D4512B6F724
:10B61900123D4112BBDD30930302B6C6301D030251
:10B62900B6D89001E7E0600302B6D8C20F7E147F56
:10B63900B2123D4512BBDD12C7117E147FE0123DE7
:10B649004512BBDD9001E4E060527E147FEA1240AE
:10B659005B12B6F712641A901F7FE49330E00A7EFA
:10B66900147FFB123D4512BBDDC23812F0E8901F72
:10B679007FE49330E0067E157F068018E544D39475
:10B68900004019C2351255F8901F7FE49330E0EC61
:10B699007E157F0E123D4512BBDD80E09001E4E08E
:10B6A9007014901F7F9330E00A7E157F21123D456B
:10B6B90012BBDD12641AC23812F0E88012301D0F75
:10B6C9007E157F2E123D4512BBDDD23512F1BF909A
:10B6D9001F7FE49330E01612ED9E7E157F4F123DD9
:0DB6E9004512BBDD12CCCF123D4112BBDD7E
:08B6F6002212BBDD12CCCF22B1
:10F01300E5C930E60E201208D212EF701212CF7A31
:10F0230002008E301202C212E4F5A9F5B9C2182209
:088A44009002EBEEF0A3EFF04D
:108A4C0090017FE0F539A3E0F53A12420F124199FB
:078A5C009404EE9400504762
:108A6300C374039FFFE49EFEEF7802C333CE33CE7D
:108A7300D8F9FF9002F7EEF0A3EFF0AE39E53AA88C
:108A830007088005CEC313CE13D8F9540F12406CD8
:108A9300400674272538F538123FED74012FF5820F
:028AA300740459
:108AA500123F8080AF1242892405F5827404124278
:018AB50009B7
:108AB60012419974059FFFE49EFEEF7802C333CE00
:108AC60033CED8F9FF9002F7EEF0FAA3EFF0FB9061
:108AD60002F11236EDA90312406240031241D91287
:098AE6003FED74062FF5827404C3
:108AEF00123F809002F5E07004A3E0640670B812A4
:108AFF0042EB240CF58274043CF5837420F0786FFC
:108B0F00E6FAEAC4540F2430F538740D2DF582744B
:108B1F0004124432D3943940031241D9EA540F124C
:108B2F00406C40031241D91242EB240EF5827404BB
:108B3F00124432786FE6FA08E6FBEAC4F854F0C83C
:108B4F00EBC4540F48540F12406C40031241D974B8
:108B5F000F2DF5827404124432EB540F12406C4007
:108B6F00031241D9124289FF2410F58274043EF595
:108B7F0083E538F0302710B4300D74102FF5827460
:108B8F00043EF5837448F074112FF5827404124279
:108B9F00091241999408EE94005026C374079F253B
:108BAF00E025E0F99002ED1236ED1240624003121B
:108BBF0041D9123FED74122FF5827404123F808059
:108BCF00D020260B12428912407C7444F0801E3054
:108BDF00060B12428912407C744CF08010124074C4
:108BEF00E0B4300974122F12407E7445F0300C132C
:108BFF00124074744CF074132FF58274043EF58395
:108C0F007442F09002981244391242EB2413F58209
:108C1F0074043CF583EEF0EF123F052430FF74141B
:0A8C2F002DF58274043CF583EFF08C
:018C39002218
:0BED6F009002DFEFF0A3ECF0A3EDF04A
:10ED7A00E4A3F09002DFE0FF9002E2E0C39F5013A9
:10ED8A009002E0E0FEA3E0FF12002E9002E2E0040F
:03ED9A00F080E026
:01ED9D002253
:10AAD40030382AE5087005752C078005E50814F55B
:10AAE4002CE52C1240FBE0FF123EC11240FFEFF0B8
:10AAF400E52C75F00EA4124291E002ABEE12ABF815
:10AB0400D23912C1178E2D8F2EC23912C1178E2F32
:10AB14008F3012ABF8AC2DAD2EEC1230129002B483
:10AB2400123766AC2FAD30EC12301212444312438C
:10AB34005A12429B12435A122F071244431240EFF7
:10AB440012429B1240EF122F079002B81242A11238
:10AB540036ED9002B4123709122E1612CD8012EB84
:10AB64001B7BE67A2E79657842122F07E4FBFAF90B
:10AB7400783F122E1612304B9002B2EEF0A3EFF093
:10AB84009002B3E0F52BE53264517004E531643F83
:10AB94006024752B639001C9E0C39414500A7E1598
:10ABA4007F6D123D4512BBDD9001C9E0C39419507D
:10ABB40014E004F0800FE532B4510AE531B43F05E6
:10ABC400E49001C9F0E52BB4FF03752B5AE52B1271
:10ABD4003F052430FF123EC11240FFEFF0E52B7514
:10ABE400F00A84F52B123F052430FF123EC11242B5
:03ABF40091EFF0EE
:0BABF700227F4A12D7B78E318F322226
:10CF7A0090029B740CF0A37403F0E490029EF0906C
:10CF8A0002A0F09002A2F09002A4F0901F6E93907B
:10CF9A00029DF0901F6FE49390029FF0901F70E43F
:10CFAA00939002A1F0901F71E4939002A3F0901F56
:10CFBA0072E4939002A5F0E4A3F012E8C9901F8CE2
:10CFCA00E493FE740193FF901F8EE493FC74019323
:10CFDA00FD7BFF7A1F79C69002B612381E7B017A52
:10CFEA0002799B9002B912381E901FE4E4939002D2
:10CFFA00BCF0901FE5E4939002BDF0901FE6E49325
:10D00A00FB7401939002BECBF0A3EBF07BFF7A1F77
:08D01A00799012A86D02F18D5E
:085D54009002EBEFF0A3EDF06B
:105D5C00C236C2379002EBE075F080A4FF9002EDE2
:105D6C00E5F0F0A3EFF0E4A3F0A3F09002F7123704
:105D7C008B000000009002FB12378B00000000909B
:105D8C000261E054039002FFF07E11900003124474
:105D9C004DE5822E124042E0B42C04C2368002D271
:105DAC0036E49002F1F0A3F09002F1E0FFC39440CE
:105DBC0040030260E79002FFE0FA124036E0FBB4C9
:105DCC002C119002F2E004F0A312378B00000000BB
:105DDC000260DE9002F2E024FD7003025E7C14701F
:105DEC0003025F0F147003025F25147003025FD867
:105DFC0024FD700302600B240860030260DE123F76
:105E0C009D60030260DE9002EBE0FD9004311239DC
:105E1C0075123B6AED123CE312402F900005123BC9
:105E2C007C9002EBE0FD9004341239871241E0FCC7
:105E3C009002FFE0900006123B78ED123A8012407F
:105E4C002F900007123B7C9002EBE0FD9004371280
:105E5C0039931241E0FF75F041EA9000081237E0E7
:105E6C00E5822F123B8275F080ED900438025FD1F1
:105E7C00123F9D60030260DE9002EBE0FD90040196
:105E8C0012399F123B6AED123CF512402F9000051F
:105E9C00123B7C9002EBE0FD9004031239B1123EF0
:105EAC00DD900006123B7CED123D0912402F900054
:105EBC0007123B7C9002EBE0FD9004051239BD12F9
:105ECC003EDD900008123B7CED123D1212402F90EB
:105EDC000009123B7C9002EBE0FD9004071239CED6
:105EEC00123EDD90000A123B7CED123D1B12402F3E
:105EFC0090000B123B7C9002EBE075F08090040953
:105F0C00025FD1123F9D60030260DE9002EBE090D5
:105F1C00040A1239DAEB0260C4123F9D600302607E
:105F2C00DE9002EBE0FD90040B1239FB123B6AEDA4
:105F3C00123D2F12402F900005123B7C9002EBE09B
:105F4C00FD90040D123A0F123EDD900006123B7CC0
:105F5C00ED123D3812402F900007123B7C9002EB63
:105F6C00E0FD90040F123A27123EDD900008123B20
:105F7C007CED123D4C12402F900009123B7C90029C
:105F8C00EBE0FD900411123A39123EDD90000A123A
:105F9C003B7CED123D5512402F90000B123B7C9038
:105FAC0002EBE0FD900413123A421241E0FF900222
:105FBC00FFE090000C12444DE5822F123B8275F0ED
:105FCC0080ED9004141237E0EF0260C4123F9D6024
:105FDC00030260DE9002EBE0FE900415123A4BEBEC
:105FEC00F0EE123D5E7420F0EE123D677420F0EE80
:105FFC00123D707420F0EE123D7974200260C412D0
:10600C003F9D60030260DE9002EBE0FD90042912DC
:10601C003A55123B6AED123A8912402F9000051244
:10602C003B7C9002EBE0FD123A3F123EDD90000605
:10603C00123B7CED123A9212402F900007123B7CDF
:10604C009002EBE0FD123A481241E0FC9002FFE0B6
:10605C0075F041900008123B7CED123AAFEFF074F2
:10606C00822CF582E43401F583E024D0FFEB12405E
:10607C00BE2FFF12F3E69002271241E0FE2483F5B7
:10608C0082E43401F5831240BDFF74842EF582E462
:10609C00340112640F9002A81241E0FE2485F582AF
:1060AC00E43401F5831240BDFF74862EF582E4348E
:1060BC000112640F900260EFF09002F31236EDEFD4
:1060CC002401FFE43EFEE43DFDE43CFC9002F312AF
:1060DC0037669002F1E004F0025DB49002EBE0FF51
:1060EC00900442123A5F7447F0EF123CD17450F0B6
:1060FC00EF123CDA7453F0900445123E767420F0A3
:10610C00900446123E847446F0900447123E847408
:10611C0069F0900448123E927478F0900449123E53
:10612C00927420F090044A123EA074201243E7753A
:10613C00F04190000B1237E0E0FF9002EBE0FE9094
:10614C000432123A70EFF090000A124141123AE018
:10615C001243E690000D124142123A80EFF090008B
:10616C000C124141123CEC1243E675F04190000FC9
:10617C00124145123AB8EFF075F041ED90000E1255
:10618C004145123AF2EFF090043A123E8B7430F023
:10619C0090043B123E8B7420F090043C123E9912FA
:1061AC003CB2123CB27420F090043E123E99742022
:1061BC00F090043F123EC87420F0900440123EC888
:1061CC00742CF090046A123ED67420F090046B127A
:1061DC003ED67420F090046C123F21123B54742C68
:1061EC00F090046E123F217420F090046F123F79EE
:1061FC007420F0900470123F797420F090047112A6
:10620C003A9B7420F09004731240027420F09004B6
:10621C0074124002123B057420123CFE7420123D95
:10622C00247420123A157420F090047A12414C74A4
:10623C0020F090047B12414C7420F090047C1239B5
:10624C00E07420F0123D821240DE40030262DE1246
:10625C003D82E0D39439507A75F080EE123A8C126C
:10626C0040DE506E75F080EE123A8CE0D3943950CB
:10627C0061EE123A3F1240DE505875F080EE9004F9
:10628C00261237E0E0D39439504875F080EE123A7C
:10629C00951240DE503C75F080EE123A95E0D394A6
:1062AC0039502FEE123A481240DE5026EE123CC8FE
:1062BC00E0D39439501C75F080EE123AB21240DEE5
:1062CC00501075F080EE123AB2E0D39439500302BC
:1062DC0064059002EBE0FF900429123A7A7437F0CF
:1062EC00EF123A897437F0EF123A3F7437F0EF122D
:1062FC003A927437F0EF123A487437F0EF123AAF23
:10630C007437F0EF123AE07430F0EF123CE3743073
:10631C00F0EF123CEC7430F075F080EF123A8374AD
:10632C0030F0EF123AF27430F0EF123AB87430F0F9
:10633C00900401123EA07444F0EF123CF57441F04D
:10634C00900403123ECF7454F0EF123D097445F0E3
:10635C00900405123ECF7420F0EF123D127449F0F8
:10636C00900407123F0C7453F0EF123D1B7420F095
:10637C00900409123F0C7449F090040A123F3774D0
:10638C004EF090040B123F377456F0EF123D2F7401
:10639C0041F090040D123FCF744CF0EF123D387465
:1063AC0049F090040F123FCF7444F0EF123D4C743F
:1063BC0020F09004111240A6744FF0EF123D55746A
:1063CC0052F09004131240A67420F090041412435F
:1063DC00EE7446F09004151243EE7449F0EF123D42
:1063EC005E7458F0EF123D677420F0EF123D70743C
:1063FC0049F0EF123D797453F0900261E004F0E43F
:02640C00F55841
:0C640E0022F583E024D02FFF12F3E622D9
:10AC0200901F7FE493FE30E41FED1240FBE0FC1244
:10AC12003AFBEC123FE6124291E0FCEF123B61EC90
:10AC2200123B127420F08015123AFB7441F075F059
:10AC320080EF123B64742F123B12744EF0EE30E23E
:10AC420035ED75F00EA41243BDFE123AC1123FE576
:10AC52001243B2FE123AD6123FE52414F582E434CE
:10AC620001F583E0FE123B1D123FE51243A7FE12DF
:10AC72003A01EEF0801F123AC17420F0123AD674F3
:10AC820020F0EF123B8D7441F0123B1D742FF01235
:10AC92003A01744EF0ED75F00EA41241FE90045785
:10ACA200123D8C123FE5124128900456123D8C123F
:10ACB2003FE51241F3900454123E05123FE5124162
:10ACC2001D900453123E05EEF0901F7FE49330E393
:10ACD2003CED75F00EA412418FE0FE123A0B123FCA
:10ACE200E52419F582E43401F583E0FE123A5112AB
:10ACF2003FE51243C8FE123A5B123FE52417F58284
:10AD0200E43401F583E0FE123A76EEF022123A0BB9
:10AD12007420F0EF123AE97420F0123A517441F0C3
:0DAD2200123A5B742FF0123A76744EF02254
:1055F800E4F533F532F531F530F537F536F535F5AF
:10560800349002E312378B00000000E49002E7F0C8
:10561800A3F0E5447003025D3A301D03309309207E
:105628001206203503025D1F12F49DE4F5E385138D
:105638002A301D0920930612F1D812F4F4E4F52B50
:10564800E52BC395444003025D10AF1312DB94E5CC
:105658002AC394044003025CD4123EEDFF64046044
:1056680004EFB40504D20B8002C20B900800123E6E
:10567800F0FEA3E0786FA60608F690080D123F9397
:10568800540FF52C300B03025858E4F52E752F03F0
:10569800752F03E52F75F00F20E00F1243351240E8
:1056A80042E0540FF52D052E800C1243351240426E
:1056B800E0C4540FF52D7430252DF52DD3943940C1
:1056C800067407252DF52D900442124217E5822510
:1056D8002F124042E52DF0052FE52FB409B5123FF2
:1056E80090C413135403F52E14600F146011146042
:1056F8001324037012752FEE800D752FEF80087537
:105708002FF08003752FF11241B3246FF97404351B
:10571800F0FA7B01AF2FE4FCFDFE9002F27403F077
:1057280012E6C3123F90543FF52D90047412395D70
:10573800EFF0E52D75F00A84F52D9004731239C346
:10574800EF1241B2246AF97404900808123EA712B5
:105758005D3B1241B3247AF9740490080C123EA7F9
:10576800125D3B90080C1240E5D39464400BC21BB9
:10577800E49001F2F0C20D800B301B069001F2E0BC
:1057880004F0D21B9008091240E5FFE4FCFDFEFB83
:10579800FA7901F81235141243421236EDC006C0E8
:1057A8000790080A1242A87B00FAE4F9F8D007D05B
:1057B800061234F912434212370990080B1242A814
:1057C800FFE4FCFDFE1234F99002DF12376675F033
:1057D8000FE52B9008061237E0E0FEA3E0FF9001EA
:1057E8007FEEF0A3EFF0E48F338E32F531F530AD74
:1057F80031AC307B0FFAF9F81235148F338E328DB5
:10580800318C30124366123FDFE5332FFFE5323E1D
:10581800FEE5313DFDE5303C8F338E328D31F5307C
:105828001241B3243AF9740435F0FA7B01C003C07D
:1058380002C001124366123FDFAC00AD01AE02AFF9
:10584800039002F27406F0D001D002D00312E6C32E
:10585800AD2CAF2A12AC02300B03025BDA1242F411
:10586800D3124372500302598C7E157F8712405B16
:1058780012BBDD7E157F9F12413312BBDDAF0CAE2C
:105888000BAD0AAC09125D4A123E4C12BE8B7E1556
:105898007FAE12413312BBDD1242F4125D4A123E52
:1058A8004C12BE8B7E157FB912413312BBDD1240FC
:1058B80086900371740CF0128647123E4C12BE8B10
:1058C800124086E47B587A02F9F8D3123662507097
:1058D800900298E02402FFE433FE3395E0FDFCE4F7
:1058E8007B3CFAF8123514C004C005C006C0079006
:1058F800023AE0FF7E007C0E7D101238B71240F2AB
:10590800D007D006D005D0041234F9C004C005C0B1
:1059180006C007900239E0FFE4FCFDFE7B807A5167
:105928007901F81235141240F2D007D006D005D00C
:10593800041234F91240F2124086D312366240241F
:105948007F017E007D0F7C00C31243725016C3E4B2
:10595800950CFEE4950B9002E7F0A3CEF0D20E1260
:1059680041E98016850C33850B32850A318509306B
:105978007E157FCC12413312BBDD7E157FE4123DCC
:105988004512BBDDC3E533950CFFE532950BFEE50B
:1059980031950AFDE5309509FC9002E312376690CF
:1059A80002E31236EDEF250CFFEE350BFEED350A5E
:1059B800FDEC35098F0C8E0B8D0AF5099002E31268
:1059C80037099002E7E0FEA3E0FFE4FCFD1234F99A
:1059D8009002E31237669002E7E07002A3E06007E6
:1059E800E49002E7F0A3F0E4FFFEFDFC9002E3126E
:1059F800416A5003025B00123FD6900107E02BF08A
:105A0800123FD67B3C124353900108E02BF0E47B15
:105A1800107A0E123FDAE47B18124354900109E021
:105A28002BF07B807A5179017800123FDC90010AD3
:105A3800E02FF0900107E0FFC3943C400E1242D1E2
:105A4800900107E075F03C84E5F0F0900108E0FF74
:105A5800C3943C400E1242D1900108E075F03C849A
:105A6800E5F0F0900109E0FFC39418401175F018B3
:0E5A78001242D4900109E075F01884E5F0F0B8
:105A860090010BE024FC602B24FE602724FD60239C
:105A960024FE601F2409702690010CE05403700553
:105AA600FE7F1D80047E007F1C9002E9EEF0A3EFCE
:105AB600F080149002E9E4F0A3741EF080099002CD
:105AC600E9E4F0A3741FF090010AE0FFFD9002E9FB
:105AD600E0FAA3E0FBC39D7480F8EA648098501A4C
:105AE600C3EF9B90010AF0A3E004F0E0D3940C40CE
:085AF6008F7401F0A3E004F03D
:105AFE008086900109E0900432123A2DEEF0EF907C
:105B0E00043112397EEFF0900108E0FF123F0512CA
:105B1E0042FD123A83EEF0EF12397BEFF09001075F
:105B2E00E0FF123F051242FD123ABBEEF0EF900479
:105B3E00371239A8EFF090010AE0FF123F0512422A
:105B4E00FD123A8CEEF0EF1239A5EFF090010BE05A
:105B5E00900427123A2DEEF0EF123B277430F0909E
:105B6E00010C124439E52A123CC8EEF0EF12395AF4
:105B7E00EFF0900439124217742EF0300E4B7E1552
:105B8E007FE5123D4512BBDD90010BE0FF12F3E6FF
:105B9E008F1190010AE0FF12F3E68F1090010CE0D6
:105BAE00FF12F3E68F12900109E0FF12F3E68F0F5A
:105BBE00900108E0FF12F3E68F0E900107E0FF124E
:105BCE00F3E68F0D12EA1AC20E1241BAE52A123C02
:105BDE00BF74201241B2FFAEF0C006C0071242F4ED
:105BEE009002ED1243451236ED9002F1123766D057
:105BFE0007D006128A44302329E4FDAF2A12E301AE
:105C0E00AF2A129DEA1241B32400F9740435F0FA5A
:105C1E007B01A21292387D0A12BE8B7D03AF2A122F
:105C2E00E301123EED64057076300B73E50F9004C0
:105C3E0032123A65EFF0E50F124099123AE3EFF0A7
:105C4E00E50E900435123A65EFF0E50E12397BEF52
:105C5E00F0E50D123F0512409D123ABBEFF0E50D37
:105C6E00124099123AF5EFF0E51090042A1239C35A
:105C7E00EFF0E5101239A5EFF0E511123F051240D5
:105C8E009D123A95EFF0E511123B277430F0E512B4
:105C9E00124099123CCBEFF0E51212395AEFF0AFE9
:105CAE002A129DEA123EEDFDB40405AF2A125D5490
:105CBE00852A13052A052BE52B65446003025657EA
:105CCE00752A04025657301D33209330AF13051337
:105CDE00EFC39403400E7D017F007E0212DE9DE431
:105CEE00F5138018E5132401FFE433FEEF7807C3A4
:105CFE0033CE33CED8F9FFE4FD12DE9DE4F52A0251
:105D0E005648301D0C20930912F1D812F4F412C427
:105D1E00DC202207C23812F0E8800312F1A675E3E8
:0C5D2E0001C22CE4900299F0900261F098
:105D3A0022FFE4FCFDFE9002F27403F012E6C32295
:0A5D4A00900371740CF012864722DA
:10D59100D205D295D209D2A4D20AD290D21BC20D01
:10D5A100E49001F2F09001E7F012F49D12F1A6125D
:10D5B100F2CFC217C21DC21A12ED3FE490027EF0F3
:10D5C100C2A3D283D2B5C21212F4DBC2A3D283D2D8
:10D5D100B5C218D2AF30930A7E167F00123D4512B4
:10D5E100BBDDE4F5081291E37F01123B9612418FF6
:10D5F100EEF00FEF640870F27508079006281237F5
:10D601008B00000000E4786DF608F67E167F151297
:0CD611003D4512BBDDD2A0C2121243F551
:01D61D0022EA
:0D00760075F1F875F3EF43E28075F5FF2298
:10008E00E49002AFF012E8C9900228E0645B6003CE
:10009E00020E5F7E167F33120E85E4900228F0A3C7
:1000AE00E0123833015241039542017743057E44F5
:1000BE0005A84505D24605FC4706224801A4490776
:1000CE008A4A08794B01B04C08ED4D094C4E017728
:1000DE004F0AD9500C1A510C485201B553023354E1
:1000EE000CCE5502395602415702C2580D305901F5
:1000FE00775A03846104D362016B6305936405BD73
:10010E006505E766060B67063D6806F66907CB6A66
:10011E0008BC6B08DA6C09266D09876E0A2D6F0B09
:10012E00D8700C31710C81720C99730CB1740CE592
:10013E00750CF7760D0F770D15780D7B790E2B7AE2
:10014E0000000E3DC2267E167F44120E85E4FDFF92
:10015E0012AC02129AA3C218C218020E47E4FDFF97
:10016E0012E30112E541020E47D218C2269002296F
:10017E00E0FF64436004EFB45A091284267E167FB2
:10018E0057800712C5997E167F67120E8FE4FDFF0A
:10019E0012E301020E471200899002627404F0020B
:1001AE000E47D218020E4712413A7072A3E0900227
:1001BE00281241A89002291241134003020E47EF64
:1001CE0094064003020E47A3E0FFE49F4003020E95
:1001DE0047EF94094003020E479002281242B29054
:1001EE00022912421FE0D3943C4003743CF01243A8
:1001FE007D50037401F09002AFE0FF901F63E49313
:10020E006F60147E1F7F63120FB17E167F77120F01
:10021E0043121030020E477E167F88020E417E1664
:10022E007F99020E4112E250020E47D23812BF6978
:10023E00020E4712413A706E1241A39001F412441D
:10024E0053506AEF94065065A3E0FFE49F505EEFB3
:10025E00940950599001F31242B29001F412421FC8
:10026E00E0D3947F4003747FF012437D50037401FA
:10027E00F09002AFE025E0F0E0FF901F64E4936F92
:10028E00601E7E1F7F64120FB19002AFE09001CC12
:10029E00F07E167FBF120F92123E4C12BE8B800D57
:1002AE007E167F8880047E167FCF120E8F7E167F7D
:1002BE00F5120E9912413A60030203761241A39091
:1002CE0001F4F090022DE024D09001F51244534039
:1002DE000302037DEF9402400302037DA3E0FFE4DB
:1002EE009F400302037DEF9409400302037DA3E0C8
:1002FE00FFE49F507AEF940950759001F375F06406
:10030E001242B59001F4E075F00AA4124220900159
:10031E00F512421FE0D394FE400374FAF012437DAF
:10032E0050037401F09002AFE0FF901F65E4936FED
:10033E0060307E1F7F657A0279AF12404E04F01254
:10034E00EC029002AFE09001C8F07E167FFC120F17
:10035E00C31240AD123F1A128647123E4C12BE8B8C
:10036E00800D7E167F8880047E177F10120E997E78
:10037E00167FF5020E417E177F34120EA3129F6F69
:10038E007E177F3D020E417E177F46120EA37E1012
:10039E007F53120EAD901F7EE49330E6067E177FDC
:1003AE004F80047E177F58120EAD901F7EE493305F
:1003BE00E7067E177F6280047E177F6A120EB79063
:1003CE001F7EE49330E5067E177F7380047E177FD1
:1003DE0089120EB7901F7EE49330E4067E177FA03D
:1003EE0080047E177FBD120EC1901F7EE49330E213
:1003FE00067E177FDB80047E177FEF120EC1901FE3
:10040E007EE49330E1067E187F0480047E187F1709
:10041E00120ECB901F7EE49330E0067E187F2B8069
:10042E00047E187F3B120ECB901F7FE49330E206C2
:10043E007E187F4C80047E187F5C120ED5901F7F35
:10044E00E49330E3067E187F6D80047E187F7A1267
:10045E000ED5901F7FE49330E4067E187F888004CB
:10046E007E187F91120EDF7E187F9B120F431210A3
:10047E00307E187FA9120EDF7E187FAB120FC3904D
:10048E001F80120F62901F81120F62901F82123F07
:10049E0013121010901F83123F13121010901F840E
:1004AE00123F13128647A21292387D0312BE8B9012
:1004BE001F85123F13128647123E4C12BE8B7E18BA
:1004CE007FBF020E417E187FC8120EE912413A60BC
:1004DE0003020570A3E0B42D047F0180027F001299
:1004EE003F3E901F621241095072EFC39409506C47
:1004FE00A3E0642E7066A3E0FFE49F505FEF9409C3
:10050E00505A124171B42D20124385245012424389
:10051E009DEC1240D440089001CA74B0F08021C303
:10052E00EF9E9001CAF0801812445D74509FFF1226
:10053E0042479F9001CA40057450F08003E02EF0B0
:10054E00901F62E493FF9001CAE06F60097E1F7FE7
:10055E0062120FD780137E187FD1800A7E187FE536
:10056E0080047E187FF0120EE97E187FFB020E418A
:10057E007E197F04120EF37F017E0012DAA87E1917
:10058E007F0D020E417E197F16120EF37F027E0042
:10059E0012DAA87E197F1F020E417E197F28120ED5
:1005AE00FD7F037E0012DAA87E197F31020E417E96
:1005BE00197F3A120EFD7F047E0012DAA87E197F93
:1005CE0043020E417E197F4C120F077F067E0012EA
:1005DE00DAA87E197F55020E417E197F5E120F0733
:1005EE007F057E0012DAA87E197F67020E417E1902
:1005FE007F70120F117F0612103A020E417E197F84
:10060E0082120F1112405712BBDD12CCCF7E197F12
:10061E008B020E417E197F94120F1B7E197F9D1245
:10062E00405B12BBDD12C6567E197FB1020E417EB3
:10063E00197FBA120F1B12413A60030206E8A3E0BB
:10064E00FD642D7033A3E0FEC39430400DEED394C1
:10065E00395007EE24D09001CAF090022DE0FFC36E
:10066E0094304009EFD3943950031242DC9001CA02
:10067E00E075F0FFA4F0802AEDC394304011900293
:10068E002BE0FFD394395007EF24D09001CAF0909D
:10069E00022CE0FFC394304009EFD394395003127B
:1006AE0042DC12445D648094744029D3EF648094DC
:1006BE008E5021900228EFF0E4A3F0901F67936F05
:1006CE00601F7E1F7F6712404A04F012EC027E19F3
:1006DE007FC3800A7E197FD080047E197FFA120FA5
:1006EE00257E1A7F24020E417E1A7F2D120F2512AF
:1006FE00413A7074A3E09001F5F090022CE0900165
:10070E00F6F090022DE09001F7F090022EE09001AD
:10071E00F8F090022FE09001F9F0900230E0900195
:10072E00FAF0900231E09001FBF0900232E090017D
:10073E00FCF0900233E09001FDF0900234E0900165
:10074E00FEF0900235E09001FFF0900236E090024C
:10075E0000F012E25012DB207E117FEF120FCD124D
:10076E00CCCF7E157FE480047E1A7F36120F2F12B7
:10077E003E4612BE8B7E1A7F67020E417E1A7F7036
:10078E00120F2FB2137C1F7D7E9002E6E4F0A304BD
:10079E00F0FB7A02792812E62B900228E03013093A
:1007AE004410F07E1A7F79800754EFF07E1A7F8E08
:1007BE00120F39120F7C7E1A7FA7020E417E1A7F0E
:1007CE00B0120F3912413A60030208681241885084
:1007DE0003020868EFD3943240030208681241887E
:1007EE004078EFD394345072124188406DEFD39419
:1007FE003650671241884062EFD39439505C1241F3
:10080E00884057EFD394365051124188404CEFD365
:10081E0094395046E49002AFF012434C9406501BAC
:10082E00E0FE242BF582E43402F583E024D0FD743F
:10083E00282E124157ED12430680DE74282F1241E6
:10084E0057E4F07E1F7F807B017A0279289003B0F7
:10085E00F0A37406F012EC02800A7E1A7FB9123DE4
:10086E004512BBDD7E1A7FDB020E417E1A7FE4123B
:10087E003D4512BBDDB226120FE93026154480F03D
:10088E007E1A7FED123D4512BBDD75E30112AE56A9
:10089E008012547FF07E1A7FF9123D4512BBDDC2E5
:1008AE0096E4F5E3120F7C7E1B7F06020E417E1B43
:1008BE007F0F123D4512BBDD63E301E5E330E0053A
:1008CE007F0112EADF7E1B7F18020E417E1B7F2105
:1008DE00123D4512BBDDB2967E1B7F2A020E417E73
:1008EE001B7F33123D4512BBDD3096067E1B7F3CCF
:1008FE0080047E1B7F4B123D4512BBDDE5E330E0ED
:10090E00067E1B7F5980047E1B7F6F123D4512BBF6
:10091E00DD7E1B7F86020E417E1B7F8F123D4512B0
:10092E00BBDDB2083008067E1B7F9880047E1B7FDD
:10093E00A7123D4512BBDD7E1B7FBA020E417E1B08
:10094E007FC3123D4512BBDDB223120FE9302309DE
:10095E004440F07E1B7FCC800754BFF07E1B7FE6A9
:10096E00123D4512BBDD7E1F7F7E12404A04F012FF
:10097E00EC027E1C7F05020E417E1C7F0E123D4551
:10098E001210066003020A1CA3124009E49002AF83
:10099E00F012434C94055018124153E0FDEE901F97
:1009AE006E936D60069002AF740CF012430780E1F7
:1009BE00EF640D70537E1C7F17123D4512BBDD7E1A
:1009CE001F7F6E12404A7405F012EC027E1C7F2EC1
:1009DE00120E60901F6EE493FF12440AFE1244142E
:1009EE00FD12441EFC124428FB900269F090029DF9
:1009FE00EFF090029FEEF09002A1EDF09002A3ECCA
:100A0E00F09002A5EBF080107E167F8880047E1C8D
:100A1E007F4C123D4512BBDD7E1C7F6A020E417E6D
:100A2E001C7F73123D451210066003020AC8900225
:100A3E002EE0642C6003020AC8900231E0642C7030
:100A4E007990022B124009900230E090022DF09026
:100A5E000231E090022EF0900232E090022FF090E0
:100A6E000233E0900230F0E49002AFF012434C9467
:100A7E00095018124153E0FDEE901F74936D6006FD
:100A8E009002AF740CF012430780E1EF640D7024F6
:100A9E007E1C7F7C123D4512BBDD7E1F7F74124093
:100AAE004A7409F012EC027E1C7F8E120FCD7E1F4F
:100ABE007F74800A7E167F8880047E187FF0123D38
:100ACE004512BBDD7E1C7FA7020E417E1C7FB0123D
:100ADE003D4512BBDD7E1C7FB9123D4512BBDD7E4E
:100AEE001C7FE0123FA812BBDD12CCCF7E1E7FF71B
:100AFE00120E607E1F7F3A123D4512BBDD7E1E7FB9
:100B0E00D8123FA812BBDD7E1F7F68123D4512BB77
:100B1E00DD7E1E7FDF123FA812BBDD7E1F7F7412AB
:100B2E003D4512BBDD7E1E7FEB123FA812101D7ECF
:100B3E001C7FF4123FA812BBDD901F61E493FFC32C
:100B4E0064809480500BEF1240B3900371740E804A
:100B5E000B901F611240B0900371740FF012864714
:100B6E00123E4C12BE8B7E1D7F06123FA812BBDDBD
:100B7E00901F62E493FFC364809480500BEF124089
:100B8E00B3900371740E800B901F621240B09003ED
:100B9E0071740FF0128647123E4C12BE8B7E1D7F73
:100BAE001B120F92123E4C12BE8B7E1D7F36123FD1
:100BBE00A812BBDD1240AD123F1A128647123E4CF0
:100BCE0012BE8B7E1D7F4F020E417E1D7F58123D41
:100BDE004512BBDD20932B9001F5E06420701CA321
:100BEE00E064537016A3E0B452117E1D7F61123D76
:100BFE004512BBDD1242BCD2358002C23512D5027F
:100C0E008003120E777E1D7F7C020E417E1D7F8536
:100C1E00123D4512BBDD20930312F4FA7E1D7F8E2A
:100C2E00020E417E1D7F97123D4512BBDD209303C0
:100C3E0012F4FD7E1D7F8E020E417E1D7FA0123DA1
:100C4E004512BBDD20931B9001F5E06420701DA3BF
:100C5E00E064537017A3E0B452121242BC12DFC606
:100C6E00800A7E1D7FA9123D4512BBDD7E1D7FBB16
:100C7E00020E417E1D7FC4123D4512BBDD7F027EFA
:100C8E000012E1F77E1D7FCD020E417E1D7FD61232
:100C9E003D4512BBDD7F037E0012E1F77E1D7FDF37
:100CAE00020E417E1D7FE8123D4512BBDD7F047EA4
:100CBE000012E1F7E49001C9F07E1D7FF1020E41B2
:100CCE007E1D7FFA123D4512BBDDE4FFFE12E1F7F9
:100CDE007E197F79020E417E1E7F03123D4512BBA7
:100CEE00DD7F0112103A020E417E1E7F0C123D4531
:100CFE0012BBDD7F057E0012E1F77E1E7F15020E10
:100D0E004143EF10020E477E1E7F1E123D4512BB61
:100D1E00DD7E1E7F27123D4512101D7E1E7F360280
:100D2E000E417E1E7F3F123D4512BBDD7E1E7F486B
:100D3E00123D4512BBDD20932A7E1E7F58123FA81E
:100D4E0012BBDD7B017A02796312440312BE8B7EE5
:100D5E00027F637A0279637B011242C2D23512D5C9
:100D6E00028003120E777E1E7F63020E417E1E7F6F
:100D7E006C123D4512BBDD12413A6003020E1BA3FD
:100D8E00E0B42D047F0180027F00123F3E901F6170
:100D9E001241095072EFC39409506CA3E0642E7097
:100DAE0066A3E0FFE49F505FEF9409505A12417121
:100DBE00B42D2012438524321242439DEC1240D4AE
:100DCE0040089001CA74CEF08021C3EF9E9001CAF4
:100DDE00F0801812445D74329FFF1242479F9001BB
:100DEE00CA40057432F08003E02EF0901F61E49348
:100DFE00FF9001CAE06F60097E1F7F61120FD780DE
:100E0E00167E187FD1800A7E187FE580047E187FBB
:100E1E00F0123D4512BBDD7E1E7F7580167E1E7F55
:100E2E007E123D4512BBDDD2247E1E7F8780047E5E
:100E3E001E7F90123D4512BBDDE49002AFF01243CF
:100E4E004C940F500C74282F124157E41243068015
:010E5E00EDA6
:100E5F0022A21292397D0312BBDD7E1F7F6EA2127A
:100E6F0092397D0912BBDD227E1D7F69A212923954
:100E7F007D0912BBDD22A21292397D0912BBDD2240
:100E8F00A21292397D0912BBDD22A21292397D097D
:100E9F0012BBDD22A21292397D0912BBDD22A212F2
:100EAF0092397D0912BBDD22A21292397D0912BB44
:100EBF00DD22A21292397D0912BBDD22A2129239D4
:100ECF007D0912BBDD22A21292397D0912BBDD22F0
:100EDF00A21292397D0912BBDD22A21292397D092D
:100EEF0012BBDD22A21292397D0912BBDD22A212A2
:100EFF0092397D0912BBDD22A21292397D0912BBF4
:100F0F00DD22A21292397D0912BBDD22A212923983
:100F1F007D0912BBDD22A21292397D0912BBDD229F
:100F2F00A21292397D0912BBDD22A21292397D09DC
:100F3F0012BBDD22A21292397D0312BBDD901F631B
:100F4F00E493FF3395E0FEFDFC9003717402F01201
:100F5F00864722E493FFE4FCFDFE9003717402F0D8
:100F6F00128647A21292387D0312BE8B227E1F7FFC
:100F7F007E7B017A0279289003B0E4F0A304F0128B
:100F8F00EC0222A21292397D0312BBDD901F64E4A2
:100F9F0093FF3395E0FEFDFC9003717402F012860F
:100FAF0047227B017A0279AF9003B0E4F0A304F0FB
:100FBF0012EC0222A21292397D0312BBDD22A21281
:100FCF0092397D0312BBDD227B017A0179CA90032E
:100FDF00B0E4F0A304F012EC0222E4900229F07CBA
:100FEF001F7D7E9002E6F0A304F0FB7A02792812AF
:100FFF00E62B900228E02212BBDD90022AE064204B
:10100F0022128647A21292387D0312BE8B2212BB88
:10101F00DD7B017A027963A21292387D0912BE8BB1
:10102F0022A21292387D0312BE8B227E0012E1F7AC
:05103F007E197F7922FB
:0300530002F07246
:10F07200C0E0C0D0E5BBB41E0875BB0475BCFC8003
:0EF082000675BB1E75BCF8C2EDD0D0D0E032D2
:03008B0002DC7A1A
:10DC7A00C0E0C0F0C083C082C0D075D000C000C070
:0DDC8A0001C002C003C004C005C006C007F1
:10DC970012F415EF30E2337B013024257A0179F352
:10DCA7007D3112A9A49001F3E0900228F09001F4CD
:10DCB700E0900229F09001F5E090022AF0C224805A
:0ADCC700097A0279287D0F12A9A442
:10DCD100D007D006D005D004D003D002D001D000A7
:0BDCE100D0D0D082D083D0F0D0E03251
:0FF40600EFC4540F75F00AA4FEEF540F2EFF222F
:10F3E600EF75F00A84C454F0FEEF123F054EFF227B
:10D8370075F43E20B278901F7FE49330E01A7E1E85
:10D847007FA4123FA812BBDD900297E0123F15128A
:10D857008647123E4C12BE8B900297E0FF14F0EF02
:10D86700C394025049901F7FE49330E00A7E1E7FE5
:10D87700BF123FA812BBDD9001F0123F89D2B190D1
:10D887001F7FE49330E0139001F0E0FEA3E0124322
:10D897009C12864712440312BE8B12EDCD9002975D
:0FD8A7007404F07D407C067F0112ED6FC2B12248
:10EF3F00FDFC123686E53E4FFFE53D4EFEE53C4DAE
:10EF4F00FDE53B4C8F3E8E3D8D3CF53B229003669D
:05EF5F001236EDE42272
:06E99600900366123766D3
:10E99C00E4F53EF53DF53CF53B12EF5CFFFEFDEC7E
:10E9AC00781812367312EF4412EF5CFFFEE4FC7819
:10E9BC000812367312EF4412EF5CFFE4780812EF82
:0BE9CC003F12EF5CFE781812EF3FFCDA
:01E9D700221D
:02F47300AD07E3
:08F47500EEFBEDFAEBAE02FF25
:01F47D00226C
:09F4B100C2AF75FF8075EF022265
:10EE5600A2AF923C12F4B18E3F8F4075B7A575B73D
:10EE6600F1438F0112F4B3854082853F83EDF05361
:06EE76008FFEA23C92AFEA
:01EE7C002273
:10F27900A2AF923CC2AF8E3F8F408F828E83E493C0
:05F28900FFA23C92AF62
:01F28E00225D
:10EE7D00A2AF923C12F4B18E3F8F4075B7A575B716
:10EE8D00F1438F0312F4B3854082853F83E4F05341
:06EE9D008FFCA23C92AFC5
:01EEA300224C
:10DDCA00E0FEA3E0FF9003BEEEF0A3EFF0A374F829
:10DDDA00F0A3E4F09003BCE0229003B2E0FEA3E0DB
:10DDEA00FFC39003B9E09FFF9003B8E09E225FFF54
:10DDFA00EEF0A3EFF02400FFEE3402CF24FFCF347D
:10DE0A00FF22E0FEA3E0FFA3E0FCA3E0FD22E4750D
:10DE1A00F00102341B9003B4FEE0FCA3E0FD22EE05
:0BDE2A00F0A3EFF0A3ECF0A3EDF0225A
:0693B2009003B212DE2957
:1093B8009003BC7402F0A3E4F024FFFB740234FFB2
:1093C800FAEBF4FFEAF4FE9003B2E05EFEA3E0904D
:1093D80003B612DDF8A3F0A3EFF0EBF4FFEAF41202
